{
	"Example/Ex6_9.sol": {
		"Ex6_9": {
			"abi": [
				{
					"inputs": [],
					"stateMutability": "nonpayable",
					"type": "constructor"
				},
				{
					"anonymous": false,
					"inputs": [
						{
							"indexed": false,
							"internalType": "string",
							"name": "info",
							"type": "string"
						}
					],
					"name": "Information",
					"type": "event"
				},
				{
					"inputs": [],
					"name": "deliveryFoood",
					"outputs": [],
					"stateMutability": "nonpayable",
					"type": "function"
				},
				{
					"inputs": [],
					"name": "foodStatus",
					"outputs": [
						{
							"internalType": "enum Ex6_9.FoodProcess",
							"name": "",
							"type": "uint8"
						}
					],
					"stateMutability": "view",
					"type": "function"
				},
				{
					"inputs": [],
					"name": "orderFood",
					"outputs": [],
					"stateMutability": "nonpayable",
					"type": "function"
				},
				{
					"inputs": [],
					"name": "paymentFood",
					"outputs": [],
					"stateMutability": "nonpayable",
					"type": "function"
				},
				{
					"inputs": [],
					"name": "takeAwayFood",
					"outputs": [],
					"stateMutability": "nonpayable",
					"type": "function"
				}
			],
			"devdoc": {
				"kind": "dev",
				"methods": {},
				"version": 1
			},
			"evm": {
				"assembly": "    /* \"Example/Ex6_9.sol\":0:1077  contract Ex6_9{... */\n  mstore(0x40, 0x80)\n    /* \"Example/Ex6_9.sol\":188:248  constructor(){... */\n  callvalue\n  dup1\n  iszero\n  tag_1\n  jumpi\n  0x00\n  dup1\n  revert\ntag_1:\n  pop\n    /* \"Example/Ex6_9.sol\":222:241  FoodProcess.payment */\n  0x03\n    /* \"Example/Ex6_9.sol\":211:221  foodStatus */\n  0x00\n  dup1\n    /* \"Example/Ex6_9.sol\":211:241  foodStatus=FoodProcess.payment */\n  0x0100\n  exp\n  dup2\n  sload\n  dup2\n  0xff\n  mul\n  not\n  and\n  swap1\n  dup4\n  0x03\n  dup2\n  gt\n  iszero\n  tag_4\n  jumpi\n  tag_5\n  tag_6\n  jump\t// in\ntag_5:\ntag_4:\n  mul\n  or\n  swap1\n  sstore\n  pop\n    /* \"Example/Ex6_9.sol\":0:1077  contract Ex6_9{... */\n  jump(tag_7)\n    /* \"#utility.yul\":7:187   */\ntag_6:\n    /* \"#utility.yul\":55:132   */\n  0x4e487b7100000000000000000000000000000000000000000000000000000000\n    /* \"#utility.yul\":52:53   */\n  0x00\n    /* \"#utility.yul\":45:133   */\n  mstore\n    /* \"#utility.yul\":152:156   */\n  0x21\n    /* \"#utility.yul\":149:150   */\n  0x04\n    /* \"#utility.yul\":142:157   */\n  mstore\n    /* \"#utility.yul\":176:180   */\n  0x24\n    /* \"#utility.yul\":173:174   */\n  0x00\n    /* \"#utility.yul\":166:181   */\n  revert\n    /* \"Example/Ex6_9.sol\":0:1077  contract Ex6_9{... */\ntag_7:\n  dataSize(sub_0)\n  dup1\n  dataOffset(sub_0)\n  0x00\n  codecopy\n  0x00\n  return\nstop\n\nsub_0: assembly {\n        /* \"Example/Ex6_9.sol\":0:1077  contract Ex6_9{... */\n      mstore(0x40, 0x80)\n      callvalue\n      dup1\n      iszero\n      tag_1\n      jumpi\n      0x00\n      dup1\n      revert\n    tag_1:\n      pop\n      jumpi(tag_2, lt(calldatasize, 0x04))\n      shr(0xe0, calldataload(0x00))\n      dup1\n      0x0276843a\n      eq\n      tag_3\n      jumpi\n      dup1\n      0x429268ae\n      eq\n      tag_4\n      jumpi\n      dup1\n      0x94d15a9e\n      eq\n      tag_5\n      jumpi\n      dup1\n      0xc62efc2b\n      eq\n      tag_6\n      jumpi\n      dup1\n      0xd9c966fd\n      eq\n      tag_7\n      jumpi\n    tag_2:\n      0x00\n      dup1\n      revert\n        /* \"Example/Ex6_9.sol\":662:871  function deliveryFoood() public{... */\n    tag_3:\n      tag_8\n      tag_9\n      jump\t// in\n    tag_8:\n      stop\n        /* \"Example/Ex6_9.sol\":253:450  function orderFood() public{... */\n    tag_4:\n      tag_10\n      tag_11\n      jump\t// in\n    tag_10:\n      stop\n        /* \"Example/Ex6_9.sol\":455:657  function takeAwayFood() public{... */\n    tag_5:\n      tag_12\n      tag_13\n      jump\t// in\n    tag_12:\n      stop\n        /* \"Example/Ex6_9.sol\":876:1075  function paymentFood() public{... */\n    tag_6:\n      tag_14\n      tag_15\n      jump\t// in\n    tag_14:\n      stop\n        /* \"Example/Ex6_9.sol\":152:181  FoodProcess public foodStatus */\n    tag_7:\n      tag_16\n      tag_17\n      jump\t// in\n    tag_16:\n      mload(0x40)\n      tag_18\n      swap2\n      swap1\n      tag_19\n      jump\t// in\n    tag_18:\n      mload(0x40)\n      dup1\n      swap2\n      sub\n      swap1\n      return\n        /* \"Example/Ex6_9.sol\":662:871  function deliveryFoood() public{... */\n    tag_9:\n        /* \"Example/Ex6_9.sol\":723:743  FoodProcess.takeAway */\n      0x01\n        /* \"Example/Ex6_9.sol\":711:743  foodStatus==FoodProcess.takeAway */\n      0x03\n      dup2\n      gt\n      iszero\n      tag_21\n      jumpi\n      tag_22\n      tag_23\n      jump\t// in\n    tag_22:\n    tag_21:\n        /* \"Example/Ex6_9.sol\":711:721  foodStatus */\n      0x00\n      dup1\n      sload\n      swap1\n      0x0100\n      exp\n      swap1\n      div\n      0xff\n      and\n        /* \"Example/Ex6_9.sol\":711:743  foodStatus==FoodProcess.takeAway */\n      0x03\n      dup2\n      gt\n      iszero\n      tag_24\n      jumpi\n      tag_25\n      tag_23\n      jump\t// in\n    tag_25:\n    tag_24:\n      eq\n        /* \"Example/Ex6_9.sol\":703:777  require(foodStatus==FoodProcess.takeAway,\"It must be the takeAway status\") */\n      tag_26\n      jumpi\n      mload(0x40)\n      0x08c379a000000000000000000000000000000000000000000000000000000000\n      dup2\n      mstore\n      0x04\n      add\n      tag_27\n      swap1\n      tag_28\n      jump\t// in\n    tag_27:\n      mload(0x40)\n      dup1\n      swap2\n      sub\n      swap1\n      revert\n    tag_26:\n        /* \"Example/Ex6_9.sol\":798:818  FoodProcess.delivery */\n      0x02\n        /* \"Example/Ex6_9.sol\":787:797  foodStatus */\n      0x00\n      dup1\n        /* \"Example/Ex6_9.sol\":787:818  foodStatus=FoodProcess.delivery */\n      0x0100\n      exp\n      dup2\n      sload\n      dup2\n      0xff\n      mul\n      not\n      and\n      swap1\n      dup4\n      0x03\n      dup2\n      gt\n      iszero\n      tag_29\n      jumpi\n      tag_30\n      tag_23\n      jump\t// in\n    tag_30:\n    tag_29:\n      mul\n      or\n      swap1\n      sstore\n      pop\n        /* \"Example/Ex6_9.sol\":833:864  Information(\"delivery success\") */\n      0xff8fea957fb7cb582ef297c1c74436fe7a9914efbc52adf197600dc9d171efbc\n      mload(0x40)\n      tag_31\n      swap1\n      tag_32\n      jump\t// in\n    tag_31:\n      mload(0x40)\n      dup1\n      swap2\n      sub\n      swap1\n      log1\n        /* \"Example/Ex6_9.sol\":662:871  function deliveryFoood() public{... */\n      jump\t// out\n        /* \"Example/Ex6_9.sol\":253:450  function orderFood() public{... */\n    tag_11:\n        /* \"Example/Ex6_9.sol\":310:329  FoodProcess.payment */\n      0x03\n        /* \"Example/Ex6_9.sol\":298:329  foodStatus==FoodProcess.payment */\n      dup1\n      dup2\n      gt\n      iszero\n      tag_34\n      jumpi\n      tag_35\n      tag_23\n      jump\t// in\n    tag_35:\n    tag_34:\n        /* \"Example/Ex6_9.sol\":298:308  foodStatus */\n      0x00\n      dup1\n      sload\n      swap1\n      0x0100\n      exp\n      swap1\n      div\n      0xff\n      and\n        /* \"Example/Ex6_9.sol\":298:329  foodStatus==FoodProcess.payment */\n      0x03\n      dup2\n      gt\n      iszero\n      tag_36\n      jumpi\n      tag_37\n      tag_23\n      jump\t// in\n    tag_37:\n    tag_36:\n      eq\n        /* \"Example/Ex6_9.sol\":290:362  require(foodStatus==FoodProcess.payment,\"It must be the payment status\") */\n      tag_38\n      jumpi\n      mload(0x40)\n      0x08c379a000000000000000000000000000000000000000000000000000000000\n      dup2\n      mstore\n      0x04\n      add\n      tag_39\n      swap1\n      tag_40\n      jump\t// in\n    tag_39:\n      mload(0x40)\n      dup1\n      swap2\n      sub\n      swap1\n      revert\n    tag_38:\n        /* \"Example/Ex6_9.sol\":383:400  FoodProcess.order */\n      0x00\n        /* \"Example/Ex6_9.sol\":372:382  foodStatus */\n      dup1\n      0x00\n        /* \"Example/Ex6_9.sol\":372:400  foodStatus=FoodProcess.order */\n      0x0100\n      exp\n      dup2\n      sload\n      dup2\n      0xff\n      mul\n      not\n      and\n      swap1\n      dup4\n      0x03\n      dup2\n      gt\n      iszero\n      tag_41\n      jumpi\n      tag_42\n      tag_23\n      jump\t// in\n    tag_42:\n    tag_41:\n      mul\n      or\n      swap1\n      sstore\n      pop\n        /* \"Example/Ex6_9.sol\":415:443  Information(\"Order success\") */\n      0xff8fea957fb7cb582ef297c1c74436fe7a9914efbc52adf197600dc9d171efbc\n      mload(0x40)\n      tag_43\n      swap1\n      tag_44\n      jump\t// in\n    tag_43:\n      mload(0x40)\n      dup1\n      swap2\n      sub\n      swap1\n      log1\n        /* \"Example/Ex6_9.sol\":253:450  function orderFood() public{... */\n      jump\t// out\n        /* \"Example/Ex6_9.sol\":455:657  function takeAwayFood() public{... */\n    tag_13:\n        /* \"Example/Ex6_9.sol\":515:532  FoodProcess.order */\n      0x00\n        /* \"Example/Ex6_9.sol\":503:532  foodStatus==FoodProcess.order */\n      0x03\n      dup2\n      gt\n      iszero\n      tag_46\n      jumpi\n      tag_47\n      tag_23\n      jump\t// in\n    tag_47:\n    tag_46:\n        /* \"Example/Ex6_9.sol\":503:513  foodStatus */\n      0x00\n      dup1\n      sload\n      swap1\n      0x0100\n      exp\n      swap1\n      div\n      0xff\n      and\n        /* \"Example/Ex6_9.sol\":503:532  foodStatus==FoodProcess.order */\n      0x03\n      dup2\n      gt\n      iszero\n      tag_48\n      jumpi\n      tag_49\n      tag_23\n      jump\t// in\n    tag_49:\n    tag_48:\n      eq\n        /* \"Example/Ex6_9.sol\":495:563  require(foodStatus==FoodProcess.order,\"It must be the order status\") */\n      tag_50\n      jumpi\n      mload(0x40)\n      0x08c379a000000000000000000000000000000000000000000000000000000000\n      dup2\n      mstore\n      0x04\n      add\n      tag_51\n      swap1\n      tag_52\n      jump\t// in\n    tag_51:\n      mload(0x40)\n      dup1\n      swap2\n      sub\n      swap1\n      revert\n    tag_50:\n        /* \"Example/Ex6_9.sol\":584:604  FoodProcess.takeAway */\n      0x01\n        /* \"Example/Ex6_9.sol\":573:583  foodStatus */\n      0x00\n      dup1\n        /* \"Example/Ex6_9.sol\":573:604  foodStatus=FoodProcess.takeAway */\n      0x0100\n      exp\n      dup2\n      sload\n      dup2\n      0xff\n      mul\n      not\n      and\n      swap1\n      dup4\n      0x03\n      dup2\n      gt\n      iszero\n      tag_53\n      jumpi\n      tag_54\n      tag_23\n      jump\t// in\n    tag_54:\n    tag_53:\n      mul\n      or\n      swap1\n      sstore\n      pop\n        /* \"Example/Ex6_9.sol\":619:650  Information(\"takeAway success\") */\n      0xff8fea957fb7cb582ef297c1c74436fe7a9914efbc52adf197600dc9d171efbc\n      mload(0x40)\n      tag_55\n      swap1\n      tag_56\n      jump\t// in\n    tag_55:\n      mload(0x40)\n      dup1\n      swap2\n      sub\n      swap1\n      log1\n        /* \"Example/Ex6_9.sol\":455:657  function takeAwayFood() public{... */\n      jump\t// out\n        /* \"Example/Ex6_9.sol\":876:1075  function paymentFood() public{... */\n    tag_15:\n        /* \"Example/Ex6_9.sol\":947:948  2 */\n      0x02\n        /* \"Example/Ex6_9.sol\":935:949  FoodProcess(2) */\n      0x03\n      dup2\n      gt\n      iszero\n      tag_58\n      jumpi\n      tag_59\n      tag_23\n      jump\t// in\n    tag_59:\n    tag_58:\n        /* \"Example/Ex6_9.sol\":923:949  foodStatus==FoodProcess(2) */\n      0x03\n      dup2\n      gt\n      iszero\n      tag_60\n      jumpi\n      tag_61\n      tag_23\n      jump\t// in\n    tag_61:\n    tag_60:\n        /* \"Example/Ex6_9.sol\":923:933  foodStatus */\n      0x00\n      dup1\n      sload\n      swap1\n      0x0100\n      exp\n      swap1\n      div\n      0xff\n      and\n        /* \"Example/Ex6_9.sol\":923:949  foodStatus==FoodProcess(2) */\n      0x03\n      dup2\n      gt\n      iszero\n      tag_62\n      jumpi\n      tag_63\n      tag_23\n      jump\t// in\n    tag_63:\n    tag_62:\n      eq\n        /* \"Example/Ex6_9.sol\":915:983  require(foodStatus==FoodProcess(2),\"It must be the delivery status\") */\n      tag_64\n      jumpi\n      mload(0x40)\n      0x08c379a000000000000000000000000000000000000000000000000000000000\n      dup2\n      mstore\n      0x04\n      add\n      tag_65\n      swap1\n      tag_66\n      jump\t// in\n    tag_65:\n      mload(0x40)\n      dup1\n      swap2\n      sub\n      swap1\n      revert\n    tag_64:\n        /* \"Example/Ex6_9.sol\":1004:1023  FoodProcess.payment */\n      0x03\n        /* \"Example/Ex6_9.sol\":993:1003  foodStatus */\n      0x00\n      dup1\n        /* \"Example/Ex6_9.sol\":993:1023  foodStatus=FoodProcess.payment */\n      0x0100\n      exp\n      dup2\n      sload\n      dup2\n      0xff\n      mul\n      not\n      and\n      swap1\n      dup4\n      0x03\n      dup2\n      gt\n      iszero\n      tag_67\n      jumpi\n      tag_68\n      tag_23\n      jump\t// in\n    tag_68:\n    tag_67:\n      mul\n      or\n      swap1\n      sstore\n      pop\n        /* \"Example/Ex6_9.sol\":1038:1068  Information(\"payment success\") */\n      0xff8fea957fb7cb582ef297c1c74436fe7a9914efbc52adf197600dc9d171efbc\n      mload(0x40)\n      tag_69\n      swap1\n      tag_70\n      jump\t// in\n    tag_69:\n      mload(0x40)\n      dup1\n      swap2\n      sub\n      swap1\n      log1\n        /* \"Example/Ex6_9.sol\":876:1075  function paymentFood() public{... */\n      jump\t// out\n        /* \"Example/Ex6_9.sol\":152:181  FoodProcess public foodStatus */\n    tag_17:\n      0x00\n      dup1\n      sload\n      swap1\n      0x0100\n      exp\n      swap1\n      div\n      0xff\n      and\n      dup2\n      jump\t// out\n        /* \"#utility.yul\":7:187   */\n    tag_23:\n        /* \"#utility.yul\":55:132   */\n      0x4e487b7100000000000000000000000000000000000000000000000000000000\n        /* \"#utility.yul\":52:53   */\n      0x00\n        /* \"#utility.yul\":45:133   */\n      mstore\n        /* \"#utility.yul\":152:156   */\n      0x21\n        /* \"#utility.yul\":149:150   */\n      0x04\n        /* \"#utility.yul\":142:157   */\n      mstore\n        /* \"#utility.yul\":176:180   */\n      0x24\n        /* \"#utility.yul\":173:174   */\n      0x00\n        /* \"#utility.yul\":166:181   */\n      revert\n        /* \"#utility.yul\":193:311   */\n    tag_71:\n        /* \"#utility.yul\":279:280   */\n      0x04\n        /* \"#utility.yul\":272:277   */\n      dup2\n        /* \"#utility.yul\":269:281   */\n      lt\n        /* \"#utility.yul\":259:305   */\n      tag_95\n      jumpi\n        /* \"#utility.yul\":285:303   */\n      tag_96\n      tag_23\n      jump\t// in\n    tag_96:\n        /* \"#utility.yul\":259:305   */\n    tag_95:\n        /* \"#utility.yul\":193:311   */\n      pop\n      jump\t// out\n        /* \"#utility.yul\":317:454   */\n    tag_72:\n        /* \"#utility.yul\":367:374   */\n      0x00\n        /* \"#utility.yul\":396:401   */\n      dup2\n        /* \"#utility.yul\":385:401   */\n      swap1\n      pop\n        /* \"#utility.yul\":402:448   */\n      tag_98\n        /* \"#utility.yul\":442:447   */\n      dup3\n        /* \"#utility.yul\":402:448   */\n      tag_71\n      jump\t// in\n    tag_98:\n        /* \"#utility.yul\":317:454   */\n      swap2\n      swap1\n      pop\n      jump\t// out\n        /* \"#utility.yul\":460:597   */\n    tag_73:\n        /* \"#utility.yul\":521:530   */\n      0x00\n        /* \"#utility.yul\":554:591   */\n      tag_100\n        /* \"#utility.yul\":585:590   */\n      dup3\n        /* \"#utility.yul\":554:591   */\n      tag_72\n      jump\t// in\n    tag_100:\n        /* \"#utility.yul\":541:591   */\n      swap1\n      pop\n        /* \"#utility.yul\":460:597   */\n      swap2\n      swap1\n      pop\n      jump\t// out\n        /* \"#utility.yul\":603:756   */\n    tag_74:\n        /* \"#utility.yul\":701:749   */\n      tag_102\n        /* \"#utility.yul\":743:748   */\n      dup2\n        /* \"#utility.yul\":701:749   */\n      tag_73\n      jump\t// in\n    tag_102:\n        /* \"#utility.yul\":696:699   */\n      dup3\n        /* \"#utility.yul\":689:750   */\n      mstore\n        /* \"#utility.yul\":603:756   */\n      pop\n      pop\n      jump\t// out\n        /* \"#utility.yul\":762:1006   */\n    tag_19:\n        /* \"#utility.yul\":866:870   */\n      0x00\n        /* \"#utility.yul\":904:906   */\n      0x20\n        /* \"#utility.yul\":893:902   */\n      dup3\n        /* \"#utility.yul\":889:907   */\n      add\n        /* \"#utility.yul\":881:907   */\n      swap1\n      pop\n        /* \"#utility.yul\":917:999   */\n      tag_104\n        /* \"#utility.yul\":996:997   */\n      0x00\n        /* \"#utility.yul\":985:994   */\n      dup4\n        /* \"#utility.yul\":981:998   */\n      add\n        /* \"#utility.yul\":972:978   */\n      dup5\n        /* \"#utility.yul\":917:999   */\n      tag_74\n      jump\t// in\n    tag_104:\n        /* \"#utility.yul\":762:1006   */\n      swap3\n      swap2\n      pop\n      pop\n      jump\t// out\n        /* \"#utility.yul\":1012:1181   */\n    tag_75:\n        /* \"#utility.yul\":1096:1107   */\n      0x00\n        /* \"#utility.yul\":1130:1136   */\n      dup3\n        /* \"#utility.yul\":1125:1128   */\n      dup3\n        /* \"#utility.yul\":1118:1137   */\n      mstore\n        /* \"#utility.yul\":1170:1174   */\n      0x20\n        /* \"#utility.yul\":1165:1168   */\n      dup3\n        /* \"#utility.yul\":1161:1175   */\n      add\n        /* \"#utility.yul\":1146:1175   */\n      swap1\n      pop\n        /* \"#utility.yul\":1012:1181   */\n      swap3\n      swap2\n      pop\n      pop\n      jump\t// out\n        /* \"#utility.yul\":1187:1367   */\n    tag_76:\n        /* \"#utility.yul\":1327:1359   */\n      0x4974206d757374206265207468652074616b6541776179207374617475730000\n        /* \"#utility.yul\":1323:1324   */\n      0x00\n        /* \"#utility.yul\":1315:1321   */\n      dup3\n        /* \"#utility.yul\":1311:1325   */\n      add\n        /* \"#utility.yul\":1304:1360   */\n      mstore\n        /* \"#utility.yul\":1187:1367   */\n      pop\n      jump\t// out\n        /* \"#utility.yul\":1373:1739   */\n    tag_77:\n        /* \"#utility.yul\":1515:1518   */\n      0x00\n        /* \"#utility.yul\":1536:1603   */\n      tag_108\n        /* \"#utility.yul\":1600:1602   */\n      0x1e\n        /* \"#utility.yul\":1595:1598   */\n      dup4\n        /* \"#utility.yul\":1536:1603   */\n      tag_75\n      jump\t// in\n    tag_108:\n        /* \"#utility.yul\":1529:1603   */\n      swap2\n      pop\n        /* \"#utility.yul\":1612:1705   */\n      tag_109\n        /* \"#utility.yul\":1701:1704   */\n      dup3\n        /* \"#utility.yul\":1612:1705   */\n      tag_76\n      jump\t// in\n    tag_109:\n        /* \"#utility.yul\":1730:1732   */\n      0x20\n        /* \"#utility.yul\":1725:1728   */\n      dup3\n        /* \"#utility.yul\":1721:1733   */\n      add\n        /* \"#utility.yul\":1714:1733   */\n      swap1\n      pop\n        /* \"#utility.yul\":1373:1739   */\n      swap2\n      swap1\n      pop\n      jump\t// out\n        /* \"#utility.yul\":1745:2164   */\n    tag_28:\n        /* \"#utility.yul\":1911:1915   */\n      0x00\n        /* \"#utility.yul\":1949:1951   */\n      0x20\n        /* \"#utility.yul\":1938:1947   */\n      dup3\n        /* \"#utility.yul\":1934:1952   */\n      add\n        /* \"#utility.yul\":1926:1952   */\n      swap1\n      pop\n        /* \"#utility.yul\":1998:2007   */\n      dup2\n        /* \"#utility.yul\":1992:1996   */\n      dup2\n        /* \"#utility.yul\":1988:2008   */\n      sub\n        /* \"#utility.yul\":1984:1985   */\n      0x00\n        /* \"#utility.yul\":1973:1982   */\n      dup4\n        /* \"#utility.yul\":1969:1986   */\n      add\n        /* \"#utility.yul\":1962:2009   */\n      mstore\n        /* \"#utility.yul\":2026:2157   */\n      tag_111\n        /* \"#utility.yul\":2152:2156   */\n      dup2\n        /* \"#utility.yul\":2026:2157   */\n      tag_77\n      jump\t// in\n    tag_111:\n        /* \"#utility.yul\":2018:2157   */\n      swap1\n      pop\n        /* \"#utility.yul\":1745:2164   */\n      swap2\n      swap1\n      pop\n      jump\t// out\n        /* \"#utility.yul\":2170:2336   */\n    tag_78:\n        /* \"#utility.yul\":2310:2328   */\n      0x64656c6976657279207375636365737300000000000000000000000000000000\n        /* \"#utility.yul\":2306:2307   */\n      0x00\n        /* \"#utility.yul\":2298:2304   */\n      dup3\n        /* \"#utility.yul\":2294:2308   */\n      add\n        /* \"#utility.yul\":2287:2329   */\n      mstore\n        /* \"#utility.yul\":2170:2336   */\n      pop\n      jump\t// out\n        /* \"#utility.yul\":2342:2708   */\n    tag_79:\n        /* \"#utility.yul\":2484:2487   */\n      0x00\n        /* \"#utility.yul\":2505:2572   */\n      tag_114\n        /* \"#utility.yul\":2569:2571   */\n      0x10\n        /* \"#utility.yul\":2564:2567   */\n      dup4\n        /* \"#utility.yul\":2505:2572   */\n      tag_75\n      jump\t// in\n    tag_114:\n        /* \"#utility.yul\":2498:2572   */\n      swap2\n      pop\n        /* \"#utility.yul\":2581:2674   */\n      tag_115\n        /* \"#utility.yul\":2670:2673   */\n      dup3\n        /* \"#utility.yul\":2581:2674   */\n      tag_78\n      jump\t// in\n    tag_115:\n        /* \"#utility.yul\":2699:2701   */\n      0x20\n        /* \"#utility.yul\":2694:2697   */\n      dup3\n        /* \"#utility.yul\":2690:2702   */\n      add\n        /* \"#utility.yul\":2683:2702   */\n      swap1\n      pop\n        /* \"#utility.yul\":2342:2708   */\n      swap2\n      swap1\n      pop\n      jump\t// out\n        /* \"#utility.yul\":2714:3133   */\n    tag_32:\n        /* \"#utility.yul\":2880:2884   */\n      0x00\n        /* \"#utility.yul\":2918:2920   */\n      0x20\n        /* \"#utility.yul\":2907:2916   */\n      dup3\n        /* \"#utility.yul\":2903:2921   */\n      add\n        /* \"#utility.yul\":2895:2921   */\n      swap1\n      pop\n        /* \"#utility.yul\":2967:2976   */\n      dup2\n        /* \"#utility.yul\":2961:2965   */\n      dup2\n        /* \"#utility.yul\":2957:2977   */\n      sub\n        /* \"#utility.yul\":2953:2954   */\n      0x00\n        /* \"#utility.yul\":2942:2951   */\n      dup4\n        /* \"#utility.yul\":2938:2955   */\n      add\n        /* \"#utility.yul\":2931:2978   */\n      mstore\n        /* \"#utility.yul\":2995:3126   */\n      tag_117\n        /* \"#utility.yul\":3121:3125   */\n      dup2\n        /* \"#utility.yul\":2995:3126   */\n      tag_79\n      jump\t// in\n    tag_117:\n        /* \"#utility.yul\":2987:3126   */\n      swap1\n      pop\n        /* \"#utility.yul\":2714:3133   */\n      swap2\n      swap1\n      pop\n      jump\t// out\n        /* \"#utility.yul\":3139:3318   */\n    tag_80:\n        /* \"#utility.yul\":3279:3310   */\n      0x4974206d75737420626520746865207061796d656e7420737461747573000000\n        /* \"#utility.yul\":3275:3276   */\n      0x00\n        /* \"#utility.yul\":3267:3273   */\n      dup3\n        /* \"#utility.yul\":3263:3277   */\n      add\n        /* \"#utility.yul\":3256:3311   */\n      mstore\n        /* \"#utility.yul\":3139:3318   */\n      pop\n      jump\t// out\n        /* \"#utility.yul\":3324:3690   */\n    tag_81:\n        /* \"#utility.yul\":3466:3469   */\n      0x00\n        /* \"#utility.yul\":3487:3554   */\n      tag_120\n        /* \"#utility.yul\":3551:3553   */\n      0x1d\n        /* \"#utility.yul\":3546:3549   */\n      dup4\n        /* \"#utility.yul\":3487:3554   */\n      tag_75\n      jump\t// in\n    tag_120:\n        /* \"#utility.yul\":3480:3554   */\n      swap2\n      pop\n        /* \"#utility.yul\":3563:3656   */\n      tag_121\n        /* \"#utility.yul\":3652:3655   */\n      dup3\n        /* \"#utility.yul\":3563:3656   */\n      tag_80\n      jump\t// in\n    tag_121:\n        /* \"#utility.yul\":3681:3683   */\n      0x20\n        /* \"#utility.yul\":3676:3679   */\n      dup3\n        /* \"#utility.yul\":3672:3684   */\n      add\n        /* \"#utility.yul\":3665:3684   */\n      swap1\n      pop\n        /* \"#utility.yul\":3324:3690   */\n      swap2\n      swap1\n      pop\n      jump\t// out\n        /* \"#utility.yul\":3696:4115   */\n    tag_40:\n        /* \"#utility.yul\":3862:3866   */\n      0x00\n        /* \"#utility.yul\":3900:3902   */\n      0x20\n        /* \"#utility.yul\":3889:3898   */\n      dup3\n        /* \"#utility.yul\":3885:3903   */\n      add\n        /* \"#utility.yul\":3877:3903   */\n      swap1\n      pop\n        /* \"#utility.yul\":3949:3958   */\n      dup2\n        /* \"#utility.yul\":3943:3947   */\n      dup2\n        /* \"#utility.yul\":3939:3959   */\n      sub\n        /* \"#utility.yul\":3935:3936   */\n      0x00\n        /* \"#utility.yul\":3924:3933   */\n      dup4\n        /* \"#utility.yul\":3920:3937   */\n      add\n        /* \"#utility.yul\":3913:3960   */\n      mstore\n        /* \"#utility.yul\":3977:4108   */\n      tag_123\n        /* \"#utility.yul\":4103:4107   */\n      dup2\n        /* \"#utility.yul\":3977:4108   */\n      tag_81\n      jump\t// in\n    tag_123:\n        /* \"#utility.yul\":3969:4108   */\n      swap1\n      pop\n        /* \"#utility.yul\":3696:4115   */\n      swap2\n      swap1\n      pop\n      jump\t// out\n        /* \"#utility.yul\":4121:4284   */\n    tag_82:\n        /* \"#utility.yul\":4261:4276   */\n      0x4f72646572207375636365737300000000000000000000000000000000000000\n        /* \"#utility.yul\":4257:4258   */\n      0x00\n        /* \"#utility.yul\":4249:4255   */\n      dup3\n        /* \"#utility.yul\":4245:4259   */\n      add\n        /* \"#utility.yul\":4238:4277   */\n      mstore\n        /* \"#utility.yul\":4121:4284   */\n      pop\n      jump\t// out\n        /* \"#utility.yul\":4290:4656   */\n    tag_83:\n        /* \"#utility.yul\":4432:4435   */\n      0x00\n        /* \"#utility.yul\":4453:4520   */\n      tag_126\n        /* \"#utility.yul\":4517:4519   */\n      0x0d\n        /* \"#utility.yul\":4512:4515   */\n      dup4\n        /* \"#utility.yul\":4453:4520   */\n      tag_75\n      jump\t// in\n    tag_126:\n        /* \"#utility.yul\":4446:4520   */\n      swap2\n      pop\n        /* \"#utility.yul\":4529:4622   */\n      tag_127\n        /* \"#utility.yul\":4618:4621   */\n      dup3\n        /* \"#utility.yul\":4529:4622   */\n      tag_82\n      jump\t// in\n    tag_127:\n        /* \"#utility.yul\":4647:4649   */\n      0x20\n        /* \"#utility.yul\":4642:4645   */\n      dup3\n        /* \"#utility.yul\":4638:4650   */\n      add\n        /* \"#utility.yul\":4631:4650   */\n      swap1\n      pop\n        /* \"#utility.yul\":4290:4656   */\n      swap2\n      swap1\n      pop\n      jump\t// out\n        /* \"#utility.yul\":4662:5081   */\n    tag_44:\n        /* \"#utility.yul\":4828:4832   */\n      0x00\n        /* \"#utility.yul\":4866:4868   */\n      0x20\n        /* \"#utility.yul\":4855:4864   */\n      dup3\n        /* \"#utility.yul\":4851:4869   */\n      add\n        /* \"#utility.yul\":4843:4869   */\n      swap1\n      pop\n        /* \"#utility.yul\":4915:4924   */\n      dup2\n        /* \"#utility.yul\":4909:4913   */\n      dup2\n        /* \"#utility.yul\":4905:4925   */\n      sub\n        /* \"#utility.yul\":4901:4902   */\n      0x00\n        /* \"#utility.yul\":4890:4899   */\n      dup4\n        /* \"#utility.yul\":4886:4903   */\n      add\n        /* \"#utility.yul\":4879:4926   */\n      mstore\n        /* \"#utility.yul\":4943:5074   */\n      tag_129\n        /* \"#utility.yul\":5069:5073   */\n      dup2\n        /* \"#utility.yul\":4943:5074   */\n      tag_83\n      jump\t// in\n    tag_129:\n        /* \"#utility.yul\":4935:5074   */\n      swap1\n      pop\n        /* \"#utility.yul\":4662:5081   */\n      swap2\n      swap1\n      pop\n      jump\t// out\n        /* \"#utility.yul\":5087:5264   */\n    tag_84:\n        /* \"#utility.yul\":5227:5256   */\n      0x4974206d75737420626520746865206f72646572207374617475730000000000\n        /* \"#utility.yul\":5223:5224   */\n      0x00\n        /* \"#utility.yul\":5215:5221   */\n      dup3\n        /* \"#utility.yul\":5211:5225   */\n      add\n        /* \"#utility.yul\":5204:5257   */\n      mstore\n        /* \"#utility.yul\":5087:5264   */\n      pop\n      jump\t// out\n        /* \"#utility.yul\":5270:5636   */\n    tag_85:\n        /* \"#utility.yul\":5412:5415   */\n      0x00\n        /* \"#utility.yul\":5433:5500   */\n      tag_132\n        /* \"#utility.yul\":5497:5499   */\n      0x1b\n        /* \"#utility.yul\":5492:5495   */\n      dup4\n        /* \"#utility.yul\":5433:5500   */\n      tag_75\n      jump\t// in\n    tag_132:\n        /* \"#utility.yul\":5426:5500   */\n      swap2\n      pop\n        /* \"#utility.yul\":5509:5602   */\n      tag_133\n        /* \"#utility.yul\":5598:5601   */\n      dup3\n        /* \"#utility.yul\":5509:5602   */\n      tag_84\n      jump\t// in\n    tag_133:\n        /* \"#utility.yul\":5627:5629   */\n      0x20\n        /* \"#utility.yul\":5622:5625   */\n      dup3\n        /* \"#utility.yul\":5618:5630   */\n      add\n        /* \"#utility.yul\":5611:5630   */\n      swap1\n      pop\n        /* \"#utility.yul\":5270:5636   */\n      swap2\n      swap1\n      pop\n      jump\t// out\n        /* \"#utility.yul\":5642:6061   */\n    tag_52:\n        /* \"#utility.yul\":5808:5812   */\n      0x00\n        /* \"#utility.yul\":5846:5848   */\n      0x20\n        /* \"#utility.yul\":5835:5844   */\n      dup3\n        /* \"#utility.yul\":5831:5849   */\n      add\n        /* \"#utility.yul\":5823:5849   */\n      swap1\n      pop\n        /* \"#utility.yul\":5895:5904   */\n      dup2\n        /* \"#utility.yul\":5889:5893   */\n      dup2\n        /* \"#utility.yul\":5885:5905   */\n      sub\n        /* \"#utility.yul\":5881:5882   */\n      0x00\n        /* \"#utility.yul\":5870:5879   */\n      dup4\n        /* \"#utility.yul\":5866:5883   */\n      add\n        /* \"#utility.yul\":5859:5906   */\n      mstore\n        /* \"#utility.yul\":5923:6054   */\n      tag_135\n        /* \"#utility.yul\":6049:6053   */\n      dup2\n        /* \"#utility.yul\":5923:6054   */\n      tag_85\n      jump\t// in\n    tag_135:\n        /* \"#utility.yul\":5915:6054   */\n      swap1\n      pop\n        /* \"#utility.yul\":5642:6061   */\n      swap2\n      swap1\n      pop\n      jump\t// out\n        /* \"#utility.yul\":6067:6233   */\n    tag_86:\n        /* \"#utility.yul\":6207:6225   */\n      0x74616b6541776179207375636365737300000000000000000000000000000000\n        /* \"#utility.yul\":6203:6204   */\n      0x00\n        /* \"#utility.yul\":6195:6201   */\n      dup3\n        /* \"#utility.yul\":6191:6205   */\n      add\n        /* \"#utility.yul\":6184:6226   */\n      mstore\n        /* \"#utility.yul\":6067:6233   */\n      pop\n      jump\t// out\n        /* \"#utility.yul\":6239:6605   */\n    tag_87:\n        /* \"#utility.yul\":6381:6384   */\n      0x00\n        /* \"#utility.yul\":6402:6469   */\n      tag_138\n        /* \"#utility.yul\":6466:6468   */\n      0x10\n        /* \"#utility.yul\":6461:6464   */\n      dup4\n        /* \"#utility.yul\":6402:6469   */\n      tag_75\n      jump\t// in\n    tag_138:\n        /* \"#utility.yul\":6395:6469   */\n      swap2\n      pop\n        /* \"#utility.yul\":6478:6571   */\n      tag_139\n        /* \"#utility.yul\":6567:6570   */\n      dup3\n        /* \"#utility.yul\":6478:6571   */\n      tag_86\n      jump\t// in\n    tag_139:\n        /* \"#utility.yul\":6596:6598   */\n      0x20\n        /* \"#utility.yul\":6591:6594   */\n      dup3\n        /* \"#utility.yul\":6587:6599   */\n      add\n        /* \"#utility.yul\":6580:6599   */\n      swap1\n      pop\n        /* \"#utility.yul\":6239:6605   */\n      swap2\n      swap1\n      pop\n      jump\t// out\n        /* \"#utility.yul\":6611:7030   */\n    tag_56:\n        /* \"#utility.yul\":6777:6781   */\n      0x00\n        /* \"#utility.yul\":6815:6817   */\n      0x20\n        /* \"#utility.yul\":6804:6813   */\n      dup3\n        /* \"#utility.yul\":6800:6818   */\n      add\n        /* \"#utility.yul\":6792:6818   */\n      swap1\n      pop\n        /* \"#utility.yul\":6864:6873   */\n      dup2\n        /* \"#utility.yul\":6858:6862   */\n      dup2\n        /* \"#utility.yul\":6854:6874   */\n      sub\n        /* \"#utility.yul\":6850:6851   */\n      0x00\n        /* \"#utility.yul\":6839:6848   */\n      dup4\n        /* \"#utility.yul\":6835:6852   */\n      add\n        /* \"#utility.yul\":6828:6875   */\n      mstore\n        /* \"#utility.yul\":6892:7023   */\n      tag_141\n        /* \"#utility.yul\":7018:7022   */\n      dup2\n        /* \"#utility.yul\":6892:7023   */\n      tag_87\n      jump\t// in\n    tag_141:\n        /* \"#utility.yul\":6884:7023   */\n      swap1\n      pop\n        /* \"#utility.yul\":6611:7030   */\n      swap2\n      swap1\n      pop\n      jump\t// out\n        /* \"#utility.yul\":7036:7216   */\n    tag_88:\n        /* \"#utility.yul\":7176:7208   */\n      0x4974206d757374206265207468652064656c6976657279207374617475730000\n        /* \"#utility.yul\":7172:7173   */\n      0x00\n        /* \"#utility.yul\":7164:7170   */\n      dup3\n        /* \"#utility.yul\":7160:7174   */\n      add\n        /* \"#utility.yul\":7153:7209   */\n      mstore\n        /* \"#utility.yul\":7036:7216   */\n      pop\n      jump\t// out\n        /* \"#utility.yul\":7222:7588   */\n    tag_89:\n        /* \"#utility.yul\":7364:7367   */\n      0x00\n        /* \"#utility.yul\":7385:7452   */\n      tag_144\n        /* \"#utility.yul\":7449:7451   */\n      0x1e\n        /* \"#utility.yul\":7444:7447   */\n      dup4\n        /* \"#utility.yul\":7385:7452   */\n      tag_75\n      jump\t// in\n    tag_144:\n        /* \"#utility.yul\":7378:7452   */\n      swap2\n      pop\n        /* \"#utility.yul\":7461:7554   */\n      tag_145\n        /* \"#utility.yul\":7550:7553   */\n      dup3\n        /* \"#utility.yul\":7461:7554   */\n      tag_88\n      jump\t// in\n    tag_145:\n        /* \"#utility.yul\":7579:7581   */\n      0x20\n        /* \"#utility.yul\":7574:7577   */\n      dup3\n        /* \"#utility.yul\":7570:7582   */\n      add\n        /* \"#utility.yul\":7563:7582   */\n      swap1\n      pop\n        /* \"#utility.yul\":7222:7588   */\n      swap2\n      swap1\n      pop\n      jump\t// out\n        /* \"#utility.yul\":7594:8013   */\n    tag_66:\n        /* \"#utility.yul\":7760:7764   */\n      0x00\n        /* \"#utility.yul\":7798:7800   */\n      0x20\n        /* \"#utility.yul\":7787:7796   */\n      dup3\n        /* \"#utility.yul\":7783:7801   */\n      add\n        /* \"#utility.yul\":7775:7801   */\n      swap1\n      pop\n        /* \"#utility.yul\":7847:7856   */\n      dup2\n        /* \"#utility.yul\":7841:7845   */\n      dup2\n        /* \"#utility.yul\":7837:7857   */\n      sub\n        /* \"#utility.yul\":7833:7834   */\n      0x00\n        /* \"#utility.yul\":7822:7831   */\n      dup4\n        /* \"#utility.yul\":7818:7835   */\n      add\n        /* \"#utility.yul\":7811:7858   */\n      mstore\n        /* \"#utility.yul\":7875:8006   */\n      tag_147\n        /* \"#utility.yul\":8001:8005   */\n      dup2\n        /* \"#utility.yul\":7875:8006   */\n      tag_89\n      jump\t// in\n    tag_147:\n        /* \"#utility.yul\":7867:8006   */\n      swap1\n      pop\n        /* \"#utility.yul\":7594:8013   */\n      swap2\n      swap1\n      pop\n      jump\t// out\n        /* \"#utility.yul\":8019:8184   */\n    tag_90:\n        /* \"#utility.yul\":8159:8176   */\n      0x7061796d656e7420737563636573730000000000000000000000000000000000\n        /* \"#utility.yul\":8155:8156   */\n      0x00\n        /* \"#utility.yul\":8147:8153   */\n      dup3\n        /* \"#utility.yul\":8143:8157   */\n      add\n        /* \"#utility.yul\":8136:8177   */\n      mstore\n        /* \"#utility.yul\":8019:8184   */\n      pop\n      jump\t// out\n        /* \"#utility.yul\":8190:8556   */\n    tag_91:\n        /* \"#utility.yul\":8332:8335   */\n      0x00\n        /* \"#utility.yul\":8353:8420   */\n      tag_150\n        /* \"#utility.yul\":8417:8419   */\n      0x0f\n        /* \"#utility.yul\":8412:8415   */\n      dup4\n        /* \"#utility.yul\":8353:8420   */\n      tag_75\n      jump\t// in\n    tag_150:\n        /* \"#utility.yul\":8346:8420   */\n      swap2\n      pop\n        /* \"#utility.yul\":8429:8522   */\n      tag_151\n        /* \"#utility.yul\":8518:8521   */\n      dup3\n        /* \"#utility.yul\":8429:8522   */\n      tag_90\n      jump\t// in\n    tag_151:\n        /* \"#utility.yul\":8547:8549   */\n      0x20\n        /* \"#utility.yul\":8542:8545   */\n      dup3\n        /* \"#utility.yul\":8538:8550   */\n      add\n        /* \"#utility.yul\":8531:8550   */\n      swap1\n      pop\n        /* \"#utility.yul\":8190:8556   */\n      swap2\n      swap1\n      pop\n      jump\t// out\n        /* \"#utility.yul\":8562:8981   */\n    tag_70:\n        /* \"#utility.yul\":8728:8732   */\n      0x00\n        /* \"#utility.yul\":8766:8768   */\n      0x20\n        /* \"#utility.yul\":8755:8764   */\n      dup3\n        /* \"#utility.yul\":8751:8769   */\n      add\n        /* \"#utility.yul\":8743:8769   */\n      swap1\n      pop\n        /* \"#utility.yul\":8815:8824   */\n      dup2\n        /* \"#utility.yul\":8809:8813   */\n      dup2\n        /* \"#utility.yul\":8805:8825   */\n      sub\n        /* \"#utility.yul\":8801:8802   */\n      0x00\n        /* \"#utility.yul\":8790:8799   */\n      dup4\n        /* \"#utility.yul\":8786:8803   */\n      add\n        /* \"#utility.yul\":8779:8826   */\n      mstore\n        /* \"#utility.yul\":8843:8974   */\n      tag_153\n        /* \"#utility.yul\":8969:8973   */\n      dup2\n        /* \"#utility.yul\":8843:8974   */\n      tag_91\n      jump\t// in\n    tag_153:\n        /* \"#utility.yul\":8835:8974   */\n      swap1\n      pop\n        /* \"#utility.yul\":8562:8981   */\n      swap2\n      swap1\n      pop\n      jump\t// out\n\n    auxdata: 0xa264697066735822122018f1ba4e51e5541d2cd90a3cd6d5e1a740eed11eebffbb7ce7257dc358ff76b764736f6c634300081a0033\n}\n",
				"bytecode": {
					"linkReferences": {},
					"object": "6080604052348015600e575f80fd5b5060035f806101000a81548160ff02191690836003811115603057602f6039565b5b02179055506066565b7f4e487b71000000000000000000000000000000000000000000000000000000005f52602160045260245ffd5b61081c806100735f395ff3fe608060405234801561000f575f80fd5b5060043610610055575f3560e01c80630276843a14610059578063429268ae1461006357806394d15a9e1461006d578063c62efc2b14610077578063d9c966fd14610081575b5f80fd5b61006161009f565b005b61006b610172565b005b610075610243565b005b61007f610315565b005b6100896103fa565b604051610096919061047d565b60405180910390f35b600160038111156100b3576100b261040a565b5b5f8054906101000a900460ff1660038111156100d2576100d161040a565b5b14610112576040517f08c379a0000000000000000000000000000000000000000000000000000000008152600401610109906104f0565b60405180910390fd5b60025f806101000a81548160ff021916908360038111156101365761013561040a565b5b02179055507fff8fea957fb7cb582ef297c1c74436fe7a9914efbc52adf197600dc9d171efbc60405161016890610558565b60405180910390a1565b6003808111156101855761018461040a565b5b5f8054906101000a900460ff1660038111156101a4576101a361040a565b5b146101e4576040517f08c379a00000000000000000000000000000000000000000000000000000000081526004016101db906105c0565b60405180910390fd5b5f805f6101000a81548160ff021916908360038111156102075761020661040a565b5b02179055507fff8fea957fb7cb582ef297c1c74436fe7a9914efbc52adf197600dc9d171efbc60405161023990610628565b60405180910390a1565b5f60038111156102565761025561040a565b5b5f8054906101000a900460ff1660038111156102755761027461040a565b5b146102b5576040517f08c379a00000000000000000000000000000000000000000000000000000000081526004016102ac90610690565b60405180910390fd5b60015f806101000a81548160ff021916908360038111156102d9576102d861040a565b5b02179055507fff8fea957fb7cb582ef297c1c74436fe7a9914efbc52adf197600dc9d171efbc60405161030b906106f8565b60405180910390a1565b600260038111156103295761032861040a565b5b600381111561033b5761033a61040a565b5b5f8054906101000a900460ff16600381111561035a5761035961040a565b5b1461039a576040517f08c379a000000000000000000000000000000000000000000000000000000000815260040161039190610760565b60405180910390fd5b60035f806101000a81548160ff021916908360038111156103be576103bd61040a565b5b02179055507fff8fea957fb7cb582ef297c1c74436fe7a9914efbc52adf197600dc9d171efbc6040516103f0906107c8565b60405180910390a1565b5f8054906101000a900460ff1681565b7f4e487b71000000000000000000000000000000000000000000000000000000005f52602160045260245ffd5b600481106104485761044761040a565b5b50565b5f81905061045882610437565b919050565b5f6104678261044b565b9050919050565b6104778161045d565b82525050565b5f6020820190506104905f83018461046e565b92915050565b5f82825260208201905092915050565b7f4974206d757374206265207468652074616b65417761792073746174757300005f82015250565b5f6104da601e83610496565b91506104e5826104a6565b602082019050919050565b5f6020820190508181035f830152610507816104ce565b9050919050565b7f64656c69766572792073756363657373000000000000000000000000000000005f82015250565b5f610542601083610496565b915061054d8261050e565b602082019050919050565b5f6020820190508181035f83015261056f81610536565b9050919050565b7f4974206d75737420626520746865207061796d656e74207374617475730000005f82015250565b5f6105aa601d83610496565b91506105b582610576565b602082019050919050565b5f6020820190508181035f8301526105d78161059e565b9050919050565b7f4f726465722073756363657373000000000000000000000000000000000000005f82015250565b5f610612600d83610496565b915061061d826105de565b602082019050919050565b5f6020820190508181035f83015261063f81610606565b9050919050565b7f4974206d75737420626520746865206f726465722073746174757300000000005f82015250565b5f61067a601b83610496565b915061068582610646565b602082019050919050565b5f6020820190508181035f8301526106a78161066e565b9050919050565b7f74616b65417761792073756363657373000000000000000000000000000000005f82015250565b5f6106e2601083610496565b91506106ed826106ae565b602082019050919050565b5f6020820190508181035f83015261070f816106d6565b9050919050565b7f4974206d757374206265207468652064656c69766572792073746174757300005f82015250565b5f61074a601e83610496565b915061075582610716565b602082019050919050565b5f6020820190508181035f8301526107778161073e565b9050919050565b7f7061796d656e74207375636365737300000000000000000000000000000000005f82015250565b5f6107b2600f83610496565b91506107bd8261077e565b602082019050919050565b5f6020820190508181035f8301526107df816107a6565b905091905056fea264697066735822122018f1ba4e51e5541d2cd90a3cd6d5e1a740eed11eebffbb7ce7257dc358ff76b764736f6c634300081a0033",
					"opcodes": "PUSH1 0x80 PUSH1 0x40 MSTORE CALLVALUE DUP1 ISZERO PUSH1 0xE JUMPI PUSH0 DUP1 REVERT JUMPDEST POP PUSH1 0x3 PUSH0 DUP1 PUSH2 0x100 EXP DUP2 SLOAD DUP2 PUSH1 0xFF MUL NOT AND SWAP1 DUP4 PUSH1 0x3 DUP2 GT ISZERO PUSH1 0x30 JUMPI PUSH1 0x2F PUSH1 0x39 JUMP JUMPDEST JUMPDEST MUL OR SWAP1 SSTORE POP PUSH1 0x66 JUMP JUMPDEST PUSH32 0x4E487B7100000000000000000000000000000000000000000000000000000000 PUSH0 MSTORE PUSH1 0x21 PUSH1 0x4 MSTORE PUSH1 0x24 PUSH0 REVERT JUMPDEST PUSH2 0x81C DUP1 PUSH2 0x73 PUSH0 CODECOPY PUSH0 RETURN INVALID PUSH1 0x80 PUSH1 0x40 MSTORE CALLVALUE DUP1 ISZERO PUSH2 0xF JUMPI PUSH0 DUP1 REVERT JUMPDEST POP PUSH1 0x4 CALLDATASIZE LT PUSH2 0x55 JUMPI PUSH0 CALLDATALOAD PUSH1 0xE0 SHR DUP1 PUSH4 0x276843A EQ PUSH2 0x59 JUMPI DUP1 PUSH4 0x429268AE EQ PUSH2 0x63 JUMPI DUP1 PUSH4 0x94D15A9E EQ PUSH2 0x6D JUMPI DUP1 PUSH4 0xC62EFC2B EQ PUSH2 0x77 JUMPI DUP1 PUSH4 0xD9C966FD EQ PUSH2 0x81 JUMPI JUMPDEST PUSH0 DUP1 REVERT JUMPDEST PUSH2 0x61 PUSH2 0x9F JUMP JUMPDEST STOP JUMPDEST PUSH2 0x6B PUSH2 0x172 JUMP JUMPDEST STOP JUMPDEST PUSH2 0x75 PUSH2 0x243 JUMP JUMPDEST STOP JUMPDEST PUSH2 0x7F PUSH2 0x315 JUMP JUMPDEST STOP JUMPDEST PUSH2 0x89 PUSH2 0x3FA JUMP JUMPDEST PUSH1 0x40 MLOAD PUSH2 0x96 SWAP2 SWAP1 PUSH2 0x47D JUMP JUMPDEST PUSH1 0x40 MLOAD DUP1 SWAP2 SUB SWAP1 RETURN JUMPDEST PUSH1 0x1 PUSH1 0x3 DUP2 GT ISZERO PUSH2 0xB3 JUMPI PUSH2 0xB2 PUSH2 0x40A JUMP JUMPDEST JUMPDEST PUSH0 DUP1 SLOAD SWAP1 PUSH2 0x100 EXP SWAP1 DIV PUSH1 0xFF AND PUSH1 0x3 DUP2 GT ISZERO PUSH2 0xD2 JUMPI PUSH2 0xD1 PUSH2 0x40A JUMP JUMPDEST JUMPDEST EQ PUSH2 0x112 JUMPI PUSH1 0x40 MLOAD PUSH32 0x8C379A000000000000000000000000000000000000000000000000000000000 DUP2 MSTORE PUSH1 0x4 ADD PUSH2 0x109 SWAP1 PUSH2 0x4F0 JUMP JUMPDEST PUSH1 0x40 MLOAD DUP1 SWAP2 SUB SWAP1 REVERT JUMPDEST PUSH1 0x2 PUSH0 DUP1 PUSH2 0x100 EXP DUP2 SLOAD DUP2 PUSH1 0xFF MUL NOT AND SWAP1 DUP4 PUSH1 0x3 DUP2 GT ISZERO PUSH2 0x136 JUMPI PUSH2 0x135 PUSH2 0x40A JUMP JUMPDEST JUMPDEST MUL OR SWAP1 SSTORE POP PUSH32 0xFF8FEA957FB7CB582EF297C1C74436FE7A9914EFBC52ADF197600DC9D171EFBC PUSH1 0x40 MLOAD PUSH2 0x168 SWAP1 PUSH2 0x558 JUMP JUMPDEST PUSH1 0x40 MLOAD DUP1 SWAP2 SUB SWAP1 LOG1 JUMP JUMPDEST PUSH1 0x3 DUP1 DUP2 GT ISZERO PUSH2 0x185 JUMPI PUSH2 0x184 PUSH2 0x40A JUMP JUMPDEST JUMPDEST PUSH0 DUP1 SLOAD SWAP1 PUSH2 0x100 EXP SWAP1 DIV PUSH1 0xFF AND PUSH1 0x3 DUP2 GT ISZERO PUSH2 0x1A4 JUMPI PUSH2 0x1A3 PUSH2 0x40A JUMP JUMPDEST JUMPDEST EQ PUSH2 0x1E4 JUMPI PUSH1 0x40 MLOAD PUSH32 0x8C379A000000000000000000000000000000000000000000000000000000000 DUP2 MSTORE PUSH1 0x4 ADD PUSH2 0x1DB SWAP1 PUSH2 0x5C0 JUMP JUMPDEST PUSH1 0x40 MLOAD DUP1 SWAP2 SUB SWAP1 REVERT JUMPDEST PUSH0 DUP1 PUSH0 PUSH2 0x100 EXP DUP2 SLOAD DUP2 PUSH1 0xFF MUL NOT AND SWAP1 DUP4 PUSH1 0x3 DUP2 GT ISZERO PUSH2 0x207 JUMPI PUSH2 0x206 PUSH2 0x40A JUMP JUMPDEST JUMPDEST MUL OR SWAP1 SSTORE POP PUSH32 0xFF8FEA957FB7CB582EF297C1C74436FE7A9914EFBC52ADF197600DC9D171EFBC PUSH1 0x40 MLOAD PUSH2 0x239 SWAP1 PUSH2 0x628 JUMP JUMPDEST PUSH1 0x40 MLOAD DUP1 SWAP2 SUB SWAP1 LOG1 JUMP JUMPDEST PUSH0 PUSH1 0x3 DUP2 GT ISZERO PUSH2 0x256 JUMPI PUSH2 0x255 PUSH2 0x40A JUMP JUMPDEST JUMPDEST PUSH0 DUP1 SLOAD SWAP1 PUSH2 0x100 EXP SWAP1 DIV PUSH1 0xFF AND PUSH1 0x3 DUP2 GT ISZERO PUSH2 0x275 JUMPI PUSH2 0x274 PUSH2 0x40A JUMP JUMPDEST JUMPDEST EQ PUSH2 0x2B5 JUMPI PUSH1 0x40 MLOAD PUSH32 0x8C379A000000000000000000000000000000000000000000000000000000000 DUP2 MSTORE PUSH1 0x4 ADD PUSH2 0x2AC SWAP1 PUSH2 0x690 JUMP JUMPDEST PUSH1 0x40 MLOAD DUP1 SWAP2 SUB SWAP1 REVERT JUMPDEST PUSH1 0x1 PUSH0 DUP1 PUSH2 0x100 EXP DUP2 SLOAD DUP2 PUSH1 0xFF MUL NOT AND SWAP1 DUP4 PUSH1 0x3 DUP2 GT ISZERO PUSH2 0x2D9 JUMPI PUSH2 0x2D8 PUSH2 0x40A JUMP JUMPDEST JUMPDEST MUL OR SWAP1 SSTORE POP PUSH32 0xFF8FEA957FB7CB582EF297C1C74436FE7A9914EFBC52ADF197600DC9D171EFBC PUSH1 0x40 MLOAD PUSH2 0x30B SWAP1 PUSH2 0x6F8 JUMP JUMPDEST PUSH1 0x40 MLOAD DUP1 SWAP2 SUB SWAP1 LOG1 JUMP JUMPDEST PUSH1 0x2 PUSH1 0x3 DUP2 GT ISZERO PUSH2 0x329 JUMPI PUSH2 0x328 PUSH2 0x40A JUMP JUMPDEST JUMPDEST PUSH1 0x3 DUP2 GT ISZERO PUSH2 0x33B JUMPI PUSH2 0x33A PUSH2 0x40A JUMP JUMPDEST JUMPDEST PUSH0 DUP1 SLOAD SWAP1 PUSH2 0x100 EXP SWAP1 DIV PUSH1 0xFF AND PUSH1 0x3 DUP2 GT ISZERO PUSH2 0x35A JUMPI PUSH2 0x359 PUSH2 0x40A JUMP JUMPDEST JUMPDEST EQ PUSH2 0x39A JUMPI PUSH1 0x40 MLOAD PUSH32 0x8C379A000000000000000000000000000000000000000000000000000000000 DUP2 MSTORE PUSH1 0x4 ADD PUSH2 0x391 SWAP1 PUSH2 0x760 JUMP JUMPDEST PUSH1 0x40 MLOAD DUP1 SWAP2 SUB SWAP1 REVERT JUMPDEST PUSH1 0x3 PUSH0 DUP1 PUSH2 0x100 EXP DUP2 SLOAD DUP2 PUSH1 0xFF MUL NOT AND SWAP1 DUP4 PUSH1 0x3 DUP2 GT ISZERO PUSH2 0x3BE JUMPI PUSH2 0x3BD PUSH2 0x40A JUMP JUMPDEST JUMPDEST MUL OR SWAP1 SSTORE POP PUSH32 0xFF8FEA957FB7CB582EF297C1C74436FE7A9914EFBC52ADF197600DC9D171EFBC PUSH1 0x40 MLOAD PUSH2 0x3F0 SWAP1 PUSH2 0x7C8 JUMP JUMPDEST PUSH1 0x40 MLOAD DUP1 SWAP2 SUB SWAP1 LOG1 JUMP JUMPDEST PUSH0 DUP1 SLOAD SWAP1 PUSH2 0x100 EXP SWAP1 DIV PUSH1 0xFF AND DUP2 JUMP JUMPDEST PUSH32 0x4E487B7100000000000000000000000000000000000000000000000000000000 PUSH0 MSTORE PUSH1 0x21 PUSH1 0x4 MSTORE PUSH1 0x24 PUSH0 REVERT JUMPDEST PUSH1 0x4 DUP2 LT PUSH2 0x448 JUMPI PUSH2 0x447 PUSH2 0x40A JUMP JUMPDEST JUMPDEST POP JUMP JUMPDEST PUSH0 DUP2 SWAP1 POP PUSH2 0x458 DUP3 PUSH2 0x437 JUMP JUMPDEST SWAP2 SWAP1 POP JUMP JUMPDEST PUSH0 PUSH2 0x467 DUP3 PUSH2 0x44B JUMP JUMPDEST SWAP1 POP SWAP2 SWAP1 POP JUMP JUMPDEST PUSH2 0x477 DUP2 PUSH2 0x45D JUMP JUMPDEST DUP3 MSTORE POP POP JUMP JUMPDEST PUSH0 PUSH1 0x20 DUP3 ADD SWAP1 POP PUSH2 0x490 PUSH0 DUP4 ADD DUP5 PUSH2 0x46E JUMP JUMPDEST SWAP3 SWAP2 POP POP JUMP JUMPDEST PUSH0 DUP3 DUP3 MSTORE PUSH1 0x20 DUP3 ADD SWAP1 POP SWAP3 SWAP2 POP POP JUMP JUMPDEST PUSH32 0x4974206D757374206265207468652074616B6541776179207374617475730000 PUSH0 DUP3 ADD MSTORE POP JUMP JUMPDEST PUSH0 PUSH2 0x4DA PUSH1 0x1E DUP4 PUSH2 0x496 JUMP JUMPDEST SWAP2 POP PUSH2 0x4E5 DUP3 PUSH2 0x4A6 JUMP JUMPDEST PUSH1 0x20 DUP3 ADD SWAP1 POP SWAP2 SWAP1 POP JUMP JUMPDEST PUSH0 PUSH1 0x20 DUP3 ADD SWAP1 POP DUP2 DUP2 SUB PUSH0 DUP4 ADD MSTORE PUSH2 0x507 DUP2 PUSH2 0x4CE JUMP JUMPDEST SWAP1 POP SWAP2 SWAP1 POP JUMP JUMPDEST PUSH32 0x64656C6976657279207375636365737300000000000000000000000000000000 PUSH0 DUP3 ADD MSTORE POP JUMP JUMPDEST PUSH0 PUSH2 0x542 PUSH1 0x10 DUP4 PUSH2 0x496 JUMP JUMPDEST SWAP2 POP PUSH2 0x54D DUP3 PUSH2 0x50E JUMP JUMPDEST PUSH1 0x20 DUP3 ADD SWAP1 POP SWAP2 SWAP1 POP JUMP JUMPDEST PUSH0 PUSH1 0x20 DUP3 ADD SWAP1 POP DUP2 DUP2 SUB PUSH0 DUP4 ADD MSTORE PUSH2 0x56F DUP2 PUSH2 0x536 JUMP JUMPDEST SWAP1 POP SWAP2 SWAP1 POP JUMP JUMPDEST PUSH32 0x4974206D75737420626520746865207061796D656E7420737461747573000000 PUSH0 DUP3 ADD MSTORE POP JUMP JUMPDEST PUSH0 PUSH2 0x5AA PUSH1 0x1D DUP4 PUSH2 0x496 JUMP JUMPDEST SWAP2 POP PUSH2 0x5B5 DUP3 PUSH2 0x576 JUMP JUMPDEST PUSH1 0x20 DUP3 ADD SWAP1 POP SWAP2 SWAP1 POP JUMP JUMPDEST PUSH0 PUSH1 0x20 DUP3 ADD SWAP1 POP DUP2 DUP2 SUB PUSH0 DUP4 ADD MSTORE PUSH2 0x5D7 DUP2 PUSH2 0x59E JUMP JUMPDEST SWAP1 POP SWAP2 SWAP1 POP JUMP JUMPDEST PUSH32 0x4F72646572207375636365737300000000000000000000000000000000000000 PUSH0 DUP3 ADD MSTORE POP JUMP JUMPDEST PUSH0 PUSH2 0x612 PUSH1 0xD DUP4 PUSH2 0x496 JUMP JUMPDEST SWAP2 POP PUSH2 0x61D DUP3 PUSH2 0x5DE JUMP JUMPDEST PUSH1 0x20 DUP3 ADD SWAP1 POP SWAP2 SWAP1 POP JUMP JUMPDEST PUSH0 PUSH1 0x20 DUP3 ADD SWAP1 POP DUP2 DUP2 SUB PUSH0 DUP4 ADD MSTORE PUSH2 0x63F DUP2 PUSH2 0x606 JUMP JUMPDEST SWAP1 POP SWAP2 SWAP1 POP JUMP JUMPDEST PUSH32 0x4974206D75737420626520746865206F72646572207374617475730000000000 PUSH0 DUP3 ADD MSTORE POP JUMP JUMPDEST PUSH0 PUSH2 0x67A PUSH1 0x1B DUP4 PUSH2 0x496 JUMP JUMPDEST SWAP2 POP PUSH2 0x685 DUP3 PUSH2 0x646 JUMP JUMPDEST PUSH1 0x20 DUP3 ADD SWAP1 POP SWAP2 SWAP1 POP JUMP JUMPDEST PUSH0 PUSH1 0x20 DUP3 ADD SWAP1 POP DUP2 DUP2 SUB PUSH0 DUP4 ADD MSTORE PUSH2 0x6A7 DUP2 PUSH2 0x66E JUMP JUMPDEST SWAP1 POP SWAP2 SWAP1 POP JUMP JUMPDEST PUSH32 0x74616B6541776179207375636365737300000000000000000000000000000000 PUSH0 DUP3 ADD MSTORE POP JUMP JUMPDEST PUSH0 PUSH2 0x6E2 PUSH1 0x10 DUP4 PUSH2 0x496 JUMP JUMPDEST SWAP2 POP PUSH2 0x6ED DUP3 PUSH2 0x6AE JUMP JUMPDEST PUSH1 0x20 DUP3 ADD SWAP1 POP SWAP2 SWAP1 POP JUMP JUMPDEST PUSH0 PUSH1 0x20 DUP3 ADD SWAP1 POP DUP2 DUP2 SUB PUSH0 DUP4 ADD MSTORE PUSH2 0x70F DUP2 PUSH2 0x6D6 JUMP JUMPDEST SWAP1 POP SWAP2 SWAP1 POP JUMP JUMPDEST PUSH32 0x4974206D757374206265207468652064656C6976657279207374617475730000 PUSH0 DUP3 ADD MSTORE POP JUMP JUMPDEST PUSH0 PUSH2 0x74A PUSH1 0x1E DUP4 PUSH2 0x496 JUMP JUMPDEST SWAP2 POP PUSH2 0x755 DUP3 PUSH2 0x716 JUMP JUMPDEST PUSH1 0x20 DUP3 ADD SWAP1 POP SWAP2 SWAP1 POP JUMP JUMPDEST PUSH0 PUSH1 0x20 DUP3 ADD SWAP1 POP DUP2 DUP2 SUB PUSH0 DUP4 ADD MSTORE PUSH2 0x777 DUP2 PUSH2 0x73E JUMP JUMPDEST SWAP1 POP SWAP2 SWAP1 POP JUMP JUMPDEST PUSH32 0x7061796D656E7420737563636573730000000000000000000000000000000000 PUSH0 DUP3 ADD MSTORE POP JUMP JUMPDEST PUSH0 PUSH2 0x7B2 PUSH1 0xF DUP4 PUSH2 0x496 JUMP JUMPDEST SWAP2 POP PUSH2 0x7BD DUP3 PUSH2 0x77E JUMP JUMPDEST PUSH1 0x20 DUP3 ADD SWAP1 POP SWAP2 SWAP1 POP JUMP JUMPDEST PUSH0 PUSH1 0x20 DUP3 ADD SWAP1 POP DUP2 DUP2 SUB PUSH0 DUP4 ADD MSTORE PUSH2 0x7DF DUP2 PUSH2 0x7A6 JUMP JUMPDEST SWAP1 POP SWAP2 SWAP1 POP JUMP INVALID LOG2 PUSH5 0x6970667358 0x22 SLT KECCAK256 XOR CALL 0xBA 0x4E MLOAD 0xE5 SLOAD SAR 0x2C 0xD9 EXP EXTCODECOPY 0xD6 0xD5 0xE1 0xA7 BLOCKHASH 0xEE 0xD1 0x1E 0xEB SELFDESTRUCT 0xBB PUSH29 0xE7257DC358FF76B764736F6C634300081A003300000000000000000000 "
				},
				"gasEstimates": {
					"creation": {
						"codeDepositCost": "415200",
						"executionCost": "24745",
						"totalCost": "439945"
					},
					"external": {
						"deliveryFoood()": "28411",
						"foodStatus()": "2617",
						"orderFood()": "28432",
						"paymentFood()": "28503",
						"takeAwayFood()": "28454"
					}
				},
				"methodIdentifiers": {
					"deliveryFoood()": "0276843a",
					"foodStatus()": "d9c966fd",
					"orderFood()": "429268ae",
					"paymentFood()": "c62efc2b",
					"takeAwayFood()": "94d15a9e"
				}
			},
			"storageLayout": {
				"storage": [
					{
						"astId": 12,
						"contract": "Example/Ex6_9.sol:Ex6_9",
						"label": "foodStatus",
						"offset": 0,
						"slot": "0",
						"type": "t_enum(FoodProcess)9"
					}
				],
				"types": {
					"t_enum(FoodProcess)9": {
						"encoding": "inplace",
						"label": "enum Ex6_9.FoodProcess",
						"numberOfBytes": "1"
					}
				}
			},
			"userdoc": {
				"kind": "user",
				"methods": {},
				"version": 1
			}
		}
	}
}