{
	"week3/Ex4_7.sol": {
		"Ex4_7": {
			"abi": [
				{
					"inputs": [],
					"name": "arithmetic",
					"outputs": [
						{
							"internalType": "uint256",
							"name": "",
							"type": "uint256"
						},
						{
							"internalType": "uint256",
							"name": "",
							"type": "uint256"
						},
						{
							"internalType": "uint256",
							"name": "",
							"type": "uint256"
						},
						{
							"internalType": "uint256",
							"name": "",
							"type": "uint256"
						},
						{
							"internalType": "uint256",
							"name": "",
							"type": "uint256"
						},
						{
							"internalType": "uint256",
							"name": "",
							"type": "uint256"
						}
					],
					"stateMutability": "view",
					"type": "function"
				}
			],
			"devdoc": {
				"kind": "dev",
				"methods": {},
				"version": 1
			},
			"evm": {
				"assembly": "    /* \"week3/Ex4_7.sol\":61:316  contract Ex4_7{... */\n  mstore(0x40, 0x80)\n    /* \"week3/Ex4_7.sol\":89:92  5+2 */\n  0x07\n    /* \"week3/Ex4_7.sol\":82:92  uint a=5+2 */\n  0x00\n  sstore\n    /* \"week3/Ex4_7.sol\":105:108  5-2 */\n  0x03\n    /* \"week3/Ex4_7.sol\":98:108  uint b=5-2 */\n  0x01\n  sstore\n    /* \"week3/Ex4_7.sol\":121:124  5*2 */\n  0x0a\n    /* \"week3/Ex4_7.sol\":114:124  uint c=5*2 */\n  0x02\n  sstore\n    /* \"week3/Ex4_7.sol\":137:140  5/5 */\n  0x01\n    /* \"week3/Ex4_7.sol\":130:140  uint d=5/5 */\n  0x03\n  sstore\n    /* \"week3/Ex4_7.sol\":166:169  5%2 */\n  0x01\n    /* \"week3/Ex4_7.sol\":159:169  uint e=5%2 */\n  0x04\n  sstore\n    /* \"week3/Ex4_7.sol\":195:199  5**2 */\n  0x19\n    /* \"week3/Ex4_7.sol\":188:199  uint f=5**2 */\n  0x05\n  sstore\n    /* \"week3/Ex4_7.sol\":61:316  contract Ex4_7{... */\n  callvalue\n  dup1\n  iszero\n  tag_1\n  jumpi\n  0x00\n  dup1\n  revert\ntag_1:\n  pop\n  dataSize(sub_0)\n  dup1\n  dataOffset(sub_0)\n  0x00\n  codecopy\n  0x00\n  return\nstop\n\nsub_0: assembly {\n        /* \"week3/Ex4_7.sol\":61:316  contract Ex4_7{... */\n      mstore(0x40, 0x80)\n      callvalue\n      dup1\n      iszero\n      tag_1\n      jumpi\n      0x00\n      dup1\n      revert\n    tag_1:\n      pop\n      jumpi(tag_2, lt(calldatasize, 0x04))\n      shr(0xe0, calldataload(0x00))\n      dup1\n      0x980a67fd\n      eq\n      tag_3\n      jumpi\n    tag_2:\n      0x00\n      dup1\n      revert\n        /* \"week3/Ex4_7.sol\":206:314  function arithmetic() public view returns(uint,uint,uint,uint,uint,uint){... */\n    tag_3:\n      tag_4\n      tag_5\n      jump\t// in\n    tag_4:\n      mload(0x40)\n      dup1\n      dup8\n      dup2\n      mstore\n      0x20\n      add\n      dup7\n      dup2\n      mstore\n      0x20\n      add\n      dup6\n      dup2\n      mstore\n      0x20\n      add\n      dup5\n      dup2\n      mstore\n      0x20\n      add\n      dup4\n      dup2\n      mstore\n      0x20\n      add\n      dup3\n      dup2\n      mstore\n      0x20\n      add\n      swap7\n      pop\n      pop\n      pop\n      pop\n      pop\n      pop\n      pop\n      mload(0x40)\n      dup1\n      swap2\n      sub\n      swap1\n      return\n    tag_5:\n        /* \"week3/Ex4_7.sol\":248:252  uint */\n      0x00\n        /* \"week3/Ex4_7.sol\":253:257  uint */\n      dup1\n        /* \"week3/Ex4_7.sol\":258:262  uint */\n      0x00\n        /* \"week3/Ex4_7.sol\":263:267  uint */\n      dup1\n        /* \"week3/Ex4_7.sol\":268:272  uint */\n      0x00\n        /* \"week3/Ex4_7.sol\":273:277  uint */\n      dup1\n        /* \"week3/Ex4_7.sol\":295:296  a */\n      sload(0x00)\n        /* \"week3/Ex4_7.sol\":297:298  b */\n      sload(0x01)\n        /* \"week3/Ex4_7.sol\":299:300  c */\n      sload(0x02)\n        /* \"week3/Ex4_7.sol\":301:302  d */\n      sload(0x03)\n        /* \"week3/Ex4_7.sol\":303:304  e */\n      sload(0x04)\n        /* \"week3/Ex4_7.sol\":305:306  f */\n      sload(0x05)\n        /* \"week3/Ex4_7.sol\":288:307  return(a,b,c,d,e,f) */\n      swap6\n      pop\n      swap6\n      pop\n      swap6\n      pop\n      swap6\n      pop\n      swap6\n      pop\n      swap6\n      pop\n        /* \"week3/Ex4_7.sol\":206:314  function arithmetic() public view returns(uint,uint,uint,uint,uint,uint){... */\n      swap1\n      swap2\n      swap3\n      swap4\n      swap5\n      swap6\n      jump\t// out\n\n    auxdata: 0xa2646970667358221220b69e9340710c3e15bc919e2a46aac61611228c1a5d3975ebe18dbdc61b757c1864736f6c63430007000033\n}\n",
				"bytecode": {
					"linkReferences": {},
					"object": "608060405260076000556003600155600a60025560016003556001600455601960055534801561002e57600080fd5b5060d18061003d6000396000f3fe6080604052348015600f57600080fd5b506004361060285760003560e01c8063980a67fd14602d575b600080fd5b6033606c565b60405180878152602001868152602001858152602001848152602001838152602001828152602001965050505050505060405180910390f35b60008060008060008060005460015460025460035460045460055495509550955095509550955090919293949556fea2646970667358221220b69e9340710c3e15bc919e2a46aac61611228c1a5d3975ebe18dbdc61b757c1864736f6c63430007000033",
					"opcodes": "PUSH1 0x80 PUSH1 0x40 MSTORE PUSH1 0x7 PUSH1 0x0 SSTORE PUSH1 0x3 PUSH1 0x1 SSTORE PUSH1 0xA PUSH1 0x2 SSTORE PUSH1 0x1 PUSH1 0x3 SSTORE PUSH1 0x1 PUSH1 0x4 SSTORE PUSH1 0x19 PUSH1 0x5 SSTORE CALLVALUE DUP1 ISZERO PUSH2 0x2E JUMPI PUSH1 0x0 DUP1 REVERT JUMPDEST POP PUSH1 0xD1 DUP1 PUSH2 0x3D PUSH1 0x0 CODECOPY PUSH1 0x0 RETURN INVALID PUSH1 0x80 PUSH1 0x40 MSTORE CALLVALUE DUP1 ISZERO PUSH1 0xF JUMPI PUSH1 0x0 DUP1 REVERT JUMPDEST POP PUSH1 0x4 CALLDATASIZE LT PUSH1 0x28 JUMPI PUSH1 0x0 CALLDATALOAD PUSH1 0xE0 SHR DUP1 PUSH4 0x980A67FD EQ PUSH1 0x2D JUMPI JUMPDEST PUSH1 0x0 DUP1 REVERT JUMPDEST PUSH1 0x33 PUSH1 0x6C JUMP JUMPDEST PUSH1 0x40 MLOAD DUP1 DUP8 DUP2 MSTORE PUSH1 0x20 ADD DUP7 DUP2 MSTORE PUSH1 0x20 ADD DUP6 DUP2 MSTORE PUSH1 0x20 ADD DUP5 DUP2 MSTORE PUSH1 0x20 ADD DUP4 DUP2 MSTORE PUSH1 0x20 ADD DUP3 DUP2 MSTORE PUSH1 0x20 ADD SWAP7 POP POP POP POP POP POP POP PUSH1 0x40 MLOAD DUP1 SWAP2 SUB SWAP1 RETURN JUMPDEST PUSH1 0x0 DUP1 PUSH1 0x0 DUP1 PUSH1 0x0 DUP1 PUSH1 0x0 SLOAD PUSH1 0x1 SLOAD PUSH1 0x2 SLOAD PUSH1 0x3 SLOAD PUSH1 0x4 SLOAD PUSH1 0x5 SLOAD SWAP6 POP SWAP6 POP SWAP6 POP SWAP6 POP SWAP6 POP SWAP6 POP SWAP1 SWAP2 SWAP3 SWAP4 SWAP5 SWAP6 JUMP INVALID LOG2 PUSH5 0x6970667358 0x22 SLT KECCAK256 0xB6 SWAP15 SWAP4 BLOCKHASH PUSH18 0xC3E15BC919E2A46AAC61611228C1A5D3975 0xEB 0xE1 DUP14 0xBD 0xC6 SHL PUSH22 0x7C1864736F6C63430007000033000000000000000000 "
				},
				"gasEstimates": {
					"creation": {
						"codeDepositCost": "41800",
						"executionCost": "120129",
						"totalCost": "161929"
					},
					"external": {
						"arithmetic()": "5161"
					}
				},
				"methodIdentifiers": {
					"arithmetic()": "980a67fd"
				}
			},
			"storageLayout": {
				"storage": [
					{
						"astId": 6,
						"contract": "week3/Ex4_7.sol:Ex4_7",
						"label": "a",
						"offset": 0,
						"slot": "0",
						"type": "t_uint256"
					},
					{
						"astId": 11,
						"contract": "week3/Ex4_7.sol:Ex4_7",
						"label": "b",
						"offset": 0,
						"slot": "1",
						"type": "t_uint256"
					},
					{
						"astId": 16,
						"contract": "week3/Ex4_7.sol:Ex4_7",
						"label": "c",
						"offset": 0,
						"slot": "2",
						"type": "t_uint256"
					},
					{
						"astId": 21,
						"contract": "week3/Ex4_7.sol:Ex4_7",
						"label": "d",
						"offset": 0,
						"slot": "3",
						"type": "t_uint256"
					},
					{
						"astId": 26,
						"contract": "week3/Ex4_7.sol:Ex4_7",
						"label": "e",
						"offset": 0,
						"slot": "4",
						"type": "t_uint256"
					},
					{
						"astId": 31,
						"contract": "week3/Ex4_7.sol:Ex4_7",
						"label": "f",
						"offset": 0,
						"slot": "5",
						"type": "t_uint256"
					}
				],
				"types": {
					"t_uint256": {
						"encoding": "inplace",
						"label": "uint256",
						"numberOfBytes": "32"
					}
				}
			},
			"userdoc": {
				"kind": "user",
				"methods": {},
				"version": 1
			}
		}
	}
}