{
	"Example/ERC721StdNFT.sol": {
		"ERC721StdNFT": {
			"abi": [
				{
					"inputs": [
						{
							"internalType": "string",
							"name": "_name",
							"type": "string"
						},
						{
							"internalType": "string",
							"name": "_symbol",
							"type": "string"
						}
					],
					"stateMutability": "nonpayable",
					"type": "constructor"
				},
				{
					"anonymous": false,
					"inputs": [
						{
							"indexed": true,
							"internalType": "address",
							"name": "_owner",
							"type": "address"
						},
						{
							"indexed": true,
							"internalType": "address",
							"name": "_approved",
							"type": "address"
						},
						{
							"indexed": true,
							"internalType": "uint256",
							"name": "_tokenId",
							"type": "uint256"
						}
					],
					"name": "Approval",
					"type": "event"
				},
				{
					"anonymous": false,
					"inputs": [
						{
							"indexed": true,
							"internalType": "address",
							"name": "_owner",
							"type": "address"
						},
						{
							"indexed": true,
							"internalType": "address",
							"name": "_operator",
							"type": "address"
						},
						{
							"indexed": false,
							"internalType": "bool",
							"name": "_approved",
							"type": "bool"
						}
					],
					"name": "ApprovalForAll",
					"type": "event"
				},
				{
					"anonymous": false,
					"inputs": [
						{
							"indexed": true,
							"internalType": "address",
							"name": "_from",
							"type": "address"
						},
						{
							"indexed": true,
							"internalType": "address",
							"name": "_to",
							"type": "address"
						},
						{
							"indexed": true,
							"internalType": "uint256",
							"name": "_tokenId",
							"type": "uint256"
						}
					],
					"name": "Transfer",
					"type": "event"
				},
				{
					"inputs": [
						{
							"internalType": "address",
							"name": "",
							"type": "address"
						},
						{
							"internalType": "address",
							"name": "",
							"type": "address"
						}
					],
					"name": "_operatorApprovals",
					"outputs": [
						{
							"internalType": "bool",
							"name": "",
							"type": "bool"
						}
					],
					"stateMutability": "view",
					"type": "function"
				},
				{
					"inputs": [
						{
							"internalType": "address",
							"name": "_approved",
							"type": "address"
						},
						{
							"internalType": "uint256",
							"name": "_tokenId",
							"type": "uint256"
						}
					],
					"name": "approve",
					"outputs": [],
					"stateMutability": "nonpayable",
					"type": "function"
				},
				{
					"inputs": [
						{
							"internalType": "address",
							"name": "_owner",
							"type": "address"
						}
					],
					"name": "balanceOf",
					"outputs": [
						{
							"internalType": "uint256",
							"name": "",
							"type": "uint256"
						}
					],
					"stateMutability": "view",
					"type": "function"
				},
				{
					"inputs": [],
					"name": "founder",
					"outputs": [
						{
							"internalType": "address",
							"name": "",
							"type": "address"
						}
					],
					"stateMutability": "view",
					"type": "function"
				},
				{
					"inputs": [
						{
							"internalType": "uint256",
							"name": "_tokenId",
							"type": "uint256"
						}
					],
					"name": "getApproved",
					"outputs": [
						{
							"internalType": "address",
							"name": "",
							"type": "address"
						}
					],
					"stateMutability": "view",
					"type": "function"
				},
				{
					"inputs": [
						{
							"internalType": "address",
							"name": "_owner",
							"type": "address"
						},
						{
							"internalType": "address",
							"name": "_operator",
							"type": "address"
						}
					],
					"name": "isApprovedForAll",
					"outputs": [
						{
							"internalType": "bool",
							"name": "",
							"type": "bool"
						}
					],
					"stateMutability": "view",
					"type": "function"
				},
				{
					"inputs": [
						{
							"internalType": "address",
							"name": "to",
							"type": "address"
						},
						{
							"internalType": "uint256",
							"name": "tokenId",
							"type": "uint256"
						}
					],
					"name": "mintNFT",
					"outputs": [],
					"stateMutability": "nonpayable",
					"type": "function"
				},
				{
					"inputs": [],
					"name": "name",
					"outputs": [
						{
							"internalType": "string",
							"name": "",
							"type": "string"
						}
					],
					"stateMutability": "view",
					"type": "function"
				},
				{
					"inputs": [
						{
							"internalType": "uint256",
							"name": "_tokenId",
							"type": "uint256"
						}
					],
					"name": "ownerOf",
					"outputs": [
						{
							"internalType": "address",
							"name": "",
							"type": "address"
						}
					],
					"stateMutability": "view",
					"type": "function"
				},
				{
					"inputs": [
						{
							"internalType": "address",
							"name": "_from",
							"type": "address"
						},
						{
							"internalType": "address",
							"name": "_to",
							"type": "address"
						},
						{
							"internalType": "uint256",
							"name": "_tokenId",
							"type": "uint256"
						}
					],
					"name": "safeTransferFrom",
					"outputs": [],
					"stateMutability": "payable",
					"type": "function"
				},
				{
					"inputs": [
						{
							"internalType": "address",
							"name": "_from",
							"type": "address"
						},
						{
							"internalType": "address",
							"name": "_to",
							"type": "address"
						},
						{
							"internalType": "uint256",
							"name": "_tokenId",
							"type": "uint256"
						},
						{
							"internalType": "bytes",
							"name": "data",
							"type": "bytes"
						}
					],
					"name": "safeTransferFrom",
					"outputs": [],
					"stateMutability": "payable",
					"type": "function"
				},
				{
					"inputs": [
						{
							"internalType": "address",
							"name": "_operator",
							"type": "address"
						},
						{
							"internalType": "bool",
							"name": "_approved",
							"type": "bool"
						}
					],
					"name": "setApprovalForAll",
					"outputs": [],
					"stateMutability": "nonpayable",
					"type": "function"
				},
				{
					"inputs": [
						{
							"internalType": "bytes4",
							"name": "interfaceId",
							"type": "bytes4"
						}
					],
					"name": "supportsInterface",
					"outputs": [
						{
							"internalType": "bool",
							"name": "",
							"type": "bool"
						}
					],
					"stateMutability": "pure",
					"type": "function"
				},
				{
					"inputs": [],
					"name": "symbol",
					"outputs": [
						{
							"internalType": "string",
							"name": "",
							"type": "string"
						}
					],
					"stateMutability": "view",
					"type": "function"
				},
				{
					"inputs": [
						{
							"internalType": "address",
							"name": "from",
							"type": "address"
						},
						{
							"internalType": "address",
							"name": "to",
							"type": "address"
						},
						{
							"internalType": "uint256",
							"name": "tokenId",
							"type": "uint256"
						}
					],
					"name": "transferFrom",
					"outputs": [],
					"stateMutability": "payable",
					"type": "function"
				}
			],
			"devdoc": {
				"kind": "dev",
				"methods": {},
				"version": 1
			},
			"evm": {
				"assembly": "    /* \"Example/ERC721StdNFT.sol\":1985:8224  contract ERC721StdNFT is ERC721 {... */\n  mstore(0x40, 0x80)\n    /* \"Example/ERC721StdNFT.sol\":2638:3027  constructor(string memory _name, string memory _symbol) {... */\n  callvalue\n  dup1\n  iszero\n  tag_1\n  jumpi\n  0x00\n  dup1\n  revert\ntag_1:\n  pop\n  mload(0x40)\n  sub(codesize, bytecodeSize)\n  dup1\n  bytecodeSize\n  dup4\n  codecopy\n  dup2\n  dup2\n  add\n  0x40\n  mstore\n  dup2\n  add\n  swap1\n  tag_2\n  swap2\n  swap1\n  tag_3\n  jump\t// in\ntag_2:\n    /* \"Example/ERC721StdNFT.sol\":2714:2724  msg.sender */\n  caller\n    /* \"Example/ERC721StdNFT.sol\":2704:2711  founder */\n  0x00\n  dup1\n    /* \"Example/ERC721StdNFT.sol\":2704:2724  founder = msg.sender */\n  0x0100\n  exp\n  dup2\n  sload\n  dup2\n  0xffffffffffffffffffffffffffffffffffffffff\n  mul\n  not\n  and\n  swap1\n  dup4\n  0xffffffffffffffffffffffffffffffffffffffff\n  and\n  mul\n  or\n  swap1\n  sstore\n  pop\n    /* \"Example/ERC721StdNFT.sol\":2768:2773  _name */\n  dup2\n    /* \"Example/ERC721StdNFT.sol\":2761:2765  name */\n  0x05\n    /* \"Example/ERC721StdNFT.sol\":2761:2773  name = _name */\n  swap1\n  dup2\n  tag_6\n  swap2\n  swap1\n  tag_7\n  jump\t// in\ntag_6:\n  pop\n    /* \"Example/ERC721StdNFT.sol\":2813:2820  _symbol */\n  dup1\n    /* \"Example/ERC721StdNFT.sol\":2804:2810  symbol */\n  0x06\n    /* \"Example/ERC721StdNFT.sol\":2804:2820  symbol = _symbol */\n  swap1\n  dup2\n  tag_8\n  swap2\n  swap1\n  tag_7\n  jump\t// in\ntag_8:\n  pop\n    /* \"Example/ERC721StdNFT.sol\":2894:2909  uint256 tokenID */\n  0x00\n    /* \"Example/ERC721StdNFT.sol\":2912:2913  1 */\n  0x01\n    /* \"Example/ERC721StdNFT.sol\":2894:2913  uint256 tokenID = 1 */\n  swap1\n  pop\n    /* \"Example/ERC721StdNFT.sol\":2889:3021  for (uint256 tokenID = 1; tokenID <= 5; tokenID++) {... */\ntag_9:\n    /* \"Example/ERC721StdNFT.sol\":2926:2927  5 */\n  0x05\n    /* \"Example/ERC721StdNFT.sol\":2915:2922  tokenID */\n  dup2\n    /* \"Example/ERC721StdNFT.sol\":2915:2927  tokenID <= 5 */\n  gt\n    /* \"Example/ERC721StdNFT.sol\":2889:3021  for (uint256 tokenID = 1; tokenID <= 5; tokenID++) {... */\n  tag_10\n  jumpi\n    /* \"Example/ERC721StdNFT.sol\":2954:2980  _mint(msg.sender, tokenID) */\n  tag_12\n    /* \"Example/ERC721StdNFT.sol\":2960:2970  msg.sender */\n  caller\n    /* \"Example/ERC721StdNFT.sol\":2972:2979  tokenID */\n  dup3\n    /* \"Example/ERC721StdNFT.sol\":2954:2959  _mint */\n  shl(0x20, tag_13)\n    /* \"Example/ERC721StdNFT.sol\":2954:2980  _mint(msg.sender, tokenID) */\n  0x20\n  shr\n  jump\t// in\ntag_12:\n    /* \"Example/ERC721StdNFT.sol\":2929:2938  tokenID++ */\n  dup1\n  dup1\n  tag_14\n  swap1\n  tag_15\n  jump\t// in\ntag_14:\n  swap2\n  pop\n  pop\n    /* \"Example/ERC721StdNFT.sol\":2889:3021  for (uint256 tokenID = 1; tokenID <= 5; tokenID++) {... */\n  jump(tag_9)\ntag_10:\n  pop\n    /* \"Example/ERC721StdNFT.sol\":2638:3027  constructor(string memory _name, string memory _symbol) {... */\n  pop\n  pop\n    /* \"Example/ERC721StdNFT.sol\":1985:8224  contract ERC721StdNFT is ERC721 {... */\n  jump(tag_16)\n    /* \"Example/ERC721StdNFT.sol\":3096:3556  function _mint(address to, uint256 tokenId) internal {... */\ntag_13:\n    /* \"Example/ERC721StdNFT.sol\":3181:3182  0 */\n  0x00\n    /* \"Example/ERC721StdNFT.sol\":3167:3183  to != address(0) */\n  0xffffffffffffffffffffffffffffffffffffffff\n  and\n    /* \"Example/ERC721StdNFT.sol\":3167:3169  to */\n  dup3\n    /* \"Example/ERC721StdNFT.sol\":3167:3183  to != address(0) */\n  0xffffffffffffffffffffffffffffffffffffffff\n  and\n  sub\n    /* \"Example/ERC721StdNFT.sol\":3159:3208  require(to != address(0), \"mint to zero address\") */\n  tag_18\n  jumpi\n  mload(0x40)\n  0x08c379a000000000000000000000000000000000000000000000000000000000\n  dup2\n  mstore\n  0x04\n  add\n  tag_19\n  swap1\n  tag_20\n  jump\t// in\ntag_19:\n  mload(0x40)\n  dup1\n  swap2\n  sub\n  swap1\n  revert\ntag_18:\n    /* \"Example/ERC721StdNFT.sol\":3291:3292  0 */\n  0x00\n    /* \"Example/ERC721StdNFT.sol\":3262:3293  _ownerOf[tokenId] == address(0) */\n  0xffffffffffffffffffffffffffffffffffffffff\n  and\n    /* \"Example/ERC721StdNFT.sol\":3262:3270  _ownerOf */\n  0x01\n    /* \"Example/ERC721StdNFT.sol\":3262:3279  _ownerOf[tokenId] */\n  0x00\n    /* \"Example/ERC721StdNFT.sol\":3271:3278  tokenId */\n  dup4\n    /* \"Example/ERC721StdNFT.sol\":3262:3279  _ownerOf[tokenId] */\n  dup2\n  mstore\n  0x20\n  add\n  swap1\n  dup2\n  mstore\n  0x20\n  add\n  0x00\n  keccak256\n  0x00\n  swap1\n  sload\n  swap1\n  0x0100\n  exp\n  swap1\n  div\n  0xffffffffffffffffffffffffffffffffffffffff\n  and\n    /* \"Example/ERC721StdNFT.sol\":3262:3293  _ownerOf[tokenId] == address(0) */\n  0xffffffffffffffffffffffffffffffffffffffff\n  and\n  eq\n    /* \"Example/ERC721StdNFT.sol\":3254:3312  require(_ownerOf[tokenId] == address(0), \"already minted\") */\n  tag_21\n  jumpi\n  mload(0x40)\n  0x08c379a000000000000000000000000000000000000000000000000000000000\n  dup2\n  mstore\n  0x04\n  add\n  tag_22\n  swap1\n  tag_23\n  jump\t// in\ntag_22:\n  mload(0x40)\n  dup1\n  swap2\n  sub\n  swap1\n  revert\ntag_21:\n    /* \"Example/ERC721StdNFT.sol\":3381:3382  1 */\n  0x01\n    /* \"Example/ERC721StdNFT.sol\":3363:3373  _balanceOf */\n  0x02\n    /* \"Example/ERC721StdNFT.sol\":3363:3377  _balanceOf[to] */\n  0x00\n    /* \"Example/ERC721StdNFT.sol\":3374:3376  to */\n  dup5\n    /* \"Example/ERC721StdNFT.sol\":3363:3377  _balanceOf[to] */\n  0xffffffffffffffffffffffffffffffffffffffff\n  and\n  0xffffffffffffffffffffffffffffffffffffffff\n  and\n  dup2\n  mstore\n  0x20\n  add\n  swap1\n  dup2\n  mstore\n  0x20\n  add\n  0x00\n  keccak256\n  0x00\n    /* \"Example/ERC721StdNFT.sol\":3363:3382  _balanceOf[to] += 1 */\n  dup3\n  dup3\n  sload\n  tag_24\n  swap2\n  swap1\n  tag_25\n  jump\t// in\ntag_24:\n  swap3\n  pop\n  pop\n  dup2\n  swap1\n  sstore\n  pop\n    /* \"Example/ERC721StdNFT.sol\":3446:3448  to */\n  dup2\n    /* \"Example/ERC721StdNFT.sol\":3426:3434  _ownerOf */\n  0x01\n    /* \"Example/ERC721StdNFT.sol\":3426:3443  _ownerOf[tokenId] */\n  0x00\n    /* \"Example/ERC721StdNFT.sol\":3435:3442  tokenId */\n  dup4\n    /* \"Example/ERC721StdNFT.sol\":3426:3443  _ownerOf[tokenId] */\n  dup2\n  mstore\n  0x20\n  add\n  swap1\n  dup2\n  mstore\n  0x20\n  add\n  0x00\n  keccak256\n  0x00\n    /* \"Example/ERC721StdNFT.sol\":3426:3448  _ownerOf[tokenId] = to */\n  0x0100\n  exp\n  dup2\n  sload\n  dup2\n  0xffffffffffffffffffffffffffffffffffffffff\n  mul\n  not\n  and\n  swap1\n  dup4\n  0xffffffffffffffffffffffffffffffffffffffff\n  and\n  mul\n  or\n  swap1\n  sstore\n  pop\n    /* \"Example/ERC721StdNFT.sol\":3512:3519  tokenId */\n  dup1\n    /* \"Example/ERC721StdNFT.sol\":3508:3510  to */\n  dup3\n    /* \"Example/ERC721StdNFT.sol\":3487:3520  Transfer(address(0), to, tokenId) */\n  0xffffffffffffffffffffffffffffffffffffffff\n  and\n    /* \"Example/ERC721StdNFT.sol\":3504:3505  0 */\n  0x00\n    /* \"Example/ERC721StdNFT.sol\":3487:3520  Transfer(address(0), to, tokenId) */\n  0xffffffffffffffffffffffffffffffffffffffff\n  and\n  0xddf252ad1be2c89b69c2b068fc378daa952ba7f163c4a11628f55a4df523b3ef\n  mload(0x40)\n  mload(0x40)\n  dup1\n  swap2\n  sub\n  swap1\n  log4\n    /* \"Example/ERC721StdNFT.sol\":3096:3556  function _mint(address to, uint256 tokenId) internal {... */\n  pop\n  pop\n  jump\t// out\n    /* \"#utility.yul\":7:82   */\ntag_26:\n    /* \"#utility.yul\":40:46   */\n  0x00\n    /* \"#utility.yul\":73:75   */\n  0x40\n    /* \"#utility.yul\":67:76   */\n  mload\n    /* \"#utility.yul\":57:76   */\n  swap1\n  pop\n    /* \"#utility.yul\":7:82   */\n  swap1\n  jump\t// out\n    /* \"#utility.yul\":88:205   */\ntag_27:\n    /* \"#utility.yul\":197:198   */\n  0x00\n    /* \"#utility.yul\":194:195   */\n  dup1\n    /* \"#utility.yul\":187:199   */\n  revert\n    /* \"#utility.yul\":211:328   */\ntag_28:\n    /* \"#utility.yul\":320:321   */\n  0x00\n    /* \"#utility.yul\":317:318   */\n  dup1\n    /* \"#utility.yul\":310:322   */\n  revert\n    /* \"#utility.yul\":334:451   */\ntag_29:\n    /* \"#utility.yul\":443:444   */\n  0x00\n    /* \"#utility.yul\":440:441   */\n  dup1\n    /* \"#utility.yul\":433:445   */\n  revert\n    /* \"#utility.yul\":457:574   */\ntag_30:\n    /* \"#utility.yul\":566:567   */\n  0x00\n    /* \"#utility.yul\":563:564   */\n  dup1\n    /* \"#utility.yul\":556:568   */\n  revert\n    /* \"#utility.yul\":580:682   */\ntag_31:\n    /* \"#utility.yul\":621:627   */\n  0x00\n    /* \"#utility.yul\":672:674   */\n  0x1f\n    /* \"#utility.yul\":668:675   */\n  not\n    /* \"#utility.yul\":663:665   */\n  0x1f\n    /* \"#utility.yul\":656:661   */\n  dup4\n    /* \"#utility.yul\":652:666   */\n  add\n    /* \"#utility.yul\":648:676   */\n  and\n    /* \"#utility.yul\":638:676   */\n  swap1\n  pop\n    /* \"#utility.yul\":580:682   */\n  swap2\n  swap1\n  pop\n  jump\t// out\n    /* \"#utility.yul\":688:868   */\ntag_32:\n    /* \"#utility.yul\":736:813   */\n  0x4e487b7100000000000000000000000000000000000000000000000000000000\n    /* \"#utility.yul\":733:734   */\n  0x00\n    /* \"#utility.yul\":726:814   */\n  mstore\n    /* \"#utility.yul\":833:837   */\n  0x41\n    /* \"#utility.yul\":830:831   */\n  0x04\n    /* \"#utility.yul\":823:838   */\n  mstore\n    /* \"#utility.yul\":857:861   */\n  0x24\n    /* \"#utility.yul\":854:855   */\n  0x00\n    /* \"#utility.yul\":847:862   */\n  revert\n    /* \"#utility.yul\":874:1155   */\ntag_33:\n    /* \"#utility.yul\":957:984   */\n  tag_73\n    /* \"#utility.yul\":979:983   */\n  dup3\n    /* \"#utility.yul\":957:984   */\n  tag_31\n  jump\t// in\ntag_73:\n    /* \"#utility.yul\":949:955   */\n  dup2\n    /* \"#utility.yul\":945:985   */\n  add\n    /* \"#utility.yul\":1087:1093   */\n  dup2\n    /* \"#utility.yul\":1075:1085   */\n  dup2\n    /* \"#utility.yul\":1072:1094   */\n  lt\n    /* \"#utility.yul\":1051:1069   */\n  0xffffffffffffffff\n    /* \"#utility.yul\":1039:1049   */\n  dup3\n    /* \"#utility.yul\":1036:1070   */\n  gt\n    /* \"#utility.yul\":1033:1095   */\n  or\n    /* \"#utility.yul\":1030:1118   */\n  iszero\n  tag_74\n  jumpi\n    /* \"#utility.yul\":1098:1116   */\n  tag_75\n  tag_32\n  jump\t// in\ntag_75:\n    /* \"#utility.yul\":1030:1118   */\ntag_74:\n    /* \"#utility.yul\":1138:1148   */\n  dup1\n    /* \"#utility.yul\":1134:1136   */\n  0x40\n    /* \"#utility.yul\":1127:1149   */\n  mstore\n    /* \"#utility.yul\":917:1155   */\n  pop\n    /* \"#utility.yul\":874:1155   */\n  pop\n  pop\n  jump\t// out\n    /* \"#utility.yul\":1161:1290   */\ntag_34:\n    /* \"#utility.yul\":1195:1201   */\n  0x00\n    /* \"#utility.yul\":1222:1242   */\n  tag_77\n  tag_26\n  jump\t// in\ntag_77:\n    /* \"#utility.yul\":1212:1242   */\n  swap1\n  pop\n    /* \"#utility.yul\":1251:1284   */\n  tag_78\n    /* \"#utility.yul\":1279:1283   */\n  dup3\n    /* \"#utility.yul\":1271:1277   */\n  dup3\n    /* \"#utility.yul\":1251:1284   */\n  tag_33\n  jump\t// in\ntag_78:\n    /* \"#utility.yul\":1161:1290   */\n  swap2\n  swap1\n  pop\n  jump\t// out\n    /* \"#utility.yul\":1296:1604   */\ntag_35:\n    /* \"#utility.yul\":1358:1362   */\n  0x00\n    /* \"#utility.yul\":1448:1466   */\n  0xffffffffffffffff\n    /* \"#utility.yul\":1440:1446   */\n  dup3\n    /* \"#utility.yul\":1437:1467   */\n  gt\n    /* \"#utility.yul\":1434:1490   */\n  iszero\n  tag_80\n  jumpi\n    /* \"#utility.yul\":1470:1488   */\n  tag_81\n  tag_32\n  jump\t// in\ntag_81:\n    /* \"#utility.yul\":1434:1490   */\ntag_80:\n    /* \"#utility.yul\":1508:1537   */\n  tag_82\n    /* \"#utility.yul\":1530:1536   */\n  dup3\n    /* \"#utility.yul\":1508:1537   */\n  tag_31\n  jump\t// in\ntag_82:\n    /* \"#utility.yul\":1500:1537   */\n  swap1\n  pop\n    /* \"#utility.yul\":1592:1596   */\n  0x20\n    /* \"#utility.yul\":1586:1590   */\n  dup2\n    /* \"#utility.yul\":1582:1597   */\n  add\n    /* \"#utility.yul\":1574:1597   */\n  swap1\n  pop\n    /* \"#utility.yul\":1296:1604   */\n  swap2\n  swap1\n  pop\n  jump\t// out\n    /* \"#utility.yul\":1610:1749   */\ntag_36:\n    /* \"#utility.yul\":1699:1705   */\n  dup3\n    /* \"#utility.yul\":1694:1697   */\n  dup2\n    /* \"#utility.yul\":1689:1692   */\n  dup4\n    /* \"#utility.yul\":1683:1706   */\n  mcopy\n    /* \"#utility.yul\":1740:1741   */\n  0x00\n    /* \"#utility.yul\":1731:1737   */\n  dup4\n    /* \"#utility.yul\":1726:1729   */\n  dup4\n    /* \"#utility.yul\":1722:1738   */\n  add\n    /* \"#utility.yul\":1715:1742   */\n  mstore\n    /* \"#utility.yul\":1610:1749   */\n  pop\n  pop\n  pop\n  jump\t// out\n    /* \"#utility.yul\":1755:2189   */\ntag_37:\n    /* \"#utility.yul\":1844:1849   */\n  0x00\n    /* \"#utility.yul\":1869:1935   */\n  tag_85\n    /* \"#utility.yul\":1885:1934   */\n  tag_86\n    /* \"#utility.yul\":1927:1933   */\n  dup5\n    /* \"#utility.yul\":1885:1934   */\n  tag_35\n  jump\t// in\ntag_86:\n    /* \"#utility.yul\":1869:1935   */\n  tag_34\n  jump\t// in\ntag_85:\n    /* \"#utility.yul\":1860:1935   */\n  swap1\n  pop\n    /* \"#utility.yul\":1958:1964   */\n  dup3\n    /* \"#utility.yul\":1951:1956   */\n  dup2\n    /* \"#utility.yul\":1944:1965   */\n  mstore\n    /* \"#utility.yul\":1996:2000   */\n  0x20\n    /* \"#utility.yul\":1989:1994   */\n  dup2\n    /* \"#utility.yul\":1985:2001   */\n  add\n    /* \"#utility.yul\":2034:2037   */\n  dup5\n    /* \"#utility.yul\":2025:2031   */\n  dup5\n    /* \"#utility.yul\":2020:2023   */\n  dup5\n    /* \"#utility.yul\":2016:2032   */\n  add\n    /* \"#utility.yul\":2013:2038   */\n  gt\n    /* \"#utility.yul\":2010:2122   */\n  iszero\n  tag_87\n  jumpi\n    /* \"#utility.yul\":2041:2120   */\n  tag_88\n  tag_30\n  jump\t// in\ntag_88:\n    /* \"#utility.yul\":2010:2122   */\ntag_87:\n    /* \"#utility.yul\":2131:2183   */\n  tag_89\n    /* \"#utility.yul\":2176:2182   */\n  dup5\n    /* \"#utility.yul\":2171:2174   */\n  dup3\n    /* \"#utility.yul\":2166:2169   */\n  dup6\n    /* \"#utility.yul\":2131:2183   */\n  tag_36\n  jump\t// in\ntag_89:\n    /* \"#utility.yul\":1850:2189   */\n  pop\n    /* \"#utility.yul\":1755:2189   */\n  swap4\n  swap3\n  pop\n  pop\n  pop\n  jump\t// out\n    /* \"#utility.yul\":2209:2564   */\ntag_38:\n    /* \"#utility.yul\":2276:2281   */\n  0x00\n    /* \"#utility.yul\":2325:2328   */\n  dup3\n    /* \"#utility.yul\":2318:2322   */\n  0x1f\n    /* \"#utility.yul\":2310:2316   */\n  dup4\n    /* \"#utility.yul\":2306:2323   */\n  add\n    /* \"#utility.yul\":2302:2329   */\n  slt\n    /* \"#utility.yul\":2292:2414   */\n  tag_91\n  jumpi\n    /* \"#utility.yul\":2333:2412   */\n  tag_92\n  tag_29\n  jump\t// in\ntag_92:\n    /* \"#utility.yul\":2292:2414   */\ntag_91:\n    /* \"#utility.yul\":2443:2449   */\n  dup2\n    /* \"#utility.yul\":2437:2450   */\n  mload\n    /* \"#utility.yul\":2468:2558   */\n  tag_93\n    /* \"#utility.yul\":2554:2557   */\n  dup5\n    /* \"#utility.yul\":2546:2552   */\n  dup3\n    /* \"#utility.yul\":2539:2543   */\n  0x20\n    /* \"#utility.yul\":2531:2537   */\n  dup7\n    /* \"#utility.yul\":2527:2544   */\n  add\n    /* \"#utility.yul\":2468:2558   */\n  tag_37\n  jump\t// in\ntag_93:\n    /* \"#utility.yul\":2459:2558   */\n  swap2\n  pop\n    /* \"#utility.yul\":2282:2564   */\n  pop\n    /* \"#utility.yul\":2209:2564   */\n  swap3\n  swap2\n  pop\n  pop\n  jump\t// out\n    /* \"#utility.yul\":2570:3423   */\ntag_3:\n    /* \"#utility.yul\":2669:2675   */\n  0x00\n    /* \"#utility.yul\":2677:2683   */\n  dup1\n    /* \"#utility.yul\":2726:2728   */\n  0x40\n    /* \"#utility.yul\":2714:2723   */\n  dup4\n    /* \"#utility.yul\":2705:2712   */\n  dup6\n    /* \"#utility.yul\":2701:2724   */\n  sub\n    /* \"#utility.yul\":2697:2729   */\n  slt\n    /* \"#utility.yul\":2694:2813   */\n  iszero\n  tag_95\n  jumpi\n    /* \"#utility.yul\":2732:2811   */\n  tag_96\n  tag_27\n  jump\t// in\ntag_96:\n    /* \"#utility.yul\":2694:2813   */\ntag_95:\n    /* \"#utility.yul\":2873:2874   */\n  0x00\n    /* \"#utility.yul\":2862:2871   */\n  dup4\n    /* \"#utility.yul\":2858:2875   */\n  add\n    /* \"#utility.yul\":2852:2876   */\n  mload\n    /* \"#utility.yul\":2903:2921   */\n  0xffffffffffffffff\n    /* \"#utility.yul\":2895:2901   */\n  dup2\n    /* \"#utility.yul\":2892:2922   */\n  gt\n    /* \"#utility.yul\":2889:3006   */\n  iszero\n  tag_97\n  jumpi\n    /* \"#utility.yul\":2925:3004   */\n  tag_98\n  tag_28\n  jump\t// in\ntag_98:\n    /* \"#utility.yul\":2889:3006   */\ntag_97:\n    /* \"#utility.yul\":3030:3104   */\n  tag_99\n    /* \"#utility.yul\":3096:3103   */\n  dup6\n    /* \"#utility.yul\":3087:3093   */\n  dup3\n    /* \"#utility.yul\":3076:3085   */\n  dup7\n    /* \"#utility.yul\":3072:3094   */\n  add\n    /* \"#utility.yul\":3030:3104   */\n  tag_38\n  jump\t// in\ntag_99:\n    /* \"#utility.yul\":3020:3104   */\n  swap3\n  pop\n    /* \"#utility.yul\":2823:3114   */\n  pop\n    /* \"#utility.yul\":3174:3176   */\n  0x20\n    /* \"#utility.yul\":3163:3172   */\n  dup4\n    /* \"#utility.yul\":3159:3177   */\n  add\n    /* \"#utility.yul\":3153:3178   */\n  mload\n    /* \"#utility.yul\":3205:3223   */\n  0xffffffffffffffff\n    /* \"#utility.yul\":3197:3203   */\n  dup2\n    /* \"#utility.yul\":3194:3224   */\n  gt\n    /* \"#utility.yul\":3191:3308   */\n  iszero\n  tag_100\n  jumpi\n    /* \"#utility.yul\":3227:3306   */\n  tag_101\n  tag_28\n  jump\t// in\ntag_101:\n    /* \"#utility.yul\":3191:3308   */\ntag_100:\n    /* \"#utility.yul\":3332:3406   */\n  tag_102\n    /* \"#utility.yul\":3398:3405   */\n  dup6\n    /* \"#utility.yul\":3389:3395   */\n  dup3\n    /* \"#utility.yul\":3378:3387   */\n  dup7\n    /* \"#utility.yul\":3374:3396   */\n  add\n    /* \"#utility.yul\":3332:3406   */\n  tag_38\n  jump\t// in\ntag_102:\n    /* \"#utility.yul\":3322:3406   */\n  swap2\n  pop\n    /* \"#utility.yul\":3124:3416   */\n  pop\n    /* \"#utility.yul\":2570:3423   */\n  swap3\n  pop\n  swap3\n  swap1\n  pop\n  jump\t// out\n    /* \"#utility.yul\":3429:3528   */\ntag_39:\n    /* \"#utility.yul\":3481:3487   */\n  0x00\n    /* \"#utility.yul\":3515:3520   */\n  dup2\n    /* \"#utility.yul\":3509:3521   */\n  mload\n    /* \"#utility.yul\":3499:3521   */\n  swap1\n  pop\n    /* \"#utility.yul\":3429:3528   */\n  swap2\n  swap1\n  pop\n  jump\t// out\n    /* \"#utility.yul\":3534:3714   */\ntag_40:\n    /* \"#utility.yul\":3582:3659   */\n  0x4e487b7100000000000000000000000000000000000000000000000000000000\n    /* \"#utility.yul\":3579:3580   */\n  0x00\n    /* \"#utility.yul\":3572:3660   */\n  mstore\n    /* \"#utility.yul\":3679:3683   */\n  0x22\n    /* \"#utility.yul\":3676:3677   */\n  0x04\n    /* \"#utility.yul\":3669:3684   */\n  mstore\n    /* \"#utility.yul\":3703:3707   */\n  0x24\n    /* \"#utility.yul\":3700:3701   */\n  0x00\n    /* \"#utility.yul\":3693:3708   */\n  revert\n    /* \"#utility.yul\":3720:4040   */\ntag_41:\n    /* \"#utility.yul\":3764:3770   */\n  0x00\n    /* \"#utility.yul\":3801:3802   */\n  0x02\n    /* \"#utility.yul\":3795:3799   */\n  dup3\n    /* \"#utility.yul\":3791:3803   */\n  div\n    /* \"#utility.yul\":3781:3803   */\n  swap1\n  pop\n    /* \"#utility.yul\":3848:3849   */\n  0x01\n    /* \"#utility.yul\":3842:3846   */\n  dup3\n    /* \"#utility.yul\":3838:3850   */\n  and\n    /* \"#utility.yul\":3869:3887   */\n  dup1\n    /* \"#utility.yul\":3859:3940   */\n  tag_106\n  jumpi\n    /* \"#utility.yul\":3925:3929   */\n  0x7f\n    /* \"#utility.yul\":3917:3923   */\n  dup3\n    /* \"#utility.yul\":3913:3930   */\n  and\n    /* \"#utility.yul\":3903:3930   */\n  swap2\n  pop\n    /* \"#utility.yul\":3859:3940   */\ntag_106:\n    /* \"#utility.yul\":3987:3989   */\n  0x20\n    /* \"#utility.yul\":3979:3985   */\n  dup3\n    /* \"#utility.yul\":3976:3990   */\n  lt\n    /* \"#utility.yul\":3956:3974   */\n  dup2\n    /* \"#utility.yul\":3953:3991   */\n  sub\n    /* \"#utility.yul\":3950:4034   */\n  tag_107\n  jumpi\n    /* \"#utility.yul\":4006:4024   */\n  tag_108\n  tag_40\n  jump\t// in\ntag_108:\n    /* \"#utility.yul\":3950:4034   */\ntag_107:\n    /* \"#utility.yul\":3771:4040   */\n  pop\n    /* \"#utility.yul\":3720:4040   */\n  swap2\n  swap1\n  pop\n  jump\t// out\n    /* \"#utility.yul\":4046:4187   */\ntag_42:\n    /* \"#utility.yul\":4095:4099   */\n  0x00\n    /* \"#utility.yul\":4118:4121   */\n  dup2\n    /* \"#utility.yul\":4110:4121   */\n  swap1\n  pop\n    /* \"#utility.yul\":4141:4144   */\n  dup2\n    /* \"#utility.yul\":4138:4139   */\n  0x00\n    /* \"#utility.yul\":4131:4145   */\n  mstore\n    /* \"#utility.yul\":4175:4179   */\n  0x20\n    /* \"#utility.yul\":4172:4173   */\n  0x00\n    /* \"#utility.yul\":4162:4180   */\n  keccak256\n    /* \"#utility.yul\":4154:4180   */\n  swap1\n  pop\n    /* \"#utility.yul\":4046:4187   */\n  swap2\n  swap1\n  pop\n  jump\t// out\n    /* \"#utility.yul\":4193:4286   */\ntag_43:\n    /* \"#utility.yul\":4230:4236   */\n  0x00\n    /* \"#utility.yul\":4277:4279   */\n  0x20\n    /* \"#utility.yul\":4272:4274   */\n  0x1f\n    /* \"#utility.yul\":4265:4270   */\n  dup4\n    /* \"#utility.yul\":4261:4275   */\n  add\n    /* \"#utility.yul\":4257:4280   */\n  div\n    /* \"#utility.yul\":4247:4280   */\n  swap1\n  pop\n    /* \"#utility.yul\":4193:4286   */\n  swap2\n  swap1\n  pop\n  jump\t// out\n    /* \"#utility.yul\":4292:4399   */\ntag_44:\n    /* \"#utility.yul\":4336:4344   */\n  0x00\n    /* \"#utility.yul\":4386:4391   */\n  dup3\n    /* \"#utility.yul\":4380:4384   */\n  dup3\n    /* \"#utility.yul\":4376:4392   */\n  shl\n    /* \"#utility.yul\":4355:4392   */\n  swap1\n  pop\n    /* \"#utility.yul\":4292:4399   */\n  swap3\n  swap2\n  pop\n  pop\n  jump\t// out\n    /* \"#utility.yul\":4405:4798   */\ntag_45:\n    /* \"#utility.yul\":4474:4480   */\n  0x00\n    /* \"#utility.yul\":4524:4525   */\n  0x08\n    /* \"#utility.yul\":4512:4522   */\n  dup4\n    /* \"#utility.yul\":4508:4526   */\n  mul\n    /* \"#utility.yul\":4547:4644   */\n  tag_113\n    /* \"#utility.yul\":4577:4643   */\n  0xffffffffffffffffffffffffffffffffffffffffffffffffffffffffffffffff\n    /* \"#utility.yul\":4566:4575   */\n  dup3\n    /* \"#utility.yul\":4547:4644   */\n  tag_44\n  jump\t// in\ntag_113:\n    /* \"#utility.yul\":4665:4704   */\n  tag_114\n    /* \"#utility.yul\":4695:4703   */\n  dup7\n    /* \"#utility.yul\":4684:4693   */\n  dup4\n    /* \"#utility.yul\":4665:4704   */\n  tag_44\n  jump\t// in\ntag_114:\n    /* \"#utility.yul\":4653:4704   */\n  swap6\n  pop\n    /* \"#utility.yul\":4737:4741   */\n  dup1\n    /* \"#utility.yul\":4733:4742   */\n  not\n    /* \"#utility.yul\":4726:4731   */\n  dup5\n    /* \"#utility.yul\":4722:4743   */\n  and\n    /* \"#utility.yul\":4713:4743   */\n  swap4\n  pop\n    /* \"#utility.yul\":4786:4790   */\n  dup1\n    /* \"#utility.yul\":4776:4784   */\n  dup7\n    /* \"#utility.yul\":4772:4791   */\n  and\n    /* \"#utility.yul\":4765:4770   */\n  dup5\n    /* \"#utility.yul\":4762:4792   */\n  or\n    /* \"#utility.yul\":4752:4792   */\n  swap3\n  pop\n    /* \"#utility.yul\":4481:4798   */\n  pop\n  pop\n    /* \"#utility.yul\":4405:4798   */\n  swap4\n  swap3\n  pop\n  pop\n  pop\n  jump\t// out\n    /* \"#utility.yul\":4804:4881   */\ntag_46:\n    /* \"#utility.yul\":4841:4848   */\n  0x00\n    /* \"#utility.yul\":4870:4875   */\n  dup2\n    /* \"#utility.yul\":4859:4875   */\n  swap1\n  pop\n    /* \"#utility.yul\":4804:4881   */\n  swap2\n  swap1\n  pop\n  jump\t// out\n    /* \"#utility.yul\":4887:4947   */\ntag_47:\n    /* \"#utility.yul\":4915:4918   */\n  0x00\n    /* \"#utility.yul\":4936:4941   */\n  dup2\n    /* \"#utility.yul\":4929:4941   */\n  swap1\n  pop\n    /* \"#utility.yul\":4887:4947   */\n  swap2\n  swap1\n  pop\n  jump\t// out\n    /* \"#utility.yul\":4953:5095   */\ntag_48:\n    /* \"#utility.yul\":5003:5012   */\n  0x00\n    /* \"#utility.yul\":5036:5089   */\n  tag_118\n    /* \"#utility.yul\":5054:5088   */\n  tag_119\n    /* \"#utility.yul\":5063:5087   */\n  tag_120\n    /* \"#utility.yul\":5081:5086   */\n  dup5\n    /* \"#utility.yul\":5063:5087   */\n  tag_46\n  jump\t// in\ntag_120:\n    /* \"#utility.yul\":5054:5088   */\n  tag_47\n  jump\t// in\ntag_119:\n    /* \"#utility.yul\":5036:5089   */\n  tag_46\n  jump\t// in\ntag_118:\n    /* \"#utility.yul\":5023:5089   */\n  swap1\n  pop\n    /* \"#utility.yul\":4953:5095   */\n  swap2\n  swap1\n  pop\n  jump\t// out\n    /* \"#utility.yul\":5101:5176   */\ntag_49:\n    /* \"#utility.yul\":5144:5147   */\n  0x00\n    /* \"#utility.yul\":5165:5170   */\n  dup2\n    /* \"#utility.yul\":5158:5170   */\n  swap1\n  pop\n    /* \"#utility.yul\":5101:5176   */\n  swap2\n  swap1\n  pop\n  jump\t// out\n    /* \"#utility.yul\":5182:5451   */\ntag_50:\n    /* \"#utility.yul\":5292:5331   */\n  tag_123\n    /* \"#utility.yul\":5323:5330   */\n  dup4\n    /* \"#utility.yul\":5292:5331   */\n  tag_48\n  jump\t// in\ntag_123:\n    /* \"#utility.yul\":5353:5444   */\n  tag_124\n    /* \"#utility.yul\":5402:5443   */\n  tag_125\n    /* \"#utility.yul\":5426:5442   */\n  dup3\n    /* \"#utility.yul\":5402:5443   */\n  tag_49\n  jump\t// in\ntag_125:\n    /* \"#utility.yul\":5394:5400   */\n  dup5\n    /* \"#utility.yul\":5387:5391   */\n  dup5\n    /* \"#utility.yul\":5381:5392   */\n  sload\n    /* \"#utility.yul\":5353:5444   */\n  tag_45\n  jump\t// in\ntag_124:\n    /* \"#utility.yul\":5347:5351   */\n  dup3\n    /* \"#utility.yul\":5340:5445   */\n  sstore\n    /* \"#utility.yul\":5258:5451   */\n  pop\n    /* \"#utility.yul\":5182:5451   */\n  pop\n  pop\n  pop\n  jump\t// out\n    /* \"#utility.yul\":5457:5530   */\ntag_51:\n    /* \"#utility.yul\":5502:5505   */\n  0x00\n    /* \"#utility.yul\":5457:5530   */\n  swap1\n  jump\t// out\n    /* \"#utility.yul\":5536:5725   */\ntag_52:\n    /* \"#utility.yul\":5613:5645   */\n  tag_128\n  tag_51\n  jump\t// in\ntag_128:\n    /* \"#utility.yul\":5654:5719   */\n  tag_129\n    /* \"#utility.yul\":5712:5718   */\n  dup2\n    /* \"#utility.yul\":5704:5710   */\n  dup5\n    /* \"#utility.yul\":5698:5702   */\n  dup5\n    /* \"#utility.yul\":5654:5719   */\n  tag_50\n  jump\t// in\ntag_129:\n    /* \"#utility.yul\":5589:5725   */\n  pop\n    /* \"#utility.yul\":5536:5725   */\n  pop\n  pop\n  jump\t// out\n    /* \"#utility.yul\":5731:5917   */\ntag_53:\n    /* \"#utility.yul\":5791:5911   */\ntag_131:\n    /* \"#utility.yul\":5808:5811   */\n  dup2\n    /* \"#utility.yul\":5801:5806   */\n  dup2\n    /* \"#utility.yul\":5798:5812   */\n  lt\n    /* \"#utility.yul\":5791:5911   */\n  iszero\n  tag_133\n  jumpi\n    /* \"#utility.yul\":5862:5901   */\n  tag_134\n    /* \"#utility.yul\":5899:5900   */\n  0x00\n    /* \"#utility.yul\":5892:5897   */\n  dup3\n    /* \"#utility.yul\":5862:5901   */\n  tag_52\n  jump\t// in\ntag_134:\n    /* \"#utility.yul\":5835:5836   */\n  0x01\n    /* \"#utility.yul\":5828:5833   */\n  dup2\n    /* \"#utility.yul\":5824:5837   */\n  add\n    /* \"#utility.yul\":5815:5837   */\n  swap1\n  pop\n    /* \"#utility.yul\":5791:5911   */\n  jump(tag_131)\ntag_133:\n    /* \"#utility.yul\":5731:5917   */\n  pop\n  pop\n  jump\t// out\n    /* \"#utility.yul\":5923:6466   */\ntag_54:\n    /* \"#utility.yul\":6024:6026   */\n  0x1f\n    /* \"#utility.yul\":6019:6022   */\n  dup3\n    /* \"#utility.yul\":6016:6027   */\n  gt\n    /* \"#utility.yul\":6013:6459   */\n  iszero\n  tag_136\n  jumpi\n    /* \"#utility.yul\":6058:6096   */\n  tag_137\n    /* \"#utility.yul\":6090:6095   */\n  dup2\n    /* \"#utility.yul\":6058:6096   */\n  tag_42\n  jump\t// in\ntag_137:\n    /* \"#utility.yul\":6142:6171   */\n  tag_138\n    /* \"#utility.yul\":6160:6170   */\n  dup5\n    /* \"#utility.yul\":6142:6171   */\n  tag_43\n  jump\t// in\ntag_138:\n    /* \"#utility.yul\":6132:6140   */\n  dup2\n    /* \"#utility.yul\":6128:6172   */\n  add\n    /* \"#utility.yul\":6325:6327   */\n  0x20\n    /* \"#utility.yul\":6313:6323   */\n  dup6\n    /* \"#utility.yul\":6310:6328   */\n  lt\n    /* \"#utility.yul\":6307:6356   */\n  iszero\n  tag_139\n  jumpi\n    /* \"#utility.yul\":6346:6354   */\n  dup2\n    /* \"#utility.yul\":6331:6354   */\n  swap1\n  pop\n    /* \"#utility.yul\":6307:6356   */\ntag_139:\n    /* \"#utility.yul\":6369:6449   */\n  tag_140\n    /* \"#utility.yul\":6425:6447   */\n  tag_141\n    /* \"#utility.yul\":6443:6446   */\n  dup6\n    /* \"#utility.yul\":6425:6447   */\n  tag_43\n  jump\t// in\ntag_141:\n    /* \"#utility.yul\":6415:6423   */\n  dup4\n    /* \"#utility.yul\":6411:6448   */\n  add\n    /* \"#utility.yul\":6398:6409   */\n  dup3\n    /* \"#utility.yul\":6369:6449   */\n  tag_53\n  jump\t// in\ntag_140:\n    /* \"#utility.yul\":6028:6459   */\n  pop\n  pop\n    /* \"#utility.yul\":6013:6459   */\ntag_136:\n    /* \"#utility.yul\":5923:6466   */\n  pop\n  pop\n  pop\n  jump\t// out\n    /* \"#utility.yul\":6472:6589   */\ntag_55:\n    /* \"#utility.yul\":6526:6534   */\n  0x00\n    /* \"#utility.yul\":6576:6581   */\n  dup3\n    /* \"#utility.yul\":6570:6574   */\n  dup3\n    /* \"#utility.yul\":6566:6582   */\n  shr\n    /* \"#utility.yul\":6545:6582   */\n  swap1\n  pop\n    /* \"#utility.yul\":6472:6589   */\n  swap3\n  swap2\n  pop\n  pop\n  jump\t// out\n    /* \"#utility.yul\":6595:6764   */\ntag_56:\n    /* \"#utility.yul\":6639:6645   */\n  0x00\n    /* \"#utility.yul\":6672:6723   */\n  tag_144\n    /* \"#utility.yul\":6720:6721   */\n  0x00\n    /* \"#utility.yul\":6716:6722   */\n  not\n    /* \"#utility.yul\":6708:6713   */\n  dup5\n    /* \"#utility.yul\":6705:6706   */\n  0x08\n    /* \"#utility.yul\":6701:6714   */\n  mul\n    /* \"#utility.yul\":6672:6723   */\n  tag_55\n  jump\t// in\ntag_144:\n    /* \"#utility.yul\":6668:6724   */\n  not\n    /* \"#utility.yul\":6753:6757   */\n  dup1\n    /* \"#utility.yul\":6747:6751   */\n  dup4\n    /* \"#utility.yul\":6743:6758   */\n  and\n    /* \"#utility.yul\":6733:6758   */\n  swap2\n  pop\n    /* \"#utility.yul\":6646:6764   */\n  pop\n    /* \"#utility.yul\":6595:6764   */\n  swap3\n  swap2\n  pop\n  pop\n  jump\t// out\n    /* \"#utility.yul\":6769:7064   */\ntag_57:\n    /* \"#utility.yul\":6845:6849   */\n  0x00\n    /* \"#utility.yul\":6991:7020   */\n  tag_146\n    /* \"#utility.yul\":7016:7019   */\n  dup4\n    /* \"#utility.yul\":7010:7014   */\n  dup4\n    /* \"#utility.yul\":6991:7020   */\n  tag_56\n  jump\t// in\ntag_146:\n    /* \"#utility.yul\":6983:7020   */\n  swap2\n  pop\n    /* \"#utility.yul\":7053:7056   */\n  dup3\n    /* \"#utility.yul\":7050:7051   */\n  0x02\n    /* \"#utility.yul\":7046:7057   */\n  mul\n    /* \"#utility.yul\":7040:7044   */\n  dup3\n    /* \"#utility.yul\":7037:7058   */\n  or\n    /* \"#utility.yul\":7029:7058   */\n  swap1\n  pop\n    /* \"#utility.yul\":6769:7064   */\n  swap3\n  swap2\n  pop\n  pop\n  jump\t// out\n    /* \"#utility.yul\":7069:8464   */\ntag_7:\n    /* \"#utility.yul\":7186:7223   */\n  tag_148\n    /* \"#utility.yul\":7219:7222   */\n  dup3\n    /* \"#utility.yul\":7186:7223   */\n  tag_39\n  jump\t// in\ntag_148:\n    /* \"#utility.yul\":7288:7306   */\n  0xffffffffffffffff\n    /* \"#utility.yul\":7280:7286   */\n  dup2\n    /* \"#utility.yul\":7277:7307   */\n  gt\n    /* \"#utility.yul\":7274:7330   */\n  iszero\n  tag_149\n  jumpi\n    /* \"#utility.yul\":7310:7328   */\n  tag_150\n  tag_32\n  jump\t// in\ntag_150:\n    /* \"#utility.yul\":7274:7330   */\ntag_149:\n    /* \"#utility.yul\":7354:7392   */\n  tag_151\n    /* \"#utility.yul\":7386:7390   */\n  dup3\n    /* \"#utility.yul\":7380:7391   */\n  sload\n    /* \"#utility.yul\":7354:7392   */\n  tag_41\n  jump\t// in\ntag_151:\n    /* \"#utility.yul\":7439:7506   */\n  tag_152\n    /* \"#utility.yul\":7499:7505   */\n  dup3\n    /* \"#utility.yul\":7491:7497   */\n  dup3\n    /* \"#utility.yul\":7485:7489   */\n  dup6\n    /* \"#utility.yul\":7439:7506   */\n  tag_54\n  jump\t// in\ntag_152:\n    /* \"#utility.yul\":7533:7534   */\n  0x00\n    /* \"#utility.yul\":7557:7561   */\n  0x20\n    /* \"#utility.yul\":7544:7561   */\n  swap1\n  pop\n    /* \"#utility.yul\":7589:7591   */\n  0x1f\n    /* \"#utility.yul\":7581:7587   */\n  dup4\n    /* \"#utility.yul\":7578:7592   */\n  gt\n    /* \"#utility.yul\":7606:7607   */\n  0x01\n    /* \"#utility.yul\":7601:8219   */\n  dup2\n  eq\n  tag_154\n  jumpi\n    /* \"#utility.yul\":8263:8264   */\n  0x00\n    /* \"#utility.yul\":8280:8286   */\n  dup5\n    /* \"#utility.yul\":8277:8354   */\n  iszero\n  tag_155\n  jumpi\n    /* \"#utility.yul\":8329:8338   */\n  dup3\n    /* \"#utility.yul\":8324:8327   */\n  dup8\n    /* \"#utility.yul\":8320:8339   */\n  add\n    /* \"#utility.yul\":8314:8340   */\n  mload\n    /* \"#utility.yul\":8305:8340   */\n  swap1\n  pop\n    /* \"#utility.yul\":8277:8354   */\ntag_155:\n    /* \"#utility.yul\":8380:8447   */\n  tag_156\n    /* \"#utility.yul\":8440:8446   */\n  dup6\n    /* \"#utility.yul\":8433:8438   */\n  dup3\n    /* \"#utility.yul\":8380:8447   */\n  tag_57\n  jump\t// in\ntag_156:\n    /* \"#utility.yul\":8374:8378   */\n  dup7\n    /* \"#utility.yul\":8367:8448   */\n  sstore\n    /* \"#utility.yul\":8236:8458   */\n  pop\n    /* \"#utility.yul\":7571:8458   */\n  jump(tag_153)\n    /* \"#utility.yul\":7601:8219   */\ntag_154:\n    /* \"#utility.yul\":7653:7657   */\n  0x1f\n    /* \"#utility.yul\":7649:7658   */\n  not\n    /* \"#utility.yul\":7641:7647   */\n  dup5\n    /* \"#utility.yul\":7637:7659   */\n  and\n    /* \"#utility.yul\":7687:7724   */\n  tag_157\n    /* \"#utility.yul\":7719:7723   */\n  dup7\n    /* \"#utility.yul\":7687:7724   */\n  tag_42\n  jump\t// in\ntag_157:\n    /* \"#utility.yul\":7746:7747   */\n  0x00\n    /* \"#utility.yul\":7760:7968   */\ntag_158:\n    /* \"#utility.yul\":7774:7781   */\n  dup3\n    /* \"#utility.yul\":7771:7772   */\n  dup2\n    /* \"#utility.yul\":7768:7782   */\n  lt\n    /* \"#utility.yul\":7760:7968   */\n  iszero\n  tag_160\n  jumpi\n    /* \"#utility.yul\":7853:7862   */\n  dup5\n    /* \"#utility.yul\":7848:7851   */\n  dup10\n    /* \"#utility.yul\":7844:7863   */\n  add\n    /* \"#utility.yul\":7838:7864   */\n  mload\n    /* \"#utility.yul\":7830:7836   */\n  dup3\n    /* \"#utility.yul\":7823:7865   */\n  sstore\n    /* \"#utility.yul\":7904:7905   */\n  0x01\n    /* \"#utility.yul\":7896:7902   */\n  dup3\n    /* \"#utility.yul\":7892:7906   */\n  add\n    /* \"#utility.yul\":7882:7906   */\n  swap2\n  pop\n    /* \"#utility.yul\":7951:7953   */\n  0x20\n    /* \"#utility.yul\":7940:7949   */\n  dup6\n    /* \"#utility.yul\":7936:7954   */\n  add\n    /* \"#utility.yul\":7923:7954   */\n  swap5\n  pop\n    /* \"#utility.yul\":7797:7801   */\n  0x20\n    /* \"#utility.yul\":7794:7795   */\n  dup2\n    /* \"#utility.yul\":7790:7802   */\n  add\n    /* \"#utility.yul\":7785:7802   */\n  swap1\n  pop\n    /* \"#utility.yul\":7760:7968   */\n  jump(tag_158)\ntag_160:\n    /* \"#utility.yul\":7996:8002   */\n  dup7\n    /* \"#utility.yul\":7987:7994   */\n  dup4\n    /* \"#utility.yul\":7984:8003   */\n  lt\n    /* \"#utility.yul\":7981:8160   */\n  iszero\n  tag_161\n  jumpi\n    /* \"#utility.yul\":8054:8063   */\n  dup5\n    /* \"#utility.yul\":8049:8052   */\n  dup10\n    /* \"#utility.yul\":8045:8064   */\n  add\n    /* \"#utility.yul\":8039:8065   */\n  mload\n    /* \"#utility.yul\":8097:8145   */\n  tag_162\n    /* \"#utility.yul\":8139:8143   */\n  0x1f\n    /* \"#utility.yul\":8131:8137   */\n  dup10\n    /* \"#utility.yul\":8127:8144   */\n  and\n    /* \"#utility.yul\":8116:8125   */\n  dup3\n    /* \"#utility.yul\":8097:8145   */\n  tag_56\n  jump\t// in\ntag_162:\n    /* \"#utility.yul\":8089:8095   */\n  dup4\n    /* \"#utility.yul\":8082:8146   */\n  sstore\n    /* \"#utility.yul\":8004:8160   */\n  pop\n    /* \"#utility.yul\":7981:8160   */\ntag_161:\n    /* \"#utility.yul\":8206:8207   */\n  0x01\n    /* \"#utility.yul\":8202:8203   */\n  0x02\n    /* \"#utility.yul\":8194:8200   */\n  dup9\n    /* \"#utility.yul\":8190:8204   */\n  mul\n    /* \"#utility.yul\":8186:8208   */\n  add\n    /* \"#utility.yul\":8180:8184   */\n  dup9\n    /* \"#utility.yul\":8173:8209   */\n  sstore\n    /* \"#utility.yul\":7608:8219   */\n  pop\n  pop\n  pop\n    /* \"#utility.yul\":7571:8458   */\ntag_153:\n  pop\n    /* \"#utility.yul\":7161:8464   */\n  pop\n  pop\n  pop\n    /* \"#utility.yul\":7069:8464   */\n  pop\n  pop\n  jump\t// out\n    /* \"#utility.yul\":8470:8650   */\ntag_58:\n    /* \"#utility.yul\":8518:8595   */\n  0x4e487b7100000000000000000000000000000000000000000000000000000000\n    /* \"#utility.yul\":8515:8516   */\n  0x00\n    /* \"#utility.yul\":8508:8596   */\n  mstore\n    /* \"#utility.yul\":8615:8619   */\n  0x11\n    /* \"#utility.yul\":8612:8613   */\n  0x04\n    /* \"#utility.yul\":8605:8620   */\n  mstore\n    /* \"#utility.yul\":8639:8643   */\n  0x24\n    /* \"#utility.yul\":8636:8637   */\n  0x00\n    /* \"#utility.yul\":8629:8644   */\n  revert\n    /* \"#utility.yul\":8656:8889   */\ntag_15:\n    /* \"#utility.yul\":8695:8698   */\n  0x00\n    /* \"#utility.yul\":8718:8742   */\n  tag_165\n    /* \"#utility.yul\":8736:8741   */\n  dup3\n    /* \"#utility.yul\":8718:8742   */\n  tag_46\n  jump\t// in\ntag_165:\n    /* \"#utility.yul\":8709:8742   */\n  swap2\n  pop\n    /* \"#utility.yul\":8764:8830   */\n  0xffffffffffffffffffffffffffffffffffffffffffffffffffffffffffffffff\n    /* \"#utility.yul\":8757:8762   */\n  dup3\n    /* \"#utility.yul\":8754:8831   */\n  sub\n    /* \"#utility.yul\":8751:8854   */\n  tag_166\n  jumpi\n    /* \"#utility.yul\":8834:8852   */\n  tag_167\n  tag_58\n  jump\t// in\ntag_167:\n    /* \"#utility.yul\":8751:8854   */\ntag_166:\n    /* \"#utility.yul\":8881:8882   */\n  0x01\n    /* \"#utility.yul\":8874:8879   */\n  dup3\n    /* \"#utility.yul\":8870:8883   */\n  add\n    /* \"#utility.yul\":8863:8883   */\n  swap1\n  pop\n    /* \"#utility.yul\":8656:8889   */\n  swap2\n  swap1\n  pop\n  jump\t// out\n    /* \"#utility.yul\":8895:9064   */\ntag_59:\n    /* \"#utility.yul\":8979:8990   */\n  0x00\n    /* \"#utility.yul\":9013:9019   */\n  dup3\n    /* \"#utility.yul\":9008:9011   */\n  dup3\n    /* \"#utility.yul\":9001:9020   */\n  mstore\n    /* \"#utility.yul\":9053:9057   */\n  0x20\n    /* \"#utility.yul\":9048:9051   */\n  dup3\n    /* \"#utility.yul\":9044:9058   */\n  add\n    /* \"#utility.yul\":9029:9058   */\n  swap1\n  pop\n    /* \"#utility.yul\":8895:9064   */\n  swap3\n  swap2\n  pop\n  pop\n  jump\t// out\n    /* \"#utility.yul\":9070:9240   */\ntag_60:\n    /* \"#utility.yul\":9210:9232   */\n  0x6d696e7420746f207a65726f2061646472657373000000000000000000000000\n    /* \"#utility.yul\":9206:9207   */\n  0x00\n    /* \"#utility.yul\":9198:9204   */\n  dup3\n    /* \"#utility.yul\":9194:9208   */\n  add\n    /* \"#utility.yul\":9187:9233   */\n  mstore\n    /* \"#utility.yul\":9070:9240   */\n  pop\n  jump\t// out\n    /* \"#utility.yul\":9246:9612   */\ntag_61:\n    /* \"#utility.yul\":9388:9391   */\n  0x00\n    /* \"#utility.yul\":9409:9476   */\n  tag_171\n    /* \"#utility.yul\":9473:9475   */\n  0x14\n    /* \"#utility.yul\":9468:9471   */\n  dup4\n    /* \"#utility.yul\":9409:9476   */\n  tag_59\n  jump\t// in\ntag_171:\n    /* \"#utility.yul\":9402:9476   */\n  swap2\n  pop\n    /* \"#utility.yul\":9485:9578   */\n  tag_172\n    /* \"#utility.yul\":9574:9577   */\n  dup3\n    /* \"#utility.yul\":9485:9578   */\n  tag_60\n  jump\t// in\ntag_172:\n    /* \"#utility.yul\":9603:9605   */\n  0x20\n    /* \"#utility.yul\":9598:9601   */\n  dup3\n    /* \"#utility.yul\":9594:9606   */\n  add\n    /* \"#utility.yul\":9587:9606   */\n  swap1\n  pop\n    /* \"#utility.yul\":9246:9612   */\n  swap2\n  swap1\n  pop\n  jump\t// out\n    /* \"#utility.yul\":9618:10037   */\ntag_20:\n    /* \"#utility.yul\":9784:9788   */\n  0x00\n    /* \"#utility.yul\":9822:9824   */\n  0x20\n    /* \"#utility.yul\":9811:9820   */\n  dup3\n    /* \"#utility.yul\":9807:9825   */\n  add\n    /* \"#utility.yul\":9799:9825   */\n  swap1\n  pop\n    /* \"#utility.yul\":9871:9880   */\n  dup2\n    /* \"#utility.yul\":9865:9869   */\n  dup2\n    /* \"#utility.yul\":9861:9881   */\n  sub\n    /* \"#utility.yul\":9857:9858   */\n  0x00\n    /* \"#utility.yul\":9846:9855   */\n  dup4\n    /* \"#utility.yul\":9842:9859   */\n  add\n    /* \"#utility.yul\":9835:9882   */\n  mstore\n    /* \"#utility.yul\":9899:10030   */\n  tag_174\n    /* \"#utility.yul\":10025:10029   */\n  dup2\n    /* \"#utility.yul\":9899:10030   */\n  tag_61\n  jump\t// in\ntag_174:\n    /* \"#utility.yul\":9891:10030   */\n  swap1\n  pop\n    /* \"#utility.yul\":9618:10037   */\n  swap2\n  swap1\n  pop\n  jump\t// out\n    /* \"#utility.yul\":10043:10207   */\ntag_62:\n    /* \"#utility.yul\":10183:10199   */\n  0x616c7265616479206d696e746564000000000000000000000000000000000000\n    /* \"#utility.yul\":10179:10180   */\n  0x00\n    /* \"#utility.yul\":10171:10177   */\n  dup3\n    /* \"#utility.yul\":10167:10181   */\n  add\n    /* \"#utility.yul\":10160:10200   */\n  mstore\n    /* \"#utility.yul\":10043:10207   */\n  pop\n  jump\t// out\n    /* \"#utility.yul\":10213:10579   */\ntag_63:\n    /* \"#utility.yul\":10355:10358   */\n  0x00\n    /* \"#utility.yul\":10376:10443   */\n  tag_177\n    /* \"#utility.yul\":10440:10442   */\n  0x0e\n    /* \"#utility.yul\":10435:10438   */\n  dup4\n    /* \"#utility.yul\":10376:10443   */\n  tag_59\n  jump\t// in\ntag_177:\n    /* \"#utility.yul\":10369:10443   */\n  swap2\n  pop\n    /* \"#utility.yul\":10452:10545   */\n  tag_178\n    /* \"#utility.yul\":10541:10544   */\n  dup3\n    /* \"#utility.yul\":10452:10545   */\n  tag_62\n  jump\t// in\ntag_178:\n    /* \"#utility.yul\":10570:10572   */\n  0x20\n    /* \"#utility.yul\":10565:10568   */\n  dup3\n    /* \"#utility.yul\":10561:10573   */\n  add\n    /* \"#utility.yul\":10554:10573   */\n  swap1\n  pop\n    /* \"#utility.yul\":10213:10579   */\n  swap2\n  swap1\n  pop\n  jump\t// out\n    /* \"#utility.yul\":10585:11004   */\ntag_23:\n    /* \"#utility.yul\":10751:10755   */\n  0x00\n    /* \"#utility.yul\":10789:10791   */\n  0x20\n    /* \"#utility.yul\":10778:10787   */\n  dup3\n    /* \"#utility.yul\":10774:10792   */\n  add\n    /* \"#utility.yul\":10766:10792   */\n  swap1\n  pop\n    /* \"#utility.yul\":10838:10847   */\n  dup2\n    /* \"#utility.yul\":10832:10836   */\n  dup2\n    /* \"#utility.yul\":10828:10848   */\n  sub\n    /* \"#utility.yul\":10824:10825   */\n  0x00\n    /* \"#utility.yul\":10813:10822   */\n  dup4\n    /* \"#utility.yul\":10809:10826   */\n  add\n    /* \"#utility.yul\":10802:10849   */\n  mstore\n    /* \"#utility.yul\":10866:10997   */\n  tag_180\n    /* \"#utility.yul\":10992:10996   */\n  dup2\n    /* \"#utility.yul\":10866:10997   */\n  tag_63\n  jump\t// in\ntag_180:\n    /* \"#utility.yul\":10858:10997   */\n  swap1\n  pop\n    /* \"#utility.yul\":10585:11004   */\n  swap2\n  swap1\n  pop\n  jump\t// out\n    /* \"#utility.yul\":11010:11201   */\ntag_25:\n    /* \"#utility.yul\":11050:11053   */\n  0x00\n    /* \"#utility.yul\":11069:11089   */\n  tag_182\n    /* \"#utility.yul\":11087:11088   */\n  dup3\n    /* \"#utility.yul\":11069:11089   */\n  tag_46\n  jump\t// in\ntag_182:\n    /* \"#utility.yul\":11064:11089   */\n  swap2\n  pop\n    /* \"#utility.yul\":11103:11123   */\n  tag_183\n    /* \"#utility.yul\":11121:11122   */\n  dup4\n    /* \"#utility.yul\":11103:11123   */\n  tag_46\n  jump\t// in\ntag_183:\n    /* \"#utility.yul\":11098:11123   */\n  swap3\n  pop\n    /* \"#utility.yul\":11146:11147   */\n  dup3\n    /* \"#utility.yul\":11143:11144   */\n  dup3\n    /* \"#utility.yul\":11139:11148   */\n  add\n    /* \"#utility.yul\":11132:11148   */\n  swap1\n  pop\n    /* \"#utility.yul\":11167:11170   */\n  dup1\n    /* \"#utility.yul\":11164:11165   */\n  dup3\n    /* \"#utility.yul\":11161:11171   */\n  gt\n    /* \"#utility.yul\":11158:11194   */\n  iszero\n  tag_184\n  jumpi\n    /* \"#utility.yul\":11174:11192   */\n  tag_185\n  tag_58\n  jump\t// in\ntag_185:\n    /* \"#utility.yul\":11158:11194   */\ntag_184:\n    /* \"#utility.yul\":11010:11201   */\n  swap3\n  swap2\n  pop\n  pop\n  jump\t// out\n    /* \"Example/ERC721StdNFT.sol\":1985:8224  contract ERC721StdNFT is ERC721 {... */\ntag_16:\n  dataSize(sub_0)\n  dup1\n  dataOffset(sub_0)\n  0x00\n  codecopy\n  0x00\n  return\nstop\n\nsub_0: assembly {\n        /* \"Example/ERC721StdNFT.sol\":1985:8224  contract ERC721StdNFT is ERC721 {... */\n      mstore(0x40, 0x80)\n      jumpi(tag_1, lt(calldatasize, 0x04))\n      shr(0xe0, calldataload(0x00))\n      dup1\n      0x4d853ee5\n      gt\n      tag_17\n      jumpi\n      dup1\n      0xa22cb465\n      gt\n      tag_18\n      jumpi\n      dup1\n      0xa22cb465\n      eq\n      tag_13\n      jumpi\n      dup1\n      0xb88d4fde\n      eq\n      tag_14\n      jumpi\n      dup1\n      0xe985e9c5\n      eq\n      tag_15\n      jumpi\n      dup1\n      0xedc3bc3f\n      eq\n      tag_16\n      jumpi\n      jump(tag_1)\n    tag_18:\n      dup1\n      0x4d853ee5\n      eq\n      tag_9\n      jumpi\n      dup1\n      0x6352211e\n      eq\n      tag_10\n      jumpi\n      dup1\n      0x70a08231\n      eq\n      tag_11\n      jumpi\n      dup1\n      0x95d89b41\n      eq\n      tag_12\n      jumpi\n      jump(tag_1)\n    tag_17:\n      dup1\n      0x095ea7b3\n      gt\n      tag_19\n      jumpi\n      dup1\n      0x095ea7b3\n      eq\n      tag_5\n      jumpi\n      dup1\n      0x23b872dd\n      eq\n      tag_6\n      jumpi\n      dup1\n      0x3c168eab\n      eq\n      tag_7\n      jumpi\n      dup1\n      0x42842e0e\n      eq\n      tag_8\n      jumpi\n      jump(tag_1)\n    tag_19:\n      dup1\n      0x01ffc9a7\n      eq\n      tag_2\n      jumpi\n      dup1\n      0x06fdde03\n      eq\n      tag_3\n      jumpi\n      dup1\n      0x081812fc\n      eq\n      tag_4\n      jumpi\n    tag_1:\n      0x00\n      dup1\n      revert\n        /* \"Example/ERC721StdNFT.sol\":7992:8222  function supportsInterface(bytes4 interfaceId) external pure override returns (bool) {... */\n    tag_2:\n      callvalue\n      dup1\n      iszero\n      tag_20\n      jumpi\n      0x00\n      dup1\n      revert\n    tag_20:\n      pop\n      tag_21\n      0x04\n      dup1\n      calldatasize\n      sub\n      dup2\n      add\n      swap1\n      tag_22\n      swap2\n      swap1\n      tag_23\n      jump\t// in\n    tag_22:\n      tag_24\n      jump\t// in\n    tag_21:\n      mload(0x40)\n      tag_25\n      swap2\n      swap1\n      tag_26\n      jump\t// in\n    tag_25:\n      mload(0x40)\n      dup1\n      swap2\n      sub\n      swap1\n      return\n        /* \"Example/ERC721StdNFT.sol\":2542:2560  string public name */\n    tag_3:\n      callvalue\n      dup1\n      iszero\n      tag_27\n      jumpi\n      0x00\n      dup1\n      revert\n    tag_27:\n      pop\n      tag_28\n      tag_29\n      jump\t// in\n    tag_28:\n      mload(0x40)\n      tag_30\n      swap2\n      swap1\n      tag_31\n      jump\t// in\n    tag_30:\n      mload(0x40)\n      dup1\n      swap2\n      sub\n      swap1\n      return\n        /* \"Example/ERC721StdNFT.sol\":4443:4704  function getApproved(uint256 _tokenId) external view override returns (address) {... */\n    tag_4:\n      callvalue\n      dup1\n      iszero\n      tag_32\n      jumpi\n      0x00\n      dup1\n      revert\n    tag_32:\n      pop\n      tag_33\n      0x04\n      dup1\n      calldatasize\n      sub\n      dup2\n      add\n      swap1\n      tag_34\n      swap2\n      swap1\n      tag_35\n      jump\t// in\n    tag_34:\n      tag_36\n      jump\t// in\n    tag_33:\n      mload(0x40)\n      tag_37\n      swap2\n      swap1\n      tag_38\n      jump\t// in\n    tag_37:\n      mload(0x40)\n      dup1\n      swap2\n      sub\n      swap1\n      return\n        /* \"Example/ERC721StdNFT.sol\":5020:5433  function approve(address _approved, uint256 _tokenId) external override {... */\n    tag_5:\n      callvalue\n      dup1\n      iszero\n      tag_39\n      jumpi\n      0x00\n      dup1\n      revert\n    tag_39:\n      pop\n      tag_40\n      0x04\n      dup1\n      calldatasize\n      sub\n      dup2\n      add\n      swap1\n      tag_41\n      swap2\n      swap1\n      tag_42\n      jump\t// in\n    tag_41:\n      tag_43\n      jump\t// in\n    tag_40:\n      stop\n        /* \"Example/ERC721StdNFT.sol\":5848:6019  function transferFrom(address from, address to, uint256 tokenId) external override payable {... */\n    tag_6:\n      tag_44\n      0x04\n      dup1\n      calldatasize\n      sub\n      dup2\n      add\n      swap1\n      tag_45\n      swap2\n      swap1\n      tag_46\n      jump\t// in\n    tag_45:\n      tag_47\n      jump\t// in\n    tag_44:\n      stop\n        /* \"Example/ERC721StdNFT.sol\":3584:3784  function mintNFT(address to, uint256 tokenId) public {... */\n    tag_7:\n      callvalue\n      dup1\n      iszero\n      tag_48\n      jumpi\n      0x00\n      dup1\n      revert\n    tag_48:\n      pop\n      tag_49\n      0x04\n      dup1\n      calldatasize\n      sub\n      dup2\n      add\n      swap1\n      tag_50\n      swap2\n      swap1\n      tag_42\n      jump\t// in\n    tag_50:\n      tag_51\n      jump\t// in\n    tag_49:\n      stop\n        /* \"Example/ERC721StdNFT.sol\":7518:7964  function safeTransferFrom(address _from, address _to, uint256 _tokenId) external override payable {... */\n    tag_8:\n      tag_52\n      0x04\n      dup1\n      calldatasize\n      sub\n      dup2\n      add\n      swap1\n      tag_53\n      swap2\n      swap1\n      tag_46\n      jump\t// in\n    tag_53:\n      tag_54\n      jump\t// in\n    tag_52:\n      stop\n        /* \"Example/ERC721StdNFT.sol\":2023:2045  address public founder */\n    tag_9:\n      callvalue\n      dup1\n      iszero\n      tag_55\n      jumpi\n      0x00\n      dup1\n      revert\n    tag_55:\n      pop\n      tag_56\n      tag_57\n      jump\t// in\n    tag_56:\n      mload(0x40)\n      tag_58\n      swap2\n      swap1\n      tag_38\n      jump\t// in\n    tag_58:\n      mload(0x40)\n      dup1\n      swap2\n      sub\n      swap1\n      return\n        /* \"Example/ERC721StdNFT.sol\":3814:4107  function ownerOf(uint256 _tokenId) external view override returns (address) {... */\n    tag_10:\n      callvalue\n      dup1\n      iszero\n      tag_59\n      jumpi\n      0x00\n      dup1\n      revert\n    tag_59:\n      pop\n      tag_60\n      0x04\n      dup1\n      calldatasize\n      sub\n      dup2\n      add\n      swap1\n      tag_61\n      swap2\n      swap1\n      tag_35\n      jump\t// in\n    tag_61:\n      tag_62\n      jump\t// in\n    tag_60:\n      mload(0x40)\n      tag_63\n      swap2\n      swap1\n      tag_38\n      jump\t// in\n    tag_63:\n      mload(0x40)\n      dup1\n      swap2\n      sub\n      swap1\n      return\n        /* \"Example/ERC721StdNFT.sol\":4134:4406  function balanceOf(address _owner) external view override returns (uint256) {... */\n    tag_11:\n      callvalue\n      dup1\n      iszero\n      tag_64\n      jumpi\n      0x00\n      dup1\n      revert\n    tag_64:\n      pop\n      tag_65\n      0x04\n      dup1\n      calldatasize\n      sub\n      dup2\n      add\n      swap1\n      tag_66\n      swap2\n      swap1\n      tag_67\n      jump\t// in\n    tag_66:\n      tag_68\n      jump\t// in\n    tag_65:\n      mload(0x40)\n      tag_69\n      swap2\n      swap1\n      tag_70\n      jump\t// in\n    tag_69:\n      mload(0x40)\n      dup1\n      swap2\n      sub\n      swap1\n      return\n        /* \"Example/ERC721StdNFT.sol\":2580:2600  string public symbol */\n    tag_12:\n      callvalue\n      dup1\n      iszero\n      tag_71\n      jumpi\n      0x00\n      dup1\n      revert\n    tag_71:\n      pop\n      tag_72\n      tag_73\n      jump\t// in\n    tag_72:\n      mload(0x40)\n      tag_74\n      swap2\n      swap1\n      tag_31\n      jump\t// in\n    tag_74:\n      mload(0x40)\n      dup1\n      swap2\n      sub\n      swap1\n      return\n        /* \"Example/ERC721StdNFT.sol\":5500:5775  function setApprovalForAll(address _operator, bool _approved) external override {... */\n    tag_13:\n      callvalue\n      dup1\n      iszero\n      tag_75\n      jumpi\n      0x00\n      dup1\n      revert\n    tag_75:\n      pop\n      tag_76\n      0x04\n      dup1\n      calldatasize\n      sub\n      dup2\n      add\n      swap1\n      tag_77\n      swap2\n      swap1\n      tag_78\n      jump\t// in\n    tag_77:\n      tag_79\n      jump\t// in\n    tag_76:\n      stop\n        /* \"Example/ERC721StdNFT.sol\":6962:7432  function safeTransferFrom(address _from, address _to, uint256 _tokenId, bytes calldata data) external override payable {... */\n    tag_14:\n      tag_80\n      0x04\n      dup1\n      calldatasize\n      sub\n      dup2\n      add\n      swap1\n      tag_81\n      swap2\n      swap1\n      tag_82\n      jump\t// in\n    tag_81:\n      tag_83\n      jump\t// in\n    tag_80:\n      stop\n        /* \"Example/ERC721StdNFT.sol\":4762:4956  function isApprovedForAll(address _owner, address _operator) external view override returns (bool) {... */\n    tag_15:\n      callvalue\n      dup1\n      iszero\n      tag_84\n      jumpi\n      0x00\n      dup1\n      revert\n    tag_84:\n      pop\n      tag_85\n      0x04\n      dup1\n      calldatasize\n      sub\n      dup2\n      add\n      swap1\n      tag_86\n      swap2\n      swap1\n      tag_87\n      jump\t// in\n    tag_86:\n      tag_88\n      jump\t// in\n    tag_85:\n      mload(0x40)\n      tag_89\n      swap2\n      swap1\n      tag_26\n      jump\t// in\n    tag_89:\n      mload(0x40)\n      dup1\n      swap2\n      sub\n      swap1\n      return\n        /* \"Example/ERC721StdNFT.sol\":2388:2458  mapping(address => mapping(address => bool)) public _operatorApprovals */\n    tag_16:\n      callvalue\n      dup1\n      iszero\n      tag_90\n      jumpi\n      0x00\n      dup1\n      revert\n    tag_90:\n      pop\n      tag_91\n      0x04\n      dup1\n      calldatasize\n      sub\n      dup2\n      add\n      swap1\n      tag_92\n      swap2\n      swap1\n      tag_87\n      jump\t// in\n    tag_92:\n      tag_93\n      jump\t// in\n    tag_91:\n      mload(0x40)\n      tag_94\n      swap2\n      swap1\n      tag_26\n      jump\t// in\n    tag_94:\n      mload(0x40)\n      dup1\n      swap2\n      sub\n      swap1\n      return\n        /* \"Example/ERC721StdNFT.sol\":7992:8222  function supportsInterface(bytes4 interfaceId) external pure override returns (bool) {... */\n    tag_24:\n        /* \"Example/ERC721StdNFT.sol\":8071:8075  bool */\n      0x00\n        /* \"Example/ERC721StdNFT.sol\":8109:8133  type(ERC721).interfaceId */\n      0x80ac58cd00000000000000000000000000000000000000000000000000000000\n        /* \"Example/ERC721StdNFT.sol\":8094:8133  interfaceId == type(ERC721).interfaceId */\n      not(0xffffffffffffffffffffffffffffffffffffffffffffffffffffffff)\n      and\n        /* \"Example/ERC721StdNFT.sol\":8094:8105  interfaceId */\n      dup3\n        /* \"Example/ERC721StdNFT.sol\":8094:8133  interfaceId == type(ERC721).interfaceId */\n      not(0xffffffffffffffffffffffffffffffffffffffffffffffffffffffff)\n      and\n      eq\n        /* \"Example/ERC721StdNFT.sol\":8094:8176  interfaceId == type(ERC721).interfaceId || interfaceId == type(ERC165).interfaceId */\n      dup1\n      tag_96\n      jumpi\n      pop\n        /* \"Example/ERC721StdNFT.sol\":8152:8176  type(ERC165).interfaceId */\n      0x01ffc9a700000000000000000000000000000000000000000000000000000000\n        /* \"Example/ERC721StdNFT.sol\":8137:8176  interfaceId == type(ERC165).interfaceId */\n      not(0xffffffffffffffffffffffffffffffffffffffffffffffffffffffff)\n      and\n        /* \"Example/ERC721StdNFT.sol\":8137:8148  interfaceId */\n      dup3\n        /* \"Example/ERC721StdNFT.sol\":8137:8176  interfaceId == type(ERC165).interfaceId */\n      not(0xffffffffffffffffffffffffffffffffffffffffffffffffffffffff)\n      and\n      eq\n        /* \"Example/ERC721StdNFT.sol\":8094:8176  interfaceId == type(ERC721).interfaceId || interfaceId == type(ERC165).interfaceId */\n    tag_96:\n        /* \"Example/ERC721StdNFT.sol\":8087:8176  return interfaceId == type(ERC721).interfaceId || interfaceId == type(ERC165).interfaceId */\n      swap1\n      pop\n        /* \"Example/ERC721StdNFT.sol\":7992:8222  function supportsInterface(bytes4 interfaceId) external pure override returns (bool) {... */\n      swap2\n      swap1\n      pop\n      jump\t// out\n        /* \"Example/ERC721StdNFT.sol\":2542:2560  string public name */\n    tag_29:\n      0x05\n      dup1\n      sload\n      tag_97\n      swap1\n      tag_98\n      jump\t// in\n    tag_97:\n      dup1\n      0x1f\n      add\n      0x20\n      dup1\n      swap2\n      div\n      mul\n      0x20\n      add\n      mload(0x40)\n      swap1\n      dup2\n      add\n      0x40\n      mstore\n      dup1\n      swap3\n      swap2\n      swap1\n      dup2\n      dup2\n      mstore\n      0x20\n      add\n      dup3\n      dup1\n      sload\n      tag_99\n      swap1\n      tag_98\n      jump\t// in\n    tag_99:\n      dup1\n      iszero\n      tag_100\n      jumpi\n      dup1\n      0x1f\n      lt\n      tag_101\n      jumpi\n      0x0100\n      dup1\n      dup4\n      sload\n      div\n      mul\n      dup4\n      mstore\n      swap2\n      0x20\n      add\n      swap2\n      jump(tag_100)\n    tag_101:\n      dup3\n      add\n      swap2\n      swap1\n      0x00\n      mstore\n      keccak256(0x00, 0x20)\n      swap1\n    tag_102:\n      dup2\n      sload\n      dup2\n      mstore\n      swap1\n      0x01\n      add\n      swap1\n      0x20\n      add\n      dup1\n      dup4\n      gt\n      tag_102\n      jumpi\n      dup3\n      swap1\n      sub\n      0x1f\n      and\n      dup3\n      add\n      swap2\n    tag_100:\n      pop\n      pop\n      pop\n      pop\n      pop\n      dup2\n      jump\t// out\n        /* \"Example/ERC721StdNFT.sol\":4443:4704  function getApproved(uint256 _tokenId) external view override returns (address) {... */\n    tag_36:\n        /* \"Example/ERC721StdNFT.sol\":4514:4521  address */\n      0x00\n        /* \"Example/ERC721StdNFT.sol\":4571:4572  0 */\n      dup1\n        /* \"Example/ERC721StdNFT.sol\":4541:4573  _ownerOf[_tokenId] != address(0) */\n      0xffffffffffffffffffffffffffffffffffffffff\n      and\n        /* \"Example/ERC721StdNFT.sol\":4541:4549  _ownerOf */\n      0x01\n        /* \"Example/ERC721StdNFT.sol\":4541:4559  _ownerOf[_tokenId] */\n      0x00\n        /* \"Example/ERC721StdNFT.sol\":4550:4558  _tokenId */\n      dup5\n        /* \"Example/ERC721StdNFT.sol\":4541:4559  _ownerOf[_tokenId] */\n      dup2\n      mstore\n      0x20\n      add\n      swap1\n      dup2\n      mstore\n      0x20\n      add\n      0x00\n      keccak256\n      0x00\n      swap1\n      sload\n      swap1\n      0x0100\n      exp\n      swap1\n      div\n      0xffffffffffffffffffffffffffffffffffffffff\n      and\n        /* \"Example/ERC721StdNFT.sol\":4541:4573  _ownerOf[_tokenId] != address(0) */\n      0xffffffffffffffffffffffffffffffffffffffff\n      and\n      sub\n        /* \"Example/ERC721StdNFT.sol\":4533:4597  require(_ownerOf[_tokenId] != address(0), \"token doesn't exist\") */\n      tag_104\n      jumpi\n      mload(0x40)\n      0x08c379a000000000000000000000000000000000000000000000000000000000\n      dup2\n      mstore\n      0x04\n      add\n      tag_105\n      swap1\n      tag_106\n      jump\t// in\n    tag_105:\n      mload(0x40)\n      dup1\n      swap2\n      sub\n      swap1\n      revert\n    tag_104:\n        /* \"Example/ERC721StdNFT.sol\":4650:4660  _approvals */\n      0x03\n        /* \"Example/ERC721StdNFT.sol\":4650:4670  _approvals[_tokenId] */\n      0x00\n        /* \"Example/ERC721StdNFT.sol\":4661:4669  _tokenId */\n      dup4\n        /* \"Example/ERC721StdNFT.sol\":4650:4670  _approvals[_tokenId] */\n      dup2\n      mstore\n      0x20\n      add\n      swap1\n      dup2\n      mstore\n      0x20\n      add\n      0x00\n      keccak256\n      0x00\n      swap1\n      sload\n      swap1\n      0x0100\n      exp\n      swap1\n      div\n      0xffffffffffffffffffffffffffffffffffffffff\n      and\n        /* \"Example/ERC721StdNFT.sol\":4643:4670  return _approvals[_tokenId] */\n      swap1\n      pop\n        /* \"Example/ERC721StdNFT.sol\":4443:4704  function getApproved(uint256 _tokenId) external view override returns (address) {... */\n      swap2\n      swap1\n      pop\n      jump\t// out\n        /* \"Example/ERC721StdNFT.sol\":5020:5433  function approve(address _approved, uint256 _tokenId) external override {... */\n    tag_43:\n        /* \"Example/ERC721StdNFT.sol\":5102:5115  address owner */\n      0x00\n        /* \"Example/ERC721StdNFT.sol\":5118:5126  _ownerOf */\n      0x01\n        /* \"Example/ERC721StdNFT.sol\":5118:5136  _ownerOf[_tokenId] */\n      0x00\n        /* \"Example/ERC721StdNFT.sol\":5127:5135  _tokenId */\n      dup4\n        /* \"Example/ERC721StdNFT.sol\":5118:5136  _ownerOf[_tokenId] */\n      dup2\n      mstore\n      0x20\n      add\n      swap1\n      dup2\n      mstore\n      0x20\n      add\n      0x00\n      keccak256\n      0x00\n      swap1\n      sload\n      swap1\n      0x0100\n      exp\n      swap1\n      div\n      0xffffffffffffffffffffffffffffffffffffffff\n      and\n        /* \"Example/ERC721StdNFT.sol\":5102:5136  address owner = _ownerOf[_tokenId] */\n      swap1\n      pop\n        /* \"Example/ERC721StdNFT.sol\":5195:5200  owner */\n      dup1\n        /* \"Example/ERC721StdNFT.sol\":5181:5200  msg.sender == owner */\n      0xffffffffffffffffffffffffffffffffffffffff\n      and\n        /* \"Example/ERC721StdNFT.sol\":5181:5191  msg.sender */\n      caller\n        /* \"Example/ERC721StdNFT.sol\":5181:5200  msg.sender == owner */\n      0xffffffffffffffffffffffffffffffffffffffff\n      and\n      eq\n        /* \"Example/ERC721StdNFT.sol\":5181:5241  msg.sender == owner || _operatorApprovals[owner][msg.sender] */\n      dup1\n      tag_108\n      jumpi\n      pop\n        /* \"Example/ERC721StdNFT.sol\":5204:5222  _operatorApprovals */\n      0x04\n        /* \"Example/ERC721StdNFT.sol\":5204:5229  _operatorApprovals[owner] */\n      0x00\n        /* \"Example/ERC721StdNFT.sol\":5223:5228  owner */\n      dup3\n        /* \"Example/ERC721StdNFT.sol\":5204:5229  _operatorApprovals[owner] */\n      0xffffffffffffffffffffffffffffffffffffffff\n      and\n      0xffffffffffffffffffffffffffffffffffffffff\n      and\n      dup2\n      mstore\n      0x20\n      add\n      swap1\n      dup2\n      mstore\n      0x20\n      add\n      0x00\n      keccak256\n        /* \"Example/ERC721StdNFT.sol\":5204:5241  _operatorApprovals[owner][msg.sender] */\n      0x00\n        /* \"Example/ERC721StdNFT.sol\":5230:5240  msg.sender */\n      caller\n        /* \"Example/ERC721StdNFT.sol\":5204:5241  _operatorApprovals[owner][msg.sender] */\n      0xffffffffffffffffffffffffffffffffffffffff\n      and\n      0xffffffffffffffffffffffffffffffffffffffff\n      and\n      dup2\n      mstore\n      0x20\n      add\n      swap1\n      dup2\n      mstore\n      0x20\n      add\n      0x00\n      keccak256\n      0x00\n      swap1\n      sload\n      swap1\n      0x0100\n      exp\n      swap1\n      div\n      0xff\n      and\n        /* \"Example/ERC721StdNFT.sol\":5181:5241  msg.sender == owner || _operatorApprovals[owner][msg.sender] */\n    tag_108:\n        /* \"Example/ERC721StdNFT.sol\":5173:5260  require(msg.sender == owner || _operatorApprovals[owner][msg.sender], \"not authorized\") */\n      tag_109\n      jumpi\n      mload(0x40)\n      0x08c379a000000000000000000000000000000000000000000000000000000000\n      dup2\n      mstore\n      0x04\n      add\n      tag_110\n      swap1\n      tag_111\n      jump\t// in\n    tag_110:\n      mload(0x40)\n      dup1\n      swap2\n      sub\n      swap1\n      revert\n    tag_109:\n        /* \"Example/ERC721StdNFT.sol\":5310:5319  _approved */\n      dup3\n        /* \"Example/ERC721StdNFT.sol\":5287:5297  _approvals */\n      0x03\n        /* \"Example/ERC721StdNFT.sol\":5287:5307  _approvals[_tokenId] */\n      0x00\n        /* \"Example/ERC721StdNFT.sol\":5298:5306  _tokenId */\n      dup5\n        /* \"Example/ERC721StdNFT.sol\":5287:5307  _approvals[_tokenId] */\n      dup2\n      mstore\n      0x20\n      add\n      swap1\n      dup2\n      mstore\n      0x20\n      add\n      0x00\n      keccak256\n      0x00\n        /* \"Example/ERC721StdNFT.sol\":5287:5319  _approvals[_tokenId] = _approved */\n      0x0100\n      exp\n      dup2\n      sload\n      dup2\n      0xffffffffffffffffffffffffffffffffffffffff\n      mul\n      not\n      and\n      swap1\n      dup4\n      0xffffffffffffffffffffffffffffffffffffffff\n      and\n      mul\n      or\n      swap1\n      sstore\n      pop\n        /* \"Example/ERC721StdNFT.sol\":5388:5396  _tokenId */\n      dup2\n        /* \"Example/ERC721StdNFT.sol\":5377:5386  _approved */\n      dup4\n        /* \"Example/ERC721StdNFT.sol\":5361:5397  Approval(owner, _approved, _tokenId) */\n      0xffffffffffffffffffffffffffffffffffffffff\n      and\n        /* \"Example/ERC721StdNFT.sol\":5370:5375  owner */\n      dup3\n        /* \"Example/ERC721StdNFT.sol\":5361:5397  Approval(owner, _approved, _tokenId) */\n      0xffffffffffffffffffffffffffffffffffffffff\n      and\n      0x8c5be1e5ebec7d5bd14f71427d1e84f3dd0314c0f7b2291e5b200ac8c7c3b925\n      mload(0x40)\n      mload(0x40)\n      dup1\n      swap2\n      sub\n      swap1\n      log4\n        /* \"Example/ERC721StdNFT.sol\":5092:5433  {... */\n      pop\n        /* \"Example/ERC721StdNFT.sol\":5020:5433  function approve(address _approved, uint256 _tokenId) external override {... */\n      pop\n      pop\n      jump\t// out\n        /* \"Example/ERC721StdNFT.sol\":5848:6019  function transferFrom(address from, address to, uint256 tokenId) external override payable {... */\n    tag_47:\n        /* \"Example/ERC721StdNFT.sol\":5949:5981  _transferFrom(from, to, tokenId) */\n      tag_113\n        /* \"Example/ERC721StdNFT.sol\":5963:5967  from */\n      dup4\n        /* \"Example/ERC721StdNFT.sol\":5969:5971  to */\n      dup4\n        /* \"Example/ERC721StdNFT.sol\":5973:5980  tokenId */\n      dup4\n        /* \"Example/ERC721StdNFT.sol\":5949:5962  _transferFrom */\n      tag_114\n        /* \"Example/ERC721StdNFT.sol\":5949:5981  _transferFrom(from, to, tokenId) */\n      jump\t// in\n    tag_113:\n        /* \"Example/ERC721StdNFT.sol\":5848:6019  function transferFrom(address from, address to, uint256 tokenId) external override payable {... */\n      pop\n      pop\n      pop\n      jump\t// out\n        /* \"Example/ERC721StdNFT.sol\":3584:3784  function mintNFT(address to, uint256 tokenId) public {... */\n    tag_51:\n        /* \"Example/ERC721StdNFT.sol\":3669:3676  founder */\n      0x00\n      dup1\n      sload\n      swap1\n      0x0100\n      exp\n      swap1\n      div\n      0xffffffffffffffffffffffffffffffffffffffff\n      and\n        /* \"Example/ERC721StdNFT.sol\":3655:3676  msg.sender == founder */\n      0xffffffffffffffffffffffffffffffffffffffff\n      and\n        /* \"Example/ERC721StdNFT.sol\":3655:3665  msg.sender */\n      caller\n        /* \"Example/ERC721StdNFT.sol\":3655:3676  msg.sender == founder */\n      0xffffffffffffffffffffffffffffffffffffffff\n      and\n      eq\n        /* \"Example/ERC721StdNFT.sol\":3647:3705  require(msg.sender == founder, \"not an authorized minter\") */\n      tag_116\n      jumpi\n      mload(0x40)\n      0x08c379a000000000000000000000000000000000000000000000000000000000\n      dup2\n      mstore\n      0x04\n      add\n      tag_117\n      swap1\n      tag_118\n      jump\t// in\n    tag_117:\n      mload(0x40)\n      dup1\n      swap2\n      sub\n      swap1\n      revert\n    tag_116:\n        /* \"Example/ERC721StdNFT.sol\":3745:3763  _mint(to, tokenId) */\n      tag_119\n        /* \"Example/ERC721StdNFT.sol\":3751:3753  to */\n      dup3\n        /* \"Example/ERC721StdNFT.sol\":3755:3762  tokenId */\n      dup3\n        /* \"Example/ERC721StdNFT.sol\":3745:3750  _mint */\n      tag_120\n        /* \"Example/ERC721StdNFT.sol\":3745:3763  _mint(to, tokenId) */\n      jump\t// in\n    tag_119:\n        /* \"Example/ERC721StdNFT.sol\":3584:3784  function mintNFT(address to, uint256 tokenId) public {... */\n      pop\n      pop\n      jump\t// out\n        /* \"Example/ERC721StdNFT.sol\":7518:7964  function safeTransferFrom(address _from, address _to, uint256 _tokenId) external override payable {... */\n    tag_54:\n        /* \"Example/ERC721StdNFT.sol\":7626:7661  _transferFrom(_from, _to, _tokenId) */\n      tag_122\n        /* \"Example/ERC721StdNFT.sol\":7640:7645  _from */\n      dup4\n        /* \"Example/ERC721StdNFT.sol\":7647:7650  _to */\n      dup4\n        /* \"Example/ERC721StdNFT.sol\":7652:7660  _tokenId */\n      dup4\n        /* \"Example/ERC721StdNFT.sol\":7626:7639  _transferFrom */\n      tag_114\n        /* \"Example/ERC721StdNFT.sol\":7626:7661  _transferFrom(_from, _to, _tokenId) */\n      jump\t// in\n    tag_122:\n        /* \"Example/ERC721StdNFT.sol\":7735:7736  0 */\n      0x00\n        /* \"Example/ERC721StdNFT.sol\":7716:7719  _to */\n      dup3\n        /* \"Example/ERC721StdNFT.sol\":7716:7731  _to.code.length */\n      0xffffffffffffffffffffffffffffffffffffffff\n      and\n      extcodesize\n        /* \"Example/ERC721StdNFT.sol\":7716:7736  _to.code.length == 0 */\n      eq\n        /* \"Example/ERC721StdNFT.sol\":7716:7875  _to.code.length == 0 || ... */\n      dup1\n      tag_123\n      jumpi\n      pop\n        /* \"Example/ERC721StdNFT.sol\":7830:7875  ERC721TokenReceiver.onERC721Received.selector */\n      shl(0xe0, 0x150b7a02)\n        /* \"Example/ERC721StdNFT.sol\":7753:7875  ERC721TokenReceiver(_to).onERC721Received(msg.sender, _from, _tokenId,\"\") == ERC721TokenReceiver.onERC721Received.selector */\n      not(0xffffffffffffffffffffffffffffffffffffffffffffffffffffffff)\n      and\n        /* \"Example/ERC721StdNFT.sol\":7773:7776  _to */\n      dup3\n        /* \"Example/ERC721StdNFT.sol\":7753:7794  ERC721TokenReceiver(_to).onERC721Received */\n      0xffffffffffffffffffffffffffffffffffffffff\n      and\n      0x150b7a02\n        /* \"Example/ERC721StdNFT.sol\":7795:7805  msg.sender */\n      caller\n        /* \"Example/ERC721StdNFT.sol\":7807:7812  _from */\n      dup7\n        /* \"Example/ERC721StdNFT.sol\":7814:7822  _tokenId */\n      dup6\n        /* \"Example/ERC721StdNFT.sol\":7753:7826  ERC721TokenReceiver(_to).onERC721Received(msg.sender, _from, _tokenId,\"\") */\n      mload(0x40)\n      dup5\n      0xffffffff\n      and\n      0xe0\n      shl\n      dup2\n      mstore\n      0x04\n      add\n      tag_124\n      swap4\n      swap3\n      swap2\n      swap1\n      tag_125\n      jump\t// in\n    tag_124:\n      0x20\n      mload(0x40)\n      dup1\n      dup4\n      sub\n      dup2\n      0x00\n      dup8\n      gas\n      call\n      iszero\n      dup1\n      iszero\n      tag_127\n      jumpi\n      returndatasize\n      0x00\n      dup1\n      returndatacopy\n      revert(0x00, returndatasize)\n    tag_127:\n      pop\n      pop\n      pop\n      pop\n      mload(0x40)\n      returndatasize\n      not(0x1f)\n      0x1f\n      dup3\n      add\n      and\n      dup3\n      add\n      dup1\n      0x40\n      mstore\n      pop\n      dup2\n      add\n      swap1\n      tag_128\n      swap2\n      swap1\n      tag_129\n      jump\t// in\n    tag_128:\n        /* \"Example/ERC721StdNFT.sol\":7753:7875  ERC721TokenReceiver(_to).onERC721Received(msg.sender, _from, _tokenId,\"\") == ERC721TokenReceiver.onERC721Received.selector */\n      not(0xffffffffffffffffffffffffffffffffffffffffffffffffffffffff)\n      and\n      eq\n        /* \"Example/ERC721StdNFT.sol\":7716:7875  _to.code.length == 0 || ... */\n    tag_123:\n        /* \"Example/ERC721StdNFT.sol\":7695:7957  require(... */\n      tag_130\n      jumpi\n      mload(0x40)\n      0x08c379a000000000000000000000000000000000000000000000000000000000\n      dup2\n      mstore\n      0x04\n      add\n      tag_131\n      swap1\n      tag_132\n      jump\t// in\n    tag_131:\n      mload(0x40)\n      dup1\n      swap2\n      sub\n      swap1\n      revert\n    tag_130:\n        /* \"Example/ERC721StdNFT.sol\":7518:7964  function safeTransferFrom(address _from, address _to, uint256 _tokenId) external override payable {... */\n      pop\n      pop\n      pop\n      jump\t// out\n        /* \"Example/ERC721StdNFT.sol\":2023:2045  address public founder */\n    tag_57:\n      0x00\n      dup1\n      sload\n      swap1\n      0x0100\n      exp\n      swap1\n      div\n      0xffffffffffffffffffffffffffffffffffffffff\n      and\n      dup2\n      jump\t// out\n        /* \"Example/ERC721StdNFT.sol\":3814:4107  function ownerOf(uint256 _tokenId) external view override returns (address) {... */\n    tag_62:\n        /* \"Example/ERC721StdNFT.sol\":3881:3888  address */\n      0x00\n        /* \"Example/ERC721StdNFT.sol\":3900:3913  address owner */\n      dup1\n        /* \"Example/ERC721StdNFT.sol\":3916:3924  _ownerOf */\n      0x01\n        /* \"Example/ERC721StdNFT.sol\":3916:3934  _ownerOf[_tokenId] */\n      0x00\n        /* \"Example/ERC721StdNFT.sol\":3925:3933  _tokenId */\n      dup5\n        /* \"Example/ERC721StdNFT.sol\":3916:3934  _ownerOf[_tokenId] */\n      dup2\n      mstore\n      0x20\n      add\n      swap1\n      dup2\n      mstore\n      0x20\n      add\n      0x00\n      keccak256\n      0x00\n      swap1\n      sload\n      swap1\n      0x0100\n      exp\n      swap1\n      div\n      0xffffffffffffffffffffffffffffffffffffffff\n      and\n        /* \"Example/ERC721StdNFT.sol\":3900:3934  address owner = _ownerOf[_tokenId] */\n      swap1\n      pop\n        /* \"Example/ERC721StdNFT.sol\":3996:3997  0 */\n      0x00\n        /* \"Example/ERC721StdNFT.sol\":3979:3998  owner != address(0) */\n      0xffffffffffffffffffffffffffffffffffffffff\n      and\n        /* \"Example/ERC721StdNFT.sol\":3979:3984  owner */\n      dup2\n        /* \"Example/ERC721StdNFT.sol\":3979:3998  owner != address(0) */\n      0xffffffffffffffffffffffffffffffffffffffff\n      and\n      sub\n        /* \"Example/ERC721StdNFT.sol\":3971:4022  require(owner != address(0), \"token doesn't exist\") */\n      tag_134\n      jumpi\n      mload(0x40)\n      0x08c379a000000000000000000000000000000000000000000000000000000000\n      dup2\n      mstore\n      0x04\n      add\n      tag_135\n      swap1\n      tag_106\n      jump\t// in\n    tag_135:\n      mload(0x40)\n      dup1\n      swap2\n      sub\n      swap1\n      revert\n    tag_134:\n        /* \"Example/ERC721StdNFT.sol\":4075:4080  owner */\n      dup1\n        /* \"Example/ERC721StdNFT.sol\":4068:4080  return owner */\n      swap2\n      pop\n      pop\n        /* \"Example/ERC721StdNFT.sol\":3814:4107  function ownerOf(uint256 _tokenId) external view override returns (address) {... */\n      swap2\n      swap1\n      pop\n      jump\t// out\n        /* \"Example/ERC721StdNFT.sol\":4134:4406  function balanceOf(address _owner) external view override returns (uint256) {... */\n    tag_68:\n        /* \"Example/ERC721StdNFT.sol\":4201:4208  uint256 */\n      0x00\n        /* \"Example/ERC721StdNFT.sol\":4246:4247  0 */\n      dup1\n        /* \"Example/ERC721StdNFT.sol\":4228:4248  _owner != address(0) */\n      0xffffffffffffffffffffffffffffffffffffffff\n      and\n        /* \"Example/ERC721StdNFT.sol\":4228:4234  _owner */\n      dup3\n        /* \"Example/ERC721StdNFT.sol\":4228:4248  _owner != address(0) */\n      0xffffffffffffffffffffffffffffffffffffffff\n      and\n      sub\n        /* \"Example/ERC721StdNFT.sol\":4220:4287  require(_owner != address(0), \"balance query for the zero address\") */\n      tag_137\n      jumpi\n      mload(0x40)\n      0x08c379a000000000000000000000000000000000000000000000000000000000\n      dup2\n      mstore\n      0x04\n      add\n      tag_138\n      swap1\n      tag_139\n      jump\t// in\n    tag_138:\n      mload(0x40)\n      dup1\n      swap2\n      sub\n      swap1\n      revert\n    tag_137:\n        /* \"Example/ERC721StdNFT.sol\":4347:4357  _balanceOf */\n      0x02\n        /* \"Example/ERC721StdNFT.sol\":4347:4365  _balanceOf[_owner] */\n      0x00\n        /* \"Example/ERC721StdNFT.sol\":4358:4364  _owner */\n      dup4\n        /* \"Example/ERC721StdNFT.sol\":4347:4365  _balanceOf[_owner] */\n      0xffffffffffffffffffffffffffffffffffffffff\n      and\n      0xffffffffffffffffffffffffffffffffffffffff\n      and\n      dup2\n      mstore\n      0x20\n      add\n      swap1\n      dup2\n      mstore\n      0x20\n      add\n      0x00\n      keccak256\n      sload\n        /* \"Example/ERC721StdNFT.sol\":4340:4365  return _balanceOf[_owner] */\n      swap1\n      pop\n        /* \"Example/ERC721StdNFT.sol\":4134:4406  function balanceOf(address _owner) external view override returns (uint256) {... */\n      swap2\n      swap1\n      pop\n      jump\t// out\n        /* \"Example/ERC721StdNFT.sol\":2580:2600  string public symbol */\n    tag_73:\n      0x06\n      dup1\n      sload\n      tag_140\n      swap1\n      tag_98\n      jump\t// in\n    tag_140:\n      dup1\n      0x1f\n      add\n      0x20\n      dup1\n      swap2\n      div\n      mul\n      0x20\n      add\n      mload(0x40)\n      swap1\n      dup2\n      add\n      0x40\n      mstore\n      dup1\n      swap3\n      swap2\n      swap1\n      dup2\n      dup2\n      mstore\n      0x20\n      add\n      dup3\n      dup1\n      sload\n      tag_141\n      swap1\n      tag_98\n      jump\t// in\n    tag_141:\n      dup1\n      iszero\n      tag_142\n      jumpi\n      dup1\n      0x1f\n      lt\n      tag_143\n      jumpi\n      0x0100\n      dup1\n      dup4\n      sload\n      div\n      mul\n      dup4\n      mstore\n      swap2\n      0x20\n      add\n      swap2\n      jump(tag_142)\n    tag_143:\n      dup3\n      add\n      swap2\n      swap1\n      0x00\n      mstore\n      keccak256(0x00, 0x20)\n      swap1\n    tag_144:\n      dup2\n      sload\n      dup2\n      mstore\n      swap1\n      0x01\n      add\n      swap1\n      0x20\n      add\n      dup1\n      dup4\n      gt\n      tag_144\n      jumpi\n      dup3\n      swap1\n      sub\n      0x1f\n      and\n      dup3\n      add\n      swap2\n    tag_142:\n      pop\n      pop\n      pop\n      pop\n      pop\n      dup2\n      jump\t// out\n        /* \"Example/ERC721StdNFT.sol\":5500:5775  function setApprovalForAll(address _operator, bool _approved) external override {... */\n    tag_79:\n        /* \"Example/ERC721StdNFT.sol\":5634:5643  _approved */\n      dup1\n        /* \"Example/ERC721StdNFT.sol\":5590:5608  _operatorApprovals */\n      0x04\n        /* \"Example/ERC721StdNFT.sol\":5590:5620  _operatorApprovals[msg.sender] */\n      0x00\n        /* \"Example/ERC721StdNFT.sol\":5609:5619  msg.sender */\n      caller\n        /* \"Example/ERC721StdNFT.sol\":5590:5620  _operatorApprovals[msg.sender] */\n      0xffffffffffffffffffffffffffffffffffffffff\n      and\n      0xffffffffffffffffffffffffffffffffffffffff\n      and\n      dup2\n      mstore\n      0x20\n      add\n      swap1\n      dup2\n      mstore\n      0x20\n      add\n      0x00\n      keccak256\n        /* \"Example/ERC721StdNFT.sol\":5590:5631  _operatorApprovals[msg.sender][_operator] */\n      0x00\n        /* \"Example/ERC721StdNFT.sol\":5621:5630  _operator */\n      dup5\n        /* \"Example/ERC721StdNFT.sol\":5590:5631  _operatorApprovals[msg.sender][_operator] */\n      0xffffffffffffffffffffffffffffffffffffffff\n      and\n      0xffffffffffffffffffffffffffffffffffffffff\n      and\n      dup2\n      mstore\n      0x20\n      add\n      swap1\n      dup2\n      mstore\n      0x20\n      add\n      0x00\n      keccak256\n      0x00\n        /* \"Example/ERC721StdNFT.sol\":5590:5643  _operatorApprovals[msg.sender][_operator] = _approved */\n      0x0100\n      exp\n      dup2\n      sload\n      dup2\n      0xff\n      mul\n      not\n      and\n      swap1\n      dup4\n      iszero\n      iszero\n      mul\n      or\n      swap1\n      sstore\n      pop\n        /* \"Example/ERC721StdNFT.sol\":5712:5721  _operator */\n      dup2\n        /* \"Example/ERC721StdNFT.sol\":5685:5733  ApprovalForAll(msg.sender, _operator, _approved) */\n      0xffffffffffffffffffffffffffffffffffffffff\n      and\n        /* \"Example/ERC721StdNFT.sol\":5700:5710  msg.sender */\n      caller\n        /* \"Example/ERC721StdNFT.sol\":5685:5733  ApprovalForAll(msg.sender, _operator, _approved) */\n      0xffffffffffffffffffffffffffffffffffffffff\n      and\n      0x17307eab39ab6107e8899845ad3d59bd9653f200f220920489ca2b5937696c31\n        /* \"Example/ERC721StdNFT.sol\":5723:5732  _approved */\n      dup4\n        /* \"Example/ERC721StdNFT.sol\":5685:5733  ApprovalForAll(msg.sender, _operator, _approved) */\n      mload(0x40)\n      tag_146\n      swap2\n      swap1\n      tag_26\n      jump\t// in\n    tag_146:\n      mload(0x40)\n      dup1\n      swap2\n      sub\n      swap1\n      log3\n        /* \"Example/ERC721StdNFT.sol\":5500:5775  function setApprovalForAll(address _operator, bool _approved) external override {... */\n      pop\n      pop\n      jump\t// out\n        /* \"Example/ERC721StdNFT.sol\":6962:7432  function safeTransferFrom(address _from, address _to, uint256 _tokenId, bytes calldata data) external override payable {... */\n    tag_83:\n        /* \"Example/ERC721StdNFT.sol\":7091:7126  _transferFrom(_from, _to, _tokenId) */\n      tag_148\n        /* \"Example/ERC721StdNFT.sol\":7105:7110  _from */\n      dup6\n        /* \"Example/ERC721StdNFT.sol\":7112:7115  _to */\n      dup6\n        /* \"Example/ERC721StdNFT.sol\":7117:7125  _tokenId */\n      dup6\n        /* \"Example/ERC721StdNFT.sol\":7091:7104  _transferFrom */\n      tag_114\n        /* \"Example/ERC721StdNFT.sol\":7091:7126  _transferFrom(_from, _to, _tokenId) */\n      jump\t// in\n    tag_148:\n        /* \"Example/ERC721StdNFT.sol\":7200:7201  0 */\n      0x00\n        /* \"Example/ERC721StdNFT.sol\":7181:7184  _to */\n      dup5\n        /* \"Example/ERC721StdNFT.sol\":7181:7196  _to.code.length */\n      0xffffffffffffffffffffffffffffffffffffffff\n      and\n      extcodesize\n        /* \"Example/ERC721StdNFT.sol\":7181:7201  _to.code.length == 0 */\n      eq\n        /* \"Example/ERC721StdNFT.sol\":7181:7343  _to.code.length == 0 || ... */\n      dup1\n      tag_149\n      jumpi\n      pop\n        /* \"Example/ERC721StdNFT.sol\":7298:7343  ERC721TokenReceiver.onERC721Received.selector */\n      shl(0xe0, 0x150b7a02)\n        /* \"Example/ERC721StdNFT.sol\":7218:7343  ERC721TokenReceiver(_to).onERC721Received(msg.sender, _from, _tokenId, data) == ERC721TokenReceiver.onERC721Received.selector */\n      not(0xffffffffffffffffffffffffffffffffffffffffffffffffffffffff)\n      and\n        /* \"Example/ERC721StdNFT.sol\":7238:7241  _to */\n      dup5\n        /* \"Example/ERC721StdNFT.sol\":7218:7259  ERC721TokenReceiver(_to).onERC721Received */\n      0xffffffffffffffffffffffffffffffffffffffff\n      and\n      0x150b7a02\n        /* \"Example/ERC721StdNFT.sol\":7260:7270  msg.sender */\n      caller\n        /* \"Example/ERC721StdNFT.sol\":7272:7277  _from */\n      dup9\n        /* \"Example/ERC721StdNFT.sol\":7279:7287  _tokenId */\n      dup8\n        /* \"Example/ERC721StdNFT.sol\":7289:7293  data */\n      dup8\n      dup8\n        /* \"Example/ERC721StdNFT.sol\":7218:7294  ERC721TokenReceiver(_to).onERC721Received(msg.sender, _from, _tokenId, data) */\n      mload(0x40)\n      dup7\n      0xffffffff\n      and\n      0xe0\n      shl\n      dup2\n      mstore\n      0x04\n      add\n      tag_150\n      swap6\n      swap5\n      swap4\n      swap3\n      swap2\n      swap1\n      tag_151\n      jump\t// in\n    tag_150:\n      0x20\n      mload(0x40)\n      dup1\n      dup4\n      sub\n      dup2\n      0x00\n      dup8\n      gas\n      call\n      iszero\n      dup1\n      iszero\n      tag_153\n      jumpi\n      returndatasize\n      0x00\n      dup1\n      returndatacopy\n      revert(0x00, returndatasize)\n    tag_153:\n      pop\n      pop\n      pop\n      pop\n      mload(0x40)\n      returndatasize\n      not(0x1f)\n      0x1f\n      dup3\n      add\n      and\n      dup3\n      add\n      dup1\n      0x40\n      mstore\n      pop\n      dup2\n      add\n      swap1\n      tag_154\n      swap2\n      swap1\n      tag_129\n      jump\t// in\n    tag_154:\n        /* \"Example/ERC721StdNFT.sol\":7218:7343  ERC721TokenReceiver(_to).onERC721Received(msg.sender, _from, _tokenId, data) == ERC721TokenReceiver.onERC721Received.selector */\n      not(0xffffffffffffffffffffffffffffffffffffffffffffffffffffffff)\n      and\n      eq\n        /* \"Example/ERC721StdNFT.sol\":7181:7343  _to.code.length == 0 || ... */\n    tag_149:\n        /* \"Example/ERC721StdNFT.sol\":7160:7425  require(... */\n      tag_155\n      jumpi\n      mload(0x40)\n      0x08c379a000000000000000000000000000000000000000000000000000000000\n      dup2\n      mstore\n      0x04\n      add\n      tag_156\n      swap1\n      tag_132\n      jump\t// in\n    tag_156:\n      mload(0x40)\n      dup1\n      swap2\n      sub\n      swap1\n      revert\n    tag_155:\n        /* \"Example/ERC721StdNFT.sol\":6962:7432  function safeTransferFrom(address _from, address _to, uint256 _tokenId, bytes calldata data) external override payable {... */\n      pop\n      pop\n      pop\n      pop\n      pop\n      jump\t// out\n        /* \"Example/ERC721StdNFT.sol\":4762:4956  function isApprovedForAll(address _owner, address _operator) external view override returns (bool) {... */\n    tag_88:\n        /* \"Example/ERC721StdNFT.sol\":4855:4859  bool */\n      0x00\n        /* \"Example/ERC721StdNFT.sol\":4878:4896  _operatorApprovals */\n      0x04\n        /* \"Example/ERC721StdNFT.sol\":4878:4904  _operatorApprovals[_owner] */\n      0x00\n        /* \"Example/ERC721StdNFT.sol\":4897:4903  _owner */\n      dup5\n        /* \"Example/ERC721StdNFT.sol\":4878:4904  _operatorApprovals[_owner] */\n      0xffffffffffffffffffffffffffffffffffffffff\n      and\n      0xffffffffffffffffffffffffffffffffffffffff\n      and\n      dup2\n      mstore\n      0x20\n      add\n      swap1\n      dup2\n      mstore\n      0x20\n      add\n      0x00\n      keccak256\n        /* \"Example/ERC721StdNFT.sol\":4878:4915  _operatorApprovals[_owner][_operator] */\n      0x00\n        /* \"Example/ERC721StdNFT.sol\":4905:4914  _operator */\n      dup4\n        /* \"Example/ERC721StdNFT.sol\":4878:4915  _operatorApprovals[_owner][_operator] */\n      0xffffffffffffffffffffffffffffffffffffffff\n      and\n      0xffffffffffffffffffffffffffffffffffffffff\n      and\n      dup2\n      mstore\n      0x20\n      add\n      swap1\n      dup2\n      mstore\n      0x20\n      add\n      0x00\n      keccak256\n      0x00\n      swap1\n      sload\n      swap1\n      0x0100\n      exp\n      swap1\n      div\n      0xff\n      and\n        /* \"Example/ERC721StdNFT.sol\":4871:4915  return _operatorApprovals[_owner][_operator] */\n      swap1\n      pop\n        /* \"Example/ERC721StdNFT.sol\":4762:4956  function isApprovedForAll(address _owner, address _operator) external view override returns (bool) {... */\n      swap3\n      swap2\n      pop\n      pop\n      jump\t// out\n        /* \"Example/ERC721StdNFT.sol\":2388:2458  mapping(address => mapping(address => bool)) public _operatorApprovals */\n    tag_93:\n      mstore(0x20, 0x04)\n      dup2\n      0x00\n      mstore\n      mstore(0x20, keccak256(0x00, 0x40))\n      dup1\n      0x00\n      mstore\n      keccak256(0x00, 0x40)\n      0x00\n      swap2\n      pop\n      swap2\n      pop\n      swap1\n      sload\n      swap1\n      0x0100\n      exp\n      swap1\n      div\n      0xff\n      and\n      dup2\n      jump\t// out\n        /* \"Example/ERC721StdNFT.sol\":6064:6876  function _transferFrom(address _from, address _to, uint256 _tokenId) private {... */\n    tag_114:\n        /* \"Example/ERC721StdNFT.sol\":6151:6164  address owner */\n      0x00\n        /* \"Example/ERC721StdNFT.sol\":6167:6175  _ownerOf */\n      0x01\n        /* \"Example/ERC721StdNFT.sol\":6167:6185  _ownerOf[_tokenId] */\n      0x00\n        /* \"Example/ERC721StdNFT.sol\":6176:6184  _tokenId */\n      dup4\n        /* \"Example/ERC721StdNFT.sol\":6167:6185  _ownerOf[_tokenId] */\n      dup2\n      mstore\n      0x20\n      add\n      swap1\n      dup2\n      mstore\n      0x20\n      add\n      0x00\n      keccak256\n      0x00\n      swap1\n      sload\n      swap1\n      0x0100\n      exp\n      swap1\n      div\n      0xffffffffffffffffffffffffffffffffffffffff\n      and\n        /* \"Example/ERC721StdNFT.sol\":6151:6185  address owner = _ownerOf[_tokenId] */\n      swap1\n      pop\n        /* \"Example/ERC721StdNFT.sol\":6239:6244  owner */\n      dup1\n        /* \"Example/ERC721StdNFT.sol\":6230:6244  _from == owner */\n      0xffffffffffffffffffffffffffffffffffffffff\n      and\n        /* \"Example/ERC721StdNFT.sol\":6230:6235  _from */\n      dup5\n        /* \"Example/ERC721StdNFT.sol\":6230:6244  _from == owner */\n      0xffffffffffffffffffffffffffffffffffffffff\n      and\n      eq\n        /* \"Example/ERC721StdNFT.sol\":6222:6262  require(_from == owner, \"from != owner\") */\n      tag_159\n      jumpi\n      mload(0x40)\n      0x08c379a000000000000000000000000000000000000000000000000000000000\n      dup2\n      mstore\n      0x04\n      add\n      tag_160\n      swap1\n      tag_161\n      jump\t// in\n    tag_160:\n      mload(0x40)\n      dup1\n      swap2\n      sub\n      swap1\n      revert\n    tag_159:\n        /* \"Example/ERC721StdNFT.sol\":6334:6335  0 */\n      0x00\n        /* \"Example/ERC721StdNFT.sol\":6319:6336  _to != address(0) */\n      0xffffffffffffffffffffffffffffffffffffffff\n      and\n        /* \"Example/ERC721StdNFT.sol\":6319:6322  _to */\n      dup4\n        /* \"Example/ERC721StdNFT.sol\":6319:6336  _to != address(0) */\n      0xffffffffffffffffffffffffffffffffffffffff\n      and\n      sub\n        /* \"Example/ERC721StdNFT.sol\":6311:6365  require(_to != address(0), \"transfer to zero address\") */\n      tag_162\n      jumpi\n      mload(0x40)\n      0x08c379a000000000000000000000000000000000000000000000000000000000\n      dup2\n      mstore\n      0x04\n      add\n      tag_163\n      swap1\n      tag_164\n      jump\t// in\n    tag_163:\n      mload(0x40)\n      dup1\n      swap2\n      sub\n      swap1\n      revert\n    tag_162:\n        /* \"Example/ERC721StdNFT.sol\":6426:6431  owner */\n      dup1\n        /* \"Example/ERC721StdNFT.sol\":6412:6431  msg.sender == owner */\n      0xffffffffffffffffffffffffffffffffffffffff\n      and\n        /* \"Example/ERC721StdNFT.sol\":6412:6422  msg.sender */\n      caller\n        /* \"Example/ERC721StdNFT.sol\":6412:6431  msg.sender == owner */\n      0xffffffffffffffffffffffffffffffffffffffff\n      and\n      eq\n        /* \"Example/ERC721StdNFT.sol\":6412:6469  msg.sender == owner || msg.sender == _approvals[_tokenId] */\n      dup1\n      tag_165\n      jumpi\n      pop\n        /* \"Example/ERC721StdNFT.sol\":6449:6459  _approvals */\n      0x03\n        /* \"Example/ERC721StdNFT.sol\":6449:6469  _approvals[_tokenId] */\n      0x00\n        /* \"Example/ERC721StdNFT.sol\":6460:6468  _tokenId */\n      dup4\n        /* \"Example/ERC721StdNFT.sol\":6449:6469  _approvals[_tokenId] */\n      dup2\n      mstore\n      0x20\n      add\n      swap1\n      dup2\n      mstore\n      0x20\n      add\n      0x00\n      keccak256\n      0x00\n      swap1\n      sload\n      swap1\n      0x0100\n      exp\n      swap1\n      div\n      0xffffffffffffffffffffffffffffffffffffffff\n      and\n        /* \"Example/ERC721StdNFT.sol\":6435:6469  msg.sender == _approvals[_tokenId] */\n      0xffffffffffffffffffffffffffffffffffffffff\n      and\n        /* \"Example/ERC721StdNFT.sol\":6435:6445  msg.sender */\n      caller\n        /* \"Example/ERC721StdNFT.sol\":6435:6469  msg.sender == _approvals[_tokenId] */\n      0xffffffffffffffffffffffffffffffffffffffff\n      and\n      eq\n        /* \"Example/ERC721StdNFT.sol\":6412:6469  msg.sender == owner || msg.sender == _approvals[_tokenId] */\n    tag_165:\n        /* \"Example/ERC721StdNFT.sol\":6412:6510  msg.sender == owner || msg.sender == _approvals[_tokenId] || _operatorApprovals[owner][msg.sender] */\n      dup1\n      tag_166\n      jumpi\n      pop\n        /* \"Example/ERC721StdNFT.sol\":6473:6491  _operatorApprovals */\n      0x04\n        /* \"Example/ERC721StdNFT.sol\":6473:6498  _operatorApprovals[owner] */\n      0x00\n        /* \"Example/ERC721StdNFT.sol\":6492:6497  owner */\n      dup3\n        /* \"Example/ERC721StdNFT.sol\":6473:6498  _operatorApprovals[owner] */\n      0xffffffffffffffffffffffffffffffffffffffff\n      and\n      0xffffffffffffffffffffffffffffffffffffffff\n      and\n      dup2\n      mstore\n      0x20\n      add\n      swap1\n      dup2\n      mstore\n      0x20\n      add\n      0x00\n      keccak256\n        /* \"Example/ERC721StdNFT.sol\":6473:6510  _operatorApprovals[owner][msg.sender] */\n      0x00\n        /* \"Example/ERC721StdNFT.sol\":6499:6509  msg.sender */\n      caller\n        /* \"Example/ERC721StdNFT.sol\":6473:6510  _operatorApprovals[owner][msg.sender] */\n      0xffffffffffffffffffffffffffffffffffffffff\n      and\n      0xffffffffffffffffffffffffffffffffffffffff\n      and\n      dup2\n      mstore\n      0x20\n      add\n      swap1\n      dup2\n      mstore\n      0x20\n      add\n      0x00\n      keccak256\n      0x00\n      swap1\n      sload\n      swap1\n      0x0100\n      exp\n      swap1\n      div\n      0xff\n      and\n        /* \"Example/ERC721StdNFT.sol\":6412:6510  msg.sender == owner || msg.sender == _approvals[_tokenId] || _operatorApprovals[owner][msg.sender] */\n    tag_166:\n        /* \"Example/ERC721StdNFT.sol\":6404:6529  require(msg.sender == owner || msg.sender == _approvals[_tokenId] || _operatorApprovals[owner][msg.sender], \"not authorized\") */\n      tag_167\n      jumpi\n      mload(0x40)\n      0x08c379a000000000000000000000000000000000000000000000000000000000\n      dup2\n      mstore\n      0x04\n      add\n      tag_168\n      swap1\n      tag_111\n      jump\t// in\n    tag_168:\n      mload(0x40)\n      dup1\n      swap2\n      sub\n      swap1\n      revert\n    tag_167:\n        /* \"Example/ERC721StdNFT.sol\":6578:6579  1 */\n      0x01\n        /* \"Example/ERC721StdNFT.sol\":6557:6567  _balanceOf */\n      0x02\n        /* \"Example/ERC721StdNFT.sol\":6557:6574  _balanceOf[_from] */\n      0x00\n        /* \"Example/ERC721StdNFT.sol\":6568:6573  _from */\n      dup7\n        /* \"Example/ERC721StdNFT.sol\":6557:6574  _balanceOf[_from] */\n      0xffffffffffffffffffffffffffffffffffffffff\n      and\n      0xffffffffffffffffffffffffffffffffffffffff\n      and\n      dup2\n      mstore\n      0x20\n      add\n      swap1\n      dup2\n      mstore\n      0x20\n      add\n      0x00\n      keccak256\n      0x00\n        /* \"Example/ERC721StdNFT.sol\":6557:6579  _balanceOf[_from] -= 1 */\n      dup3\n      dup3\n      sload\n      tag_169\n      swap2\n      swap1\n      tag_170\n      jump\t// in\n    tag_169:\n      swap3\n      pop\n      pop\n      dup2\n      swap1\n      sstore\n      pop\n        /* \"Example/ERC721StdNFT.sol\":6642:6643  1 */\n      0x01\n        /* \"Example/ERC721StdNFT.sol\":6623:6633  _balanceOf */\n      0x02\n        /* \"Example/ERC721StdNFT.sol\":6623:6638  _balanceOf[_to] */\n      0x00\n        /* \"Example/ERC721StdNFT.sol\":6634:6637  _to */\n      dup6\n        /* \"Example/ERC721StdNFT.sol\":6623:6638  _balanceOf[_to] */\n      0xffffffffffffffffffffffffffffffffffffffff\n      and\n      0xffffffffffffffffffffffffffffffffffffffff\n      and\n      dup2\n      mstore\n      0x20\n      add\n      swap1\n      dup2\n      mstore\n      0x20\n      add\n      0x00\n      keccak256\n      0x00\n        /* \"Example/ERC721StdNFT.sol\":6623:6643  _balanceOf[_to] += 1 */\n      dup3\n      dup3\n      sload\n      tag_171\n      swap2\n      swap1\n      tag_172\n      jump\t// in\n    tag_171:\n      swap3\n      pop\n      pop\n      dup2\n      swap1\n      sstore\n      pop\n        /* \"Example/ERC721StdNFT.sol\":6708:6711  _to */\n      dup3\n        /* \"Example/ERC721StdNFT.sol\":6687:6695  _ownerOf */\n      0x01\n        /* \"Example/ERC721StdNFT.sol\":6687:6705  _ownerOf[_tokenId] */\n      0x00\n        /* \"Example/ERC721StdNFT.sol\":6696:6704  _tokenId */\n      dup5\n        /* \"Example/ERC721StdNFT.sol\":6687:6705  _ownerOf[_tokenId] */\n      dup2\n      mstore\n      0x20\n      add\n      swap1\n      dup2\n      mstore\n      0x20\n      add\n      0x00\n      keccak256\n      0x00\n        /* \"Example/ERC721StdNFT.sol\":6687:6711  _ownerOf[_tokenId] = _to */\n      0x0100\n      exp\n      dup2\n      sload\n      dup2\n      0xffffffffffffffffffffffffffffffffffffffff\n      mul\n      not\n      and\n      swap1\n      dup4\n      0xffffffffffffffffffffffffffffffffffffffff\n      and\n      mul\n      or\n      swap1\n      sstore\n      pop\n        /* \"Example/ERC721StdNFT.sol\":6758:6768  _approvals */\n      0x03\n        /* \"Example/ERC721StdNFT.sol\":6758:6778  _approvals[_tokenId] */\n      0x00\n        /* \"Example/ERC721StdNFT.sol\":6769:6777  _tokenId */\n      dup4\n        /* \"Example/ERC721StdNFT.sol\":6758:6778  _approvals[_tokenId] */\n      dup2\n      mstore\n      0x20\n      add\n      swap1\n      dup2\n      mstore\n      0x20\n      add\n      0x00\n      keccak256\n      0x00\n        /* \"Example/ERC721StdNFT.sol\":6751:6778  delete _approvals[_tokenId] */\n      0x0100\n      exp\n      dup2\n      sload\n      swap1\n      0xffffffffffffffffffffffffffffffffffffffff\n      mul\n      not\n      and\n      swap1\n      sstore\n        /* \"Example/ERC721StdNFT.sol\":6831:6839  _tokenId */\n      dup2\n        /* \"Example/ERC721StdNFT.sol\":6826:6829  _to */\n      dup4\n        /* \"Example/ERC721StdNFT.sol\":6810:6840  Transfer(_from, _to, _tokenId) */\n      0xffffffffffffffffffffffffffffffffffffffff\n      and\n        /* \"Example/ERC721StdNFT.sol\":6819:6824  _from */\n      dup6\n        /* \"Example/ERC721StdNFT.sol\":6810:6840  Transfer(_from, _to, _tokenId) */\n      0xffffffffffffffffffffffffffffffffffffffff\n      and\n      0xddf252ad1be2c89b69c2b068fc378daa952ba7f163c4a11628f55a4df523b3ef\n      mload(0x40)\n      mload(0x40)\n      dup1\n      swap2\n      sub\n      swap1\n      log4\n        /* \"Example/ERC721StdNFT.sol\":6141:6876  {... */\n      pop\n        /* \"Example/ERC721StdNFT.sol\":6064:6876  function _transferFrom(address _from, address _to, uint256 _tokenId) private {... */\n      pop\n      pop\n      pop\n      jump\t// out\n        /* \"Example/ERC721StdNFT.sol\":3096:3556  function _mint(address to, uint256 tokenId) internal {... */\n    tag_120:\n        /* \"Example/ERC721StdNFT.sol\":3181:3182  0 */\n      0x00\n        /* \"Example/ERC721StdNFT.sol\":3167:3183  to != address(0) */\n      0xffffffffffffffffffffffffffffffffffffffff\n      and\n        /* \"Example/ERC721StdNFT.sol\":3167:3169  to */\n      dup3\n        /* \"Example/ERC721StdNFT.sol\":3167:3183  to != address(0) */\n      0xffffffffffffffffffffffffffffffffffffffff\n      and\n      sub\n        /* \"Example/ERC721StdNFT.sol\":3159:3208  require(to != address(0), \"mint to zero address\") */\n      tag_174\n      jumpi\n      mload(0x40)\n      0x08c379a000000000000000000000000000000000000000000000000000000000\n      dup2\n      mstore\n      0x04\n      add\n      tag_175\n      swap1\n      tag_176\n      jump\t// in\n    tag_175:\n      mload(0x40)\n      dup1\n      swap2\n      sub\n      swap1\n      revert\n    tag_174:\n        /* \"Example/ERC721StdNFT.sol\":3291:3292  0 */\n      0x00\n        /* \"Example/ERC721StdNFT.sol\":3262:3293  _ownerOf[tokenId] == address(0) */\n      0xffffffffffffffffffffffffffffffffffffffff\n      and\n        /* \"Example/ERC721StdNFT.sol\":3262:3270  _ownerOf */\n      0x01\n        /* \"Example/ERC721StdNFT.sol\":3262:3279  _ownerOf[tokenId] */\n      0x00\n        /* \"Example/ERC721StdNFT.sol\":3271:3278  tokenId */\n      dup4\n        /* \"Example/ERC721StdNFT.sol\":3262:3279  _ownerOf[tokenId] */\n      dup2\n      mstore\n      0x20\n      add\n      swap1\n      dup2\n      mstore\n      0x20\n      add\n      0x00\n      keccak256\n      0x00\n      swap1\n      sload\n      swap1\n      0x0100\n      exp\n      swap1\n      div\n      0xffffffffffffffffffffffffffffffffffffffff\n      and\n        /* \"Example/ERC721StdNFT.sol\":3262:3293  _ownerOf[tokenId] == address(0) */\n      0xffffffffffffffffffffffffffffffffffffffff\n      and\n      eq\n        /* \"Example/ERC721StdNFT.sol\":3254:3312  require(_ownerOf[tokenId] == address(0), \"already minted\") */\n      tag_177\n      jumpi\n      mload(0x40)\n      0x08c379a000000000000000000000000000000000000000000000000000000000\n      dup2\n      mstore\n      0x04\n      add\n      tag_178\n      swap1\n      tag_179\n      jump\t// in\n    tag_178:\n      mload(0x40)\n      dup1\n      swap2\n      sub\n      swap1\n      revert\n    tag_177:\n        /* \"Example/ERC721StdNFT.sol\":3381:3382  1 */\n      0x01\n        /* \"Example/ERC721StdNFT.sol\":3363:3373  _balanceOf */\n      0x02\n        /* \"Example/ERC721StdNFT.sol\":3363:3377  _balanceOf[to] */\n      0x00\n        /* \"Example/ERC721StdNFT.sol\":3374:3376  to */\n      dup5\n        /* \"Example/ERC721StdNFT.sol\":3363:3377  _balanceOf[to] */\n      0xffffffffffffffffffffffffffffffffffffffff\n      and\n      0xffffffffffffffffffffffffffffffffffffffff\n      and\n      dup2\n      mstore\n      0x20\n      add\n      swap1\n      dup2\n      mstore\n      0x20\n      add\n      0x00\n      keccak256\n      0x00\n        /* \"Example/ERC721StdNFT.sol\":3363:3382  _balanceOf[to] += 1 */\n      dup3\n      dup3\n      sload\n      tag_180\n      swap2\n      swap1\n      tag_172\n      jump\t// in\n    tag_180:\n      swap3\n      pop\n      pop\n      dup2\n      swap1\n      sstore\n      pop\n        /* \"Example/ERC721StdNFT.sol\":3446:3448  to */\n      dup2\n        /* \"Example/ERC721StdNFT.sol\":3426:3434  _ownerOf */\n      0x01\n        /* \"Example/ERC721StdNFT.sol\":3426:3443  _ownerOf[tokenId] */\n      0x00\n        /* \"Example/ERC721StdNFT.sol\":3435:3442  tokenId */\n      dup4\n        /* \"Example/ERC721StdNFT.sol\":3426:3443  _ownerOf[tokenId] */\n      dup2\n      mstore\n      0x20\n      add\n      swap1\n      dup2\n      mstore\n      0x20\n      add\n      0x00\n      keccak256\n      0x00\n        /* \"Example/ERC721StdNFT.sol\":3426:3448  _ownerOf[tokenId] = to */\n      0x0100\n      exp\n      dup2\n      sload\n      dup2\n      0xffffffffffffffffffffffffffffffffffffffff\n      mul\n      not\n      and\n      swap1\n      dup4\n      0xffffffffffffffffffffffffffffffffffffffff\n      and\n      mul\n      or\n      swap1\n      sstore\n      pop\n        /* \"Example/ERC721StdNFT.sol\":3512:3519  tokenId */\n      dup1\n        /* \"Example/ERC721StdNFT.sol\":3508:3510  to */\n      dup3\n        /* \"Example/ERC721StdNFT.sol\":3487:3520  Transfer(address(0), to, tokenId) */\n      0xffffffffffffffffffffffffffffffffffffffff\n      and\n        /* \"Example/ERC721StdNFT.sol\":3504:3505  0 */\n      0x00\n        /* \"Example/ERC721StdNFT.sol\":3487:3520  Transfer(address(0), to, tokenId) */\n      0xffffffffffffffffffffffffffffffffffffffff\n      and\n      0xddf252ad1be2c89b69c2b068fc378daa952ba7f163c4a11628f55a4df523b3ef\n      mload(0x40)\n      mload(0x40)\n      dup1\n      swap2\n      sub\n      swap1\n      log4\n        /* \"Example/ERC721StdNFT.sol\":3096:3556  function _mint(address to, uint256 tokenId) internal {... */\n      pop\n      pop\n      jump\t// out\n        /* \"#utility.yul\":88:205   */\n    tag_182:\n        /* \"#utility.yul\":197:198   */\n      0x00\n        /* \"#utility.yul\":194:195   */\n      dup1\n        /* \"#utility.yul\":187:199   */\n      revert\n        /* \"#utility.yul\":211:328   */\n    tag_183:\n        /* \"#utility.yul\":320:321   */\n      0x00\n        /* \"#utility.yul\":317:318   */\n      dup1\n        /* \"#utility.yul\":310:322   */\n      revert\n        /* \"#utility.yul\":334:483   */\n    tag_184:\n        /* \"#utility.yul\":370:377   */\n      0x00\n        /* \"#utility.yul\":410:476   */\n      0xffffffff00000000000000000000000000000000000000000000000000000000\n        /* \"#utility.yul\":403:408   */\n      dup3\n        /* \"#utility.yul\":399:477   */\n      and\n        /* \"#utility.yul\":388:477   */\n      swap1\n      pop\n        /* \"#utility.yul\":334:483   */\n      swap2\n      swap1\n      pop\n      jump\t// out\n        /* \"#utility.yul\":489:609   */\n    tag_185:\n        /* \"#utility.yul\":561:584   */\n      tag_241\n        /* \"#utility.yul\":578:583   */\n      dup2\n        /* \"#utility.yul\":561:584   */\n      tag_184\n      jump\t// in\n    tag_241:\n        /* \"#utility.yul\":554:559   */\n      dup2\n        /* \"#utility.yul\":551:585   */\n      eq\n        /* \"#utility.yul\":541:603   */\n      tag_242\n      jumpi\n        /* \"#utility.yul\":599:600   */\n      0x00\n        /* \"#utility.yul\":596:597   */\n      dup1\n        /* \"#utility.yul\":589:601   */\n      revert\n        /* \"#utility.yul\":541:603   */\n    tag_242:\n        /* \"#utility.yul\":489:609   */\n      pop\n      jump\t// out\n        /* \"#utility.yul\":615:752   */\n    tag_186:\n        /* \"#utility.yul\":660:665   */\n      0x00\n        /* \"#utility.yul\":698:704   */\n      dup2\n        /* \"#utility.yul\":685:705   */\n      calldataload\n        /* \"#utility.yul\":676:705   */\n      swap1\n      pop\n        /* \"#utility.yul\":714:746   */\n      tag_244\n        /* \"#utility.yul\":740:745   */\n      dup2\n        /* \"#utility.yul\":714:746   */\n      tag_185\n      jump\t// in\n    tag_244:\n        /* \"#utility.yul\":615:752   */\n      swap3\n      swap2\n      pop\n      pop\n      jump\t// out\n        /* \"#utility.yul\":758:1085   */\n    tag_23:\n        /* \"#utility.yul\":816:822   */\n      0x00\n        /* \"#utility.yul\":865:867   */\n      0x20\n        /* \"#utility.yul\":853:862   */\n      dup3\n        /* \"#utility.yul\":844:851   */\n      dup5\n        /* \"#utility.yul\":840:863   */\n      sub\n        /* \"#utility.yul\":836:868   */\n      slt\n        /* \"#utility.yul\":833:952   */\n      iszero\n      tag_246\n      jumpi\n        /* \"#utility.yul\":871:950   */\n      tag_247\n      tag_182\n      jump\t// in\n    tag_247:\n        /* \"#utility.yul\":833:952   */\n    tag_246:\n        /* \"#utility.yul\":991:992   */\n      0x00\n        /* \"#utility.yul\":1016:1068   */\n      tag_248\n        /* \"#utility.yul\":1060:1067   */\n      dup5\n        /* \"#utility.yul\":1051:1057   */\n      dup3\n        /* \"#utility.yul\":1040:1049   */\n      dup6\n        /* \"#utility.yul\":1036:1058   */\n      add\n        /* \"#utility.yul\":1016:1068   */\n      tag_186\n      jump\t// in\n    tag_248:\n        /* \"#utility.yul\":1006:1068   */\n      swap2\n      pop\n        /* \"#utility.yul\":962:1078   */\n      pop\n        /* \"#utility.yul\":758:1085   */\n      swap3\n      swap2\n      pop\n      pop\n      jump\t// out\n        /* \"#utility.yul\":1091:1181   */\n    tag_187:\n        /* \"#utility.yul\":1125:1132   */\n      0x00\n        /* \"#utility.yul\":1168:1173   */\n      dup2\n        /* \"#utility.yul\":1161:1174   */\n      iszero\n        /* \"#utility.yul\":1154:1175   */\n      iszero\n        /* \"#utility.yul\":1143:1175   */\n      swap1\n      pop\n        /* \"#utility.yul\":1091:1181   */\n      swap2\n      swap1\n      pop\n      jump\t// out\n        /* \"#utility.yul\":1187:1296   */\n    tag_188:\n        /* \"#utility.yul\":1268:1289   */\n      tag_251\n        /* \"#utility.yul\":1283:1288   */\n      dup2\n        /* \"#utility.yul\":1268:1289   */\n      tag_187\n      jump\t// in\n    tag_251:\n        /* \"#utility.yul\":1263:1266   */\n      dup3\n        /* \"#utility.yul\":1256:1290   */\n      mstore\n        /* \"#utility.yul\":1187:1296   */\n      pop\n      pop\n      jump\t// out\n        /* \"#utility.yul\":1302:1512   */\n    tag_26:\n        /* \"#utility.yul\":1389:1393   */\n      0x00\n        /* \"#utility.yul\":1427:1429   */\n      0x20\n        /* \"#utility.yul\":1416:1425   */\n      dup3\n        /* \"#utility.yul\":1412:1430   */\n      add\n        /* \"#utility.yul\":1404:1430   */\n      swap1\n      pop\n        /* \"#utility.yul\":1440:1505   */\n      tag_253\n        /* \"#utility.yul\":1502:1503   */\n      0x00\n        /* \"#utility.yul\":1491:1500   */\n      dup4\n        /* \"#utility.yul\":1487:1504   */\n      add\n        /* \"#utility.yul\":1478:1484   */\n      dup5\n        /* \"#utility.yul\":1440:1505   */\n      tag_188\n      jump\t// in\n    tag_253:\n        /* \"#utility.yul\":1302:1512   */\n      swap3\n      swap2\n      pop\n      pop\n      jump\t// out\n        /* \"#utility.yul\":1518:1617   */\n    tag_189:\n        /* \"#utility.yul\":1570:1576   */\n      0x00\n        /* \"#utility.yul\":1604:1609   */\n      dup2\n        /* \"#utility.yul\":1598:1610   */\n      mload\n        /* \"#utility.yul\":1588:1610   */\n      swap1\n      pop\n        /* \"#utility.yul\":1518:1617   */\n      swap2\n      swap1\n      pop\n      jump\t// out\n        /* \"#utility.yul\":1623:1792   */\n    tag_190:\n        /* \"#utility.yul\":1707:1718   */\n      0x00\n        /* \"#utility.yul\":1741:1747   */\n      dup3\n        /* \"#utility.yul\":1736:1739   */\n      dup3\n        /* \"#utility.yul\":1729:1748   */\n      mstore\n        /* \"#utility.yul\":1781:1785   */\n      0x20\n        /* \"#utility.yul\":1776:1779   */\n      dup3\n        /* \"#utility.yul\":1772:1786   */\n      add\n        /* \"#utility.yul\":1757:1786   */\n      swap1\n      pop\n        /* \"#utility.yul\":1623:1792   */\n      swap3\n      swap2\n      pop\n      pop\n      jump\t// out\n        /* \"#utility.yul\":1798:1937   */\n    tag_191:\n        /* \"#utility.yul\":1887:1893   */\n      dup3\n        /* \"#utility.yul\":1882:1885   */\n      dup2\n        /* \"#utility.yul\":1877:1880   */\n      dup4\n        /* \"#utility.yul\":1871:1894   */\n      mcopy\n        /* \"#utility.yul\":1928:1929   */\n      0x00\n        /* \"#utility.yul\":1919:1925   */\n      dup4\n        /* \"#utility.yul\":1914:1917   */\n      dup4\n        /* \"#utility.yul\":1910:1926   */\n      add\n        /* \"#utility.yul\":1903:1930   */\n      mstore\n        /* \"#utility.yul\":1798:1937   */\n      pop\n      pop\n      pop\n      jump\t// out\n        /* \"#utility.yul\":1943:2045   */\n    tag_192:\n        /* \"#utility.yul\":1984:1990   */\n      0x00\n        /* \"#utility.yul\":2035:2037   */\n      0x1f\n        /* \"#utility.yul\":2031:2038   */\n      not\n        /* \"#utility.yul\":2026:2028   */\n      0x1f\n        /* \"#utility.yul\":2019:2024   */\n      dup4\n        /* \"#utility.yul\":2015:2029   */\n      add\n        /* \"#utility.yul\":2011:2039   */\n      and\n        /* \"#utility.yul\":2001:2039   */\n      swap1\n      pop\n        /* \"#utility.yul\":1943:2045   */\n      swap2\n      swap1\n      pop\n      jump\t// out\n        /* \"#utility.yul\":2051:2428   */\n    tag_193:\n        /* \"#utility.yul\":2139:2142   */\n      0x00\n        /* \"#utility.yul\":2167:2206   */\n      tag_259\n        /* \"#utility.yul\":2200:2205   */\n      dup3\n        /* \"#utility.yul\":2167:2206   */\n      tag_189\n      jump\t// in\n    tag_259:\n        /* \"#utility.yul\":2222:2293   */\n      tag_260\n        /* \"#utility.yul\":2286:2292   */\n      dup2\n        /* \"#utility.yul\":2281:2284   */\n      dup6\n        /* \"#utility.yul\":2222:2293   */\n      tag_190\n      jump\t// in\n    tag_260:\n        /* \"#utility.yul\":2215:2293   */\n      swap4\n      pop\n        /* \"#utility.yul\":2302:2367   */\n      tag_261\n        /* \"#utility.yul\":2360:2366   */\n      dup2\n        /* \"#utility.yul\":2355:2358   */\n      dup6\n        /* \"#utility.yul\":2348:2352   */\n      0x20\n        /* \"#utility.yul\":2341:2346   */\n      dup7\n        /* \"#utility.yul\":2337:2353   */\n      add\n        /* \"#utility.yul\":2302:2367   */\n      tag_191\n      jump\t// in\n    tag_261:\n        /* \"#utility.yul\":2392:2421   */\n      tag_262\n        /* \"#utility.yul\":2414:2420   */\n      dup2\n        /* \"#utility.yul\":2392:2421   */\n      tag_192\n      jump\t// in\n    tag_262:\n        /* \"#utility.yul\":2387:2390   */\n      dup5\n        /* \"#utility.yul\":2383:2422   */\n      add\n        /* \"#utility.yul\":2376:2422   */\n      swap2\n      pop\n        /* \"#utility.yul\":2143:2428   */\n      pop\n        /* \"#utility.yul\":2051:2428   */\n      swap3\n      swap2\n      pop\n      pop\n      jump\t// out\n        /* \"#utility.yul\":2434:2747   */\n    tag_31:\n        /* \"#utility.yul\":2547:2551   */\n      0x00\n        /* \"#utility.yul\":2585:2587   */\n      0x20\n        /* \"#utility.yul\":2574:2583   */\n      dup3\n        /* \"#utility.yul\":2570:2588   */\n      add\n        /* \"#utility.yul\":2562:2588   */\n      swap1\n      pop\n        /* \"#utility.yul\":2634:2643   */\n      dup2\n        /* \"#utility.yul\":2628:2632   */\n      dup2\n        /* \"#utility.yul\":2624:2644   */\n      sub\n        /* \"#utility.yul\":2620:2621   */\n      0x00\n        /* \"#utility.yul\":2609:2618   */\n      dup4\n        /* \"#utility.yul\":2605:2622   */\n      add\n        /* \"#utility.yul\":2598:2645   */\n      mstore\n        /* \"#utility.yul\":2662:2740   */\n      tag_264\n        /* \"#utility.yul\":2735:2739   */\n      dup2\n        /* \"#utility.yul\":2726:2732   */\n      dup5\n        /* \"#utility.yul\":2662:2740   */\n      tag_193\n      jump\t// in\n    tag_264:\n        /* \"#utility.yul\":2654:2740   */\n      swap1\n      pop\n        /* \"#utility.yul\":2434:2747   */\n      swap3\n      swap2\n      pop\n      pop\n      jump\t// out\n        /* \"#utility.yul\":2753:2830   */\n    tag_194:\n        /* \"#utility.yul\":2790:2797   */\n      0x00\n        /* \"#utility.yul\":2819:2824   */\n      dup2\n        /* \"#utility.yul\":2808:2824   */\n      swap1\n      pop\n        /* \"#utility.yul\":2753:2830   */\n      swap2\n      swap1\n      pop\n      jump\t// out\n        /* \"#utility.yul\":2836:2958   */\n    tag_195:\n        /* \"#utility.yul\":2909:2933   */\n      tag_267\n        /* \"#utility.yul\":2927:2932   */\n      dup2\n        /* \"#utility.yul\":2909:2933   */\n      tag_194\n      jump\t// in\n    tag_267:\n        /* \"#utility.yul\":2902:2907   */\n      dup2\n        /* \"#utility.yul\":2899:2934   */\n      eq\n        /* \"#utility.yul\":2889:2952   */\n      tag_268\n      jumpi\n        /* \"#utility.yul\":2948:2949   */\n      0x00\n        /* \"#utility.yul\":2945:2946   */\n      dup1\n        /* \"#utility.yul\":2938:2950   */\n      revert\n        /* \"#utility.yul\":2889:2952   */\n    tag_268:\n        /* \"#utility.yul\":2836:2958   */\n      pop\n      jump\t// out\n        /* \"#utility.yul\":2964:3103   */\n    tag_196:\n        /* \"#utility.yul\":3010:3015   */\n      0x00\n        /* \"#utility.yul\":3048:3054   */\n      dup2\n        /* \"#utility.yul\":3035:3055   */\n      calldataload\n        /* \"#utility.yul\":3026:3055   */\n      swap1\n      pop\n        /* \"#utility.yul\":3064:3097   */\n      tag_270\n        /* \"#utility.yul\":3091:3096   */\n      dup2\n        /* \"#utility.yul\":3064:3097   */\n      tag_195\n      jump\t// in\n    tag_270:\n        /* \"#utility.yul\":2964:3103   */\n      swap3\n      swap2\n      pop\n      pop\n      jump\t// out\n        /* \"#utility.yul\":3109:3438   */\n    tag_35:\n        /* \"#utility.yul\":3168:3174   */\n      0x00\n        /* \"#utility.yul\":3217:3219   */\n      0x20\n        /* \"#utility.yul\":3205:3214   */\n      dup3\n        /* \"#utility.yul\":3196:3203   */\n      dup5\n        /* \"#utility.yul\":3192:3215   */\n      sub\n        /* \"#utility.yul\":3188:3220   */\n      slt\n        /* \"#utility.yul\":3185:3304   */\n      iszero\n      tag_272\n      jumpi\n        /* \"#utility.yul\":3223:3302   */\n      tag_273\n      tag_182\n      jump\t// in\n    tag_273:\n        /* \"#utility.yul\":3185:3304   */\n    tag_272:\n        /* \"#utility.yul\":3343:3344   */\n      0x00\n        /* \"#utility.yul\":3368:3421   */\n      tag_274\n        /* \"#utility.yul\":3413:3420   */\n      dup5\n        /* \"#utility.yul\":3404:3410   */\n      dup3\n        /* \"#utility.yul\":3393:3402   */\n      dup6\n        /* \"#utility.yul\":3389:3411   */\n      add\n        /* \"#utility.yul\":3368:3421   */\n      tag_196\n      jump\t// in\n    tag_274:\n        /* \"#utility.yul\":3358:3421   */\n      swap2\n      pop\n        /* \"#utility.yul\":3314:3431   */\n      pop\n        /* \"#utility.yul\":3109:3438   */\n      swap3\n      swap2\n      pop\n      pop\n      jump\t// out\n        /* \"#utility.yul\":3444:3570   */\n    tag_197:\n        /* \"#utility.yul\":3481:3488   */\n      0x00\n        /* \"#utility.yul\":3521:3563   */\n      0xffffffffffffffffffffffffffffffffffffffff\n        /* \"#utility.yul\":3514:3519   */\n      dup3\n        /* \"#utility.yul\":3510:3564   */\n      and\n        /* \"#utility.yul\":3499:3564   */\n      swap1\n      pop\n        /* \"#utility.yul\":3444:3570   */\n      swap2\n      swap1\n      pop\n      jump\t// out\n        /* \"#utility.yul\":3576:3672   */\n    tag_198:\n        /* \"#utility.yul\":3613:3620   */\n      0x00\n        /* \"#utility.yul\":3642:3666   */\n      tag_277\n        /* \"#utility.yul\":3660:3665   */\n      dup3\n        /* \"#utility.yul\":3642:3666   */\n      tag_197\n      jump\t// in\n    tag_277:\n        /* \"#utility.yul\":3631:3666   */\n      swap1\n      pop\n        /* \"#utility.yul\":3576:3672   */\n      swap2\n      swap1\n      pop\n      jump\t// out\n        /* \"#utility.yul\":3678:3796   */\n    tag_199:\n        /* \"#utility.yul\":3765:3789   */\n      tag_279\n        /* \"#utility.yul\":3783:3788   */\n      dup2\n        /* \"#utility.yul\":3765:3789   */\n      tag_198\n      jump\t// in\n    tag_279:\n        /* \"#utility.yul\":3760:3763   */\n      dup3\n        /* \"#utility.yul\":3753:3790   */\n      mstore\n        /* \"#utility.yul\":3678:3796   */\n      pop\n      pop\n      jump\t// out\n        /* \"#utility.yul\":3802:4024   */\n    tag_38:\n        /* \"#utility.yul\":3895:3899   */\n      0x00\n        /* \"#utility.yul\":3933:3935   */\n      0x20\n        /* \"#utility.yul\":3922:3931   */\n      dup3\n        /* \"#utility.yul\":3918:3936   */\n      add\n        /* \"#utility.yul\":3910:3936   */\n      swap1\n      pop\n        /* \"#utility.yul\":3946:4017   */\n      tag_281\n        /* \"#utility.yul\":4014:4015   */\n      0x00\n        /* \"#utility.yul\":4003:4012   */\n      dup4\n        /* \"#utility.yul\":3999:4016   */\n      add\n        /* \"#utility.yul\":3990:3996   */\n      dup5\n        /* \"#utility.yul\":3946:4017   */\n      tag_199\n      jump\t// in\n    tag_281:\n        /* \"#utility.yul\":3802:4024   */\n      swap3\n      swap2\n      pop\n      pop\n      jump\t// out\n        /* \"#utility.yul\":4030:4152   */\n    tag_200:\n        /* \"#utility.yul\":4103:4127   */\n      tag_283\n        /* \"#utility.yul\":4121:4126   */\n      dup2\n        /* \"#utility.yul\":4103:4127   */\n      tag_198\n      jump\t// in\n    tag_283:\n        /* \"#utility.yul\":4096:4101   */\n      dup2\n        /* \"#utility.yul\":4093:4128   */\n      eq\n        /* \"#utility.yul\":4083:4146   */\n      tag_284\n      jumpi\n        /* \"#utility.yul\":4142:4143   */\n      0x00\n        /* \"#utility.yul\":4139:4140   */\n      dup1\n        /* \"#utility.yul\":4132:4144   */\n      revert\n        /* \"#utility.yul\":4083:4146   */\n    tag_284:\n        /* \"#utility.yul\":4030:4152   */\n      pop\n      jump\t// out\n        /* \"#utility.yul\":4158:4297   */\n    tag_201:\n        /* \"#utility.yul\":4204:4209   */\n      0x00\n        /* \"#utility.yul\":4242:4248   */\n      dup2\n        /* \"#utility.yul\":4229:4249   */\n      calldataload\n        /* \"#utility.yul\":4220:4249   */\n      swap1\n      pop\n        /* \"#utility.yul\":4258:4291   */\n      tag_286\n        /* \"#utility.yul\":4285:4290   */\n      dup2\n        /* \"#utility.yul\":4258:4291   */\n      tag_200\n      jump\t// in\n    tag_286:\n        /* \"#utility.yul\":4158:4297   */\n      swap3\n      swap2\n      pop\n      pop\n      jump\t// out\n        /* \"#utility.yul\":4303:4777   */\n    tag_42:\n        /* \"#utility.yul\":4371:4377   */\n      0x00\n        /* \"#utility.yul\":4379:4385   */\n      dup1\n        /* \"#utility.yul\":4428:4430   */\n      0x40\n        /* \"#utility.yul\":4416:4425   */\n      dup4\n        /* \"#utility.yul\":4407:4414   */\n      dup6\n        /* \"#utility.yul\":4403:4426   */\n      sub\n        /* \"#utility.yul\":4399:4431   */\n      slt\n        /* \"#utility.yul\":4396:4515   */\n      iszero\n      tag_288\n      jumpi\n        /* \"#utility.yul\":4434:4513   */\n      tag_289\n      tag_182\n      jump\t// in\n    tag_289:\n        /* \"#utility.yul\":4396:4515   */\n    tag_288:\n        /* \"#utility.yul\":4554:4555   */\n      0x00\n        /* \"#utility.yul\":4579:4632   */\n      tag_290\n        /* \"#utility.yul\":4624:4631   */\n      dup6\n        /* \"#utility.yul\":4615:4621   */\n      dup3\n        /* \"#utility.yul\":4604:4613   */\n      dup7\n        /* \"#utility.yul\":4600:4622   */\n      add\n        /* \"#utility.yul\":4579:4632   */\n      tag_201\n      jump\t// in\n    tag_290:\n        /* \"#utility.yul\":4569:4632   */\n      swap3\n      pop\n        /* \"#utility.yul\":4525:4642   */\n      pop\n        /* \"#utility.yul\":4681:4683   */\n      0x20\n        /* \"#utility.yul\":4707:4760   */\n      tag_291\n        /* \"#utility.yul\":4752:4759   */\n      dup6\n        /* \"#utility.yul\":4743:4749   */\n      dup3\n        /* \"#utility.yul\":4732:4741   */\n      dup7\n        /* \"#utility.yul\":4728:4750   */\n      add\n        /* \"#utility.yul\":4707:4760   */\n      tag_196\n      jump\t// in\n    tag_291:\n        /* \"#utility.yul\":4697:4760   */\n      swap2\n      pop\n        /* \"#utility.yul\":4652:4770   */\n      pop\n        /* \"#utility.yul\":4303:4777   */\n      swap3\n      pop\n      swap3\n      swap1\n      pop\n      jump\t// out\n        /* \"#utility.yul\":4783:5402   */\n    tag_46:\n        /* \"#utility.yul\":4860:4866   */\n      0x00\n        /* \"#utility.yul\":4868:4874   */\n      dup1\n        /* \"#utility.yul\":4876:4882   */\n      0x00\n        /* \"#utility.yul\":4925:4927   */\n      0x60\n        /* \"#utility.yul\":4913:4922   */\n      dup5\n        /* \"#utility.yul\":4904:4911   */\n      dup7\n        /* \"#utility.yul\":4900:4923   */\n      sub\n        /* \"#utility.yul\":4896:4928   */\n      slt\n        /* \"#utility.yul\":4893:5012   */\n      iszero\n      tag_293\n      jumpi\n        /* \"#utility.yul\":4931:5010   */\n      tag_294\n      tag_182\n      jump\t// in\n    tag_294:\n        /* \"#utility.yul\":4893:5012   */\n    tag_293:\n        /* \"#utility.yul\":5051:5052   */\n      0x00\n        /* \"#utility.yul\":5076:5129   */\n      tag_295\n        /* \"#utility.yul\":5121:5128   */\n      dup7\n        /* \"#utility.yul\":5112:5118   */\n      dup3\n        /* \"#utility.yul\":5101:5110   */\n      dup8\n        /* \"#utility.yul\":5097:5119   */\n      add\n        /* \"#utility.yul\":5076:5129   */\n      tag_201\n      jump\t// in\n    tag_295:\n        /* \"#utility.yul\":5066:5129   */\n      swap4\n      pop\n        /* \"#utility.yul\":5022:5139   */\n      pop\n        /* \"#utility.yul\":5178:5180   */\n      0x20\n        /* \"#utility.yul\":5204:5257   */\n      tag_296\n        /* \"#utility.yul\":5249:5256   */\n      dup7\n        /* \"#utility.yul\":5240:5246   */\n      dup3\n        /* \"#utility.yul\":5229:5238   */\n      dup8\n        /* \"#utility.yul\":5225:5247   */\n      add\n        /* \"#utility.yul\":5204:5257   */\n      tag_201\n      jump\t// in\n    tag_296:\n        /* \"#utility.yul\":5194:5257   */\n      swap3\n      pop\n        /* \"#utility.yul\":5149:5267   */\n      pop\n        /* \"#utility.yul\":5306:5308   */\n      0x40\n        /* \"#utility.yul\":5332:5385   */\n      tag_297\n        /* \"#utility.yul\":5377:5384   */\n      dup7\n        /* \"#utility.yul\":5368:5374   */\n      dup3\n        /* \"#utility.yul\":5357:5366   */\n      dup8\n        /* \"#utility.yul\":5353:5375   */\n      add\n        /* \"#utility.yul\":5332:5385   */\n      tag_196\n      jump\t// in\n    tag_297:\n        /* \"#utility.yul\":5322:5385   */\n      swap2\n      pop\n        /* \"#utility.yul\":5277:5395   */\n      pop\n        /* \"#utility.yul\":4783:5402   */\n      swap3\n      pop\n      swap3\n      pop\n      swap3\n      jump\t// out\n        /* \"#utility.yul\":5408:5737   */\n    tag_67:\n        /* \"#utility.yul\":5467:5473   */\n      0x00\n        /* \"#utility.yul\":5516:5518   */\n      0x20\n        /* \"#utility.yul\":5504:5513   */\n      dup3\n        /* \"#utility.yul\":5495:5502   */\n      dup5\n        /* \"#utility.yul\":5491:5514   */\n      sub\n        /* \"#utility.yul\":5487:5519   */\n      slt\n        /* \"#utility.yul\":5484:5603   */\n      iszero\n      tag_299\n      jumpi\n        /* \"#utility.yul\":5522:5601   */\n      tag_300\n      tag_182\n      jump\t// in\n    tag_300:\n        /* \"#utility.yul\":5484:5603   */\n    tag_299:\n        /* \"#utility.yul\":5642:5643   */\n      0x00\n        /* \"#utility.yul\":5667:5720   */\n      tag_301\n        /* \"#utility.yul\":5712:5719   */\n      dup5\n        /* \"#utility.yul\":5703:5709   */\n      dup3\n        /* \"#utility.yul\":5692:5701   */\n      dup6\n        /* \"#utility.yul\":5688:5710   */\n      add\n        /* \"#utility.yul\":5667:5720   */\n      tag_201\n      jump\t// in\n    tag_301:\n        /* \"#utility.yul\":5657:5720   */\n      swap2\n      pop\n        /* \"#utility.yul\":5613:5730   */\n      pop\n        /* \"#utility.yul\":5408:5737   */\n      swap3\n      swap2\n      pop\n      pop\n      jump\t// out\n        /* \"#utility.yul\":5743:5861   */\n    tag_202:\n        /* \"#utility.yul\":5830:5854   */\n      tag_303\n        /* \"#utility.yul\":5848:5853   */\n      dup2\n        /* \"#utility.yul\":5830:5854   */\n      tag_194\n      jump\t// in\n    tag_303:\n        /* \"#utility.yul\":5825:5828   */\n      dup3\n        /* \"#utility.yul\":5818:5855   */\n      mstore\n        /* \"#utility.yul\":5743:5861   */\n      pop\n      pop\n      jump\t// out\n        /* \"#utility.yul\":5867:6089   */\n    tag_70:\n        /* \"#utility.yul\":5960:5964   */\n      0x00\n        /* \"#utility.yul\":5998:6000   */\n      0x20\n        /* \"#utility.yul\":5987:5996   */\n      dup3\n        /* \"#utility.yul\":5983:6001   */\n      add\n        /* \"#utility.yul\":5975:6001   */\n      swap1\n      pop\n        /* \"#utility.yul\":6011:6082   */\n      tag_305\n        /* \"#utility.yul\":6079:6080   */\n      0x00\n        /* \"#utility.yul\":6068:6077   */\n      dup4\n        /* \"#utility.yul\":6064:6081   */\n      add\n        /* \"#utility.yul\":6055:6061   */\n      dup5\n        /* \"#utility.yul\":6011:6082   */\n      tag_202\n      jump\t// in\n    tag_305:\n        /* \"#utility.yul\":5867:6089   */\n      swap3\n      swap2\n      pop\n      pop\n      jump\t// out\n        /* \"#utility.yul\":6095:6211   */\n    tag_203:\n        /* \"#utility.yul\":6165:6186   */\n      tag_307\n        /* \"#utility.yul\":6180:6185   */\n      dup2\n        /* \"#utility.yul\":6165:6186   */\n      tag_187\n      jump\t// in\n    tag_307:\n        /* \"#utility.yul\":6158:6163   */\n      dup2\n        /* \"#utility.yul\":6155:6187   */\n      eq\n        /* \"#utility.yul\":6145:6205   */\n      tag_308\n      jumpi\n        /* \"#utility.yul\":6201:6202   */\n      0x00\n        /* \"#utility.yul\":6198:6199   */\n      dup1\n        /* \"#utility.yul\":6191:6203   */\n      revert\n        /* \"#utility.yul\":6145:6205   */\n    tag_308:\n        /* \"#utility.yul\":6095:6211   */\n      pop\n      jump\t// out\n        /* \"#utility.yul\":6217:6350   */\n    tag_204:\n        /* \"#utility.yul\":6260:6265   */\n      0x00\n        /* \"#utility.yul\":6298:6304   */\n      dup2\n        /* \"#utility.yul\":6285:6305   */\n      calldataload\n        /* \"#utility.yul\":6276:6305   */\n      swap1\n      pop\n        /* \"#utility.yul\":6314:6344   */\n      tag_310\n        /* \"#utility.yul\":6338:6343   */\n      dup2\n        /* \"#utility.yul\":6314:6344   */\n      tag_203\n      jump\t// in\n    tag_310:\n        /* \"#utility.yul\":6217:6350   */\n      swap3\n      swap2\n      pop\n      pop\n      jump\t// out\n        /* \"#utility.yul\":6356:6824   */\n    tag_78:\n        /* \"#utility.yul\":6421:6427   */\n      0x00\n        /* \"#utility.yul\":6429:6435   */\n      dup1\n        /* \"#utility.yul\":6478:6480   */\n      0x40\n        /* \"#utility.yul\":6466:6475   */\n      dup4\n        /* \"#utility.yul\":6457:6464   */\n      dup6\n        /* \"#utility.yul\":6453:6476   */\n      sub\n        /* \"#utility.yul\":6449:6481   */\n      slt\n        /* \"#utility.yul\":6446:6565   */\n      iszero\n      tag_312\n      jumpi\n        /* \"#utility.yul\":6484:6563   */\n      tag_313\n      tag_182\n      jump\t// in\n    tag_313:\n        /* \"#utility.yul\":6446:6565   */\n    tag_312:\n        /* \"#utility.yul\":6604:6605   */\n      0x00\n        /* \"#utility.yul\":6629:6682   */\n      tag_314\n        /* \"#utility.yul\":6674:6681   */\n      dup6\n        /* \"#utility.yul\":6665:6671   */\n      dup3\n        /* \"#utility.yul\":6654:6663   */\n      dup7\n        /* \"#utility.yul\":6650:6672   */\n      add\n        /* \"#utility.yul\":6629:6682   */\n      tag_201\n      jump\t// in\n    tag_314:\n        /* \"#utility.yul\":6619:6682   */\n      swap3\n      pop\n        /* \"#utility.yul\":6575:6692   */\n      pop\n        /* \"#utility.yul\":6731:6733   */\n      0x20\n        /* \"#utility.yul\":6757:6807   */\n      tag_315\n        /* \"#utility.yul\":6799:6806   */\n      dup6\n        /* \"#utility.yul\":6790:6796   */\n      dup3\n        /* \"#utility.yul\":6779:6788   */\n      dup7\n        /* \"#utility.yul\":6775:6797   */\n      add\n        /* \"#utility.yul\":6757:6807   */\n      tag_204\n      jump\t// in\n    tag_315:\n        /* \"#utility.yul\":6747:6807   */\n      swap2\n      pop\n        /* \"#utility.yul\":6702:6817   */\n      pop\n        /* \"#utility.yul\":6356:6824   */\n      swap3\n      pop\n      swap3\n      swap1\n      pop\n      jump\t// out\n        /* \"#utility.yul\":6830:6947   */\n    tag_205:\n        /* \"#utility.yul\":6939:6940   */\n      0x00\n        /* \"#utility.yul\":6936:6937   */\n      dup1\n        /* \"#utility.yul\":6929:6941   */\n      revert\n        /* \"#utility.yul\":6953:7070   */\n    tag_206:\n        /* \"#utility.yul\":7062:7063   */\n      0x00\n        /* \"#utility.yul\":7059:7060   */\n      dup1\n        /* \"#utility.yul\":7052:7064   */\n      revert\n        /* \"#utility.yul\":7076:7193   */\n    tag_207:\n        /* \"#utility.yul\":7185:7186   */\n      0x00\n        /* \"#utility.yul\":7182:7183   */\n      dup1\n        /* \"#utility.yul\":7175:7187   */\n      revert\n        /* \"#utility.yul\":7212:7764   */\n    tag_208:\n        /* \"#utility.yul\":7269:7277   */\n      0x00\n        /* \"#utility.yul\":7279:7285   */\n      dup1\n        /* \"#utility.yul\":7329:7332   */\n      dup4\n        /* \"#utility.yul\":7322:7326   */\n      0x1f\n        /* \"#utility.yul\":7314:7320   */\n      dup5\n        /* \"#utility.yul\":7310:7327   */\n      add\n        /* \"#utility.yul\":7306:7333   */\n      slt\n        /* \"#utility.yul\":7296:7418   */\n      tag_320\n      jumpi\n        /* \"#utility.yul\":7337:7416   */\n      tag_321\n      tag_205\n      jump\t// in\n    tag_321:\n        /* \"#utility.yul\":7296:7418   */\n    tag_320:\n        /* \"#utility.yul\":7450:7456   */\n      dup3\n        /* \"#utility.yul\":7437:7457   */\n      calldataload\n        /* \"#utility.yul\":7427:7457   */\n      swap1\n      pop\n        /* \"#utility.yul\":7480:7498   */\n      0xffffffffffffffff\n        /* \"#utility.yul\":7472:7478   */\n      dup2\n        /* \"#utility.yul\":7469:7499   */\n      gt\n        /* \"#utility.yul\":7466:7583   */\n      iszero\n      tag_322\n      jumpi\n        /* \"#utility.yul\":7502:7581   */\n      tag_323\n      tag_206\n      jump\t// in\n    tag_323:\n        /* \"#utility.yul\":7466:7583   */\n    tag_322:\n        /* \"#utility.yul\":7616:7620   */\n      0x20\n        /* \"#utility.yul\":7608:7614   */\n      dup4\n        /* \"#utility.yul\":7604:7621   */\n      add\n        /* \"#utility.yul\":7592:7621   */\n      swap2\n      pop\n        /* \"#utility.yul\":7670:7673   */\n      dup4\n        /* \"#utility.yul\":7662:7666   */\n      0x01\n        /* \"#utility.yul\":7654:7660   */\n      dup3\n        /* \"#utility.yul\":7650:7667   */\n      mul\n        /* \"#utility.yul\":7640:7648   */\n      dup4\n        /* \"#utility.yul\":7636:7668   */\n      add\n        /* \"#utility.yul\":7633:7674   */\n      gt\n        /* \"#utility.yul\":7630:7758   */\n      iszero\n      tag_324\n      jumpi\n        /* \"#utility.yul\":7677:7756   */\n      tag_325\n      tag_207\n      jump\t// in\n    tag_325:\n        /* \"#utility.yul\":7630:7758   */\n    tag_324:\n        /* \"#utility.yul\":7212:7764   */\n      swap3\n      pop\n      swap3\n      swap1\n      pop\n      jump\t// out\n        /* \"#utility.yul\":7770:8733   */\n    tag_82:\n        /* \"#utility.yul\":7867:7873   */\n      0x00\n        /* \"#utility.yul\":7875:7881   */\n      dup1\n        /* \"#utility.yul\":7883:7889   */\n      0x00\n        /* \"#utility.yul\":7891:7897   */\n      dup1\n        /* \"#utility.yul\":7899:7905   */\n      0x00\n        /* \"#utility.yul\":7948:7951   */\n      0x80\n        /* \"#utility.yul\":7936:7945   */\n      dup7\n        /* \"#utility.yul\":7927:7934   */\n      dup9\n        /* \"#utility.yul\":7923:7946   */\n      sub\n        /* \"#utility.yul\":7919:7952   */\n      slt\n        /* \"#utility.yul\":7916:8036   */\n      iszero\n      tag_327\n      jumpi\n        /* \"#utility.yul\":7955:8034   */\n      tag_328\n      tag_182\n      jump\t// in\n    tag_328:\n        /* \"#utility.yul\":7916:8036   */\n    tag_327:\n        /* \"#utility.yul\":8075:8076   */\n      0x00\n        /* \"#utility.yul\":8100:8153   */\n      tag_329\n        /* \"#utility.yul\":8145:8152   */\n      dup9\n        /* \"#utility.yul\":8136:8142   */\n      dup3\n        /* \"#utility.yul\":8125:8134   */\n      dup10\n        /* \"#utility.yul\":8121:8143   */\n      add\n        /* \"#utility.yul\":8100:8153   */\n      tag_201\n      jump\t// in\n    tag_329:\n        /* \"#utility.yul\":8090:8153   */\n      swap6\n      pop\n        /* \"#utility.yul\":8046:8163   */\n      pop\n        /* \"#utility.yul\":8202:8204   */\n      0x20\n        /* \"#utility.yul\":8228:8281   */\n      tag_330\n        /* \"#utility.yul\":8273:8280   */\n      dup9\n        /* \"#utility.yul\":8264:8270   */\n      dup3\n        /* \"#utility.yul\":8253:8262   */\n      dup10\n        /* \"#utility.yul\":8249:8271   */\n      add\n        /* \"#utility.yul\":8228:8281   */\n      tag_201\n      jump\t// in\n    tag_330:\n        /* \"#utility.yul\":8218:8281   */\n      swap5\n      pop\n        /* \"#utility.yul\":8173:8291   */\n      pop\n        /* \"#utility.yul\":8330:8332   */\n      0x40\n        /* \"#utility.yul\":8356:8409   */\n      tag_331\n        /* \"#utility.yul\":8401:8408   */\n      dup9\n        /* \"#utility.yul\":8392:8398   */\n      dup3\n        /* \"#utility.yul\":8381:8390   */\n      dup10\n        /* \"#utility.yul\":8377:8399   */\n      add\n        /* \"#utility.yul\":8356:8409   */\n      tag_196\n      jump\t// in\n    tag_331:\n        /* \"#utility.yul\":8346:8409   */\n      swap4\n      pop\n        /* \"#utility.yul\":8301:8419   */\n      pop\n        /* \"#utility.yul\":8486:8488   */\n      0x60\n        /* \"#utility.yul\":8475:8484   */\n      dup7\n        /* \"#utility.yul\":8471:8489   */\n      add\n        /* \"#utility.yul\":8458:8490   */\n      calldataload\n        /* \"#utility.yul\":8517:8535   */\n      0xffffffffffffffff\n        /* \"#utility.yul\":8509:8515   */\n      dup2\n        /* \"#utility.yul\":8506:8536   */\n      gt\n        /* \"#utility.yul\":8503:8620   */\n      iszero\n      tag_332\n      jumpi\n        /* \"#utility.yul\":8539:8618   */\n      tag_333\n      tag_183\n      jump\t// in\n    tag_333:\n        /* \"#utility.yul\":8503:8620   */\n    tag_332:\n        /* \"#utility.yul\":8652:8716   */\n      tag_334\n        /* \"#utility.yul\":8708:8715   */\n      dup9\n        /* \"#utility.yul\":8699:8705   */\n      dup3\n        /* \"#utility.yul\":8688:8697   */\n      dup10\n        /* \"#utility.yul\":8684:8706   */\n      add\n        /* \"#utility.yul\":8652:8716   */\n      tag_208\n      jump\t// in\n    tag_334:\n        /* \"#utility.yul\":8634:8716   */\n      swap3\n      pop\n      swap3\n      pop\n        /* \"#utility.yul\":8429:8726   */\n      pop\n        /* \"#utility.yul\":7770:8733   */\n      swap3\n      swap6\n      pop\n      swap3\n      swap6\n      swap1\n      swap4\n      pop\n      jump\t// out\n        /* \"#utility.yul\":8739:9213   */\n    tag_87:\n        /* \"#utility.yul\":8807:8813   */\n      0x00\n        /* \"#utility.yul\":8815:8821   */\n      dup1\n        /* \"#utility.yul\":8864:8866   */\n      0x40\n        /* \"#utility.yul\":8852:8861   */\n      dup4\n        /* \"#utility.yul\":8843:8850   */\n      dup6\n        /* \"#utility.yul\":8839:8862   */\n      sub\n        /* \"#utility.yul\":8835:8867   */\n      slt\n        /* \"#utility.yul\":8832:8951   */\n      iszero\n      tag_336\n      jumpi\n        /* \"#utility.yul\":8870:8949   */\n      tag_337\n      tag_182\n      jump\t// in\n    tag_337:\n        /* \"#utility.yul\":8832:8951   */\n    tag_336:\n        /* \"#utility.yul\":8990:8991   */\n      0x00\n        /* \"#utility.yul\":9015:9068   */\n      tag_338\n        /* \"#utility.yul\":9060:9067   */\n      dup6\n        /* \"#utility.yul\":9051:9057   */\n      dup3\n        /* \"#utility.yul\":9040:9049   */\n      dup7\n        /* \"#utility.yul\":9036:9058   */\n      add\n        /* \"#utility.yul\":9015:9068   */\n      tag_201\n      jump\t// in\n    tag_338:\n        /* \"#utility.yul\":9005:9068   */\n      swap3\n      pop\n        /* \"#utility.yul\":8961:9078   */\n      pop\n        /* \"#utility.yul\":9117:9119   */\n      0x20\n        /* \"#utility.yul\":9143:9196   */\n      tag_339\n        /* \"#utility.yul\":9188:9195   */\n      dup6\n        /* \"#utility.yul\":9179:9185   */\n      dup3\n        /* \"#utility.yul\":9168:9177   */\n      dup7\n        /* \"#utility.yul\":9164:9186   */\n      add\n        /* \"#utility.yul\":9143:9196   */\n      tag_201\n      jump\t// in\n    tag_339:\n        /* \"#utility.yul\":9133:9196   */\n      swap2\n      pop\n        /* \"#utility.yul\":9088:9206   */\n      pop\n        /* \"#utility.yul\":8739:9213   */\n      swap3\n      pop\n      swap3\n      swap1\n      pop\n      jump\t// out\n        /* \"#utility.yul\":9219:9399   */\n    tag_209:\n        /* \"#utility.yul\":9267:9344   */\n      0x4e487b7100000000000000000000000000000000000000000000000000000000\n        /* \"#utility.yul\":9264:9265   */\n      0x00\n        /* \"#utility.yul\":9257:9345   */\n      mstore\n        /* \"#utility.yul\":9364:9368   */\n      0x22\n        /* \"#utility.yul\":9361:9362   */\n      0x04\n        /* \"#utility.yul\":9354:9369   */\n      mstore\n        /* \"#utility.yul\":9388:9392   */\n      0x24\n        /* \"#utility.yul\":9385:9386   */\n      0x00\n        /* \"#utility.yul\":9378:9393   */\n      revert\n        /* \"#utility.yul\":9405:9725   */\n    tag_98:\n        /* \"#utility.yul\":9449:9455   */\n      0x00\n        /* \"#utility.yul\":9486:9487   */\n      0x02\n        /* \"#utility.yul\":9480:9484   */\n      dup3\n        /* \"#utility.yul\":9476:9488   */\n      div\n        /* \"#utility.yul\":9466:9488   */\n      swap1\n      pop\n        /* \"#utility.yul\":9533:9534   */\n      0x01\n        /* \"#utility.yul\":9527:9531   */\n      dup3\n        /* \"#utility.yul\":9523:9535   */\n      and\n        /* \"#utility.yul\":9554:9572   */\n      dup1\n        /* \"#utility.yul\":9544:9625   */\n      tag_342\n      jumpi\n        /* \"#utility.yul\":9610:9614   */\n      0x7f\n        /* \"#utility.yul\":9602:9608   */\n      dup3\n        /* \"#utility.yul\":9598:9615   */\n      and\n        /* \"#utility.yul\":9588:9615   */\n      swap2\n      pop\n        /* \"#utility.yul\":9544:9625   */\n    tag_342:\n        /* \"#utility.yul\":9672:9674   */\n      0x20\n        /* \"#utility.yul\":9664:9670   */\n      dup3\n        /* \"#utility.yul\":9661:9675   */\n      lt\n        /* \"#utility.yul\":9641:9659   */\n      dup2\n        /* \"#utility.yul\":9638:9676   */\n      sub\n        /* \"#utility.yul\":9635:9719   */\n      tag_343\n      jumpi\n        /* \"#utility.yul\":9691:9709   */\n      tag_344\n      tag_209\n      jump\t// in\n    tag_344:\n        /* \"#utility.yul\":9635:9719   */\n    tag_343:\n        /* \"#utility.yul\":9456:9725   */\n      pop\n        /* \"#utility.yul\":9405:9725   */\n      swap2\n      swap1\n      pop\n      jump\t// out\n        /* \"#utility.yul\":9731:9900   */\n    tag_210:\n        /* \"#utility.yul\":9871:9892   */\n      0x746f6b656e20646f65736e277420657869737400000000000000000000000000\n        /* \"#utility.yul\":9867:9868   */\n      0x00\n        /* \"#utility.yul\":9859:9865   */\n      dup3\n        /* \"#utility.yul\":9855:9869   */\n      add\n        /* \"#utility.yul\":9848:9893   */\n      mstore\n        /* \"#utility.yul\":9731:9900   */\n      pop\n      jump\t// out\n        /* \"#utility.yul\":9906:10272   */\n    tag_211:\n        /* \"#utility.yul\":10048:10051   */\n      0x00\n        /* \"#utility.yul\":10069:10136   */\n      tag_347\n        /* \"#utility.yul\":10133:10135   */\n      0x13\n        /* \"#utility.yul\":10128:10131   */\n      dup4\n        /* \"#utility.yul\":10069:10136   */\n      tag_190\n      jump\t// in\n    tag_347:\n        /* \"#utility.yul\":10062:10136   */\n      swap2\n      pop\n        /* \"#utility.yul\":10145:10238   */\n      tag_348\n        /* \"#utility.yul\":10234:10237   */\n      dup3\n        /* \"#utility.yul\":10145:10238   */\n      tag_210\n      jump\t// in\n    tag_348:\n        /* \"#utility.yul\":10263:10265   */\n      0x20\n        /* \"#utility.yul\":10258:10261   */\n      dup3\n        /* \"#utility.yul\":10254:10266   */\n      add\n        /* \"#utility.yul\":10247:10266   */\n      swap1\n      pop\n        /* \"#utility.yul\":9906:10272   */\n      swap2\n      swap1\n      pop\n      jump\t// out\n        /* \"#utility.yul\":10278:10697   */\n    tag_106:\n        /* \"#utility.yul\":10444:10448   */\n      0x00\n        /* \"#utility.yul\":10482:10484   */\n      0x20\n        /* \"#utility.yul\":10471:10480   */\n      dup3\n        /* \"#utility.yul\":10467:10485   */\n      add\n        /* \"#utility.yul\":10459:10485   */\n      swap1\n      pop\n        /* \"#utility.yul\":10531:10540   */\n      dup2\n        /* \"#utility.yul\":10525:10529   */\n      dup2\n        /* \"#utility.yul\":10521:10541   */\n      sub\n        /* \"#utility.yul\":10517:10518   */\n      0x00\n        /* \"#utility.yul\":10506:10515   */\n      dup4\n        /* \"#utility.yul\":10502:10519   */\n      add\n        /* \"#utility.yul\":10495:10542   */\n      mstore\n        /* \"#utility.yul\":10559:10690   */\n      tag_350\n        /* \"#utility.yul\":10685:10689   */\n      dup2\n        /* \"#utility.yul\":10559:10690   */\n      tag_211\n      jump\t// in\n    tag_350:\n        /* \"#utility.yul\":10551:10690   */\n      swap1\n      pop\n        /* \"#utility.yul\":10278:10697   */\n      swap2\n      swap1\n      pop\n      jump\t// out\n        /* \"#utility.yul\":10703:10867   */\n    tag_212:\n        /* \"#utility.yul\":10843:10859   */\n      0x6e6f7420617574686f72697a6564000000000000000000000000000000000000\n        /* \"#utility.yul\":10839:10840   */\n      0x00\n        /* \"#utility.yul\":10831:10837   */\n      dup3\n        /* \"#utility.yul\":10827:10841   */\n      add\n        /* \"#utility.yul\":10820:10860   */\n      mstore\n        /* \"#utility.yul\":10703:10867   */\n      pop\n      jump\t// out\n        /* \"#utility.yul\":10873:11239   */\n    tag_213:\n        /* \"#utility.yul\":11015:11018   */\n      0x00\n        /* \"#utility.yul\":11036:11103   */\n      tag_353\n        /* \"#utility.yul\":11100:11102   */\n      0x0e\n        /* \"#utility.yul\":11095:11098   */\n      dup4\n        /* \"#utility.yul\":11036:11103   */\n      tag_190\n      jump\t// in\n    tag_353:\n        /* \"#utility.yul\":11029:11103   */\n      swap2\n      pop\n        /* \"#utility.yul\":11112:11205   */\n      tag_354\n        /* \"#utility.yul\":11201:11204   */\n      dup3\n        /* \"#utility.yul\":11112:11205   */\n      tag_212\n      jump\t// in\n    tag_354:\n        /* \"#utility.yul\":11230:11232   */\n      0x20\n        /* \"#utility.yul\":11225:11228   */\n      dup3\n        /* \"#utility.yul\":11221:11233   */\n      add\n        /* \"#utility.yul\":11214:11233   */\n      swap1\n      pop\n        /* \"#utility.yul\":10873:11239   */\n      swap2\n      swap1\n      pop\n      jump\t// out\n        /* \"#utility.yul\":11245:11664   */\n    tag_111:\n        /* \"#utility.yul\":11411:11415   */\n      0x00\n        /* \"#utility.yul\":11449:11451   */\n      0x20\n        /* \"#utility.yul\":11438:11447   */\n      dup3\n        /* \"#utility.yul\":11434:11452   */\n      add\n        /* \"#utility.yul\":11426:11452   */\n      swap1\n      pop\n        /* \"#utility.yul\":11498:11507   */\n      dup2\n        /* \"#utility.yul\":11492:11496   */\n      dup2\n        /* \"#utility.yul\":11488:11508   */\n      sub\n        /* \"#utility.yul\":11484:11485   */\n      0x00\n        /* \"#utility.yul\":11473:11482   */\n      dup4\n        /* \"#utility.yul\":11469:11486   */\n      add\n        /* \"#utility.yul\":11462:11509   */\n      mstore\n        /* \"#utility.yul\":11526:11657   */\n      tag_356\n        /* \"#utility.yul\":11652:11656   */\n      dup2\n        /* \"#utility.yul\":11526:11657   */\n      tag_213\n      jump\t// in\n    tag_356:\n        /* \"#utility.yul\":11518:11657   */\n      swap1\n      pop\n        /* \"#utility.yul\":11245:11664   */\n      swap2\n      swap1\n      pop\n      jump\t// out\n        /* \"#utility.yul\":11670:11844   */\n    tag_214:\n        /* \"#utility.yul\":11810:11836   */\n      0x6e6f7420616e20617574686f72697a6564206d696e7465720000000000000000\n        /* \"#utility.yul\":11806:11807   */\n      0x00\n        /* \"#utility.yul\":11798:11804   */\n      dup3\n        /* \"#utility.yul\":11794:11808   */\n      add\n        /* \"#utility.yul\":11787:11837   */\n      mstore\n        /* \"#utility.yul\":11670:11844   */\n      pop\n      jump\t// out\n        /* \"#utility.yul\":11850:12216   */\n    tag_215:\n        /* \"#utility.yul\":11992:11995   */\n      0x00\n        /* \"#utility.yul\":12013:12080   */\n      tag_359\n        /* \"#utility.yul\":12077:12079   */\n      0x18\n        /* \"#utility.yul\":12072:12075   */\n      dup4\n        /* \"#utility.yul\":12013:12080   */\n      tag_190\n      jump\t// in\n    tag_359:\n        /* \"#utility.yul\":12006:12080   */\n      swap2\n      pop\n        /* \"#utility.yul\":12089:12182   */\n      tag_360\n        /* \"#utility.yul\":12178:12181   */\n      dup3\n        /* \"#utility.yul\":12089:12182   */\n      tag_214\n      jump\t// in\n    tag_360:\n        /* \"#utility.yul\":12207:12209   */\n      0x20\n        /* \"#utility.yul\":12202:12205   */\n      dup3\n        /* \"#utility.yul\":12198:12210   */\n      add\n        /* \"#utility.yul\":12191:12210   */\n      swap1\n      pop\n        /* \"#utility.yul\":11850:12216   */\n      swap2\n      swap1\n      pop\n      jump\t// out\n        /* \"#utility.yul\":12222:12641   */\n    tag_118:\n        /* \"#utility.yul\":12388:12392   */\n      0x00\n        /* \"#utility.yul\":12426:12428   */\n      0x20\n        /* \"#utility.yul\":12415:12424   */\n      dup3\n        /* \"#utility.yul\":12411:12429   */\n      add\n        /* \"#utility.yul\":12403:12429   */\n      swap1\n      pop\n        /* \"#utility.yul\":12475:12484   */\n      dup2\n        /* \"#utility.yul\":12469:12473   */\n      dup2\n        /* \"#utility.yul\":12465:12485   */\n      sub\n        /* \"#utility.yul\":12461:12462   */\n      0x00\n        /* \"#utility.yul\":12450:12459   */\n      dup4\n        /* \"#utility.yul\":12446:12463   */\n      add\n        /* \"#utility.yul\":12439:12486   */\n      mstore\n        /* \"#utility.yul\":12503:12634   */\n      tag_362\n        /* \"#utility.yul\":12629:12633   */\n      dup2\n        /* \"#utility.yul\":12503:12634   */\n      tag_215\n      jump\t// in\n    tag_362:\n        /* \"#utility.yul\":12495:12634   */\n      swap1\n      pop\n        /* \"#utility.yul\":12222:12641   */\n      swap2\n      swap1\n      pop\n      jump\t// out\n        /* \"#utility.yul\":12647:12815   */\n    tag_216:\n        /* \"#utility.yul\":12730:12741   */\n      0x00\n        /* \"#utility.yul\":12764:12770   */\n      dup3\n        /* \"#utility.yul\":12759:12762   */\n      dup3\n        /* \"#utility.yul\":12752:12771   */\n      mstore\n        /* \"#utility.yul\":12804:12808   */\n      0x20\n        /* \"#utility.yul\":12799:12802   */\n      dup3\n        /* \"#utility.yul\":12795:12809   */\n      add\n        /* \"#utility.yul\":12780:12809   */\n      swap1\n      pop\n        /* \"#utility.yul\":12647:12815   */\n      swap3\n      swap2\n      pop\n      pop\n      jump\t// out\n        /* \"#utility.yul\":12821:12935   */\n    tag_217:\n      pop\n      jump\t// out\n        /* \"#utility.yul\":12941:13303   */\n    tag_218:\n        /* \"#utility.yul\":13082:13085   */\n      0x00\n        /* \"#utility.yul\":13103:13168   */\n      tag_366\n        /* \"#utility.yul\":13166:13167   */\n      0x00\n        /* \"#utility.yul\":13161:13164   */\n      dup4\n        /* \"#utility.yul\":13103:13168   */\n      tag_216\n      jump\t// in\n    tag_366:\n        /* \"#utility.yul\":13096:13168   */\n      swap2\n      pop\n        /* \"#utility.yul\":13177:13270   */\n      tag_367\n        /* \"#utility.yul\":13266:13269   */\n      dup3\n        /* \"#utility.yul\":13177:13270   */\n      tag_217\n      jump\t// in\n    tag_367:\n        /* \"#utility.yul\":13295:13296   */\n      0x00\n        /* \"#utility.yul\":13290:13293   */\n      dup3\n        /* \"#utility.yul\":13286:13297   */\n      add\n        /* \"#utility.yul\":13279:13297   */\n      swap1\n      pop\n        /* \"#utility.yul\":12941:13303   */\n      swap2\n      swap1\n      pop\n      jump\t// out\n        /* \"#utility.yul\":13309:14057   */\n    tag_125:\n        /* \"#utility.yul\":13558:13562   */\n      0x00\n        /* \"#utility.yul\":13596:13599   */\n      0x80\n        /* \"#utility.yul\":13585:13594   */\n      dup3\n        /* \"#utility.yul\":13581:13600   */\n      add\n        /* \"#utility.yul\":13573:13600   */\n      swap1\n      pop\n        /* \"#utility.yul\":13610:13681   */\n      tag_369\n        /* \"#utility.yul\":13678:13679   */\n      0x00\n        /* \"#utility.yul\":13667:13676   */\n      dup4\n        /* \"#utility.yul\":13663:13680   */\n      add\n        /* \"#utility.yul\":13654:13660   */\n      dup7\n        /* \"#utility.yul\":13610:13681   */\n      tag_199\n      jump\t// in\n    tag_369:\n        /* \"#utility.yul\":13691:13763   */\n      tag_370\n        /* \"#utility.yul\":13759:13761   */\n      0x20\n        /* \"#utility.yul\":13748:13757   */\n      dup4\n        /* \"#utility.yul\":13744:13762   */\n      add\n        /* \"#utility.yul\":13735:13741   */\n      dup6\n        /* \"#utility.yul\":13691:13763   */\n      tag_199\n      jump\t// in\n    tag_370:\n        /* \"#utility.yul\":13773:13845   */\n      tag_371\n        /* \"#utility.yul\":13841:13843   */\n      0x40\n        /* \"#utility.yul\":13830:13839   */\n      dup4\n        /* \"#utility.yul\":13826:13844   */\n      add\n        /* \"#utility.yul\":13817:13823   */\n      dup5\n        /* \"#utility.yul\":13773:13845   */\n      tag_202\n      jump\t// in\n    tag_371:\n        /* \"#utility.yul\":13892:13901   */\n      dup2\n        /* \"#utility.yul\":13886:13890   */\n      dup2\n        /* \"#utility.yul\":13882:13902   */\n      sub\n        /* \"#utility.yul\":13877:13879   */\n      0x60\n        /* \"#utility.yul\":13866:13875   */\n      dup4\n        /* \"#utility.yul\":13862:13880   */\n      add\n        /* \"#utility.yul\":13855:13903   */\n      mstore\n        /* \"#utility.yul\":13920:14050   */\n      tag_372\n        /* \"#utility.yul\":14045:14049   */\n      dup2\n        /* \"#utility.yul\":13920:14050   */\n      tag_218\n      jump\t// in\n    tag_372:\n        /* \"#utility.yul\":13912:14050   */\n      swap1\n      pop\n        /* \"#utility.yul\":13309:14057   */\n      swap5\n      swap4\n      pop\n      pop\n      pop\n      pop\n      jump\t// out\n        /* \"#utility.yul\":14063:14204   */\n    tag_219:\n        /* \"#utility.yul\":14119:14124   */\n      0x00\n        /* \"#utility.yul\":14150:14156   */\n      dup2\n        /* \"#utility.yul\":14144:14157   */\n      mload\n        /* \"#utility.yul\":14135:14157   */\n      swap1\n      pop\n        /* \"#utility.yul\":14166:14198   */\n      tag_374\n        /* \"#utility.yul\":14192:14197   */\n      dup2\n        /* \"#utility.yul\":14166:14198   */\n      tag_185\n      jump\t// in\n    tag_374:\n        /* \"#utility.yul\":14063:14204   */\n      swap3\n      swap2\n      pop\n      pop\n      jump\t// out\n        /* \"#utility.yul\":14210:14559   */\n    tag_129:\n        /* \"#utility.yul\":14279:14285   */\n      0x00\n        /* \"#utility.yul\":14328:14330   */\n      0x20\n        /* \"#utility.yul\":14316:14325   */\n      dup3\n        /* \"#utility.yul\":14307:14314   */\n      dup5\n        /* \"#utility.yul\":14303:14326   */\n      sub\n        /* \"#utility.yul\":14299:14331   */\n      slt\n        /* \"#utility.yul\":14296:14415   */\n      iszero\n      tag_376\n      jumpi\n        /* \"#utility.yul\":14334:14413   */\n      tag_377\n      tag_182\n      jump\t// in\n    tag_377:\n        /* \"#utility.yul\":14296:14415   */\n    tag_376:\n        /* \"#utility.yul\":14454:14455   */\n      0x00\n        /* \"#utility.yul\":14479:14542   */\n      tag_378\n        /* \"#utility.yul\":14534:14541   */\n      dup5\n        /* \"#utility.yul\":14525:14531   */\n      dup3\n        /* \"#utility.yul\":14514:14523   */\n      dup6\n        /* \"#utility.yul\":14510:14532   */\n      add\n        /* \"#utility.yul\":14479:14542   */\n      tag_219\n      jump\t// in\n    tag_378:\n        /* \"#utility.yul\":14469:14542   */\n      swap2\n      pop\n        /* \"#utility.yul\":14425:14552   */\n      pop\n        /* \"#utility.yul\":14210:14559   */\n      swap3\n      swap2\n      pop\n      pop\n      jump\t// out\n        /* \"#utility.yul\":14565:14731   */\n    tag_220:\n        /* \"#utility.yul\":14705:14723   */\n      0x756e7361666520726563697069656e7400000000000000000000000000000000\n        /* \"#utility.yul\":14701:14702   */\n      0x00\n        /* \"#utility.yul\":14693:14699   */\n      dup3\n        /* \"#utility.yul\":14689:14703   */\n      add\n        /* \"#utility.yul\":14682:14724   */\n      mstore\n        /* \"#utility.yul\":14565:14731   */\n      pop\n      jump\t// out\n        /* \"#utility.yul\":14737:15103   */\n    tag_221:\n        /* \"#utility.yul\":14879:14882   */\n      0x00\n        /* \"#utility.yul\":14900:14967   */\n      tag_381\n        /* \"#utility.yul\":14964:14966   */\n      0x10\n        /* \"#utility.yul\":14959:14962   */\n      dup4\n        /* \"#utility.yul\":14900:14967   */\n      tag_190\n      jump\t// in\n    tag_381:\n        /* \"#utility.yul\":14893:14967   */\n      swap2\n      pop\n        /* \"#utility.yul\":14976:15069   */\n      tag_382\n        /* \"#utility.yul\":15065:15068   */\n      dup3\n        /* \"#utility.yul\":14976:15069   */\n      tag_220\n      jump\t// in\n    tag_382:\n        /* \"#utility.yul\":15094:15096   */\n      0x20\n        /* \"#utility.yul\":15089:15092   */\n      dup3\n        /* \"#utility.yul\":15085:15097   */\n      add\n        /* \"#utility.yul\":15078:15097   */\n      swap1\n      pop\n        /* \"#utility.yul\":14737:15103   */\n      swap2\n      swap1\n      pop\n      jump\t// out\n        /* \"#utility.yul\":15109:15528   */\n    tag_132:\n        /* \"#utility.yul\":15275:15279   */\n      0x00\n        /* \"#utility.yul\":15313:15315   */\n      0x20\n        /* \"#utility.yul\":15302:15311   */\n      dup3\n        /* \"#utility.yul\":15298:15316   */\n      add\n        /* \"#utility.yul\":15290:15316   */\n      swap1\n      pop\n        /* \"#utility.yul\":15362:15371   */\n      dup2\n        /* \"#utility.yul\":15356:15360   */\n      dup2\n        /* \"#utility.yul\":15352:15372   */\n      sub\n        /* \"#utility.yul\":15348:15349   */\n      0x00\n        /* \"#utility.yul\":15337:15346   */\n      dup4\n        /* \"#utility.yul\":15333:15350   */\n      add\n        /* \"#utility.yul\":15326:15373   */\n      mstore\n        /* \"#utility.yul\":15390:15521   */\n      tag_384\n        /* \"#utility.yul\":15516:15520   */\n      dup2\n        /* \"#utility.yul\":15390:15521   */\n      tag_221\n      jump\t// in\n    tag_384:\n        /* \"#utility.yul\":15382:15521   */\n      swap1\n      pop\n        /* \"#utility.yul\":15109:15528   */\n      swap2\n      swap1\n      pop\n      jump\t// out\n        /* \"#utility.yul\":15534:15755   */\n    tag_222:\n        /* \"#utility.yul\":15674:15708   */\n      0x62616c616e636520717565727920666f7220746865207a65726f206164647265\n        /* \"#utility.yul\":15670:15671   */\n      0x00\n        /* \"#utility.yul\":15662:15668   */\n      dup3\n        /* \"#utility.yul\":15658:15672   */\n      add\n        /* \"#utility.yul\":15651:15709   */\n      mstore\n        /* \"#utility.yul\":15743:15747   */\n      0x7373000000000000000000000000000000000000000000000000000000000000\n        /* \"#utility.yul\":15738:15740   */\n      0x20\n        /* \"#utility.yul\":15730:15736   */\n      dup3\n        /* \"#utility.yul\":15726:15741   */\n      add\n        /* \"#utility.yul\":15719:15748   */\n      mstore\n        /* \"#utility.yul\":15534:15755   */\n      pop\n      jump\t// out\n        /* \"#utility.yul\":15761:16127   */\n    tag_223:\n        /* \"#utility.yul\":15903:15906   */\n      0x00\n        /* \"#utility.yul\":15924:15991   */\n      tag_387\n        /* \"#utility.yul\":15988:15990   */\n      0x22\n        /* \"#utility.yul\":15983:15986   */\n      dup4\n        /* \"#utility.yul\":15924:15991   */\n      tag_190\n      jump\t// in\n    tag_387:\n        /* \"#utility.yul\":15917:15991   */\n      swap2\n      pop\n        /* \"#utility.yul\":16000:16093   */\n      tag_388\n        /* \"#utility.yul\":16089:16092   */\n      dup3\n        /* \"#utility.yul\":16000:16093   */\n      tag_222\n      jump\t// in\n    tag_388:\n        /* \"#utility.yul\":16118:16120   */\n      0x40\n        /* \"#utility.yul\":16113:16116   */\n      dup3\n        /* \"#utility.yul\":16109:16121   */\n      add\n        /* \"#utility.yul\":16102:16121   */\n      swap1\n      pop\n        /* \"#utility.yul\":15761:16127   */\n      swap2\n      swap1\n      pop\n      jump\t// out\n        /* \"#utility.yul\":16133:16552   */\n    tag_139:\n        /* \"#utility.yul\":16299:16303   */\n      0x00\n        /* \"#utility.yul\":16337:16339   */\n      0x20\n        /* \"#utility.yul\":16326:16335   */\n      dup3\n        /* \"#utility.yul\":16322:16340   */\n      add\n        /* \"#utility.yul\":16314:16340   */\n      swap1\n      pop\n        /* \"#utility.yul\":16386:16395   */\n      dup2\n        /* \"#utility.yul\":16380:16384   */\n      dup2\n        /* \"#utility.yul\":16376:16396   */\n      sub\n        /* \"#utility.yul\":16372:16373   */\n      0x00\n        /* \"#utility.yul\":16361:16370   */\n      dup4\n        /* \"#utility.yul\":16357:16374   */\n      add\n        /* \"#utility.yul\":16350:16397   */\n      mstore\n        /* \"#utility.yul\":16414:16545   */\n      tag_390\n        /* \"#utility.yul\":16540:16544   */\n      dup2\n        /* \"#utility.yul\":16414:16545   */\n      tag_223\n      jump\t// in\n    tag_390:\n        /* \"#utility.yul\":16406:16545   */\n      swap1\n      pop\n        /* \"#utility.yul\":16133:16552   */\n      swap2\n      swap1\n      pop\n      jump\t// out\n        /* \"#utility.yul\":16558:16706   */\n    tag_224:\n        /* \"#utility.yul\":16656:16662   */\n      dup3\n        /* \"#utility.yul\":16651:16654   */\n      dup2\n        /* \"#utility.yul\":16646:16649   */\n      dup4\n        /* \"#utility.yul\":16633:16663   */\n      calldatacopy\n        /* \"#utility.yul\":16697:16698   */\n      0x00\n        /* \"#utility.yul\":16688:16694   */\n      dup4\n        /* \"#utility.yul\":16683:16686   */\n      dup4\n        /* \"#utility.yul\":16679:16695   */\n      add\n        /* \"#utility.yul\":16672:16699   */\n      mstore\n        /* \"#utility.yul\":16558:16706   */\n      pop\n      pop\n      pop\n      jump\t// out\n        /* \"#utility.yul\":16734:17048   */\n    tag_225:\n        /* \"#utility.yul\":16830:16833   */\n      0x00\n        /* \"#utility.yul\":16851:16921   */\n      tag_393\n        /* \"#utility.yul\":16914:16920   */\n      dup4\n        /* \"#utility.yul\":16909:16912   */\n      dup6\n        /* \"#utility.yul\":16851:16921   */\n      tag_216\n      jump\t// in\n    tag_393:\n        /* \"#utility.yul\":16844:16921   */\n      swap4\n      pop\n        /* \"#utility.yul\":16931:16987   */\n      tag_394\n        /* \"#utility.yul\":16980:16986   */\n      dup4\n        /* \"#utility.yul\":16975:16978   */\n      dup6\n        /* \"#utility.yul\":16968:16973   */\n      dup5\n        /* \"#utility.yul\":16931:16987   */\n      tag_224\n      jump\t// in\n    tag_394:\n        /* \"#utility.yul\":17012:17041   */\n      tag_395\n        /* \"#utility.yul\":17034:17040   */\n      dup4\n        /* \"#utility.yul\":17012:17041   */\n      tag_192\n      jump\t// in\n    tag_395:\n        /* \"#utility.yul\":17007:17010   */\n      dup5\n        /* \"#utility.yul\":17003:17042   */\n      add\n        /* \"#utility.yul\":16996:17042   */\n      swap1\n      pop\n        /* \"#utility.yul\":16734:17048   */\n      swap4\n      swap3\n      pop\n      pop\n      pop\n      jump\t// out\n        /* \"#utility.yul\":17054:17714   */\n    tag_151:\n        /* \"#utility.yul\":17259:17263   */\n      0x00\n        /* \"#utility.yul\":17297:17300   */\n      0x80\n        /* \"#utility.yul\":17286:17295   */\n      dup3\n        /* \"#utility.yul\":17282:17301   */\n      add\n        /* \"#utility.yul\":17274:17301   */\n      swap1\n      pop\n        /* \"#utility.yul\":17311:17382   */\n      tag_397\n        /* \"#utility.yul\":17379:17380   */\n      0x00\n        /* \"#utility.yul\":17368:17377   */\n      dup4\n        /* \"#utility.yul\":17364:17381   */\n      add\n        /* \"#utility.yul\":17355:17361   */\n      dup9\n        /* \"#utility.yul\":17311:17382   */\n      tag_199\n      jump\t// in\n    tag_397:\n        /* \"#utility.yul\":17392:17464   */\n      tag_398\n        /* \"#utility.yul\":17460:17462   */\n      0x20\n        /* \"#utility.yul\":17449:17458   */\n      dup4\n        /* \"#utility.yul\":17445:17463   */\n      add\n        /* \"#utility.yul\":17436:17442   */\n      dup8\n        /* \"#utility.yul\":17392:17464   */\n      tag_199\n      jump\t// in\n    tag_398:\n        /* \"#utility.yul\":17474:17546   */\n      tag_399\n        /* \"#utility.yul\":17542:17544   */\n      0x40\n        /* \"#utility.yul\":17531:17540   */\n      dup4\n        /* \"#utility.yul\":17527:17545   */\n      add\n        /* \"#utility.yul\":17518:17524   */\n      dup7\n        /* \"#utility.yul\":17474:17546   */\n      tag_202\n      jump\t// in\n    tag_399:\n        /* \"#utility.yul\":17593:17602   */\n      dup2\n        /* \"#utility.yul\":17587:17591   */\n      dup2\n        /* \"#utility.yul\":17583:17603   */\n      sub\n        /* \"#utility.yul\":17578:17580   */\n      0x60\n        /* \"#utility.yul\":17567:17576   */\n      dup4\n        /* \"#utility.yul\":17563:17581   */\n      add\n        /* \"#utility.yul\":17556:17604   */\n      mstore\n        /* \"#utility.yul\":17621:17707   */\n      tag_400\n        /* \"#utility.yul\":17702:17706   */\n      dup2\n        /* \"#utility.yul\":17693:17699   */\n      dup5\n        /* \"#utility.yul\":17685:17691   */\n      dup7\n        /* \"#utility.yul\":17621:17707   */\n      tag_225\n      jump\t// in\n    tag_400:\n        /* \"#utility.yul\":17613:17707   */\n      swap1\n      pop\n        /* \"#utility.yul\":17054:17714   */\n      swap7\n      swap6\n      pop\n      pop\n      pop\n      pop\n      pop\n      pop\n      jump\t// out\n        /* \"#utility.yul\":17720:17883   */\n    tag_226:\n        /* \"#utility.yul\":17860:17875   */\n      0x66726f6d20213d206f776e657200000000000000000000000000000000000000\n        /* \"#utility.yul\":17856:17857   */\n      0x00\n        /* \"#utility.yul\":17848:17854   */\n      dup3\n        /* \"#utility.yul\":17844:17858   */\n      add\n        /* \"#utility.yul\":17837:17876   */\n      mstore\n        /* \"#utility.yul\":17720:17883   */\n      pop\n      jump\t// out\n        /* \"#utility.yul\":17889:18255   */\n    tag_227:\n        /* \"#utility.yul\":18031:18034   */\n      0x00\n        /* \"#utility.yul\":18052:18119   */\n      tag_403\n        /* \"#utility.yul\":18116:18118   */\n      0x0d\n        /* \"#utility.yul\":18111:18114   */\n      dup4\n        /* \"#utility.yul\":18052:18119   */\n      tag_190\n      jump\t// in\n    tag_403:\n        /* \"#utility.yul\":18045:18119   */\n      swap2\n      pop\n        /* \"#utility.yul\":18128:18221   */\n      tag_404\n        /* \"#utility.yul\":18217:18220   */\n      dup3\n        /* \"#utility.yul\":18128:18221   */\n      tag_226\n      jump\t// in\n    tag_404:\n        /* \"#utility.yul\":18246:18248   */\n      0x20\n        /* \"#utility.yul\":18241:18244   */\n      dup3\n        /* \"#utility.yul\":18237:18249   */\n      add\n        /* \"#utility.yul\":18230:18249   */\n      swap1\n      pop\n        /* \"#utility.yul\":17889:18255   */\n      swap2\n      swap1\n      pop\n      jump\t// out\n        /* \"#utility.yul\":18261:18680   */\n    tag_161:\n        /* \"#utility.yul\":18427:18431   */\n      0x00\n        /* \"#utility.yul\":18465:18467   */\n      0x20\n        /* \"#utility.yul\":18454:18463   */\n      dup3\n        /* \"#utility.yul\":18450:18468   */\n      add\n        /* \"#utility.yul\":18442:18468   */\n      swap1\n      pop\n        /* \"#utility.yul\":18514:18523   */\n      dup2\n        /* \"#utility.yul\":18508:18512   */\n      dup2\n        /* \"#utility.yul\":18504:18524   */\n      sub\n        /* \"#utility.yul\":18500:18501   */\n      0x00\n        /* \"#utility.yul\":18489:18498   */\n      dup4\n        /* \"#utility.yul\":18485:18502   */\n      add\n        /* \"#utility.yul\":18478:18525   */\n      mstore\n        /* \"#utility.yul\":18542:18673   */\n      tag_406\n        /* \"#utility.yul\":18668:18672   */\n      dup2\n        /* \"#utility.yul\":18542:18673   */\n      tag_227\n      jump\t// in\n    tag_406:\n        /* \"#utility.yul\":18534:18673   */\n      swap1\n      pop\n        /* \"#utility.yul\":18261:18680   */\n      swap2\n      swap1\n      pop\n      jump\t// out\n        /* \"#utility.yul\":18686:18860   */\n    tag_228:\n        /* \"#utility.yul\":18826:18852   */\n      0x7472616e7366657220746f207a65726f20616464726573730000000000000000\n        /* \"#utility.yul\":18822:18823   */\n      0x00\n        /* \"#utility.yul\":18814:18820   */\n      dup3\n        /* \"#utility.yul\":18810:18824   */\n      add\n        /* \"#utility.yul\":18803:18853   */\n      mstore\n        /* \"#utility.yul\":18686:18860   */\n      pop\n      jump\t// out\n        /* \"#utility.yul\":18866:19232   */\n    tag_229:\n        /* \"#utility.yul\":19008:19011   */\n      0x00\n        /* \"#utility.yul\":19029:19096   */\n      tag_409\n        /* \"#utility.yul\":19093:19095   */\n      0x18\n        /* \"#utility.yul\":19088:19091   */\n      dup4\n        /* \"#utility.yul\":19029:19096   */\n      tag_190\n      jump\t// in\n    tag_409:\n        /* \"#utility.yul\":19022:19096   */\n      swap2\n      pop\n        /* \"#utility.yul\":19105:19198   */\n      tag_410\n        /* \"#utility.yul\":19194:19197   */\n      dup3\n        /* \"#utility.yul\":19105:19198   */\n      tag_228\n      jump\t// in\n    tag_410:\n        /* \"#utility.yul\":19223:19225   */\n      0x20\n        /* \"#utility.yul\":19218:19221   */\n      dup3\n        /* \"#utility.yul\":19214:19226   */\n      add\n        /* \"#utility.yul\":19207:19226   */\n      swap1\n      pop\n        /* \"#utility.yul\":18866:19232   */\n      swap2\n      swap1\n      pop\n      jump\t// out\n        /* \"#utility.yul\":19238:19657   */\n    tag_164:\n        /* \"#utility.yul\":19404:19408   */\n      0x00\n        /* \"#utility.yul\":19442:19444   */\n      0x20\n        /* \"#utility.yul\":19431:19440   */\n      dup3\n        /* \"#utility.yul\":19427:19445   */\n      add\n        /* \"#utility.yul\":19419:19445   */\n      swap1\n      pop\n        /* \"#utility.yul\":19491:19500   */\n      dup2\n        /* \"#utility.yul\":19485:19489   */\n      dup2\n        /* \"#utility.yul\":19481:19501   */\n      sub\n        /* \"#utility.yul\":19477:19478   */\n      0x00\n        /* \"#utility.yul\":19466:19475   */\n      dup4\n        /* \"#utility.yul\":19462:19479   */\n      add\n        /* \"#utility.yul\":19455:19502   */\n      mstore\n        /* \"#utility.yul\":19519:19650   */\n      tag_412\n        /* \"#utility.yul\":19645:19649   */\n      dup2\n        /* \"#utility.yul\":19519:19650   */\n      tag_229\n      jump\t// in\n    tag_412:\n        /* \"#utility.yul\":19511:19650   */\n      swap1\n      pop\n        /* \"#utility.yul\":19238:19657   */\n      swap2\n      swap1\n      pop\n      jump\t// out\n        /* \"#utility.yul\":19663:19843   */\n    tag_230:\n        /* \"#utility.yul\":19711:19788   */\n      0x4e487b7100000000000000000000000000000000000000000000000000000000\n        /* \"#utility.yul\":19708:19709   */\n      0x00\n        /* \"#utility.yul\":19701:19789   */\n      mstore\n        /* \"#utility.yul\":19808:19812   */\n      0x11\n        /* \"#utility.yul\":19805:19806   */\n      0x04\n        /* \"#utility.yul\":19798:19813   */\n      mstore\n        /* \"#utility.yul\":19832:19836   */\n      0x24\n        /* \"#utility.yul\":19829:19830   */\n      0x00\n        /* \"#utility.yul\":19822:19837   */\n      revert\n        /* \"#utility.yul\":19849:20043   */\n    tag_170:\n        /* \"#utility.yul\":19889:19893   */\n      0x00\n        /* \"#utility.yul\":19909:19929   */\n      tag_415\n        /* \"#utility.yul\":19927:19928   */\n      dup3\n        /* \"#utility.yul\":19909:19929   */\n      tag_194\n      jump\t// in\n    tag_415:\n        /* \"#utility.yul\":19904:19929   */\n      swap2\n      pop\n        /* \"#utility.yul\":19943:19963   */\n      tag_416\n        /* \"#utility.yul\":19961:19962   */\n      dup4\n        /* \"#utility.yul\":19943:19963   */\n      tag_194\n      jump\t// in\n    tag_416:\n        /* \"#utility.yul\":19938:19963   */\n      swap3\n      pop\n        /* \"#utility.yul\":19987:19988   */\n      dup3\n        /* \"#utility.yul\":19984:19985   */\n      dup3\n        /* \"#utility.yul\":19980:19989   */\n      sub\n        /* \"#utility.yul\":19972:19989   */\n      swap1\n      pop\n        /* \"#utility.yul\":20011:20012   */\n      dup2\n        /* \"#utility.yul\":20005:20009   */\n      dup2\n        /* \"#utility.yul\":20002:20013   */\n      gt\n        /* \"#utility.yul\":19999:20036   */\n      iszero\n      tag_417\n      jumpi\n        /* \"#utility.yul\":20016:20034   */\n      tag_418\n      tag_230\n      jump\t// in\n    tag_418:\n        /* \"#utility.yul\":19999:20036   */\n    tag_417:\n        /* \"#utility.yul\":19849:20043   */\n      swap3\n      swap2\n      pop\n      pop\n      jump\t// out\n        /* \"#utility.yul\":20049:20240   */\n    tag_172:\n        /* \"#utility.yul\":20089:20092   */\n      0x00\n        /* \"#utility.yul\":20108:20128   */\n      tag_420\n        /* \"#utility.yul\":20126:20127   */\n      dup3\n        /* \"#utility.yul\":20108:20128   */\n      tag_194\n      jump\t// in\n    tag_420:\n        /* \"#utility.yul\":20103:20128   */\n      swap2\n      pop\n        /* \"#utility.yul\":20142:20162   */\n      tag_421\n        /* \"#utility.yul\":20160:20161   */\n      dup4\n        /* \"#utility.yul\":20142:20162   */\n      tag_194\n      jump\t// in\n    tag_421:\n        /* \"#utility.yul\":20137:20162   */\n      swap3\n      pop\n        /* \"#utility.yul\":20185:20186   */\n      dup3\n        /* \"#utility.yul\":20182:20183   */\n      dup3\n        /* \"#utility.yul\":20178:20187   */\n      add\n        /* \"#utility.yul\":20171:20187   */\n      swap1\n      pop\n        /* \"#utility.yul\":20206:20209   */\n      dup1\n        /* \"#utility.yul\":20203:20204   */\n      dup3\n        /* \"#utility.yul\":20200:20210   */\n      gt\n        /* \"#utility.yul\":20197:20233   */\n      iszero\n      tag_422\n      jumpi\n        /* \"#utility.yul\":20213:20231   */\n      tag_423\n      tag_230\n      jump\t// in\n    tag_423:\n        /* \"#utility.yul\":20197:20233   */\n    tag_422:\n        /* \"#utility.yul\":20049:20240   */\n      swap3\n      swap2\n      pop\n      pop\n      jump\t// out\n        /* \"#utility.yul\":20246:20416   */\n    tag_231:\n        /* \"#utility.yul\":20386:20408   */\n      0x6d696e7420746f207a65726f2061646472657373000000000000000000000000\n        /* \"#utility.yul\":20382:20383   */\n      0x00\n        /* \"#utility.yul\":20374:20380   */\n      dup3\n        /* \"#utility.yul\":20370:20384   */\n      add\n        /* \"#utility.yul\":20363:20409   */\n      mstore\n        /* \"#utility.yul\":20246:20416   */\n      pop\n      jump\t// out\n        /* \"#utility.yul\":20422:20788   */\n    tag_232:\n        /* \"#utility.yul\":20564:20567   */\n      0x00\n        /* \"#utility.yul\":20585:20652   */\n      tag_426\n        /* \"#utility.yul\":20649:20651   */\n      0x14\n        /* \"#utility.yul\":20644:20647   */\n      dup4\n        /* \"#utility.yul\":20585:20652   */\n      tag_190\n      jump\t// in\n    tag_426:\n        /* \"#utility.yul\":20578:20652   */\n      swap2\n      pop\n        /* \"#utility.yul\":20661:20754   */\n      tag_427\n        /* \"#utility.yul\":20750:20753   */\n      dup3\n        /* \"#utility.yul\":20661:20754   */\n      tag_231\n      jump\t// in\n    tag_427:\n        /* \"#utility.yul\":20779:20781   */\n      0x20\n        /* \"#utility.yul\":20774:20777   */\n      dup3\n        /* \"#utility.yul\":20770:20782   */\n      add\n        /* \"#utility.yul\":20763:20782   */\n      swap1\n      pop\n        /* \"#utility.yul\":20422:20788   */\n      swap2\n      swap1\n      pop\n      jump\t// out\n        /* \"#utility.yul\":20794:21213   */\n    tag_176:\n        /* \"#utility.yul\":20960:20964   */\n      0x00\n        /* \"#utility.yul\":20998:21000   */\n      0x20\n        /* \"#utility.yul\":20987:20996   */\n      dup3\n        /* \"#utility.yul\":20983:21001   */\n      add\n        /* \"#utility.yul\":20975:21001   */\n      swap1\n      pop\n        /* \"#utility.yul\":21047:21056   */\n      dup2\n        /* \"#utility.yul\":21041:21045   */\n      dup2\n        /* \"#utility.yul\":21037:21057   */\n      sub\n        /* \"#utility.yul\":21033:21034   */\n      0x00\n        /* \"#utility.yul\":21022:21031   */\n      dup4\n        /* \"#utility.yul\":21018:21035   */\n      add\n        /* \"#utility.yul\":21011:21058   */\n      mstore\n        /* \"#utility.yul\":21075:21206   */\n      tag_429\n        /* \"#utility.yul\":21201:21205   */\n      dup2\n        /* \"#utility.yul\":21075:21206   */\n      tag_232\n      jump\t// in\n    tag_429:\n        /* \"#utility.yul\":21067:21206   */\n      swap1\n      pop\n        /* \"#utility.yul\":20794:21213   */\n      swap2\n      swap1\n      pop\n      jump\t// out\n        /* \"#utility.yul\":21219:21383   */\n    tag_233:\n        /* \"#utility.yul\":21359:21375   */\n      0x616c7265616479206d696e746564000000000000000000000000000000000000\n        /* \"#utility.yul\":21355:21356   */\n      0x00\n        /* \"#utility.yul\":21347:21353   */\n      dup3\n        /* \"#utility.yul\":21343:21357   */\n      add\n        /* \"#utility.yul\":21336:21376   */\n      mstore\n        /* \"#utility.yul\":21219:21383   */\n      pop\n      jump\t// out\n        /* \"#utility.yul\":21389:21755   */\n    tag_234:\n        /* \"#utility.yul\":21531:21534   */\n      0x00\n        /* \"#utility.yul\":21552:21619   */\n      tag_432\n        /* \"#utility.yul\":21616:21618   */\n      0x0e\n        /* \"#utility.yul\":21611:21614   */\n      dup4\n        /* \"#utility.yul\":21552:21619   */\n      tag_190\n      jump\t// in\n    tag_432:\n        /* \"#utility.yul\":21545:21619   */\n      swap2\n      pop\n        /* \"#utility.yul\":21628:21721   */\n      tag_433\n        /* \"#utility.yul\":21717:21720   */\n      dup3\n        /* \"#utility.yul\":21628:21721   */\n      tag_233\n      jump\t// in\n    tag_433:\n        /* \"#utility.yul\":21746:21748   */\n      0x20\n        /* \"#utility.yul\":21741:21744   */\n      dup3\n        /* \"#utility.yul\":21737:21749   */\n      add\n        /* \"#utility.yul\":21730:21749   */\n      swap1\n      pop\n        /* \"#utility.yul\":21389:21755   */\n      swap2\n      swap1\n      pop\n      jump\t// out\n        /* \"#utility.yul\":21761:22180   */\n    tag_179:\n        /* \"#utility.yul\":21927:21931   */\n      0x00\n        /* \"#utility.yul\":21965:21967   */\n      0x20\n        /* \"#utility.yul\":21954:21963   */\n      dup3\n        /* \"#utility.yul\":21950:21968   */\n      add\n        /* \"#utility.yul\":21942:21968   */\n      swap1\n      pop\n        /* \"#utility.yul\":22014:22023   */\n      dup2\n        /* \"#utility.yul\":22008:22012   */\n      dup2\n        /* \"#utility.yul\":22004:22024   */\n      sub\n        /* \"#utility.yul\":22000:22001   */\n      0x00\n        /* \"#utility.yul\":21989:21998   */\n      dup4\n        /* \"#utility.yul\":21985:22002   */\n      add\n        /* \"#utility.yul\":21978:22025   */\n      mstore\n        /* \"#utility.yul\":22042:22173   */\n      tag_435\n        /* \"#utility.yul\":22168:22172   */\n      dup2\n        /* \"#utility.yul\":22042:22173   */\n      tag_234\n      jump\t// in\n    tag_435:\n        /* \"#utility.yul\":22034:22173   */\n      swap1\n      pop\n        /* \"#utility.yul\":21761:22180   */\n      swap2\n      swap1\n      pop\n      jump\t// out\n\n    auxdata: 0xa2646970667358221220a974f87b5bb315da2535a5af4c6f0873164e9ed42a33213bd17bca892086ed5664736f6c634300081a0033\n}\n",
				"bytecode": {
					"linkReferences": {},
					"object": "608060405234801561000f575f80fd5b5060405161286438038061286483398181016040528101906100319190610424565b335f806101000a81548173ffffffffffffffffffffffffffffffffffffffff021916908373ffffffffffffffffffffffffffffffffffffffff160217905550816005908161007f91906106a7565b50806006908161008f91906106a7565b505f600190505b600581116100c1576100ae33826100c960201b60201c565b80806100b9906107a3565b915050610096565b5050506108fd565b5f73ffffffffffffffffffffffffffffffffffffffff168273ffffffffffffffffffffffffffffffffffffffff1603610137576040517f08c379a000000000000000000000000000000000000000000000000000000000815260040161012e90610844565b60405180910390fd5b5f73ffffffffffffffffffffffffffffffffffffffff1660015f8381526020019081526020015f205f9054906101000a900473ffffffffffffffffffffffffffffffffffffffff1673ffffffffffffffffffffffffffffffffffffffff16146101d5576040517f08c379a00000000000000000000000000000000000000000000000000000000081526004016101cc906108ac565b60405180910390fd5b600160025f8473ffffffffffffffffffffffffffffffffffffffff1673ffffffffffffffffffffffffffffffffffffffff1681526020019081526020015f205f82825461022291906108ca565b925050819055508160015f8381526020019081526020015f205f6101000a81548173ffffffffffffffffffffffffffffffffffffffff021916908373ffffffffffffffffffffffffffffffffffffffff160217905550808273ffffffffffffffffffffffffffffffffffffffff165f73ffffffffffffffffffffffffffffffffffffffff167fddf252ad1be2c89b69c2b068fc378daa952ba7f163c4a11628f55a4df523b3ef60405160405180910390a45050565b5f604051905090565b5f80fd5b5f80fd5b5f80fd5b5f80fd5b5f601f19601f8301169050919050565b7f4e487b71000000000000000000000000000000000000000000000000000000005f52604160045260245ffd5b610336826102f0565b810181811067ffffffffffffffff8211171561035557610354610300565b5b80604052505050565b5f6103676102d7565b9050610373828261032d565b919050565b5f67ffffffffffffffff82111561039257610391610300565b5b61039b826102f0565b9050602081019050919050565b8281835e5f83830152505050565b5f6103c86103c384610378565b61035e565b9050828152602081018484840111156103e4576103e36102ec565b5b6103ef8482856103a8565b509392505050565b5f82601f83011261040b5761040a6102e8565b5b815161041b8482602086016103b6565b91505092915050565b5f806040838503121561043a576104396102e0565b5b5f83015167ffffffffffffffff811115610457576104566102e4565b5b610463858286016103f7565b925050602083015167ffffffffffffffff811115610484576104836102e4565b5b610490858286016103f7565b9150509250929050565b5f81519050919050565b7f4e487b71000000000000000000000000000000000000000000000000000000005f52602260045260245ffd5b5f60028204905060018216806104e857607f821691505b6020821081036104fb576104fa6104a4565b5b50919050565b5f819050815f5260205f209050919050565b5f6020601f8301049050919050565b5f82821b905092915050565b5f6008830261055d7fffffffffffffffffffffffffffffffffffffffffffffffffffffffffffffffff82610522565b6105678683610522565b95508019841693508086168417925050509392505050565b5f819050919050565b5f819050919050565b5f6105ab6105a66105a18461057f565b610588565b61057f565b9050919050565b5f819050919050565b6105c483610591565b6105d86105d0826105b2565b84845461052e565b825550505050565b5f90565b6105ec6105e0565b6105f78184846105bb565b505050565b5b8181101561061a5761060f5f826105e4565b6001810190506105fd565b5050565b601f82111561065f5761063081610501565b61063984610513565b81016020851015610648578190505b61065c61065485610513565b8301826105fc565b50505b505050565b5f82821c905092915050565b5f61067f5f1984600802610664565b1980831691505092915050565b5f6106978383610670565b9150826002028217905092915050565b6106b08261049a565b67ffffffffffffffff8111156106c9576106c8610300565b5b6106d382546104d1565b6106de82828561061e565b5f60209050601f83116001811461070f575f84156106fd578287015190505b610707858261068c565b86555061076e565b601f19841661071d86610501565b5f5b828110156107445784890151825560018201915060208501945060208101905061071f565b86831015610761578489015161075d601f891682610670565b8355505b6001600288020188555050505b505050505050565b7f4e487b71000000000000000000000000000000000000000000000000000000005f52601160045260245ffd5b5f6107ad8261057f565b91507fffffffffffffffffffffffffffffffffffffffffffffffffffffffffffffffff82036107df576107de610776565b5b600182019050919050565b5f82825260208201905092915050565b7f6d696e7420746f207a65726f20616464726573730000000000000000000000005f82015250565b5f61082e6014836107ea565b9150610839826107fa565b602082019050919050565b5f6020820190508181035f83015261085b81610822565b9050919050565b7f616c7265616479206d696e7465640000000000000000000000000000000000005f82015250565b5f610896600e836107ea565b91506108a182610862565b602082019050919050565b5f6020820190508181035f8301526108c38161088a565b9050919050565b5f6108d48261057f565b91506108df8361057f565b92508282019050808211156108f7576108f6610776565b5b92915050565b611f5a8061090a5f395ff3fe6080604052600436106100e7575f3560e01c80634d853ee511610089578063a22cb46511610058578063a22cb465146102e1578063b88d4fde14610309578063e985e9c514610325578063edc3bc3f14610361576100e7565b80634d853ee5146102155780636352211e1461023f57806370a082311461027b57806395d89b41146102b7576100e7565b8063095ea7b3116100c5578063095ea7b31461018d57806323b872dd146101b55780633c168eab146101d157806342842e0e146101f9576100e7565b806301ffc9a7146100eb57806306fdde0314610127578063081812fc14610151575b5f80fd5b3480156100f6575f80fd5b50610111600480360381019061010c91906114ec565b61039d565b60405161011e9190611531565b60405180910390f35b348015610132575f80fd5b5061013b61046e565b60405161014891906115ba565b60405180910390f35b34801561015c575f80fd5b506101776004803603810190610172919061160d565b6104fa565b6040516101849190611677565b60405180910390f35b348015610198575f80fd5b506101b360048036038101906101ae91906116ba565b6105d1565b005b6101cf60048036038101906101ca91906116f8565b6107ae565b005b3480156101dc575f80fd5b506101f760048036038101906101f291906116ba565b6107be565b005b610213600480360381019061020e91906116f8565b610859565b005b348015610220575f80fd5b5061022961098d565b6040516102369190611677565b60405180910390f35b34801561024a575f80fd5b506102656004803603810190610260919061160d565b6109b0565b6040516102729190611677565b60405180910390f35b348015610286575f80fd5b506102a1600480360381019061029c9190611748565b610a5c565b6040516102ae9190611782565b60405180910390f35b3480156102c2575f80fd5b506102cb610b10565b6040516102d891906115ba565b60405180910390f35b3480156102ec575f80fd5b50610307600480360381019061030291906117c5565b610b9c565b005b610323600480360381019061031e9190611864565b610c94565b005b348015610330575f80fd5b5061034b600480360381019061034691906118e8565b610dce565b6040516103589190611531565b60405180910390f35b34801561036c575f80fd5b50610387600480360381019061038291906118e8565b610e5c565b6040516103949190611531565b60405180910390f35b5f7f80ac58cd000000000000000000000000000000000000000000000000000000007bffffffffffffffffffffffffffffffffffffffffffffffffffffffff1916827bffffffffffffffffffffffffffffffffffffffffffffffffffffffff1916148061046757507f01ffc9a7000000000000000000000000000000000000000000000000000000007bffffffffffffffffffffffffffffffffffffffffffffffffffffffff1916827bffffffffffffffffffffffffffffffffffffffffffffffffffffffff1916145b9050919050565b6005805461047b90611953565b80601f01602080910402602001604051908101604052809291908181526020018280546104a790611953565b80156104f25780601f106104c9576101008083540402835291602001916104f2565b820191905f5260205f20905b8154815290600101906020018083116104d557829003601f168201915b505050505081565b5f8073ffffffffffffffffffffffffffffffffffffffff1660015f8481526020019081526020015f205f9054906101000a900473ffffffffffffffffffffffffffffffffffffffff1673ffffffffffffffffffffffffffffffffffffffff1603610599576040517f08c379a0000000000000000000000000000000000000000000000000000000008152600401610590906119cd565b60405180910390fd5b60035f8381526020019081526020015f205f9054906101000a900473ffffffffffffffffffffffffffffffffffffffff169050919050565b5f60015f8381526020019081526020015f205f9054906101000a900473ffffffffffffffffffffffffffffffffffffffff1690508073ffffffffffffffffffffffffffffffffffffffff163373ffffffffffffffffffffffffffffffffffffffff1614806106c0575060045f8273ffffffffffffffffffffffffffffffffffffffff1673ffffffffffffffffffffffffffffffffffffffff1681526020019081526020015f205f3373ffffffffffffffffffffffffffffffffffffffff1673ffffffffffffffffffffffffffffffffffffffff1681526020019081526020015f205f9054906101000a900460ff165b6106ff576040517f08c379a00000000000000000000000000000000000000000000000000000000081526004016106f690611a35565b60405180910390fd5b8260035f8481526020019081526020015f205f6101000a81548173ffffffffffffffffffffffffffffffffffffffff021916908373ffffffffffffffffffffffffffffffffffffffff160217905550818373ffffffffffffffffffffffffffffffffffffffff168273ffffffffffffffffffffffffffffffffffffffff167f8c5be1e5ebec7d5bd14f71427d1e84f3dd0314c0f7b2291e5b200ac8c7c3b92560405160405180910390a4505050565b6107b9838383610e86565b505050565b5f8054906101000a900473ffffffffffffffffffffffffffffffffffffffff1673ffffffffffffffffffffffffffffffffffffffff163373ffffffffffffffffffffffffffffffffffffffff161461084b576040517f08c379a000000000000000000000000000000000000000000000000000000000815260040161084290611a9d565b60405180910390fd5b6108558282611281565b5050565b610864838383610e86565b5f8273ffffffffffffffffffffffffffffffffffffffff163b1480610949575063150b7a0260e01b7bffffffffffffffffffffffffffffffffffffffffffffffffffffffff19168273ffffffffffffffffffffffffffffffffffffffff1663150b7a023386856040518463ffffffff1660e01b81526004016108e893929190611aee565b6020604051808303815f875af1158015610904573d5f803e3d5ffd5b505050506040513d601f19601f820116820180604052508101906109289190611b4a565b7bffffffffffffffffffffffffffffffffffffffffffffffffffffffff1916145b610988576040517f08c379a000000000000000000000000000000000000000000000000000000000815260040161097f90611bbf565b60405180910390fd5b505050565b5f8054906101000a900473ffffffffffffffffffffffffffffffffffffffff1681565b5f8060015f8481526020019081526020015f205f9054906101000a900473ffffffffffffffffffffffffffffffffffffffff1690505f73ffffffffffffffffffffffffffffffffffffffff168173ffffffffffffffffffffffffffffffffffffffff1603610a53576040517f08c379a0000000000000000000000000000000000000000000000000000000008152600401610a4a906119cd565b60405180910390fd5b80915050919050565b5f8073ffffffffffffffffffffffffffffffffffffffff168273ffffffffffffffffffffffffffffffffffffffff1603610acb576040517f08c379a0000000000000000000000000000000000000000000000000000000008152600401610ac290611c4d565b60405180910390fd5b60025f8373ffffffffffffffffffffffffffffffffffffffff1673ffffffffffffffffffffffffffffffffffffffff1681526020019081526020015f20549050919050565b60068054610b1d90611953565b80601f0160208091040260200160405190810160405280929190818152602001828054610b4990611953565b8015610b945780601f10610b6b57610100808354040283529160200191610b94565b820191905f5260205f20905b815481529060010190602001808311610b7757829003601f168201915b505050505081565b8060045f3373ffffffffffffffffffffffffffffffffffffffff1673ffffffffffffffffffffffffffffffffffffffff1681526020019081526020015f205f8473ffffffffffffffffffffffffffffffffffffffff1673ffffffffffffffffffffffffffffffffffffffff1681526020019081526020015f205f6101000a81548160ff0219169083151502179055508173ffffffffffffffffffffffffffffffffffffffff163373ffffffffffffffffffffffffffffffffffffffff167f17307eab39ab6107e8899845ad3d59bd9653f200f220920489ca2b5937696c3183604051610c889190611531565b60405180910390a35050565b610c9f858585610e86565b5f8473ffffffffffffffffffffffffffffffffffffffff163b1480610d88575063150b7a0260e01b7bffffffffffffffffffffffffffffffffffffffffffffffffffffffff19168473ffffffffffffffffffffffffffffffffffffffff1663150b7a0233888787876040518663ffffffff1660e01b8152600401610d27959493929190611ca5565b6020604051808303815f875af1158015610d43573d5f803e3d5ffd5b505050506040513d601f19601f82011682018060405250810190610d679190611b4a565b7bffffffffffffffffffffffffffffffffffffffffffffffffffffffff1916145b610dc7576040517f08c379a0000000000000000000000000000000000000000000000000000000008152600401610dbe90611bbf565b60405180910390fd5b5050505050565b5f60045f8473ffffffffffffffffffffffffffffffffffffffff1673ffffffffffffffffffffffffffffffffffffffff1681526020019081526020015f205f8373ffffffffffffffffffffffffffffffffffffffff1673ffffffffffffffffffffffffffffffffffffffff1681526020019081526020015f205f9054906101000a900460ff16905092915050565b6004602052815f5260405f20602052805f5260405f205f915091509054906101000a900460ff1681565b5f60015f8381526020019081526020015f205f9054906101000a900473ffffffffffffffffffffffffffffffffffffffff1690508073ffffffffffffffffffffffffffffffffffffffff168473ffffffffffffffffffffffffffffffffffffffff1614610f28576040517f08c379a0000000000000000000000000000000000000000000000000000000008152600401610f1f90611d3b565b60405180910390fd5b5f73ffffffffffffffffffffffffffffffffffffffff168373ffffffffffffffffffffffffffffffffffffffff1603610f96576040517f08c379a0000000000000000000000000000000000000000000000000000000008152600401610f8d90611da3565b60405180910390fd5b8073ffffffffffffffffffffffffffffffffffffffff163373ffffffffffffffffffffffffffffffffffffffff16148061102b575060035f8381526020019081526020015f205f9054906101000a900473ffffffffffffffffffffffffffffffffffffffff1673ffffffffffffffffffffffffffffffffffffffff163373ffffffffffffffffffffffffffffffffffffffff16145b806110b7575060045f8273ffffffffffffffffffffffffffffffffffffffff1673ffffffffffffffffffffffffffffffffffffffff1681526020019081526020015f205f3373ffffffffffffffffffffffffffffffffffffffff1673ffffffffffffffffffffffffffffffffffffffff1681526020019081526020015f205f9054906101000a900460ff165b6110f6576040517f08c379a00000000000000000000000000000000000000000000000000000000081526004016110ed90611a35565b60405180910390fd5b600160025f8673ffffffffffffffffffffffffffffffffffffffff1673ffffffffffffffffffffffffffffffffffffffff1681526020019081526020015f205f8282546111439190611dee565b92505081905550600160025f8573ffffffffffffffffffffffffffffffffffffffff1673ffffffffffffffffffffffffffffffffffffffff1681526020019081526020015f205f8282546111979190611e21565b925050819055508260015f8481526020019081526020015f205f6101000a81548173ffffffffffffffffffffffffffffffffffffffff021916908373ffffffffffffffffffffffffffffffffffffffff16021790555060035f8381526020019081526020015f205f6101000a81549073ffffffffffffffffffffffffffffffffffffffff0219169055818373ffffffffffffffffffffffffffffffffffffffff168573ffffffffffffffffffffffffffffffffffffffff167fddf252ad1be2c89b69c2b068fc378daa952ba7f163c4a11628f55a4df523b3ef60405160405180910390a450505050565b5f73ffffffffffffffffffffffffffffffffffffffff168273ffffffffffffffffffffffffffffffffffffffff16036112ef576040517f08c379a00000000000000000000000000000000000000000000000000000000081526004016112e690611e9e565b60405180910390fd5b5f73ffffffffffffffffffffffffffffffffffffffff1660015f8381526020019081526020015f205f9054906101000a900473ffffffffffffffffffffffffffffffffffffffff1673ffffffffffffffffffffffffffffffffffffffff161461138d576040517f08c379a000000000000000000000000000000000000000000000000000000000815260040161138490611f06565b60405180910390fd5b600160025f8473ffffffffffffffffffffffffffffffffffffffff1673ffffffffffffffffffffffffffffffffffffffff1681526020019081526020015f205f8282546113da9190611e21565b925050819055508160015f8381526020019081526020015f205f6101000a81548173ffffffffffffffffffffffffffffffffffffffff021916908373ffffffffffffffffffffffffffffffffffffffff160217905550808273ffffffffffffffffffffffffffffffffffffffff165f73ffffffffffffffffffffffffffffffffffffffff167fddf252ad1be2c89b69c2b068fc378daa952ba7f163c4a11628f55a4df523b3ef60405160405180910390a45050565b5f80fd5b5f80fd5b5f7fffffffff0000000000000000000000000000000000000000000000000000000082169050919050565b6114cb81611497565b81146114d5575f80fd5b50565b5f813590506114e6816114c2565b92915050565b5f602082840312156115015761150061148f565b5b5f61150e848285016114d8565b91505092915050565b5f8115159050919050565b61152b81611517565b82525050565b5f6020820190506115445f830184611522565b92915050565b5f81519050919050565b5f82825260208201905092915050565b8281835e5f83830152505050565b5f601f19601f8301169050919050565b5f61158c8261154a565b6115968185611554565b93506115a6818560208601611564565b6115af81611572565b840191505092915050565b5f6020820190508181035f8301526115d28184611582565b905092915050565b5f819050919050565b6115ec816115da565b81146115f6575f80fd5b50565b5f81359050611607816115e3565b92915050565b5f602082840312156116225761162161148f565b5b5f61162f848285016115f9565b91505092915050565b5f73ffffffffffffffffffffffffffffffffffffffff82169050919050565b5f61166182611638565b9050919050565b61167181611657565b82525050565b5f60208201905061168a5f830184611668565b92915050565b61169981611657565b81146116a3575f80fd5b50565b5f813590506116b481611690565b92915050565b5f80604083850312156116d0576116cf61148f565b5b5f6116dd858286016116a6565b92505060206116ee858286016115f9565b9150509250929050565b5f805f6060848603121561170f5761170e61148f565b5b5f61171c868287016116a6565b935050602061172d868287016116a6565b925050604061173e868287016115f9565b9150509250925092565b5f6020828403121561175d5761175c61148f565b5b5f61176a848285016116a6565b91505092915050565b61177c816115da565b82525050565b5f6020820190506117955f830184611773565b92915050565b6117a481611517565b81146117ae575f80fd5b50565b5f813590506117bf8161179b565b92915050565b5f80604083850312156117db576117da61148f565b5b5f6117e8858286016116a6565b92505060206117f9858286016117b1565b9150509250929050565b5f80fd5b5f80fd5b5f80fd5b5f8083601f84011261182457611823611803565b5b8235905067ffffffffffffffff81111561184157611840611807565b5b60208301915083600182028301111561185d5761185c61180b565b5b9250929050565b5f805f805f6080868803121561187d5761187c61148f565b5b5f61188a888289016116a6565b955050602061189b888289016116a6565b94505060406118ac888289016115f9565b935050606086013567ffffffffffffffff8111156118cd576118cc611493565b5b6118d98882890161180f565b92509250509295509295909350565b5f80604083850312156118fe576118fd61148f565b5b5f61190b858286016116a6565b925050602061191c858286016116a6565b9150509250929050565b7f4e487b71000000000000000000000000000000000000000000000000000000005f52602260045260245ffd5b5f600282049050600182168061196a57607f821691505b60208210810361197d5761197c611926565b5b50919050565b7f746f6b656e20646f65736e2774206578697374000000000000000000000000005f82015250565b5f6119b7601383611554565b91506119c282611983565b602082019050919050565b5f6020820190508181035f8301526119e4816119ab565b9050919050565b7f6e6f7420617574686f72697a65640000000000000000000000000000000000005f82015250565b5f611a1f600e83611554565b9150611a2a826119eb565b602082019050919050565b5f6020820190508181035f830152611a4c81611a13565b9050919050565b7f6e6f7420616e20617574686f72697a6564206d696e74657200000000000000005f82015250565b5f611a87601883611554565b9150611a9282611a53565b602082019050919050565b5f6020820190508181035f830152611ab481611a7b565b9050919050565b5f82825260208201905092915050565b50565b5f611ad95f83611abb565b9150611ae482611acb565b5f82019050919050565b5f608082019050611b015f830186611668565b611b0e6020830185611668565b611b1b6040830184611773565b8181036060830152611b2c81611ace565b9050949350505050565b5f81519050611b44816114c2565b92915050565b5f60208284031215611b5f57611b5e61148f565b5b5f611b6c84828501611b36565b91505092915050565b7f756e7361666520726563697069656e74000000000000000000000000000000005f82015250565b5f611ba9601083611554565b9150611bb482611b75565b602082019050919050565b5f6020820190508181035f830152611bd681611b9d565b9050919050565b7f62616c616e636520717565727920666f7220746865207a65726f2061646472655f8201527f7373000000000000000000000000000000000000000000000000000000000000602082015250565b5f611c37602283611554565b9150611c4282611bdd565b604082019050919050565b5f6020820190508181035f830152611c6481611c2b565b9050919050565b828183375f83830152505050565b5f611c848385611abb565b9350611c91838584611c6b565b611c9a83611572565b840190509392505050565b5f608082019050611cb85f830188611668565b611cc56020830187611668565b611cd26040830186611773565b8181036060830152611ce5818486611c79565b90509695505050505050565b7f66726f6d20213d206f776e6572000000000000000000000000000000000000005f82015250565b5f611d25600d83611554565b9150611d3082611cf1565b602082019050919050565b5f6020820190508181035f830152611d5281611d19565b9050919050565b7f7472616e7366657220746f207a65726f206164647265737300000000000000005f82015250565b5f611d8d601883611554565b9150611d9882611d59565b602082019050919050565b5f6020820190508181035f830152611dba81611d81565b9050919050565b7f4e487b71000000000000000000000000000000000000000000000000000000005f52601160045260245ffd5b5f611df8826115da565b9150611e03836115da565b9250828203905081811115611e1b57611e1a611dc1565b5b92915050565b5f611e2b826115da565b9150611e36836115da565b9250828201905080821115611e4e57611e4d611dc1565b5b92915050565b7f6d696e7420746f207a65726f20616464726573730000000000000000000000005f82015250565b5f611e88601483611554565b9150611e9382611e54565b602082019050919050565b5f6020820190508181035f830152611eb581611e7c565b9050919050565b7f616c7265616479206d696e7465640000000000000000000000000000000000005f82015250565b5f611ef0600e83611554565b9150611efb82611ebc565b602082019050919050565b5f6020820190508181035f830152611f1d81611ee4565b905091905056fea2646970667358221220a974f87b5bb315da2535a5af4c6f0873164e9ed42a33213bd17bca892086ed5664736f6c634300081a0033",
					"opcodes": "PUSH1 0x80 PUSH1 0x40 MSTORE CALLVALUE DUP1 ISZERO PUSH2 0xF JUMPI PUSH0 DUP1 REVERT JUMPDEST POP PUSH1 0x40 MLOAD PUSH2 0x2864 CODESIZE SUB DUP1 PUSH2 0x2864 DUP4 CODECOPY DUP2 DUP2 ADD PUSH1 0x40 MSTORE DUP2 ADD SWAP1 PUSH2 0x31 SWAP2 SWAP1 PUSH2 0x424 JUMP JUMPDEST CALLER PUSH0 DUP1 PUSH2 0x100 EXP DUP2 SLOAD DUP2 PUSH20 0xFFFFFFFFFFFFFFFFFFFFFFFFFFFFFFFFFFFFFFFF MUL NOT AND SWAP1 DUP4 PUSH20 0xFFFFFFFFFFFFFFFFFFFFFFFFFFFFFFFFFFFFFFFF AND MUL OR SWAP1 SSTORE POP DUP2 PUSH1 0x5 SWAP1 DUP2 PUSH2 0x7F SWAP2 SWAP1 PUSH2 0x6A7 JUMP JUMPDEST POP DUP1 PUSH1 0x6 SWAP1 DUP2 PUSH2 0x8F SWAP2 SWAP1 PUSH2 0x6A7 JUMP JUMPDEST POP PUSH0 PUSH1 0x1 SWAP1 POP JUMPDEST PUSH1 0x5 DUP2 GT PUSH2 0xC1 JUMPI PUSH2 0xAE CALLER DUP3 PUSH2 0xC9 PUSH1 0x20 SHL PUSH1 0x20 SHR JUMP JUMPDEST DUP1 DUP1 PUSH2 0xB9 SWAP1 PUSH2 0x7A3 JUMP JUMPDEST SWAP2 POP POP PUSH2 0x96 JUMP JUMPDEST POP POP POP PUSH2 0x8FD JUMP JUMPDEST PUSH0 PUSH20 0xFFFFFFFFFFFFFFFFFFFFFFFFFFFFFFFFFFFFFFFF AND DUP3 PUSH20 0xFFFFFFFFFFFFFFFFFFFFFFFFFFFFFFFFFFFFFFFF AND SUB PUSH2 0x137 JUMPI PUSH1 0x40 MLOAD PUSH32 0x8C379A000000000000000000000000000000000000000000000000000000000 DUP2 MSTORE PUSH1 0x4 ADD PUSH2 0x12E SWAP1 PUSH2 0x844 JUMP JUMPDEST PUSH1 0x40 MLOAD DUP1 SWAP2 SUB SWAP1 REVERT JUMPDEST PUSH0 PUSH20 0xFFFFFFFFFFFFFFFFFFFFFFFFFFFFFFFFFFFFFFFF AND PUSH1 0x1 PUSH0 DUP4 DUP2 MSTORE PUSH1 0x20 ADD SWAP1 DUP2 MSTORE PUSH1 0x20 ADD PUSH0 KECCAK256 PUSH0 SWAP1 SLOAD SWAP1 PUSH2 0x100 EXP SWAP1 DIV PUSH20 0xFFFFFFFFFFFFFFFFFFFFFFFFFFFFFFFFFFFFFFFF AND PUSH20 0xFFFFFFFFFFFFFFFFFFFFFFFFFFFFFFFFFFFFFFFF AND EQ PUSH2 0x1D5 JUMPI PUSH1 0x40 MLOAD PUSH32 0x8C379A000000000000000000000000000000000000000000000000000000000 DUP2 MSTORE PUSH1 0x4 ADD PUSH2 0x1CC SWAP1 PUSH2 0x8AC JUMP JUMPDEST PUSH1 0x40 MLOAD DUP1 SWAP2 SUB SWAP1 REVERT JUMPDEST PUSH1 0x1 PUSH1 0x2 PUSH0 DUP5 PUSH20 0xFFFFFFFFFFFFFFFFFFFFFFFFFFFFFFFFFFFFFFFF AND PUSH20 0xFFFFFFFFFFFFFFFFFFFFFFFFFFFFFFFFFFFFFFFF AND DUP2 MSTORE PUSH1 0x20 ADD SWAP1 DUP2 MSTORE PUSH1 0x20 ADD PUSH0 KECCAK256 PUSH0 DUP3 DUP3 SLOAD PUSH2 0x222 SWAP2 SWAP1 PUSH2 0x8CA JUMP JUMPDEST SWAP3 POP POP DUP2 SWAP1 SSTORE POP DUP2 PUSH1 0x1 PUSH0 DUP4 DUP2 MSTORE PUSH1 0x20 ADD SWAP1 DUP2 MSTORE PUSH1 0x20 ADD PUSH0 KECCAK256 PUSH0 PUSH2 0x100 EXP DUP2 SLOAD DUP2 PUSH20 0xFFFFFFFFFFFFFFFFFFFFFFFFFFFFFFFFFFFFFFFF MUL NOT AND SWAP1 DUP4 PUSH20 0xFFFFFFFFFFFFFFFFFFFFFFFFFFFFFFFFFFFFFFFF AND MUL OR SWAP1 SSTORE POP DUP1 DUP3 PUSH20 0xFFFFFFFFFFFFFFFFFFFFFFFFFFFFFFFFFFFFFFFF AND PUSH0 PUSH20 0xFFFFFFFFFFFFFFFFFFFFFFFFFFFFFFFFFFFFFFFF AND PUSH32 0xDDF252AD1BE2C89B69C2B068FC378DAA952BA7F163C4A11628F55A4DF523B3EF PUSH1 0x40 MLOAD PUSH1 0x40 MLOAD DUP1 SWAP2 SUB SWAP1 LOG4 POP POP JUMP JUMPDEST PUSH0 PUSH1 0x40 MLOAD SWAP1 POP SWAP1 JUMP JUMPDEST PUSH0 DUP1 REVERT JUMPDEST PUSH0 DUP1 REVERT JUMPDEST PUSH0 DUP1 REVERT JUMPDEST PUSH0 DUP1 REVERT JUMPDEST PUSH0 PUSH1 0x1F NOT PUSH1 0x1F DUP4 ADD AND SWAP1 POP SWAP2 SWAP1 POP JUMP JUMPDEST PUSH32 0x4E487B7100000000000000000000000000000000000000000000000000000000 PUSH0 MSTORE PUSH1 0x41 PUSH1 0x4 MSTORE PUSH1 0x24 PUSH0 REVERT JUMPDEST PUSH2 0x336 DUP3 PUSH2 0x2F0 JUMP JUMPDEST DUP2 ADD DUP2 DUP2 LT PUSH8 0xFFFFFFFFFFFFFFFF DUP3 GT OR ISZERO PUSH2 0x355 JUMPI PUSH2 0x354 PUSH2 0x300 JUMP JUMPDEST JUMPDEST DUP1 PUSH1 0x40 MSTORE POP POP POP JUMP JUMPDEST PUSH0 PUSH2 0x367 PUSH2 0x2D7 JUMP JUMPDEST SWAP1 POP PUSH2 0x373 DUP3 DUP3 PUSH2 0x32D JUMP JUMPDEST SWAP2 SWAP1 POP JUMP JUMPDEST PUSH0 PUSH8 0xFFFFFFFFFFFFFFFF DUP3 GT ISZERO PUSH2 0x392 JUMPI PUSH2 0x391 PUSH2 0x300 JUMP JUMPDEST JUMPDEST PUSH2 0x39B DUP3 PUSH2 0x2F0 JUMP JUMPDEST SWAP1 POP PUSH1 0x20 DUP2 ADD SWAP1 POP SWAP2 SWAP1 POP JUMP JUMPDEST DUP3 DUP2 DUP4 MCOPY PUSH0 DUP4 DUP4 ADD MSTORE POP POP POP JUMP JUMPDEST PUSH0 PUSH2 0x3C8 PUSH2 0x3C3 DUP5 PUSH2 0x378 JUMP JUMPDEST PUSH2 0x35E JUMP JUMPDEST SWAP1 POP DUP3 DUP2 MSTORE PUSH1 0x20 DUP2 ADD DUP5 DUP5 DUP5 ADD GT ISZERO PUSH2 0x3E4 JUMPI PUSH2 0x3E3 PUSH2 0x2EC JUMP JUMPDEST JUMPDEST PUSH2 0x3EF DUP5 DUP3 DUP6 PUSH2 0x3A8 JUMP JUMPDEST POP SWAP4 SWAP3 POP POP POP JUMP JUMPDEST PUSH0 DUP3 PUSH1 0x1F DUP4 ADD SLT PUSH2 0x40B JUMPI PUSH2 0x40A PUSH2 0x2E8 JUMP JUMPDEST JUMPDEST DUP2 MLOAD PUSH2 0x41B DUP5 DUP3 PUSH1 0x20 DUP7 ADD PUSH2 0x3B6 JUMP JUMPDEST SWAP2 POP POP SWAP3 SWAP2 POP POP JUMP JUMPDEST PUSH0 DUP1 PUSH1 0x40 DUP4 DUP6 SUB SLT ISZERO PUSH2 0x43A JUMPI PUSH2 0x439 PUSH2 0x2E0 JUMP JUMPDEST JUMPDEST PUSH0 DUP4 ADD MLOAD PUSH8 0xFFFFFFFFFFFFFFFF DUP2 GT ISZERO PUSH2 0x457 JUMPI PUSH2 0x456 PUSH2 0x2E4 JUMP JUMPDEST JUMPDEST PUSH2 0x463 DUP6 DUP3 DUP7 ADD PUSH2 0x3F7 JUMP JUMPDEST SWAP3 POP POP PUSH1 0x20 DUP4 ADD MLOAD PUSH8 0xFFFFFFFFFFFFFFFF DUP2 GT ISZERO PUSH2 0x484 JUMPI PUSH2 0x483 PUSH2 0x2E4 JUMP JUMPDEST JUMPDEST PUSH2 0x490 DUP6 DUP3 DUP7 ADD PUSH2 0x3F7 JUMP JUMPDEST SWAP2 POP POP SWAP3 POP SWAP3 SWAP1 POP JUMP JUMPDEST PUSH0 DUP2 MLOAD SWAP1 POP SWAP2 SWAP1 POP JUMP JUMPDEST PUSH32 0x4E487B7100000000000000000000000000000000000000000000000000000000 PUSH0 MSTORE PUSH1 0x22 PUSH1 0x4 MSTORE PUSH1 0x24 PUSH0 REVERT JUMPDEST PUSH0 PUSH1 0x2 DUP3 DIV SWAP1 POP PUSH1 0x1 DUP3 AND DUP1 PUSH2 0x4E8 JUMPI PUSH1 0x7F DUP3 AND SWAP2 POP JUMPDEST PUSH1 0x20 DUP3 LT DUP2 SUB PUSH2 0x4FB JUMPI PUSH2 0x4FA PUSH2 0x4A4 JUMP JUMPDEST JUMPDEST POP SWAP2 SWAP1 POP JUMP JUMPDEST PUSH0 DUP2 SWAP1 POP DUP2 PUSH0 MSTORE PUSH1 0x20 PUSH0 KECCAK256 SWAP1 POP SWAP2 SWAP1 POP JUMP JUMPDEST PUSH0 PUSH1 0x20 PUSH1 0x1F DUP4 ADD DIV SWAP1 POP SWAP2 SWAP1 POP JUMP JUMPDEST PUSH0 DUP3 DUP3 SHL SWAP1 POP SWAP3 SWAP2 POP POP JUMP JUMPDEST PUSH0 PUSH1 0x8 DUP4 MUL PUSH2 0x55D PUSH32 0xFFFFFFFFFFFFFFFFFFFFFFFFFFFFFFFFFFFFFFFFFFFFFFFFFFFFFFFFFFFFFFFF DUP3 PUSH2 0x522 JUMP JUMPDEST PUSH2 0x567 DUP7 DUP4 PUSH2 0x522 JUMP JUMPDEST SWAP6 POP DUP1 NOT DUP5 AND SWAP4 POP DUP1 DUP7 AND DUP5 OR SWAP3 POP POP POP SWAP4 SWAP3 POP POP POP JUMP JUMPDEST PUSH0 DUP2 SWAP1 POP SWAP2 SWAP1 POP JUMP JUMPDEST PUSH0 DUP2 SWAP1 POP SWAP2 SWAP1 POP JUMP JUMPDEST PUSH0 PUSH2 0x5AB PUSH2 0x5A6 PUSH2 0x5A1 DUP5 PUSH2 0x57F JUMP JUMPDEST PUSH2 0x588 JUMP JUMPDEST PUSH2 0x57F JUMP JUMPDEST SWAP1 POP SWAP2 SWAP1 POP JUMP JUMPDEST PUSH0 DUP2 SWAP1 POP SWAP2 SWAP1 POP JUMP JUMPDEST PUSH2 0x5C4 DUP4 PUSH2 0x591 JUMP JUMPDEST PUSH2 0x5D8 PUSH2 0x5D0 DUP3 PUSH2 0x5B2 JUMP JUMPDEST DUP5 DUP5 SLOAD PUSH2 0x52E JUMP JUMPDEST DUP3 SSTORE POP POP POP POP JUMP JUMPDEST PUSH0 SWAP1 JUMP JUMPDEST PUSH2 0x5EC PUSH2 0x5E0 JUMP JUMPDEST PUSH2 0x5F7 DUP2 DUP5 DUP5 PUSH2 0x5BB JUMP JUMPDEST POP POP POP JUMP JUMPDEST JUMPDEST DUP2 DUP2 LT ISZERO PUSH2 0x61A JUMPI PUSH2 0x60F PUSH0 DUP3 PUSH2 0x5E4 JUMP JUMPDEST PUSH1 0x1 DUP2 ADD SWAP1 POP PUSH2 0x5FD JUMP JUMPDEST POP POP JUMP JUMPDEST PUSH1 0x1F DUP3 GT ISZERO PUSH2 0x65F JUMPI PUSH2 0x630 DUP2 PUSH2 0x501 JUMP JUMPDEST PUSH2 0x639 DUP5 PUSH2 0x513 JUMP JUMPDEST DUP2 ADD PUSH1 0x20 DUP6 LT ISZERO PUSH2 0x648 JUMPI DUP2 SWAP1 POP JUMPDEST PUSH2 0x65C PUSH2 0x654 DUP6 PUSH2 0x513 JUMP JUMPDEST DUP4 ADD DUP3 PUSH2 0x5FC JUMP JUMPDEST POP POP JUMPDEST POP POP POP JUMP JUMPDEST PUSH0 DUP3 DUP3 SHR SWAP1 POP SWAP3 SWAP2 POP POP JUMP JUMPDEST PUSH0 PUSH2 0x67F PUSH0 NOT DUP5 PUSH1 0x8 MUL PUSH2 0x664 JUMP JUMPDEST NOT DUP1 DUP4 AND SWAP2 POP POP SWAP3 SWAP2 POP POP JUMP JUMPDEST PUSH0 PUSH2 0x697 DUP4 DUP4 PUSH2 0x670 JUMP JUMPDEST SWAP2 POP DUP3 PUSH1 0x2 MUL DUP3 OR SWAP1 POP SWAP3 SWAP2 POP POP JUMP JUMPDEST PUSH2 0x6B0 DUP3 PUSH2 0x49A JUMP JUMPDEST PUSH8 0xFFFFFFFFFFFFFFFF DUP2 GT ISZERO PUSH2 0x6C9 JUMPI PUSH2 0x6C8 PUSH2 0x300 JUMP JUMPDEST JUMPDEST PUSH2 0x6D3 DUP3 SLOAD PUSH2 0x4D1 JUMP JUMPDEST PUSH2 0x6DE DUP3 DUP3 DUP6 PUSH2 0x61E JUMP JUMPDEST PUSH0 PUSH1 0x20 SWAP1 POP PUSH1 0x1F DUP4 GT PUSH1 0x1 DUP2 EQ PUSH2 0x70F JUMPI PUSH0 DUP5 ISZERO PUSH2 0x6FD JUMPI DUP3 DUP8 ADD MLOAD SWAP1 POP JUMPDEST PUSH2 0x707 DUP6 DUP3 PUSH2 0x68C JUMP JUMPDEST DUP7 SSTORE POP PUSH2 0x76E JUMP JUMPDEST PUSH1 0x1F NOT DUP5 AND PUSH2 0x71D DUP7 PUSH2 0x501 JUMP JUMPDEST PUSH0 JUMPDEST DUP3 DUP2 LT ISZERO PUSH2 0x744 JUMPI DUP5 DUP10 ADD MLOAD DUP3 SSTORE PUSH1 0x1 DUP3 ADD SWAP2 POP PUSH1 0x20 DUP6 ADD SWAP5 POP PUSH1 0x20 DUP2 ADD SWAP1 POP PUSH2 0x71F JUMP JUMPDEST DUP7 DUP4 LT ISZERO PUSH2 0x761 JUMPI DUP5 DUP10 ADD MLOAD PUSH2 0x75D PUSH1 0x1F DUP10 AND DUP3 PUSH2 0x670 JUMP JUMPDEST DUP4 SSTORE POP JUMPDEST PUSH1 0x1 PUSH1 0x2 DUP9 MUL ADD DUP9 SSTORE POP POP POP JUMPDEST POP POP POP POP POP POP JUMP JUMPDEST PUSH32 0x4E487B7100000000000000000000000000000000000000000000000000000000 PUSH0 MSTORE PUSH1 0x11 PUSH1 0x4 MSTORE PUSH1 0x24 PUSH0 REVERT JUMPDEST PUSH0 PUSH2 0x7AD DUP3 PUSH2 0x57F JUMP JUMPDEST SWAP2 POP PUSH32 0xFFFFFFFFFFFFFFFFFFFFFFFFFFFFFFFFFFFFFFFFFFFFFFFFFFFFFFFFFFFFFFFF DUP3 SUB PUSH2 0x7DF JUMPI PUSH2 0x7DE PUSH2 0x776 JUMP JUMPDEST JUMPDEST PUSH1 0x1 DUP3 ADD SWAP1 POP SWAP2 SWAP1 POP JUMP JUMPDEST PUSH0 DUP3 DUP3 MSTORE PUSH1 0x20 DUP3 ADD SWAP1 POP SWAP3 SWAP2 POP POP JUMP JUMPDEST PUSH32 0x6D696E7420746F207A65726F2061646472657373000000000000000000000000 PUSH0 DUP3 ADD MSTORE POP JUMP JUMPDEST PUSH0 PUSH2 0x82E PUSH1 0x14 DUP4 PUSH2 0x7EA JUMP JUMPDEST SWAP2 POP PUSH2 0x839 DUP3 PUSH2 0x7FA JUMP JUMPDEST PUSH1 0x20 DUP3 ADD SWAP1 POP SWAP2 SWAP1 POP JUMP JUMPDEST PUSH0 PUSH1 0x20 DUP3 ADD SWAP1 POP DUP2 DUP2 SUB PUSH0 DUP4 ADD MSTORE PUSH2 0x85B DUP2 PUSH2 0x822 JUMP JUMPDEST SWAP1 POP SWAP2 SWAP1 POP JUMP JUMPDEST PUSH32 0x616C7265616479206D696E746564000000000000000000000000000000000000 PUSH0 DUP3 ADD MSTORE POP JUMP JUMPDEST PUSH0 PUSH2 0x896 PUSH1 0xE DUP4 PUSH2 0x7EA JUMP JUMPDEST SWAP2 POP PUSH2 0x8A1 DUP3 PUSH2 0x862 JUMP JUMPDEST PUSH1 0x20 DUP3 ADD SWAP1 POP SWAP2 SWAP1 POP JUMP JUMPDEST PUSH0 PUSH1 0x20 DUP3 ADD SWAP1 POP DUP2 DUP2 SUB PUSH0 DUP4 ADD MSTORE PUSH2 0x8C3 DUP2 PUSH2 0x88A JUMP JUMPDEST SWAP1 POP SWAP2 SWAP1 POP JUMP JUMPDEST PUSH0 PUSH2 0x8D4 DUP3 PUSH2 0x57F JUMP JUMPDEST SWAP2 POP PUSH2 0x8DF DUP4 PUSH2 0x57F JUMP JUMPDEST SWAP3 POP DUP3 DUP3 ADD SWAP1 POP DUP1 DUP3 GT ISZERO PUSH2 0x8F7 JUMPI PUSH2 0x8F6 PUSH2 0x776 JUMP JUMPDEST JUMPDEST SWAP3 SWAP2 POP POP JUMP JUMPDEST PUSH2 0x1F5A DUP1 PUSH2 0x90A PUSH0 CODECOPY PUSH0 RETURN INVALID PUSH1 0x80 PUSH1 0x40 MSTORE PUSH1 0x4 CALLDATASIZE LT PUSH2 0xE7 JUMPI PUSH0 CALLDATALOAD PUSH1 0xE0 SHR DUP1 PUSH4 0x4D853EE5 GT PUSH2 0x89 JUMPI DUP1 PUSH4 0xA22CB465 GT PUSH2 0x58 JUMPI DUP1 PUSH4 0xA22CB465 EQ PUSH2 0x2E1 JUMPI DUP1 PUSH4 0xB88D4FDE EQ PUSH2 0x309 JUMPI DUP1 PUSH4 0xE985E9C5 EQ PUSH2 0x325 JUMPI DUP1 PUSH4 0xEDC3BC3F EQ PUSH2 0x361 JUMPI PUSH2 0xE7 JUMP JUMPDEST DUP1 PUSH4 0x4D853EE5 EQ PUSH2 0x215 JUMPI DUP1 PUSH4 0x6352211E EQ PUSH2 0x23F JUMPI DUP1 PUSH4 0x70A08231 EQ PUSH2 0x27B JUMPI DUP1 PUSH4 0x95D89B41 EQ PUSH2 0x2B7 JUMPI PUSH2 0xE7 JUMP JUMPDEST DUP1 PUSH4 0x95EA7B3 GT PUSH2 0xC5 JUMPI DUP1 PUSH4 0x95EA7B3 EQ PUSH2 0x18D JUMPI DUP1 PUSH4 0x23B872DD EQ PUSH2 0x1B5 JUMPI DUP1 PUSH4 0x3C168EAB EQ PUSH2 0x1D1 JUMPI DUP1 PUSH4 0x42842E0E EQ PUSH2 0x1F9 JUMPI PUSH2 0xE7 JUMP JUMPDEST DUP1 PUSH4 0x1FFC9A7 EQ PUSH2 0xEB JUMPI DUP1 PUSH4 0x6FDDE03 EQ PUSH2 0x127 JUMPI DUP1 PUSH4 0x81812FC EQ PUSH2 0x151 JUMPI JUMPDEST PUSH0 DUP1 REVERT JUMPDEST CALLVALUE DUP1 ISZERO PUSH2 0xF6 JUMPI PUSH0 DUP1 REVERT JUMPDEST POP PUSH2 0x111 PUSH1 0x4 DUP1 CALLDATASIZE SUB DUP2 ADD SWAP1 PUSH2 0x10C SWAP2 SWAP1 PUSH2 0x14EC JUMP JUMPDEST PUSH2 0x39D JUMP JUMPDEST PUSH1 0x40 MLOAD PUSH2 0x11E SWAP2 SWAP1 PUSH2 0x1531 JUMP JUMPDEST PUSH1 0x40 MLOAD DUP1 SWAP2 SUB SWAP1 RETURN JUMPDEST CALLVALUE DUP1 ISZERO PUSH2 0x132 JUMPI PUSH0 DUP1 REVERT JUMPDEST POP PUSH2 0x13B PUSH2 0x46E JUMP JUMPDEST PUSH1 0x40 MLOAD PUSH2 0x148 SWAP2 SWAP1 PUSH2 0x15BA JUMP JUMPDEST PUSH1 0x40 MLOAD DUP1 SWAP2 SUB SWAP1 RETURN JUMPDEST CALLVALUE DUP1 ISZERO PUSH2 0x15C JUMPI PUSH0 DUP1 REVERT JUMPDEST POP PUSH2 0x177 PUSH1 0x4 DUP1 CALLDATASIZE SUB DUP2 ADD SWAP1 PUSH2 0x172 SWAP2 SWAP1 PUSH2 0x160D JUMP JUMPDEST PUSH2 0x4FA JUMP JUMPDEST PUSH1 0x40 MLOAD PUSH2 0x184 SWAP2 SWAP1 PUSH2 0x1677 JUMP JUMPDEST PUSH1 0x40 MLOAD DUP1 SWAP2 SUB SWAP1 RETURN JUMPDEST CALLVALUE DUP1 ISZERO PUSH2 0x198 JUMPI PUSH0 DUP1 REVERT JUMPDEST POP PUSH2 0x1B3 PUSH1 0x4 DUP1 CALLDATASIZE SUB DUP2 ADD SWAP1 PUSH2 0x1AE SWAP2 SWAP1 PUSH2 0x16BA JUMP JUMPDEST PUSH2 0x5D1 JUMP JUMPDEST STOP JUMPDEST PUSH2 0x1CF PUSH1 0x4 DUP1 CALLDATASIZE SUB DUP2 ADD SWAP1 PUSH2 0x1CA SWAP2 SWAP1 PUSH2 0x16F8 JUMP JUMPDEST PUSH2 0x7AE JUMP JUMPDEST STOP JUMPDEST CALLVALUE DUP1 ISZERO PUSH2 0x1DC JUMPI PUSH0 DUP1 REVERT JUMPDEST POP PUSH2 0x1F7 PUSH1 0x4 DUP1 CALLDATASIZE SUB DUP2 ADD SWAP1 PUSH2 0x1F2 SWAP2 SWAP1 PUSH2 0x16BA JUMP JUMPDEST PUSH2 0x7BE JUMP JUMPDEST STOP JUMPDEST PUSH2 0x213 PUSH1 0x4 DUP1 CALLDATASIZE SUB DUP2 ADD SWAP1 PUSH2 0x20E SWAP2 SWAP1 PUSH2 0x16F8 JUMP JUMPDEST PUSH2 0x859 JUMP JUMPDEST STOP JUMPDEST CALLVALUE DUP1 ISZERO PUSH2 0x220 JUMPI PUSH0 DUP1 REVERT JUMPDEST POP PUSH2 0x229 PUSH2 0x98D JUMP JUMPDEST PUSH1 0x40 MLOAD PUSH2 0x236 SWAP2 SWAP1 PUSH2 0x1677 JUMP JUMPDEST PUSH1 0x40 MLOAD DUP1 SWAP2 SUB SWAP1 RETURN JUMPDEST CALLVALUE DUP1 ISZERO PUSH2 0x24A JUMPI PUSH0 DUP1 REVERT JUMPDEST POP PUSH2 0x265 PUSH1 0x4 DUP1 CALLDATASIZE SUB DUP2 ADD SWAP1 PUSH2 0x260 SWAP2 SWAP1 PUSH2 0x160D JUMP JUMPDEST PUSH2 0x9B0 JUMP JUMPDEST PUSH1 0x40 MLOAD PUSH2 0x272 SWAP2 SWAP1 PUSH2 0x1677 JUMP JUMPDEST PUSH1 0x40 MLOAD DUP1 SWAP2 SUB SWAP1 RETURN JUMPDEST CALLVALUE DUP1 ISZERO PUSH2 0x286 JUMPI PUSH0 DUP1 REVERT JUMPDEST POP PUSH2 0x2A1 PUSH1 0x4 DUP1 CALLDATASIZE SUB DUP2 ADD SWAP1 PUSH2 0x29C SWAP2 SWAP1 PUSH2 0x1748 JUMP JUMPDEST PUSH2 0xA5C JUMP JUMPDEST PUSH1 0x40 MLOAD PUSH2 0x2AE SWAP2 SWAP1 PUSH2 0x1782 JUMP JUMPDEST PUSH1 0x40 MLOAD DUP1 SWAP2 SUB SWAP1 RETURN JUMPDEST CALLVALUE DUP1 ISZERO PUSH2 0x2C2 JUMPI PUSH0 DUP1 REVERT JUMPDEST POP PUSH2 0x2CB PUSH2 0xB10 JUMP JUMPDEST PUSH1 0x40 MLOAD PUSH2 0x2D8 SWAP2 SWAP1 PUSH2 0x15BA JUMP JUMPDEST PUSH1 0x40 MLOAD DUP1 SWAP2 SUB SWAP1 RETURN JUMPDEST CALLVALUE DUP1 ISZERO PUSH2 0x2EC JUMPI PUSH0 DUP1 REVERT JUMPDEST POP PUSH2 0x307 PUSH1 0x4 DUP1 CALLDATASIZE SUB DUP2 ADD SWAP1 PUSH2 0x302 SWAP2 SWAP1 PUSH2 0x17C5 JUMP JUMPDEST PUSH2 0xB9C JUMP JUMPDEST STOP JUMPDEST PUSH2 0x323 PUSH1 0x4 DUP1 CALLDATASIZE SUB DUP2 ADD SWAP1 PUSH2 0x31E SWAP2 SWAP1 PUSH2 0x1864 JUMP JUMPDEST PUSH2 0xC94 JUMP JUMPDEST STOP JUMPDEST CALLVALUE DUP1 ISZERO PUSH2 0x330 JUMPI PUSH0 DUP1 REVERT JUMPDEST POP PUSH2 0x34B PUSH1 0x4 DUP1 CALLDATASIZE SUB DUP2 ADD SWAP1 PUSH2 0x346 SWAP2 SWAP1 PUSH2 0x18E8 JUMP JUMPDEST PUSH2 0xDCE JUMP JUMPDEST PUSH1 0x40 MLOAD PUSH2 0x358 SWAP2 SWAP1 PUSH2 0x1531 JUMP JUMPDEST PUSH1 0x40 MLOAD DUP1 SWAP2 SUB SWAP1 RETURN JUMPDEST CALLVALUE DUP1 ISZERO PUSH2 0x36C JUMPI PUSH0 DUP1 REVERT JUMPDEST POP PUSH2 0x387 PUSH1 0x4 DUP1 CALLDATASIZE SUB DUP2 ADD SWAP1 PUSH2 0x382 SWAP2 SWAP1 PUSH2 0x18E8 JUMP JUMPDEST PUSH2 0xE5C JUMP JUMPDEST PUSH1 0x40 MLOAD PUSH2 0x394 SWAP2 SWAP1 PUSH2 0x1531 JUMP JUMPDEST PUSH1 0x40 MLOAD DUP1 SWAP2 SUB SWAP1 RETURN JUMPDEST PUSH0 PUSH32 0x80AC58CD00000000000000000000000000000000000000000000000000000000 PUSH28 0xFFFFFFFFFFFFFFFFFFFFFFFFFFFFFFFFFFFFFFFFFFFFFFFFFFFFFFFF NOT AND DUP3 PUSH28 0xFFFFFFFFFFFFFFFFFFFFFFFFFFFFFFFFFFFFFFFFFFFFFFFFFFFFFFFF NOT AND EQ DUP1 PUSH2 0x467 JUMPI POP PUSH32 0x1FFC9A700000000000000000000000000000000000000000000000000000000 PUSH28 0xFFFFFFFFFFFFFFFFFFFFFFFFFFFFFFFFFFFFFFFFFFFFFFFFFFFFFFFF NOT AND DUP3 PUSH28 0xFFFFFFFFFFFFFFFFFFFFFFFFFFFFFFFFFFFFFFFFFFFFFFFFFFFFFFFF NOT AND EQ JUMPDEST SWAP1 POP SWAP2 SWAP1 POP JUMP JUMPDEST PUSH1 0x5 DUP1 SLOAD PUSH2 0x47B SWAP1 PUSH2 0x1953 JUMP JUMPDEST DUP1 PUSH1 0x1F ADD PUSH1 0x20 DUP1 SWAP2 DIV MUL PUSH1 0x20 ADD PUSH1 0x40 MLOAD SWAP1 DUP2 ADD PUSH1 0x40 MSTORE DUP1 SWAP3 SWAP2 SWAP1 DUP2 DUP2 MSTORE PUSH1 0x20 ADD DUP3 DUP1 SLOAD PUSH2 0x4A7 SWAP1 PUSH2 0x1953 JUMP JUMPDEST DUP1 ISZERO PUSH2 0x4F2 JUMPI DUP1 PUSH1 0x1F LT PUSH2 0x4C9 JUMPI PUSH2 0x100 DUP1 DUP4 SLOAD DIV MUL DUP4 MSTORE SWAP2 PUSH1 0x20 ADD SWAP2 PUSH2 0x4F2 JUMP JUMPDEST DUP3 ADD SWAP2 SWAP1 PUSH0 MSTORE PUSH1 0x20 PUSH0 KECCAK256 SWAP1 JUMPDEST DUP2 SLOAD DUP2 MSTORE SWAP1 PUSH1 0x1 ADD SWAP1 PUSH1 0x20 ADD DUP1 DUP4 GT PUSH2 0x4D5 JUMPI DUP3 SWAP1 SUB PUSH1 0x1F AND DUP3 ADD SWAP2 JUMPDEST POP POP POP POP POP DUP2 JUMP JUMPDEST PUSH0 DUP1 PUSH20 0xFFFFFFFFFFFFFFFFFFFFFFFFFFFFFFFFFFFFFFFF AND PUSH1 0x1 PUSH0 DUP5 DUP2 MSTORE PUSH1 0x20 ADD SWAP1 DUP2 MSTORE PUSH1 0x20 ADD PUSH0 KECCAK256 PUSH0 SWAP1 SLOAD SWAP1 PUSH2 0x100 EXP SWAP1 DIV PUSH20 0xFFFFFFFFFFFFFFFFFFFFFFFFFFFFFFFFFFFFFFFF AND PUSH20 0xFFFFFFFFFFFFFFFFFFFFFFFFFFFFFFFFFFFFFFFF AND SUB PUSH2 0x599 JUMPI PUSH1 0x40 MLOAD PUSH32 0x8C379A000000000000000000000000000000000000000000000000000000000 DUP2 MSTORE PUSH1 0x4 ADD PUSH2 0x590 SWAP1 PUSH2 0x19CD JUMP JUMPDEST PUSH1 0x40 MLOAD DUP1 SWAP2 SUB SWAP1 REVERT JUMPDEST PUSH1 0x3 PUSH0 DUP4 DUP2 MSTORE PUSH1 0x20 ADD SWAP1 DUP2 MSTORE PUSH1 0x20 ADD PUSH0 KECCAK256 PUSH0 SWAP1 SLOAD SWAP1 PUSH2 0x100 EXP SWAP1 DIV PUSH20 0xFFFFFFFFFFFFFFFFFFFFFFFFFFFFFFFFFFFFFFFF AND SWAP1 POP SWAP2 SWAP1 POP JUMP JUMPDEST PUSH0 PUSH1 0x1 PUSH0 DUP4 DUP2 MSTORE PUSH1 0x20 ADD SWAP1 DUP2 MSTORE PUSH1 0x20 ADD PUSH0 KECCAK256 PUSH0 SWAP1 SLOAD SWAP1 PUSH2 0x100 EXP SWAP1 DIV PUSH20 0xFFFFFFFFFFFFFFFFFFFFFFFFFFFFFFFFFFFFFFFF AND SWAP1 POP DUP1 PUSH20 0xFFFFFFFFFFFFFFFFFFFFFFFFFFFFFFFFFFFFFFFF AND CALLER PUSH20 0xFFFFFFFFFFFFFFFFFFFFFFFFFFFFFFFFFFFFFFFF AND EQ DUP1 PUSH2 0x6C0 JUMPI POP PUSH1 0x4 PUSH0 DUP3 PUSH20 0xFFFFFFFFFFFFFFFFFFFFFFFFFFFFFFFFFFFFFFFF AND PUSH20 0xFFFFFFFFFFFFFFFFFFFFFFFFFFFFFFFFFFFFFFFF AND DUP2 MSTORE PUSH1 0x20 ADD SWAP1 DUP2 MSTORE PUSH1 0x20 ADD PUSH0 KECCAK256 PUSH0 CALLER PUSH20 0xFFFFFFFFFFFFFFFFFFFFFFFFFFFFFFFFFFFFFFFF AND PUSH20 0xFFFFFFFFFFFFFFFFFFFFFFFFFFFFFFFFFFFFFFFF AND DUP2 MSTORE PUSH1 0x20 ADD SWAP1 DUP2 MSTORE PUSH1 0x20 ADD PUSH0 KECCAK256 PUSH0 SWAP1 SLOAD SWAP1 PUSH2 0x100 EXP SWAP1 DIV PUSH1 0xFF AND JUMPDEST PUSH2 0x6FF JUMPI PUSH1 0x40 MLOAD PUSH32 0x8C379A000000000000000000000000000000000000000000000000000000000 DUP2 MSTORE PUSH1 0x4 ADD PUSH2 0x6F6 SWAP1 PUSH2 0x1A35 JUMP JUMPDEST PUSH1 0x40 MLOAD DUP1 SWAP2 SUB SWAP1 REVERT JUMPDEST DUP3 PUSH1 0x3 PUSH0 DUP5 DUP2 MSTORE PUSH1 0x20 ADD SWAP1 DUP2 MSTORE PUSH1 0x20 ADD PUSH0 KECCAK256 PUSH0 PUSH2 0x100 EXP DUP2 SLOAD DUP2 PUSH20 0xFFFFFFFFFFFFFFFFFFFFFFFFFFFFFFFFFFFFFFFF MUL NOT AND SWAP1 DUP4 PUSH20 0xFFFFFFFFFFFFFFFFFFFFFFFFFFFFFFFFFFFFFFFF AND MUL OR SWAP1 SSTORE POP DUP2 DUP4 PUSH20 0xFFFFFFFFFFFFFFFFFFFFFFFFFFFFFFFFFFFFFFFF AND DUP3 PUSH20 0xFFFFFFFFFFFFFFFFFFFFFFFFFFFFFFFFFFFFFFFF AND PUSH32 0x8C5BE1E5EBEC7D5BD14F71427D1E84F3DD0314C0F7B2291E5B200AC8C7C3B925 PUSH1 0x40 MLOAD PUSH1 0x40 MLOAD DUP1 SWAP2 SUB SWAP1 LOG4 POP POP POP JUMP JUMPDEST PUSH2 0x7B9 DUP4 DUP4 DUP4 PUSH2 0xE86 JUMP JUMPDEST POP POP POP JUMP JUMPDEST PUSH0 DUP1 SLOAD SWAP1 PUSH2 0x100 EXP SWAP1 DIV PUSH20 0xFFFFFFFFFFFFFFFFFFFFFFFFFFFFFFFFFFFFFFFF AND PUSH20 0xFFFFFFFFFFFFFFFFFFFFFFFFFFFFFFFFFFFFFFFF AND CALLER PUSH20 0xFFFFFFFFFFFFFFFFFFFFFFFFFFFFFFFFFFFFFFFF AND EQ PUSH2 0x84B JUMPI PUSH1 0x40 MLOAD PUSH32 0x8C379A000000000000000000000000000000000000000000000000000000000 DUP2 MSTORE PUSH1 0x4 ADD PUSH2 0x842 SWAP1 PUSH2 0x1A9D JUMP JUMPDEST PUSH1 0x40 MLOAD DUP1 SWAP2 SUB SWAP1 REVERT JUMPDEST PUSH2 0x855 DUP3 DUP3 PUSH2 0x1281 JUMP JUMPDEST POP POP JUMP JUMPDEST PUSH2 0x864 DUP4 DUP4 DUP4 PUSH2 0xE86 JUMP JUMPDEST PUSH0 DUP3 PUSH20 0xFFFFFFFFFFFFFFFFFFFFFFFFFFFFFFFFFFFFFFFF AND EXTCODESIZE EQ DUP1 PUSH2 0x949 JUMPI POP PUSH4 0x150B7A02 PUSH1 0xE0 SHL PUSH28 0xFFFFFFFFFFFFFFFFFFFFFFFFFFFFFFFFFFFFFFFFFFFFFFFFFFFFFFFF NOT AND DUP3 PUSH20 0xFFFFFFFFFFFFFFFFFFFFFFFFFFFFFFFFFFFFFFFF AND PUSH4 0x150B7A02 CALLER DUP7 DUP6 PUSH1 0x40 MLOAD DUP5 PUSH4 0xFFFFFFFF AND PUSH1 0xE0 SHL DUP2 MSTORE PUSH1 0x4 ADD PUSH2 0x8E8 SWAP4 SWAP3 SWAP2 SWAP1 PUSH2 0x1AEE JUMP JUMPDEST PUSH1 0x20 PUSH1 0x40 MLOAD DUP1 DUP4 SUB DUP2 PUSH0 DUP8 GAS CALL ISZERO DUP1 ISZERO PUSH2 0x904 JUMPI RETURNDATASIZE PUSH0 DUP1 RETURNDATACOPY RETURNDATASIZE PUSH0 REVERT JUMPDEST POP POP POP POP PUSH1 0x40 MLOAD RETURNDATASIZE PUSH1 0x1F NOT PUSH1 0x1F DUP3 ADD AND DUP3 ADD DUP1 PUSH1 0x40 MSTORE POP DUP2 ADD SWAP1 PUSH2 0x928 SWAP2 SWAP1 PUSH2 0x1B4A JUMP JUMPDEST PUSH28 0xFFFFFFFFFFFFFFFFFFFFFFFFFFFFFFFFFFFFFFFFFFFFFFFFFFFFFFFF NOT AND EQ JUMPDEST PUSH2 0x988 JUMPI PUSH1 0x40 MLOAD PUSH32 0x8C379A000000000000000000000000000000000000000000000000000000000 DUP2 MSTORE PUSH1 0x4 ADD PUSH2 0x97F SWAP1 PUSH2 0x1BBF JUMP JUMPDEST PUSH1 0x40 MLOAD DUP1 SWAP2 SUB SWAP1 REVERT JUMPDEST POP POP POP JUMP JUMPDEST PUSH0 DUP1 SLOAD SWAP1 PUSH2 0x100 EXP SWAP1 DIV PUSH20 0xFFFFFFFFFFFFFFFFFFFFFFFFFFFFFFFFFFFFFFFF AND DUP2 JUMP JUMPDEST PUSH0 DUP1 PUSH1 0x1 PUSH0 DUP5 DUP2 MSTORE PUSH1 0x20 ADD SWAP1 DUP2 MSTORE PUSH1 0x20 ADD PUSH0 KECCAK256 PUSH0 SWAP1 SLOAD SWAP1 PUSH2 0x100 EXP SWAP1 DIV PUSH20 0xFFFFFFFFFFFFFFFFFFFFFFFFFFFFFFFFFFFFFFFF AND SWAP1 POP PUSH0 PUSH20 0xFFFFFFFFFFFFFFFFFFFFFFFFFFFFFFFFFFFFFFFF AND DUP2 PUSH20 0xFFFFFFFFFFFFFFFFFFFFFFFFFFFFFFFFFFFFFFFF AND SUB PUSH2 0xA53 JUMPI PUSH1 0x40 MLOAD PUSH32 0x8C379A000000000000000000000000000000000000000000000000000000000 DUP2 MSTORE PUSH1 0x4 ADD PUSH2 0xA4A SWAP1 PUSH2 0x19CD JUMP JUMPDEST PUSH1 0x40 MLOAD DUP1 SWAP2 SUB SWAP1 REVERT JUMPDEST DUP1 SWAP2 POP POP SWAP2 SWAP1 POP JUMP JUMPDEST PUSH0 DUP1 PUSH20 0xFFFFFFFFFFFFFFFFFFFFFFFFFFFFFFFFFFFFFFFF AND DUP3 PUSH20 0xFFFFFFFFFFFFFFFFFFFFFFFFFFFFFFFFFFFFFFFF AND SUB PUSH2 0xACB JUMPI PUSH1 0x40 MLOAD PUSH32 0x8C379A000000000000000000000000000000000000000000000000000000000 DUP2 MSTORE PUSH1 0x4 ADD PUSH2 0xAC2 SWAP1 PUSH2 0x1C4D JUMP JUMPDEST PUSH1 0x40 MLOAD DUP1 SWAP2 SUB SWAP1 REVERT JUMPDEST PUSH1 0x2 PUSH0 DUP4 PUSH20 0xFFFFFFFFFFFFFFFFFFFFFFFFFFFFFFFFFFFFFFFF AND PUSH20 0xFFFFFFFFFFFFFFFFFFFFFFFFFFFFFFFFFFFFFFFF AND DUP2 MSTORE PUSH1 0x20 ADD SWAP1 DUP2 MSTORE PUSH1 0x20 ADD PUSH0 KECCAK256 SLOAD SWAP1 POP SWAP2 SWAP1 POP JUMP JUMPDEST PUSH1 0x6 DUP1 SLOAD PUSH2 0xB1D SWAP1 PUSH2 0x1953 JUMP JUMPDEST DUP1 PUSH1 0x1F ADD PUSH1 0x20 DUP1 SWAP2 DIV MUL PUSH1 0x20 ADD PUSH1 0x40 MLOAD SWAP1 DUP2 ADD PUSH1 0x40 MSTORE DUP1 SWAP3 SWAP2 SWAP1 DUP2 DUP2 MSTORE PUSH1 0x20 ADD DUP3 DUP1 SLOAD PUSH2 0xB49 SWAP1 PUSH2 0x1953 JUMP JUMPDEST DUP1 ISZERO PUSH2 0xB94 JUMPI DUP1 PUSH1 0x1F LT PUSH2 0xB6B JUMPI PUSH2 0x100 DUP1 DUP4 SLOAD DIV MUL DUP4 MSTORE SWAP2 PUSH1 0x20 ADD SWAP2 PUSH2 0xB94 JUMP JUMPDEST DUP3 ADD SWAP2 SWAP1 PUSH0 MSTORE PUSH1 0x20 PUSH0 KECCAK256 SWAP1 JUMPDEST DUP2 SLOAD DUP2 MSTORE SWAP1 PUSH1 0x1 ADD SWAP1 PUSH1 0x20 ADD DUP1 DUP4 GT PUSH2 0xB77 JUMPI DUP3 SWAP1 SUB PUSH1 0x1F AND DUP3 ADD SWAP2 JUMPDEST POP POP POP POP POP DUP2 JUMP JUMPDEST DUP1 PUSH1 0x4 PUSH0 CALLER PUSH20 0xFFFFFFFFFFFFFFFFFFFFFFFFFFFFFFFFFFFFFFFF AND PUSH20 0xFFFFFFFFFFFFFFFFFFFFFFFFFFFFFFFFFFFFFFFF AND DUP2 MSTORE PUSH1 0x20 ADD SWAP1 DUP2 MSTORE PUSH1 0x20 ADD PUSH0 KECCAK256 PUSH0 DUP5 PUSH20 0xFFFFFFFFFFFFFFFFFFFFFFFFFFFFFFFFFFFFFFFF AND PUSH20 0xFFFFFFFFFFFFFFFFFFFFFFFFFFFFFFFFFFFFFFFF AND DUP2 MSTORE PUSH1 0x20 ADD SWAP1 DUP2 MSTORE PUSH1 0x20 ADD PUSH0 KECCAK256 PUSH0 PUSH2 0x100 EXP DUP2 SLOAD DUP2 PUSH1 0xFF MUL NOT AND SWAP1 DUP4 ISZERO ISZERO MUL OR SWAP1 SSTORE POP DUP2 PUSH20 0xFFFFFFFFFFFFFFFFFFFFFFFFFFFFFFFFFFFFFFFF AND CALLER PUSH20 0xFFFFFFFFFFFFFFFFFFFFFFFFFFFFFFFFFFFFFFFF AND PUSH32 0x17307EAB39AB6107E8899845AD3D59BD9653F200F220920489CA2B5937696C31 DUP4 PUSH1 0x40 MLOAD PUSH2 0xC88 SWAP2 SWAP1 PUSH2 0x1531 JUMP JUMPDEST PUSH1 0x40 MLOAD DUP1 SWAP2 SUB SWAP1 LOG3 POP POP JUMP JUMPDEST PUSH2 0xC9F DUP6 DUP6 DUP6 PUSH2 0xE86 JUMP JUMPDEST PUSH0 DUP5 PUSH20 0xFFFFFFFFFFFFFFFFFFFFFFFFFFFFFFFFFFFFFFFF AND EXTCODESIZE EQ DUP1 PUSH2 0xD88 JUMPI POP PUSH4 0x150B7A02 PUSH1 0xE0 SHL PUSH28 0xFFFFFFFFFFFFFFFFFFFFFFFFFFFFFFFFFFFFFFFFFFFFFFFFFFFFFFFF NOT AND DUP5 PUSH20 0xFFFFFFFFFFFFFFFFFFFFFFFFFFFFFFFFFFFFFFFF AND PUSH4 0x150B7A02 CALLER DUP9 DUP8 DUP8 DUP8 PUSH1 0x40 MLOAD DUP7 PUSH4 0xFFFFFFFF AND PUSH1 0xE0 SHL DUP2 MSTORE PUSH1 0x4 ADD PUSH2 0xD27 SWAP6 SWAP5 SWAP4 SWAP3 SWAP2 SWAP1 PUSH2 0x1CA5 JUMP JUMPDEST PUSH1 0x20 PUSH1 0x40 MLOAD DUP1 DUP4 SUB DUP2 PUSH0 DUP8 GAS CALL ISZERO DUP1 ISZERO PUSH2 0xD43 JUMPI RETURNDATASIZE PUSH0 DUP1 RETURNDATACOPY RETURNDATASIZE PUSH0 REVERT JUMPDEST POP POP POP POP PUSH1 0x40 MLOAD RETURNDATASIZE PUSH1 0x1F NOT PUSH1 0x1F DUP3 ADD AND DUP3 ADD DUP1 PUSH1 0x40 MSTORE POP DUP2 ADD SWAP1 PUSH2 0xD67 SWAP2 SWAP1 PUSH2 0x1B4A JUMP JUMPDEST PUSH28 0xFFFFFFFFFFFFFFFFFFFFFFFFFFFFFFFFFFFFFFFFFFFFFFFFFFFFFFFF NOT AND EQ JUMPDEST PUSH2 0xDC7 JUMPI PUSH1 0x40 MLOAD PUSH32 0x8C379A000000000000000000000000000000000000000000000000000000000 DUP2 MSTORE PUSH1 0x4 ADD PUSH2 0xDBE SWAP1 PUSH2 0x1BBF JUMP JUMPDEST PUSH1 0x40 MLOAD DUP1 SWAP2 SUB SWAP1 REVERT JUMPDEST POP POP POP POP POP JUMP JUMPDEST PUSH0 PUSH1 0x4 PUSH0 DUP5 PUSH20 0xFFFFFFFFFFFFFFFFFFFFFFFFFFFFFFFFFFFFFFFF AND PUSH20 0xFFFFFFFFFFFFFFFFFFFFFFFFFFFFFFFFFFFFFFFF AND DUP2 MSTORE PUSH1 0x20 ADD SWAP1 DUP2 MSTORE PUSH1 0x20 ADD PUSH0 KECCAK256 PUSH0 DUP4 PUSH20 0xFFFFFFFFFFFFFFFFFFFFFFFFFFFFFFFFFFFFFFFF AND PUSH20 0xFFFFFFFFFFFFFFFFFFFFFFFFFFFFFFFFFFFFFFFF AND DUP2 MSTORE PUSH1 0x20 ADD SWAP1 DUP2 MSTORE PUSH1 0x20 ADD PUSH0 KECCAK256 PUSH0 SWAP1 SLOAD SWAP1 PUSH2 0x100 EXP SWAP1 DIV PUSH1 0xFF AND SWAP1 POP SWAP3 SWAP2 POP POP JUMP JUMPDEST PUSH1 0x4 PUSH1 0x20 MSTORE DUP2 PUSH0 MSTORE PUSH1 0x40 PUSH0 KECCAK256 PUSH1 0x20 MSTORE DUP1 PUSH0 MSTORE PUSH1 0x40 PUSH0 KECCAK256 PUSH0 SWAP2 POP SWAP2 POP SWAP1 SLOAD SWAP1 PUSH2 0x100 EXP SWAP1 DIV PUSH1 0xFF AND DUP2 JUMP JUMPDEST PUSH0 PUSH1 0x1 PUSH0 DUP4 DUP2 MSTORE PUSH1 0x20 ADD SWAP1 DUP2 MSTORE PUSH1 0x20 ADD PUSH0 KECCAK256 PUSH0 SWAP1 SLOAD SWAP1 PUSH2 0x100 EXP SWAP1 DIV PUSH20 0xFFFFFFFFFFFFFFFFFFFFFFFFFFFFFFFFFFFFFFFF AND SWAP1 POP DUP1 PUSH20 0xFFFFFFFFFFFFFFFFFFFFFFFFFFFFFFFFFFFFFFFF AND DUP5 PUSH20 0xFFFFFFFFFFFFFFFFFFFFFFFFFFFFFFFFFFFFFFFF AND EQ PUSH2 0xF28 JUMPI PUSH1 0x40 MLOAD PUSH32 0x8C379A000000000000000000000000000000000000000000000000000000000 DUP2 MSTORE PUSH1 0x4 ADD PUSH2 0xF1F SWAP1 PUSH2 0x1D3B JUMP JUMPDEST PUSH1 0x40 MLOAD DUP1 SWAP2 SUB SWAP1 REVERT JUMPDEST PUSH0 PUSH20 0xFFFFFFFFFFFFFFFFFFFFFFFFFFFFFFFFFFFFFFFF AND DUP4 PUSH20 0xFFFFFFFFFFFFFFFFFFFFFFFFFFFFFFFFFFFFFFFF AND SUB PUSH2 0xF96 JUMPI PUSH1 0x40 MLOAD PUSH32 0x8C379A000000000000000000000000000000000000000000000000000000000 DUP2 MSTORE PUSH1 0x4 ADD PUSH2 0xF8D SWAP1 PUSH2 0x1DA3 JUMP JUMPDEST PUSH1 0x40 MLOAD DUP1 SWAP2 SUB SWAP1 REVERT JUMPDEST DUP1 PUSH20 0xFFFFFFFFFFFFFFFFFFFFFFFFFFFFFFFFFFFFFFFF AND CALLER PUSH20 0xFFFFFFFFFFFFFFFFFFFFFFFFFFFFFFFFFFFFFFFF AND EQ DUP1 PUSH2 0x102B JUMPI POP PUSH1 0x3 PUSH0 DUP4 DUP2 MSTORE PUSH1 0x20 ADD SWAP1 DUP2 MSTORE PUSH1 0x20 ADD PUSH0 KECCAK256 PUSH0 SWAP1 SLOAD SWAP1 PUSH2 0x100 EXP SWAP1 DIV PUSH20 0xFFFFFFFFFFFFFFFFFFFFFFFFFFFFFFFFFFFFFFFF AND PUSH20 0xFFFFFFFFFFFFFFFFFFFFFFFFFFFFFFFFFFFFFFFF AND CALLER PUSH20 0xFFFFFFFFFFFFFFFFFFFFFFFFFFFFFFFFFFFFFFFF AND EQ JUMPDEST DUP1 PUSH2 0x10B7 JUMPI POP PUSH1 0x4 PUSH0 DUP3 PUSH20 0xFFFFFFFFFFFFFFFFFFFFFFFFFFFFFFFFFFFFFFFF AND PUSH20 0xFFFFFFFFFFFFFFFFFFFFFFFFFFFFFFFFFFFFFFFF AND DUP2 MSTORE PUSH1 0x20 ADD SWAP1 DUP2 MSTORE PUSH1 0x20 ADD PUSH0 KECCAK256 PUSH0 CALLER PUSH20 0xFFFFFFFFFFFFFFFFFFFFFFFFFFFFFFFFFFFFFFFF AND PUSH20 0xFFFFFFFFFFFFFFFFFFFFFFFFFFFFFFFFFFFFFFFF AND DUP2 MSTORE PUSH1 0x20 ADD SWAP1 DUP2 MSTORE PUSH1 0x20 ADD PUSH0 KECCAK256 PUSH0 SWAP1 SLOAD SWAP1 PUSH2 0x100 EXP SWAP1 DIV PUSH1 0xFF AND JUMPDEST PUSH2 0x10F6 JUMPI PUSH1 0x40 MLOAD PUSH32 0x8C379A000000000000000000000000000000000000000000000000000000000 DUP2 MSTORE PUSH1 0x4 ADD PUSH2 0x10ED SWAP1 PUSH2 0x1A35 JUMP JUMPDEST PUSH1 0x40 MLOAD DUP1 SWAP2 SUB SWAP1 REVERT JUMPDEST PUSH1 0x1 PUSH1 0x2 PUSH0 DUP7 PUSH20 0xFFFFFFFFFFFFFFFFFFFFFFFFFFFFFFFFFFFFFFFF AND PUSH20 0xFFFFFFFFFFFFFFFFFFFFFFFFFFFFFFFFFFFFFFFF AND DUP2 MSTORE PUSH1 0x20 ADD SWAP1 DUP2 MSTORE PUSH1 0x20 ADD PUSH0 KECCAK256 PUSH0 DUP3 DUP3 SLOAD PUSH2 0x1143 SWAP2 SWAP1 PUSH2 0x1DEE JUMP JUMPDEST SWAP3 POP POP DUP2 SWAP1 SSTORE POP PUSH1 0x1 PUSH1 0x2 PUSH0 DUP6 PUSH20 0xFFFFFFFFFFFFFFFFFFFFFFFFFFFFFFFFFFFFFFFF AND PUSH20 0xFFFFFFFFFFFFFFFFFFFFFFFFFFFFFFFFFFFFFFFF AND DUP2 MSTORE PUSH1 0x20 ADD SWAP1 DUP2 MSTORE PUSH1 0x20 ADD PUSH0 KECCAK256 PUSH0 DUP3 DUP3 SLOAD PUSH2 0x1197 SWAP2 SWAP1 PUSH2 0x1E21 JUMP JUMPDEST SWAP3 POP POP DUP2 SWAP1 SSTORE POP DUP3 PUSH1 0x1 PUSH0 DUP5 DUP2 MSTORE PUSH1 0x20 ADD SWAP1 DUP2 MSTORE PUSH1 0x20 ADD PUSH0 KECCAK256 PUSH0 PUSH2 0x100 EXP DUP2 SLOAD DUP2 PUSH20 0xFFFFFFFFFFFFFFFFFFFFFFFFFFFFFFFFFFFFFFFF MUL NOT AND SWAP1 DUP4 PUSH20 0xFFFFFFFFFFFFFFFFFFFFFFFFFFFFFFFFFFFFFFFF AND MUL OR SWAP1 SSTORE POP PUSH1 0x3 PUSH0 DUP4 DUP2 MSTORE PUSH1 0x20 ADD SWAP1 DUP2 MSTORE PUSH1 0x20 ADD PUSH0 KECCAK256 PUSH0 PUSH2 0x100 EXP DUP2 SLOAD SWAP1 PUSH20 0xFFFFFFFFFFFFFFFFFFFFFFFFFFFFFFFFFFFFFFFF MUL NOT AND SWAP1 SSTORE DUP2 DUP4 PUSH20 0xFFFFFFFFFFFFFFFFFFFFFFFFFFFFFFFFFFFFFFFF AND DUP6 PUSH20 0xFFFFFFFFFFFFFFFFFFFFFFFFFFFFFFFFFFFFFFFF AND PUSH32 0xDDF252AD1BE2C89B69C2B068FC378DAA952BA7F163C4A11628F55A4DF523B3EF PUSH1 0x40 MLOAD PUSH1 0x40 MLOAD DUP1 SWAP2 SUB SWAP1 LOG4 POP POP POP POP JUMP JUMPDEST PUSH0 PUSH20 0xFFFFFFFFFFFFFFFFFFFFFFFFFFFFFFFFFFFFFFFF AND DUP3 PUSH20 0xFFFFFFFFFFFFFFFFFFFFFFFFFFFFFFFFFFFFFFFF AND SUB PUSH2 0x12EF JUMPI PUSH1 0x40 MLOAD PUSH32 0x8C379A000000000000000000000000000000000000000000000000000000000 DUP2 MSTORE PUSH1 0x4 ADD PUSH2 0x12E6 SWAP1 PUSH2 0x1E9E JUMP JUMPDEST PUSH1 0x40 MLOAD DUP1 SWAP2 SUB SWAP1 REVERT JUMPDEST PUSH0 PUSH20 0xFFFFFFFFFFFFFFFFFFFFFFFFFFFFFFFFFFFFFFFF AND PUSH1 0x1 PUSH0 DUP4 DUP2 MSTORE PUSH1 0x20 ADD SWAP1 DUP2 MSTORE PUSH1 0x20 ADD PUSH0 KECCAK256 PUSH0 SWAP1 SLOAD SWAP1 PUSH2 0x100 EXP SWAP1 DIV PUSH20 0xFFFFFFFFFFFFFFFFFFFFFFFFFFFFFFFFFFFFFFFF AND PUSH20 0xFFFFFFFFFFFFFFFFFFFFFFFFFFFFFFFFFFFFFFFF AND EQ PUSH2 0x138D JUMPI PUSH1 0x40 MLOAD PUSH32 0x8C379A000000000000000000000000000000000000000000000000000000000 DUP2 MSTORE PUSH1 0x4 ADD PUSH2 0x1384 SWAP1 PUSH2 0x1F06 JUMP JUMPDEST PUSH1 0x40 MLOAD DUP1 SWAP2 SUB SWAP1 REVERT JUMPDEST PUSH1 0x1 PUSH1 0x2 PUSH0 DUP5 PUSH20 0xFFFFFFFFFFFFFFFFFFFFFFFFFFFFFFFFFFFFFFFF AND PUSH20 0xFFFFFFFFFFFFFFFFFFFFFFFFFFFFFFFFFFFFFFFF AND DUP2 MSTORE PUSH1 0x20 ADD SWAP1 DUP2 MSTORE PUSH1 0x20 ADD PUSH0 KECCAK256 PUSH0 DUP3 DUP3 SLOAD PUSH2 0x13DA SWAP2 SWAP1 PUSH2 0x1E21 JUMP JUMPDEST SWAP3 POP POP DUP2 SWAP1 SSTORE POP DUP2 PUSH1 0x1 PUSH0 DUP4 DUP2 MSTORE PUSH1 0x20 ADD SWAP1 DUP2 MSTORE PUSH1 0x20 ADD PUSH0 KECCAK256 PUSH0 PUSH2 0x100 EXP DUP2 SLOAD DUP2 PUSH20 0xFFFFFFFFFFFFFFFFFFFFFFFFFFFFFFFFFFFFFFFF MUL NOT AND SWAP1 DUP4 PUSH20 0xFFFFFFFFFFFFFFFFFFFFFFFFFFFFFFFFFFFFFFFF AND MUL OR SWAP1 SSTORE POP DUP1 DUP3 PUSH20 0xFFFFFFFFFFFFFFFFFFFFFFFFFFFFFFFFFFFFFFFF AND PUSH0 PUSH20 0xFFFFFFFFFFFFFFFFFFFFFFFFFFFFFFFFFFFFFFFF AND PUSH32 0xDDF252AD1BE2C89B69C2B068FC378DAA952BA7F163C4A11628F55A4DF523B3EF PUSH1 0x40 MLOAD PUSH1 0x40 MLOAD DUP1 SWAP2 SUB SWAP1 LOG4 POP POP JUMP JUMPDEST PUSH0 DUP1 REVERT JUMPDEST PUSH0 DUP1 REVERT JUMPDEST PUSH0 PUSH32 0xFFFFFFFF00000000000000000000000000000000000000000000000000000000 DUP3 AND SWAP1 POP SWAP2 SWAP1 POP JUMP JUMPDEST PUSH2 0x14CB DUP2 PUSH2 0x1497 JUMP JUMPDEST DUP2 EQ PUSH2 0x14D5 JUMPI PUSH0 DUP1 REVERT JUMPDEST POP JUMP JUMPDEST PUSH0 DUP2 CALLDATALOAD SWAP1 POP PUSH2 0x14E6 DUP2 PUSH2 0x14C2 JUMP JUMPDEST SWAP3 SWAP2 POP POP JUMP JUMPDEST PUSH0 PUSH1 0x20 DUP3 DUP5 SUB SLT ISZERO PUSH2 0x1501 JUMPI PUSH2 0x1500 PUSH2 0x148F JUMP JUMPDEST JUMPDEST PUSH0 PUSH2 0x150E DUP5 DUP3 DUP6 ADD PUSH2 0x14D8 JUMP JUMPDEST SWAP2 POP POP SWAP3 SWAP2 POP POP JUMP JUMPDEST PUSH0 DUP2 ISZERO ISZERO SWAP1 POP SWAP2 SWAP1 POP JUMP JUMPDEST PUSH2 0x152B DUP2 PUSH2 0x1517 JUMP JUMPDEST DUP3 MSTORE POP POP JUMP JUMPDEST PUSH0 PUSH1 0x20 DUP3 ADD SWAP1 POP PUSH2 0x1544 PUSH0 DUP4 ADD DUP5 PUSH2 0x1522 JUMP JUMPDEST SWAP3 SWAP2 POP POP JUMP JUMPDEST PUSH0 DUP2 MLOAD SWAP1 POP SWAP2 SWAP1 POP JUMP JUMPDEST PUSH0 DUP3 DUP3 MSTORE PUSH1 0x20 DUP3 ADD SWAP1 POP SWAP3 SWAP2 POP POP JUMP JUMPDEST DUP3 DUP2 DUP4 MCOPY PUSH0 DUP4 DUP4 ADD MSTORE POP POP POP JUMP JUMPDEST PUSH0 PUSH1 0x1F NOT PUSH1 0x1F DUP4 ADD AND SWAP1 POP SWAP2 SWAP1 POP JUMP JUMPDEST PUSH0 PUSH2 0x158C DUP3 PUSH2 0x154A JUMP JUMPDEST PUSH2 0x1596 DUP2 DUP6 PUSH2 0x1554 JUMP JUMPDEST SWAP4 POP PUSH2 0x15A6 DUP2 DUP6 PUSH1 0x20 DUP7 ADD PUSH2 0x1564 JUMP JUMPDEST PUSH2 0x15AF DUP2 PUSH2 0x1572 JUMP JUMPDEST DUP5 ADD SWAP2 POP POP SWAP3 SWAP2 POP POP JUMP JUMPDEST PUSH0 PUSH1 0x20 DUP3 ADD SWAP1 POP DUP2 DUP2 SUB PUSH0 DUP4 ADD MSTORE PUSH2 0x15D2 DUP2 DUP5 PUSH2 0x1582 JUMP JUMPDEST SWAP1 POP SWAP3 SWAP2 POP POP JUMP JUMPDEST PUSH0 DUP2 SWAP1 POP SWAP2 SWAP1 POP JUMP JUMPDEST PUSH2 0x15EC DUP2 PUSH2 0x15DA JUMP JUMPDEST DUP2 EQ PUSH2 0x15F6 JUMPI PUSH0 DUP1 REVERT JUMPDEST POP JUMP JUMPDEST PUSH0 DUP2 CALLDATALOAD SWAP1 POP PUSH2 0x1607 DUP2 PUSH2 0x15E3 JUMP JUMPDEST SWAP3 SWAP2 POP POP JUMP JUMPDEST PUSH0 PUSH1 0x20 DUP3 DUP5 SUB SLT ISZERO PUSH2 0x1622 JUMPI PUSH2 0x1621 PUSH2 0x148F JUMP JUMPDEST JUMPDEST PUSH0 PUSH2 0x162F DUP5 DUP3 DUP6 ADD PUSH2 0x15F9 JUMP JUMPDEST SWAP2 POP POP SWAP3 SWAP2 POP POP JUMP JUMPDEST PUSH0 PUSH20 0xFFFFFFFFFFFFFFFFFFFFFFFFFFFFFFFFFFFFFFFF DUP3 AND SWAP1 POP SWAP2 SWAP1 POP JUMP JUMPDEST PUSH0 PUSH2 0x1661 DUP3 PUSH2 0x1638 JUMP JUMPDEST SWAP1 POP SWAP2 SWAP1 POP JUMP JUMPDEST PUSH2 0x1671 DUP2 PUSH2 0x1657 JUMP JUMPDEST DUP3 MSTORE POP POP JUMP JUMPDEST PUSH0 PUSH1 0x20 DUP3 ADD SWAP1 POP PUSH2 0x168A PUSH0 DUP4 ADD DUP5 PUSH2 0x1668 JUMP JUMPDEST SWAP3 SWAP2 POP POP JUMP JUMPDEST PUSH2 0x1699 DUP2 PUSH2 0x1657 JUMP JUMPDEST DUP2 EQ PUSH2 0x16A3 JUMPI PUSH0 DUP1 REVERT JUMPDEST POP JUMP JUMPDEST PUSH0 DUP2 CALLDATALOAD SWAP1 POP PUSH2 0x16B4 DUP2 PUSH2 0x1690 JUMP JUMPDEST SWAP3 SWAP2 POP POP JUMP JUMPDEST PUSH0 DUP1 PUSH1 0x40 DUP4 DUP6 SUB SLT ISZERO PUSH2 0x16D0 JUMPI PUSH2 0x16CF PUSH2 0x148F JUMP JUMPDEST JUMPDEST PUSH0 PUSH2 0x16DD DUP6 DUP3 DUP7 ADD PUSH2 0x16A6 JUMP JUMPDEST SWAP3 POP POP PUSH1 0x20 PUSH2 0x16EE DUP6 DUP3 DUP7 ADD PUSH2 0x15F9 JUMP JUMPDEST SWAP2 POP POP SWAP3 POP SWAP3 SWAP1 POP JUMP JUMPDEST PUSH0 DUP1 PUSH0 PUSH1 0x60 DUP5 DUP7 SUB SLT ISZERO PUSH2 0x170F JUMPI PUSH2 0x170E PUSH2 0x148F JUMP JUMPDEST JUMPDEST PUSH0 PUSH2 0x171C DUP7 DUP3 DUP8 ADD PUSH2 0x16A6 JUMP JUMPDEST SWAP4 POP POP PUSH1 0x20 PUSH2 0x172D DUP7 DUP3 DUP8 ADD PUSH2 0x16A6 JUMP JUMPDEST SWAP3 POP POP PUSH1 0x40 PUSH2 0x173E DUP7 DUP3 DUP8 ADD PUSH2 0x15F9 JUMP JUMPDEST SWAP2 POP POP SWAP3 POP SWAP3 POP SWAP3 JUMP JUMPDEST PUSH0 PUSH1 0x20 DUP3 DUP5 SUB SLT ISZERO PUSH2 0x175D JUMPI PUSH2 0x175C PUSH2 0x148F JUMP JUMPDEST JUMPDEST PUSH0 PUSH2 0x176A DUP5 DUP3 DUP6 ADD PUSH2 0x16A6 JUMP JUMPDEST SWAP2 POP POP SWAP3 SWAP2 POP POP JUMP JUMPDEST PUSH2 0x177C DUP2 PUSH2 0x15DA JUMP JUMPDEST DUP3 MSTORE POP POP JUMP JUMPDEST PUSH0 PUSH1 0x20 DUP3 ADD SWAP1 POP PUSH2 0x1795 PUSH0 DUP4 ADD DUP5 PUSH2 0x1773 JUMP JUMPDEST SWAP3 SWAP2 POP POP JUMP JUMPDEST PUSH2 0x17A4 DUP2 PUSH2 0x1517 JUMP JUMPDEST DUP2 EQ PUSH2 0x17AE JUMPI PUSH0 DUP1 REVERT JUMPDEST POP JUMP JUMPDEST PUSH0 DUP2 CALLDATALOAD SWAP1 POP PUSH2 0x17BF DUP2 PUSH2 0x179B JUMP JUMPDEST SWAP3 SWAP2 POP POP JUMP JUMPDEST PUSH0 DUP1 PUSH1 0x40 DUP4 DUP6 SUB SLT ISZERO PUSH2 0x17DB JUMPI PUSH2 0x17DA PUSH2 0x148F JUMP JUMPDEST JUMPDEST PUSH0 PUSH2 0x17E8 DUP6 DUP3 DUP7 ADD PUSH2 0x16A6 JUMP JUMPDEST SWAP3 POP POP PUSH1 0x20 PUSH2 0x17F9 DUP6 DUP3 DUP7 ADD PUSH2 0x17B1 JUMP JUMPDEST SWAP2 POP POP SWAP3 POP SWAP3 SWAP1 POP JUMP JUMPDEST PUSH0 DUP1 REVERT JUMPDEST PUSH0 DUP1 REVERT JUMPDEST PUSH0 DUP1 REVERT JUMPDEST PUSH0 DUP1 DUP4 PUSH1 0x1F DUP5 ADD SLT PUSH2 0x1824 JUMPI PUSH2 0x1823 PUSH2 0x1803 JUMP JUMPDEST JUMPDEST DUP3 CALLDATALOAD SWAP1 POP PUSH8 0xFFFFFFFFFFFFFFFF DUP2 GT ISZERO PUSH2 0x1841 JUMPI PUSH2 0x1840 PUSH2 0x1807 JUMP JUMPDEST JUMPDEST PUSH1 0x20 DUP4 ADD SWAP2 POP DUP4 PUSH1 0x1 DUP3 MUL DUP4 ADD GT ISZERO PUSH2 0x185D JUMPI PUSH2 0x185C PUSH2 0x180B JUMP JUMPDEST JUMPDEST SWAP3 POP SWAP3 SWAP1 POP JUMP JUMPDEST PUSH0 DUP1 PUSH0 DUP1 PUSH0 PUSH1 0x80 DUP7 DUP9 SUB SLT ISZERO PUSH2 0x187D JUMPI PUSH2 0x187C PUSH2 0x148F JUMP JUMPDEST JUMPDEST PUSH0 PUSH2 0x188A DUP9 DUP3 DUP10 ADD PUSH2 0x16A6 JUMP JUMPDEST SWAP6 POP POP PUSH1 0x20 PUSH2 0x189B DUP9 DUP3 DUP10 ADD PUSH2 0x16A6 JUMP JUMPDEST SWAP5 POP POP PUSH1 0x40 PUSH2 0x18AC DUP9 DUP3 DUP10 ADD PUSH2 0x15F9 JUMP JUMPDEST SWAP4 POP POP PUSH1 0x60 DUP7 ADD CALLDATALOAD PUSH8 0xFFFFFFFFFFFFFFFF DUP2 GT ISZERO PUSH2 0x18CD JUMPI PUSH2 0x18CC PUSH2 0x1493 JUMP JUMPDEST JUMPDEST PUSH2 0x18D9 DUP9 DUP3 DUP10 ADD PUSH2 0x180F JUMP JUMPDEST SWAP3 POP SWAP3 POP POP SWAP3 SWAP6 POP SWAP3 SWAP6 SWAP1 SWAP4 POP JUMP JUMPDEST PUSH0 DUP1 PUSH1 0x40 DUP4 DUP6 SUB SLT ISZERO PUSH2 0x18FE JUMPI PUSH2 0x18FD PUSH2 0x148F JUMP JUMPDEST JUMPDEST PUSH0 PUSH2 0x190B DUP6 DUP3 DUP7 ADD PUSH2 0x16A6 JUMP JUMPDEST SWAP3 POP POP PUSH1 0x20 PUSH2 0x191C DUP6 DUP3 DUP7 ADD PUSH2 0x16A6 JUMP JUMPDEST SWAP2 POP POP SWAP3 POP SWAP3 SWAP1 POP JUMP JUMPDEST PUSH32 0x4E487B7100000000000000000000000000000000000000000000000000000000 PUSH0 MSTORE PUSH1 0x22 PUSH1 0x4 MSTORE PUSH1 0x24 PUSH0 REVERT JUMPDEST PUSH0 PUSH1 0x2 DUP3 DIV SWAP1 POP PUSH1 0x1 DUP3 AND DUP1 PUSH2 0x196A JUMPI PUSH1 0x7F DUP3 AND SWAP2 POP JUMPDEST PUSH1 0x20 DUP3 LT DUP2 SUB PUSH2 0x197D JUMPI PUSH2 0x197C PUSH2 0x1926 JUMP JUMPDEST JUMPDEST POP SWAP2 SWAP1 POP JUMP JUMPDEST PUSH32 0x746F6B656E20646F65736E277420657869737400000000000000000000000000 PUSH0 DUP3 ADD MSTORE POP JUMP JUMPDEST PUSH0 PUSH2 0x19B7 PUSH1 0x13 DUP4 PUSH2 0x1554 JUMP JUMPDEST SWAP2 POP PUSH2 0x19C2 DUP3 PUSH2 0x1983 JUMP JUMPDEST PUSH1 0x20 DUP3 ADD SWAP1 POP SWAP2 SWAP1 POP JUMP JUMPDEST PUSH0 PUSH1 0x20 DUP3 ADD SWAP1 POP DUP2 DUP2 SUB PUSH0 DUP4 ADD MSTORE PUSH2 0x19E4 DUP2 PUSH2 0x19AB JUMP JUMPDEST SWAP1 POP SWAP2 SWAP1 POP JUMP JUMPDEST PUSH32 0x6E6F7420617574686F72697A6564000000000000000000000000000000000000 PUSH0 DUP3 ADD MSTORE POP JUMP JUMPDEST PUSH0 PUSH2 0x1A1F PUSH1 0xE DUP4 PUSH2 0x1554 JUMP JUMPDEST SWAP2 POP PUSH2 0x1A2A DUP3 PUSH2 0x19EB JUMP JUMPDEST PUSH1 0x20 DUP3 ADD SWAP1 POP SWAP2 SWAP1 POP JUMP JUMPDEST PUSH0 PUSH1 0x20 DUP3 ADD SWAP1 POP DUP2 DUP2 SUB PUSH0 DUP4 ADD MSTORE PUSH2 0x1A4C DUP2 PUSH2 0x1A13 JUMP JUMPDEST SWAP1 POP SWAP2 SWAP1 POP JUMP JUMPDEST PUSH32 0x6E6F7420616E20617574686F72697A6564206D696E7465720000000000000000 PUSH0 DUP3 ADD MSTORE POP JUMP JUMPDEST PUSH0 PUSH2 0x1A87 PUSH1 0x18 DUP4 PUSH2 0x1554 JUMP JUMPDEST SWAP2 POP PUSH2 0x1A92 DUP3 PUSH2 0x1A53 JUMP JUMPDEST PUSH1 0x20 DUP3 ADD SWAP1 POP SWAP2 SWAP1 POP JUMP JUMPDEST PUSH0 PUSH1 0x20 DUP3 ADD SWAP1 POP DUP2 DUP2 SUB PUSH0 DUP4 ADD MSTORE PUSH2 0x1AB4 DUP2 PUSH2 0x1A7B JUMP JUMPDEST SWAP1 POP SWAP2 SWAP1 POP JUMP JUMPDEST PUSH0 DUP3 DUP3 MSTORE PUSH1 0x20 DUP3 ADD SWAP1 POP SWAP3 SWAP2 POP POP JUMP JUMPDEST POP JUMP JUMPDEST PUSH0 PUSH2 0x1AD9 PUSH0 DUP4 PUSH2 0x1ABB JUMP JUMPDEST SWAP2 POP PUSH2 0x1AE4 DUP3 PUSH2 0x1ACB JUMP JUMPDEST PUSH0 DUP3 ADD SWAP1 POP SWAP2 SWAP1 POP JUMP JUMPDEST PUSH0 PUSH1 0x80 DUP3 ADD SWAP1 POP PUSH2 0x1B01 PUSH0 DUP4 ADD DUP7 PUSH2 0x1668 JUMP JUMPDEST PUSH2 0x1B0E PUSH1 0x20 DUP4 ADD DUP6 PUSH2 0x1668 JUMP JUMPDEST PUSH2 0x1B1B PUSH1 0x40 DUP4 ADD DUP5 PUSH2 0x1773 JUMP JUMPDEST DUP2 DUP2 SUB PUSH1 0x60 DUP4 ADD MSTORE PUSH2 0x1B2C DUP2 PUSH2 0x1ACE JUMP JUMPDEST SWAP1 POP SWAP5 SWAP4 POP POP POP POP JUMP JUMPDEST PUSH0 DUP2 MLOAD SWAP1 POP PUSH2 0x1B44 DUP2 PUSH2 0x14C2 JUMP JUMPDEST SWAP3 SWAP2 POP POP JUMP JUMPDEST PUSH0 PUSH1 0x20 DUP3 DUP5 SUB SLT ISZERO PUSH2 0x1B5F JUMPI PUSH2 0x1B5E PUSH2 0x148F JUMP JUMPDEST JUMPDEST PUSH0 PUSH2 0x1B6C DUP5 DUP3 DUP6 ADD PUSH2 0x1B36 JUMP JUMPDEST SWAP2 POP POP SWAP3 SWAP2 POP POP JUMP JUMPDEST PUSH32 0x756E7361666520726563697069656E7400000000000000000000000000000000 PUSH0 DUP3 ADD MSTORE POP JUMP JUMPDEST PUSH0 PUSH2 0x1BA9 PUSH1 0x10 DUP4 PUSH2 0x1554 JUMP JUMPDEST SWAP2 POP PUSH2 0x1BB4 DUP3 PUSH2 0x1B75 JUMP JUMPDEST PUSH1 0x20 DUP3 ADD SWAP1 POP SWAP2 SWAP1 POP JUMP JUMPDEST PUSH0 PUSH1 0x20 DUP3 ADD SWAP1 POP DUP2 DUP2 SUB PUSH0 DUP4 ADD MSTORE PUSH2 0x1BD6 DUP2 PUSH2 0x1B9D JUMP JUMPDEST SWAP1 POP SWAP2 SWAP1 POP JUMP JUMPDEST PUSH32 0x62616C616E636520717565727920666F7220746865207A65726F206164647265 PUSH0 DUP3 ADD MSTORE PUSH32 0x7373000000000000000000000000000000000000000000000000000000000000 PUSH1 0x20 DUP3 ADD MSTORE POP JUMP JUMPDEST PUSH0 PUSH2 0x1C37 PUSH1 0x22 DUP4 PUSH2 0x1554 JUMP JUMPDEST SWAP2 POP PUSH2 0x1C42 DUP3 PUSH2 0x1BDD JUMP JUMPDEST PUSH1 0x40 DUP3 ADD SWAP1 POP SWAP2 SWAP1 POP JUMP JUMPDEST PUSH0 PUSH1 0x20 DUP3 ADD SWAP1 POP DUP2 DUP2 SUB PUSH0 DUP4 ADD MSTORE PUSH2 0x1C64 DUP2 PUSH2 0x1C2B JUMP JUMPDEST SWAP1 POP SWAP2 SWAP1 POP JUMP JUMPDEST DUP3 DUP2 DUP4 CALLDATACOPY PUSH0 DUP4 DUP4 ADD MSTORE POP POP POP JUMP JUMPDEST PUSH0 PUSH2 0x1C84 DUP4 DUP6 PUSH2 0x1ABB JUMP JUMPDEST SWAP4 POP PUSH2 0x1C91 DUP4 DUP6 DUP5 PUSH2 0x1C6B JUMP JUMPDEST PUSH2 0x1C9A DUP4 PUSH2 0x1572 JUMP JUMPDEST DUP5 ADD SWAP1 POP SWAP4 SWAP3 POP POP POP JUMP JUMPDEST PUSH0 PUSH1 0x80 DUP3 ADD SWAP1 POP PUSH2 0x1CB8 PUSH0 DUP4 ADD DUP9 PUSH2 0x1668 JUMP JUMPDEST PUSH2 0x1CC5 PUSH1 0x20 DUP4 ADD DUP8 PUSH2 0x1668 JUMP JUMPDEST PUSH2 0x1CD2 PUSH1 0x40 DUP4 ADD DUP7 PUSH2 0x1773 JUMP JUMPDEST DUP2 DUP2 SUB PUSH1 0x60 DUP4 ADD MSTORE PUSH2 0x1CE5 DUP2 DUP5 DUP7 PUSH2 0x1C79 JUMP JUMPDEST SWAP1 POP SWAP7 SWAP6 POP POP POP POP POP POP JUMP JUMPDEST PUSH32 0x66726F6D20213D206F776E657200000000000000000000000000000000000000 PUSH0 DUP3 ADD MSTORE POP JUMP JUMPDEST PUSH0 PUSH2 0x1D25 PUSH1 0xD DUP4 PUSH2 0x1554 JUMP JUMPDEST SWAP2 POP PUSH2 0x1D30 DUP3 PUSH2 0x1CF1 JUMP JUMPDEST PUSH1 0x20 DUP3 ADD SWAP1 POP SWAP2 SWAP1 POP JUMP JUMPDEST PUSH0 PUSH1 0x20 DUP3 ADD SWAP1 POP DUP2 DUP2 SUB PUSH0 DUP4 ADD MSTORE PUSH2 0x1D52 DUP2 PUSH2 0x1D19 JUMP JUMPDEST SWAP1 POP SWAP2 SWAP1 POP JUMP JUMPDEST PUSH32 0x7472616E7366657220746F207A65726F20616464726573730000000000000000 PUSH0 DUP3 ADD MSTORE POP JUMP JUMPDEST PUSH0 PUSH2 0x1D8D PUSH1 0x18 DUP4 PUSH2 0x1554 JUMP JUMPDEST SWAP2 POP PUSH2 0x1D98 DUP3 PUSH2 0x1D59 JUMP JUMPDEST PUSH1 0x20 DUP3 ADD SWAP1 POP SWAP2 SWAP1 POP JUMP JUMPDEST PUSH0 PUSH1 0x20 DUP3 ADD SWAP1 POP DUP2 DUP2 SUB PUSH0 DUP4 ADD MSTORE PUSH2 0x1DBA DUP2 PUSH2 0x1D81 JUMP JUMPDEST SWAP1 POP SWAP2 SWAP1 POP JUMP JUMPDEST PUSH32 0x4E487B7100000000000000000000000000000000000000000000000000000000 PUSH0 MSTORE PUSH1 0x11 PUSH1 0x4 MSTORE PUSH1 0x24 PUSH0 REVERT JUMPDEST PUSH0 PUSH2 0x1DF8 DUP3 PUSH2 0x15DA JUMP JUMPDEST SWAP2 POP PUSH2 0x1E03 DUP4 PUSH2 0x15DA JUMP JUMPDEST SWAP3 POP DUP3 DUP3 SUB SWAP1 POP DUP2 DUP2 GT ISZERO PUSH2 0x1E1B JUMPI PUSH2 0x1E1A PUSH2 0x1DC1 JUMP JUMPDEST JUMPDEST SWAP3 SWAP2 POP POP JUMP JUMPDEST PUSH0 PUSH2 0x1E2B DUP3 PUSH2 0x15DA JUMP JUMPDEST SWAP2 POP PUSH2 0x1E36 DUP4 PUSH2 0x15DA JUMP JUMPDEST SWAP3 POP DUP3 DUP3 ADD SWAP1 POP DUP1 DUP3 GT ISZERO PUSH2 0x1E4E JUMPI PUSH2 0x1E4D PUSH2 0x1DC1 JUMP JUMPDEST JUMPDEST SWAP3 SWAP2 POP POP JUMP JUMPDEST PUSH32 0x6D696E7420746F207A65726F2061646472657373000000000000000000000000 PUSH0 DUP3 ADD MSTORE POP JUMP JUMPDEST PUSH0 PUSH2 0x1E88 PUSH1 0x14 DUP4 PUSH2 0x1554 JUMP JUMPDEST SWAP2 POP PUSH2 0x1E93 DUP3 PUSH2 0x1E54 JUMP JUMPDEST PUSH1 0x20 DUP3 ADD SWAP1 POP SWAP2 SWAP1 POP JUMP JUMPDEST PUSH0 PUSH1 0x20 DUP3 ADD SWAP1 POP DUP2 DUP2 SUB PUSH0 DUP4 ADD MSTORE PUSH2 0x1EB5 DUP2 PUSH2 0x1E7C JUMP JUMPDEST SWAP1 POP SWAP2 SWAP1 POP JUMP JUMPDEST PUSH32 0x616C7265616479206D696E746564000000000000000000000000000000000000 PUSH0 DUP3 ADD MSTORE POP JUMP JUMPDEST PUSH0 PUSH2 0x1EF0 PUSH1 0xE DUP4 PUSH2 0x1554 JUMP JUMPDEST SWAP2 POP PUSH2 0x1EFB DUP3 PUSH2 0x1EBC JUMP JUMPDEST PUSH1 0x20 DUP3 ADD SWAP1 POP SWAP2 SWAP1 POP JUMP JUMPDEST PUSH0 PUSH1 0x20 DUP3 ADD SWAP1 POP DUP2 DUP2 SUB PUSH0 DUP4 ADD MSTORE PUSH2 0x1F1D DUP2 PUSH2 0x1EE4 JUMP JUMPDEST SWAP1 POP SWAP2 SWAP1 POP JUMP INVALID LOG2 PUSH5 0x6970667358 0x22 SLT KECCAK256 0xA9 PUSH21 0xF87B5BB315DA2535A5AF4C6F0873164E9ED42A3321 EXTCODESIZE 0xD1 PUSH28 0xCA892086ED5664736F6C634300081A00330000000000000000000000 "
				},
				"gasEstimates": {
					"creation": {
						"codeDepositCost": "1605200",
						"executionCost": "infinite",
						"totalCost": "infinite"
					},
					"external": {
						"_operatorApprovals(address,address)": "infinite",
						"approve(address,uint256)": "31497",
						"balanceOf(address)": "2931",
						"founder()": "2528",
						"getApproved(uint256)": "5166",
						"isApprovedForAll(address,address)": "infinite",
						"mintNFT(address,uint256)": "infinite",
						"name()": "infinite",
						"ownerOf(uint256)": "2986",
						"safeTransferFrom(address,address,uint256)": "infinite",
						"safeTransferFrom(address,address,uint256,bytes)": "infinite",
						"setApprovalForAll(address,bool)": "infinite",
						"supportsInterface(bytes4)": "699",
						"symbol()": "infinite",
						"transferFrom(address,address,uint256)": "infinite"
					},
					"internal": {
						"_mint(address,uint256)": "infinite",
						"_transferFrom(address,address,uint256)": "infinite"
					}
				},
				"methodIdentifiers": {
					"_operatorApprovals(address,address)": "edc3bc3f",
					"approve(address,uint256)": "095ea7b3",
					"balanceOf(address)": "70a08231",
					"founder()": "4d853ee5",
					"getApproved(uint256)": "081812fc",
					"isApprovedForAll(address,address)": "e985e9c5",
					"mintNFT(address,uint256)": "3c168eab",
					"name()": "06fdde03",
					"ownerOf(uint256)": "6352211e",
					"safeTransferFrom(address,address,uint256)": "42842e0e",
					"safeTransferFrom(address,address,uint256,bytes)": "b88d4fde",
					"setApprovalForAll(address,bool)": "a22cb465",
					"supportsInterface(bytes4)": "01ffc9a7",
					"symbol()": "95d89b41",
					"transferFrom(address,address,uint256)": "23b872dd"
				}
			},
			"storageLayout": {
				"storage": [
					{
						"astId": 127,
						"contract": "Example/ERC721StdNFT.sol:ERC721StdNFT",
						"label": "founder",
						"offset": 0,
						"slot": "0",
						"type": "t_address"
					},
					{
						"astId": 131,
						"contract": "Example/ERC721StdNFT.sol:ERC721StdNFT",
						"label": "_ownerOf",
						"offset": 0,
						"slot": "1",
						"type": "t_mapping(t_uint256,t_address)"
					},
					{
						"astId": 135,
						"contract": "Example/ERC721StdNFT.sol:ERC721StdNFT",
						"label": "_balanceOf",
						"offset": 0,
						"slot": "2",
						"type": "t_mapping(t_address,t_uint256)"
					},
					{
						"astId": 139,
						"contract": "Example/ERC721StdNFT.sol:ERC721StdNFT",
						"label": "_approvals",
						"offset": 0,
						"slot": "3",
						"type": "t_mapping(t_uint256,t_address)"
					},
					{
						"astId": 145,
						"contract": "Example/ERC721StdNFT.sol:ERC721StdNFT",
						"label": "_operatorApprovals",
						"offset": 0,
						"slot": "4",
						"type": "t_mapping(t_address,t_mapping(t_address,t_bool))"
					},
					{
						"astId": 147,
						"contract": "Example/ERC721StdNFT.sol:ERC721StdNFT",
						"label": "name",
						"offset": 0,
						"slot": "5",
						"type": "t_string_storage"
					},
					{
						"astId": 149,
						"contract": "Example/ERC721StdNFT.sol:ERC721StdNFT",
						"label": "symbol",
						"offset": 0,
						"slot": "6",
						"type": "t_string_storage"
					}
				],
				"types": {
					"t_address": {
						"encoding": "inplace",
						"label": "address",
						"numberOfBytes": "20"
					},
					"t_bool": {
						"encoding": "inplace",
						"label": "bool",
						"numberOfBytes": "1"
					},
					"t_mapping(t_address,t_bool)": {
						"encoding": "mapping",
						"key": "t_address",
						"label": "mapping(address => bool)",
						"numberOfBytes": "32",
						"value": "t_bool"
					},
					"t_mapping(t_address,t_mapping(t_address,t_bool))": {
						"encoding": "mapping",
						"key": "t_address",
						"label": "mapping(address => mapping(address => bool))",
						"numberOfBytes": "32",
						"value": "t_mapping(t_address,t_bool)"
					},
					"t_mapping(t_address,t_uint256)": {
						"encoding": "mapping",
						"key": "t_address",
						"label": "mapping(address => uint256)",
						"numberOfBytes": "32",
						"value": "t_uint256"
					},
					"t_mapping(t_uint256,t_address)": {
						"encoding": "mapping",
						"key": "t_uint256",
						"label": "mapping(uint256 => address)",
						"numberOfBytes": "32",
						"value": "t_address"
					},
					"t_string_storage": {
						"encoding": "bytes",
						"label": "string",
						"numberOfBytes": "32"
					},
					"t_uint256": {
						"encoding": "inplace",
						"label": "uint256",
						"numberOfBytes": "32"
					}
				}
			},
			"userdoc": {
				"kind": "user",
				"methods": {},
				"version": 1
			}
		}
	}
}