{
	"week3/Ex4_11.sol": {
		"Ex4_11": {
			"abi": [
				{
					"inputs": [],
					"name": "comparison",
					"outputs": [
						{
							"internalType": "bool",
							"name": "",
							"type": "bool"
						},
						{
							"internalType": "bool",
							"name": "",
							"type": "bool"
						},
						{
							"internalType": "bool",
							"name": "",
							"type": "bool"
						},
						{
							"internalType": "bool",
							"name": "",
							"type": "bool"
						},
						{
							"internalType": "bool",
							"name": "",
							"type": "bool"
						},
						{
							"internalType": "bool",
							"name": "",
							"type": "bool"
						}
					],
					"stateMutability": "view",
					"type": "function"
				}
			],
			"devdoc": {
				"kind": "dev",
				"methods": {},
				"version": 1
			},
			"evm": {
				"assembly": "    /* \"week3/Ex4_11.sol\":69:304  contract Ex4_11 {... */\n  mstore(0x40, 0x80)\n    /* \"week3/Ex4_11.sol\":101:102  4 */\n  0x04\n    /* \"week3/Ex4_11.sol\":99:100  3 */\n  0x03\n    /* \"week3/Ex4_11.sol\":99:102  3>4 */\n  gt\n    /* \"week3/Ex4_11.sol\":92:102  bool a=3>4 */\n  0x00\n  dup1\n  0x0100\n  exp\n  dup2\n  sload\n  dup2\n  0xff\n  mul\n  not\n  and\n  swap1\n  dup4\n  iszero\n  iszero\n  mul\n  or\n  swap1\n  sstore\n  pop\n    /* \"week3/Ex4_11.sol\":117:118  4 */\n  0x04\n    /* \"week3/Ex4_11.sol\":115:116  3 */\n  0x03\n    /* \"week3/Ex4_11.sol\":115:118  3<4 */\n  lt\n    /* \"week3/Ex4_11.sol\":108:118  bool b=3<4 */\n  0x00\n  exp(0x0100, 0x01)\n  dup2\n  sload\n  dup2\n  0xff\n  mul\n  not\n  and\n  swap1\n  dup4\n  iszero\n  iszero\n  mul\n  or\n  swap1\n  sstore\n  pop\n    /* \"week3/Ex4_11.sol\":134:135  2 */\n  0x02\n    /* \"week3/Ex4_11.sol\":131:132  5 */\n  0x05\n    /* \"week3/Ex4_11.sol\":131:135  5>=2 */\n  lt\n  iszero\n    /* \"week3/Ex4_11.sol\":124:135  bool c=5>=2 */\n  0x00\n  exp(0x0100, 0x02)\n  dup2\n  sload\n  dup2\n  0xff\n  mul\n  not\n  and\n  swap1\n  dup4\n  iszero\n  iszero\n  mul\n  or\n  swap1\n  sstore\n  pop\n    /* \"week3/Ex4_11.sol\":151:152  5 */\n  0x05\n    /* \"week3/Ex4_11.sol\":148:149  5 */\n  dup1\n    /* \"week3/Ex4_11.sol\":148:152  5<=5 */\n  gt\n  iszero\n    /* \"week3/Ex4_11.sol\":141:152  bool d=5<=5 */\n  0x00\n  exp(0x0100, 0x03)\n  dup2\n  sload\n  dup2\n  0xff\n  mul\n  not\n  and\n  swap1\n  dup4\n  iszero\n  iszero\n  mul\n  or\n  swap1\n  sstore\n  pop\n    /* \"week3/Ex4_11.sol\":168:169  2 */\n  0x02\n    /* \"week3/Ex4_11.sol\":165:166  3 */\n  0x03\n    /* \"week3/Ex4_11.sol\":165:169  3==2 */\n  eq\n    /* \"week3/Ex4_11.sol\":158:169  bool e=3==2 */\n  0x00\n  exp(0x0100, 0x04)\n  dup2\n  sload\n  dup2\n  0xff\n  mul\n  not\n  and\n  swap1\n  dup4\n  iszero\n  iszero\n  mul\n  or\n  swap1\n  sstore\n  pop\n    /* \"week3/Ex4_11.sol\":185:186  2 */\n  0x02\n    /* \"week3/Ex4_11.sol\":182:183  3 */\n  0x03\n    /* \"week3/Ex4_11.sol\":182:186  3!=2 */\n  eq\n  iszero\n    /* \"week3/Ex4_11.sol\":175:186  bool f=3!=2 */\n  0x00\n  exp(0x0100, 0x05)\n  dup2\n  sload\n  dup2\n  0xff\n  mul\n  not\n  and\n  swap1\n  dup4\n  iszero\n  iszero\n  mul\n  or\n  swap1\n  sstore\n  pop\n    /* \"week3/Ex4_11.sol\":69:304  contract Ex4_11 {... */\n  callvalue\n  dup1\n  iszero\n  tag_1\n  jumpi\n  0x00\n  dup1\n  revert\ntag_1:\n  pop\n  dataSize(sub_0)\n  dup1\n  dataOffset(sub_0)\n  0x00\n  codecopy\n  0x00\n  return\nstop\n\nsub_0: assembly {\n        /* \"week3/Ex4_11.sol\":69:304  contract Ex4_11 {... */\n      mstore(0x40, 0x80)\n      callvalue\n      dup1\n      iszero\n      tag_1\n      jumpi\n      0x00\n      dup1\n      revert\n    tag_1:\n      pop\n      jumpi(tag_2, lt(calldatasize, 0x04))\n      shr(0xe0, calldataload(0x00))\n      dup1\n      0xaae103ad\n      eq\n      tag_3\n      jumpi\n    tag_2:\n      0x00\n      dup1\n      revert\n        /* \"week3/Ex4_11.sol\":193:302  function comparison() public view returns (bool,bool,bool,bool,bool,bool){... */\n    tag_3:\n      tag_4\n      tag_5\n      jump\t// in\n    tag_4:\n      mload(0x40)\n      dup1\n      dup8\n      iszero\n      iszero\n      dup2\n      mstore\n      0x20\n      add\n      dup7\n      iszero\n      iszero\n      dup2\n      mstore\n      0x20\n      add\n      dup6\n      iszero\n      iszero\n      dup2\n      mstore\n      0x20\n      add\n      dup5\n      iszero\n      iszero\n      dup2\n      mstore\n      0x20\n      add\n      dup4\n      iszero\n      iszero\n      dup2\n      mstore\n      0x20\n      add\n      dup3\n      iszero\n      iszero\n      dup2\n      mstore\n      0x20\n      add\n      swap7\n      pop\n      pop\n      pop\n      pop\n      pop\n      pop\n      pop\n      mload(0x40)\n      dup1\n      swap2\n      sub\n      swap1\n      return\n    tag_5:\n        /* \"week3/Ex4_11.sol\":236:240  bool */\n      0x00\n        /* \"week3/Ex4_11.sol\":241:245  bool */\n      dup1\n        /* \"week3/Ex4_11.sol\":246:250  bool */\n      0x00\n        /* \"week3/Ex4_11.sol\":251:255  bool */\n      dup1\n        /* \"week3/Ex4_11.sol\":256:260  bool */\n      0x00\n        /* \"week3/Ex4_11.sol\":261:265  bool */\n      dup1\n        /* \"week3/Ex4_11.sol\":283:284  a */\n      0x00\n      dup1\n      sload\n      swap1\n      0x0100\n      exp\n      swap1\n      div\n      0xff\n      and\n        /* \"week3/Ex4_11.sol\":285:286  b */\n      0x00\n      0x01\n      swap1\n      sload\n      swap1\n      0x0100\n      exp\n      swap1\n      div\n      0xff\n      and\n        /* \"week3/Ex4_11.sol\":287:288  c */\n      0x00\n      0x02\n      swap1\n      sload\n      swap1\n      0x0100\n      exp\n      swap1\n      div\n      0xff\n      and\n        /* \"week3/Ex4_11.sol\":289:290  d */\n      0x00\n      0x03\n      swap1\n      sload\n      swap1\n      0x0100\n      exp\n      swap1\n      div\n      0xff\n      and\n        /* \"week3/Ex4_11.sol\":291:292  e */\n      0x00\n      0x04\n      swap1\n      sload\n      swap1\n      0x0100\n      exp\n      swap1\n      div\n      0xff\n      and\n        /* \"week3/Ex4_11.sol\":293:294  f */\n      0x00\n      0x05\n      swap1\n      sload\n      swap1\n      0x0100\n      exp\n      swap1\n      div\n      0xff\n      and\n        /* \"week3/Ex4_11.sol\":276:295  return(a,b,c,d,e,f) */\n      swap6\n      pop\n      swap6\n      pop\n      swap6\n      pop\n      swap6\n      pop\n      swap6\n      pop\n      swap6\n      pop\n        /* \"week3/Ex4_11.sol\":193:302  function comparison() public view returns (bool,bool,bool,bool,bool,bool){... */\n      swap1\n      swap2\n      swap3\n      swap4\n      swap5\n      swap6\n      jump\t// out\n\n    auxdata: 0xa2646970667358221220323906f43847329e26b932a5f192567187d9bacb33a180335d524c26f68802cc64736f6c63430007000033\n}\n",
				"bytecode": {
					"linkReferences": {},
					"object": "608060405260046003116000806101000a81548160ff0219169083151502179055506004600310600060016101000a81548160ff021916908315150217905550600260051015600060026101000a81548160ff0219169083151502179055506005801115600060036101000a81548160ff0219169083151502179055506002600314600060046101000a81548160ff021916908315150217905550600260031415600060056101000a81548160ff0219169083151502179055503480156100c557600080fd5b50610129806100d56000396000f3fe6080604052348015600f57600080fd5b506004361060285760003560e01c8063aae103ad14602d575b600080fd5b60336078565b60405180871515815260200186151581526020018515158152602001841515815260200183151581526020018215158152602001965050505050505060405180910390f35b60008060008060008060008054906101000a900460ff16600060019054906101000a900460ff16600060029054906101000a900460ff16600060039054906101000a900460ff16600060049054906101000a900460ff16600060059054906101000a900460ff1695509550955095509550955090919293949556fea2646970667358221220323906f43847329e26b932a5f192567187d9bacb33a180335d524c26f68802cc64736f6c63430007000033",
					"opcodes": "PUSH1 0x80 PUSH1 0x40 MSTORE PUSH1 0x4 PUSH1 0x3 GT PUSH1 0x0 DUP1 PUSH2 0x100 EXP DUP2 SLOAD DUP2 PUSH1 0xFF MUL NOT AND SWAP1 DUP4 ISZERO ISZERO MUL OR SWAP1 SSTORE POP PUSH1 0x4 PUSH1 0x3 LT PUSH1 0x0 PUSH1 0x1 PUSH2 0x100 EXP DUP2 SLOAD DUP2 PUSH1 0xFF MUL NOT AND SWAP1 DUP4 ISZERO ISZERO MUL OR SWAP1 SSTORE POP PUSH1 0x2 PUSH1 0x5 LT ISZERO PUSH1 0x0 PUSH1 0x2 PUSH2 0x100 EXP DUP2 SLOAD DUP2 PUSH1 0xFF MUL NOT AND SWAP1 DUP4 ISZERO ISZERO MUL OR SWAP1 SSTORE POP PUSH1 0x5 DUP1 GT ISZERO PUSH1 0x0 PUSH1 0x3 PUSH2 0x100 EXP DUP2 SLOAD DUP2 PUSH1 0xFF MUL NOT AND SWAP1 DUP4 ISZERO ISZERO MUL OR SWAP1 SSTORE POP PUSH1 0x2 PUSH1 0x3 EQ PUSH1 0x0 PUSH1 0x4 PUSH2 0x100 EXP DUP2 SLOAD DUP2 PUSH1 0xFF MUL NOT AND SWAP1 DUP4 ISZERO ISZERO MUL OR SWAP1 SSTORE POP PUSH1 0x2 PUSH1 0x3 EQ ISZERO PUSH1 0x0 PUSH1 0x5 PUSH2 0x100 EXP DUP2 SLOAD DUP2 PUSH1 0xFF MUL NOT AND SWAP1 DUP4 ISZERO ISZERO MUL OR SWAP1 SSTORE POP CALLVALUE DUP1 ISZERO PUSH2 0xC5 JUMPI PUSH1 0x0 DUP1 REVERT JUMPDEST POP PUSH2 0x129 DUP1 PUSH2 0xD5 PUSH1 0x0 CODECOPY PUSH1 0x0 RETURN INVALID PUSH1 0x80 PUSH1 0x40 MSTORE CALLVALUE DUP1 ISZERO PUSH1 0xF JUMPI PUSH1 0x0 DUP1 REVERT JUMPDEST POP PUSH1 0x4 CALLDATASIZE LT PUSH1 0x28 JUMPI PUSH1 0x0 CALLDATALOAD PUSH1 0xE0 SHR DUP1 PUSH4 0xAAE103AD EQ PUSH1 0x2D JUMPI JUMPDEST PUSH1 0x0 DUP1 REVERT JUMPDEST PUSH1 0x33 PUSH1 0x78 JUMP JUMPDEST PUSH1 0x40 MLOAD DUP1 DUP8 ISZERO ISZERO DUP2 MSTORE PUSH1 0x20 ADD DUP7 ISZERO ISZERO DUP2 MSTORE PUSH1 0x20 ADD DUP6 ISZERO ISZERO DUP2 MSTORE PUSH1 0x20 ADD DUP5 ISZERO ISZERO DUP2 MSTORE PUSH1 0x20 ADD DUP4 ISZERO ISZERO DUP2 MSTORE PUSH1 0x20 ADD DUP3 ISZERO ISZERO DUP2 MSTORE PUSH1 0x20 ADD SWAP7 POP POP POP POP POP POP POP PUSH1 0x40 MLOAD DUP1 SWAP2 SUB SWAP1 RETURN JUMPDEST PUSH1 0x0 DUP1 PUSH1 0x0 DUP1 PUSH1 0x0 DUP1 PUSH1 0x0 DUP1 SLOAD SWAP1 PUSH2 0x100 EXP SWAP1 DIV PUSH1 0xFF AND PUSH1 0x0 PUSH1 0x1 SWAP1 SLOAD SWAP1 PUSH2 0x100 EXP SWAP1 DIV PUSH1 0xFF AND PUSH1 0x0 PUSH1 0x2 SWAP1 SLOAD SWAP1 PUSH2 0x100 EXP SWAP1 DIV PUSH1 0xFF AND PUSH1 0x0 PUSH1 0x3 SWAP1 SLOAD SWAP1 PUSH2 0x100 EXP SWAP1 DIV PUSH1 0xFF AND PUSH1 0x0 PUSH1 0x4 SWAP1 SLOAD SWAP1 PUSH2 0x100 EXP SWAP1 DIV PUSH1 0xFF AND PUSH1 0x0 PUSH1 0x5 SWAP1 SLOAD SWAP1 PUSH2 0x100 EXP SWAP1 DIV PUSH1 0xFF AND SWAP6 POP SWAP6 POP SWAP6 POP SWAP6 POP SWAP6 POP SWAP6 POP SWAP1 SWAP2 SWAP3 SWAP4 SWAP5 SWAP6 JUMP INVALID LOG2 PUSH5 0x6970667358 0x22 SLT KECCAK256 ORIGIN CODECOPY MOD DELEGATECALL CODESIZE SELFBALANCE ORIGIN SWAP15 0x26 0xB9 ORIGIN 0xA5 CALL SWAP3 JUMP PUSH18 0x87D9BACB33A180335D524C26F68802CC6473 PUSH16 0x6C634300070000330000000000000000 "
				},
				"gasEstimates": {
					"creation": {
						"codeDepositCost": "59400",
						"executionCost": "125608",
						"totalCost": "185008"
					},
					"external": {
						"comparison()": "5660"
					}
				},
				"methodIdentifiers": {
					"comparison()": "aae103ad"
				}
			},
			"storageLayout": {
				"storage": [
					{
						"astId": 6,
						"contract": "week3/Ex4_11.sol:Ex4_11",
						"label": "a",
						"offset": 0,
						"slot": "0",
						"type": "t_bool"
					},
					{
						"astId": 11,
						"contract": "week3/Ex4_11.sol:Ex4_11",
						"label": "b",
						"offset": 1,
						"slot": "0",
						"type": "t_bool"
					},
					{
						"astId": 16,
						"contract": "week3/Ex4_11.sol:Ex4_11",
						"label": "c",
						"offset": 2,
						"slot": "0",
						"type": "t_bool"
					},
					{
						"astId": 21,
						"contract": "week3/Ex4_11.sol:Ex4_11",
						"label": "d",
						"offset": 3,
						"slot": "0",
						"type": "t_bool"
					},
					{
						"astId": 26,
						"contract": "week3/Ex4_11.sol:Ex4_11",
						"label": "e",
						"offset": 4,
						"slot": "0",
						"type": "t_bool"
					},
					{
						"astId": 31,
						"contract": "week3/Ex4_11.sol:Ex4_11",
						"label": "f",
						"offset": 5,
						"slot": "0",
						"type": "t_bool"
					}
				],
				"types": {
					"t_bool": {
						"encoding": "inplace",
						"label": "bool",
						"numberOfBytes": "1"
					}
				}
			},
			"userdoc": {
				"kind": "user",
				"methods": {},
				"version": 1
			}
		}
	}
}