{
	"Example/Ex4_11.sol": {
		"Ex4_11": {
			"abi": [
				{
					"inputs": [],
					"name": "comparison",
					"outputs": [
						{
							"internalType": "bool",
							"name": "",
							"type": "bool"
						},
						{
							"internalType": "bool",
							"name": "",
							"type": "bool"
						},
						{
							"internalType": "bool",
							"name": "",
							"type": "bool"
						},
						{
							"internalType": "bool",
							"name": "",
							"type": "bool"
						},
						{
							"internalType": "bool",
							"name": "",
							"type": "bool"
						},
						{
							"internalType": "bool",
							"name": "",
							"type": "bool"
						}
					],
					"stateMutability": "view",
					"type": "function"
				}
			],
			"devdoc": {
				"kind": "dev",
				"methods": {},
				"version": 1
			},
			"evm": {
				"assembly": "    /* \"Example/Ex4_11.sol\":69:304  contract Ex4_11 {... */\n  mstore(0x40, 0x80)\n    /* \"Example/Ex4_11.sol\":101:102  4 */\n  0x04\n    /* \"Example/Ex4_11.sol\":99:100  3 */\n  0x03\n    /* \"Example/Ex4_11.sol\":99:102  3>4 */\n  gt\n    /* \"Example/Ex4_11.sol\":92:102  bool a=3>4 */\n  0x00\n  dup1\n  0x0100\n  exp\n  dup2\n  sload\n  dup2\n  0xff\n  mul\n  not\n  and\n  swap1\n  dup4\n  iszero\n  iszero\n  mul\n  or\n  swap1\n  sstore\n  pop\n    /* \"Example/Ex4_11.sol\":117:118  4 */\n  0x04\n    /* \"Example/Ex4_11.sol\":115:116  3 */\n  0x03\n    /* \"Example/Ex4_11.sol\":115:118  3<4 */\n  lt\n    /* \"Example/Ex4_11.sol\":108:118  bool b=3<4 */\n  0x00\n  exp(0x0100, 0x01)\n  dup2\n  sload\n  dup2\n  0xff\n  mul\n  not\n  and\n  swap1\n  dup4\n  iszero\n  iszero\n  mul\n  or\n  swap1\n  sstore\n  pop\n    /* \"Example/Ex4_11.sol\":134:135  2 */\n  0x02\n    /* \"Example/Ex4_11.sol\":131:132  5 */\n  0x05\n    /* \"Example/Ex4_11.sol\":131:135  5>=2 */\n  lt\n  iszero\n    /* \"Example/Ex4_11.sol\":124:135  bool c=5>=2 */\n  0x00\n  exp(0x0100, 0x02)\n  dup2\n  sload\n  dup2\n  0xff\n  mul\n  not\n  and\n  swap1\n  dup4\n  iszero\n  iszero\n  mul\n  or\n  swap1\n  sstore\n  pop\n    /* \"Example/Ex4_11.sol\":151:152  5 */\n  0x05\n    /* \"Example/Ex4_11.sol\":148:149  5 */\n  dup1\n    /* \"Example/Ex4_11.sol\":148:152  5<=5 */\n  gt\n  iszero\n    /* \"Example/Ex4_11.sol\":141:152  bool d=5<=5 */\n  0x00\n  exp(0x0100, 0x03)\n  dup2\n  sload\n  dup2\n  0xff\n  mul\n  not\n  and\n  swap1\n  dup4\n  iszero\n  iszero\n  mul\n  or\n  swap1\n  sstore\n  pop\n    /* \"Example/Ex4_11.sol\":168:169  2 */\n  0x02\n    /* \"Example/Ex4_11.sol\":165:166  3 */\n  0x03\n    /* \"Example/Ex4_11.sol\":165:169  3==2 */\n  eq\n    /* \"Example/Ex4_11.sol\":158:169  bool e=3==2 */\n  0x00\n  exp(0x0100, 0x04)\n  dup2\n  sload\n  dup2\n  0xff\n  mul\n  not\n  and\n  swap1\n  dup4\n  iszero\n  iszero\n  mul\n  or\n  swap1\n  sstore\n  pop\n    /* \"Example/Ex4_11.sol\":185:186  2 */\n  0x02\n    /* \"Example/Ex4_11.sol\":182:183  3 */\n  0x03\n    /* \"Example/Ex4_11.sol\":182:186  3!=2 */\n  eq\n  iszero\n    /* \"Example/Ex4_11.sol\":175:186  bool f=3!=2 */\n  0x00\n  exp(0x0100, 0x05)\n  dup2\n  sload\n  dup2\n  0xff\n  mul\n  not\n  and\n  swap1\n  dup4\n  iszero\n  iszero\n  mul\n  or\n  swap1\n  sstore\n  pop\n    /* \"Example/Ex4_11.sol\":69:304  contract Ex4_11 {... */\n  callvalue\n  dup1\n  iszero\n  tag_1\n  jumpi\n  0x00\n  dup1\n  revert\ntag_1:\n  pop\n  dataSize(sub_0)\n  dup1\n  dataOffset(sub_0)\n  0x00\n  codecopy\n  0x00\n  return\nstop\n\nsub_0: assembly {\n        /* \"Example/Ex4_11.sol\":69:304  contract Ex4_11 {... */\n      mstore(0x40, 0x80)\n      callvalue\n      dup1\n      iszero\n      tag_1\n      jumpi\n      0x00\n      dup1\n      revert\n    tag_1:\n      pop\n      jumpi(tag_2, lt(calldatasize, 0x04))\n      shr(0xe0, calldataload(0x00))\n      dup1\n      0xaae103ad\n      eq\n      tag_3\n      jumpi\n    tag_2:\n      0x00\n      dup1\n      revert\n        /* \"Example/Ex4_11.sol\":193:302  function comparison() public view returns (bool,bool,bool,bool,bool,bool){... */\n    tag_3:\n      tag_4\n      tag_5\n      jump\t// in\n    tag_4:\n      mload(0x40)\n      tag_6\n      swap7\n      swap6\n      swap5\n      swap4\n      swap3\n      swap2\n      swap1\n      tag_7\n      jump\t// in\n    tag_6:\n      mload(0x40)\n      dup1\n      swap2\n      sub\n      swap1\n      return\n    tag_5:\n        /* \"Example/Ex4_11.sol\":236:240  bool */\n      0x00\n        /* \"Example/Ex4_11.sol\":241:245  bool */\n      dup1\n        /* \"Example/Ex4_11.sol\":246:250  bool */\n      0x00\n        /* \"Example/Ex4_11.sol\":251:255  bool */\n      dup1\n        /* \"Example/Ex4_11.sol\":256:260  bool */\n      0x00\n        /* \"Example/Ex4_11.sol\":261:265  bool */\n      dup1\n        /* \"Example/Ex4_11.sol\":283:284  a */\n      0x00\n      dup1\n      sload\n      swap1\n      0x0100\n      exp\n      swap1\n      div\n      0xff\n      and\n        /* \"Example/Ex4_11.sol\":285:286  b */\n      0x00\n      0x01\n      swap1\n      sload\n      swap1\n      0x0100\n      exp\n      swap1\n      div\n      0xff\n      and\n        /* \"Example/Ex4_11.sol\":287:288  c */\n      0x00\n      0x02\n      swap1\n      sload\n      swap1\n      0x0100\n      exp\n      swap1\n      div\n      0xff\n      and\n        /* \"Example/Ex4_11.sol\":289:290  d */\n      0x00\n      0x03\n      swap1\n      sload\n      swap1\n      0x0100\n      exp\n      swap1\n      div\n      0xff\n      and\n        /* \"Example/Ex4_11.sol\":291:292  e */\n      0x00\n      0x04\n      swap1\n      sload\n      swap1\n      0x0100\n      exp\n      swap1\n      div\n      0xff\n      and\n        /* \"Example/Ex4_11.sol\":293:294  f */\n      0x00\n      0x05\n      swap1\n      sload\n      swap1\n      0x0100\n      exp\n      swap1\n      div\n      0xff\n      and\n        /* \"Example/Ex4_11.sol\":276:295  return(a,b,c,d,e,f) */\n      swap6\n      pop\n      swap6\n      pop\n      swap6\n      pop\n      swap6\n      pop\n      swap6\n      pop\n      swap6\n      pop\n        /* \"Example/Ex4_11.sol\":193:302  function comparison() public view returns (bool,bool,bool,bool,bool,bool){... */\n      swap1\n      swap2\n      swap3\n      swap4\n      swap5\n      swap6\n      jump\t// out\n        /* \"#utility.yul\":7:97   */\n    tag_9:\n        /* \"#utility.yul\":41:48   */\n      0x00\n        /* \"#utility.yul\":84:89   */\n      dup2\n        /* \"#utility.yul\":77:90   */\n      iszero\n        /* \"#utility.yul\":70:91   */\n      iszero\n        /* \"#utility.yul\":59:91   */\n      swap1\n      pop\n        /* \"#utility.yul\":7:97   */\n      swap2\n      swap1\n      pop\n      jump\t// out\n        /* \"#utility.yul\":103:212   */\n    tag_10:\n        /* \"#utility.yul\":184:205   */\n      tag_14\n        /* \"#utility.yul\":199:204   */\n      dup2\n        /* \"#utility.yul\":184:205   */\n      tag_9\n      jump\t// in\n    tag_14:\n        /* \"#utility.yul\":179:182   */\n      dup3\n        /* \"#utility.yul\":172:206   */\n      mstore\n        /* \"#utility.yul\":103:212   */\n      pop\n      pop\n      jump\t// out\n        /* \"#utility.yul\":218:921   */\n    tag_7:\n        /* \"#utility.yul\":415:419   */\n      0x00\n        /* \"#utility.yul\":453:456   */\n      0xc0\n        /* \"#utility.yul\":442:451   */\n      dup3\n        /* \"#utility.yul\":438:457   */\n      add\n        /* \"#utility.yul\":430:457   */\n      swap1\n      pop\n        /* \"#utility.yul\":467:532   */\n      tag_16\n        /* \"#utility.yul\":529:530   */\n      0x00\n        /* \"#utility.yul\":518:527   */\n      dup4\n        /* \"#utility.yul\":514:531   */\n      add\n        /* \"#utility.yul\":505:511   */\n      dup10\n        /* \"#utility.yul\":467:532   */\n      tag_10\n      jump\t// in\n    tag_16:\n        /* \"#utility.yul\":542:608   */\n      tag_17\n        /* \"#utility.yul\":604:606   */\n      0x20\n        /* \"#utility.yul\":593:602   */\n      dup4\n        /* \"#utility.yul\":589:607   */\n      add\n        /* \"#utility.yul\":580:586   */\n      dup9\n        /* \"#utility.yul\":542:608   */\n      tag_10\n      jump\t// in\n    tag_17:\n        /* \"#utility.yul\":618:684   */\n      tag_18\n        /* \"#utility.yul\":680:682   */\n      0x40\n        /* \"#utility.yul\":669:678   */\n      dup4\n        /* \"#utility.yul\":665:683   */\n      add\n        /* \"#utility.yul\":656:662   */\n      dup8\n        /* \"#utility.yul\":618:684   */\n      tag_10\n      jump\t// in\n    tag_18:\n        /* \"#utility.yul\":694:760   */\n      tag_19\n        /* \"#utility.yul\":756:758   */\n      0x60\n        /* \"#utility.yul\":745:754   */\n      dup4\n        /* \"#utility.yul\":741:759   */\n      add\n        /* \"#utility.yul\":732:738   */\n      dup7\n        /* \"#utility.yul\":694:760   */\n      tag_10\n      jump\t// in\n    tag_19:\n        /* \"#utility.yul\":770:837   */\n      tag_20\n        /* \"#utility.yul\":832:835   */\n      0x80\n        /* \"#utility.yul\":821:830   */\n      dup4\n        /* \"#utility.yul\":817:836   */\n      add\n        /* \"#utility.yul\":808:814   */\n      dup6\n        /* \"#utility.yul\":770:837   */\n      tag_10\n      jump\t// in\n    tag_20:\n        /* \"#utility.yul\":847:914   */\n      tag_21\n        /* \"#utility.yul\":909:912   */\n      0xa0\n        /* \"#utility.yul\":898:907   */\n      dup4\n        /* \"#utility.yul\":894:913   */\n      add\n        /* \"#utility.yul\":885:891   */\n      dup5\n        /* \"#utility.yul\":847:914   */\n      tag_10\n      jump\t// in\n    tag_21:\n        /* \"#utility.yul\":218:921   */\n      swap8\n      swap7\n      pop\n      pop\n      pop\n      pop\n      pop\n      pop\n      pop\n      jump\t// out\n\n    auxdata: 0xa2646970667358221220a7ec15026cd7649d21586dd60e584c0ded52cecbedce00d9e81ae83c21a8094b64736f6c634300081a0033\n}\n",
				"bytecode": {
					"linkReferences": {},
					"object": "608060405260046003115f806101000a81548160ff02191690831515021790555060046003105f60016101000a81548160ff0219169083151502179055506002600510155f60026101000a81548160ff02191690831515021790555060058011155f60036101000a81548160ff02191690831515021790555060026003145f60046101000a81548160ff0219169083151502179055506002600314155f60056101000a81548160ff02191690831515021790555034801560bd575f80fd5b50610171806100cb5f395ff3fe608060405234801561000f575f80fd5b5060043610610029575f3560e01c8063aae103ad1461002d575b5f80fd5b610035610050565b604051610047969594939291906100dc565b60405180910390f35b5f805f805f805f8054906101000a900460ff165f60019054906101000a900460ff165f60029054906101000a900460ff165f60039054906101000a900460ff165f60049054906101000a900460ff165f60059054906101000a900460ff16955095509550955095509550909192939495565b5f8115159050919050565b6100d6816100c2565b82525050565b5f60c0820190506100ef5f8301896100cd565b6100fc60208301886100cd565b61010960408301876100cd565b61011660608301866100cd565b61012360808301856100cd565b61013060a08301846100cd565b97965050505050505056fea2646970667358221220a7ec15026cd7649d21586dd60e584c0ded52cecbedce00d9e81ae83c21a8094b64736f6c634300081a0033",
					"opcodes": "PUSH1 0x80 PUSH1 0x40 MSTORE PUSH1 0x4 PUSH1 0x3 GT PUSH0 DUP1 PUSH2 0x100 EXP DUP2 SLOAD DUP2 PUSH1 0xFF MUL NOT AND SWAP1 DUP4 ISZERO ISZERO MUL OR SWAP1 SSTORE POP PUSH1 0x4 PUSH1 0x3 LT PUSH0 PUSH1 0x1 PUSH2 0x100 EXP DUP2 SLOAD DUP2 PUSH1 0xFF MUL NOT AND SWAP1 DUP4 ISZERO ISZERO MUL OR SWAP1 SSTORE POP PUSH1 0x2 PUSH1 0x5 LT ISZERO PUSH0 PUSH1 0x2 PUSH2 0x100 EXP DUP2 SLOAD DUP2 PUSH1 0xFF MUL NOT AND SWAP1 DUP4 ISZERO ISZERO MUL OR SWAP1 SSTORE POP PUSH1 0x5 DUP1 GT ISZERO PUSH0 PUSH1 0x3 PUSH2 0x100 EXP DUP2 SLOAD DUP2 PUSH1 0xFF MUL NOT AND SWAP1 DUP4 ISZERO ISZERO MUL OR SWAP1 SSTORE POP PUSH1 0x2 PUSH1 0x3 EQ PUSH0 PUSH1 0x4 PUSH2 0x100 EXP DUP2 SLOAD DUP2 PUSH1 0xFF MUL NOT AND SWAP1 DUP4 ISZERO ISZERO MUL OR SWAP1 SSTORE POP PUSH1 0x2 PUSH1 0x3 EQ ISZERO PUSH0 PUSH1 0x5 PUSH2 0x100 EXP DUP2 SLOAD DUP2 PUSH1 0xFF MUL NOT AND SWAP1 DUP4 ISZERO ISZERO MUL OR SWAP1 SSTORE POP CALLVALUE DUP1 ISZERO PUSH1 0xBD JUMPI PUSH0 DUP1 REVERT JUMPDEST POP PUSH2 0x171 DUP1 PUSH2 0xCB PUSH0 CODECOPY PUSH0 RETURN INVALID PUSH1 0x80 PUSH1 0x40 MSTORE CALLVALUE DUP1 ISZERO PUSH2 0xF JUMPI PUSH0 DUP1 REVERT JUMPDEST POP PUSH1 0x4 CALLDATASIZE LT PUSH2 0x29 JUMPI PUSH0 CALLDATALOAD PUSH1 0xE0 SHR DUP1 PUSH4 0xAAE103AD EQ PUSH2 0x2D JUMPI JUMPDEST PUSH0 DUP1 REVERT JUMPDEST PUSH2 0x35 PUSH2 0x50 JUMP JUMPDEST PUSH1 0x40 MLOAD PUSH2 0x47 SWAP7 SWAP6 SWAP5 SWAP4 SWAP3 SWAP2 SWAP1 PUSH2 0xDC JUMP JUMPDEST PUSH1 0x40 MLOAD DUP1 SWAP2 SUB SWAP1 RETURN JUMPDEST PUSH0 DUP1 PUSH0 DUP1 PUSH0 DUP1 PUSH0 DUP1 SLOAD SWAP1 PUSH2 0x100 EXP SWAP1 DIV PUSH1 0xFF AND PUSH0 PUSH1 0x1 SWAP1 SLOAD SWAP1 PUSH2 0x100 EXP SWAP1 DIV PUSH1 0xFF AND PUSH0 PUSH1 0x2 SWAP1 SLOAD SWAP1 PUSH2 0x100 EXP SWAP1 DIV PUSH1 0xFF AND PUSH0 PUSH1 0x3 SWAP1 SLOAD SWAP1 PUSH2 0x100 EXP SWAP1 DIV PUSH1 0xFF AND PUSH0 PUSH1 0x4 SWAP1 SLOAD SWAP1 PUSH2 0x100 EXP SWAP1 DIV PUSH1 0xFF AND PUSH0 PUSH1 0x5 SWAP1 SLOAD SWAP1 PUSH2 0x100 EXP SWAP1 DIV PUSH1 0xFF AND SWAP6 POP SWAP6 POP SWAP6 POP SWAP6 POP SWAP6 POP SWAP6 POP SWAP1 SWAP2 SWAP3 SWAP4 SWAP5 SWAP6 JUMP JUMPDEST PUSH0 DUP2 ISZERO ISZERO SWAP1 POP SWAP2 SWAP1 POP JUMP JUMPDEST PUSH2 0xD6 DUP2 PUSH2 0xC2 JUMP JUMPDEST DUP3 MSTORE POP POP JUMP JUMPDEST PUSH0 PUSH1 0xC0 DUP3 ADD SWAP1 POP PUSH2 0xEF PUSH0 DUP4 ADD DUP10 PUSH2 0xCD JUMP JUMPDEST PUSH2 0xFC PUSH1 0x20 DUP4 ADD DUP9 PUSH2 0xCD JUMP JUMPDEST PUSH2 0x109 PUSH1 0x40 DUP4 ADD DUP8 PUSH2 0xCD JUMP JUMPDEST PUSH2 0x116 PUSH1 0x60 DUP4 ADD DUP7 PUSH2 0xCD JUMP JUMPDEST PUSH2 0x123 PUSH1 0x80 DUP4 ADD DUP6 PUSH2 0xCD JUMP JUMPDEST PUSH2 0x130 PUSH1 0xA0 DUP4 ADD DUP5 PUSH2 0xCD JUMP JUMPDEST SWAP8 SWAP7 POP POP POP POP POP POP POP JUMP INVALID LOG2 PUSH5 0x6970667358 0x22 SLT KECCAK256 0xA7 0xEC ISZERO MUL PUSH13 0xD7649D21586DD60E584C0DED52 0xCE 0xCB 0xED 0xCE STOP 0xD9 0xE8 BYTE 0xE8 EXTCODECOPY 0x21 0xA8 MULMOD 0x4B PUSH5 0x736F6C6343 STOP ADDMOD BYTE STOP CALLER "
				},
				"gasEstimates": {
					"creation": {
						"codeDepositCost": "73800",
						"executionCost": "146012",
						"totalCost": "219812"
					},
					"external": {
						"comparison()": "infinite"
					}
				},
				"methodIdentifiers": {
					"comparison()": "aae103ad"
				}
			},
			"storageLayout": {
				"storage": [
					{
						"astId": 6,
						"contract": "Example/Ex4_11.sol:Ex4_11",
						"label": "a",
						"offset": 0,
						"slot": "0",
						"type": "t_bool"
					},
					{
						"astId": 11,
						"contract": "Example/Ex4_11.sol:Ex4_11",
						"label": "b",
						"offset": 1,
						"slot": "0",
						"type": "t_bool"
					},
					{
						"astId": 16,
						"contract": "Example/Ex4_11.sol:Ex4_11",
						"label": "c",
						"offset": 2,
						"slot": "0",
						"type": "t_bool"
					},
					{
						"astId": 21,
						"contract": "Example/Ex4_11.sol:Ex4_11",
						"label": "d",
						"offset": 3,
						"slot": "0",
						"type": "t_bool"
					},
					{
						"astId": 26,
						"contract": "Example/Ex4_11.sol:Ex4_11",
						"label": "e",
						"offset": 4,
						"slot": "0",
						"type": "t_bool"
					},
					{
						"astId": 31,
						"contract": "Example/Ex4_11.sol:Ex4_11",
						"label": "f",
						"offset": 5,
						"slot": "0",
						"type": "t_bool"
					}
				],
				"types": {
					"t_bool": {
						"encoding": "inplace",
						"label": "bool",
						"numberOfBytes": "1"
					}
				}
			},
			"userdoc": {
				"kind": "user",
				"methods": {},
				"version": 1
			}
		}
	}
}