{
	"week3/Ex4_33.sol": {
		"Ex4_33": {
			"abi": [
				{
					"inputs": [],
					"name": "fun1",
					"outputs": [
						{
							"internalType": "uint256",
							"name": "",
							"type": "uint256"
						}
					],
					"stateMutability": "pure",
					"type": "function"
				}
			],
			"devdoc": {
				"kind": "dev",
				"methods": {},
				"version": 1
			},
			"evm": {
				"assembly": "    /* \"week3/Ex4_33.sol\":67:311  contract Ex4_33{... */\n  mstore(0x40, 0x80)\n  callvalue\n  dup1\n  iszero\n  tag_1\n  jumpi\n  0x00\n  dup1\n  revert\ntag_1:\n  pop\n  dataSize(sub_0)\n  dup1\n  dataOffset(sub_0)\n  0x00\n  codecopy\n  0x00\n  return\nstop\n\nsub_0: assembly {\n        /* \"week3/Ex4_33.sol\":67:311  contract Ex4_33{... */\n      mstore(0x40, 0x80)\n      callvalue\n      dup1\n      iszero\n      tag_1\n      jumpi\n      0x00\n      dup1\n      revert\n    tag_1:\n      pop\n      jumpi(tag_2, lt(calldatasize, 0x04))\n      shr(0xe0, calldataload(0x00))\n      dup1\n      0x446a45b7\n      eq\n      tag_3\n      jumpi\n    tag_2:\n      0x00\n      dup1\n      revert\n        /* \"week3/Ex4_33.sol\":88:309  function fun1() public pure returns(uint){... */\n    tag_3:\n      tag_4\n      tag_5\n      jump\t// in\n    tag_4:\n      mload(0x40)\n      tag_6\n      swap2\n      swap1\n      tag_7\n      jump\t// in\n    tag_6:\n      mload(0x40)\n      dup1\n      swap2\n      sub\n      swap1\n      return\n    tag_5:\n        /* \"week3/Ex4_33.sol\":124:128  uint */\n      0x00\n        /* \"week3/Ex4_33.sol\":139:150  uint result */\n      dup1\n        /* \"week3/Ex4_33.sol\":151:152  0 */\n      0x00\n        /* \"week3/Ex4_33.sol\":139:152  uint result=0 */\n      swap1\n      pop\n        /* \"week3/Ex4_33.sol\":166:172  uint a */\n      0x00\n        /* \"week3/Ex4_33.sol\":173:174  1 */\n      0x01\n        /* \"week3/Ex4_33.sol\":166:174  uint a=1 */\n      swap1\n      pop\n        /* \"week3/Ex4_33.sol\":162:280  for(uint a=1;a<2;++a){... */\n    tag_9:\n        /* \"week3/Ex4_33.sol\":177:178  2 */\n      0x02\n        /* \"week3/Ex4_33.sol\":175:176  a */\n      dup2\n        /* \"week3/Ex4_33.sol\":175:178  a<2 */\n      lt\n        /* \"week3/Ex4_33.sol\":162:280  for(uint a=1;a<2;++a){... */\n      iszero\n      tag_10\n      jumpi\n        /* \"week3/Ex4_33.sol\":201:207  uint b */\n      0x00\n        /* \"week3/Ex4_33.sol\":208:209  2 */\n      0x02\n        /* \"week3/Ex4_33.sol\":201:209  uint b=2 */\n      swap1\n      pop\n        /* \"week3/Ex4_33.sol\":197:270  for(uint b=2;b<4;++b){... */\n    tag_12:\n        /* \"week3/Ex4_33.sol\":212:213  4 */\n      0x04\n        /* \"week3/Ex4_33.sol\":210:211  b */\n      dup2\n        /* \"week3/Ex4_33.sol\":210:213  b<4 */\n      lt\n        /* \"week3/Ex4_33.sol\":197:270  for(uint b=2;b<4;++b){... */\n      iszero\n      tag_13\n      jumpi\n        /* \"week3/Ex4_33.sol\":253:254  b */\n      dup1\n        /* \"week3/Ex4_33.sol\":251:252  a */\n      dup3\n        /* \"week3/Ex4_33.sol\":251:254  a*b */\n      tag_15\n      swap2\n      swap1\n      tag_16\n      jump\t// in\n    tag_15:\n        /* \"week3/Ex4_33.sol\":243:249  result */\n      dup4\n        /* \"week3/Ex4_33.sol\":243:255  result+(a*b) */\n      tag_17\n      swap2\n      swap1\n      tag_18\n      jump\t// in\n    tag_17:\n        /* \"week3/Ex4_33.sol\":236:255  result=result+(a*b) */\n      swap3\n      pop\n        /* \"week3/Ex4_33.sol\":214:217  ++b */\n      dup1\n      0x01\n      add\n      swap1\n      pop\n        /* \"week3/Ex4_33.sol\":197:270  for(uint b=2;b<4;++b){... */\n      jump(tag_12)\n    tag_13:\n      pop\n        /* \"week3/Ex4_33.sol\":179:182  ++a */\n      dup1\n      0x01\n      add\n      swap1\n      pop\n        /* \"week3/Ex4_33.sol\":162:280  for(uint a=1;a<2;++a){... */\n      jump(tag_9)\n    tag_10:\n      pop\n        /* \"week3/Ex4_33.sol\":296:302  result */\n      dup1\n        /* \"week3/Ex4_33.sol\":289:302  return result */\n      swap2\n      pop\n      pop\n        /* \"week3/Ex4_33.sol\":88:309  function fun1() public pure returns(uint){... */\n      swap1\n      jump\t// out\n        /* \"#utility.yul\":7:84   */\n    tag_19:\n        /* \"#utility.yul\":44:51   */\n      0x00\n        /* \"#utility.yul\":73:78   */\n      dup2\n        /* \"#utility.yul\":62:78   */\n      swap1\n      pop\n        /* \"#utility.yul\":7:84   */\n      swap2\n      swap1\n      pop\n      jump\t// out\n        /* \"#utility.yul\":90:208   */\n    tag_20:\n        /* \"#utility.yul\":177:201   */\n      tag_25\n        /* \"#utility.yul\":195:200   */\n      dup2\n        /* \"#utility.yul\":177:201   */\n      tag_19\n      jump\t// in\n    tag_25:\n        /* \"#utility.yul\":172:175   */\n      dup3\n        /* \"#utility.yul\":165:202   */\n      mstore\n        /* \"#utility.yul\":90:208   */\n      pop\n      pop\n      jump\t// out\n        /* \"#utility.yul\":214:436   */\n    tag_7:\n        /* \"#utility.yul\":307:311   */\n      0x00\n        /* \"#utility.yul\":345:347   */\n      0x20\n        /* \"#utility.yul\":334:343   */\n      dup3\n        /* \"#utility.yul\":330:348   */\n      add\n        /* \"#utility.yul\":322:348   */\n      swap1\n      pop\n        /* \"#utility.yul\":358:429   */\n      tag_27\n        /* \"#utility.yul\":426:427   */\n      0x00\n        /* \"#utility.yul\":415:424   */\n      dup4\n        /* \"#utility.yul\":411:428   */\n      add\n        /* \"#utility.yul\":402:408   */\n      dup5\n        /* \"#utility.yul\":358:429   */\n      tag_20\n      jump\t// in\n    tag_27:\n        /* \"#utility.yul\":214:436   */\n      swap3\n      swap2\n      pop\n      pop\n      jump\t// out\n        /* \"#utility.yul\":442:622   */\n    tag_21:\n        /* \"#utility.yul\":490:567   */\n      0x4e487b7100000000000000000000000000000000000000000000000000000000\n        /* \"#utility.yul\":487:488   */\n      0x00\n        /* \"#utility.yul\":480:568   */\n      mstore\n        /* \"#utility.yul\":587:591   */\n      0x11\n        /* \"#utility.yul\":584:585   */\n      0x04\n        /* \"#utility.yul\":577:592   */\n      mstore\n        /* \"#utility.yul\":611:615   */\n      0x24\n        /* \"#utility.yul\":608:609   */\n      0x00\n        /* \"#utility.yul\":601:616   */\n      revert\n        /* \"#utility.yul\":628:1038   */\n    tag_16:\n        /* \"#utility.yul\":668:675   */\n      0x00\n        /* \"#utility.yul\":691:711   */\n      tag_30\n        /* \"#utility.yul\":709:710   */\n      dup3\n        /* \"#utility.yul\":691:711   */\n      tag_19\n      jump\t// in\n    tag_30:\n        /* \"#utility.yul\":686:711   */\n      swap2\n      pop\n        /* \"#utility.yul\":725:745   */\n      tag_31\n        /* \"#utility.yul\":743:744   */\n      dup4\n        /* \"#utility.yul\":725:745   */\n      tag_19\n      jump\t// in\n    tag_31:\n        /* \"#utility.yul\":720:745   */\n      swap3\n      pop\n        /* \"#utility.yul\":780:781   */\n      dup3\n        /* \"#utility.yul\":777:778   */\n      dup3\n        /* \"#utility.yul\":773:782   */\n      mul\n        /* \"#utility.yul\":802:832   */\n      tag_32\n        /* \"#utility.yul\":820:831   */\n      dup2\n        /* \"#utility.yul\":802:832   */\n      tag_19\n      jump\t// in\n    tag_32:\n        /* \"#utility.yul\":791:832   */\n      swap2\n      pop\n        /* \"#utility.yul\":981:982   */\n      dup3\n        /* \"#utility.yul\":972:979   */\n      dup3\n        /* \"#utility.yul\":968:983   */\n      div\n        /* \"#utility.yul\":965:966   */\n      dup5\n        /* \"#utility.yul\":962:984   */\n      eq\n        /* \"#utility.yul\":942:943   */\n      dup4\n        /* \"#utility.yul\":935:944   */\n      iszero\n        /* \"#utility.yul\":915:998   */\n      or\n        /* \"#utility.yul\":892:1031   */\n      tag_33\n      jumpi\n        /* \"#utility.yul\":1011:1029   */\n      tag_34\n      tag_21\n      jump\t// in\n    tag_34:\n        /* \"#utility.yul\":892:1031   */\n    tag_33:\n        /* \"#utility.yul\":676:1038   */\n      pop\n        /* \"#utility.yul\":628:1038   */\n      swap3\n      swap2\n      pop\n      pop\n      jump\t// out\n        /* \"#utility.yul\":1044:1235   */\n    tag_18:\n        /* \"#utility.yul\":1084:1087   */\n      0x00\n        /* \"#utility.yul\":1103:1123   */\n      tag_36\n        /* \"#utility.yul\":1121:1122   */\n      dup3\n        /* \"#utility.yul\":1103:1123   */\n      tag_19\n      jump\t// in\n    tag_36:\n        /* \"#utility.yul\":1098:1123   */\n      swap2\n      pop\n        /* \"#utility.yul\":1137:1157   */\n      tag_37\n        /* \"#utility.yul\":1155:1156   */\n      dup4\n        /* \"#utility.yul\":1137:1157   */\n      tag_19\n      jump\t// in\n    tag_37:\n        /* \"#utility.yul\":1132:1157   */\n      swap3\n      pop\n        /* \"#utility.yul\":1180:1181   */\n      dup3\n        /* \"#utility.yul\":1177:1178   */\n      dup3\n        /* \"#utility.yul\":1173:1182   */\n      add\n        /* \"#utility.yul\":1166:1182   */\n      swap1\n      pop\n        /* \"#utility.yul\":1201:1204   */\n      dup1\n        /* \"#utility.yul\":1198:1199   */\n      dup3\n        /* \"#utility.yul\":1195:1205   */\n      gt\n        /* \"#utility.yul\":1192:1228   */\n      iszero\n      tag_38\n      jumpi\n        /* \"#utility.yul\":1208:1226   */\n      tag_39\n      tag_21\n      jump\t// in\n    tag_39:\n        /* \"#utility.yul\":1192:1228   */\n    tag_38:\n        /* \"#utility.yul\":1044:1235   */\n      swap3\n      swap2\n      pop\n      pop\n      jump\t// out\n\n    auxdata: 0xa2646970667358221220534f17ad09e39d9d466139ced97359aa40d24e4e65bbc193ecfe4a15ddcc217c64736f6c634300081a0033\n}\n",
				"bytecode": {
					"linkReferences": {},
					"object": "6080604052348015600e575f80fd5b506101ae8061001c5f395ff3fe608060405234801561000f575f80fd5b5060043610610029575f3560e01c8063446a45b71461002d575b5f80fd5b61003561004b565b60405161004291906100be565b60405180910390f35b5f805f90505f600190505b600281101561009e575f600290505b600481101561009257808261007a9190610104565b836100859190610145565b9250806001019050610065565b50806001019050610056565b508091505090565b5f819050919050565b6100b8816100a6565b82525050565b5f6020820190506100d15f8301846100af565b92915050565b7f4e487b71000000000000000000000000000000000000000000000000000000005f52601160045260245ffd5b5f61010e826100a6565b9150610119836100a6565b9250828202610127816100a6565b9150828204841483151761013e5761013d6100d7565b5b5092915050565b5f61014f826100a6565b915061015a836100a6565b9250828201905080821115610172576101716100d7565b5b9291505056fea2646970667358221220534f17ad09e39d9d466139ced97359aa40d24e4e65bbc193ecfe4a15ddcc217c64736f6c634300081a0033",
					"opcodes": "PUSH1 0x80 PUSH1 0x40 MSTORE CALLVALUE DUP1 ISZERO PUSH1 0xE JUMPI PUSH0 DUP1 REVERT JUMPDEST POP PUSH2 0x1AE DUP1 PUSH2 0x1C PUSH0 CODECOPY PUSH0 RETURN INVALID PUSH1 0x80 PUSH1 0x40 MSTORE CALLVALUE DUP1 ISZERO PUSH2 0xF JUMPI PUSH0 DUP1 REVERT JUMPDEST POP PUSH1 0x4 CALLDATASIZE LT PUSH2 0x29 JUMPI PUSH0 CALLDATALOAD PUSH1 0xE0 SHR DUP1 PUSH4 0x446A45B7 EQ PUSH2 0x2D JUMPI JUMPDEST PUSH0 DUP1 REVERT JUMPDEST PUSH2 0x35 PUSH2 0x4B JUMP JUMPDEST PUSH1 0x40 MLOAD PUSH2 0x42 SWAP2 SWAP1 PUSH2 0xBE JUMP JUMPDEST PUSH1 0x40 MLOAD DUP1 SWAP2 SUB SWAP1 RETURN JUMPDEST PUSH0 DUP1 PUSH0 SWAP1 POP PUSH0 PUSH1 0x1 SWAP1 POP JUMPDEST PUSH1 0x2 DUP2 LT ISZERO PUSH2 0x9E JUMPI PUSH0 PUSH1 0x2 SWAP1 POP JUMPDEST PUSH1 0x4 DUP2 LT ISZERO PUSH2 0x92 JUMPI DUP1 DUP3 PUSH2 0x7A SWAP2 SWAP1 PUSH2 0x104 JUMP JUMPDEST DUP4 PUSH2 0x85 SWAP2 SWAP1 PUSH2 0x145 JUMP JUMPDEST SWAP3 POP DUP1 PUSH1 0x1 ADD SWAP1 POP PUSH2 0x65 JUMP JUMPDEST POP DUP1 PUSH1 0x1 ADD SWAP1 POP PUSH2 0x56 JUMP JUMPDEST POP DUP1 SWAP2 POP POP SWAP1 JUMP JUMPDEST PUSH0 DUP2 SWAP1 POP SWAP2 SWAP1 POP JUMP JUMPDEST PUSH2 0xB8 DUP2 PUSH2 0xA6 JUMP JUMPDEST DUP3 MSTORE POP POP JUMP JUMPDEST PUSH0 PUSH1 0x20 DUP3 ADD SWAP1 POP PUSH2 0xD1 PUSH0 DUP4 ADD DUP5 PUSH2 0xAF JUMP JUMPDEST SWAP3 SWAP2 POP POP JUMP JUMPDEST PUSH32 0x4E487B7100000000000000000000000000000000000000000000000000000000 PUSH0 MSTORE PUSH1 0x11 PUSH1 0x4 MSTORE PUSH1 0x24 PUSH0 REVERT JUMPDEST PUSH0 PUSH2 0x10E DUP3 PUSH2 0xA6 JUMP JUMPDEST SWAP2 POP PUSH2 0x119 DUP4 PUSH2 0xA6 JUMP JUMPDEST SWAP3 POP DUP3 DUP3 MUL PUSH2 0x127 DUP2 PUSH2 0xA6 JUMP JUMPDEST SWAP2 POP DUP3 DUP3 DIV DUP5 EQ DUP4 ISZERO OR PUSH2 0x13E JUMPI PUSH2 0x13D PUSH2 0xD7 JUMP JUMPDEST JUMPDEST POP SWAP3 SWAP2 POP POP JUMP JUMPDEST PUSH0 PUSH2 0x14F DUP3 PUSH2 0xA6 JUMP JUMPDEST SWAP2 POP PUSH2 0x15A DUP4 PUSH2 0xA6 JUMP JUMPDEST SWAP3 POP DUP3 DUP3 ADD SWAP1 POP DUP1 DUP3 GT ISZERO PUSH2 0x172 JUMPI PUSH2 0x171 PUSH2 0xD7 JUMP JUMPDEST JUMPDEST SWAP3 SWAP2 POP POP JUMP INVALID LOG2 PUSH5 0x6970667358 0x22 SLT KECCAK256 MSTORE8 0x4F OR 0xAD MULMOD 0xE3 SWAP14 SWAP14 CHAINID PUSH2 0x39CE 0xD9 PUSH20 0x59AA40D24E4E65BBC193ECFE4A15DDCC217C6473 PUSH16 0x6C634300081A00330000000000000000 "
				},
				"gasEstimates": {
					"creation": {
						"codeDepositCost": "86000",
						"executionCost": "133",
						"totalCost": "86133"
					},
					"external": {
						"fun1()": "infinite"
					}
				},
				"methodIdentifiers": {
					"fun1()": "446a45b7"
				}
			},
			"storageLayout": {
				"storage": [],
				"types": null
			},
			"userdoc": {
				"kind": "user",
				"methods": {},
				"version": 1
			}
		}
	}
}