{
	"week3/Ex4_26_1.sol": {
		"Ex4_26_1": {
			"abi": [
				{
					"inputs": [
						{
							"internalType": "uint256",
							"name": "a",
							"type": "uint256"
						}
					],
					"name": "func1",
					"outputs": [
						{
							"internalType": "uint256",
							"name": "",
							"type": "uint256"
						}
					],
					"stateMutability": "pure",
					"type": "function"
				}
			],
			"devdoc": {
				"kind": "dev",
				"methods": {},
				"version": 1
			},
			"evm": {
				"assembly": "    /* \"week3/Ex4_26_1.sol\":0:247  contract Ex4_26_1{... */\n  mstore(0x40, 0x80)\n  callvalue\n  dup1\n  iszero\n  tag_1\n  jumpi\n  0x00\n  dup1\n  revert\ntag_1:\n  pop\n  dataSize(sub_0)\n  dup1\n  dataOffset(sub_0)\n  0x00\n  codecopy\n  0x00\n  return\nstop\n\nsub_0: assembly {\n        /* \"week3/Ex4_26_1.sol\":0:247  contract Ex4_26_1{... */\n      mstore(0x40, 0x80)\n      callvalue\n      dup1\n      iszero\n      tag_1\n      jumpi\n      0x00\n      dup1\n      revert\n    tag_1:\n      pop\n      jumpi(tag_2, lt(calldatasize, 0x04))\n      shr(0xe0, calldataload(0x00))\n      dup1\n      0x254e43db\n      eq\n      tag_3\n      jumpi\n    tag_2:\n      0x00\n      dup1\n      revert\n        /* \"week3/Ex4_26_1.sol\":24:245  function func1(uint a)public pure returns(uint){... */\n    tag_3:\n      tag_4\n      0x04\n      dup1\n      calldatasize\n      sub\n      dup2\n      add\n      swap1\n      tag_5\n      swap2\n      swap1\n      tag_6\n      jump\t// in\n    tag_5:\n      tag_7\n      jump\t// in\n    tag_4:\n      mload(0x40)\n      tag_8\n      swap2\n      swap1\n      tag_9\n      jump\t// in\n    tag_8:\n      mload(0x40)\n      dup1\n      swap2\n      sub\n      swap1\n      return\n    tag_7:\n        /* \"week3/Ex4_26_1.sol\":66:70  uint */\n      0x00\n        /* \"week3/Ex4_26_1.sol\":87:88  1 */\n      0x01\n        /* \"week3/Ex4_26_1.sol\":84:85  a */\n      dup3\n        /* \"week3/Ex4_26_1.sol\":84:88  a>=1 */\n      lt\n        /* \"week3/Ex4_26_1.sol\":81:117  if(a>=1){... */\n      tag_11\n      jumpi\n        /* \"week3/Ex4_26_1.sol\":105:106  1 */\n      0x01\n        /* \"week3/Ex4_26_1.sol\":103:106  a=1 */\n      swap2\n      pop\n        /* \"week3/Ex4_26_1.sol\":81:117  if(a>=1){... */\n    tag_11:\n        /* \"week3/Ex4_26_1.sol\":123:124  2 */\n      0x02\n        /* \"week3/Ex4_26_1.sol\":120:121  a */\n      dup3\n        /* \"week3/Ex4_26_1.sol\":120:124  a>=2 */\n      lt\n        /* \"week3/Ex4_26_1.sol\":117:153  if(a>=2){... */\n      tag_12\n      jumpi\n        /* \"week3/Ex4_26_1.sol\":141:142  2 */\n      0x02\n        /* \"week3/Ex4_26_1.sol\":139:142  a=2 */\n      swap2\n      pop\n        /* \"week3/Ex4_26_1.sol\":117:153  if(a>=2){... */\n    tag_12:\n        /* \"week3/Ex4_26_1.sol\":159:160  3 */\n      0x03\n        /* \"week3/Ex4_26_1.sol\":156:157  a */\n      dup3\n        /* \"week3/Ex4_26_1.sol\":156:160  a>=3 */\n      lt\n        /* \"week3/Ex4_26_1.sol\":153:221  if(a>=3){... */\n      tag_13\n      jumpi\n        /* \"week3/Ex4_26_1.sol\":177:178  3 */\n      0x03\n        /* \"week3/Ex4_26_1.sol\":175:178  a=3 */\n      swap2\n      pop\n        /* \"week3/Ex4_26_1.sol\":153:221  if(a>=3){... */\n      jump(tag_14)\n    tag_13:\n        /* \"week3/Ex4_26_1.sol\":209:210  4 */\n      0x04\n        /* \"week3/Ex4_26_1.sol\":207:210  a=4 */\n      swap2\n      pop\n        /* \"week3/Ex4_26_1.sol\":153:221  if(a>=3){... */\n    tag_14:\n        /* \"week3/Ex4_26_1.sol\":237:238  a */\n      dup2\n        /* \"week3/Ex4_26_1.sol\":230:238  return a */\n      swap1\n      pop\n        /* \"week3/Ex4_26_1.sol\":24:245  function func1(uint a)public pure returns(uint){... */\n      swap2\n      swap1\n      pop\n      jump\t// out\n        /* \"#utility.yul\":88:205   */\n    tag_16:\n        /* \"#utility.yul\":197:198   */\n      0x00\n        /* \"#utility.yul\":194:195   */\n      dup1\n        /* \"#utility.yul\":187:199   */\n      revert\n        /* \"#utility.yul\":334:411   */\n    tag_18:\n        /* \"#utility.yul\":371:378   */\n      0x00\n        /* \"#utility.yul\":400:405   */\n      dup2\n        /* \"#utility.yul\":389:405   */\n      swap1\n      pop\n        /* \"#utility.yul\":334:411   */\n      swap2\n      swap1\n      pop\n      jump\t// out\n        /* \"#utility.yul\":417:539   */\n    tag_19:\n        /* \"#utility.yul\":490:514   */\n      tag_28\n        /* \"#utility.yul\":508:513   */\n      dup2\n        /* \"#utility.yul\":490:514   */\n      tag_18\n      jump\t// in\n    tag_28:\n        /* \"#utility.yul\":483:488   */\n      dup2\n        /* \"#utility.yul\":480:515   */\n      eq\n        /* \"#utility.yul\":470:533   */\n      tag_29\n      jumpi\n        /* \"#utility.yul\":529:530   */\n      0x00\n        /* \"#utility.yul\":526:527   */\n      dup1\n        /* \"#utility.yul\":519:531   */\n      revert\n        /* \"#utility.yul\":470:533   */\n    tag_29:\n        /* \"#utility.yul\":417:539   */\n      pop\n      jump\t// out\n        /* \"#utility.yul\":545:684   */\n    tag_20:\n        /* \"#utility.yul\":591:596   */\n      0x00\n        /* \"#utility.yul\":629:635   */\n      dup2\n        /* \"#utility.yul\":616:636   */\n      calldataload\n        /* \"#utility.yul\":607:636   */\n      swap1\n      pop\n        /* \"#utility.yul\":645:678   */\n      tag_31\n        /* \"#utility.yul\":672:677   */\n      dup2\n        /* \"#utility.yul\":645:678   */\n      tag_19\n      jump\t// in\n    tag_31:\n        /* \"#utility.yul\":545:684   */\n      swap3\n      swap2\n      pop\n      pop\n      jump\t// out\n        /* \"#utility.yul\":690:1019   */\n    tag_6:\n        /* \"#utility.yul\":749:755   */\n      0x00\n        /* \"#utility.yul\":798:800   */\n      0x20\n        /* \"#utility.yul\":786:795   */\n      dup3\n        /* \"#utility.yul\":777:784   */\n      dup5\n        /* \"#utility.yul\":773:796   */\n      sub\n        /* \"#utility.yul\":769:801   */\n      slt\n        /* \"#utility.yul\":766:885   */\n      iszero\n      tag_33\n      jumpi\n        /* \"#utility.yul\":804:883   */\n      tag_34\n      tag_16\n      jump\t// in\n    tag_34:\n        /* \"#utility.yul\":766:885   */\n    tag_33:\n        /* \"#utility.yul\":924:925   */\n      0x00\n        /* \"#utility.yul\":949:1002   */\n      tag_35\n        /* \"#utility.yul\":994:1001   */\n      dup5\n        /* \"#utility.yul\":985:991   */\n      dup3\n        /* \"#utility.yul\":974:983   */\n      dup6\n        /* \"#utility.yul\":970:992   */\n      add\n        /* \"#utility.yul\":949:1002   */\n      tag_20\n      jump\t// in\n    tag_35:\n        /* \"#utility.yul\":939:1002   */\n      swap2\n      pop\n        /* \"#utility.yul\":895:1012   */\n      pop\n        /* \"#utility.yul\":690:1019   */\n      swap3\n      swap2\n      pop\n      pop\n      jump\t// out\n        /* \"#utility.yul\":1025:1143   */\n    tag_21:\n        /* \"#utility.yul\":1112:1136   */\n      tag_37\n        /* \"#utility.yul\":1130:1135   */\n      dup2\n        /* \"#utility.yul\":1112:1136   */\n      tag_18\n      jump\t// in\n    tag_37:\n        /* \"#utility.yul\":1107:1110   */\n      dup3\n        /* \"#utility.yul\":1100:1137   */\n      mstore\n        /* \"#utility.yul\":1025:1143   */\n      pop\n      pop\n      jump\t// out\n        /* \"#utility.yul\":1149:1371   */\n    tag_9:\n        /* \"#utility.yul\":1242:1246   */\n      0x00\n        /* \"#utility.yul\":1280:1282   */\n      0x20\n        /* \"#utility.yul\":1269:1278   */\n      dup3\n        /* \"#utility.yul\":1265:1283   */\n      add\n        /* \"#utility.yul\":1257:1283   */\n      swap1\n      pop\n        /* \"#utility.yul\":1293:1364   */\n      tag_39\n        /* \"#utility.yul\":1361:1362   */\n      0x00\n        /* \"#utility.yul\":1350:1359   */\n      dup4\n        /* \"#utility.yul\":1346:1363   */\n      add\n        /* \"#utility.yul\":1337:1343   */\n      dup5\n        /* \"#utility.yul\":1293:1364   */\n      tag_21\n      jump\t// in\n    tag_39:\n        /* \"#utility.yul\":1149:1371   */\n      swap3\n      swap2\n      pop\n      pop\n      jump\t// out\n\n    auxdata: 0xa26469706673582212202f03f6b8dde47049f2388193bc0e25dd00d79e5638fafc9c283c00399ec3c2f664736f6c634300081a0033\n}\n",
				"bytecode": {
					"linkReferences": {},
					"object": "6080604052348015600e575f80fd5b506101568061001c5f395ff3fe608060405234801561000f575f80fd5b5060043610610029575f3560e01c8063254e43db1461002d575b5f80fd5b610047600480360381019061004291906100cd565b61005d565b6040516100549190610107565b60405180910390f35b5f6001821061006b57600191505b6002821061007857600291505b60038210610089576003915061008e565b600491505b819050919050565b5f80fd5b5f819050919050565b6100ac8161009a565b81146100b6575f80fd5b50565b5f813590506100c7816100a3565b92915050565b5f602082840312156100e2576100e1610096565b5b5f6100ef848285016100b9565b91505092915050565b6101018161009a565b82525050565b5f60208201905061011a5f8301846100f8565b9291505056fea26469706673582212202f03f6b8dde47049f2388193bc0e25dd00d79e5638fafc9c283c00399ec3c2f664736f6c634300081a0033",
					"opcodes": "PUSH1 0x80 PUSH1 0x40 MSTORE CALLVALUE DUP1 ISZERO PUSH1 0xE JUMPI PUSH0 DUP1 REVERT JUMPDEST POP PUSH2 0x156 DUP1 PUSH2 0x1C PUSH0 CODECOPY PUSH0 RETURN INVALID PUSH1 0x80 PUSH1 0x40 MSTORE CALLVALUE DUP1 ISZERO PUSH2 0xF JUMPI PUSH0 DUP1 REVERT JUMPDEST POP PUSH1 0x4 CALLDATASIZE LT PUSH2 0x29 JUMPI PUSH0 CALLDATALOAD PUSH1 0xE0 SHR DUP1 PUSH4 0x254E43DB EQ PUSH2 0x2D JUMPI JUMPDEST PUSH0 DUP1 REVERT JUMPDEST PUSH2 0x47 PUSH1 0x4 DUP1 CALLDATASIZE SUB DUP2 ADD SWAP1 PUSH2 0x42 SWAP2 SWAP1 PUSH2 0xCD JUMP JUMPDEST PUSH2 0x5D JUMP JUMPDEST PUSH1 0x40 MLOAD PUSH2 0x54 SWAP2 SWAP1 PUSH2 0x107 JUMP JUMPDEST PUSH1 0x40 MLOAD DUP1 SWAP2 SUB SWAP1 RETURN JUMPDEST PUSH0 PUSH1 0x1 DUP3 LT PUSH2 0x6B JUMPI PUSH1 0x1 SWAP2 POP JUMPDEST PUSH1 0x2 DUP3 LT PUSH2 0x78 JUMPI PUSH1 0x2 SWAP2 POP JUMPDEST PUSH1 0x3 DUP3 LT PUSH2 0x89 JUMPI PUSH1 0x3 SWAP2 POP PUSH2 0x8E JUMP JUMPDEST PUSH1 0x4 SWAP2 POP JUMPDEST DUP2 SWAP1 POP SWAP2 SWAP1 POP JUMP JUMPDEST PUSH0 DUP1 REVERT JUMPDEST PUSH0 DUP2 SWAP1 POP SWAP2 SWAP1 POP JUMP JUMPDEST PUSH2 0xAC DUP2 PUSH2 0x9A JUMP JUMPDEST DUP2 EQ PUSH2 0xB6 JUMPI PUSH0 DUP1 REVERT JUMPDEST POP JUMP JUMPDEST PUSH0 DUP2 CALLDATALOAD SWAP1 POP PUSH2 0xC7 DUP2 PUSH2 0xA3 JUMP JUMPDEST SWAP3 SWAP2 POP POP JUMP JUMPDEST PUSH0 PUSH1 0x20 DUP3 DUP5 SUB SLT ISZERO PUSH2 0xE2 JUMPI PUSH2 0xE1 PUSH2 0x96 JUMP JUMPDEST JUMPDEST PUSH0 PUSH2 0xEF DUP5 DUP3 DUP6 ADD PUSH2 0xB9 JUMP JUMPDEST SWAP2 POP POP SWAP3 SWAP2 POP POP JUMP JUMPDEST PUSH2 0x101 DUP2 PUSH2 0x9A JUMP JUMPDEST DUP3 MSTORE POP POP JUMP JUMPDEST PUSH0 PUSH1 0x20 DUP3 ADD SWAP1 POP PUSH2 0x11A PUSH0 DUP4 ADD DUP5 PUSH2 0xF8 JUMP JUMPDEST SWAP3 SWAP2 POP POP JUMP INVALID LOG2 PUSH5 0x6970667358 0x22 SLT KECCAK256 0x2F SUB 0xF6 0xB8 0xDD 0xE4 PUSH17 0x49F2388193BC0E25DD00D79E5638FAFC9C 0x28 EXTCODECOPY STOP CODECOPY SWAP15 0xC3 0xC2 0xF6 PUSH5 0x736F6C6343 STOP ADDMOD BYTE STOP CALLER "
				},
				"gasEstimates": {
					"creation": {
						"codeDepositCost": "68400",
						"executionCost": "115",
						"totalCost": "68515"
					},
					"external": {
						"func1(uint256)": "infinite"
					}
				},
				"methodIdentifiers": {
					"func1(uint256)": "254e43db"
				}
			},
			"storageLayout": {
				"storage": [],
				"types": null
			},
			"userdoc": {
				"kind": "user",
				"methods": {},
				"version": 1
			}
		}
	}
}