{
	"week3/Ex5_4.sol": {
		"Ex5_4": {
			"abi": [
				{
					"inputs": [
						{
							"internalType": "uint256",
							"name": "_value",
							"type": "uint256"
						}
					],
					"name": "addArray1",
					"outputs": [],
					"stateMutability": "nonpayable",
					"type": "function"
				},
				{
					"inputs": [
						{
							"internalType": "uint256",
							"name": "",
							"type": "uint256"
						}
					],
					"name": "array1",
					"outputs": [
						{
							"internalType": "uint256",
							"name": "",
							"type": "uint256"
						}
					],
					"stateMutability": "view",
					"type": "function"
				},
				{
					"inputs": [
						{
							"internalType": "uint256",
							"name": "",
							"type": "uint256"
						}
					],
					"name": "array2",
					"outputs": [
						{
							"internalType": "string",
							"name": "",
							"type": "string"
						}
					],
					"stateMutability": "view",
					"type": "function"
				},
				{
					"inputs": [
						{
							"internalType": "uint256",
							"name": "_index",
							"type": "uint256"
						},
						{
							"internalType": "uint256",
							"name": "_value",
							"type": "uint256"
						}
					],
					"name": "changeArray1",
					"outputs": [],
					"stateMutability": "nonpayable",
					"type": "function"
				},
				{
					"inputs": [
						{
							"internalType": "uint256",
							"name": "_index",
							"type": "uint256"
						},
						{
							"internalType": "string",
							"name": "_value",
							"type": "string"
						}
					],
					"name": "changeArray2",
					"outputs": [],
					"stateMutability": "nonpayable",
					"type": "function"
				},
				{
					"inputs": [
						{
							"internalType": "uint256",
							"name": "_index",
							"type": "uint256"
						}
					],
					"name": "deleteArray",
					"outputs": [],
					"stateMutability": "nonpayable",
					"type": "function"
				},
				{
					"inputs": [],
					"name": "getLength",
					"outputs": [
						{
							"internalType": "uint256",
							"name": "",
							"type": "uint256"
						}
					],
					"stateMutability": "view",
					"type": "function"
				},
				{
					"inputs": [],
					"name": "popArray",
					"outputs": [],
					"stateMutability": "nonpayable",
					"type": "function"
				}
			],
			"devdoc": {
				"kind": "dev",
				"methods": {},
				"version": 1
			},
			"evm": {
				"assembly": "    /* \"week3/Ex5_4.sol\":0:626  contract Ex5_4{... */\n  mstore(0x40, 0x80)\n    /* \"week3/Ex5_4.sol\":20:49  uint[] public array1 =[97,98] */\n  mload(0x40)\n  dup1\n  0x40\n  add\n  0x40\n  mstore\n  dup1\n    /* \"week3/Ex5_4.sol\":43:45  97 */\n  0x61\n    /* \"week3/Ex5_4.sol\":20:49  uint[] public array1 =[97,98] */\n  0xff\n  and\n  dup2\n  mstore\n  0x20\n  add\n    /* \"week3/Ex5_4.sol\":46:48  98 */\n  0x62\n    /* \"week3/Ex5_4.sol\":20:49  uint[] public array1 =[97,98] */\n  0xff\n  and\n  dup2\n  mstore\n  pop\n  0x00\n  swap1\n  0x02\n  tag_1\n  swap3\n  swap2\n  swap1\n  tag_2\n  jump\t// in\ntag_1:\n  pop\n    /* \"week3/Ex5_4.sol\":55:109  string[5] public array2 = [\"apple\",\"banana\",\"Coconut\"] */\n  mload(0x40)\n  dup1\n  0x60\n  add\n  0x40\n  mstore\n  dup1\n  mload(0x40)\n  dup1\n  0x40\n  add\n  0x40\n  mstore\n  dup1\n  0x05\n  dup2\n  mstore\n  0x20\n  add\n  0x6170706c65000000000000000000000000000000000000000000000000000000\n  dup2\n  mstore\n  pop\n  dup2\n  mstore\n  0x20\n  add\n  mload(0x40)\n  dup1\n  0x40\n  add\n  0x40\n  mstore\n  dup1\n  0x06\n  dup2\n  mstore\n  0x20\n  add\n  0x62616e616e610000000000000000000000000000000000000000000000000000\n  dup2\n  mstore\n  pop\n  dup2\n  mstore\n  0x20\n  add\n  mload(0x40)\n  dup1\n  0x40\n  add\n  0x40\n  mstore\n  dup1\n  0x07\n  dup2\n  mstore\n  0x20\n  add\n  0x436f636f6e757400000000000000000000000000000000000000000000000000\n  dup2\n  mstore\n  pop\n  dup2\n  mstore\n  pop\n  0x01\n  swap1\n  0x03\n  tag_3\n  swap3\n  swap2\n  swap1\n  tag_4\n  jump\t// in\ntag_3:\n  pop\n    /* \"week3/Ex5_4.sol\":0:626  contract Ex5_4{... */\n  callvalue\n  dup1\n  iszero\n  tag_5\n  jumpi\n  0x00\n  dup1\n  revert\ntag_5:\n  pop\n  jump(tag_6)\ntag_2:\n  dup3\n  dup1\n  sload\n  dup3\n  dup3\n  sstore\n  swap1\n  0x00\n  mstore\n  keccak256(0x00, 0x20)\n  swap1\n  dup2\n  add\n  swap3\n  dup3\n  iszero\n  tag_7\n  jumpi\n  swap2\n  0x20\n  mul\n  dup3\n  add\ntag_8:\n  dup3\n  dup2\n  gt\n  iszero\n  tag_9\n  jumpi\n  dup3\n  mload\n  dup3\n  swap1\n  0xff\n  and\n  swap1\n  sstore\n  swap2\n  0x20\n  add\n  swap2\n  swap1\n  0x01\n  add\n  swap1\n  jump(tag_8)\ntag_9:\ntag_7:\n  pop\n  swap1\n  pop\n  tag_10\n  swap2\n  swap1\n  tag_11\n  jump\t// in\ntag_10:\n  pop\n  swap1\n  jump\t// out\ntag_4:\n  dup3\n  0x05\n  dup2\n  add\n  swap3\n  dup3\n  iszero\n  tag_12\n  jumpi\n  swap2\n  0x20\n  mul\n  dup3\n  add\ntag_13:\n  dup3\n  dup2\n  gt\n  iszero\n  tag_14\n  jumpi\n  dup3\n  mload\n  dup3\n  swap1\n  dup2\n  tag_15\n  swap2\n  swap1\n  tag_16\n  jump\t// in\ntag_15:\n  pop\n  swap2\n  0x20\n  add\n  swap2\n  swap1\n  0x01\n  add\n  swap1\n  jump(tag_13)\ntag_14:\ntag_12:\n  pop\n  swap1\n  pop\n  tag_17\n  swap2\n  swap1\n  tag_18\n  jump\t// in\ntag_17:\n  pop\n  swap1\n  jump\t// out\ntag_11:\ntag_19:\n  dup1\n  dup3\n  gt\n  iszero\n  tag_20\n  jumpi\n  0x00\n  dup2\n  0x00\n  swap1\n  sstore\n  pop\n  0x01\n  add\n  jump(tag_19)\ntag_20:\n  pop\n  swap1\n  jump\t// out\ntag_18:\ntag_21:\n  dup1\n  dup3\n  gt\n  iszero\n  tag_22\n  jumpi\n  0x00\n  dup2\n  dup2\n  tag_23\n  swap2\n  swap1\n  tag_24\n  jump\t// in\ntag_23:\n  pop\n  0x01\n  add\n  jump(tag_21)\ntag_22:\n  pop\n  swap1\n  jump\t// out\ntag_24:\n  pop\n  dup1\n  sload\n  tag_25\n  swap1\n  tag_26\n  jump\t// in\ntag_25:\n  0x00\n  dup3\n  sstore\n  dup1\n  0x1f\n  lt\n  tag_28\n  jumpi\n  pop\n  jump(tag_27)\ntag_28:\n  0x1f\n  add\n  0x20\n  swap1\n  div\n  swap1\n  0x00\n  mstore\n  keccak256(0x00, 0x20)\n  swap1\n  dup2\n  add\n  swap1\n  tag_29\n  swap2\n  swap1\n  tag_11\n  jump\t// in\ntag_29:\ntag_27:\n  pop\n  jump\t// out\n    /* \"#utility.yul\":7:106   */\ntag_30:\n    /* \"#utility.yul\":59:65   */\n  0x00\n    /* \"#utility.yul\":93:98   */\n  dup2\n    /* \"#utility.yul\":87:99   */\n  mload\n    /* \"#utility.yul\":77:99   */\n  swap1\n  pop\n    /* \"#utility.yul\":7:106   */\n  swap2\n  swap1\n  pop\n  jump\t// out\n    /* \"#utility.yul\":112:292   */\ntag_31:\n    /* \"#utility.yul\":160:237   */\n  0x4e487b7100000000000000000000000000000000000000000000000000000000\n    /* \"#utility.yul\":157:158   */\n  0x00\n    /* \"#utility.yul\":150:238   */\n  mstore\n    /* \"#utility.yul\":257:261   */\n  0x41\n    /* \"#utility.yul\":254:255   */\n  0x04\n    /* \"#utility.yul\":247:262   */\n  mstore\n    /* \"#utility.yul\":281:285   */\n  0x24\n    /* \"#utility.yul\":278:279   */\n  0x00\n    /* \"#utility.yul\":271:286   */\n  revert\n    /* \"#utility.yul\":298:478   */\ntag_32:\n    /* \"#utility.yul\":346:423   */\n  0x4e487b7100000000000000000000000000000000000000000000000000000000\n    /* \"#utility.yul\":343:344   */\n  0x00\n    /* \"#utility.yul\":336:424   */\n  mstore\n    /* \"#utility.yul\":443:447   */\n  0x22\n    /* \"#utility.yul\":440:441   */\n  0x04\n    /* \"#utility.yul\":433:448   */\n  mstore\n    /* \"#utility.yul\":467:471   */\n  0x24\n    /* \"#utility.yul\":464:465   */\n  0x00\n    /* \"#utility.yul\":457:472   */\n  revert\n    /* \"#utility.yul\":484:804   */\ntag_26:\n    /* \"#utility.yul\":528:534   */\n  0x00\n    /* \"#utility.yul\":565:566   */\n  0x02\n    /* \"#utility.yul\":559:563   */\n  dup3\n    /* \"#utility.yul\":555:567   */\n  div\n    /* \"#utility.yul\":545:567   */\n  swap1\n  pop\n    /* \"#utility.yul\":612:613   */\n  0x01\n    /* \"#utility.yul\":606:610   */\n  dup3\n    /* \"#utility.yul\":602:614   */\n  and\n    /* \"#utility.yul\":633:651   */\n  dup1\n    /* \"#utility.yul\":623:704   */\n  tag_54\n  jumpi\n    /* \"#utility.yul\":689:693   */\n  0x7f\n    /* \"#utility.yul\":681:687   */\n  dup3\n    /* \"#utility.yul\":677:694   */\n  and\n    /* \"#utility.yul\":667:694   */\n  swap2\n  pop\n    /* \"#utility.yul\":623:704   */\ntag_54:\n    /* \"#utility.yul\":751:753   */\n  0x20\n    /* \"#utility.yul\":743:749   */\n  dup3\n    /* \"#utility.yul\":740:754   */\n  lt\n    /* \"#utility.yul\":720:738   */\n  dup2\n    /* \"#utility.yul\":717:755   */\n  sub\n    /* \"#utility.yul\":714:798   */\n  tag_55\n  jumpi\n    /* \"#utility.yul\":770:788   */\n  tag_56\n  tag_32\n  jump\t// in\ntag_56:\n    /* \"#utility.yul\":714:798   */\ntag_55:\n    /* \"#utility.yul\":535:804   */\n  pop\n    /* \"#utility.yul\":484:804   */\n  swap2\n  swap1\n  pop\n  jump\t// out\n    /* \"#utility.yul\":810:951   */\ntag_33:\n    /* \"#utility.yul\":859:863   */\n  0x00\n    /* \"#utility.yul\":882:885   */\n  dup2\n    /* \"#utility.yul\":874:885   */\n  swap1\n  pop\n    /* \"#utility.yul\":905:908   */\n  dup2\n    /* \"#utility.yul\":902:903   */\n  0x00\n    /* \"#utility.yul\":895:909   */\n  mstore\n    /* \"#utility.yul\":939:943   */\n  0x20\n    /* \"#utility.yul\":936:937   */\n  0x00\n    /* \"#utility.yul\":926:944   */\n  keccak256\n    /* \"#utility.yul\":918:944   */\n  swap1\n  pop\n    /* \"#utility.yul\":810:951   */\n  swap2\n  swap1\n  pop\n  jump\t// out\n    /* \"#utility.yul\":957:1050   */\ntag_34:\n    /* \"#utility.yul\":994:1000   */\n  0x00\n    /* \"#utility.yul\":1041:1043   */\n  0x20\n    /* \"#utility.yul\":1036:1038   */\n  0x1f\n    /* \"#utility.yul\":1029:1034   */\n  dup4\n    /* \"#utility.yul\":1025:1039   */\n  add\n    /* \"#utility.yul\":1021:1044   */\n  div\n    /* \"#utility.yul\":1011:1044   */\n  swap1\n  pop\n    /* \"#utility.yul\":957:1050   */\n  swap2\n  swap1\n  pop\n  jump\t// out\n    /* \"#utility.yul\":1056:1163   */\ntag_35:\n    /* \"#utility.yul\":1100:1108   */\n  0x00\n    /* \"#utility.yul\":1150:1155   */\n  dup3\n    /* \"#utility.yul\":1144:1148   */\n  dup3\n    /* \"#utility.yul\":1140:1156   */\n  shl\n    /* \"#utility.yul\":1119:1156   */\n  swap1\n  pop\n    /* \"#utility.yul\":1056:1163   */\n  swap3\n  swap2\n  pop\n  pop\n  jump\t// out\n    /* \"#utility.yul\":1169:1562   */\ntag_36:\n    /* \"#utility.yul\":1238:1244   */\n  0x00\n    /* \"#utility.yul\":1288:1289   */\n  0x08\n    /* \"#utility.yul\":1276:1286   */\n  dup4\n    /* \"#utility.yul\":1272:1290   */\n  mul\n    /* \"#utility.yul\":1311:1408   */\n  tag_61\n    /* \"#utility.yul\":1341:1407   */\n  0xffffffffffffffffffffffffffffffffffffffffffffffffffffffffffffffff\n    /* \"#utility.yul\":1330:1339   */\n  dup3\n    /* \"#utility.yul\":1311:1408   */\n  tag_35\n  jump\t// in\ntag_61:\n    /* \"#utility.yul\":1429:1468   */\n  tag_62\n    /* \"#utility.yul\":1459:1467   */\n  dup7\n    /* \"#utility.yul\":1448:1457   */\n  dup4\n    /* \"#utility.yul\":1429:1468   */\n  tag_35\n  jump\t// in\ntag_62:\n    /* \"#utility.yul\":1417:1468   */\n  swap6\n  pop\n    /* \"#utility.yul\":1501:1505   */\n  dup1\n    /* \"#utility.yul\":1497:1506   */\n  not\n    /* \"#utility.yul\":1490:1495   */\n  dup5\n    /* \"#utility.yul\":1486:1507   */\n  and\n    /* \"#utility.yul\":1477:1507   */\n  swap4\n  pop\n    /* \"#utility.yul\":1550:1554   */\n  dup1\n    /* \"#utility.yul\":1540:1548   */\n  dup7\n    /* \"#utility.yul\":1536:1555   */\n  and\n    /* \"#utility.yul\":1529:1534   */\n  dup5\n    /* \"#utility.yul\":1526:1556   */\n  or\n    /* \"#utility.yul\":1516:1556   */\n  swap3\n  pop\n    /* \"#utility.yul\":1245:1562   */\n  pop\n  pop\n    /* \"#utility.yul\":1169:1562   */\n  swap4\n  swap3\n  pop\n  pop\n  pop\n  jump\t// out\n    /* \"#utility.yul\":1568:1645   */\ntag_37:\n    /* \"#utility.yul\":1605:1612   */\n  0x00\n    /* \"#utility.yul\":1634:1639   */\n  dup2\n    /* \"#utility.yul\":1623:1639   */\n  swap1\n  pop\n    /* \"#utility.yul\":1568:1645   */\n  swap2\n  swap1\n  pop\n  jump\t// out\n    /* \"#utility.yul\":1651:1711   */\ntag_38:\n    /* \"#utility.yul\":1679:1682   */\n  0x00\n    /* \"#utility.yul\":1700:1705   */\n  dup2\n    /* \"#utility.yul\":1693:1705   */\n  swap1\n  pop\n    /* \"#utility.yul\":1651:1711   */\n  swap2\n  swap1\n  pop\n  jump\t// out\n    /* \"#utility.yul\":1717:1859   */\ntag_39:\n    /* \"#utility.yul\":1767:1776   */\n  0x00\n    /* \"#utility.yul\":1800:1853   */\n  tag_66\n    /* \"#utility.yul\":1818:1852   */\n  tag_67\n    /* \"#utility.yul\":1827:1851   */\n  tag_68\n    /* \"#utility.yul\":1845:1850   */\n  dup5\n    /* \"#utility.yul\":1827:1851   */\n  tag_37\n  jump\t// in\ntag_68:\n    /* \"#utility.yul\":1818:1852   */\n  tag_38\n  jump\t// in\ntag_67:\n    /* \"#utility.yul\":1800:1853   */\n  tag_37\n  jump\t// in\ntag_66:\n    /* \"#utility.yul\":1787:1853   */\n  swap1\n  pop\n    /* \"#utility.yul\":1717:1859   */\n  swap2\n  swap1\n  pop\n  jump\t// out\n    /* \"#utility.yul\":1865:1940   */\ntag_40:\n    /* \"#utility.yul\":1908:1911   */\n  0x00\n    /* \"#utility.yul\":1929:1934   */\n  dup2\n    /* \"#utility.yul\":1922:1934   */\n  swap1\n  pop\n    /* \"#utility.yul\":1865:1940   */\n  swap2\n  swap1\n  pop\n  jump\t// out\n    /* \"#utility.yul\":1946:2215   */\ntag_41:\n    /* \"#utility.yul\":2056:2095   */\n  tag_71\n    /* \"#utility.yul\":2087:2094   */\n  dup4\n    /* \"#utility.yul\":2056:2095   */\n  tag_39\n  jump\t// in\ntag_71:\n    /* \"#utility.yul\":2117:2208   */\n  tag_72\n    /* \"#utility.yul\":2166:2207   */\n  tag_73\n    /* \"#utility.yul\":2190:2206   */\n  dup3\n    /* \"#utility.yul\":2166:2207   */\n  tag_40\n  jump\t// in\ntag_73:\n    /* \"#utility.yul\":2158:2164   */\n  dup5\n    /* \"#utility.yul\":2151:2155   */\n  dup5\n    /* \"#utility.yul\":2145:2156   */\n  sload\n    /* \"#utility.yul\":2117:2208   */\n  tag_36\n  jump\t// in\ntag_72:\n    /* \"#utility.yul\":2111:2115   */\n  dup3\n    /* \"#utility.yul\":2104:2209   */\n  sstore\n    /* \"#utility.yul\":2022:2215   */\n  pop\n    /* \"#utility.yul\":1946:2215   */\n  pop\n  pop\n  pop\n  jump\t// out\n    /* \"#utility.yul\":2221:2294   */\ntag_42:\n    /* \"#utility.yul\":2266:2269   */\n  0x00\n    /* \"#utility.yul\":2221:2294   */\n  swap1\n  jump\t// out\n    /* \"#utility.yul\":2300:2489   */\ntag_43:\n    /* \"#utility.yul\":2377:2409   */\n  tag_76\n  tag_42\n  jump\t// in\ntag_76:\n    /* \"#utility.yul\":2418:2483   */\n  tag_77\n    /* \"#utility.yul\":2476:2482   */\n  dup2\n    /* \"#utility.yul\":2468:2474   */\n  dup5\n    /* \"#utility.yul\":2462:2466   */\n  dup5\n    /* \"#utility.yul\":2418:2483   */\n  tag_41\n  jump\t// in\ntag_77:\n    /* \"#utility.yul\":2353:2489   */\n  pop\n    /* \"#utility.yul\":2300:2489   */\n  pop\n  pop\n  jump\t// out\n    /* \"#utility.yul\":2495:2681   */\ntag_44:\n    /* \"#utility.yul\":2555:2675   */\ntag_79:\n    /* \"#utility.yul\":2572:2575   */\n  dup2\n    /* \"#utility.yul\":2565:2570   */\n  dup2\n    /* \"#utility.yul\":2562:2576   */\n  lt\n    /* \"#utility.yul\":2555:2675   */\n  iszero\n  tag_81\n  jumpi\n    /* \"#utility.yul\":2626:2665   */\n  tag_82\n    /* \"#utility.yul\":2663:2664   */\n  0x00\n    /* \"#utility.yul\":2656:2661   */\n  dup3\n    /* \"#utility.yul\":2626:2665   */\n  tag_43\n  jump\t// in\ntag_82:\n    /* \"#utility.yul\":2599:2600   */\n  0x01\n    /* \"#utility.yul\":2592:2597   */\n  dup2\n    /* \"#utility.yul\":2588:2601   */\n  add\n    /* \"#utility.yul\":2579:2601   */\n  swap1\n  pop\n    /* \"#utility.yul\":2555:2675   */\n  jump(tag_79)\ntag_81:\n    /* \"#utility.yul\":2495:2681   */\n  pop\n  pop\n  jump\t// out\n    /* \"#utility.yul\":2687:3230   */\ntag_45:\n    /* \"#utility.yul\":2788:2790   */\n  0x1f\n    /* \"#utility.yul\":2783:2786   */\n  dup3\n    /* \"#utility.yul\":2780:2791   */\n  gt\n    /* \"#utility.yul\":2777:3223   */\n  iszero\n  tag_84\n  jumpi\n    /* \"#utility.yul\":2822:2860   */\n  tag_85\n    /* \"#utility.yul\":2854:2859   */\n  dup2\n    /* \"#utility.yul\":2822:2860   */\n  tag_33\n  jump\t// in\ntag_85:\n    /* \"#utility.yul\":2906:2935   */\n  tag_86\n    /* \"#utility.yul\":2924:2934   */\n  dup5\n    /* \"#utility.yul\":2906:2935   */\n  tag_34\n  jump\t// in\ntag_86:\n    /* \"#utility.yul\":2896:2904   */\n  dup2\n    /* \"#utility.yul\":2892:2936   */\n  add\n    /* \"#utility.yul\":3089:3091   */\n  0x20\n    /* \"#utility.yul\":3077:3087   */\n  dup6\n    /* \"#utility.yul\":3074:3092   */\n  lt\n    /* \"#utility.yul\":3071:3120   */\n  iszero\n  tag_87\n  jumpi\n    /* \"#utility.yul\":3110:3118   */\n  dup2\n    /* \"#utility.yul\":3095:3118   */\n  swap1\n  pop\n    /* \"#utility.yul\":3071:3120   */\ntag_87:\n    /* \"#utility.yul\":3133:3213   */\n  tag_88\n    /* \"#utility.yul\":3189:3211   */\n  tag_89\n    /* \"#utility.yul\":3207:3210   */\n  dup6\n    /* \"#utility.yul\":3189:3211   */\n  tag_34\n  jump\t// in\ntag_89:\n    /* \"#utility.yul\":3179:3187   */\n  dup4\n    /* \"#utility.yul\":3175:3212   */\n  add\n    /* \"#utility.yul\":3162:3173   */\n  dup3\n    /* \"#utility.yul\":3133:3213   */\n  tag_44\n  jump\t// in\ntag_88:\n    /* \"#utility.yul\":2792:3223   */\n  pop\n  pop\n    /* \"#utility.yul\":2777:3223   */\ntag_84:\n    /* \"#utility.yul\":2687:3230   */\n  pop\n  pop\n  pop\n  jump\t// out\n    /* \"#utility.yul\":3236:3353   */\ntag_46:\n    /* \"#utility.yul\":3290:3298   */\n  0x00\n    /* \"#utility.yul\":3340:3345   */\n  dup3\n    /* \"#utility.yul\":3334:3338   */\n  dup3\n    /* \"#utility.yul\":3330:3346   */\n  shr\n    /* \"#utility.yul\":3309:3346   */\n  swap1\n  pop\n    /* \"#utility.yul\":3236:3353   */\n  swap3\n  swap2\n  pop\n  pop\n  jump\t// out\n    /* \"#utility.yul\":3359:3528   */\ntag_47:\n    /* \"#utility.yul\":3403:3409   */\n  0x00\n    /* \"#utility.yul\":3436:3487   */\n  tag_92\n    /* \"#utility.yul\":3484:3485   */\n  0x00\n    /* \"#utility.yul\":3480:3486   */\n  not\n    /* \"#utility.yul\":3472:3477   */\n  dup5\n    /* \"#utility.yul\":3469:3470   */\n  0x08\n    /* \"#utility.yul\":3465:3478   */\n  mul\n    /* \"#utility.yul\":3436:3487   */\n  tag_46\n  jump\t// in\ntag_92:\n    /* \"#utility.yul\":3432:3488   */\n  not\n    /* \"#utility.yul\":3517:3521   */\n  dup1\n    /* \"#utility.yul\":3511:3515   */\n  dup4\n    /* \"#utility.yul\":3507:3522   */\n  and\n    /* \"#utility.yul\":3497:3522   */\n  swap2\n  pop\n    /* \"#utility.yul\":3410:3528   */\n  pop\n    /* \"#utility.yul\":3359:3528   */\n  swap3\n  swap2\n  pop\n  pop\n  jump\t// out\n    /* \"#utility.yul\":3533:3828   */\ntag_48:\n    /* \"#utility.yul\":3609:3613   */\n  0x00\n    /* \"#utility.yul\":3755:3784   */\n  tag_94\n    /* \"#utility.yul\":3780:3783   */\n  dup4\n    /* \"#utility.yul\":3774:3778   */\n  dup4\n    /* \"#utility.yul\":3755:3784   */\n  tag_47\n  jump\t// in\ntag_94:\n    /* \"#utility.yul\":3747:3784   */\n  swap2\n  pop\n    /* \"#utility.yul\":3817:3820   */\n  dup3\n    /* \"#utility.yul\":3814:3815   */\n  0x02\n    /* \"#utility.yul\":3810:3821   */\n  mul\n    /* \"#utility.yul\":3804:3808   */\n  dup3\n    /* \"#utility.yul\":3801:3822   */\n  or\n    /* \"#utility.yul\":3793:3822   */\n  swap1\n  pop\n    /* \"#utility.yul\":3533:3828   */\n  swap3\n  swap2\n  pop\n  pop\n  jump\t// out\n    /* \"#utility.yul\":3833:5228   */\ntag_16:\n    /* \"#utility.yul\":3950:3987   */\n  tag_96\n    /* \"#utility.yul\":3983:3986   */\n  dup3\n    /* \"#utility.yul\":3950:3987   */\n  tag_30\n  jump\t// in\ntag_96:\n    /* \"#utility.yul\":4052:4070   */\n  0xffffffffffffffff\n    /* \"#utility.yul\":4044:4050   */\n  dup2\n    /* \"#utility.yul\":4041:4071   */\n  gt\n    /* \"#utility.yul\":4038:4094   */\n  iszero\n  tag_97\n  jumpi\n    /* \"#utility.yul\":4074:4092   */\n  tag_98\n  tag_31\n  jump\t// in\ntag_98:\n    /* \"#utility.yul\":4038:4094   */\ntag_97:\n    /* \"#utility.yul\":4118:4156   */\n  tag_99\n    /* \"#utility.yul\":4150:4154   */\n  dup3\n    /* \"#utility.yul\":4144:4155   */\n  sload\n    /* \"#utility.yul\":4118:4156   */\n  tag_26\n  jump\t// in\ntag_99:\n    /* \"#utility.yul\":4203:4270   */\n  tag_100\n    /* \"#utility.yul\":4263:4269   */\n  dup3\n    /* \"#utility.yul\":4255:4261   */\n  dup3\n    /* \"#utility.yul\":4249:4253   */\n  dup6\n    /* \"#utility.yul\":4203:4270   */\n  tag_45\n  jump\t// in\ntag_100:\n    /* \"#utility.yul\":4297:4298   */\n  0x00\n    /* \"#utility.yul\":4321:4325   */\n  0x20\n    /* \"#utility.yul\":4308:4325   */\n  swap1\n  pop\n    /* \"#utility.yul\":4353:4355   */\n  0x1f\n    /* \"#utility.yul\":4345:4351   */\n  dup4\n    /* \"#utility.yul\":4342:4356   */\n  gt\n    /* \"#utility.yul\":4370:4371   */\n  0x01\n    /* \"#utility.yul\":4365:4983   */\n  dup2\n  eq\n  tag_102\n  jumpi\n    /* \"#utility.yul\":5027:5028   */\n  0x00\n    /* \"#utility.yul\":5044:5050   */\n  dup5\n    /* \"#utility.yul\":5041:5118   */\n  iszero\n  tag_103\n  jumpi\n    /* \"#utility.yul\":5093:5102   */\n  dup3\n    /* \"#utility.yul\":5088:5091   */\n  dup8\n    /* \"#utility.yul\":5084:5103   */\n  add\n    /* \"#utility.yul\":5078:5104   */\n  mload\n    /* \"#utility.yul\":5069:5104   */\n  swap1\n  pop\n    /* \"#utility.yul\":5041:5118   */\ntag_103:\n    /* \"#utility.yul\":5144:5211   */\n  tag_104\n    /* \"#utility.yul\":5204:5210   */\n  dup6\n    /* \"#utility.yul\":5197:5202   */\n  dup3\n    /* \"#utility.yul\":5144:5211   */\n  tag_48\n  jump\t// in\ntag_104:\n    /* \"#utility.yul\":5138:5142   */\n  dup7\n    /* \"#utility.yul\":5131:5212   */\n  sstore\n    /* \"#utility.yul\":5000:5222   */\n  pop\n    /* \"#utility.yul\":4335:5222   */\n  jump(tag_101)\n    /* \"#utility.yul\":4365:4983   */\ntag_102:\n    /* \"#utility.yul\":4417:4421   */\n  0x1f\n    /* \"#utility.yul\":4413:4422   */\n  not\n    /* \"#utility.yul\":4405:4411   */\n  dup5\n    /* \"#utility.yul\":4401:4423   */\n  and\n    /* \"#utility.yul\":4451:4488   */\n  tag_105\n    /* \"#utility.yul\":4483:4487   */\n  dup7\n    /* \"#utility.yul\":4451:4488   */\n  tag_33\n  jump\t// in\ntag_105:\n    /* \"#utility.yul\":4510:4511   */\n  0x00\n    /* \"#utility.yul\":4524:4732   */\ntag_106:\n    /* \"#utility.yul\":4538:4545   */\n  dup3\n    /* \"#utility.yul\":4535:4536   */\n  dup2\n    /* \"#utility.yul\":4532:4546   */\n  lt\n    /* \"#utility.yul\":4524:4732   */\n  iszero\n  tag_108\n  jumpi\n    /* \"#utility.yul\":4617:4626   */\n  dup5\n    /* \"#utility.yul\":4612:4615   */\n  dup10\n    /* \"#utility.yul\":4608:4627   */\n  add\n    /* \"#utility.yul\":4602:4628   */\n  mload\n    /* \"#utility.yul\":4594:4600   */\n  dup3\n    /* \"#utility.yul\":4587:4629   */\n  sstore\n    /* \"#utility.yul\":4668:4669   */\n  0x01\n    /* \"#utility.yul\":4660:4666   */\n  dup3\n    /* \"#utility.yul\":4656:4670   */\n  add\n    /* \"#utility.yul\":4646:4670   */\n  swap2\n  pop\n    /* \"#utility.yul\":4715:4717   */\n  0x20\n    /* \"#utility.yul\":4704:4713   */\n  dup6\n    /* \"#utility.yul\":4700:4718   */\n  add\n    /* \"#utility.yul\":4687:4718   */\n  swap5\n  pop\n    /* \"#utility.yul\":4561:4565   */\n  0x20\n    /* \"#utility.yul\":4558:4559   */\n  dup2\n    /* \"#utility.yul\":4554:4566   */\n  add\n    /* \"#utility.yul\":4549:4566   */\n  swap1\n  pop\n    /* \"#utility.yul\":4524:4732   */\n  jump(tag_106)\ntag_108:\n    /* \"#utility.yul\":4760:4766   */\n  dup7\n    /* \"#utility.yul\":4751:4758   */\n  dup4\n    /* \"#utility.yul\":4748:4767   */\n  lt\n    /* \"#utility.yul\":4745:4924   */\n  iszero\n  tag_109\n  jumpi\n    /* \"#utility.yul\":4818:4827   */\n  dup5\n    /* \"#utility.yul\":4813:4816   */\n  dup10\n    /* \"#utility.yul\":4809:4828   */\n  add\n    /* \"#utility.yul\":4803:4829   */\n  mload\n    /* \"#utility.yul\":4861:4909   */\n  tag_110\n    /* \"#utility.yul\":4903:4907   */\n  0x1f\n    /* \"#utility.yul\":4895:4901   */\n  dup10\n    /* \"#utility.yul\":4891:4908   */\n  and\n    /* \"#utility.yul\":4880:4889   */\n  dup3\n    /* \"#utility.yul\":4861:4909   */\n  tag_47\n  jump\t// in\ntag_110:\n    /* \"#utility.yul\":4853:4859   */\n  dup4\n    /* \"#utility.yul\":4846:4910   */\n  sstore\n    /* \"#utility.yul\":4768:4924   */\n  pop\n    /* \"#utility.yul\":4745:4924   */\ntag_109:\n    /* \"#utility.yul\":4970:4971   */\n  0x01\n    /* \"#utility.yul\":4966:4967   */\n  0x02\n    /* \"#utility.yul\":4958:4964   */\n  dup9\n    /* \"#utility.yul\":4954:4968   */\n  mul\n    /* \"#utility.yul\":4950:4972   */\n  add\n    /* \"#utility.yul\":4944:4948   */\n  dup9\n    /* \"#utility.yul\":4937:4973   */\n  sstore\n    /* \"#utility.yul\":4372:4983   */\n  pop\n  pop\n  pop\n    /* \"#utility.yul\":4335:5222   */\ntag_101:\n  pop\n    /* \"#utility.yul\":3925:5228   */\n  pop\n  pop\n  pop\n    /* \"#utility.yul\":3833:5228   */\n  pop\n  pop\n  jump\t// out\n    /* \"week3/Ex5_4.sol\":0:626  contract Ex5_4{... */\ntag_6:\n  dataSize(sub_0)\n  dup1\n  dataOffset(sub_0)\n  0x00\n  codecopy\n  0x00\n  return\nstop\n\nsub_0: assembly {\n        /* \"week3/Ex5_4.sol\":0:626  contract Ex5_4{... */\n      mstore(0x40, 0x80)\n      callvalue\n      dup1\n      iszero\n      tag_1\n      jumpi\n      0x00\n      dup1\n      revert\n    tag_1:\n      pop\n      jumpi(tag_2, lt(calldatasize, 0x04))\n      shr(0xe0, calldataload(0x00))\n      dup1\n      0x7952deae\n      gt\n      tag_11\n      jumpi\n      dup1\n      0x7952deae\n      eq\n      tag_7\n      jumpi\n      dup1\n      0x8c00eb04\n      eq\n      tag_8\n      jumpi\n      dup1\n      0xae713d2a\n      eq\n      tag_9\n      jumpi\n      dup1\n      0xbe1c766b\n      eq\n      tag_10\n      jumpi\n      jump(tag_2)\n    tag_11:\n      dup1\n      0x0df904c3\n      eq\n      tag_3\n      jumpi\n      dup1\n      0x4bae89cb\n      eq\n      tag_4\n      jumpi\n      dup1\n      0x61125b63\n      eq\n      tag_5\n      jumpi\n      dup1\n      0x64924310\n      eq\n      tag_6\n      jumpi\n    tag_2:\n      0x00\n      dup1\n      revert\n        /* \"week3/Ex5_4.sol\":292:393  function changeArray2(uint _index,string memory _value) public {... */\n    tag_3:\n      tag_12\n      0x04\n      dup1\n      calldatasize\n      sub\n      dup2\n      add\n      swap1\n      tag_13\n      swap2\n      swap1\n      tag_14\n      jump\t// in\n    tag_13:\n      tag_15\n      jump\t// in\n    tag_12:\n      stop\n        /* \"week3/Ex5_4.sol\":20:49  uint[] public array1 =[97,98] */\n    tag_4:\n      tag_16\n      0x04\n      dup1\n      calldatasize\n      sub\n      dup2\n      add\n      swap1\n      tag_17\n      swap2\n      swap1\n      tag_18\n      jump\t// in\n    tag_17:\n      tag_19\n      jump\t// in\n    tag_16:\n      mload(0x40)\n      tag_20\n      swap2\n      swap1\n      tag_21\n      jump\t// in\n    tag_20:\n      mload(0x40)\n      dup1\n      swap2\n      sub\n      swap1\n      return\n        /* \"week3/Ex5_4.sol\":55:109  string[5] public array2 = [\"apple\",\"banana\",\"Coconut\"] */\n    tag_5:\n      tag_22\n      0x04\n      dup1\n      calldatasize\n      sub\n      dup2\n      add\n      swap1\n      tag_23\n      swap2\n      swap1\n      tag_18\n      jump\t// in\n    tag_23:\n      tag_24\n      jump\t// in\n    tag_22:\n      mload(0x40)\n      tag_25\n      swap2\n      swap1\n      tag_26\n      jump\t// in\n    tag_25:\n      mload(0x40)\n      dup1\n      swap2\n      sub\n      swap1\n      return\n        /* \"week3/Ex5_4.sol\":116:190  function addArray1(uint _value) public{... */\n    tag_6:\n      tag_27\n      0x04\n      dup1\n      calldatasize\n      sub\n      dup2\n      add\n      swap1\n      tag_28\n      swap2\n      swap1\n      tag_18\n      jump\t// in\n    tag_28:\n      tag_29\n      jump\t// in\n    tag_27:\n      stop\n        /* \"week3/Ex5_4.sol\":546:624  function deleteArray(uint _index) public{... */\n    tag_7:\n      tag_30\n      0x04\n      dup1\n      calldatasize\n      sub\n      dup2\n      add\n      swap1\n      tag_31\n      swap2\n      swap1\n      tag_18\n      jump\t// in\n    tag_31:\n      tag_32\n      jump\t// in\n    tag_30:\n      stop\n        /* \"week3/Ex5_4.sol\":195:287  function changeArray1(uint _index,uint _value) public {... */\n    tag_8:\n      tag_33\n      0x04\n      dup1\n      calldatasize\n      sub\n      dup2\n      add\n      swap1\n      tag_34\n      swap2\n      swap1\n      tag_35\n      jump\t// in\n    tag_34:\n      tag_36\n      jump\t// in\n    tag_33:\n      stop\n        /* \"week3/Ex5_4.sol\":486:541  function popArray() public{... */\n    tag_9:\n      tag_37\n      tag_38\n      jump\t// in\n    tag_37:\n      stop\n        /* \"week3/Ex5_4.sol\":398:481  function getLength() public view returns(uint){... */\n    tag_10:\n      tag_39\n      tag_40\n      jump\t// in\n    tag_39:\n      mload(0x40)\n      tag_41\n      swap2\n      swap1\n      tag_21\n      jump\t// in\n    tag_41:\n      mload(0x40)\n      dup1\n      swap2\n      sub\n      swap1\n      return\n        /* \"week3/Ex5_4.sol\":292:393  function changeArray2(uint _index,string memory _value) public {... */\n    tag_15:\n        /* \"week3/Ex5_4.sol\":380:386  _value */\n      dup1\n        /* \"week3/Ex5_4.sol\":365:371  array2 */\n      0x01\n        /* \"week3/Ex5_4.sol\":372:378  _index */\n      dup4\n        /* \"week3/Ex5_4.sol\":365:379  array2[_index] */\n      0x05\n      dup2\n      lt\n      tag_43\n      jumpi\n      tag_44\n      tag_45\n      jump\t// in\n    tag_44:\n    tag_43:\n      add\n        /* \"week3/Ex5_4.sol\":365:386  array2[_index]=_value */\n      swap1\n      dup2\n      tag_47\n      swap2\n      swap1\n      tag_48\n      jump\t// in\n    tag_47:\n      pop\n        /* \"week3/Ex5_4.sol\":292:393  function changeArray2(uint _index,string memory _value) public {... */\n      pop\n      pop\n      jump\t// out\n        /* \"week3/Ex5_4.sol\":20:49  uint[] public array1 =[97,98] */\n    tag_19:\n      0x00\n      dup2\n      dup2\n      sload\n      dup2\n      lt\n      tag_49\n      jumpi\n      0x00\n      dup1\n      revert\n    tag_49:\n      swap1\n      0x00\n      mstore\n      keccak256(0x00, 0x20)\n      add\n      0x00\n      swap2\n      pop\n      swap1\n      pop\n      sload\n      dup2\n      jump\t// out\n        /* \"week3/Ex5_4.sol\":55:109  string[5] public array2 = [\"apple\",\"banana\",\"Coconut\"] */\n    tag_24:\n      0x01\n      dup2\n      0x05\n      dup2\n      lt\n      tag_51\n      jumpi\n      0x00\n      dup1\n      revert\n    tag_51:\n      add\n      0x00\n      swap2\n      pop\n      swap1\n      pop\n      dup1\n      sload\n      tag_53\n      swap1\n      tag_54\n      jump\t// in\n    tag_53:\n      dup1\n      0x1f\n      add\n      0x20\n      dup1\n      swap2\n      div\n      mul\n      0x20\n      add\n      mload(0x40)\n      swap1\n      dup2\n      add\n      0x40\n      mstore\n      dup1\n      swap3\n      swap2\n      swap1\n      dup2\n      dup2\n      mstore\n      0x20\n      add\n      dup3\n      dup1\n      sload\n      tag_55\n      swap1\n      tag_54\n      jump\t// in\n    tag_55:\n      dup1\n      iszero\n      tag_56\n      jumpi\n      dup1\n      0x1f\n      lt\n      tag_57\n      jumpi\n      0x0100\n      dup1\n      dup4\n      sload\n      div\n      mul\n      dup4\n      mstore\n      swap2\n      0x20\n      add\n      swap2\n      jump(tag_56)\n    tag_57:\n      dup3\n      add\n      swap2\n      swap1\n      0x00\n      mstore\n      keccak256(0x00, 0x20)\n      swap1\n    tag_58:\n      dup2\n      sload\n      dup2\n      mstore\n      swap1\n      0x01\n      add\n      swap1\n      0x20\n      add\n      dup1\n      dup4\n      gt\n      tag_58\n      jumpi\n      dup3\n      swap1\n      sub\n      0x1f\n      and\n      dup3\n      add\n      swap2\n    tag_56:\n      pop\n      pop\n      pop\n      pop\n      pop\n      dup2\n      jump\t// out\n        /* \"week3/Ex5_4.sol\":116:190  function addArray1(uint _value) public{... */\n    tag_29:\n        /* \"week3/Ex5_4.sol\":164:170  array1 */\n      0x00\n        /* \"week3/Ex5_4.sol\":176:182  _value */\n      dup2\n        /* \"week3/Ex5_4.sol\":164:183  array1.push(_value) */\n      swap1\n      dup1\n      0x01\n      dup2\n      sload\n      add\n      dup1\n      dup3\n      sstore\n      dup1\n      swap2\n      pop\n      pop\n      0x01\n      swap1\n      sub\n      swap1\n      0x00\n      mstore\n      keccak256(0x00, 0x20)\n      add\n      0x00\n      swap1\n      swap2\n      swap1\n      swap2\n      swap1\n      swap2\n      pop\n      sstore\n        /* \"week3/Ex5_4.sol\":116:190  function addArray1(uint _value) public{... */\n      pop\n      jump\t// out\n        /* \"week3/Ex5_4.sol\":546:624  function deleteArray(uint _index) public{... */\n    tag_32:\n        /* \"week3/Ex5_4.sol\":603:609  array1 */\n      0x00\n        /* \"week3/Ex5_4.sol\":610:616  _index */\n      dup2\n        /* \"week3/Ex5_4.sol\":603:617  array1[_index] */\n      dup2\n      sload\n      dup2\n      lt\n      tag_62\n      jumpi\n      tag_63\n      tag_45\n      jump\t// in\n    tag_63:\n    tag_62:\n      swap1\n      0x00\n      mstore\n      keccak256(0x00, 0x20)\n      add\n        /* \"week3/Ex5_4.sol\":596:617  delete array1[_index] */\n      0x00\n      swap1\n      sstore\n        /* \"week3/Ex5_4.sol\":546:624  function deleteArray(uint _index) public{... */\n      pop\n      jump\t// out\n        /* \"week3/Ex5_4.sol\":195:287  function changeArray1(uint _index,uint _value) public {... */\n    tag_36:\n        /* \"week3/Ex5_4.sol\":274:280  _value */\n      dup1\n        /* \"week3/Ex5_4.sol\":259:265  array1 */\n      0x00\n        /* \"week3/Ex5_4.sol\":266:272  _index */\n      dup4\n        /* \"week3/Ex5_4.sol\":259:273  array1[_index] */\n      dup2\n      sload\n      dup2\n      lt\n      tag_66\n      jumpi\n      tag_67\n      tag_45\n      jump\t// in\n    tag_67:\n    tag_66:\n      swap1\n      0x00\n      mstore\n      keccak256(0x00, 0x20)\n      add\n        /* \"week3/Ex5_4.sol\":259:280  array1[_index]=_value */\n      dup2\n      swap1\n      sstore\n      pop\n        /* \"week3/Ex5_4.sol\":195:287  function changeArray1(uint _index,uint _value) public {... */\n      pop\n      pop\n      jump\t// out\n        /* \"week3/Ex5_4.sol\":486:541  function popArray() public{... */\n    tag_38:\n        /* \"week3/Ex5_4.sol\":522:528  array1 */\n      0x00\n        /* \"week3/Ex5_4.sol\":522:534  array1.pop() */\n      dup1\n      sload\n      dup1\n      tag_70\n      jumpi\n      tag_71\n      tag_72\n      jump\t// in\n    tag_71:\n    tag_70:\n      0x01\n      swap1\n      sub\n      dup2\n      dup2\n      swap1\n      0x00\n      mstore\n      keccak256(0x00, 0x20)\n      add\n      0x00\n      swap1\n      sstore\n      swap1\n      sstore\n        /* \"week3/Ex5_4.sol\":486:541  function popArray() public{... */\n      jump\t// out\n        /* \"week3/Ex5_4.sol\":398:481  function getLength() public view returns(uint){... */\n    tag_40:\n        /* \"week3/Ex5_4.sol\":439:443  uint */\n      0x00\n        /* \"week3/Ex5_4.sol\":461:467  array1 */\n      dup1\n        /* \"week3/Ex5_4.sol\":461:474  array1.length */\n      dup1\n      sload\n      swap1\n      pop\n        /* \"week3/Ex5_4.sol\":454:474  return array1.length */\n      swap1\n      pop\n        /* \"week3/Ex5_4.sol\":398:481  function getLength() public view returns(uint){... */\n      swap1\n      jump\t// out\n        /* \"#utility.yul\":7:82   */\n    tag_75:\n        /* \"#utility.yul\":40:46   */\n      0x00\n        /* \"#utility.yul\":73:75   */\n      0x40\n        /* \"#utility.yul\":67:76   */\n      mload\n        /* \"#utility.yul\":57:76   */\n      swap1\n      pop\n        /* \"#utility.yul\":7:82   */\n      swap1\n      jump\t// out\n        /* \"#utility.yul\":88:205   */\n    tag_76:\n        /* \"#utility.yul\":197:198   */\n      0x00\n        /* \"#utility.yul\":194:195   */\n      dup1\n        /* \"#utility.yul\":187:199   */\n      revert\n        /* \"#utility.yul\":211:328   */\n    tag_77:\n        /* \"#utility.yul\":320:321   */\n      0x00\n        /* \"#utility.yul\":317:318   */\n      dup1\n        /* \"#utility.yul\":310:322   */\n      revert\n        /* \"#utility.yul\":334:411   */\n    tag_78:\n        /* \"#utility.yul\":371:378   */\n      0x00\n        /* \"#utility.yul\":400:405   */\n      dup2\n        /* \"#utility.yul\":389:405   */\n      swap1\n      pop\n        /* \"#utility.yul\":334:411   */\n      swap2\n      swap1\n      pop\n      jump\t// out\n        /* \"#utility.yul\":417:539   */\n    tag_79:\n        /* \"#utility.yul\":490:514   */\n      tag_118\n        /* \"#utility.yul\":508:513   */\n      dup2\n        /* \"#utility.yul\":490:514   */\n      tag_78\n      jump\t// in\n    tag_118:\n        /* \"#utility.yul\":483:488   */\n      dup2\n        /* \"#utility.yul\":480:515   */\n      eq\n        /* \"#utility.yul\":470:533   */\n      tag_119\n      jumpi\n        /* \"#utility.yul\":529:530   */\n      0x00\n        /* \"#utility.yul\":526:527   */\n      dup1\n        /* \"#utility.yul\":519:531   */\n      revert\n        /* \"#utility.yul\":470:533   */\n    tag_119:\n        /* \"#utility.yul\":417:539   */\n      pop\n      jump\t// out\n        /* \"#utility.yul\":545:684   */\n    tag_80:\n        /* \"#utility.yul\":591:596   */\n      0x00\n        /* \"#utility.yul\":629:635   */\n      dup2\n        /* \"#utility.yul\":616:636   */\n      calldataload\n        /* \"#utility.yul\":607:636   */\n      swap1\n      pop\n        /* \"#utility.yul\":645:678   */\n      tag_121\n        /* \"#utility.yul\":672:677   */\n      dup2\n        /* \"#utility.yul\":645:678   */\n      tag_79\n      jump\t// in\n    tag_121:\n        /* \"#utility.yul\":545:684   */\n      swap3\n      swap2\n      pop\n      pop\n      jump\t// out\n        /* \"#utility.yul\":690:807   */\n    tag_81:\n        /* \"#utility.yul\":799:800   */\n      0x00\n        /* \"#utility.yul\":796:797   */\n      dup1\n        /* \"#utility.yul\":789:801   */\n      revert\n        /* \"#utility.yul\":813:930   */\n    tag_82:\n        /* \"#utility.yul\":922:923   */\n      0x00\n        /* \"#utility.yul\":919:920   */\n      dup1\n        /* \"#utility.yul\":912:924   */\n      revert\n        /* \"#utility.yul\":936:1038   */\n    tag_83:\n        /* \"#utility.yul\":977:983   */\n      0x00\n        /* \"#utility.yul\":1028:1030   */\n      0x1f\n        /* \"#utility.yul\":1024:1031   */\n      not\n        /* \"#utility.yul\":1019:1021   */\n      0x1f\n        /* \"#utility.yul\":1012:1017   */\n      dup4\n        /* \"#utility.yul\":1008:1022   */\n      add\n        /* \"#utility.yul\":1004:1032   */\n      and\n        /* \"#utility.yul\":994:1032   */\n      swap1\n      pop\n        /* \"#utility.yul\":936:1038   */\n      swap2\n      swap1\n      pop\n      jump\t// out\n        /* \"#utility.yul\":1044:1224   */\n    tag_84:\n        /* \"#utility.yul\":1092:1169   */\n      0x4e487b7100000000000000000000000000000000000000000000000000000000\n        /* \"#utility.yul\":1089:1090   */\n      0x00\n        /* \"#utility.yul\":1082:1170   */\n      mstore\n        /* \"#utility.yul\":1189:1193   */\n      0x41\n        /* \"#utility.yul\":1186:1187   */\n      0x04\n        /* \"#utility.yul\":1179:1194   */\n      mstore\n        /* \"#utility.yul\":1213:1217   */\n      0x24\n        /* \"#utility.yul\":1210:1211   */\n      0x00\n        /* \"#utility.yul\":1203:1218   */\n      revert\n        /* \"#utility.yul\":1230:1511   */\n    tag_85:\n        /* \"#utility.yul\":1313:1340   */\n      tag_127\n        /* \"#utility.yul\":1335:1339   */\n      dup3\n        /* \"#utility.yul\":1313:1340   */\n      tag_83\n      jump\t// in\n    tag_127:\n        /* \"#utility.yul\":1305:1311   */\n      dup2\n        /* \"#utility.yul\":1301:1341   */\n      add\n        /* \"#utility.yul\":1443:1449   */\n      dup2\n        /* \"#utility.yul\":1431:1441   */\n      dup2\n        /* \"#utility.yul\":1428:1450   */\n      lt\n        /* \"#utility.yul\":1407:1425   */\n      0xffffffffffffffff\n        /* \"#utility.yul\":1395:1405   */\n      dup3\n        /* \"#utility.yul\":1392:1426   */\n      gt\n        /* \"#utility.yul\":1389:1451   */\n      or\n        /* \"#utility.yul\":1386:1474   */\n      iszero\n      tag_128\n      jumpi\n        /* \"#utility.yul\":1454:1472   */\n      tag_129\n      tag_84\n      jump\t// in\n    tag_129:\n        /* \"#utility.yul\":1386:1474   */\n    tag_128:\n        /* \"#utility.yul\":1494:1504   */\n      dup1\n        /* \"#utility.yul\":1490:1492   */\n      0x40\n        /* \"#utility.yul\":1483:1505   */\n      mstore\n        /* \"#utility.yul\":1273:1511   */\n      pop\n        /* \"#utility.yul\":1230:1511   */\n      pop\n      pop\n      jump\t// out\n        /* \"#utility.yul\":1517:1646   */\n    tag_86:\n        /* \"#utility.yul\":1551:1557   */\n      0x00\n        /* \"#utility.yul\":1578:1598   */\n      tag_131\n      tag_75\n      jump\t// in\n    tag_131:\n        /* \"#utility.yul\":1568:1598   */\n      swap1\n      pop\n        /* \"#utility.yul\":1607:1640   */\n      tag_132\n        /* \"#utility.yul\":1635:1639   */\n      dup3\n        /* \"#utility.yul\":1627:1633   */\n      dup3\n        /* \"#utility.yul\":1607:1640   */\n      tag_85\n      jump\t// in\n    tag_132:\n        /* \"#utility.yul\":1517:1646   */\n      swap2\n      swap1\n      pop\n      jump\t// out\n        /* \"#utility.yul\":1652:1960   */\n    tag_87:\n        /* \"#utility.yul\":1714:1718   */\n      0x00\n        /* \"#utility.yul\":1804:1822   */\n      0xffffffffffffffff\n        /* \"#utility.yul\":1796:1802   */\n      dup3\n        /* \"#utility.yul\":1793:1823   */\n      gt\n        /* \"#utility.yul\":1790:1846   */\n      iszero\n      tag_134\n      jumpi\n        /* \"#utility.yul\":1826:1844   */\n      tag_135\n      tag_84\n      jump\t// in\n    tag_135:\n        /* \"#utility.yul\":1790:1846   */\n    tag_134:\n        /* \"#utility.yul\":1864:1893   */\n      tag_136\n        /* \"#utility.yul\":1886:1892   */\n      dup3\n        /* \"#utility.yul\":1864:1893   */\n      tag_83\n      jump\t// in\n    tag_136:\n        /* \"#utility.yul\":1856:1893   */\n      swap1\n      pop\n        /* \"#utility.yul\":1948:1952   */\n      0x20\n        /* \"#utility.yul\":1942:1946   */\n      dup2\n        /* \"#utility.yul\":1938:1953   */\n      add\n        /* \"#utility.yul\":1930:1953   */\n      swap1\n      pop\n        /* \"#utility.yul\":1652:1960   */\n      swap2\n      swap1\n      pop\n      jump\t// out\n        /* \"#utility.yul\":1966:2114   */\n    tag_88:\n        /* \"#utility.yul\":2064:2070   */\n      dup3\n        /* \"#utility.yul\":2059:2062   */\n      dup2\n        /* \"#utility.yul\":2054:2057   */\n      dup4\n        /* \"#utility.yul\":2041:2071   */\n      calldatacopy\n        /* \"#utility.yul\":2105:2106   */\n      0x00\n        /* \"#utility.yul\":2096:2102   */\n      dup4\n        /* \"#utility.yul\":2091:2094   */\n      dup4\n        /* \"#utility.yul\":2087:2103   */\n      add\n        /* \"#utility.yul\":2080:2107   */\n      mstore\n        /* \"#utility.yul\":1966:2114   */\n      pop\n      pop\n      pop\n      jump\t// out\n        /* \"#utility.yul\":2120:2545   */\n    tag_89:\n        /* \"#utility.yul\":2198:2203   */\n      0x00\n        /* \"#utility.yul\":2223:2289   */\n      tag_139\n        /* \"#utility.yul\":2239:2288   */\n      tag_140\n        /* \"#utility.yul\":2281:2287   */\n      dup5\n        /* \"#utility.yul\":2239:2288   */\n      tag_87\n      jump\t// in\n    tag_140:\n        /* \"#utility.yul\":2223:2289   */\n      tag_86\n      jump\t// in\n    tag_139:\n        /* \"#utility.yul\":2214:2289   */\n      swap1\n      pop\n        /* \"#utility.yul\":2312:2318   */\n      dup3\n        /* \"#utility.yul\":2305:2310   */\n      dup2\n        /* \"#utility.yul\":2298:2319   */\n      mstore\n        /* \"#utility.yul\":2350:2354   */\n      0x20\n        /* \"#utility.yul\":2343:2348   */\n      dup2\n        /* \"#utility.yul\":2339:2355   */\n      add\n        /* \"#utility.yul\":2388:2391   */\n      dup5\n        /* \"#utility.yul\":2379:2385   */\n      dup5\n        /* \"#utility.yul\":2374:2377   */\n      dup5\n        /* \"#utility.yul\":2370:2386   */\n      add\n        /* \"#utility.yul\":2367:2392   */\n      gt\n        /* \"#utility.yul\":2364:2476   */\n      iszero\n      tag_141\n      jumpi\n        /* \"#utility.yul\":2395:2474   */\n      tag_142\n      tag_82\n      jump\t// in\n    tag_142:\n        /* \"#utility.yul\":2364:2476   */\n    tag_141:\n        /* \"#utility.yul\":2485:2539   */\n      tag_143\n        /* \"#utility.yul\":2532:2538   */\n      dup5\n        /* \"#utility.yul\":2527:2530   */\n      dup3\n        /* \"#utility.yul\":2522:2525   */\n      dup6\n        /* \"#utility.yul\":2485:2539   */\n      tag_88\n      jump\t// in\n    tag_143:\n        /* \"#utility.yul\":2204:2545   */\n      pop\n        /* \"#utility.yul\":2120:2545   */\n      swap4\n      swap3\n      pop\n      pop\n      pop\n      jump\t// out\n        /* \"#utility.yul\":2565:2905   */\n    tag_90:\n        /* \"#utility.yul\":2621:2626   */\n      0x00\n        /* \"#utility.yul\":2670:2673   */\n      dup3\n        /* \"#utility.yul\":2663:2667   */\n      0x1f\n        /* \"#utility.yul\":2655:2661   */\n      dup4\n        /* \"#utility.yul\":2651:2668   */\n      add\n        /* \"#utility.yul\":2647:2674   */\n      slt\n        /* \"#utility.yul\":2637:2759   */\n      tag_145\n      jumpi\n        /* \"#utility.yul\":2678:2757   */\n      tag_146\n      tag_81\n      jump\t// in\n    tag_146:\n        /* \"#utility.yul\":2637:2759   */\n    tag_145:\n        /* \"#utility.yul\":2795:2801   */\n      dup2\n        /* \"#utility.yul\":2782:2802   */\n      calldataload\n        /* \"#utility.yul\":2820:2899   */\n      tag_147\n        /* \"#utility.yul\":2895:2898   */\n      dup5\n        /* \"#utility.yul\":2887:2893   */\n      dup3\n        /* \"#utility.yul\":2880:2884   */\n      0x20\n        /* \"#utility.yul\":2872:2878   */\n      dup7\n        /* \"#utility.yul\":2868:2885   */\n      add\n        /* \"#utility.yul\":2820:2899   */\n      tag_89\n      jump\t// in\n    tag_147:\n        /* \"#utility.yul\":2811:2899   */\n      swap2\n      pop\n        /* \"#utility.yul\":2627:2905   */\n      pop\n        /* \"#utility.yul\":2565:2905   */\n      swap3\n      swap2\n      pop\n      pop\n      jump\t// out\n        /* \"#utility.yul\":2911:3565   */\n    tag_14:\n        /* \"#utility.yul\":2989:2995   */\n      0x00\n        /* \"#utility.yul\":2997:3003   */\n      dup1\n        /* \"#utility.yul\":3046:3048   */\n      0x40\n        /* \"#utility.yul\":3034:3043   */\n      dup4\n        /* \"#utility.yul\":3025:3032   */\n      dup6\n        /* \"#utility.yul\":3021:3044   */\n      sub\n        /* \"#utility.yul\":3017:3049   */\n      slt\n        /* \"#utility.yul\":3014:3133   */\n      iszero\n      tag_149\n      jumpi\n        /* \"#utility.yul\":3052:3131   */\n      tag_150\n      tag_76\n      jump\t// in\n    tag_150:\n        /* \"#utility.yul\":3014:3133   */\n    tag_149:\n        /* \"#utility.yul\":3172:3173   */\n      0x00\n        /* \"#utility.yul\":3197:3250   */\n      tag_151\n        /* \"#utility.yul\":3242:3249   */\n      dup6\n        /* \"#utility.yul\":3233:3239   */\n      dup3\n        /* \"#utility.yul\":3222:3231   */\n      dup7\n        /* \"#utility.yul\":3218:3240   */\n      add\n        /* \"#utility.yul\":3197:3250   */\n      tag_80\n      jump\t// in\n    tag_151:\n        /* \"#utility.yul\":3187:3250   */\n      swap3\n      pop\n        /* \"#utility.yul\":3143:3260   */\n      pop\n        /* \"#utility.yul\":3327:3329   */\n      0x20\n        /* \"#utility.yul\":3316:3325   */\n      dup4\n        /* \"#utility.yul\":3312:3330   */\n      add\n        /* \"#utility.yul\":3299:3331   */\n      calldataload\n        /* \"#utility.yul\":3358:3376   */\n      0xffffffffffffffff\n        /* \"#utility.yul\":3350:3356   */\n      dup2\n        /* \"#utility.yul\":3347:3377   */\n      gt\n        /* \"#utility.yul\":3344:3461   */\n      iszero\n      tag_152\n      jumpi\n        /* \"#utility.yul\":3380:3459   */\n      tag_153\n      tag_77\n      jump\t// in\n    tag_153:\n        /* \"#utility.yul\":3344:3461   */\n    tag_152:\n        /* \"#utility.yul\":3485:3548   */\n      tag_154\n        /* \"#utility.yul\":3540:3547   */\n      dup6\n        /* \"#utility.yul\":3531:3537   */\n      dup3\n        /* \"#utility.yul\":3520:3529   */\n      dup7\n        /* \"#utility.yul\":3516:3538   */\n      add\n        /* \"#utility.yul\":3485:3548   */\n      tag_90\n      jump\t// in\n    tag_154:\n        /* \"#utility.yul\":3475:3548   */\n      swap2\n      pop\n        /* \"#utility.yul\":3270:3558   */\n      pop\n        /* \"#utility.yul\":2911:3565   */\n      swap3\n      pop\n      swap3\n      swap1\n      pop\n      jump\t// out\n        /* \"#utility.yul\":3571:3900   */\n    tag_18:\n        /* \"#utility.yul\":3630:3636   */\n      0x00\n        /* \"#utility.yul\":3679:3681   */\n      0x20\n        /* \"#utility.yul\":3667:3676   */\n      dup3\n        /* \"#utility.yul\":3658:3665   */\n      dup5\n        /* \"#utility.yul\":3654:3677   */\n      sub\n        /* \"#utility.yul\":3650:3682   */\n      slt\n        /* \"#utility.yul\":3647:3766   */\n      iszero\n      tag_156\n      jumpi\n        /* \"#utility.yul\":3685:3764   */\n      tag_157\n      tag_76\n      jump\t// in\n    tag_157:\n        /* \"#utility.yul\":3647:3766   */\n    tag_156:\n        /* \"#utility.yul\":3805:3806   */\n      0x00\n        /* \"#utility.yul\":3830:3883   */\n      tag_158\n        /* \"#utility.yul\":3875:3882   */\n      dup5\n        /* \"#utility.yul\":3866:3872   */\n      dup3\n        /* \"#utility.yul\":3855:3864   */\n      dup6\n        /* \"#utility.yul\":3851:3873   */\n      add\n        /* \"#utility.yul\":3830:3883   */\n      tag_80\n      jump\t// in\n    tag_158:\n        /* \"#utility.yul\":3820:3883   */\n      swap2\n      pop\n        /* \"#utility.yul\":3776:3893   */\n      pop\n        /* \"#utility.yul\":3571:3900   */\n      swap3\n      swap2\n      pop\n      pop\n      jump\t// out\n        /* \"#utility.yul\":3906:4024   */\n    tag_91:\n        /* \"#utility.yul\":3993:4017   */\n      tag_160\n        /* \"#utility.yul\":4011:4016   */\n      dup2\n        /* \"#utility.yul\":3993:4017   */\n      tag_78\n      jump\t// in\n    tag_160:\n        /* \"#utility.yul\":3988:3991   */\n      dup3\n        /* \"#utility.yul\":3981:4018   */\n      mstore\n        /* \"#utility.yul\":3906:4024   */\n      pop\n      pop\n      jump\t// out\n        /* \"#utility.yul\":4030:4252   */\n    tag_21:\n        /* \"#utility.yul\":4123:4127   */\n      0x00\n        /* \"#utility.yul\":4161:4163   */\n      0x20\n        /* \"#utility.yul\":4150:4159   */\n      dup3\n        /* \"#utility.yul\":4146:4164   */\n      add\n        /* \"#utility.yul\":4138:4164   */\n      swap1\n      pop\n        /* \"#utility.yul\":4174:4245   */\n      tag_162\n        /* \"#utility.yul\":4242:4243   */\n      0x00\n        /* \"#utility.yul\":4231:4240   */\n      dup4\n        /* \"#utility.yul\":4227:4244   */\n      add\n        /* \"#utility.yul\":4218:4224   */\n      dup5\n        /* \"#utility.yul\":4174:4245   */\n      tag_91\n      jump\t// in\n    tag_162:\n        /* \"#utility.yul\":4030:4252   */\n      swap3\n      swap2\n      pop\n      pop\n      jump\t// out\n        /* \"#utility.yul\":4258:4357   */\n    tag_92:\n        /* \"#utility.yul\":4310:4316   */\n      0x00\n        /* \"#utility.yul\":4344:4349   */\n      dup2\n        /* \"#utility.yul\":4338:4350   */\n      mload\n        /* \"#utility.yul\":4328:4350   */\n      swap1\n      pop\n        /* \"#utility.yul\":4258:4357   */\n      swap2\n      swap1\n      pop\n      jump\t// out\n        /* \"#utility.yul\":4363:4532   */\n    tag_93:\n        /* \"#utility.yul\":4447:4458   */\n      0x00\n        /* \"#utility.yul\":4481:4487   */\n      dup3\n        /* \"#utility.yul\":4476:4479   */\n      dup3\n        /* \"#utility.yul\":4469:4488   */\n      mstore\n        /* \"#utility.yul\":4521:4525   */\n      0x20\n        /* \"#utility.yul\":4516:4519   */\n      dup3\n        /* \"#utility.yul\":4512:4526   */\n      add\n        /* \"#utility.yul\":4497:4526   */\n      swap1\n      pop\n        /* \"#utility.yul\":4363:4532   */\n      swap3\n      swap2\n      pop\n      pop\n      jump\t// out\n        /* \"#utility.yul\":4538:4677   */\n    tag_94:\n        /* \"#utility.yul\":4627:4633   */\n      dup3\n        /* \"#utility.yul\":4622:4625   */\n      dup2\n        /* \"#utility.yul\":4617:4620   */\n      dup4\n        /* \"#utility.yul\":4611:4634   */\n      mcopy\n        /* \"#utility.yul\":4668:4669   */\n      0x00\n        /* \"#utility.yul\":4659:4665   */\n      dup4\n        /* \"#utility.yul\":4654:4657   */\n      dup4\n        /* \"#utility.yul\":4650:4666   */\n      add\n        /* \"#utility.yul\":4643:4670   */\n      mstore\n        /* \"#utility.yul\":4538:4677   */\n      pop\n      pop\n      pop\n      jump\t// out\n        /* \"#utility.yul\":4683:5060   */\n    tag_95:\n        /* \"#utility.yul\":4771:4774   */\n      0x00\n        /* \"#utility.yul\":4799:4838   */\n      tag_167\n        /* \"#utility.yul\":4832:4837   */\n      dup3\n        /* \"#utility.yul\":4799:4838   */\n      tag_92\n      jump\t// in\n    tag_167:\n        /* \"#utility.yul\":4854:4925   */\n      tag_168\n        /* \"#utility.yul\":4918:4924   */\n      dup2\n        /* \"#utility.yul\":4913:4916   */\n      dup6\n        /* \"#utility.yul\":4854:4925   */\n      tag_93\n      jump\t// in\n    tag_168:\n        /* \"#utility.yul\":4847:4925   */\n      swap4\n      pop\n        /* \"#utility.yul\":4934:4999   */\n      tag_169\n        /* \"#utility.yul\":4992:4998   */\n      dup2\n        /* \"#utility.yul\":4987:4990   */\n      dup6\n        /* \"#utility.yul\":4980:4984   */\n      0x20\n        /* \"#utility.yul\":4973:4978   */\n      dup7\n        /* \"#utility.yul\":4969:4985   */\n      add\n        /* \"#utility.yul\":4934:4999   */\n      tag_94\n      jump\t// in\n    tag_169:\n        /* \"#utility.yul\":5024:5053   */\n      tag_170\n        /* \"#utility.yul\":5046:5052   */\n      dup2\n        /* \"#utility.yul\":5024:5053   */\n      tag_83\n      jump\t// in\n    tag_170:\n        /* \"#utility.yul\":5019:5022   */\n      dup5\n        /* \"#utility.yul\":5015:5054   */\n      add\n        /* \"#utility.yul\":5008:5054   */\n      swap2\n      pop\n        /* \"#utility.yul\":4775:5060   */\n      pop\n        /* \"#utility.yul\":4683:5060   */\n      swap3\n      swap2\n      pop\n      pop\n      jump\t// out\n        /* \"#utility.yul\":5066:5379   */\n    tag_26:\n        /* \"#utility.yul\":5179:5183   */\n      0x00\n        /* \"#utility.yul\":5217:5219   */\n      0x20\n        /* \"#utility.yul\":5206:5215   */\n      dup3\n        /* \"#utility.yul\":5202:5220   */\n      add\n        /* \"#utility.yul\":5194:5220   */\n      swap1\n      pop\n        /* \"#utility.yul\":5266:5275   */\n      dup2\n        /* \"#utility.yul\":5260:5264   */\n      dup2\n        /* \"#utility.yul\":5256:5276   */\n      sub\n        /* \"#utility.yul\":5252:5253   */\n      0x00\n        /* \"#utility.yul\":5241:5250   */\n      dup4\n        /* \"#utility.yul\":5237:5254   */\n      add\n        /* \"#utility.yul\":5230:5277   */\n      mstore\n        /* \"#utility.yul\":5294:5372   */\n      tag_172\n        /* \"#utility.yul\":5367:5371   */\n      dup2\n        /* \"#utility.yul\":5358:5364   */\n      dup5\n        /* \"#utility.yul\":5294:5372   */\n      tag_95\n      jump\t// in\n    tag_172:\n        /* \"#utility.yul\":5286:5372   */\n      swap1\n      pop\n        /* \"#utility.yul\":5066:5379   */\n      swap3\n      swap2\n      pop\n      pop\n      jump\t// out\n        /* \"#utility.yul\":5385:5859   */\n    tag_35:\n        /* \"#utility.yul\":5453:5459   */\n      0x00\n        /* \"#utility.yul\":5461:5467   */\n      dup1\n        /* \"#utility.yul\":5510:5512   */\n      0x40\n        /* \"#utility.yul\":5498:5507   */\n      dup4\n        /* \"#utility.yul\":5489:5496   */\n      dup6\n        /* \"#utility.yul\":5485:5508   */\n      sub\n        /* \"#utility.yul\":5481:5513   */\n      slt\n        /* \"#utility.yul\":5478:5597   */\n      iszero\n      tag_174\n      jumpi\n        /* \"#utility.yul\":5516:5595   */\n      tag_175\n      tag_76\n      jump\t// in\n    tag_175:\n        /* \"#utility.yul\":5478:5597   */\n    tag_174:\n        /* \"#utility.yul\":5636:5637   */\n      0x00\n        /* \"#utility.yul\":5661:5714   */\n      tag_176\n        /* \"#utility.yul\":5706:5713   */\n      dup6\n        /* \"#utility.yul\":5697:5703   */\n      dup3\n        /* \"#utility.yul\":5686:5695   */\n      dup7\n        /* \"#utility.yul\":5682:5704   */\n      add\n        /* \"#utility.yul\":5661:5714   */\n      tag_80\n      jump\t// in\n    tag_176:\n        /* \"#utility.yul\":5651:5714   */\n      swap3\n      pop\n        /* \"#utility.yul\":5607:5724   */\n      pop\n        /* \"#utility.yul\":5763:5765   */\n      0x20\n        /* \"#utility.yul\":5789:5842   */\n      tag_177\n        /* \"#utility.yul\":5834:5841   */\n      dup6\n        /* \"#utility.yul\":5825:5831   */\n      dup3\n        /* \"#utility.yul\":5814:5823   */\n      dup7\n        /* \"#utility.yul\":5810:5832   */\n      add\n        /* \"#utility.yul\":5789:5842   */\n      tag_80\n      jump\t// in\n    tag_177:\n        /* \"#utility.yul\":5779:5842   */\n      swap2\n      pop\n        /* \"#utility.yul\":5734:5852   */\n      pop\n        /* \"#utility.yul\":5385:5859   */\n      swap3\n      pop\n      swap3\n      swap1\n      pop\n      jump\t// out\n        /* \"#utility.yul\":5865:6045   */\n    tag_45:\n        /* \"#utility.yul\":5913:5990   */\n      0x4e487b7100000000000000000000000000000000000000000000000000000000\n        /* \"#utility.yul\":5910:5911   */\n      0x00\n        /* \"#utility.yul\":5903:5991   */\n      mstore\n        /* \"#utility.yul\":6010:6014   */\n      0x32\n        /* \"#utility.yul\":6007:6008   */\n      0x04\n        /* \"#utility.yul\":6000:6015   */\n      mstore\n        /* \"#utility.yul\":6034:6038   */\n      0x24\n        /* \"#utility.yul\":6031:6032   */\n      0x00\n        /* \"#utility.yul\":6024:6039   */\n      revert\n        /* \"#utility.yul\":6051:6231   */\n    tag_96:\n        /* \"#utility.yul\":6099:6176   */\n      0x4e487b7100000000000000000000000000000000000000000000000000000000\n        /* \"#utility.yul\":6096:6097   */\n      0x00\n        /* \"#utility.yul\":6089:6177   */\n      mstore\n        /* \"#utility.yul\":6196:6200   */\n      0x22\n        /* \"#utility.yul\":6193:6194   */\n      0x04\n        /* \"#utility.yul\":6186:6201   */\n      mstore\n        /* \"#utility.yul\":6220:6224   */\n      0x24\n        /* \"#utility.yul\":6217:6218   */\n      0x00\n        /* \"#utility.yul\":6210:6225   */\n      revert\n        /* \"#utility.yul\":6237:6557   */\n    tag_54:\n        /* \"#utility.yul\":6281:6287   */\n      0x00\n        /* \"#utility.yul\":6318:6319   */\n      0x02\n        /* \"#utility.yul\":6312:6316   */\n      dup3\n        /* \"#utility.yul\":6308:6320   */\n      div\n        /* \"#utility.yul\":6298:6320   */\n      swap1\n      pop\n        /* \"#utility.yul\":6365:6366   */\n      0x01\n        /* \"#utility.yul\":6359:6363   */\n      dup3\n        /* \"#utility.yul\":6355:6367   */\n      and\n        /* \"#utility.yul\":6386:6404   */\n      dup1\n        /* \"#utility.yul\":6376:6457   */\n      tag_181\n      jumpi\n        /* \"#utility.yul\":6442:6446   */\n      0x7f\n        /* \"#utility.yul\":6434:6440   */\n      dup3\n        /* \"#utility.yul\":6430:6447   */\n      and\n        /* \"#utility.yul\":6420:6447   */\n      swap2\n      pop\n        /* \"#utility.yul\":6376:6457   */\n    tag_181:\n        /* \"#utility.yul\":6504:6506   */\n      0x20\n        /* \"#utility.yul\":6496:6502   */\n      dup3\n        /* \"#utility.yul\":6493:6507   */\n      lt\n        /* \"#utility.yul\":6473:6491   */\n      dup2\n        /* \"#utility.yul\":6470:6508   */\n      sub\n        /* \"#utility.yul\":6467:6551   */\n      tag_182\n      jumpi\n        /* \"#utility.yul\":6523:6541   */\n      tag_183\n      tag_96\n      jump\t// in\n    tag_183:\n        /* \"#utility.yul\":6467:6551   */\n    tag_182:\n        /* \"#utility.yul\":6288:6557   */\n      pop\n        /* \"#utility.yul\":6237:6557   */\n      swap2\n      swap1\n      pop\n      jump\t// out\n        /* \"#utility.yul\":6563:6704   */\n    tag_97:\n        /* \"#utility.yul\":6612:6616   */\n      0x00\n        /* \"#utility.yul\":6635:6638   */\n      dup2\n        /* \"#utility.yul\":6627:6638   */\n      swap1\n      pop\n        /* \"#utility.yul\":6658:6661   */\n      dup2\n        /* \"#utility.yul\":6655:6656   */\n      0x00\n        /* \"#utility.yul\":6648:6662   */\n      mstore\n        /* \"#utility.yul\":6692:6696   */\n      0x20\n        /* \"#utility.yul\":6689:6690   */\n      0x00\n        /* \"#utility.yul\":6679:6697   */\n      keccak256\n        /* \"#utility.yul\":6671:6697   */\n      swap1\n      pop\n        /* \"#utility.yul\":6563:6704   */\n      swap2\n      swap1\n      pop\n      jump\t// out\n        /* \"#utility.yul\":6710:6803   */\n    tag_98:\n        /* \"#utility.yul\":6747:6753   */\n      0x00\n        /* \"#utility.yul\":6794:6796   */\n      0x20\n        /* \"#utility.yul\":6789:6791   */\n      0x1f\n        /* \"#utility.yul\":6782:6787   */\n      dup4\n        /* \"#utility.yul\":6778:6792   */\n      add\n        /* \"#utility.yul\":6774:6797   */\n      div\n        /* \"#utility.yul\":6764:6797   */\n      swap1\n      pop\n        /* \"#utility.yul\":6710:6803   */\n      swap2\n      swap1\n      pop\n      jump\t// out\n        /* \"#utility.yul\":6809:6916   */\n    tag_99:\n        /* \"#utility.yul\":6853:6861   */\n      0x00\n        /* \"#utility.yul\":6903:6908   */\n      dup3\n        /* \"#utility.yul\":6897:6901   */\n      dup3\n        /* \"#utility.yul\":6893:6909   */\n      shl\n        /* \"#utility.yul\":6872:6909   */\n      swap1\n      pop\n        /* \"#utility.yul\":6809:6916   */\n      swap3\n      swap2\n      pop\n      pop\n      jump\t// out\n        /* \"#utility.yul\":6922:7315   */\n    tag_100:\n        /* \"#utility.yul\":6991:6997   */\n      0x00\n        /* \"#utility.yul\":7041:7042   */\n      0x08\n        /* \"#utility.yul\":7029:7039   */\n      dup4\n        /* \"#utility.yul\":7025:7043   */\n      mul\n        /* \"#utility.yul\":7064:7161   */\n      tag_188\n        /* \"#utility.yul\":7094:7160   */\n      0xffffffffffffffffffffffffffffffffffffffffffffffffffffffffffffffff\n        /* \"#utility.yul\":7083:7092   */\n      dup3\n        /* \"#utility.yul\":7064:7161   */\n      tag_99\n      jump\t// in\n    tag_188:\n        /* \"#utility.yul\":7182:7221   */\n      tag_189\n        /* \"#utility.yul\":7212:7220   */\n      dup7\n        /* \"#utility.yul\":7201:7210   */\n      dup4\n        /* \"#utility.yul\":7182:7221   */\n      tag_99\n      jump\t// in\n    tag_189:\n        /* \"#utility.yul\":7170:7221   */\n      swap6\n      pop\n        /* \"#utility.yul\":7254:7258   */\n      dup1\n        /* \"#utility.yul\":7250:7259   */\n      not\n        /* \"#utility.yul\":7243:7248   */\n      dup5\n        /* \"#utility.yul\":7239:7260   */\n      and\n        /* \"#utility.yul\":7230:7260   */\n      swap4\n      pop\n        /* \"#utility.yul\":7303:7307   */\n      dup1\n        /* \"#utility.yul\":7293:7301   */\n      dup7\n        /* \"#utility.yul\":7289:7308   */\n      and\n        /* \"#utility.yul\":7282:7287   */\n      dup5\n        /* \"#utility.yul\":7279:7309   */\n      or\n        /* \"#utility.yul\":7269:7309   */\n      swap3\n      pop\n        /* \"#utility.yul\":6998:7315   */\n      pop\n      pop\n        /* \"#utility.yul\":6922:7315   */\n      swap4\n      swap3\n      pop\n      pop\n      pop\n      jump\t// out\n        /* \"#utility.yul\":7321:7381   */\n    tag_101:\n        /* \"#utility.yul\":7349:7352   */\n      0x00\n        /* \"#utility.yul\":7370:7375   */\n      dup2\n        /* \"#utility.yul\":7363:7375   */\n      swap1\n      pop\n        /* \"#utility.yul\":7321:7381   */\n      swap2\n      swap1\n      pop\n      jump\t// out\n        /* \"#utility.yul\":7387:7529   */\n    tag_102:\n        /* \"#utility.yul\":7437:7446   */\n      0x00\n        /* \"#utility.yul\":7470:7523   */\n      tag_192\n        /* \"#utility.yul\":7488:7522   */\n      tag_193\n        /* \"#utility.yul\":7497:7521   */\n      tag_194\n        /* \"#utility.yul\":7515:7520   */\n      dup5\n        /* \"#utility.yul\":7497:7521   */\n      tag_78\n      jump\t// in\n    tag_194:\n        /* \"#utility.yul\":7488:7522   */\n      tag_101\n      jump\t// in\n    tag_193:\n        /* \"#utility.yul\":7470:7523   */\n      tag_78\n      jump\t// in\n    tag_192:\n        /* \"#utility.yul\":7457:7523   */\n      swap1\n      pop\n        /* \"#utility.yul\":7387:7529   */\n      swap2\n      swap1\n      pop\n      jump\t// out\n        /* \"#utility.yul\":7535:7610   */\n    tag_103:\n        /* \"#utility.yul\":7578:7581   */\n      0x00\n        /* \"#utility.yul\":7599:7604   */\n      dup2\n        /* \"#utility.yul\":7592:7604   */\n      swap1\n      pop\n        /* \"#utility.yul\":7535:7610   */\n      swap2\n      swap1\n      pop\n      jump\t// out\n        /* \"#utility.yul\":7616:7885   */\n    tag_104:\n        /* \"#utility.yul\":7726:7765   */\n      tag_197\n        /* \"#utility.yul\":7757:7764   */\n      dup4\n        /* \"#utility.yul\":7726:7765   */\n      tag_102\n      jump\t// in\n    tag_197:\n        /* \"#utility.yul\":7787:7878   */\n      tag_198\n        /* \"#utility.yul\":7836:7877   */\n      tag_199\n        /* \"#utility.yul\":7860:7876   */\n      dup3\n        /* \"#utility.yul\":7836:7877   */\n      tag_103\n      jump\t// in\n    tag_199:\n        /* \"#utility.yul\":7828:7834   */\n      dup5\n        /* \"#utility.yul\":7821:7825   */\n      dup5\n        /* \"#utility.yul\":7815:7826   */\n      sload\n        /* \"#utility.yul\":7787:7878   */\n      tag_100\n      jump\t// in\n    tag_198:\n        /* \"#utility.yul\":7781:7785   */\n      dup3\n        /* \"#utility.yul\":7774:7879   */\n      sstore\n        /* \"#utility.yul\":7692:7885   */\n      pop\n        /* \"#utility.yul\":7616:7885   */\n      pop\n      pop\n      pop\n      jump\t// out\n        /* \"#utility.yul\":7891:7964   */\n    tag_105:\n        /* \"#utility.yul\":7936:7939   */\n      0x00\n        /* \"#utility.yul\":7891:7964   */\n      swap1\n      jump\t// out\n        /* \"#utility.yul\":7970:8159   */\n    tag_106:\n        /* \"#utility.yul\":8047:8079   */\n      tag_202\n      tag_105\n      jump\t// in\n    tag_202:\n        /* \"#utility.yul\":8088:8153   */\n      tag_203\n        /* \"#utility.yul\":8146:8152   */\n      dup2\n        /* \"#utility.yul\":8138:8144   */\n      dup5\n        /* \"#utility.yul\":8132:8136   */\n      dup5\n        /* \"#utility.yul\":8088:8153   */\n      tag_104\n      jump\t// in\n    tag_203:\n        /* \"#utility.yul\":8023:8159   */\n      pop\n        /* \"#utility.yul\":7970:8159   */\n      pop\n      pop\n      jump\t// out\n        /* \"#utility.yul\":8165:8351   */\n    tag_107:\n        /* \"#utility.yul\":8225:8345   */\n    tag_205:\n        /* \"#utility.yul\":8242:8245   */\n      dup2\n        /* \"#utility.yul\":8235:8240   */\n      dup2\n        /* \"#utility.yul\":8232:8246   */\n      lt\n        /* \"#utility.yul\":8225:8345   */\n      iszero\n      tag_207\n      jumpi\n        /* \"#utility.yul\":8296:8335   */\n      tag_208\n        /* \"#utility.yul\":8333:8334   */\n      0x00\n        /* \"#utility.yul\":8326:8331   */\n      dup3\n        /* \"#utility.yul\":8296:8335   */\n      tag_106\n      jump\t// in\n    tag_208:\n        /* \"#utility.yul\":8269:8270   */\n      0x01\n        /* \"#utility.yul\":8262:8267   */\n      dup2\n        /* \"#utility.yul\":8258:8271   */\n      add\n        /* \"#utility.yul\":8249:8271   */\n      swap1\n      pop\n        /* \"#utility.yul\":8225:8345   */\n      jump(tag_205)\n    tag_207:\n        /* \"#utility.yul\":8165:8351   */\n      pop\n      pop\n      jump\t// out\n        /* \"#utility.yul\":8357:8900   */\n    tag_108:\n        /* \"#utility.yul\":8458:8460   */\n      0x1f\n        /* \"#utility.yul\":8453:8456   */\n      dup3\n        /* \"#utility.yul\":8450:8461   */\n      gt\n        /* \"#utility.yul\":8447:8893   */\n      iszero\n      tag_210\n      jumpi\n        /* \"#utility.yul\":8492:8530   */\n      tag_211\n        /* \"#utility.yul\":8524:8529   */\n      dup2\n        /* \"#utility.yul\":8492:8530   */\n      tag_97\n      jump\t// in\n    tag_211:\n        /* \"#utility.yul\":8576:8605   */\n      tag_212\n        /* \"#utility.yul\":8594:8604   */\n      dup5\n        /* \"#utility.yul\":8576:8605   */\n      tag_98\n      jump\t// in\n    tag_212:\n        /* \"#utility.yul\":8566:8574   */\n      dup2\n        /* \"#utility.yul\":8562:8606   */\n      add\n        /* \"#utility.yul\":8759:8761   */\n      0x20\n        /* \"#utility.yul\":8747:8757   */\n      dup6\n        /* \"#utility.yul\":8744:8762   */\n      lt\n        /* \"#utility.yul\":8741:8790   */\n      iszero\n      tag_213\n      jumpi\n        /* \"#utility.yul\":8780:8788   */\n      dup2\n        /* \"#utility.yul\":8765:8788   */\n      swap1\n      pop\n        /* \"#utility.yul\":8741:8790   */\n    tag_213:\n        /* \"#utility.yul\":8803:8883   */\n      tag_214\n        /* \"#utility.yul\":8859:8881   */\n      tag_215\n        /* \"#utility.yul\":8877:8880   */\n      dup6\n        /* \"#utility.yul\":8859:8881   */\n      tag_98\n      jump\t// in\n    tag_215:\n        /* \"#utility.yul\":8849:8857   */\n      dup4\n        /* \"#utility.yul\":8845:8882   */\n      add\n        /* \"#utility.yul\":8832:8843   */\n      dup3\n        /* \"#utility.yul\":8803:8883   */\n      tag_107\n      jump\t// in\n    tag_214:\n        /* \"#utility.yul\":8462:8893   */\n      pop\n      pop\n        /* \"#utility.yul\":8447:8893   */\n    tag_210:\n        /* \"#utility.yul\":8357:8900   */\n      pop\n      pop\n      pop\n      jump\t// out\n        /* \"#utility.yul\":8906:9023   */\n    tag_109:\n        /* \"#utility.yul\":8960:8968   */\n      0x00\n        /* \"#utility.yul\":9010:9015   */\n      dup3\n        /* \"#utility.yul\":9004:9008   */\n      dup3\n        /* \"#utility.yul\":9000:9016   */\n      shr\n        /* \"#utility.yul\":8979:9016   */\n      swap1\n      pop\n        /* \"#utility.yul\":8906:9023   */\n      swap3\n      swap2\n      pop\n      pop\n      jump\t// out\n        /* \"#utility.yul\":9029:9198   */\n    tag_110:\n        /* \"#utility.yul\":9073:9079   */\n      0x00\n        /* \"#utility.yul\":9106:9157   */\n      tag_218\n        /* \"#utility.yul\":9154:9155   */\n      0x00\n        /* \"#utility.yul\":9150:9156   */\n      not\n        /* \"#utility.yul\":9142:9147   */\n      dup5\n        /* \"#utility.yul\":9139:9140   */\n      0x08\n        /* \"#utility.yul\":9135:9148   */\n      mul\n        /* \"#utility.yul\":9106:9157   */\n      tag_109\n      jump\t// in\n    tag_218:\n        /* \"#utility.yul\":9102:9158   */\n      not\n        /* \"#utility.yul\":9187:9191   */\n      dup1\n        /* \"#utility.yul\":9181:9185   */\n      dup4\n        /* \"#utility.yul\":9177:9192   */\n      and\n        /* \"#utility.yul\":9167:9192   */\n      swap2\n      pop\n        /* \"#utility.yul\":9080:9198   */\n      pop\n        /* \"#utility.yul\":9029:9198   */\n      swap3\n      swap2\n      pop\n      pop\n      jump\t// out\n        /* \"#utility.yul\":9203:9498   */\n    tag_111:\n        /* \"#utility.yul\":9279:9283   */\n      0x00\n        /* \"#utility.yul\":9425:9454   */\n      tag_220\n        /* \"#utility.yul\":9450:9453   */\n      dup4\n        /* \"#utility.yul\":9444:9448   */\n      dup4\n        /* \"#utility.yul\":9425:9454   */\n      tag_110\n      jump\t// in\n    tag_220:\n        /* \"#utility.yul\":9417:9454   */\n      swap2\n      pop\n        /* \"#utility.yul\":9487:9490   */\n      dup3\n        /* \"#utility.yul\":9484:9485   */\n      0x02\n        /* \"#utility.yul\":9480:9491   */\n      mul\n        /* \"#utility.yul\":9474:9478   */\n      dup3\n        /* \"#utility.yul\":9471:9492   */\n      or\n        /* \"#utility.yul\":9463:9492   */\n      swap1\n      pop\n        /* \"#utility.yul\":9203:9498   */\n      swap3\n      swap2\n      pop\n      pop\n      jump\t// out\n        /* \"#utility.yul\":9503:10898   */\n    tag_48:\n        /* \"#utility.yul\":9620:9657   */\n      tag_222\n        /* \"#utility.yul\":9653:9656   */\n      dup3\n        /* \"#utility.yul\":9620:9657   */\n      tag_92\n      jump\t// in\n    tag_222:\n        /* \"#utility.yul\":9722:9740   */\n      0xffffffffffffffff\n        /* \"#utility.yul\":9714:9720   */\n      dup2\n        /* \"#utility.yul\":9711:9741   */\n      gt\n        /* \"#utility.yul\":9708:9764   */\n      iszero\n      tag_223\n      jumpi\n        /* \"#utility.yul\":9744:9762   */\n      tag_224\n      tag_84\n      jump\t// in\n    tag_224:\n        /* \"#utility.yul\":9708:9764   */\n    tag_223:\n        /* \"#utility.yul\":9788:9826   */\n      tag_225\n        /* \"#utility.yul\":9820:9824   */\n      dup3\n        /* \"#utility.yul\":9814:9825   */\n      sload\n        /* \"#utility.yul\":9788:9826   */\n      tag_54\n      jump\t// in\n    tag_225:\n        /* \"#utility.yul\":9873:9940   */\n      tag_226\n        /* \"#utility.yul\":9933:9939   */\n      dup3\n        /* \"#utility.yul\":9925:9931   */\n      dup3\n        /* \"#utility.yul\":9919:9923   */\n      dup6\n        /* \"#utility.yul\":9873:9940   */\n      tag_108\n      jump\t// in\n    tag_226:\n        /* \"#utility.yul\":9967:9968   */\n      0x00\n        /* \"#utility.yul\":9991:9995   */\n      0x20\n        /* \"#utility.yul\":9978:9995   */\n      swap1\n      pop\n        /* \"#utility.yul\":10023:10025   */\n      0x1f\n        /* \"#utility.yul\":10015:10021   */\n      dup4\n        /* \"#utility.yul\":10012:10026   */\n      gt\n        /* \"#utility.yul\":10040:10041   */\n      0x01\n        /* \"#utility.yul\":10035:10653   */\n      dup2\n      eq\n      tag_228\n      jumpi\n        /* \"#utility.yul\":10697:10698   */\n      0x00\n        /* \"#utility.yul\":10714:10720   */\n      dup5\n        /* \"#utility.yul\":10711:10788   */\n      iszero\n      tag_229\n      jumpi\n        /* \"#utility.yul\":10763:10772   */\n      dup3\n        /* \"#utility.yul\":10758:10761   */\n      dup8\n        /* \"#utility.yul\":10754:10773   */\n      add\n        /* \"#utility.yul\":10748:10774   */\n      mload\n        /* \"#utility.yul\":10739:10774   */\n      swap1\n      pop\n        /* \"#utility.yul\":10711:10788   */\n    tag_229:\n        /* \"#utility.yul\":10814:10881   */\n      tag_230\n        /* \"#utility.yul\":10874:10880   */\n      dup6\n        /* \"#utility.yul\":10867:10872   */\n      dup3\n        /* \"#utility.yul\":10814:10881   */\n      tag_111\n      jump\t// in\n    tag_230:\n        /* \"#utility.yul\":10808:10812   */\n      dup7\n        /* \"#utility.yul\":10801:10882   */\n      sstore\n        /* \"#utility.yul\":10670:10892   */\n      pop\n        /* \"#utility.yul\":10005:10892   */\n      jump(tag_227)\n        /* \"#utility.yul\":10035:10653   */\n    tag_228:\n        /* \"#utility.yul\":10087:10091   */\n      0x1f\n        /* \"#utility.yul\":10083:10092   */\n      not\n        /* \"#utility.yul\":10075:10081   */\n      dup5\n        /* \"#utility.yul\":10071:10093   */\n      and\n        /* \"#utility.yul\":10121:10158   */\n      tag_231\n        /* \"#utility.yul\":10153:10157   */\n      dup7\n        /* \"#utility.yul\":10121:10158   */\n      tag_97\n      jump\t// in\n    tag_231:\n        /* \"#utility.yul\":10180:10181   */\n      0x00\n        /* \"#utility.yul\":10194:10402   */\n    tag_232:\n        /* \"#utility.yul\":10208:10215   */\n      dup3\n        /* \"#utility.yul\":10205:10206   */\n      dup2\n        /* \"#utility.yul\":10202:10216   */\n      lt\n        /* \"#utility.yul\":10194:10402   */\n      iszero\n      tag_234\n      jumpi\n        /* \"#utility.yul\":10287:10296   */\n      dup5\n        /* \"#utility.yul\":10282:10285   */\n      dup10\n        /* \"#utility.yul\":10278:10297   */\n      add\n        /* \"#utility.yul\":10272:10298   */\n      mload\n        /* \"#utility.yul\":10264:10270   */\n      dup3\n        /* \"#utility.yul\":10257:10299   */\n      sstore\n        /* \"#utility.yul\":10338:10339   */\n      0x01\n        /* \"#utility.yul\":10330:10336   */\n      dup3\n        /* \"#utility.yul\":10326:10340   */\n      add\n        /* \"#utility.yul\":10316:10340   */\n      swap2\n      pop\n        /* \"#utility.yul\":10385:10387   */\n      0x20\n        /* \"#utility.yul\":10374:10383   */\n      dup6\n        /* \"#utility.yul\":10370:10388   */\n      add\n        /* \"#utility.yul\":10357:10388   */\n      swap5\n      pop\n        /* \"#utility.yul\":10231:10235   */\n      0x20\n        /* \"#utility.yul\":10228:10229   */\n      dup2\n        /* \"#utility.yul\":10224:10236   */\n      add\n        /* \"#utility.yul\":10219:10236   */\n      swap1\n      pop\n        /* \"#utility.yul\":10194:10402   */\n      jump(tag_232)\n    tag_234:\n        /* \"#utility.yul\":10430:10436   */\n      dup7\n        /* \"#utility.yul\":10421:10428   */\n      dup4\n        /* \"#utility.yul\":10418:10437   */\n      lt\n        /* \"#utility.yul\":10415:10594   */\n      iszero\n      tag_235\n      jumpi\n        /* \"#utility.yul\":10488:10497   */\n      dup5\n        /* \"#utility.yul\":10483:10486   */\n      dup10\n        /* \"#utility.yul\":10479:10498   */\n      add\n        /* \"#utility.yul\":10473:10499   */\n      mload\n        /* \"#utility.yul\":10531:10579   */\n      tag_236\n        /* \"#utility.yul\":10573:10577   */\n      0x1f\n        /* \"#utility.yul\":10565:10571   */\n      dup10\n        /* \"#utility.yul\":10561:10578   */\n      and\n        /* \"#utility.yul\":10550:10559   */\n      dup3\n        /* \"#utility.yul\":10531:10579   */\n      tag_110\n      jump\t// in\n    tag_236:\n        /* \"#utility.yul\":10523:10529   */\n      dup4\n        /* \"#utility.yul\":10516:10580   */\n      sstore\n        /* \"#utility.yul\":10438:10594   */\n      pop\n        /* \"#utility.yul\":10415:10594   */\n    tag_235:\n        /* \"#utility.yul\":10640:10641   */\n      0x01\n        /* \"#utility.yul\":10636:10637   */\n      0x02\n        /* \"#utility.yul\":10628:10634   */\n      dup9\n        /* \"#utility.yul\":10624:10638   */\n      mul\n        /* \"#utility.yul\":10620:10642   */\n      add\n        /* \"#utility.yul\":10614:10618   */\n      dup9\n        /* \"#utility.yul\":10607:10643   */\n      sstore\n        /* \"#utility.yul\":10042:10653   */\n      pop\n      pop\n      pop\n        /* \"#utility.yul\":10005:10892   */\n    tag_227:\n      pop\n        /* \"#utility.yul\":9595:10898   */\n      pop\n      pop\n      pop\n        /* \"#utility.yul\":9503:10898   */\n      pop\n      pop\n      jump\t// out\n        /* \"#utility.yul\":10904:11084   */\n    tag_72:\n        /* \"#utility.yul\":10952:11029   */\n      0x4e487b7100000000000000000000000000000000000000000000000000000000\n        /* \"#utility.yul\":10949:10950   */\n      0x00\n        /* \"#utility.yul\":10942:11030   */\n      mstore\n        /* \"#utility.yul\":11049:11053   */\n      0x31\n        /* \"#utility.yul\":11046:11047   */\n      0x04\n        /* \"#utility.yul\":11039:11054   */\n      mstore\n        /* \"#utility.yul\":11073:11077   */\n      0x24\n        /* \"#utility.yul\":11070:11071   */\n      0x00\n        /* \"#utility.yul\":11063:11078   */\n      revert\n\n    auxdata: 0xa264697066735822122034ef8bf433bb269b2ce411a063b9cb86e700055783fdf1f836920029f5fc68af64736f6c634300081a0033\n}\n",
				"bytecode": {
					"linkReferences": {},
					"object": "60806040526040518060400160405280606160ff168152602001606260ff168152505f90600261003092919061010d565b5060405180606001604052806040518060400160405280600581526020017f6170706c6500000000000000000000000000000000000000000000000000000081525081526020016040518060400160405280600681526020017f62616e616e61000000000000000000000000000000000000000000000000000081525081526020016040518060400160405280600781526020017f436f636f6e75740000000000000000000000000000000000000000000000000081525081525060019060036100fb92919061015d565b50348015610107575f80fd5b5061052d565b828054828255905f5260205f2090810192821561014c579160200282015b8281111561014b578251829060ff1690559160200191906001019061012b565b5b50905061015991906101a9565b5090565b8260058101928215610198579160200282015b82811115610197578251829081610187919061045e565b5091602001919060010190610170565b5b5090506101a591906101c4565b5090565b5b808211156101c0575f815f9055506001016101aa565b5090565b5b808211156101e3575f81816101da91906101e7565b506001016101c5565b5090565b5080546101f390610288565b5f825580601f106102045750610221565b601f0160209004905f5260205f209081019061022091906101a9565b5b50565b5f81519050919050565b7f4e487b71000000000000000000000000000000000000000000000000000000005f52604160045260245ffd5b7f4e487b71000000000000000000000000000000000000000000000000000000005f52602260045260245ffd5b5f600282049050600182168061029f57607f821691505b6020821081036102b2576102b161025b565b5b50919050565b5f819050815f5260205f209050919050565b5f6020601f8301049050919050565b5f82821b905092915050565b5f600883026103147fffffffffffffffffffffffffffffffffffffffffffffffffffffffffffffffff826102d9565b61031e86836102d9565b95508019841693508086168417925050509392505050565b5f819050919050565b5f819050919050565b5f61036261035d61035884610336565b61033f565b610336565b9050919050565b5f819050919050565b61037b83610348565b61038f61038782610369565b8484546102e5565b825550505050565b5f90565b6103a3610397565b6103ae818484610372565b505050565b5b818110156103d1576103c65f8261039b565b6001810190506103b4565b5050565b601f821115610416576103e7816102b8565b6103f0846102ca565b810160208510156103ff578190505b61041361040b856102ca565b8301826103b3565b50505b505050565b5f82821c905092915050565b5f6104365f198460080261041b565b1980831691505092915050565b5f61044e8383610427565b9150826002028217905092915050565b61046782610224565b67ffffffffffffffff8111156104805761047f61022e565b5b61048a8254610288565b6104958282856103d5565b5f60209050601f8311600181146104c6575f84156104b4578287015190505b6104be8582610443565b865550610525565b601f1984166104d4866102b8565b5f5b828110156104fb578489015182556001820191506020850194506020810190506104d6565b868310156105185784890151610514601f891682610427565b8355505b6001600288020188555050505b505050505050565b6109498061053a5f395ff3fe608060405234801561000f575f80fd5b5060043610610086575f3560e01c80637952deae116100595780637952deae146101225780638c00eb041461013e578063ae713d2a1461015a578063be1c766b1461016457610086565b80630df904c31461008a5780634bae89cb146100a657806361125b63146100d65780636492431014610106575b5f80fd5b6100a4600480360381019061009f9190610485565b610182565b005b6100c060048036038101906100bb91906104df565b6101a9565b6040516100cd9190610519565b60405180910390f35b6100f060048036038101906100eb91906104df565b6101c8565b6040516100fd9190610592565b60405180910390f35b610120600480360381019061011b91906104df565b610267565b005b61013c600480360381019061013791906104df565b61028f565b005b610158600480360381019061015391906105b2565b6102b0565b005b6101626102d4565b005b61016c6102fa565b6040516101799190610519565b60405180910390f35b8060018360058110610197576101966105f0565b5b0190816101a49190610817565b505050565b5f81815481106101b7575f80fd5b905f5260205f20015f915090505481565b600181600581106101d7575f80fd5b015f9150905080546101e89061064a565b80601f01602080910402602001604051908101604052809291908181526020018280546102149061064a565b801561025f5780601f106102365761010080835404028352916020019161025f565b820191905f5260205f20905b81548152906001019060200180831161024257829003601f168201915b505050505081565b5f81908060018154018082558091505060019003905f5260205f20015f909190919091505550565b5f81815481106102a2576102a16105f0565b5b905f5260205f20015f905550565b805f83815481106102c4576102c36105f0565b5b905f5260205f2001819055505050565b5f8054806102e5576102e46108e6565b5b600190038181905f5260205f20015f90559055565b5f8080549050905090565b5f604051905090565b5f80fd5b5f80fd5b5f819050919050565b61032881610316565b8114610332575f80fd5b50565b5f813590506103438161031f565b92915050565b5f80fd5b5f80fd5b5f601f19601f8301169050919050565b7f4e487b71000000000000000000000000000000000000000000000000000000005f52604160045260245ffd5b61039782610351565b810181811067ffffffffffffffff821117156103b6576103b5610361565b5b80604052505050565b5f6103c8610305565b90506103d4828261038e565b919050565b5f67ffffffffffffffff8211156103f3576103f2610361565b5b6103fc82610351565b9050602081019050919050565b828183375f83830152505050565b5f610429610424846103d9565b6103bf565b9050828152602081018484840111156104455761044461034d565b5b610450848285610409565b509392505050565b5f82601f83011261046c5761046b610349565b5b813561047c848260208601610417565b91505092915050565b5f806040838503121561049b5761049a61030e565b5b5f6104a885828601610335565b925050602083013567ffffffffffffffff8111156104c9576104c8610312565b5b6104d585828601610458565b9150509250929050565b5f602082840312156104f4576104f361030e565b5b5f61050184828501610335565b91505092915050565b61051381610316565b82525050565b5f60208201905061052c5f83018461050a565b92915050565b5f81519050919050565b5f82825260208201905092915050565b8281835e5f83830152505050565b5f61056482610532565b61056e818561053c565b935061057e81856020860161054c565b61058781610351565b840191505092915050565b5f6020820190508181035f8301526105aa818461055a565b905092915050565b5f80604083850312156105c8576105c761030e565b5b5f6105d585828601610335565b92505060206105e685828601610335565b9150509250929050565b7f4e487b71000000000000000000000000000000000000000000000000000000005f52603260045260245ffd5b7f4e487b71000000000000000000000000000000000000000000000000000000005f52602260045260245ffd5b5f600282049050600182168061066157607f821691505b6020821081036106745761067361061d565b5b50919050565b5f819050815f5260205f209050919050565b5f6020601f8301049050919050565b5f82821b905092915050565b5f600883026106d67fffffffffffffffffffffffffffffffffffffffffffffffffffffffffffffffff8261069b565b6106e0868361069b565b95508019841693508086168417925050509392505050565b5f819050919050565b5f61071b61071661071184610316565b6106f8565b610316565b9050919050565b5f819050919050565b61073483610701565b61074861074082610722565b8484546106a7565b825550505050565b5f90565b61075c610750565b61076781848461072b565b505050565b5b8181101561078a5761077f5f82610754565b60018101905061076d565b5050565b601f8211156107cf576107a08161067a565b6107a98461068c565b810160208510156107b8578190505b6107cc6107c48561068c565b83018261076c565b50505b505050565b5f82821c905092915050565b5f6107ef5f19846008026107d4565b1980831691505092915050565b5f61080783836107e0565b9150826002028217905092915050565b61082082610532565b67ffffffffffffffff81111561083957610838610361565b5b610843825461064a565b61084e82828561078e565b5f60209050601f83116001811461087f575f841561086d578287015190505b61087785826107fc565b8655506108de565b601f19841661088d8661067a565b5f5b828110156108b45784890151825560018201915060208501945060208101905061088f565b868310156108d157848901516108cd601f8916826107e0565b8355505b6001600288020188555050505b505050505050565b7f4e487b71000000000000000000000000000000000000000000000000000000005f52603160045260245ffdfea264697066735822122034ef8bf433bb269b2ce411a063b9cb86e700055783fdf1f836920029f5fc68af64736f6c634300081a0033",
					"opcodes": "PUSH1 0x80 PUSH1 0x40 MSTORE PUSH1 0x40 MLOAD DUP1 PUSH1 0x40 ADD PUSH1 0x40 MSTORE DUP1 PUSH1 0x61 PUSH1 0xFF AND DUP2 MSTORE PUSH1 0x20 ADD PUSH1 0x62 PUSH1 0xFF AND DUP2 MSTORE POP PUSH0 SWAP1 PUSH1 0x2 PUSH2 0x30 SWAP3 SWAP2 SWAP1 PUSH2 0x10D JUMP JUMPDEST POP PUSH1 0x40 MLOAD DUP1 PUSH1 0x60 ADD PUSH1 0x40 MSTORE DUP1 PUSH1 0x40 MLOAD DUP1 PUSH1 0x40 ADD PUSH1 0x40 MSTORE DUP1 PUSH1 0x5 DUP2 MSTORE PUSH1 0x20 ADD PUSH32 0x6170706C65000000000000000000000000000000000000000000000000000000 DUP2 MSTORE POP DUP2 MSTORE PUSH1 0x20 ADD PUSH1 0x40 MLOAD DUP1 PUSH1 0x40 ADD PUSH1 0x40 MSTORE DUP1 PUSH1 0x6 DUP2 MSTORE PUSH1 0x20 ADD PUSH32 0x62616E616E610000000000000000000000000000000000000000000000000000 DUP2 MSTORE POP DUP2 MSTORE PUSH1 0x20 ADD PUSH1 0x40 MLOAD DUP1 PUSH1 0x40 ADD PUSH1 0x40 MSTORE DUP1 PUSH1 0x7 DUP2 MSTORE PUSH1 0x20 ADD PUSH32 0x436F636F6E757400000000000000000000000000000000000000000000000000 DUP2 MSTORE POP DUP2 MSTORE POP PUSH1 0x1 SWAP1 PUSH1 0x3 PUSH2 0xFB SWAP3 SWAP2 SWAP1 PUSH2 0x15D JUMP JUMPDEST POP CALLVALUE DUP1 ISZERO PUSH2 0x107 JUMPI PUSH0 DUP1 REVERT JUMPDEST POP PUSH2 0x52D JUMP JUMPDEST DUP3 DUP1 SLOAD DUP3 DUP3 SSTORE SWAP1 PUSH0 MSTORE PUSH1 0x20 PUSH0 KECCAK256 SWAP1 DUP2 ADD SWAP3 DUP3 ISZERO PUSH2 0x14C JUMPI SWAP2 PUSH1 0x20 MUL DUP3 ADD JUMPDEST DUP3 DUP2 GT ISZERO PUSH2 0x14B JUMPI DUP3 MLOAD DUP3 SWAP1 PUSH1 0xFF AND SWAP1 SSTORE SWAP2 PUSH1 0x20 ADD SWAP2 SWAP1 PUSH1 0x1 ADD SWAP1 PUSH2 0x12B JUMP JUMPDEST JUMPDEST POP SWAP1 POP PUSH2 0x159 SWAP2 SWAP1 PUSH2 0x1A9 JUMP JUMPDEST POP SWAP1 JUMP JUMPDEST DUP3 PUSH1 0x5 DUP2 ADD SWAP3 DUP3 ISZERO PUSH2 0x198 JUMPI SWAP2 PUSH1 0x20 MUL DUP3 ADD JUMPDEST DUP3 DUP2 GT ISZERO PUSH2 0x197 JUMPI DUP3 MLOAD DUP3 SWAP1 DUP2 PUSH2 0x187 SWAP2 SWAP1 PUSH2 0x45E JUMP JUMPDEST POP SWAP2 PUSH1 0x20 ADD SWAP2 SWAP1 PUSH1 0x1 ADD SWAP1 PUSH2 0x170 JUMP JUMPDEST JUMPDEST POP SWAP1 POP PUSH2 0x1A5 SWAP2 SWAP1 PUSH2 0x1C4 JUMP JUMPDEST POP SWAP1 JUMP JUMPDEST JUMPDEST DUP1 DUP3 GT ISZERO PUSH2 0x1C0 JUMPI PUSH0 DUP2 PUSH0 SWAP1 SSTORE POP PUSH1 0x1 ADD PUSH2 0x1AA JUMP JUMPDEST POP SWAP1 JUMP JUMPDEST JUMPDEST DUP1 DUP3 GT ISZERO PUSH2 0x1E3 JUMPI PUSH0 DUP2 DUP2 PUSH2 0x1DA SWAP2 SWAP1 PUSH2 0x1E7 JUMP JUMPDEST POP PUSH1 0x1 ADD PUSH2 0x1C5 JUMP JUMPDEST POP SWAP1 JUMP JUMPDEST POP DUP1 SLOAD PUSH2 0x1F3 SWAP1 PUSH2 0x288 JUMP JUMPDEST PUSH0 DUP3 SSTORE DUP1 PUSH1 0x1F LT PUSH2 0x204 JUMPI POP PUSH2 0x221 JUMP JUMPDEST PUSH1 0x1F ADD PUSH1 0x20 SWAP1 DIV SWAP1 PUSH0 MSTORE PUSH1 0x20 PUSH0 KECCAK256 SWAP1 DUP2 ADD SWAP1 PUSH2 0x220 SWAP2 SWAP1 PUSH2 0x1A9 JUMP JUMPDEST JUMPDEST POP JUMP JUMPDEST PUSH0 DUP2 MLOAD SWAP1 POP SWAP2 SWAP1 POP JUMP JUMPDEST PUSH32 0x4E487B7100000000000000000000000000000000000000000000000000000000 PUSH0 MSTORE PUSH1 0x41 PUSH1 0x4 MSTORE PUSH1 0x24 PUSH0 REVERT JUMPDEST PUSH32 0x4E487B7100000000000000000000000000000000000000000000000000000000 PUSH0 MSTORE PUSH1 0x22 PUSH1 0x4 MSTORE PUSH1 0x24 PUSH0 REVERT JUMPDEST PUSH0 PUSH1 0x2 DUP3 DIV SWAP1 POP PUSH1 0x1 DUP3 AND DUP1 PUSH2 0x29F JUMPI PUSH1 0x7F DUP3 AND SWAP2 POP JUMPDEST PUSH1 0x20 DUP3 LT DUP2 SUB PUSH2 0x2B2 JUMPI PUSH2 0x2B1 PUSH2 0x25B JUMP JUMPDEST JUMPDEST POP SWAP2 SWAP1 POP JUMP JUMPDEST PUSH0 DUP2 SWAP1 POP DUP2 PUSH0 MSTORE PUSH1 0x20 PUSH0 KECCAK256 SWAP1 POP SWAP2 SWAP1 POP JUMP JUMPDEST PUSH0 PUSH1 0x20 PUSH1 0x1F DUP4 ADD DIV SWAP1 POP SWAP2 SWAP1 POP JUMP JUMPDEST PUSH0 DUP3 DUP3 SHL SWAP1 POP SWAP3 SWAP2 POP POP JUMP JUMPDEST PUSH0 PUSH1 0x8 DUP4 MUL PUSH2 0x314 PUSH32 0xFFFFFFFFFFFFFFFFFFFFFFFFFFFFFFFFFFFFFFFFFFFFFFFFFFFFFFFFFFFFFFFF DUP3 PUSH2 0x2D9 JUMP JUMPDEST PUSH2 0x31E DUP7 DUP4 PUSH2 0x2D9 JUMP JUMPDEST SWAP6 POP DUP1 NOT DUP5 AND SWAP4 POP DUP1 DUP7 AND DUP5 OR SWAP3 POP POP POP SWAP4 SWAP3 POP POP POP JUMP JUMPDEST PUSH0 DUP2 SWAP1 POP SWAP2 SWAP1 POP JUMP JUMPDEST PUSH0 DUP2 SWAP1 POP SWAP2 SWAP1 POP JUMP JUMPDEST PUSH0 PUSH2 0x362 PUSH2 0x35D PUSH2 0x358 DUP5 PUSH2 0x336 JUMP JUMPDEST PUSH2 0x33F JUMP JUMPDEST PUSH2 0x336 JUMP JUMPDEST SWAP1 POP SWAP2 SWAP1 POP JUMP JUMPDEST PUSH0 DUP2 SWAP1 POP SWAP2 SWAP1 POP JUMP JUMPDEST PUSH2 0x37B DUP4 PUSH2 0x348 JUMP JUMPDEST PUSH2 0x38F PUSH2 0x387 DUP3 PUSH2 0x369 JUMP JUMPDEST DUP5 DUP5 SLOAD PUSH2 0x2E5 JUMP JUMPDEST DUP3 SSTORE POP POP POP POP JUMP JUMPDEST PUSH0 SWAP1 JUMP JUMPDEST PUSH2 0x3A3 PUSH2 0x397 JUMP JUMPDEST PUSH2 0x3AE DUP2 DUP5 DUP5 PUSH2 0x372 JUMP JUMPDEST POP POP POP JUMP JUMPDEST JUMPDEST DUP2 DUP2 LT ISZERO PUSH2 0x3D1 JUMPI PUSH2 0x3C6 PUSH0 DUP3 PUSH2 0x39B JUMP JUMPDEST PUSH1 0x1 DUP2 ADD SWAP1 POP PUSH2 0x3B4 JUMP JUMPDEST POP POP JUMP JUMPDEST PUSH1 0x1F DUP3 GT ISZERO PUSH2 0x416 JUMPI PUSH2 0x3E7 DUP2 PUSH2 0x2B8 JUMP JUMPDEST PUSH2 0x3F0 DUP5 PUSH2 0x2CA JUMP JUMPDEST DUP2 ADD PUSH1 0x20 DUP6 LT ISZERO PUSH2 0x3FF JUMPI DUP2 SWAP1 POP JUMPDEST PUSH2 0x413 PUSH2 0x40B DUP6 PUSH2 0x2CA JUMP JUMPDEST DUP4 ADD DUP3 PUSH2 0x3B3 JUMP JUMPDEST POP POP JUMPDEST POP POP POP JUMP JUMPDEST PUSH0 DUP3 DUP3 SHR SWAP1 POP SWAP3 SWAP2 POP POP JUMP JUMPDEST PUSH0 PUSH2 0x436 PUSH0 NOT DUP5 PUSH1 0x8 MUL PUSH2 0x41B JUMP JUMPDEST NOT DUP1 DUP4 AND SWAP2 POP POP SWAP3 SWAP2 POP POP JUMP JUMPDEST PUSH0 PUSH2 0x44E DUP4 DUP4 PUSH2 0x427 JUMP JUMPDEST SWAP2 POP DUP3 PUSH1 0x2 MUL DUP3 OR SWAP1 POP SWAP3 SWAP2 POP POP JUMP JUMPDEST PUSH2 0x467 DUP3 PUSH2 0x224 JUMP JUMPDEST PUSH8 0xFFFFFFFFFFFFFFFF DUP2 GT ISZERO PUSH2 0x480 JUMPI PUSH2 0x47F PUSH2 0x22E JUMP JUMPDEST JUMPDEST PUSH2 0x48A DUP3 SLOAD PUSH2 0x288 JUMP JUMPDEST PUSH2 0x495 DUP3 DUP3 DUP6 PUSH2 0x3D5 JUMP JUMPDEST PUSH0 PUSH1 0x20 SWAP1 POP PUSH1 0x1F DUP4 GT PUSH1 0x1 DUP2 EQ PUSH2 0x4C6 JUMPI PUSH0 DUP5 ISZERO PUSH2 0x4B4 JUMPI DUP3 DUP8 ADD MLOAD SWAP1 POP JUMPDEST PUSH2 0x4BE DUP6 DUP3 PUSH2 0x443 JUMP JUMPDEST DUP7 SSTORE POP PUSH2 0x525 JUMP JUMPDEST PUSH1 0x1F NOT DUP5 AND PUSH2 0x4D4 DUP7 PUSH2 0x2B8 JUMP JUMPDEST PUSH0 JUMPDEST DUP3 DUP2 LT ISZERO PUSH2 0x4FB JUMPI DUP5 DUP10 ADD MLOAD DUP3 SSTORE PUSH1 0x1 DUP3 ADD SWAP2 POP PUSH1 0x20 DUP6 ADD SWAP5 POP PUSH1 0x20 DUP2 ADD SWAP1 POP PUSH2 0x4D6 JUMP JUMPDEST DUP7 DUP4 LT ISZERO PUSH2 0x518 JUMPI DUP5 DUP10 ADD MLOAD PUSH2 0x514 PUSH1 0x1F DUP10 AND DUP3 PUSH2 0x427 JUMP JUMPDEST DUP4 SSTORE POP JUMPDEST PUSH1 0x1 PUSH1 0x2 DUP9 MUL ADD DUP9 SSTORE POP POP POP JUMPDEST POP POP POP POP POP POP JUMP JUMPDEST PUSH2 0x949 DUP1 PUSH2 0x53A PUSH0 CODECOPY PUSH0 RETURN INVALID PUSH1 0x80 PUSH1 0x40 MSTORE CALLVALUE DUP1 ISZERO PUSH2 0xF JUMPI PUSH0 DUP1 REVERT JUMPDEST POP PUSH1 0x4 CALLDATASIZE LT PUSH2 0x86 JUMPI PUSH0 CALLDATALOAD PUSH1 0xE0 SHR DUP1 PUSH4 0x7952DEAE GT PUSH2 0x59 JUMPI DUP1 PUSH4 0x7952DEAE EQ PUSH2 0x122 JUMPI DUP1 PUSH4 0x8C00EB04 EQ PUSH2 0x13E JUMPI DUP1 PUSH4 0xAE713D2A EQ PUSH2 0x15A JUMPI DUP1 PUSH4 0xBE1C766B EQ PUSH2 0x164 JUMPI PUSH2 0x86 JUMP JUMPDEST DUP1 PUSH4 0xDF904C3 EQ PUSH2 0x8A JUMPI DUP1 PUSH4 0x4BAE89CB EQ PUSH2 0xA6 JUMPI DUP1 PUSH4 0x61125B63 EQ PUSH2 0xD6 JUMPI DUP1 PUSH4 0x64924310 EQ PUSH2 0x106 JUMPI JUMPDEST PUSH0 DUP1 REVERT JUMPDEST PUSH2 0xA4 PUSH1 0x4 DUP1 CALLDATASIZE SUB DUP2 ADD SWAP1 PUSH2 0x9F SWAP2 SWAP1 PUSH2 0x485 JUMP JUMPDEST PUSH2 0x182 JUMP JUMPDEST STOP JUMPDEST PUSH2 0xC0 PUSH1 0x4 DUP1 CALLDATASIZE SUB DUP2 ADD SWAP1 PUSH2 0xBB SWAP2 SWAP1 PUSH2 0x4DF JUMP JUMPDEST PUSH2 0x1A9 JUMP JUMPDEST PUSH1 0x40 MLOAD PUSH2 0xCD SWAP2 SWAP1 PUSH2 0x519 JUMP JUMPDEST PUSH1 0x40 MLOAD DUP1 SWAP2 SUB SWAP1 RETURN JUMPDEST PUSH2 0xF0 PUSH1 0x4 DUP1 CALLDATASIZE SUB DUP2 ADD SWAP1 PUSH2 0xEB SWAP2 SWAP1 PUSH2 0x4DF JUMP JUMPDEST PUSH2 0x1C8 JUMP JUMPDEST PUSH1 0x40 MLOAD PUSH2 0xFD SWAP2 SWAP1 PUSH2 0x592 JUMP JUMPDEST PUSH1 0x40 MLOAD DUP1 SWAP2 SUB SWAP1 RETURN JUMPDEST PUSH2 0x120 PUSH1 0x4 DUP1 CALLDATASIZE SUB DUP2 ADD SWAP1 PUSH2 0x11B SWAP2 SWAP1 PUSH2 0x4DF JUMP JUMPDEST PUSH2 0x267 JUMP JUMPDEST STOP JUMPDEST PUSH2 0x13C PUSH1 0x4 DUP1 CALLDATASIZE SUB DUP2 ADD SWAP1 PUSH2 0x137 SWAP2 SWAP1 PUSH2 0x4DF JUMP JUMPDEST PUSH2 0x28F JUMP JUMPDEST STOP JUMPDEST PUSH2 0x158 PUSH1 0x4 DUP1 CALLDATASIZE SUB DUP2 ADD SWAP1 PUSH2 0x153 SWAP2 SWAP1 PUSH2 0x5B2 JUMP JUMPDEST PUSH2 0x2B0 JUMP JUMPDEST STOP JUMPDEST PUSH2 0x162 PUSH2 0x2D4 JUMP JUMPDEST STOP JUMPDEST PUSH2 0x16C PUSH2 0x2FA JUMP JUMPDEST PUSH1 0x40 MLOAD PUSH2 0x179 SWAP2 SWAP1 PUSH2 0x519 JUMP JUMPDEST PUSH1 0x40 MLOAD DUP1 SWAP2 SUB SWAP1 RETURN JUMPDEST DUP1 PUSH1 0x1 DUP4 PUSH1 0x5 DUP2 LT PUSH2 0x197 JUMPI PUSH2 0x196 PUSH2 0x5F0 JUMP JUMPDEST JUMPDEST ADD SWAP1 DUP2 PUSH2 0x1A4 SWAP2 SWAP1 PUSH2 0x817 JUMP JUMPDEST POP POP POP JUMP JUMPDEST PUSH0 DUP2 DUP2 SLOAD DUP2 LT PUSH2 0x1B7 JUMPI PUSH0 DUP1 REVERT JUMPDEST SWAP1 PUSH0 MSTORE PUSH1 0x20 PUSH0 KECCAK256 ADD PUSH0 SWAP2 POP SWAP1 POP SLOAD DUP2 JUMP JUMPDEST PUSH1 0x1 DUP2 PUSH1 0x5 DUP2 LT PUSH2 0x1D7 JUMPI PUSH0 DUP1 REVERT JUMPDEST ADD PUSH0 SWAP2 POP SWAP1 POP DUP1 SLOAD PUSH2 0x1E8 SWAP1 PUSH2 0x64A JUMP JUMPDEST DUP1 PUSH1 0x1F ADD PUSH1 0x20 DUP1 SWAP2 DIV MUL PUSH1 0x20 ADD PUSH1 0x40 MLOAD SWAP1 DUP2 ADD PUSH1 0x40 MSTORE DUP1 SWAP3 SWAP2 SWAP1 DUP2 DUP2 MSTORE PUSH1 0x20 ADD DUP3 DUP1 SLOAD PUSH2 0x214 SWAP1 PUSH2 0x64A JUMP JUMPDEST DUP1 ISZERO PUSH2 0x25F JUMPI DUP1 PUSH1 0x1F LT PUSH2 0x236 JUMPI PUSH2 0x100 DUP1 DUP4 SLOAD DIV MUL DUP4 MSTORE SWAP2 PUSH1 0x20 ADD SWAP2 PUSH2 0x25F JUMP JUMPDEST DUP3 ADD SWAP2 SWAP1 PUSH0 MSTORE PUSH1 0x20 PUSH0 KECCAK256 SWAP1 JUMPDEST DUP2 SLOAD DUP2 MSTORE SWAP1 PUSH1 0x1 ADD SWAP1 PUSH1 0x20 ADD DUP1 DUP4 GT PUSH2 0x242 JUMPI DUP3 SWAP1 SUB PUSH1 0x1F AND DUP3 ADD SWAP2 JUMPDEST POP POP POP POP POP DUP2 JUMP JUMPDEST PUSH0 DUP2 SWAP1 DUP1 PUSH1 0x1 DUP2 SLOAD ADD DUP1 DUP3 SSTORE DUP1 SWAP2 POP POP PUSH1 0x1 SWAP1 SUB SWAP1 PUSH0 MSTORE PUSH1 0x20 PUSH0 KECCAK256 ADD PUSH0 SWAP1 SWAP2 SWAP1 SWAP2 SWAP1 SWAP2 POP SSTORE POP JUMP JUMPDEST PUSH0 DUP2 DUP2 SLOAD DUP2 LT PUSH2 0x2A2 JUMPI PUSH2 0x2A1 PUSH2 0x5F0 JUMP JUMPDEST JUMPDEST SWAP1 PUSH0 MSTORE PUSH1 0x20 PUSH0 KECCAK256 ADD PUSH0 SWAP1 SSTORE POP JUMP JUMPDEST DUP1 PUSH0 DUP4 DUP2 SLOAD DUP2 LT PUSH2 0x2C4 JUMPI PUSH2 0x2C3 PUSH2 0x5F0 JUMP JUMPDEST JUMPDEST SWAP1 PUSH0 MSTORE PUSH1 0x20 PUSH0 KECCAK256 ADD DUP2 SWAP1 SSTORE POP POP POP JUMP JUMPDEST PUSH0 DUP1 SLOAD DUP1 PUSH2 0x2E5 JUMPI PUSH2 0x2E4 PUSH2 0x8E6 JUMP JUMPDEST JUMPDEST PUSH1 0x1 SWAP1 SUB DUP2 DUP2 SWAP1 PUSH0 MSTORE PUSH1 0x20 PUSH0 KECCAK256 ADD PUSH0 SWAP1 SSTORE SWAP1 SSTORE JUMP JUMPDEST PUSH0 DUP1 DUP1 SLOAD SWAP1 POP SWAP1 POP SWAP1 JUMP JUMPDEST PUSH0 PUSH1 0x40 MLOAD SWAP1 POP SWAP1 JUMP JUMPDEST PUSH0 DUP1 REVERT JUMPDEST PUSH0 DUP1 REVERT JUMPDEST PUSH0 DUP2 SWAP1 POP SWAP2 SWAP1 POP JUMP JUMPDEST PUSH2 0x328 DUP2 PUSH2 0x316 JUMP JUMPDEST DUP2 EQ PUSH2 0x332 JUMPI PUSH0 DUP1 REVERT JUMPDEST POP JUMP JUMPDEST PUSH0 DUP2 CALLDATALOAD SWAP1 POP PUSH2 0x343 DUP2 PUSH2 0x31F JUMP JUMPDEST SWAP3 SWAP2 POP POP JUMP JUMPDEST PUSH0 DUP1 REVERT JUMPDEST PUSH0 DUP1 REVERT JUMPDEST PUSH0 PUSH1 0x1F NOT PUSH1 0x1F DUP4 ADD AND SWAP1 POP SWAP2 SWAP1 POP JUMP JUMPDEST PUSH32 0x4E487B7100000000000000000000000000000000000000000000000000000000 PUSH0 MSTORE PUSH1 0x41 PUSH1 0x4 MSTORE PUSH1 0x24 PUSH0 REVERT JUMPDEST PUSH2 0x397 DUP3 PUSH2 0x351 JUMP JUMPDEST DUP2 ADD DUP2 DUP2 LT PUSH8 0xFFFFFFFFFFFFFFFF DUP3 GT OR ISZERO PUSH2 0x3B6 JUMPI PUSH2 0x3B5 PUSH2 0x361 JUMP JUMPDEST JUMPDEST DUP1 PUSH1 0x40 MSTORE POP POP POP JUMP JUMPDEST PUSH0 PUSH2 0x3C8 PUSH2 0x305 JUMP JUMPDEST SWAP1 POP PUSH2 0x3D4 DUP3 DUP3 PUSH2 0x38E JUMP JUMPDEST SWAP2 SWAP1 POP JUMP JUMPDEST PUSH0 PUSH8 0xFFFFFFFFFFFFFFFF DUP3 GT ISZERO PUSH2 0x3F3 JUMPI PUSH2 0x3F2 PUSH2 0x361 JUMP JUMPDEST JUMPDEST PUSH2 0x3FC DUP3 PUSH2 0x351 JUMP JUMPDEST SWAP1 POP PUSH1 0x20 DUP2 ADD SWAP1 POP SWAP2 SWAP1 POP JUMP JUMPDEST DUP3 DUP2 DUP4 CALLDATACOPY PUSH0 DUP4 DUP4 ADD MSTORE POP POP POP JUMP JUMPDEST PUSH0 PUSH2 0x429 PUSH2 0x424 DUP5 PUSH2 0x3D9 JUMP JUMPDEST PUSH2 0x3BF JUMP JUMPDEST SWAP1 POP DUP3 DUP2 MSTORE PUSH1 0x20 DUP2 ADD DUP5 DUP5 DUP5 ADD GT ISZERO PUSH2 0x445 JUMPI PUSH2 0x444 PUSH2 0x34D JUMP JUMPDEST JUMPDEST PUSH2 0x450 DUP5 DUP3 DUP6 PUSH2 0x409 JUMP JUMPDEST POP SWAP4 SWAP3 POP POP POP JUMP JUMPDEST PUSH0 DUP3 PUSH1 0x1F DUP4 ADD SLT PUSH2 0x46C JUMPI PUSH2 0x46B PUSH2 0x349 JUMP JUMPDEST JUMPDEST DUP2 CALLDATALOAD PUSH2 0x47C DUP5 DUP3 PUSH1 0x20 DUP7 ADD PUSH2 0x417 JUMP JUMPDEST SWAP2 POP POP SWAP3 SWAP2 POP POP JUMP JUMPDEST PUSH0 DUP1 PUSH1 0x40 DUP4 DUP6 SUB SLT ISZERO PUSH2 0x49B JUMPI PUSH2 0x49A PUSH2 0x30E JUMP JUMPDEST JUMPDEST PUSH0 PUSH2 0x4A8 DUP6 DUP3 DUP7 ADD PUSH2 0x335 JUMP JUMPDEST SWAP3 POP POP PUSH1 0x20 DUP4 ADD CALLDATALOAD PUSH8 0xFFFFFFFFFFFFFFFF DUP2 GT ISZERO PUSH2 0x4C9 JUMPI PUSH2 0x4C8 PUSH2 0x312 JUMP JUMPDEST JUMPDEST PUSH2 0x4D5 DUP6 DUP3 DUP7 ADD PUSH2 0x458 JUMP JUMPDEST SWAP2 POP POP SWAP3 POP SWAP3 SWAP1 POP JUMP JUMPDEST PUSH0 PUSH1 0x20 DUP3 DUP5 SUB SLT ISZERO PUSH2 0x4F4 JUMPI PUSH2 0x4F3 PUSH2 0x30E JUMP JUMPDEST JUMPDEST PUSH0 PUSH2 0x501 DUP5 DUP3 DUP6 ADD PUSH2 0x335 JUMP JUMPDEST SWAP2 POP POP SWAP3 SWAP2 POP POP JUMP JUMPDEST PUSH2 0x513 DUP2 PUSH2 0x316 JUMP JUMPDEST DUP3 MSTORE POP POP JUMP JUMPDEST PUSH0 PUSH1 0x20 DUP3 ADD SWAP1 POP PUSH2 0x52C PUSH0 DUP4 ADD DUP5 PUSH2 0x50A JUMP JUMPDEST SWAP3 SWAP2 POP POP JUMP JUMPDEST PUSH0 DUP2 MLOAD SWAP1 POP SWAP2 SWAP1 POP JUMP JUMPDEST PUSH0 DUP3 DUP3 MSTORE PUSH1 0x20 DUP3 ADD SWAP1 POP SWAP3 SWAP2 POP POP JUMP JUMPDEST DUP3 DUP2 DUP4 MCOPY PUSH0 DUP4 DUP4 ADD MSTORE POP POP POP JUMP JUMPDEST PUSH0 PUSH2 0x564 DUP3 PUSH2 0x532 JUMP JUMPDEST PUSH2 0x56E DUP2 DUP6 PUSH2 0x53C JUMP JUMPDEST SWAP4 POP PUSH2 0x57E DUP2 DUP6 PUSH1 0x20 DUP7 ADD PUSH2 0x54C JUMP JUMPDEST PUSH2 0x587 DUP2 PUSH2 0x351 JUMP JUMPDEST DUP5 ADD SWAP2 POP POP SWAP3 SWAP2 POP POP JUMP JUMPDEST PUSH0 PUSH1 0x20 DUP3 ADD SWAP1 POP DUP2 DUP2 SUB PUSH0 DUP4 ADD MSTORE PUSH2 0x5AA DUP2 DUP5 PUSH2 0x55A JUMP JUMPDEST SWAP1 POP SWAP3 SWAP2 POP POP JUMP JUMPDEST PUSH0 DUP1 PUSH1 0x40 DUP4 DUP6 SUB SLT ISZERO PUSH2 0x5C8 JUMPI PUSH2 0x5C7 PUSH2 0x30E JUMP JUMPDEST JUMPDEST PUSH0 PUSH2 0x5D5 DUP6 DUP3 DUP7 ADD PUSH2 0x335 JUMP JUMPDEST SWAP3 POP POP PUSH1 0x20 PUSH2 0x5E6 DUP6 DUP3 DUP7 ADD PUSH2 0x335 JUMP JUMPDEST SWAP2 POP POP SWAP3 POP SWAP3 SWAP1 POP JUMP JUMPDEST PUSH32 0x4E487B7100000000000000000000000000000000000000000000000000000000 PUSH0 MSTORE PUSH1 0x32 PUSH1 0x4 MSTORE PUSH1 0x24 PUSH0 REVERT JUMPDEST PUSH32 0x4E487B7100000000000000000000000000000000000000000000000000000000 PUSH0 MSTORE PUSH1 0x22 PUSH1 0x4 MSTORE PUSH1 0x24 PUSH0 REVERT JUMPDEST PUSH0 PUSH1 0x2 DUP3 DIV SWAP1 POP PUSH1 0x1 DUP3 AND DUP1 PUSH2 0x661 JUMPI PUSH1 0x7F DUP3 AND SWAP2 POP JUMPDEST PUSH1 0x20 DUP3 LT DUP2 SUB PUSH2 0x674 JUMPI PUSH2 0x673 PUSH2 0x61D JUMP JUMPDEST JUMPDEST POP SWAP2 SWAP1 POP JUMP JUMPDEST PUSH0 DUP2 SWAP1 POP DUP2 PUSH0 MSTORE PUSH1 0x20 PUSH0 KECCAK256 SWAP1 POP SWAP2 SWAP1 POP JUMP JUMPDEST PUSH0 PUSH1 0x20 PUSH1 0x1F DUP4 ADD DIV SWAP1 POP SWAP2 SWAP1 POP JUMP JUMPDEST PUSH0 DUP3 DUP3 SHL SWAP1 POP SWAP3 SWAP2 POP POP JUMP JUMPDEST PUSH0 PUSH1 0x8 DUP4 MUL PUSH2 0x6D6 PUSH32 0xFFFFFFFFFFFFFFFFFFFFFFFFFFFFFFFFFFFFFFFFFFFFFFFFFFFFFFFFFFFFFFFF DUP3 PUSH2 0x69B JUMP JUMPDEST PUSH2 0x6E0 DUP7 DUP4 PUSH2 0x69B JUMP JUMPDEST SWAP6 POP DUP1 NOT DUP5 AND SWAP4 POP DUP1 DUP7 AND DUP5 OR SWAP3 POP POP POP SWAP4 SWAP3 POP POP POP JUMP JUMPDEST PUSH0 DUP2 SWAP1 POP SWAP2 SWAP1 POP JUMP JUMPDEST PUSH0 PUSH2 0x71B PUSH2 0x716 PUSH2 0x711 DUP5 PUSH2 0x316 JUMP JUMPDEST PUSH2 0x6F8 JUMP JUMPDEST PUSH2 0x316 JUMP JUMPDEST SWAP1 POP SWAP2 SWAP1 POP JUMP JUMPDEST PUSH0 DUP2 SWAP1 POP SWAP2 SWAP1 POP JUMP JUMPDEST PUSH2 0x734 DUP4 PUSH2 0x701 JUMP JUMPDEST PUSH2 0x748 PUSH2 0x740 DUP3 PUSH2 0x722 JUMP JUMPDEST DUP5 DUP5 SLOAD PUSH2 0x6A7 JUMP JUMPDEST DUP3 SSTORE POP POP POP POP JUMP JUMPDEST PUSH0 SWAP1 JUMP JUMPDEST PUSH2 0x75C PUSH2 0x750 JUMP JUMPDEST PUSH2 0x767 DUP2 DUP5 DUP5 PUSH2 0x72B JUMP JUMPDEST POP POP POP JUMP JUMPDEST JUMPDEST DUP2 DUP2 LT ISZERO PUSH2 0x78A JUMPI PUSH2 0x77F PUSH0 DUP3 PUSH2 0x754 JUMP JUMPDEST PUSH1 0x1 DUP2 ADD SWAP1 POP PUSH2 0x76D JUMP JUMPDEST POP POP JUMP JUMPDEST PUSH1 0x1F DUP3 GT ISZERO PUSH2 0x7CF JUMPI PUSH2 0x7A0 DUP2 PUSH2 0x67A JUMP JUMPDEST PUSH2 0x7A9 DUP5 PUSH2 0x68C JUMP JUMPDEST DUP2 ADD PUSH1 0x20 DUP6 LT ISZERO PUSH2 0x7B8 JUMPI DUP2 SWAP1 POP JUMPDEST PUSH2 0x7CC PUSH2 0x7C4 DUP6 PUSH2 0x68C JUMP JUMPDEST DUP4 ADD DUP3 PUSH2 0x76C JUMP JUMPDEST POP POP JUMPDEST POP POP POP JUMP JUMPDEST PUSH0 DUP3 DUP3 SHR SWAP1 POP SWAP3 SWAP2 POP POP JUMP JUMPDEST PUSH0 PUSH2 0x7EF PUSH0 NOT DUP5 PUSH1 0x8 MUL PUSH2 0x7D4 JUMP JUMPDEST NOT DUP1 DUP4 AND SWAP2 POP POP SWAP3 SWAP2 POP POP JUMP JUMPDEST PUSH0 PUSH2 0x807 DUP4 DUP4 PUSH2 0x7E0 JUMP JUMPDEST SWAP2 POP DUP3 PUSH1 0x2 MUL DUP3 OR SWAP1 POP SWAP3 SWAP2 POP POP JUMP JUMPDEST PUSH2 0x820 DUP3 PUSH2 0x532 JUMP JUMPDEST PUSH8 0xFFFFFFFFFFFFFFFF DUP2 GT ISZERO PUSH2 0x839 JUMPI PUSH2 0x838 PUSH2 0x361 JUMP JUMPDEST JUMPDEST PUSH2 0x843 DUP3 SLOAD PUSH2 0x64A JUMP JUMPDEST PUSH2 0x84E DUP3 DUP3 DUP6 PUSH2 0x78E JUMP JUMPDEST PUSH0 PUSH1 0x20 SWAP1 POP PUSH1 0x1F DUP4 GT PUSH1 0x1 DUP2 EQ PUSH2 0x87F JUMPI PUSH0 DUP5 ISZERO PUSH2 0x86D JUMPI DUP3 DUP8 ADD MLOAD SWAP1 POP JUMPDEST PUSH2 0x877 DUP6 DUP3 PUSH2 0x7FC JUMP JUMPDEST DUP7 SSTORE POP PUSH2 0x8DE JUMP JUMPDEST PUSH1 0x1F NOT DUP5 AND PUSH2 0x88D DUP7 PUSH2 0x67A JUMP JUMPDEST PUSH0 JUMPDEST DUP3 DUP2 LT ISZERO PUSH2 0x8B4 JUMPI DUP5 DUP10 ADD MLOAD DUP3 SSTORE PUSH1 0x1 DUP3 ADD SWAP2 POP PUSH1 0x20 DUP6 ADD SWAP5 POP PUSH1 0x20 DUP2 ADD SWAP1 POP PUSH2 0x88F JUMP JUMPDEST DUP7 DUP4 LT ISZERO PUSH2 0x8D1 JUMPI DUP5 DUP10 ADD MLOAD PUSH2 0x8CD PUSH1 0x1F DUP10 AND DUP3 PUSH2 0x7E0 JUMP JUMPDEST DUP4 SSTORE POP JUMPDEST PUSH1 0x1 PUSH1 0x2 DUP9 MUL ADD DUP9 SSTORE POP POP POP JUMPDEST POP POP POP POP POP POP JUMP JUMPDEST PUSH32 0x4E487B7100000000000000000000000000000000000000000000000000000000 PUSH0 MSTORE PUSH1 0x31 PUSH1 0x4 MSTORE PUSH1 0x24 PUSH0 REVERT INVALID LOG2 PUSH5 0x6970667358 0x22 SLT KECCAK256 CALLVALUE 0xEF DUP12 DELEGATECALL CALLER 0xBB 0x26 SWAP12 0x2C 0xE4 GT LOG0 PUSH4 0xB9CB86E7 STOP SDIV JUMPI DUP4 REVERT CALL 0xF8 CALLDATASIZE SWAP3 STOP 0x29 CREATE2 0xFC PUSH9 0xAF64736F6C63430008 BYTE STOP CALLER "
				},
				"gasEstimates": {
					"creation": {
						"codeDepositCost": "475400",
						"executionCost": "infinite",
						"totalCost": "infinite"
					},
					"external": {
						"addArray1(uint256)": "46887",
						"array1(uint256)": "infinite",
						"array2(uint256)": "infinite",
						"changeArray1(uint256,uint256)": "infinite",
						"changeArray2(uint256,string)": "infinite",
						"deleteArray(uint256)": "7586",
						"getLength()": "2506",
						"popArray()": "29484"
					}
				},
				"methodIdentifiers": {
					"addArray1(uint256)": "64924310",
					"array1(uint256)": "4bae89cb",
					"array2(uint256)": "61125b63",
					"changeArray1(uint256,uint256)": "8c00eb04",
					"changeArray2(uint256,string)": "0df904c3",
					"deleteArray(uint256)": "7952deae",
					"getLength()": "be1c766b",
					"popArray()": "ae713d2a"
				}
			},
			"storageLayout": {
				"storage": [
					{
						"astId": 6,
						"contract": "week3/Ex5_4.sol:Ex5_4",
						"label": "array1",
						"offset": 0,
						"slot": "0",
						"type": "t_array(t_uint256)dyn_storage"
					},
					{
						"astId": 14,
						"contract": "week3/Ex5_4.sol:Ex5_4",
						"label": "array2",
						"offset": 0,
						"slot": "1",
						"type": "t_array(t_string_storage)5_storage"
					}
				],
				"types": {
					"t_array(t_string_storage)5_storage": {
						"base": "t_string_storage",
						"encoding": "inplace",
						"label": "string[5]",
						"numberOfBytes": "160"
					},
					"t_array(t_uint256)dyn_storage": {
						"base": "t_uint256",
						"encoding": "dynamic_array",
						"label": "uint256[]",
						"numberOfBytes": "32"
					},
					"t_string_storage": {
						"encoding": "bytes",
						"label": "string",
						"numberOfBytes": "32"
					},
					"t_uint256": {
						"encoding": "inplace",
						"label": "uint256",
						"numberOfBytes": "32"
					}
				}
			},
			"userdoc": {
				"kind": "user",
				"methods": {},
				"version": 1
			}
		}
	}
}