{
	"Example/Ex5_9.sol": {
		"Ex5_9": {
			"abi": [
				{
					"inputs": [
						{
							"internalType": "string",
							"name": "_name",
							"type": "string"
						},
						{
							"internalType": "uint256",
							"name": "_age",
							"type": "uint256"
						}
					],
					"name": "addArray",
					"outputs": [],
					"stateMutability": "nonpayable",
					"type": "function"
				},
				{
					"inputs": [
						{
							"internalType": "address",
							"name": "_key",
							"type": "address"
						},
						{
							"internalType": "string",
							"name": "_name",
							"type": "string"
						},
						{
							"internalType": "uint256",
							"name": "_age",
							"type": "uint256"
						}
					],
					"name": "addMapping",
					"outputs": [],
					"stateMutability": "nonpayable",
					"type": "function"
				},
				{
					"inputs": [
						{
							"internalType": "uint256",
							"name": "_index",
							"type": "uint256"
						}
					],
					"name": "getArrayAge",
					"outputs": [
						{
							"internalType": "uint256",
							"name": "",
							"type": "uint256"
						}
					],
					"stateMutability": "view",
					"type": "function"
				},
				{
					"inputs": [
						{
							"internalType": "uint256",
							"name": "_index",
							"type": "uint256"
						}
					],
					"name": "getArrayName",
					"outputs": [
						{
							"internalType": "string",
							"name": "",
							"type": "string"
						}
					],
					"stateMutability": "view",
					"type": "function"
				},
				{
					"inputs": [
						{
							"internalType": "address",
							"name": "_key",
							"type": "address"
						}
					],
					"name": "getMappingName",
					"outputs": [
						{
							"internalType": "string",
							"name": "",
							"type": "string"
						}
					],
					"stateMutability": "view",
					"type": "function"
				},
				{
					"inputs": [
						{
							"internalType": "uint256",
							"name": "",
							"type": "uint256"
						}
					],
					"name": "humanArray",
					"outputs": [
						{
							"internalType": "string",
							"name": "name",
							"type": "string"
						},
						{
							"internalType": "uint256",
							"name": "age",
							"type": "uint256"
						}
					],
					"stateMutability": "view",
					"type": "function"
				},
				{
					"inputs": [
						{
							"internalType": "address",
							"name": "",
							"type": "address"
						}
					],
					"name": "humanMapping",
					"outputs": [
						{
							"internalType": "string",
							"name": "name",
							"type": "string"
						},
						{
							"internalType": "uint256",
							"name": "age",
							"type": "uint256"
						}
					],
					"stateMutability": "view",
					"type": "function"
				}
			],
			"devdoc": {
				"kind": "dev",
				"methods": {},
				"version": 1
			},
			"evm": {
				"assembly": "    /* \"Example/Ex5_9.sol\":0:757  contract Ex5_9{... */\n  mstore(0x40, 0x80)\n  callvalue\n  dup1\n  iszero\n  tag_1\n  jumpi\n  0x00\n  dup1\n  revert\ntag_1:\n  pop\n  dataSize(sub_0)\n  dup1\n  dataOffset(sub_0)\n  0x00\n  codecopy\n  0x00\n  return\nstop\n\nsub_0: assembly {\n        /* \"Example/Ex5_9.sol\":0:757  contract Ex5_9{... */\n      mstore(0x40, 0x80)\n      callvalue\n      dup1\n      iszero\n      tag_1\n      jumpi\n      0x00\n      dup1\n      revert\n    tag_1:\n      pop\n      jumpi(tag_2, lt(calldatasize, 0x04))\n      shr(0xe0, calldataload(0x00))\n      dup1\n      0x4b61dd34\n      gt\n      tag_10\n      jumpi\n      dup1\n      0x4b61dd34\n      eq\n      tag_6\n      jumpi\n      dup1\n      0xa677c48f\n      eq\n      tag_7\n      jumpi\n      dup1\n      0xa857bf32\n      eq\n      tag_8\n      jumpi\n      dup1\n      0xb9d6dedb\n      eq\n      tag_9\n      jumpi\n      jump(tag_2)\n    tag_10:\n      dup1\n      0x0d3de88d\n      eq\n      tag_3\n      jumpi\n      dup1\n      0x0e0c243d\n      eq\n      tag_4\n      jumpi\n      dup1\n      0x380a4250\n      eq\n      tag_5\n      jumpi\n    tag_2:\n      0x00\n      dup1\n      revert\n        /* \"Example/Ex5_9.sol\":164:270  function addArray(string memory _name,uint _age) public{... */\n    tag_3:\n      tag_11\n      0x04\n      dup1\n      calldatasize\n      sub\n      dup2\n      add\n      swap1\n      tag_12\n      swap2\n      swap1\n      tag_13\n      jump\t// in\n    tag_12:\n      tag_14\n      jump\t// in\n    tag_11:\n      stop\n        /* \"Example/Ex5_9.sol\":506:631  function addMapping(address _key, string memory _name,uint _age) public {... */\n    tag_4:\n      tag_15\n      0x04\n      dup1\n      calldatasize\n      sub\n      dup2\n      add\n      swap1\n      tag_16\n      swap2\n      swap1\n      tag_17\n      jump\t// in\n    tag_16:\n      tag_18\n      jump\t// in\n    tag_15:\n      stop\n        /* \"Example/Ex5_9.sol\":396:501  function getArrayAge(uint _index) public view returns(uint){... */\n    tag_5:\n      tag_19\n      0x04\n      dup1\n      calldatasize\n      sub\n      dup2\n      add\n      swap1\n      tag_20\n      swap2\n      swap1\n      tag_21\n      jump\t// in\n    tag_20:\n      tag_22\n      jump\t// in\n    tag_19:\n      mload(0x40)\n      tag_23\n      swap2\n      swap1\n      tag_24\n      jump\t// in\n    tag_23:\n      mload(0x40)\n      dup1\n      swap2\n      sub\n      swap1\n      return\n        /* \"Example/Ex5_9.sol\":636:755  function getMappingName(address _key) public view returns(string memory){... */\n    tag_6:\n      tag_25\n      0x04\n      dup1\n      calldatasize\n      sub\n      dup2\n      add\n      swap1\n      tag_26\n      swap2\n      swap1\n      tag_27\n      jump\t// in\n    tag_26:\n      tag_28\n      jump\t// in\n    tag_25:\n      mload(0x40)\n      tag_29\n      swap2\n      swap1\n      tag_30\n      jump\t// in\n    tag_29:\n      mload(0x40)\n      dup1\n      swap2\n      sub\n      swap1\n      return\n        /* \"Example/Ex5_9.sol\":275:391  function getArrayName(uint _index) public view returns(string memory){... */\n    tag_7:\n      tag_31\n      0x04\n      dup1\n      calldatasize\n      sub\n      dup2\n      add\n      swap1\n      tag_32\n      swap2\n      swap1\n      tag_21\n      jump\t// in\n    tag_32:\n      tag_33\n      jump\t// in\n    tag_31:\n      mload(0x40)\n      tag_34\n      swap2\n      swap1\n      tag_30\n      jump\t// in\n    tag_34:\n      mload(0x40)\n      dup1\n      swap2\n      sub\n      swap1\n      return\n        /* \"Example/Ex5_9.sol\":114:157  mapping(address=>Human) public humanMapping */\n    tag_8:\n      tag_35\n      0x04\n      dup1\n      calldatasize\n      sub\n      dup2\n      add\n      swap1\n      tag_36\n      swap2\n      swap1\n      tag_27\n      jump\t// in\n    tag_36:\n      tag_37\n      jump\t// in\n    tag_35:\n      mload(0x40)\n      tag_38\n      swap3\n      swap2\n      swap1\n      tag_39\n      jump\t// in\n    tag_38:\n      mload(0x40)\n      dup1\n      swap2\n      sub\n      swap1\n      return\n        /* \"Example/Ex5_9.sol\":84:108  Human[]public humanArray */\n    tag_9:\n      tag_40\n      0x04\n      dup1\n      calldatasize\n      sub\n      dup2\n      add\n      swap1\n      tag_41\n      swap2\n      swap1\n      tag_21\n      jump\t// in\n    tag_41:\n      tag_42\n      jump\t// in\n    tag_40:\n      mload(0x40)\n      tag_43\n      swap3\n      swap2\n      swap1\n      tag_39\n      jump\t// in\n    tag_43:\n      mload(0x40)\n      dup1\n      swap2\n      sub\n      swap1\n      return\n        /* \"Example/Ex5_9.sol\":164:270  function addArray(string memory _name,uint _age) public{... */\n    tag_14:\n        /* \"Example/Ex5_9.sol\":229:239  humanArray */\n      0x00\n        /* \"Example/Ex5_9.sol\":245:262  Human(_name,_age) */\n      mload(0x40)\n      dup1\n      0x40\n      add\n      0x40\n      mstore\n      dup1\n        /* \"Example/Ex5_9.sol\":251:256  _name */\n      dup5\n        /* \"Example/Ex5_9.sol\":245:262  Human(_name,_age) */\n      dup2\n      mstore\n      0x20\n      add\n        /* \"Example/Ex5_9.sol\":257:261  _age */\n      dup4\n        /* \"Example/Ex5_9.sol\":245:262  Human(_name,_age) */\n      dup2\n      mstore\n      pop\n        /* \"Example/Ex5_9.sol\":229:263  humanArray.push(Human(_name,_age)) */\n      swap1\n      dup1\n      0x01\n      dup2\n      sload\n      add\n      dup1\n      dup3\n      sstore\n      dup1\n      swap2\n      pop\n      pop\n      0x01\n      swap1\n      sub\n      swap1\n      0x00\n      mstore\n      keccak256(0x00, 0x20)\n      swap1\n      0x02\n      mul\n      add\n      0x00\n      swap1\n      swap2\n      swap1\n      swap2\n      swap1\n      swap2\n      pop\n      0x00\n      dup3\n      add\n      mload\n      dup2\n      0x00\n      add\n      swap1\n      dup2\n      tag_46\n      swap2\n      swap1\n      tag_47\n      jump\t// in\n    tag_46:\n      pop\n      0x20\n      dup3\n      add\n      mload\n      dup2\n      0x01\n      add\n      sstore\n      pop\n      pop\n        /* \"Example/Ex5_9.sol\":164:270  function addArray(string memory _name,uint _age) public{... */\n      pop\n      pop\n      jump\t// out\n        /* \"Example/Ex5_9.sol\":506:631  function addMapping(address _key, string memory _name,uint _age) public {... */\n    tag_18:\n        /* \"Example/Ex5_9.sol\":607:624  Human(_name,_age) */\n      mload(0x40)\n      dup1\n      0x40\n      add\n      0x40\n      mstore\n      dup1\n        /* \"Example/Ex5_9.sol\":613:618  _name */\n      dup4\n        /* \"Example/Ex5_9.sol\":607:624  Human(_name,_age) */\n      dup2\n      mstore\n      0x20\n      add\n        /* \"Example/Ex5_9.sol\":619:623  _age */\n      dup3\n        /* \"Example/Ex5_9.sol\":607:624  Human(_name,_age) */\n      dup2\n      mstore\n      pop\n        /* \"Example/Ex5_9.sol\":588:600  humanMapping */\n      0x01\n        /* \"Example/Ex5_9.sol\":588:606  humanMapping[_key] */\n      0x00\n        /* \"Example/Ex5_9.sol\":601:605  _key */\n      dup6\n        /* \"Example/Ex5_9.sol\":588:606  humanMapping[_key] */\n      0xffffffffffffffffffffffffffffffffffffffff\n      and\n      0xffffffffffffffffffffffffffffffffffffffff\n      and\n      dup2\n      mstore\n      0x20\n      add\n      swap1\n      dup2\n      mstore\n      0x20\n      add\n      0x00\n      keccak256\n        /* \"Example/Ex5_9.sol\":588:624  humanMapping[_key]=Human(_name,_age) */\n      0x00\n      dup3\n      add\n      mload\n      dup2\n      0x00\n      add\n      swap1\n      dup2\n      tag_49\n      swap2\n      swap1\n      tag_47\n      jump\t// in\n    tag_49:\n      pop\n      0x20\n      dup3\n      add\n      mload\n      dup2\n      0x01\n      add\n      sstore\n      swap1\n      pop\n      pop\n        /* \"Example/Ex5_9.sol\":506:631  function addMapping(address _key, string memory _name,uint _age) public {... */\n      pop\n      pop\n      pop\n      jump\t// out\n        /* \"Example/Ex5_9.sol\":396:501  function getArrayAge(uint _index) public view returns(uint){... */\n    tag_22:\n        /* \"Example/Ex5_9.sol\":450:454  uint */\n      0x00\n        /* \"Example/Ex5_9.sol\":472:482  humanArray */\n      dup1\n        /* \"Example/Ex5_9.sol\":483:489  _index */\n      dup3\n        /* \"Example/Ex5_9.sol\":472:490  humanArray[_index] */\n      dup2\n      sload\n      dup2\n      lt\n      tag_51\n      jumpi\n      tag_52\n      tag_53\n      jump\t// in\n    tag_52:\n    tag_51:\n      swap1\n      0x00\n      mstore\n      keccak256(0x00, 0x20)\n      swap1\n      0x02\n      mul\n      add\n        /* \"Example/Ex5_9.sol\":472:494  humanArray[_index].age */\n      0x01\n      add\n      sload\n        /* \"Example/Ex5_9.sol\":465:494  return humanArray[_index].age */\n      swap1\n      pop\n        /* \"Example/Ex5_9.sol\":396:501  function getArrayAge(uint _index) public view returns(uint){... */\n      swap2\n      swap1\n      pop\n      jump\t// out\n        /* \"Example/Ex5_9.sol\":636:755  function getMappingName(address _key) public view returns(string memory){... */\n    tag_28:\n        /* \"Example/Ex5_9.sol\":694:707  string memory */\n      0x60\n        /* \"Example/Ex5_9.sol\":725:737  humanMapping */\n      0x01\n        /* \"Example/Ex5_9.sol\":725:743  humanMapping[_key] */\n      0x00\n        /* \"Example/Ex5_9.sol\":738:742  _key */\n      dup4\n        /* \"Example/Ex5_9.sol\":725:743  humanMapping[_key] */\n      0xffffffffffffffffffffffffffffffffffffffff\n      and\n      0xffffffffffffffffffffffffffffffffffffffff\n      and\n      dup2\n      mstore\n      0x20\n      add\n      swap1\n      dup2\n      mstore\n      0x20\n      add\n      0x00\n      keccak256\n        /* \"Example/Ex5_9.sol\":725:748  humanMapping[_key].name */\n      0x00\n      add\n        /* \"Example/Ex5_9.sol\":718:748  return humanMapping[_key].name */\n      dup1\n      sload\n      tag_56\n      swap1\n      tag_57\n      jump\t// in\n    tag_56:\n      dup1\n      0x1f\n      add\n      0x20\n      dup1\n      swap2\n      div\n      mul\n      0x20\n      add\n      mload(0x40)\n      swap1\n      dup2\n      add\n      0x40\n      mstore\n      dup1\n      swap3\n      swap2\n      swap1\n      dup2\n      dup2\n      mstore\n      0x20\n      add\n      dup3\n      dup1\n      sload\n      tag_58\n      swap1\n      tag_57\n      jump\t// in\n    tag_58:\n      dup1\n      iszero\n      tag_59\n      jumpi\n      dup1\n      0x1f\n      lt\n      tag_60\n      jumpi\n      0x0100\n      dup1\n      dup4\n      sload\n      div\n      mul\n      dup4\n      mstore\n      swap2\n      0x20\n      add\n      swap2\n      jump(tag_59)\n    tag_60:\n      dup3\n      add\n      swap2\n      swap1\n      0x00\n      mstore\n      keccak256(0x00, 0x20)\n      swap1\n    tag_61:\n      dup2\n      sload\n      dup2\n      mstore\n      swap1\n      0x01\n      add\n      swap1\n      0x20\n      add\n      dup1\n      dup4\n      gt\n      tag_61\n      jumpi\n      dup3\n      swap1\n      sub\n      0x1f\n      and\n      dup3\n      add\n      swap2\n    tag_59:\n      pop\n      pop\n      pop\n      pop\n      pop\n      swap1\n      pop\n        /* \"Example/Ex5_9.sol\":636:755  function getMappingName(address _key) public view returns(string memory){... */\n      swap2\n      swap1\n      pop\n      jump\t// out\n        /* \"Example/Ex5_9.sol\":275:391  function getArrayName(uint _index) public view returns(string memory){... */\n    tag_33:\n        /* \"Example/Ex5_9.sol\":330:343  string memory */\n      0x60\n        /* \"Example/Ex5_9.sol\":361:371  humanArray */\n      0x00\n        /* \"Example/Ex5_9.sol\":372:378  _index */\n      dup3\n        /* \"Example/Ex5_9.sol\":361:379  humanArray[_index] */\n      dup2\n      sload\n      dup2\n      lt\n      tag_63\n      jumpi\n      tag_64\n      tag_53\n      jump\t// in\n    tag_64:\n    tag_63:\n      swap1\n      0x00\n      mstore\n      keccak256(0x00, 0x20)\n      swap1\n      0x02\n      mul\n      add\n        /* \"Example/Ex5_9.sol\":361:384  humanArray[_index].name */\n      0x00\n      add\n        /* \"Example/Ex5_9.sol\":354:384  return humanArray[_index].name */\n      dup1\n      sload\n      tag_66\n      swap1\n      tag_57\n      jump\t// in\n    tag_66:\n      dup1\n      0x1f\n      add\n      0x20\n      dup1\n      swap2\n      div\n      mul\n      0x20\n      add\n      mload(0x40)\n      swap1\n      dup2\n      add\n      0x40\n      mstore\n      dup1\n      swap3\n      swap2\n      swap1\n      dup2\n      dup2\n      mstore\n      0x20\n      add\n      dup3\n      dup1\n      sload\n      tag_67\n      swap1\n      tag_57\n      jump\t// in\n    tag_67:\n      dup1\n      iszero\n      tag_68\n      jumpi\n      dup1\n      0x1f\n      lt\n      tag_69\n      jumpi\n      0x0100\n      dup1\n      dup4\n      sload\n      div\n      mul\n      dup4\n      mstore\n      swap2\n      0x20\n      add\n      swap2\n      jump(tag_68)\n    tag_69:\n      dup3\n      add\n      swap2\n      swap1\n      0x00\n      mstore\n      keccak256(0x00, 0x20)\n      swap1\n    tag_70:\n      dup2\n      sload\n      dup2\n      mstore\n      swap1\n      0x01\n      add\n      swap1\n      0x20\n      add\n      dup1\n      dup4\n      gt\n      tag_70\n      jumpi\n      dup3\n      swap1\n      sub\n      0x1f\n      and\n      dup3\n      add\n      swap2\n    tag_68:\n      pop\n      pop\n      pop\n      pop\n      pop\n      swap1\n      pop\n        /* \"Example/Ex5_9.sol\":275:391  function getArrayName(uint _index) public view returns(string memory){... */\n      swap2\n      swap1\n      pop\n      jump\t// out\n        /* \"Example/Ex5_9.sol\":114:157  mapping(address=>Human) public humanMapping */\n    tag_37:\n      mstore(0x20, 0x01)\n      dup1\n      0x00\n      mstore\n      keccak256(0x00, 0x40)\n      0x00\n      swap2\n      pop\n      swap1\n      pop\n      dup1\n      0x00\n      add\n      dup1\n      sload\n      tag_71\n      swap1\n      tag_57\n      jump\t// in\n    tag_71:\n      dup1\n      0x1f\n      add\n      0x20\n      dup1\n      swap2\n      div\n      mul\n      0x20\n      add\n      mload(0x40)\n      swap1\n      dup2\n      add\n      0x40\n      mstore\n      dup1\n      swap3\n      swap2\n      swap1\n      dup2\n      dup2\n      mstore\n      0x20\n      add\n      dup3\n      dup1\n      sload\n      tag_72\n      swap1\n      tag_57\n      jump\t// in\n    tag_72:\n      dup1\n      iszero\n      tag_73\n      jumpi\n      dup1\n      0x1f\n      lt\n      tag_74\n      jumpi\n      0x0100\n      dup1\n      dup4\n      sload\n      div\n      mul\n      dup4\n      mstore\n      swap2\n      0x20\n      add\n      swap2\n      jump(tag_73)\n    tag_74:\n      dup3\n      add\n      swap2\n      swap1\n      0x00\n      mstore\n      keccak256(0x00, 0x20)\n      swap1\n    tag_75:\n      dup2\n      sload\n      dup2\n      mstore\n      swap1\n      0x01\n      add\n      swap1\n      0x20\n      add\n      dup1\n      dup4\n      gt\n      tag_75\n      jumpi\n      dup3\n      swap1\n      sub\n      0x1f\n      and\n      dup3\n      add\n      swap2\n    tag_73:\n      pop\n      pop\n      pop\n      pop\n      pop\n      swap1\n      dup1\n      0x01\n      add\n      sload\n      swap1\n      pop\n      dup3\n      jump\t// out\n        /* \"Example/Ex5_9.sol\":84:108  Human[]public humanArray */\n    tag_42:\n      0x00\n      dup2\n      dup2\n      sload\n      dup2\n      lt\n      tag_76\n      jumpi\n      0x00\n      dup1\n      revert\n    tag_76:\n      swap1\n      0x00\n      mstore\n      keccak256(0x00, 0x20)\n      swap1\n      0x02\n      mul\n      add\n      0x00\n      swap2\n      pop\n      swap1\n      pop\n      dup1\n      0x00\n      add\n      dup1\n      sload\n      tag_78\n      swap1\n      tag_57\n      jump\t// in\n    tag_78:\n      dup1\n      0x1f\n      add\n      0x20\n      dup1\n      swap2\n      div\n      mul\n      0x20\n      add\n      mload(0x40)\n      swap1\n      dup2\n      add\n      0x40\n      mstore\n      dup1\n      swap3\n      swap2\n      swap1\n      dup2\n      dup2\n      mstore\n      0x20\n      add\n      dup3\n      dup1\n      sload\n      tag_79\n      swap1\n      tag_57\n      jump\t// in\n    tag_79:\n      dup1\n      iszero\n      tag_80\n      jumpi\n      dup1\n      0x1f\n      lt\n      tag_81\n      jumpi\n      0x0100\n      dup1\n      dup4\n      sload\n      div\n      mul\n      dup4\n      mstore\n      swap2\n      0x20\n      add\n      swap2\n      jump(tag_80)\n    tag_81:\n      dup3\n      add\n      swap2\n      swap1\n      0x00\n      mstore\n      keccak256(0x00, 0x20)\n      swap1\n    tag_82:\n      dup2\n      sload\n      dup2\n      mstore\n      swap1\n      0x01\n      add\n      swap1\n      0x20\n      add\n      dup1\n      dup4\n      gt\n      tag_82\n      jumpi\n      dup3\n      swap1\n      sub\n      0x1f\n      and\n      dup3\n      add\n      swap2\n    tag_80:\n      pop\n      pop\n      pop\n      pop\n      pop\n      swap1\n      dup1\n      0x01\n      add\n      sload\n      swap1\n      pop\n      dup3\n      jump\t// out\n        /* \"#utility.yul\":7:82   */\n    tag_83:\n        /* \"#utility.yul\":40:46   */\n      0x00\n        /* \"#utility.yul\":73:75   */\n      0x40\n        /* \"#utility.yul\":67:76   */\n      mload\n        /* \"#utility.yul\":57:76   */\n      swap1\n      pop\n        /* \"#utility.yul\":7:82   */\n      swap1\n      jump\t// out\n        /* \"#utility.yul\":88:205   */\n    tag_84:\n        /* \"#utility.yul\":197:198   */\n      0x00\n        /* \"#utility.yul\":194:195   */\n      dup1\n        /* \"#utility.yul\":187:199   */\n      revert\n        /* \"#utility.yul\":211:328   */\n    tag_85:\n        /* \"#utility.yul\":320:321   */\n      0x00\n        /* \"#utility.yul\":317:318   */\n      dup1\n        /* \"#utility.yul\":310:322   */\n      revert\n        /* \"#utility.yul\":334:451   */\n    tag_86:\n        /* \"#utility.yul\":443:444   */\n      0x00\n        /* \"#utility.yul\":440:441   */\n      dup1\n        /* \"#utility.yul\":433:445   */\n      revert\n        /* \"#utility.yul\":457:574   */\n    tag_87:\n        /* \"#utility.yul\":566:567   */\n      0x00\n        /* \"#utility.yul\":563:564   */\n      dup1\n        /* \"#utility.yul\":556:568   */\n      revert\n        /* \"#utility.yul\":580:682   */\n    tag_88:\n        /* \"#utility.yul\":621:627   */\n      0x00\n        /* \"#utility.yul\":672:674   */\n      0x1f\n        /* \"#utility.yul\":668:675   */\n      not\n        /* \"#utility.yul\":663:665   */\n      0x1f\n        /* \"#utility.yul\":656:661   */\n      dup4\n        /* \"#utility.yul\":652:666   */\n      add\n        /* \"#utility.yul\":648:676   */\n      and\n        /* \"#utility.yul\":638:676   */\n      swap1\n      pop\n        /* \"#utility.yul\":580:682   */\n      swap2\n      swap1\n      pop\n      jump\t// out\n        /* \"#utility.yul\":688:868   */\n    tag_89:\n        /* \"#utility.yul\":736:813   */\n      0x4e487b7100000000000000000000000000000000000000000000000000000000\n        /* \"#utility.yul\":733:734   */\n      0x00\n        /* \"#utility.yul\":726:814   */\n      mstore\n        /* \"#utility.yul\":833:837   */\n      0x41\n        /* \"#utility.yul\":830:831   */\n      0x04\n        /* \"#utility.yul\":823:838   */\n      mstore\n        /* \"#utility.yul\":857:861   */\n      0x24\n        /* \"#utility.yul\":854:855   */\n      0x00\n        /* \"#utility.yul\":847:862   */\n      revert\n        /* \"#utility.yul\":874:1155   */\n    tag_90:\n        /* \"#utility.yul\":957:984   */\n      tag_133\n        /* \"#utility.yul\":979:983   */\n      dup3\n        /* \"#utility.yul\":957:984   */\n      tag_88\n      jump\t// in\n    tag_133:\n        /* \"#utility.yul\":949:955   */\n      dup2\n        /* \"#utility.yul\":945:985   */\n      add\n        /* \"#utility.yul\":1087:1093   */\n      dup2\n        /* \"#utility.yul\":1075:1085   */\n      dup2\n        /* \"#utility.yul\":1072:1094   */\n      lt\n        /* \"#utility.yul\":1051:1069   */\n      0xffffffffffffffff\n        /* \"#utility.yul\":1039:1049   */\n      dup3\n        /* \"#utility.yul\":1036:1070   */\n      gt\n        /* \"#utility.yul\":1033:1095   */\n      or\n        /* \"#utility.yul\":1030:1118   */\n      iszero\n      tag_134\n      jumpi\n        /* \"#utility.yul\":1098:1116   */\n      tag_135\n      tag_89\n      jump\t// in\n    tag_135:\n        /* \"#utility.yul\":1030:1118   */\n    tag_134:\n        /* \"#utility.yul\":1138:1148   */\n      dup1\n        /* \"#utility.yul\":1134:1136   */\n      0x40\n        /* \"#utility.yul\":1127:1149   */\n      mstore\n        /* \"#utility.yul\":917:1155   */\n      pop\n        /* \"#utility.yul\":874:1155   */\n      pop\n      pop\n      jump\t// out\n        /* \"#utility.yul\":1161:1290   */\n    tag_91:\n        /* \"#utility.yul\":1195:1201   */\n      0x00\n        /* \"#utility.yul\":1222:1242   */\n      tag_137\n      tag_83\n      jump\t// in\n    tag_137:\n        /* \"#utility.yul\":1212:1242   */\n      swap1\n      pop\n        /* \"#utility.yul\":1251:1284   */\n      tag_138\n        /* \"#utility.yul\":1279:1283   */\n      dup3\n        /* \"#utility.yul\":1271:1277   */\n      dup3\n        /* \"#utility.yul\":1251:1284   */\n      tag_90\n      jump\t// in\n    tag_138:\n        /* \"#utility.yul\":1161:1290   */\n      swap2\n      swap1\n      pop\n      jump\t// out\n        /* \"#utility.yul\":1296:1604   */\n    tag_92:\n        /* \"#utility.yul\":1358:1362   */\n      0x00\n        /* \"#utility.yul\":1448:1466   */\n      0xffffffffffffffff\n        /* \"#utility.yul\":1440:1446   */\n      dup3\n        /* \"#utility.yul\":1437:1467   */\n      gt\n        /* \"#utility.yul\":1434:1490   */\n      iszero\n      tag_140\n      jumpi\n        /* \"#utility.yul\":1470:1488   */\n      tag_141\n      tag_89\n      jump\t// in\n    tag_141:\n        /* \"#utility.yul\":1434:1490   */\n    tag_140:\n        /* \"#utility.yul\":1508:1537   */\n      tag_142\n        /* \"#utility.yul\":1530:1536   */\n      dup3\n        /* \"#utility.yul\":1508:1537   */\n      tag_88\n      jump\t// in\n    tag_142:\n        /* \"#utility.yul\":1500:1537   */\n      swap1\n      pop\n        /* \"#utility.yul\":1592:1596   */\n      0x20\n        /* \"#utility.yul\":1586:1590   */\n      dup2\n        /* \"#utility.yul\":1582:1597   */\n      add\n        /* \"#utility.yul\":1574:1597   */\n      swap1\n      pop\n        /* \"#utility.yul\":1296:1604   */\n      swap2\n      swap1\n      pop\n      jump\t// out\n        /* \"#utility.yul\":1610:1758   */\n    tag_93:\n        /* \"#utility.yul\":1708:1714   */\n      dup3\n        /* \"#utility.yul\":1703:1706   */\n      dup2\n        /* \"#utility.yul\":1698:1701   */\n      dup4\n        /* \"#utility.yul\":1685:1715   */\n      calldatacopy\n        /* \"#utility.yul\":1749:1750   */\n      0x00\n        /* \"#utility.yul\":1740:1746   */\n      dup4\n        /* \"#utility.yul\":1735:1738   */\n      dup4\n        /* \"#utility.yul\":1731:1747   */\n      add\n        /* \"#utility.yul\":1724:1751   */\n      mstore\n        /* \"#utility.yul\":1610:1758   */\n      pop\n      pop\n      pop\n      jump\t// out\n        /* \"#utility.yul\":1764:2189   */\n    tag_94:\n        /* \"#utility.yul\":1842:1847   */\n      0x00\n        /* \"#utility.yul\":1867:1933   */\n      tag_145\n        /* \"#utility.yul\":1883:1932   */\n      tag_146\n        /* \"#utility.yul\":1925:1931   */\n      dup5\n        /* \"#utility.yul\":1883:1932   */\n      tag_92\n      jump\t// in\n    tag_146:\n        /* \"#utility.yul\":1867:1933   */\n      tag_91\n      jump\t// in\n    tag_145:\n        /* \"#utility.yul\":1858:1933   */\n      swap1\n      pop\n        /* \"#utility.yul\":1956:1962   */\n      dup3\n        /* \"#utility.yul\":1949:1954   */\n      dup2\n        /* \"#utility.yul\":1942:1963   */\n      mstore\n        /* \"#utility.yul\":1994:1998   */\n      0x20\n        /* \"#utility.yul\":1987:1992   */\n      dup2\n        /* \"#utility.yul\":1983:1999   */\n      add\n        /* \"#utility.yul\":2032:2035   */\n      dup5\n        /* \"#utility.yul\":2023:2029   */\n      dup5\n        /* \"#utility.yul\":2018:2021   */\n      dup5\n        /* \"#utility.yul\":2014:2030   */\n      add\n        /* \"#utility.yul\":2011:2036   */\n      gt\n        /* \"#utility.yul\":2008:2120   */\n      iszero\n      tag_147\n      jumpi\n        /* \"#utility.yul\":2039:2118   */\n      tag_148\n      tag_87\n      jump\t// in\n    tag_148:\n        /* \"#utility.yul\":2008:2120   */\n    tag_147:\n        /* \"#utility.yul\":2129:2183   */\n      tag_149\n        /* \"#utility.yul\":2176:2182   */\n      dup5\n        /* \"#utility.yul\":2171:2174   */\n      dup3\n        /* \"#utility.yul\":2166:2169   */\n      dup6\n        /* \"#utility.yul\":2129:2183   */\n      tag_93\n      jump\t// in\n    tag_149:\n        /* \"#utility.yul\":1848:2189   */\n      pop\n        /* \"#utility.yul\":1764:2189   */\n      swap4\n      swap3\n      pop\n      pop\n      pop\n      jump\t// out\n        /* \"#utility.yul\":2209:2549   */\n    tag_95:\n        /* \"#utility.yul\":2265:2270   */\n      0x00\n        /* \"#utility.yul\":2314:2317   */\n      dup3\n        /* \"#utility.yul\":2307:2311   */\n      0x1f\n        /* \"#utility.yul\":2299:2305   */\n      dup4\n        /* \"#utility.yul\":2295:2312   */\n      add\n        /* \"#utility.yul\":2291:2318   */\n      slt\n        /* \"#utility.yul\":2281:2403   */\n      tag_151\n      jumpi\n        /* \"#utility.yul\":2322:2401   */\n      tag_152\n      tag_86\n      jump\t// in\n    tag_152:\n        /* \"#utility.yul\":2281:2403   */\n    tag_151:\n        /* \"#utility.yul\":2439:2445   */\n      dup2\n        /* \"#utility.yul\":2426:2446   */\n      calldataload\n        /* \"#utility.yul\":2464:2543   */\n      tag_153\n        /* \"#utility.yul\":2539:2542   */\n      dup5\n        /* \"#utility.yul\":2531:2537   */\n      dup3\n        /* \"#utility.yul\":2524:2528   */\n      0x20\n        /* \"#utility.yul\":2516:2522   */\n      dup7\n        /* \"#utility.yul\":2512:2529   */\n      add\n        /* \"#utility.yul\":2464:2543   */\n      tag_94\n      jump\t// in\n    tag_153:\n        /* \"#utility.yul\":2455:2543   */\n      swap2\n      pop\n        /* \"#utility.yul\":2271:2549   */\n      pop\n        /* \"#utility.yul\":2209:2549   */\n      swap3\n      swap2\n      pop\n      pop\n      jump\t// out\n        /* \"#utility.yul\":2555:2632   */\n    tag_96:\n        /* \"#utility.yul\":2592:2599   */\n      0x00\n        /* \"#utility.yul\":2621:2626   */\n      dup2\n        /* \"#utility.yul\":2610:2626   */\n      swap1\n      pop\n        /* \"#utility.yul\":2555:2632   */\n      swap2\n      swap1\n      pop\n      jump\t// out\n        /* \"#utility.yul\":2638:2760   */\n    tag_97:\n        /* \"#utility.yul\":2711:2735   */\n      tag_156\n        /* \"#utility.yul\":2729:2734   */\n      dup2\n        /* \"#utility.yul\":2711:2735   */\n      tag_96\n      jump\t// in\n    tag_156:\n        /* \"#utility.yul\":2704:2709   */\n      dup2\n        /* \"#utility.yul\":2701:2736   */\n      eq\n        /* \"#utility.yul\":2691:2754   */\n      tag_157\n      jumpi\n        /* \"#utility.yul\":2750:2751   */\n      0x00\n        /* \"#utility.yul\":2747:2748   */\n      dup1\n        /* \"#utility.yul\":2740:2752   */\n      revert\n        /* \"#utility.yul\":2691:2754   */\n    tag_157:\n        /* \"#utility.yul\":2638:2760   */\n      pop\n      jump\t// out\n        /* \"#utility.yul\":2766:2905   */\n    tag_98:\n        /* \"#utility.yul\":2812:2817   */\n      0x00\n        /* \"#utility.yul\":2850:2856   */\n      dup2\n        /* \"#utility.yul\":2837:2857   */\n      calldataload\n        /* \"#utility.yul\":2828:2857   */\n      swap1\n      pop\n        /* \"#utility.yul\":2866:2899   */\n      tag_159\n        /* \"#utility.yul\":2893:2898   */\n      dup2\n        /* \"#utility.yul\":2866:2899   */\n      tag_97\n      jump\t// in\n    tag_159:\n        /* \"#utility.yul\":2766:2905   */\n      swap3\n      swap2\n      pop\n      pop\n      jump\t// out\n        /* \"#utility.yul\":2911:3565   */\n    tag_13:\n        /* \"#utility.yul\":2989:2995   */\n      0x00\n        /* \"#utility.yul\":2997:3003   */\n      dup1\n        /* \"#utility.yul\":3046:3048   */\n      0x40\n        /* \"#utility.yul\":3034:3043   */\n      dup4\n        /* \"#utility.yul\":3025:3032   */\n      dup6\n        /* \"#utility.yul\":3021:3044   */\n      sub\n        /* \"#utility.yul\":3017:3049   */\n      slt\n        /* \"#utility.yul\":3014:3133   */\n      iszero\n      tag_161\n      jumpi\n        /* \"#utility.yul\":3052:3131   */\n      tag_162\n      tag_84\n      jump\t// in\n    tag_162:\n        /* \"#utility.yul\":3014:3133   */\n    tag_161:\n        /* \"#utility.yul\":3200:3201   */\n      0x00\n        /* \"#utility.yul\":3189:3198   */\n      dup4\n        /* \"#utility.yul\":3185:3202   */\n      add\n        /* \"#utility.yul\":3172:3203   */\n      calldataload\n        /* \"#utility.yul\":3230:3248   */\n      0xffffffffffffffff\n        /* \"#utility.yul\":3222:3228   */\n      dup2\n        /* \"#utility.yul\":3219:3249   */\n      gt\n        /* \"#utility.yul\":3216:3333   */\n      iszero\n      tag_163\n      jumpi\n        /* \"#utility.yul\":3252:3331   */\n      tag_164\n      tag_85\n      jump\t// in\n    tag_164:\n        /* \"#utility.yul\":3216:3333   */\n    tag_163:\n        /* \"#utility.yul\":3357:3420   */\n      tag_165\n        /* \"#utility.yul\":3412:3419   */\n      dup6\n        /* \"#utility.yul\":3403:3409   */\n      dup3\n        /* \"#utility.yul\":3392:3401   */\n      dup7\n        /* \"#utility.yul\":3388:3410   */\n      add\n        /* \"#utility.yul\":3357:3420   */\n      tag_95\n      jump\t// in\n    tag_165:\n        /* \"#utility.yul\":3347:3420   */\n      swap3\n      pop\n        /* \"#utility.yul\":3143:3430   */\n      pop\n        /* \"#utility.yul\":3469:3471   */\n      0x20\n        /* \"#utility.yul\":3495:3548   */\n      tag_166\n        /* \"#utility.yul\":3540:3547   */\n      dup6\n        /* \"#utility.yul\":3531:3537   */\n      dup3\n        /* \"#utility.yul\":3520:3529   */\n      dup7\n        /* \"#utility.yul\":3516:3538   */\n      add\n        /* \"#utility.yul\":3495:3548   */\n      tag_98\n      jump\t// in\n    tag_166:\n        /* \"#utility.yul\":3485:3548   */\n      swap2\n      pop\n        /* \"#utility.yul\":3440:3558   */\n      pop\n        /* \"#utility.yul\":2911:3565   */\n      swap3\n      pop\n      swap3\n      swap1\n      pop\n      jump\t// out\n        /* \"#utility.yul\":3571:3697   */\n    tag_99:\n        /* \"#utility.yul\":3608:3615   */\n      0x00\n        /* \"#utility.yul\":3648:3690   */\n      0xffffffffffffffffffffffffffffffffffffffff\n        /* \"#utility.yul\":3641:3646   */\n      dup3\n        /* \"#utility.yul\":3637:3691   */\n      and\n        /* \"#utility.yul\":3626:3691   */\n      swap1\n      pop\n        /* \"#utility.yul\":3571:3697   */\n      swap2\n      swap1\n      pop\n      jump\t// out\n        /* \"#utility.yul\":3703:3799   */\n    tag_100:\n        /* \"#utility.yul\":3740:3747   */\n      0x00\n        /* \"#utility.yul\":3769:3793   */\n      tag_169\n        /* \"#utility.yul\":3787:3792   */\n      dup3\n        /* \"#utility.yul\":3769:3793   */\n      tag_99\n      jump\t// in\n    tag_169:\n        /* \"#utility.yul\":3758:3793   */\n      swap1\n      pop\n        /* \"#utility.yul\":3703:3799   */\n      swap2\n      swap1\n      pop\n      jump\t// out\n        /* \"#utility.yul\":3805:3927   */\n    tag_101:\n        /* \"#utility.yul\":3878:3902   */\n      tag_171\n        /* \"#utility.yul\":3896:3901   */\n      dup2\n        /* \"#utility.yul\":3878:3902   */\n      tag_100\n      jump\t// in\n    tag_171:\n        /* \"#utility.yul\":3871:3876   */\n      dup2\n        /* \"#utility.yul\":3868:3903   */\n      eq\n        /* \"#utility.yul\":3858:3921   */\n      tag_172\n      jumpi\n        /* \"#utility.yul\":3917:3918   */\n      0x00\n        /* \"#utility.yul\":3914:3915   */\n      dup1\n        /* \"#utility.yul\":3907:3919   */\n      revert\n        /* \"#utility.yul\":3858:3921   */\n    tag_172:\n        /* \"#utility.yul\":3805:3927   */\n      pop\n      jump\t// out\n        /* \"#utility.yul\":3933:4072   */\n    tag_102:\n        /* \"#utility.yul\":3979:3984   */\n      0x00\n        /* \"#utility.yul\":4017:4023   */\n      dup2\n        /* \"#utility.yul\":4004:4024   */\n      calldataload\n        /* \"#utility.yul\":3995:4024   */\n      swap1\n      pop\n        /* \"#utility.yul\":4033:4066   */\n      tag_174\n        /* \"#utility.yul\":4060:4065   */\n      dup2\n        /* \"#utility.yul\":4033:4066   */\n      tag_101\n      jump\t// in\n    tag_174:\n        /* \"#utility.yul\":3933:4072   */\n      swap3\n      swap2\n      pop\n      pop\n      jump\t// out\n        /* \"#utility.yul\":4078:4877   */\n    tag_17:\n        /* \"#utility.yul\":4165:4171   */\n      0x00\n        /* \"#utility.yul\":4173:4179   */\n      dup1\n        /* \"#utility.yul\":4181:4187   */\n      0x00\n        /* \"#utility.yul\":4230:4232   */\n      0x60\n        /* \"#utility.yul\":4218:4227   */\n      dup5\n        /* \"#utility.yul\":4209:4216   */\n      dup7\n        /* \"#utility.yul\":4205:4228   */\n      sub\n        /* \"#utility.yul\":4201:4233   */\n      slt\n        /* \"#utility.yul\":4198:4317   */\n      iszero\n      tag_176\n      jumpi\n        /* \"#utility.yul\":4236:4315   */\n      tag_177\n      tag_84\n      jump\t// in\n    tag_177:\n        /* \"#utility.yul\":4198:4317   */\n    tag_176:\n        /* \"#utility.yul\":4356:4357   */\n      0x00\n        /* \"#utility.yul\":4381:4434   */\n      tag_178\n        /* \"#utility.yul\":4426:4433   */\n      dup7\n        /* \"#utility.yul\":4417:4423   */\n      dup3\n        /* \"#utility.yul\":4406:4415   */\n      dup8\n        /* \"#utility.yul\":4402:4424   */\n      add\n        /* \"#utility.yul\":4381:4434   */\n      tag_102\n      jump\t// in\n    tag_178:\n        /* \"#utility.yul\":4371:4434   */\n      swap4\n      pop\n        /* \"#utility.yul\":4327:4444   */\n      pop\n        /* \"#utility.yul\":4511:4513   */\n      0x20\n        /* \"#utility.yul\":4500:4509   */\n      dup5\n        /* \"#utility.yul\":4496:4514   */\n      add\n        /* \"#utility.yul\":4483:4515   */\n      calldataload\n        /* \"#utility.yul\":4542:4560   */\n      0xffffffffffffffff\n        /* \"#utility.yul\":4534:4540   */\n      dup2\n        /* \"#utility.yul\":4531:4561   */\n      gt\n        /* \"#utility.yul\":4528:4645   */\n      iszero\n      tag_179\n      jumpi\n        /* \"#utility.yul\":4564:4643   */\n      tag_180\n      tag_85\n      jump\t// in\n    tag_180:\n        /* \"#utility.yul\":4528:4645   */\n    tag_179:\n        /* \"#utility.yul\":4669:4732   */\n      tag_181\n        /* \"#utility.yul\":4724:4731   */\n      dup7\n        /* \"#utility.yul\":4715:4721   */\n      dup3\n        /* \"#utility.yul\":4704:4713   */\n      dup8\n        /* \"#utility.yul\":4700:4722   */\n      add\n        /* \"#utility.yul\":4669:4732   */\n      tag_95\n      jump\t// in\n    tag_181:\n        /* \"#utility.yul\":4659:4732   */\n      swap3\n      pop\n        /* \"#utility.yul\":4454:4742   */\n      pop\n        /* \"#utility.yul\":4781:4783   */\n      0x40\n        /* \"#utility.yul\":4807:4860   */\n      tag_182\n        /* \"#utility.yul\":4852:4859   */\n      dup7\n        /* \"#utility.yul\":4843:4849   */\n      dup3\n        /* \"#utility.yul\":4832:4841   */\n      dup8\n        /* \"#utility.yul\":4828:4850   */\n      add\n        /* \"#utility.yul\":4807:4860   */\n      tag_98\n      jump\t// in\n    tag_182:\n        /* \"#utility.yul\":4797:4860   */\n      swap2\n      pop\n        /* \"#utility.yul\":4752:4870   */\n      pop\n        /* \"#utility.yul\":4078:4877   */\n      swap3\n      pop\n      swap3\n      pop\n      swap3\n      jump\t// out\n        /* \"#utility.yul\":4883:5212   */\n    tag_21:\n        /* \"#utility.yul\":4942:4948   */\n      0x00\n        /* \"#utility.yul\":4991:4993   */\n      0x20\n        /* \"#utility.yul\":4979:4988   */\n      dup3\n        /* \"#utility.yul\":4970:4977   */\n      dup5\n        /* \"#utility.yul\":4966:4989   */\n      sub\n        /* \"#utility.yul\":4962:4994   */\n      slt\n        /* \"#utility.yul\":4959:5078   */\n      iszero\n      tag_184\n      jumpi\n        /* \"#utility.yul\":4997:5076   */\n      tag_185\n      tag_84\n      jump\t// in\n    tag_185:\n        /* \"#utility.yul\":4959:5078   */\n    tag_184:\n        /* \"#utility.yul\":5117:5118   */\n      0x00\n        /* \"#utility.yul\":5142:5195   */\n      tag_186\n        /* \"#utility.yul\":5187:5194   */\n      dup5\n        /* \"#utility.yul\":5178:5184   */\n      dup3\n        /* \"#utility.yul\":5167:5176   */\n      dup6\n        /* \"#utility.yul\":5163:5185   */\n      add\n        /* \"#utility.yul\":5142:5195   */\n      tag_98\n      jump\t// in\n    tag_186:\n        /* \"#utility.yul\":5132:5195   */\n      swap2\n      pop\n        /* \"#utility.yul\":5088:5205   */\n      pop\n        /* \"#utility.yul\":4883:5212   */\n      swap3\n      swap2\n      pop\n      pop\n      jump\t// out\n        /* \"#utility.yul\":5218:5336   */\n    tag_103:\n        /* \"#utility.yul\":5305:5329   */\n      tag_188\n        /* \"#utility.yul\":5323:5328   */\n      dup2\n        /* \"#utility.yul\":5305:5329   */\n      tag_96\n      jump\t// in\n    tag_188:\n        /* \"#utility.yul\":5300:5303   */\n      dup3\n        /* \"#utility.yul\":5293:5330   */\n      mstore\n        /* \"#utility.yul\":5218:5336   */\n      pop\n      pop\n      jump\t// out\n        /* \"#utility.yul\":5342:5564   */\n    tag_24:\n        /* \"#utility.yul\":5435:5439   */\n      0x00\n        /* \"#utility.yul\":5473:5475   */\n      0x20\n        /* \"#utility.yul\":5462:5471   */\n      dup3\n        /* \"#utility.yul\":5458:5476   */\n      add\n        /* \"#utility.yul\":5450:5476   */\n      swap1\n      pop\n        /* \"#utility.yul\":5486:5557   */\n      tag_190\n        /* \"#utility.yul\":5554:5555   */\n      0x00\n        /* \"#utility.yul\":5543:5552   */\n      dup4\n        /* \"#utility.yul\":5539:5556   */\n      add\n        /* \"#utility.yul\":5530:5536   */\n      dup5\n        /* \"#utility.yul\":5486:5557   */\n      tag_103\n      jump\t// in\n    tag_190:\n        /* \"#utility.yul\":5342:5564   */\n      swap3\n      swap2\n      pop\n      pop\n      jump\t// out\n        /* \"#utility.yul\":5570:5899   */\n    tag_27:\n        /* \"#utility.yul\":5629:5635   */\n      0x00\n        /* \"#utility.yul\":5678:5680   */\n      0x20\n        /* \"#utility.yul\":5666:5675   */\n      dup3\n        /* \"#utility.yul\":5657:5664   */\n      dup5\n        /* \"#utility.yul\":5653:5676   */\n      sub\n        /* \"#utility.yul\":5649:5681   */\n      slt\n        /* \"#utility.yul\":5646:5765   */\n      iszero\n      tag_192\n      jumpi\n        /* \"#utility.yul\":5684:5763   */\n      tag_193\n      tag_84\n      jump\t// in\n    tag_193:\n        /* \"#utility.yul\":5646:5765   */\n    tag_192:\n        /* \"#utility.yul\":5804:5805   */\n      0x00\n        /* \"#utility.yul\":5829:5882   */\n      tag_194\n        /* \"#utility.yul\":5874:5881   */\n      dup5\n        /* \"#utility.yul\":5865:5871   */\n      dup3\n        /* \"#utility.yul\":5854:5863   */\n      dup6\n        /* \"#utility.yul\":5850:5872   */\n      add\n        /* \"#utility.yul\":5829:5882   */\n      tag_102\n      jump\t// in\n    tag_194:\n        /* \"#utility.yul\":5819:5882   */\n      swap2\n      pop\n        /* \"#utility.yul\":5775:5892   */\n      pop\n        /* \"#utility.yul\":5570:5899   */\n      swap3\n      swap2\n      pop\n      pop\n      jump\t// out\n        /* \"#utility.yul\":5905:6004   */\n    tag_104:\n        /* \"#utility.yul\":5957:5963   */\n      0x00\n        /* \"#utility.yul\":5991:5996   */\n      dup2\n        /* \"#utility.yul\":5985:5997   */\n      mload\n        /* \"#utility.yul\":5975:5997   */\n      swap1\n      pop\n        /* \"#utility.yul\":5905:6004   */\n      swap2\n      swap1\n      pop\n      jump\t// out\n        /* \"#utility.yul\":6010:6179   */\n    tag_105:\n        /* \"#utility.yul\":6094:6105   */\n      0x00\n        /* \"#utility.yul\":6128:6134   */\n      dup3\n        /* \"#utility.yul\":6123:6126   */\n      dup3\n        /* \"#utility.yul\":6116:6135   */\n      mstore\n        /* \"#utility.yul\":6168:6172   */\n      0x20\n        /* \"#utility.yul\":6163:6166   */\n      dup3\n        /* \"#utility.yul\":6159:6173   */\n      add\n        /* \"#utility.yul\":6144:6173   */\n      swap1\n      pop\n        /* \"#utility.yul\":6010:6179   */\n      swap3\n      swap2\n      pop\n      pop\n      jump\t// out\n        /* \"#utility.yul\":6185:6324   */\n    tag_106:\n        /* \"#utility.yul\":6274:6280   */\n      dup3\n        /* \"#utility.yul\":6269:6272   */\n      dup2\n        /* \"#utility.yul\":6264:6267   */\n      dup4\n        /* \"#utility.yul\":6258:6281   */\n      mcopy\n        /* \"#utility.yul\":6315:6316   */\n      0x00\n        /* \"#utility.yul\":6306:6312   */\n      dup4\n        /* \"#utility.yul\":6301:6304   */\n      dup4\n        /* \"#utility.yul\":6297:6313   */\n      add\n        /* \"#utility.yul\":6290:6317   */\n      mstore\n        /* \"#utility.yul\":6185:6324   */\n      pop\n      pop\n      pop\n      jump\t// out\n        /* \"#utility.yul\":6330:6707   */\n    tag_107:\n        /* \"#utility.yul\":6418:6421   */\n      0x00\n        /* \"#utility.yul\":6446:6485   */\n      tag_199\n        /* \"#utility.yul\":6479:6484   */\n      dup3\n        /* \"#utility.yul\":6446:6485   */\n      tag_104\n      jump\t// in\n    tag_199:\n        /* \"#utility.yul\":6501:6572   */\n      tag_200\n        /* \"#utility.yul\":6565:6571   */\n      dup2\n        /* \"#utility.yul\":6560:6563   */\n      dup6\n        /* \"#utility.yul\":6501:6572   */\n      tag_105\n      jump\t// in\n    tag_200:\n        /* \"#utility.yul\":6494:6572   */\n      swap4\n      pop\n        /* \"#utility.yul\":6581:6646   */\n      tag_201\n        /* \"#utility.yul\":6639:6645   */\n      dup2\n        /* \"#utility.yul\":6634:6637   */\n      dup6\n        /* \"#utility.yul\":6627:6631   */\n      0x20\n        /* \"#utility.yul\":6620:6625   */\n      dup7\n        /* \"#utility.yul\":6616:6632   */\n      add\n        /* \"#utility.yul\":6581:6646   */\n      tag_106\n      jump\t// in\n    tag_201:\n        /* \"#utility.yul\":6671:6700   */\n      tag_202\n        /* \"#utility.yul\":6693:6699   */\n      dup2\n        /* \"#utility.yul\":6671:6700   */\n      tag_88\n      jump\t// in\n    tag_202:\n        /* \"#utility.yul\":6666:6669   */\n      dup5\n        /* \"#utility.yul\":6662:6701   */\n      add\n        /* \"#utility.yul\":6655:6701   */\n      swap2\n      pop\n        /* \"#utility.yul\":6422:6707   */\n      pop\n        /* \"#utility.yul\":6330:6707   */\n      swap3\n      swap2\n      pop\n      pop\n      jump\t// out\n        /* \"#utility.yul\":6713:7026   */\n    tag_30:\n        /* \"#utility.yul\":6826:6830   */\n      0x00\n        /* \"#utility.yul\":6864:6866   */\n      0x20\n        /* \"#utility.yul\":6853:6862   */\n      dup3\n        /* \"#utility.yul\":6849:6867   */\n      add\n        /* \"#utility.yul\":6841:6867   */\n      swap1\n      pop\n        /* \"#utility.yul\":6913:6922   */\n      dup2\n        /* \"#utility.yul\":6907:6911   */\n      dup2\n        /* \"#utility.yul\":6903:6923   */\n      sub\n        /* \"#utility.yul\":6899:6900   */\n      0x00\n        /* \"#utility.yul\":6888:6897   */\n      dup4\n        /* \"#utility.yul\":6884:6901   */\n      add\n        /* \"#utility.yul\":6877:6924   */\n      mstore\n        /* \"#utility.yul\":6941:7019   */\n      tag_204\n        /* \"#utility.yul\":7014:7018   */\n      dup2\n        /* \"#utility.yul\":7005:7011   */\n      dup5\n        /* \"#utility.yul\":6941:7019   */\n      tag_107\n      jump\t// in\n    tag_204:\n        /* \"#utility.yul\":6933:7019   */\n      swap1\n      pop\n        /* \"#utility.yul\":6713:7026   */\n      swap3\n      swap2\n      pop\n      pop\n      jump\t// out\n        /* \"#utility.yul\":7032:7455   */\n    tag_39:\n        /* \"#utility.yul\":7173:7177   */\n      0x00\n        /* \"#utility.yul\":7211:7213   */\n      0x40\n        /* \"#utility.yul\":7200:7209   */\n      dup3\n        /* \"#utility.yul\":7196:7214   */\n      add\n        /* \"#utility.yul\":7188:7214   */\n      swap1\n      pop\n        /* \"#utility.yul\":7260:7269   */\n      dup2\n        /* \"#utility.yul\":7254:7258   */\n      dup2\n        /* \"#utility.yul\":7250:7270   */\n      sub\n        /* \"#utility.yul\":7246:7247   */\n      0x00\n        /* \"#utility.yul\":7235:7244   */\n      dup4\n        /* \"#utility.yul\":7231:7248   */\n      add\n        /* \"#utility.yul\":7224:7271   */\n      mstore\n        /* \"#utility.yul\":7288:7366   */\n      tag_206\n        /* \"#utility.yul\":7361:7365   */\n      dup2\n        /* \"#utility.yul\":7352:7358   */\n      dup6\n        /* \"#utility.yul\":7288:7366   */\n      tag_107\n      jump\t// in\n    tag_206:\n        /* \"#utility.yul\":7280:7366   */\n      swap1\n      pop\n        /* \"#utility.yul\":7376:7448   */\n      tag_207\n        /* \"#utility.yul\":7444:7446   */\n      0x20\n        /* \"#utility.yul\":7433:7442   */\n      dup4\n        /* \"#utility.yul\":7429:7447   */\n      add\n        /* \"#utility.yul\":7420:7426   */\n      dup5\n        /* \"#utility.yul\":7376:7448   */\n      tag_103\n      jump\t// in\n    tag_207:\n        /* \"#utility.yul\":7032:7455   */\n      swap4\n      swap3\n      pop\n      pop\n      pop\n      jump\t// out\n        /* \"#utility.yul\":7461:7641   */\n    tag_108:\n        /* \"#utility.yul\":7509:7586   */\n      0x4e487b7100000000000000000000000000000000000000000000000000000000\n        /* \"#utility.yul\":7506:7507   */\n      0x00\n        /* \"#utility.yul\":7499:7587   */\n      mstore\n        /* \"#utility.yul\":7606:7610   */\n      0x22\n        /* \"#utility.yul\":7603:7604   */\n      0x04\n        /* \"#utility.yul\":7596:7611   */\n      mstore\n        /* \"#utility.yul\":7630:7634   */\n      0x24\n        /* \"#utility.yul\":7627:7628   */\n      0x00\n        /* \"#utility.yul\":7620:7635   */\n      revert\n        /* \"#utility.yul\":7647:7967   */\n    tag_57:\n        /* \"#utility.yul\":7691:7697   */\n      0x00\n        /* \"#utility.yul\":7728:7729   */\n      0x02\n        /* \"#utility.yul\":7722:7726   */\n      dup3\n        /* \"#utility.yul\":7718:7730   */\n      div\n        /* \"#utility.yul\":7708:7730   */\n      swap1\n      pop\n        /* \"#utility.yul\":7775:7776   */\n      0x01\n        /* \"#utility.yul\":7769:7773   */\n      dup3\n        /* \"#utility.yul\":7765:7777   */\n      and\n        /* \"#utility.yul\":7796:7814   */\n      dup1\n        /* \"#utility.yul\":7786:7867   */\n      tag_210\n      jumpi\n        /* \"#utility.yul\":7852:7856   */\n      0x7f\n        /* \"#utility.yul\":7844:7850   */\n      dup3\n        /* \"#utility.yul\":7840:7857   */\n      and\n        /* \"#utility.yul\":7830:7857   */\n      swap2\n      pop\n        /* \"#utility.yul\":7786:7867   */\n    tag_210:\n        /* \"#utility.yul\":7914:7916   */\n      0x20\n        /* \"#utility.yul\":7906:7912   */\n      dup3\n        /* \"#utility.yul\":7903:7917   */\n      lt\n        /* \"#utility.yul\":7883:7901   */\n      dup2\n        /* \"#utility.yul\":7880:7918   */\n      sub\n        /* \"#utility.yul\":7877:7961   */\n      tag_211\n      jumpi\n        /* \"#utility.yul\":7933:7951   */\n      tag_212\n      tag_108\n      jump\t// in\n    tag_212:\n        /* \"#utility.yul\":7877:7961   */\n    tag_211:\n        /* \"#utility.yul\":7698:7967   */\n      pop\n        /* \"#utility.yul\":7647:7967   */\n      swap2\n      swap1\n      pop\n      jump\t// out\n        /* \"#utility.yul\":7973:8114   */\n    tag_109:\n        /* \"#utility.yul\":8022:8026   */\n      0x00\n        /* \"#utility.yul\":8045:8048   */\n      dup2\n        /* \"#utility.yul\":8037:8048   */\n      swap1\n      pop\n        /* \"#utility.yul\":8068:8071   */\n      dup2\n        /* \"#utility.yul\":8065:8066   */\n      0x00\n        /* \"#utility.yul\":8058:8072   */\n      mstore\n        /* \"#utility.yul\":8102:8106   */\n      0x20\n        /* \"#utility.yul\":8099:8100   */\n      0x00\n        /* \"#utility.yul\":8089:8107   */\n      keccak256\n        /* \"#utility.yul\":8081:8107   */\n      swap1\n      pop\n        /* \"#utility.yul\":7973:8114   */\n      swap2\n      swap1\n      pop\n      jump\t// out\n        /* \"#utility.yul\":8120:8213   */\n    tag_110:\n        /* \"#utility.yul\":8157:8163   */\n      0x00\n        /* \"#utility.yul\":8204:8206   */\n      0x20\n        /* \"#utility.yul\":8199:8201   */\n      0x1f\n        /* \"#utility.yul\":8192:8197   */\n      dup4\n        /* \"#utility.yul\":8188:8202   */\n      add\n        /* \"#utility.yul\":8184:8207   */\n      div\n        /* \"#utility.yul\":8174:8207   */\n      swap1\n      pop\n        /* \"#utility.yul\":8120:8213   */\n      swap2\n      swap1\n      pop\n      jump\t// out\n        /* \"#utility.yul\":8219:8326   */\n    tag_111:\n        /* \"#utility.yul\":8263:8271   */\n      0x00\n        /* \"#utility.yul\":8313:8318   */\n      dup3\n        /* \"#utility.yul\":8307:8311   */\n      dup3\n        /* \"#utility.yul\":8303:8319   */\n      shl\n        /* \"#utility.yul\":8282:8319   */\n      swap1\n      pop\n        /* \"#utility.yul\":8219:8326   */\n      swap3\n      swap2\n      pop\n      pop\n      jump\t// out\n        /* \"#utility.yul\":8332:8725   */\n    tag_112:\n        /* \"#utility.yul\":8401:8407   */\n      0x00\n        /* \"#utility.yul\":8451:8452   */\n      0x08\n        /* \"#utility.yul\":8439:8449   */\n      dup4\n        /* \"#utility.yul\":8435:8453   */\n      mul\n        /* \"#utility.yul\":8474:8571   */\n      tag_217\n        /* \"#utility.yul\":8504:8570   */\n      0xffffffffffffffffffffffffffffffffffffffffffffffffffffffffffffffff\n        /* \"#utility.yul\":8493:8502   */\n      dup3\n        /* \"#utility.yul\":8474:8571   */\n      tag_111\n      jump\t// in\n    tag_217:\n        /* \"#utility.yul\":8592:8631   */\n      tag_218\n        /* \"#utility.yul\":8622:8630   */\n      dup7\n        /* \"#utility.yul\":8611:8620   */\n      dup4\n        /* \"#utility.yul\":8592:8631   */\n      tag_111\n      jump\t// in\n    tag_218:\n        /* \"#utility.yul\":8580:8631   */\n      swap6\n      pop\n        /* \"#utility.yul\":8664:8668   */\n      dup1\n        /* \"#utility.yul\":8660:8669   */\n      not\n        /* \"#utility.yul\":8653:8658   */\n      dup5\n        /* \"#utility.yul\":8649:8670   */\n      and\n        /* \"#utility.yul\":8640:8670   */\n      swap4\n      pop\n        /* \"#utility.yul\":8713:8717   */\n      dup1\n        /* \"#utility.yul\":8703:8711   */\n      dup7\n        /* \"#utility.yul\":8699:8718   */\n      and\n        /* \"#utility.yul\":8692:8697   */\n      dup5\n        /* \"#utility.yul\":8689:8719   */\n      or\n        /* \"#utility.yul\":8679:8719   */\n      swap3\n      pop\n        /* \"#utility.yul\":8408:8725   */\n      pop\n      pop\n        /* \"#utility.yul\":8332:8725   */\n      swap4\n      swap3\n      pop\n      pop\n      pop\n      jump\t// out\n        /* \"#utility.yul\":8731:8791   */\n    tag_113:\n        /* \"#utility.yul\":8759:8762   */\n      0x00\n        /* \"#utility.yul\":8780:8785   */\n      dup2\n        /* \"#utility.yul\":8773:8785   */\n      swap1\n      pop\n        /* \"#utility.yul\":8731:8791   */\n      swap2\n      swap1\n      pop\n      jump\t// out\n        /* \"#utility.yul\":8797:8939   */\n    tag_114:\n        /* \"#utility.yul\":8847:8856   */\n      0x00\n        /* \"#utility.yul\":8880:8933   */\n      tag_221\n        /* \"#utility.yul\":8898:8932   */\n      tag_222\n        /* \"#utility.yul\":8907:8931   */\n      tag_223\n        /* \"#utility.yul\":8925:8930   */\n      dup5\n        /* \"#utility.yul\":8907:8931   */\n      tag_96\n      jump\t// in\n    tag_223:\n        /* \"#utility.yul\":8898:8932   */\n      tag_113\n      jump\t// in\n    tag_222:\n        /* \"#utility.yul\":8880:8933   */\n      tag_96\n      jump\t// in\n    tag_221:\n        /* \"#utility.yul\":8867:8933   */\n      swap1\n      pop\n        /* \"#utility.yul\":8797:8939   */\n      swap2\n      swap1\n      pop\n      jump\t// out\n        /* \"#utility.yul\":8945:9020   */\n    tag_115:\n        /* \"#utility.yul\":8988:8991   */\n      0x00\n        /* \"#utility.yul\":9009:9014   */\n      dup2\n        /* \"#utility.yul\":9002:9014   */\n      swap1\n      pop\n        /* \"#utility.yul\":8945:9020   */\n      swap2\n      swap1\n      pop\n      jump\t// out\n        /* \"#utility.yul\":9026:9295   */\n    tag_116:\n        /* \"#utility.yul\":9136:9175   */\n      tag_226\n        /* \"#utility.yul\":9167:9174   */\n      dup4\n        /* \"#utility.yul\":9136:9175   */\n      tag_114\n      jump\t// in\n    tag_226:\n        /* \"#utility.yul\":9197:9288   */\n      tag_227\n        /* \"#utility.yul\":9246:9287   */\n      tag_228\n        /* \"#utility.yul\":9270:9286   */\n      dup3\n        /* \"#utility.yul\":9246:9287   */\n      tag_115\n      jump\t// in\n    tag_228:\n        /* \"#utility.yul\":9238:9244   */\n      dup5\n        /* \"#utility.yul\":9231:9235   */\n      dup5\n        /* \"#utility.yul\":9225:9236   */\n      sload\n        /* \"#utility.yul\":9197:9288   */\n      tag_112\n      jump\t// in\n    tag_227:\n        /* \"#utility.yul\":9191:9195   */\n      dup3\n        /* \"#utility.yul\":9184:9289   */\n      sstore\n        /* \"#utility.yul\":9102:9295   */\n      pop\n        /* \"#utility.yul\":9026:9295   */\n      pop\n      pop\n      pop\n      jump\t// out\n        /* \"#utility.yul\":9301:9374   */\n    tag_117:\n        /* \"#utility.yul\":9346:9349   */\n      0x00\n        /* \"#utility.yul\":9301:9374   */\n      swap1\n      jump\t// out\n        /* \"#utility.yul\":9380:9569   */\n    tag_118:\n        /* \"#utility.yul\":9457:9489   */\n      tag_231\n      tag_117\n      jump\t// in\n    tag_231:\n        /* \"#utility.yul\":9498:9563   */\n      tag_232\n        /* \"#utility.yul\":9556:9562   */\n      dup2\n        /* \"#utility.yul\":9548:9554   */\n      dup5\n        /* \"#utility.yul\":9542:9546   */\n      dup5\n        /* \"#utility.yul\":9498:9563   */\n      tag_116\n      jump\t// in\n    tag_232:\n        /* \"#utility.yul\":9433:9569   */\n      pop\n        /* \"#utility.yul\":9380:9569   */\n      pop\n      pop\n      jump\t// out\n        /* \"#utility.yul\":9575:9761   */\n    tag_119:\n        /* \"#utility.yul\":9635:9755   */\n    tag_234:\n        /* \"#utility.yul\":9652:9655   */\n      dup2\n        /* \"#utility.yul\":9645:9650   */\n      dup2\n        /* \"#utility.yul\":9642:9656   */\n      lt\n        /* \"#utility.yul\":9635:9755   */\n      iszero\n      tag_236\n      jumpi\n        /* \"#utility.yul\":9706:9745   */\n      tag_237\n        /* \"#utility.yul\":9743:9744   */\n      0x00\n        /* \"#utility.yul\":9736:9741   */\n      dup3\n        /* \"#utility.yul\":9706:9745   */\n      tag_118\n      jump\t// in\n    tag_237:\n        /* \"#utility.yul\":9679:9680   */\n      0x01\n        /* \"#utility.yul\":9672:9677   */\n      dup2\n        /* \"#utility.yul\":9668:9681   */\n      add\n        /* \"#utility.yul\":9659:9681   */\n      swap1\n      pop\n        /* \"#utility.yul\":9635:9755   */\n      jump(tag_234)\n    tag_236:\n        /* \"#utility.yul\":9575:9761   */\n      pop\n      pop\n      jump\t// out\n        /* \"#utility.yul\":9767:10310   */\n    tag_120:\n        /* \"#utility.yul\":9868:9870   */\n      0x1f\n        /* \"#utility.yul\":9863:9866   */\n      dup3\n        /* \"#utility.yul\":9860:9871   */\n      gt\n        /* \"#utility.yul\":9857:10303   */\n      iszero\n      tag_239\n      jumpi\n        /* \"#utility.yul\":9902:9940   */\n      tag_240\n        /* \"#utility.yul\":9934:9939   */\n      dup2\n        /* \"#utility.yul\":9902:9940   */\n      tag_109\n      jump\t// in\n    tag_240:\n        /* \"#utility.yul\":9986:10015   */\n      tag_241\n        /* \"#utility.yul\":10004:10014   */\n      dup5\n        /* \"#utility.yul\":9986:10015   */\n      tag_110\n      jump\t// in\n    tag_241:\n        /* \"#utility.yul\":9976:9984   */\n      dup2\n        /* \"#utility.yul\":9972:10016   */\n      add\n        /* \"#utility.yul\":10169:10171   */\n      0x20\n        /* \"#utility.yul\":10157:10167   */\n      dup6\n        /* \"#utility.yul\":10154:10172   */\n      lt\n        /* \"#utility.yul\":10151:10200   */\n      iszero\n      tag_242\n      jumpi\n        /* \"#utility.yul\":10190:10198   */\n      dup2\n        /* \"#utility.yul\":10175:10198   */\n      swap1\n      pop\n        /* \"#utility.yul\":10151:10200   */\n    tag_242:\n        /* \"#utility.yul\":10213:10293   */\n      tag_243\n        /* \"#utility.yul\":10269:10291   */\n      tag_244\n        /* \"#utility.yul\":10287:10290   */\n      dup6\n        /* \"#utility.yul\":10269:10291   */\n      tag_110\n      jump\t// in\n    tag_244:\n        /* \"#utility.yul\":10259:10267   */\n      dup4\n        /* \"#utility.yul\":10255:10292   */\n      add\n        /* \"#utility.yul\":10242:10253   */\n      dup3\n        /* \"#utility.yul\":10213:10293   */\n      tag_119\n      jump\t// in\n    tag_243:\n        /* \"#utility.yul\":9872:10303   */\n      pop\n      pop\n        /* \"#utility.yul\":9857:10303   */\n    tag_239:\n        /* \"#utility.yul\":9767:10310   */\n      pop\n      pop\n      pop\n      jump\t// out\n        /* \"#utility.yul\":10316:10433   */\n    tag_121:\n        /* \"#utility.yul\":10370:10378   */\n      0x00\n        /* \"#utility.yul\":10420:10425   */\n      dup3\n        /* \"#utility.yul\":10414:10418   */\n      dup3\n        /* \"#utility.yul\":10410:10426   */\n      shr\n        /* \"#utility.yul\":10389:10426   */\n      swap1\n      pop\n        /* \"#utility.yul\":10316:10433   */\n      swap3\n      swap2\n      pop\n      pop\n      jump\t// out\n        /* \"#utility.yul\":10439:10608   */\n    tag_122:\n        /* \"#utility.yul\":10483:10489   */\n      0x00\n        /* \"#utility.yul\":10516:10567   */\n      tag_247\n        /* \"#utility.yul\":10564:10565   */\n      0x00\n        /* \"#utility.yul\":10560:10566   */\n      not\n        /* \"#utility.yul\":10552:10557   */\n      dup5\n        /* \"#utility.yul\":10549:10550   */\n      0x08\n        /* \"#utility.yul\":10545:10558   */\n      mul\n        /* \"#utility.yul\":10516:10567   */\n      tag_121\n      jump\t// in\n    tag_247:\n        /* \"#utility.yul\":10512:10568   */\n      not\n        /* \"#utility.yul\":10597:10601   */\n      dup1\n        /* \"#utility.yul\":10591:10595   */\n      dup4\n        /* \"#utility.yul\":10587:10602   */\n      and\n        /* \"#utility.yul\":10577:10602   */\n      swap2\n      pop\n        /* \"#utility.yul\":10490:10608   */\n      pop\n        /* \"#utility.yul\":10439:10608   */\n      swap3\n      swap2\n      pop\n      pop\n      jump\t// out\n        /* \"#utility.yul\":10613:10908   */\n    tag_123:\n        /* \"#utility.yul\":10689:10693   */\n      0x00\n        /* \"#utility.yul\":10835:10864   */\n      tag_249\n        /* \"#utility.yul\":10860:10863   */\n      dup4\n        /* \"#utility.yul\":10854:10858   */\n      dup4\n        /* \"#utility.yul\":10835:10864   */\n      tag_122\n      jump\t// in\n    tag_249:\n        /* \"#utility.yul\":10827:10864   */\n      swap2\n      pop\n        /* \"#utility.yul\":10897:10900   */\n      dup3\n        /* \"#utility.yul\":10894:10895   */\n      0x02\n        /* \"#utility.yul\":10890:10901   */\n      mul\n        /* \"#utility.yul\":10884:10888   */\n      dup3\n        /* \"#utility.yul\":10881:10902   */\n      or\n        /* \"#utility.yul\":10873:10902   */\n      swap1\n      pop\n        /* \"#utility.yul\":10613:10908   */\n      swap3\n      swap2\n      pop\n      pop\n      jump\t// out\n        /* \"#utility.yul\":10913:12308   */\n    tag_47:\n        /* \"#utility.yul\":11030:11067   */\n      tag_251\n        /* \"#utility.yul\":11063:11066   */\n      dup3\n        /* \"#utility.yul\":11030:11067   */\n      tag_104\n      jump\t// in\n    tag_251:\n        /* \"#utility.yul\":11132:11150   */\n      0xffffffffffffffff\n        /* \"#utility.yul\":11124:11130   */\n      dup2\n        /* \"#utility.yul\":11121:11151   */\n      gt\n        /* \"#utility.yul\":11118:11174   */\n      iszero\n      tag_252\n      jumpi\n        /* \"#utility.yul\":11154:11172   */\n      tag_253\n      tag_89\n      jump\t// in\n    tag_253:\n        /* \"#utility.yul\":11118:11174   */\n    tag_252:\n        /* \"#utility.yul\":11198:11236   */\n      tag_254\n        /* \"#utility.yul\":11230:11234   */\n      dup3\n        /* \"#utility.yul\":11224:11235   */\n      sload\n        /* \"#utility.yul\":11198:11236   */\n      tag_57\n      jump\t// in\n    tag_254:\n        /* \"#utility.yul\":11283:11350   */\n      tag_255\n        /* \"#utility.yul\":11343:11349   */\n      dup3\n        /* \"#utility.yul\":11335:11341   */\n      dup3\n        /* \"#utility.yul\":11329:11333   */\n      dup6\n        /* \"#utility.yul\":11283:11350   */\n      tag_120\n      jump\t// in\n    tag_255:\n        /* \"#utility.yul\":11377:11378   */\n      0x00\n        /* \"#utility.yul\":11401:11405   */\n      0x20\n        /* \"#utility.yul\":11388:11405   */\n      swap1\n      pop\n        /* \"#utility.yul\":11433:11435   */\n      0x1f\n        /* \"#utility.yul\":11425:11431   */\n      dup4\n        /* \"#utility.yul\":11422:11436   */\n      gt\n        /* \"#utility.yul\":11450:11451   */\n      0x01\n        /* \"#utility.yul\":11445:12063   */\n      dup2\n      eq\n      tag_257\n      jumpi\n        /* \"#utility.yul\":12107:12108   */\n      0x00\n        /* \"#utility.yul\":12124:12130   */\n      dup5\n        /* \"#utility.yul\":12121:12198   */\n      iszero\n      tag_258\n      jumpi\n        /* \"#utility.yul\":12173:12182   */\n      dup3\n        /* \"#utility.yul\":12168:12171   */\n      dup8\n        /* \"#utility.yul\":12164:12183   */\n      add\n        /* \"#utility.yul\":12158:12184   */\n      mload\n        /* \"#utility.yul\":12149:12184   */\n      swap1\n      pop\n        /* \"#utility.yul\":12121:12198   */\n    tag_258:\n        /* \"#utility.yul\":12224:12291   */\n      tag_259\n        /* \"#utility.yul\":12284:12290   */\n      dup6\n        /* \"#utility.yul\":12277:12282   */\n      dup3\n        /* \"#utility.yul\":12224:12291   */\n      tag_123\n      jump\t// in\n    tag_259:\n        /* \"#utility.yul\":12218:12222   */\n      dup7\n        /* \"#utility.yul\":12211:12292   */\n      sstore\n        /* \"#utility.yul\":12080:12302   */\n      pop\n        /* \"#utility.yul\":11415:12302   */\n      jump(tag_256)\n        /* \"#utility.yul\":11445:12063   */\n    tag_257:\n        /* \"#utility.yul\":11497:11501   */\n      0x1f\n        /* \"#utility.yul\":11493:11502   */\n      not\n        /* \"#utility.yul\":11485:11491   */\n      dup5\n        /* \"#utility.yul\":11481:11503   */\n      and\n        /* \"#utility.yul\":11531:11568   */\n      tag_260\n        /* \"#utility.yul\":11563:11567   */\n      dup7\n        /* \"#utility.yul\":11531:11568   */\n      tag_109\n      jump\t// in\n    tag_260:\n        /* \"#utility.yul\":11590:11591   */\n      0x00\n        /* \"#utility.yul\":11604:11812   */\n    tag_261:\n        /* \"#utility.yul\":11618:11625   */\n      dup3\n        /* \"#utility.yul\":11615:11616   */\n      dup2\n        /* \"#utility.yul\":11612:11626   */\n      lt\n        /* \"#utility.yul\":11604:11812   */\n      iszero\n      tag_263\n      jumpi\n        /* \"#utility.yul\":11697:11706   */\n      dup5\n        /* \"#utility.yul\":11692:11695   */\n      dup10\n        /* \"#utility.yul\":11688:11707   */\n      add\n        /* \"#utility.yul\":11682:11708   */\n      mload\n        /* \"#utility.yul\":11674:11680   */\n      dup3\n        /* \"#utility.yul\":11667:11709   */\n      sstore\n        /* \"#utility.yul\":11748:11749   */\n      0x01\n        /* \"#utility.yul\":11740:11746   */\n      dup3\n        /* \"#utility.yul\":11736:11750   */\n      add\n        /* \"#utility.yul\":11726:11750   */\n      swap2\n      pop\n        /* \"#utility.yul\":11795:11797   */\n      0x20\n        /* \"#utility.yul\":11784:11793   */\n      dup6\n        /* \"#utility.yul\":11780:11798   */\n      add\n        /* \"#utility.yul\":11767:11798   */\n      swap5\n      pop\n        /* \"#utility.yul\":11641:11645   */\n      0x20\n        /* \"#utility.yul\":11638:11639   */\n      dup2\n        /* \"#utility.yul\":11634:11646   */\n      add\n        /* \"#utility.yul\":11629:11646   */\n      swap1\n      pop\n        /* \"#utility.yul\":11604:11812   */\n      jump(tag_261)\n    tag_263:\n        /* \"#utility.yul\":11840:11846   */\n      dup7\n        /* \"#utility.yul\":11831:11838   */\n      dup4\n        /* \"#utility.yul\":11828:11847   */\n      lt\n        /* \"#utility.yul\":11825:12004   */\n      iszero\n      tag_264\n      jumpi\n        /* \"#utility.yul\":11898:11907   */\n      dup5\n        /* \"#utility.yul\":11893:11896   */\n      dup10\n        /* \"#utility.yul\":11889:11908   */\n      add\n        /* \"#utility.yul\":11883:11909   */\n      mload\n        /* \"#utility.yul\":11941:11989   */\n      tag_265\n        /* \"#utility.yul\":11983:11987   */\n      0x1f\n        /* \"#utility.yul\":11975:11981   */\n      dup10\n        /* \"#utility.yul\":11971:11988   */\n      and\n        /* \"#utility.yul\":11960:11969   */\n      dup3\n        /* \"#utility.yul\":11941:11989   */\n      tag_122\n      jump\t// in\n    tag_265:\n        /* \"#utility.yul\":11933:11939   */\n      dup4\n        /* \"#utility.yul\":11926:11990   */\n      sstore\n        /* \"#utility.yul\":11848:12004   */\n      pop\n        /* \"#utility.yul\":11825:12004   */\n    tag_264:\n        /* \"#utility.yul\":12050:12051   */\n      0x01\n        /* \"#utility.yul\":12046:12047   */\n      0x02\n        /* \"#utility.yul\":12038:12044   */\n      dup9\n        /* \"#utility.yul\":12034:12048   */\n      mul\n        /* \"#utility.yul\":12030:12052   */\n      add\n        /* \"#utility.yul\":12024:12028   */\n      dup9\n        /* \"#utility.yul\":12017:12053   */\n      sstore\n        /* \"#utility.yul\":11452:12063   */\n      pop\n      pop\n      pop\n        /* \"#utility.yul\":11415:12302   */\n    tag_256:\n      pop\n        /* \"#utility.yul\":11005:12308   */\n      pop\n      pop\n      pop\n        /* \"#utility.yul\":10913:12308   */\n      pop\n      pop\n      jump\t// out\n        /* \"#utility.yul\":12314:12494   */\n    tag_53:\n        /* \"#utility.yul\":12362:12439   */\n      0x4e487b7100000000000000000000000000000000000000000000000000000000\n        /* \"#utility.yul\":12359:12360   */\n      0x00\n        /* \"#utility.yul\":12352:12440   */\n      mstore\n        /* \"#utility.yul\":12459:12463   */\n      0x32\n        /* \"#utility.yul\":12456:12457   */\n      0x04\n        /* \"#utility.yul\":12449:12464   */\n      mstore\n        /* \"#utility.yul\":12483:12487   */\n      0x24\n        /* \"#utility.yul\":12480:12481   */\n      0x00\n        /* \"#utility.yul\":12473:12488   */\n      revert\n\n    auxdata: 0xa26469706673582212207a9f59f405d3b8d8251ad401f2d50fd39a40b176ed48d1c67257eb3fea10fa4b64736f6c634300081a0033\n}\n",
				"bytecode": {
					"linkReferences": {},
					"object": "6080604052348015600e575f80fd5b50610c7e8061001c5f395ff3fe608060405234801561000f575f80fd5b506004361061007b575f3560e01c80634b61dd34116100595780634b61dd34146100e7578063a677c48f14610117578063a857bf3214610147578063b9d6dedb146101785761007b565b80630d3de88d1461007f5780630e0c243d1461009b578063380a4250146100b7575b5f80fd5b61009960048036038101906100949190610706565b6101a9565b005b6100b560048036038101906100b091906107ba565b610209565b005b6100d160048036038101906100cc9190610826565b610281565b6040516100de9190610860565b60405180910390f35b61010160048036038101906100fc9190610879565b6102ac565b60405161010e9190610904565b60405180910390f35b610131600480360381019061012c9190610826565b61037b565b60405161013e9190610904565b60405180910390f35b610161600480360381019061015c9190610879565b61042c565b60405161016f929190610924565b60405180910390f35b610192600480360381019061018d9190610826565b6104d2565b6040516101a0929190610924565b60405180910390f35b5f604051806040016040528084815260200183815250908060018154018082558091505060019003905f5260205f2090600202015f909190919091505f820151815f0190816101f89190610b4c565b506020820151816001015550505050565b60405180604001604052808381526020018281525060015f8573ffffffffffffffffffffffffffffffffffffffff1673ffffffffffffffffffffffffffffffffffffffff1681526020019081526020015f205f820151815f01908161026e9190610b4c565b5060208201518160010155905050505050565b5f80828154811061029557610294610c1b565b5b905f5260205f209060020201600101549050919050565b606060015f8373ffffffffffffffffffffffffffffffffffffffff1673ffffffffffffffffffffffffffffffffffffffff1681526020019081526020015f205f0180546102f89061097f565b80601f01602080910402602001604051908101604052809291908181526020018280546103249061097f565b801561036f5780601f106103465761010080835404028352916020019161036f565b820191905f5260205f20905b81548152906001019060200180831161035257829003601f168201915b50505050509050919050565b60605f82815481106103905761038f610c1b565b5b905f5260205f2090600202015f0180546103a99061097f565b80601f01602080910402602001604051908101604052809291908181526020018280546103d59061097f565b80156104205780601f106103f757610100808354040283529160200191610420565b820191905f5260205f20905b81548152906001019060200180831161040357829003601f168201915b50505050509050919050565b6001602052805f5260405f205f91509050805f01805461044b9061097f565b80601f01602080910402602001604051908101604052809291908181526020018280546104779061097f565b80156104c25780601f10610499576101008083540402835291602001916104c2565b820191905f5260205f20905b8154815290600101906020018083116104a557829003601f168201915b5050505050908060010154905082565b5f81815481106104e0575f80fd5b905f5260205f2090600202015f91509050805f0180546104ff9061097f565b80601f016020809104026020016040519081016040528092919081815260200182805461052b9061097f565b80156105765780601f1061054d57610100808354040283529160200191610576565b820191905f5260205f20905b81548152906001019060200180831161055957829003601f168201915b5050505050908060010154905082565b5f604051905090565b5f80fd5b5f80fd5b5f80fd5b5f80fd5b5f601f19601f8301169050919050565b7f4e487b71000000000000000000000000000000000000000000000000000000005f52604160045260245ffd5b6105e58261059f565b810181811067ffffffffffffffff82111715610604576106036105af565b5b80604052505050565b5f610616610586565b905061062282826105dc565b919050565b5f67ffffffffffffffff821115610641576106406105af565b5b61064a8261059f565b9050602081019050919050565b828183375f83830152505050565b5f61067761067284610627565b61060d565b9050828152602081018484840111156106935761069261059b565b5b61069e848285610657565b509392505050565b5f82601f8301126106ba576106b9610597565b5b81356106ca848260208601610665565b91505092915050565b5f819050919050565b6106e5816106d3565b81146106ef575f80fd5b50565b5f81359050610700816106dc565b92915050565b5f806040838503121561071c5761071b61058f565b5b5f83013567ffffffffffffffff81111561073957610738610593565b5b610745858286016106a6565b9250506020610756858286016106f2565b9150509250929050565b5f73ffffffffffffffffffffffffffffffffffffffff82169050919050565b5f61078982610760565b9050919050565b6107998161077f565b81146107a3575f80fd5b50565b5f813590506107b481610790565b92915050565b5f805f606084860312156107d1576107d061058f565b5b5f6107de868287016107a6565b935050602084013567ffffffffffffffff8111156107ff576107fe610593565b5b61080b868287016106a6565b925050604061081c868287016106f2565b9150509250925092565b5f6020828403121561083b5761083a61058f565b5b5f610848848285016106f2565b91505092915050565b61085a816106d3565b82525050565b5f6020820190506108735f830184610851565b92915050565b5f6020828403121561088e5761088d61058f565b5b5f61089b848285016107a6565b91505092915050565b5f81519050919050565b5f82825260208201905092915050565b8281835e5f83830152505050565b5f6108d6826108a4565b6108e081856108ae565b93506108f08185602086016108be565b6108f98161059f565b840191505092915050565b5f6020820190508181035f83015261091c81846108cc565b905092915050565b5f6040820190508181035f83015261093c81856108cc565b905061094b6020830184610851565b9392505050565b7f4e487b71000000000000000000000000000000000000000000000000000000005f52602260045260245ffd5b5f600282049050600182168061099657607f821691505b6020821081036109a9576109a8610952565b5b50919050565b5f819050815f5260205f209050919050565b5f6020601f8301049050919050565b5f82821b905092915050565b5f60088302610a0b7fffffffffffffffffffffffffffffffffffffffffffffffffffffffffffffffff826109d0565b610a1586836109d0565b95508019841693508086168417925050509392505050565b5f819050919050565b5f610a50610a4b610a46846106d3565b610a2d565b6106d3565b9050919050565b5f819050919050565b610a6983610a36565b610a7d610a7582610a57565b8484546109dc565b825550505050565b5f90565b610a91610a85565b610a9c818484610a60565b505050565b5b81811015610abf57610ab45f82610a89565b600181019050610aa2565b5050565b601f821115610b0457610ad5816109af565b610ade846109c1565b81016020851015610aed578190505b610b01610af9856109c1565b830182610aa1565b50505b505050565b5f82821c905092915050565b5f610b245f1984600802610b09565b1980831691505092915050565b5f610b3c8383610b15565b9150826002028217905092915050565b610b55826108a4565b67ffffffffffffffff811115610b6e57610b6d6105af565b5b610b78825461097f565b610b83828285610ac3565b5f60209050601f831160018114610bb4575f8415610ba2578287015190505b610bac8582610b31565b865550610c13565b601f198416610bc2866109af565b5f5b82811015610be957848901518255600182019150602085019450602081019050610bc4565b86831015610c065784890151610c02601f891682610b15565b8355505b6001600288020188555050505b505050505050565b7f4e487b71000000000000000000000000000000000000000000000000000000005f52603260045260245ffdfea26469706673582212207a9f59f405d3b8d8251ad401f2d50fd39a40b176ed48d1c67257eb3fea10fa4b64736f6c634300081a0033",
					"opcodes": "PUSH1 0x80 PUSH1 0x40 MSTORE CALLVALUE DUP1 ISZERO PUSH1 0xE JUMPI PUSH0 DUP1 REVERT JUMPDEST POP PUSH2 0xC7E DUP1 PUSH2 0x1C PUSH0 CODECOPY PUSH0 RETURN INVALID PUSH1 0x80 PUSH1 0x40 MSTORE CALLVALUE DUP1 ISZERO PUSH2 0xF JUMPI PUSH0 DUP1 REVERT JUMPDEST POP PUSH1 0x4 CALLDATASIZE LT PUSH2 0x7B JUMPI PUSH0 CALLDATALOAD PUSH1 0xE0 SHR DUP1 PUSH4 0x4B61DD34 GT PUSH2 0x59 JUMPI DUP1 PUSH4 0x4B61DD34 EQ PUSH2 0xE7 JUMPI DUP1 PUSH4 0xA677C48F EQ PUSH2 0x117 JUMPI DUP1 PUSH4 0xA857BF32 EQ PUSH2 0x147 JUMPI DUP1 PUSH4 0xB9D6DEDB EQ PUSH2 0x178 JUMPI PUSH2 0x7B JUMP JUMPDEST DUP1 PUSH4 0xD3DE88D EQ PUSH2 0x7F JUMPI DUP1 PUSH4 0xE0C243D EQ PUSH2 0x9B JUMPI DUP1 PUSH4 0x380A4250 EQ PUSH2 0xB7 JUMPI JUMPDEST PUSH0 DUP1 REVERT JUMPDEST PUSH2 0x99 PUSH1 0x4 DUP1 CALLDATASIZE SUB DUP2 ADD SWAP1 PUSH2 0x94 SWAP2 SWAP1 PUSH2 0x706 JUMP JUMPDEST PUSH2 0x1A9 JUMP JUMPDEST STOP JUMPDEST PUSH2 0xB5 PUSH1 0x4 DUP1 CALLDATASIZE SUB DUP2 ADD SWAP1 PUSH2 0xB0 SWAP2 SWAP1 PUSH2 0x7BA JUMP JUMPDEST PUSH2 0x209 JUMP JUMPDEST STOP JUMPDEST PUSH2 0xD1 PUSH1 0x4 DUP1 CALLDATASIZE SUB DUP2 ADD SWAP1 PUSH2 0xCC SWAP2 SWAP1 PUSH2 0x826 JUMP JUMPDEST PUSH2 0x281 JUMP JUMPDEST PUSH1 0x40 MLOAD PUSH2 0xDE SWAP2 SWAP1 PUSH2 0x860 JUMP JUMPDEST PUSH1 0x40 MLOAD DUP1 SWAP2 SUB SWAP1 RETURN JUMPDEST PUSH2 0x101 PUSH1 0x4 DUP1 CALLDATASIZE SUB DUP2 ADD SWAP1 PUSH2 0xFC SWAP2 SWAP1 PUSH2 0x879 JUMP JUMPDEST PUSH2 0x2AC JUMP JUMPDEST PUSH1 0x40 MLOAD PUSH2 0x10E SWAP2 SWAP1 PUSH2 0x904 JUMP JUMPDEST PUSH1 0x40 MLOAD DUP1 SWAP2 SUB SWAP1 RETURN JUMPDEST PUSH2 0x131 PUSH1 0x4 DUP1 CALLDATASIZE SUB DUP2 ADD SWAP1 PUSH2 0x12C SWAP2 SWAP1 PUSH2 0x826 JUMP JUMPDEST PUSH2 0x37B JUMP JUMPDEST PUSH1 0x40 MLOAD PUSH2 0x13E SWAP2 SWAP1 PUSH2 0x904 JUMP JUMPDEST PUSH1 0x40 MLOAD DUP1 SWAP2 SUB SWAP1 RETURN JUMPDEST PUSH2 0x161 PUSH1 0x4 DUP1 CALLDATASIZE SUB DUP2 ADD SWAP1 PUSH2 0x15C SWAP2 SWAP1 PUSH2 0x879 JUMP JUMPDEST PUSH2 0x42C JUMP JUMPDEST PUSH1 0x40 MLOAD PUSH2 0x16F SWAP3 SWAP2 SWAP1 PUSH2 0x924 JUMP JUMPDEST PUSH1 0x40 MLOAD DUP1 SWAP2 SUB SWAP1 RETURN JUMPDEST PUSH2 0x192 PUSH1 0x4 DUP1 CALLDATASIZE SUB DUP2 ADD SWAP1 PUSH2 0x18D SWAP2 SWAP1 PUSH2 0x826 JUMP JUMPDEST PUSH2 0x4D2 JUMP JUMPDEST PUSH1 0x40 MLOAD PUSH2 0x1A0 SWAP3 SWAP2 SWAP1 PUSH2 0x924 JUMP JUMPDEST PUSH1 0x40 MLOAD DUP1 SWAP2 SUB SWAP1 RETURN JUMPDEST PUSH0 PUSH1 0x40 MLOAD DUP1 PUSH1 0x40 ADD PUSH1 0x40 MSTORE DUP1 DUP5 DUP2 MSTORE PUSH1 0x20 ADD DUP4 DUP2 MSTORE POP SWAP1 DUP1 PUSH1 0x1 DUP2 SLOAD ADD DUP1 DUP3 SSTORE DUP1 SWAP2 POP POP PUSH1 0x1 SWAP1 SUB SWAP1 PUSH0 MSTORE PUSH1 0x20 PUSH0 KECCAK256 SWAP1 PUSH1 0x2 MUL ADD PUSH0 SWAP1 SWAP2 SWAP1 SWAP2 SWAP1 SWAP2 POP PUSH0 DUP3 ADD MLOAD DUP2 PUSH0 ADD SWAP1 DUP2 PUSH2 0x1F8 SWAP2 SWAP1 PUSH2 0xB4C JUMP JUMPDEST POP PUSH1 0x20 DUP3 ADD MLOAD DUP2 PUSH1 0x1 ADD SSTORE POP POP POP POP JUMP JUMPDEST PUSH1 0x40 MLOAD DUP1 PUSH1 0x40 ADD PUSH1 0x40 MSTORE DUP1 DUP4 DUP2 MSTORE PUSH1 0x20 ADD DUP3 DUP2 MSTORE POP PUSH1 0x1 PUSH0 DUP6 PUSH20 0xFFFFFFFFFFFFFFFFFFFFFFFFFFFFFFFFFFFFFFFF AND PUSH20 0xFFFFFFFFFFFFFFFFFFFFFFFFFFFFFFFFFFFFFFFF AND DUP2 MSTORE PUSH1 0x20 ADD SWAP1 DUP2 MSTORE PUSH1 0x20 ADD PUSH0 KECCAK256 PUSH0 DUP3 ADD MLOAD DUP2 PUSH0 ADD SWAP1 DUP2 PUSH2 0x26E SWAP2 SWAP1 PUSH2 0xB4C JUMP JUMPDEST POP PUSH1 0x20 DUP3 ADD MLOAD DUP2 PUSH1 0x1 ADD SSTORE SWAP1 POP POP POP POP POP JUMP JUMPDEST PUSH0 DUP1 DUP3 DUP2 SLOAD DUP2 LT PUSH2 0x295 JUMPI PUSH2 0x294 PUSH2 0xC1B JUMP JUMPDEST JUMPDEST SWAP1 PUSH0 MSTORE PUSH1 0x20 PUSH0 KECCAK256 SWAP1 PUSH1 0x2 MUL ADD PUSH1 0x1 ADD SLOAD SWAP1 POP SWAP2 SWAP1 POP JUMP JUMPDEST PUSH1 0x60 PUSH1 0x1 PUSH0 DUP4 PUSH20 0xFFFFFFFFFFFFFFFFFFFFFFFFFFFFFFFFFFFFFFFF AND PUSH20 0xFFFFFFFFFFFFFFFFFFFFFFFFFFFFFFFFFFFFFFFF AND DUP2 MSTORE PUSH1 0x20 ADD SWAP1 DUP2 MSTORE PUSH1 0x20 ADD PUSH0 KECCAK256 PUSH0 ADD DUP1 SLOAD PUSH2 0x2F8 SWAP1 PUSH2 0x97F JUMP JUMPDEST DUP1 PUSH1 0x1F ADD PUSH1 0x20 DUP1 SWAP2 DIV MUL PUSH1 0x20 ADD PUSH1 0x40 MLOAD SWAP1 DUP2 ADD PUSH1 0x40 MSTORE DUP1 SWAP3 SWAP2 SWAP1 DUP2 DUP2 MSTORE PUSH1 0x20 ADD DUP3 DUP1 SLOAD PUSH2 0x324 SWAP1 PUSH2 0x97F JUMP JUMPDEST DUP1 ISZERO PUSH2 0x36F JUMPI DUP1 PUSH1 0x1F LT PUSH2 0x346 JUMPI PUSH2 0x100 DUP1 DUP4 SLOAD DIV MUL DUP4 MSTORE SWAP2 PUSH1 0x20 ADD SWAP2 PUSH2 0x36F JUMP JUMPDEST DUP3 ADD SWAP2 SWAP1 PUSH0 MSTORE PUSH1 0x20 PUSH0 KECCAK256 SWAP1 JUMPDEST DUP2 SLOAD DUP2 MSTORE SWAP1 PUSH1 0x1 ADD SWAP1 PUSH1 0x20 ADD DUP1 DUP4 GT PUSH2 0x352 JUMPI DUP3 SWAP1 SUB PUSH1 0x1F AND DUP3 ADD SWAP2 JUMPDEST POP POP POP POP POP SWAP1 POP SWAP2 SWAP1 POP JUMP JUMPDEST PUSH1 0x60 PUSH0 DUP3 DUP2 SLOAD DUP2 LT PUSH2 0x390 JUMPI PUSH2 0x38F PUSH2 0xC1B JUMP JUMPDEST JUMPDEST SWAP1 PUSH0 MSTORE PUSH1 0x20 PUSH0 KECCAK256 SWAP1 PUSH1 0x2 MUL ADD PUSH0 ADD DUP1 SLOAD PUSH2 0x3A9 SWAP1 PUSH2 0x97F JUMP JUMPDEST DUP1 PUSH1 0x1F ADD PUSH1 0x20 DUP1 SWAP2 DIV MUL PUSH1 0x20 ADD PUSH1 0x40 MLOAD SWAP1 DUP2 ADD PUSH1 0x40 MSTORE DUP1 SWAP3 SWAP2 SWAP1 DUP2 DUP2 MSTORE PUSH1 0x20 ADD DUP3 DUP1 SLOAD PUSH2 0x3D5 SWAP1 PUSH2 0x97F JUMP JUMPDEST DUP1 ISZERO PUSH2 0x420 JUMPI DUP1 PUSH1 0x1F LT PUSH2 0x3F7 JUMPI PUSH2 0x100 DUP1 DUP4 SLOAD DIV MUL DUP4 MSTORE SWAP2 PUSH1 0x20 ADD SWAP2 PUSH2 0x420 JUMP JUMPDEST DUP3 ADD SWAP2 SWAP1 PUSH0 MSTORE PUSH1 0x20 PUSH0 KECCAK256 SWAP1 JUMPDEST DUP2 SLOAD DUP2 MSTORE SWAP1 PUSH1 0x1 ADD SWAP1 PUSH1 0x20 ADD DUP1 DUP4 GT PUSH2 0x403 JUMPI DUP3 SWAP1 SUB PUSH1 0x1F AND DUP3 ADD SWAP2 JUMPDEST POP POP POP POP POP SWAP1 POP SWAP2 SWAP1 POP JUMP JUMPDEST PUSH1 0x1 PUSH1 0x20 MSTORE DUP1 PUSH0 MSTORE PUSH1 0x40 PUSH0 KECCAK256 PUSH0 SWAP2 POP SWAP1 POP DUP1 PUSH0 ADD DUP1 SLOAD PUSH2 0x44B SWAP1 PUSH2 0x97F JUMP JUMPDEST DUP1 PUSH1 0x1F ADD PUSH1 0x20 DUP1 SWAP2 DIV MUL PUSH1 0x20 ADD PUSH1 0x40 MLOAD SWAP1 DUP2 ADD PUSH1 0x40 MSTORE DUP1 SWAP3 SWAP2 SWAP1 DUP2 DUP2 MSTORE PUSH1 0x20 ADD DUP3 DUP1 SLOAD PUSH2 0x477 SWAP1 PUSH2 0x97F JUMP JUMPDEST DUP1 ISZERO PUSH2 0x4C2 JUMPI DUP1 PUSH1 0x1F LT PUSH2 0x499 JUMPI PUSH2 0x100 DUP1 DUP4 SLOAD DIV MUL DUP4 MSTORE SWAP2 PUSH1 0x20 ADD SWAP2 PUSH2 0x4C2 JUMP JUMPDEST DUP3 ADD SWAP2 SWAP1 PUSH0 MSTORE PUSH1 0x20 PUSH0 KECCAK256 SWAP1 JUMPDEST DUP2 SLOAD DUP2 MSTORE SWAP1 PUSH1 0x1 ADD SWAP1 PUSH1 0x20 ADD DUP1 DUP4 GT PUSH2 0x4A5 JUMPI DUP3 SWAP1 SUB PUSH1 0x1F AND DUP3 ADD SWAP2 JUMPDEST POP POP POP POP POP SWAP1 DUP1 PUSH1 0x1 ADD SLOAD SWAP1 POP DUP3 JUMP JUMPDEST PUSH0 DUP2 DUP2 SLOAD DUP2 LT PUSH2 0x4E0 JUMPI PUSH0 DUP1 REVERT JUMPDEST SWAP1 PUSH0 MSTORE PUSH1 0x20 PUSH0 KECCAK256 SWAP1 PUSH1 0x2 MUL ADD PUSH0 SWAP2 POP SWAP1 POP DUP1 PUSH0 ADD DUP1 SLOAD PUSH2 0x4FF SWAP1 PUSH2 0x97F JUMP JUMPDEST DUP1 PUSH1 0x1F ADD PUSH1 0x20 DUP1 SWAP2 DIV MUL PUSH1 0x20 ADD PUSH1 0x40 MLOAD SWAP1 DUP2 ADD PUSH1 0x40 MSTORE DUP1 SWAP3 SWAP2 SWAP1 DUP2 DUP2 MSTORE PUSH1 0x20 ADD DUP3 DUP1 SLOAD PUSH2 0x52B SWAP1 PUSH2 0x97F JUMP JUMPDEST DUP1 ISZERO PUSH2 0x576 JUMPI DUP1 PUSH1 0x1F LT PUSH2 0x54D JUMPI PUSH2 0x100 DUP1 DUP4 SLOAD DIV MUL DUP4 MSTORE SWAP2 PUSH1 0x20 ADD SWAP2 PUSH2 0x576 JUMP JUMPDEST DUP3 ADD SWAP2 SWAP1 PUSH0 MSTORE PUSH1 0x20 PUSH0 KECCAK256 SWAP1 JUMPDEST DUP2 SLOAD DUP2 MSTORE SWAP1 PUSH1 0x1 ADD SWAP1 PUSH1 0x20 ADD DUP1 DUP4 GT PUSH2 0x559 JUMPI DUP3 SWAP1 SUB PUSH1 0x1F AND DUP3 ADD SWAP2 JUMPDEST POP POP POP POP POP SWAP1 DUP1 PUSH1 0x1 ADD SLOAD SWAP1 POP DUP3 JUMP JUMPDEST PUSH0 PUSH1 0x40 MLOAD SWAP1 POP SWAP1 JUMP JUMPDEST PUSH0 DUP1 REVERT JUMPDEST PUSH0 DUP1 REVERT JUMPDEST PUSH0 DUP1 REVERT JUMPDEST PUSH0 DUP1 REVERT JUMPDEST PUSH0 PUSH1 0x1F NOT PUSH1 0x1F DUP4 ADD AND SWAP1 POP SWAP2 SWAP1 POP JUMP JUMPDEST PUSH32 0x4E487B7100000000000000000000000000000000000000000000000000000000 PUSH0 MSTORE PUSH1 0x41 PUSH1 0x4 MSTORE PUSH1 0x24 PUSH0 REVERT JUMPDEST PUSH2 0x5E5 DUP3 PUSH2 0x59F JUMP JUMPDEST DUP2 ADD DUP2 DUP2 LT PUSH8 0xFFFFFFFFFFFFFFFF DUP3 GT OR ISZERO PUSH2 0x604 JUMPI PUSH2 0x603 PUSH2 0x5AF JUMP JUMPDEST JUMPDEST DUP1 PUSH1 0x40 MSTORE POP POP POP JUMP JUMPDEST PUSH0 PUSH2 0x616 PUSH2 0x586 JUMP JUMPDEST SWAP1 POP PUSH2 0x622 DUP3 DUP3 PUSH2 0x5DC JUMP JUMPDEST SWAP2 SWAP1 POP JUMP JUMPDEST PUSH0 PUSH8 0xFFFFFFFFFFFFFFFF DUP3 GT ISZERO PUSH2 0x641 JUMPI PUSH2 0x640 PUSH2 0x5AF JUMP JUMPDEST JUMPDEST PUSH2 0x64A DUP3 PUSH2 0x59F JUMP JUMPDEST SWAP1 POP PUSH1 0x20 DUP2 ADD SWAP1 POP SWAP2 SWAP1 POP JUMP JUMPDEST DUP3 DUP2 DUP4 CALLDATACOPY PUSH0 DUP4 DUP4 ADD MSTORE POP POP POP JUMP JUMPDEST PUSH0 PUSH2 0x677 PUSH2 0x672 DUP5 PUSH2 0x627 JUMP JUMPDEST PUSH2 0x60D JUMP JUMPDEST SWAP1 POP DUP3 DUP2 MSTORE PUSH1 0x20 DUP2 ADD DUP5 DUP5 DUP5 ADD GT ISZERO PUSH2 0x693 JUMPI PUSH2 0x692 PUSH2 0x59B JUMP JUMPDEST JUMPDEST PUSH2 0x69E DUP5 DUP3 DUP6 PUSH2 0x657 JUMP JUMPDEST POP SWAP4 SWAP3 POP POP POP JUMP JUMPDEST PUSH0 DUP3 PUSH1 0x1F DUP4 ADD SLT PUSH2 0x6BA JUMPI PUSH2 0x6B9 PUSH2 0x597 JUMP JUMPDEST JUMPDEST DUP2 CALLDATALOAD PUSH2 0x6CA DUP5 DUP3 PUSH1 0x20 DUP7 ADD PUSH2 0x665 JUMP JUMPDEST SWAP2 POP POP SWAP3 SWAP2 POP POP JUMP JUMPDEST PUSH0 DUP2 SWAP1 POP SWAP2 SWAP1 POP JUMP JUMPDEST PUSH2 0x6E5 DUP2 PUSH2 0x6D3 JUMP JUMPDEST DUP2 EQ PUSH2 0x6EF JUMPI PUSH0 DUP1 REVERT JUMPDEST POP JUMP JUMPDEST PUSH0 DUP2 CALLDATALOAD SWAP1 POP PUSH2 0x700 DUP2 PUSH2 0x6DC JUMP JUMPDEST SWAP3 SWAP2 POP POP JUMP JUMPDEST PUSH0 DUP1 PUSH1 0x40 DUP4 DUP6 SUB SLT ISZERO PUSH2 0x71C JUMPI PUSH2 0x71B PUSH2 0x58F JUMP JUMPDEST JUMPDEST PUSH0 DUP4 ADD CALLDATALOAD PUSH8 0xFFFFFFFFFFFFFFFF DUP2 GT ISZERO PUSH2 0x739 JUMPI PUSH2 0x738 PUSH2 0x593 JUMP JUMPDEST JUMPDEST PUSH2 0x745 DUP6 DUP3 DUP7 ADD PUSH2 0x6A6 JUMP JUMPDEST SWAP3 POP POP PUSH1 0x20 PUSH2 0x756 DUP6 DUP3 DUP7 ADD PUSH2 0x6F2 JUMP JUMPDEST SWAP2 POP POP SWAP3 POP SWAP3 SWAP1 POP JUMP JUMPDEST PUSH0 PUSH20 0xFFFFFFFFFFFFFFFFFFFFFFFFFFFFFFFFFFFFFFFF DUP3 AND SWAP1 POP SWAP2 SWAP1 POP JUMP JUMPDEST PUSH0 PUSH2 0x789 DUP3 PUSH2 0x760 JUMP JUMPDEST SWAP1 POP SWAP2 SWAP1 POP JUMP JUMPDEST PUSH2 0x799 DUP2 PUSH2 0x77F JUMP JUMPDEST DUP2 EQ PUSH2 0x7A3 JUMPI PUSH0 DUP1 REVERT JUMPDEST POP JUMP JUMPDEST PUSH0 DUP2 CALLDATALOAD SWAP1 POP PUSH2 0x7B4 DUP2 PUSH2 0x790 JUMP JUMPDEST SWAP3 SWAP2 POP POP JUMP JUMPDEST PUSH0 DUP1 PUSH0 PUSH1 0x60 DUP5 DUP7 SUB SLT ISZERO PUSH2 0x7D1 JUMPI PUSH2 0x7D0 PUSH2 0x58F JUMP JUMPDEST JUMPDEST PUSH0 PUSH2 0x7DE DUP7 DUP3 DUP8 ADD PUSH2 0x7A6 JUMP JUMPDEST SWAP4 POP POP PUSH1 0x20 DUP5 ADD CALLDATALOAD PUSH8 0xFFFFFFFFFFFFFFFF DUP2 GT ISZERO PUSH2 0x7FF JUMPI PUSH2 0x7FE PUSH2 0x593 JUMP JUMPDEST JUMPDEST PUSH2 0x80B DUP7 DUP3 DUP8 ADD PUSH2 0x6A6 JUMP JUMPDEST SWAP3 POP POP PUSH1 0x40 PUSH2 0x81C DUP7 DUP3 DUP8 ADD PUSH2 0x6F2 JUMP JUMPDEST SWAP2 POP POP SWAP3 POP SWAP3 POP SWAP3 JUMP JUMPDEST PUSH0 PUSH1 0x20 DUP3 DUP5 SUB SLT ISZERO PUSH2 0x83B JUMPI PUSH2 0x83A PUSH2 0x58F JUMP JUMPDEST JUMPDEST PUSH0 PUSH2 0x848 DUP5 DUP3 DUP6 ADD PUSH2 0x6F2 JUMP JUMPDEST SWAP2 POP POP SWAP3 SWAP2 POP POP JUMP JUMPDEST PUSH2 0x85A DUP2 PUSH2 0x6D3 JUMP JUMPDEST DUP3 MSTORE POP POP JUMP JUMPDEST PUSH0 PUSH1 0x20 DUP3 ADD SWAP1 POP PUSH2 0x873 PUSH0 DUP4 ADD DUP5 PUSH2 0x851 JUMP JUMPDEST SWAP3 SWAP2 POP POP JUMP JUMPDEST PUSH0 PUSH1 0x20 DUP3 DUP5 SUB SLT ISZERO PUSH2 0x88E JUMPI PUSH2 0x88D PUSH2 0x58F JUMP JUMPDEST JUMPDEST PUSH0 PUSH2 0x89B DUP5 DUP3 DUP6 ADD PUSH2 0x7A6 JUMP JUMPDEST SWAP2 POP POP SWAP3 SWAP2 POP POP JUMP JUMPDEST PUSH0 DUP2 MLOAD SWAP1 POP SWAP2 SWAP1 POP JUMP JUMPDEST PUSH0 DUP3 DUP3 MSTORE PUSH1 0x20 DUP3 ADD SWAP1 POP SWAP3 SWAP2 POP POP JUMP JUMPDEST DUP3 DUP2 DUP4 MCOPY PUSH0 DUP4 DUP4 ADD MSTORE POP POP POP JUMP JUMPDEST PUSH0 PUSH2 0x8D6 DUP3 PUSH2 0x8A4 JUMP JUMPDEST PUSH2 0x8E0 DUP2 DUP6 PUSH2 0x8AE JUMP JUMPDEST SWAP4 POP PUSH2 0x8F0 DUP2 DUP6 PUSH1 0x20 DUP7 ADD PUSH2 0x8BE JUMP JUMPDEST PUSH2 0x8F9 DUP2 PUSH2 0x59F JUMP JUMPDEST DUP5 ADD SWAP2 POP POP SWAP3 SWAP2 POP POP JUMP JUMPDEST PUSH0 PUSH1 0x20 DUP3 ADD SWAP1 POP DUP2 DUP2 SUB PUSH0 DUP4 ADD MSTORE PUSH2 0x91C DUP2 DUP5 PUSH2 0x8CC JUMP JUMPDEST SWAP1 POP SWAP3 SWAP2 POP POP JUMP JUMPDEST PUSH0 PUSH1 0x40 DUP3 ADD SWAP1 POP DUP2 DUP2 SUB PUSH0 DUP4 ADD MSTORE PUSH2 0x93C DUP2 DUP6 PUSH2 0x8CC JUMP JUMPDEST SWAP1 POP PUSH2 0x94B PUSH1 0x20 DUP4 ADD DUP5 PUSH2 0x851 JUMP JUMPDEST SWAP4 SWAP3 POP POP POP JUMP JUMPDEST PUSH32 0x4E487B7100000000000000000000000000000000000000000000000000000000 PUSH0 MSTORE PUSH1 0x22 PUSH1 0x4 MSTORE PUSH1 0x24 PUSH0 REVERT JUMPDEST PUSH0 PUSH1 0x2 DUP3 DIV SWAP1 POP PUSH1 0x1 DUP3 AND DUP1 PUSH2 0x996 JUMPI PUSH1 0x7F DUP3 AND SWAP2 POP JUMPDEST PUSH1 0x20 DUP3 LT DUP2 SUB PUSH2 0x9A9 JUMPI PUSH2 0x9A8 PUSH2 0x952 JUMP JUMPDEST JUMPDEST POP SWAP2 SWAP1 POP JUMP JUMPDEST PUSH0 DUP2 SWAP1 POP DUP2 PUSH0 MSTORE PUSH1 0x20 PUSH0 KECCAK256 SWAP1 POP SWAP2 SWAP1 POP JUMP JUMPDEST PUSH0 PUSH1 0x20 PUSH1 0x1F DUP4 ADD DIV SWAP1 POP SWAP2 SWAP1 POP JUMP JUMPDEST PUSH0 DUP3 DUP3 SHL SWAP1 POP SWAP3 SWAP2 POP POP JUMP JUMPDEST PUSH0 PUSH1 0x8 DUP4 MUL PUSH2 0xA0B PUSH32 0xFFFFFFFFFFFFFFFFFFFFFFFFFFFFFFFFFFFFFFFFFFFFFFFFFFFFFFFFFFFFFFFF DUP3 PUSH2 0x9D0 JUMP JUMPDEST PUSH2 0xA15 DUP7 DUP4 PUSH2 0x9D0 JUMP JUMPDEST SWAP6 POP DUP1 NOT DUP5 AND SWAP4 POP DUP1 DUP7 AND DUP5 OR SWAP3 POP POP POP SWAP4 SWAP3 POP POP POP JUMP JUMPDEST PUSH0 DUP2 SWAP1 POP SWAP2 SWAP1 POP JUMP JUMPDEST PUSH0 PUSH2 0xA50 PUSH2 0xA4B PUSH2 0xA46 DUP5 PUSH2 0x6D3 JUMP JUMPDEST PUSH2 0xA2D JUMP JUMPDEST PUSH2 0x6D3 JUMP JUMPDEST SWAP1 POP SWAP2 SWAP1 POP JUMP JUMPDEST PUSH0 DUP2 SWAP1 POP SWAP2 SWAP1 POP JUMP JUMPDEST PUSH2 0xA69 DUP4 PUSH2 0xA36 JUMP JUMPDEST PUSH2 0xA7D PUSH2 0xA75 DUP3 PUSH2 0xA57 JUMP JUMPDEST DUP5 DUP5 SLOAD PUSH2 0x9DC JUMP JUMPDEST DUP3 SSTORE POP POP POP POP JUMP JUMPDEST PUSH0 SWAP1 JUMP JUMPDEST PUSH2 0xA91 PUSH2 0xA85 JUMP JUMPDEST PUSH2 0xA9C DUP2 DUP5 DUP5 PUSH2 0xA60 JUMP JUMPDEST POP POP POP JUMP JUMPDEST JUMPDEST DUP2 DUP2 LT ISZERO PUSH2 0xABF JUMPI PUSH2 0xAB4 PUSH0 DUP3 PUSH2 0xA89 JUMP JUMPDEST PUSH1 0x1 DUP2 ADD SWAP1 POP PUSH2 0xAA2 JUMP JUMPDEST POP POP JUMP JUMPDEST PUSH1 0x1F DUP3 GT ISZERO PUSH2 0xB04 JUMPI PUSH2 0xAD5 DUP2 PUSH2 0x9AF JUMP JUMPDEST PUSH2 0xADE DUP5 PUSH2 0x9C1 JUMP JUMPDEST DUP2 ADD PUSH1 0x20 DUP6 LT ISZERO PUSH2 0xAED JUMPI DUP2 SWAP1 POP JUMPDEST PUSH2 0xB01 PUSH2 0xAF9 DUP6 PUSH2 0x9C1 JUMP JUMPDEST DUP4 ADD DUP3 PUSH2 0xAA1 JUMP JUMPDEST POP POP JUMPDEST POP POP POP JUMP JUMPDEST PUSH0 DUP3 DUP3 SHR SWAP1 POP SWAP3 SWAP2 POP POP JUMP JUMPDEST PUSH0 PUSH2 0xB24 PUSH0 NOT DUP5 PUSH1 0x8 MUL PUSH2 0xB09 JUMP JUMPDEST NOT DUP1 DUP4 AND SWAP2 POP POP SWAP3 SWAP2 POP POP JUMP JUMPDEST PUSH0 PUSH2 0xB3C DUP4 DUP4 PUSH2 0xB15 JUMP JUMPDEST SWAP2 POP DUP3 PUSH1 0x2 MUL DUP3 OR SWAP1 POP SWAP3 SWAP2 POP POP JUMP JUMPDEST PUSH2 0xB55 DUP3 PUSH2 0x8A4 JUMP JUMPDEST PUSH8 0xFFFFFFFFFFFFFFFF DUP2 GT ISZERO PUSH2 0xB6E JUMPI PUSH2 0xB6D PUSH2 0x5AF JUMP JUMPDEST JUMPDEST PUSH2 0xB78 DUP3 SLOAD PUSH2 0x97F JUMP JUMPDEST PUSH2 0xB83 DUP3 DUP3 DUP6 PUSH2 0xAC3 JUMP JUMPDEST PUSH0 PUSH1 0x20 SWAP1 POP PUSH1 0x1F DUP4 GT PUSH1 0x1 DUP2 EQ PUSH2 0xBB4 JUMPI PUSH0 DUP5 ISZERO PUSH2 0xBA2 JUMPI DUP3 DUP8 ADD MLOAD SWAP1 POP JUMPDEST PUSH2 0xBAC DUP6 DUP3 PUSH2 0xB31 JUMP JUMPDEST DUP7 SSTORE POP PUSH2 0xC13 JUMP JUMPDEST PUSH1 0x1F NOT DUP5 AND PUSH2 0xBC2 DUP7 PUSH2 0x9AF JUMP JUMPDEST PUSH0 JUMPDEST DUP3 DUP2 LT ISZERO PUSH2 0xBE9 JUMPI DUP5 DUP10 ADD MLOAD DUP3 SSTORE PUSH1 0x1 DUP3 ADD SWAP2 POP PUSH1 0x20 DUP6 ADD SWAP5 POP PUSH1 0x20 DUP2 ADD SWAP1 POP PUSH2 0xBC4 JUMP JUMPDEST DUP7 DUP4 LT ISZERO PUSH2 0xC06 JUMPI DUP5 DUP10 ADD MLOAD PUSH2 0xC02 PUSH1 0x1F DUP10 AND DUP3 PUSH2 0xB15 JUMP JUMPDEST DUP4 SSTORE POP JUMPDEST PUSH1 0x1 PUSH1 0x2 DUP9 MUL ADD DUP9 SSTORE POP POP POP JUMPDEST POP POP POP POP POP POP JUMP JUMPDEST PUSH32 0x4E487B7100000000000000000000000000000000000000000000000000000000 PUSH0 MSTORE PUSH1 0x32 PUSH1 0x4 MSTORE PUSH1 0x24 PUSH0 REVERT INVALID LOG2 PUSH5 0x6970667358 0x22 SLT KECCAK256 PUSH27 0x9F59F405D3B8D8251AD401F2D50FD39A40B176ED48D1C67257EB3F 0xEA LT STATICCALL 0x4B PUSH5 0x736F6C6343 STOP ADDMOD BYTE STOP CALLER "
				},
				"gasEstimates": {
					"creation": {
						"codeDepositCost": "639600",
						"executionCost": "668",
						"totalCost": "640268"
					},
					"external": {
						"addArray(string,uint256)": "infinite",
						"addMapping(address,string,uint256)": "infinite",
						"getArrayAge(uint256)": "infinite",
						"getArrayName(uint256)": "infinite",
						"getMappingName(address)": "infinite",
						"humanArray(uint256)": "infinite",
						"humanMapping(address)": "infinite"
					}
				},
				"methodIdentifiers": {
					"addArray(string,uint256)": "0d3de88d",
					"addMapping(address,string,uint256)": "0e0c243d",
					"getArrayAge(uint256)": "380a4250",
					"getArrayName(uint256)": "a677c48f",
					"getMappingName(address)": "4b61dd34",
					"humanArray(uint256)": "b9d6dedb",
					"humanMapping(address)": "a857bf32"
				}
			},
			"storageLayout": {
				"storage": [
					{
						"astId": 9,
						"contract": "Example/Ex5_9.sol:Ex5_9",
						"label": "humanArray",
						"offset": 0,
						"slot": "0",
						"type": "t_array(t_struct(Human)5_storage)dyn_storage"
					},
					{
						"astId": 14,
						"contract": "Example/Ex5_9.sol:Ex5_9",
						"label": "humanMapping",
						"offset": 0,
						"slot": "1",
						"type": "t_mapping(t_address,t_struct(Human)5_storage)"
					}
				],
				"types": {
					"t_address": {
						"encoding": "inplace",
						"label": "address",
						"numberOfBytes": "20"
					},
					"t_array(t_struct(Human)5_storage)dyn_storage": {
						"base": "t_struct(Human)5_storage",
						"encoding": "dynamic_array",
						"label": "struct Ex5_9.Human[]",
						"numberOfBytes": "32"
					},
					"t_mapping(t_address,t_struct(Human)5_storage)": {
						"encoding": "mapping",
						"key": "t_address",
						"label": "mapping(address => struct Ex5_9.Human)",
						"numberOfBytes": "32",
						"value": "t_struct(Human)5_storage"
					},
					"t_string_storage": {
						"encoding": "bytes",
						"label": "string",
						"numberOfBytes": "32"
					},
					"t_struct(Human)5_storage": {
						"encoding": "inplace",
						"label": "struct Ex5_9.Human",
						"members": [
							{
								"astId": 2,
								"contract": "Example/Ex5_9.sol:Ex5_9",
								"label": "name",
								"offset": 0,
								"slot": "0",
								"type": "t_string_storage"
							},
							{
								"astId": 4,
								"contract": "Example/Ex5_9.sol:Ex5_9",
								"label": "age",
								"offset": 0,
								"slot": "1",
								"type": "t_uint256"
							}
						],
						"numberOfBytes": "64"
					},
					"t_uint256": {
						"encoding": "inplace",
						"label": "uint256",
						"numberOfBytes": "32"
					}
				}
			},
			"userdoc": {
				"kind": "user",
				"methods": {},
				"version": 1
			}
		}
	}
}