{
	"Example/COMPUTER.sol": {
		"Computer": {
			"abi": [
				{
					"inputs": [],
					"name": "boot",
					"outputs": [
						{
							"internalType": "uint256",
							"name": "",
							"type": "uint256"
						},
						{
							"internalType": "bool",
							"name": "",
							"type": "bool"
						}
					],
					"stateMutability": "nonpayable",
					"type": "function"
				}
			],
			"devdoc": {
				"kind": "dev",
				"methods": {},
				"version": 1
			},
			"evm": {
				"assembly": "    /* \"Example/COMPUTER.sol\":311:488  contract Computer is System{... */\n  mstore(0x40, 0x80)\n  callvalue\n  dup1\n  iszero\n  tag_1\n  jumpi\n  0x00\n  dup1\n  revert\ntag_1:\n  pop\n  dataSize(sub_0)\n  dup1\n  dataOffset(sub_0)\n  0x00\n  codecopy\n  0x00\n  return\nstop\n\nsub_0: assembly {\n        /* \"Example/COMPUTER.sol\":311:488  contract Computer is System{... */\n      mstore(0x40, 0x80)\n      callvalue\n      dup1\n      iszero\n      tag_1\n      jumpi\n      0x00\n      dup1\n      revert\n    tag_1:\n      pop\n      jumpi(tag_2, lt(calldatasize, 0x04))\n      shr(0xe0, calldataload(0x00))\n      dup1\n      0x54d44bf7\n      eq\n      tag_3\n      jumpi\n    tag_2:\n      0x00\n      dup1\n      revert\n        /* \"Example/COMPUTER.sol\":178:307  function boot() public returns(uint,bool){... */\n    tag_3:\n      tag_4\n      tag_5\n      jump\t// in\n    tag_4:\n      mload(0x40)\n      tag_6\n      swap3\n      swap2\n      swap1\n      tag_7\n      jump\t// in\n    tag_6:\n      mload(0x40)\n      dup1\n      swap2\n      sub\n      swap1\n      return\n    tag_5:\n        /* \"Example/COMPUTER.sol\":209:213  uint */\n      0x00\n        /* \"Example/COMPUTER.sol\":214:218  bool */\n      dup1\n        /* \"Example/COMPUTER.sol\":229:243  versionCheck() */\n      tag_9\n        /* \"Example/COMPUTER.sol\":229:241  versionCheck */\n      tag_10\n        /* \"Example/COMPUTER.sol\":229:243  versionCheck() */\n      jump\t// in\n    tag_9:\n        /* \"Example/COMPUTER.sol\":253:265  errorCheck() */\n      tag_11\n        /* \"Example/COMPUTER.sol\":253:263  errorCheck */\n      tag_12\n        /* \"Example/COMPUTER.sol\":253:265  errorCheck() */\n      jump\t// in\n    tag_11:\n        /* \"Example/COMPUTER.sol\":282:289  version */\n      sload(0x00)\n        /* \"Example/COMPUTER.sol\":290:299  errorPass */\n      0x01\n      0x00\n      swap1\n      sload\n      swap1\n      0x0100\n      exp\n      swap1\n      div\n      0xff\n      and\n        /* \"Example/COMPUTER.sol\":275:300  return(version,errorPass) */\n      swap2\n      pop\n      swap2\n      pop\n        /* \"Example/COMPUTER.sol\":178:307  function boot() public returns(uint,bool){... */\n      swap1\n      swap2\n      jump\t// out\n        /* \"Example/COMPUTER.sol\":344:411  function versionCheck() internal override{... */\n    tag_10:\n        /* \"Example/COMPUTER.sol\":403:404  3 */\n      0x03\n        /* \"Example/COMPUTER.sol\":395:402  version */\n      0x00\n        /* \"Example/COMPUTER.sol\":395:404  version=3 */\n      dup2\n      swap1\n      sstore\n      pop\n        /* \"Example/COMPUTER.sol\":344:411  function versionCheck() internal override{... */\n      jump\t// out\n        /* \"Example/COMPUTER.sol\":416:486  function errorCheck() internal override{... */\n    tag_12:\n        /* \"Example/COMPUTER.sol\":475:479  true */\n      0x01\n        /* \"Example/COMPUTER.sol\":465:474  errorPass */\n      dup1\n      0x00\n        /* \"Example/COMPUTER.sol\":465:479  errorPass=true */\n      0x0100\n      exp\n      dup2\n      sload\n      dup2\n      0xff\n      mul\n      not\n      and\n      swap1\n      dup4\n      iszero\n      iszero\n      mul\n      or\n      swap1\n      sstore\n      pop\n        /* \"Example/COMPUTER.sol\":416:486  function errorCheck() internal override{... */\n      jump\t// out\n        /* \"#utility.yul\":7:84   */\n    tag_15:\n        /* \"#utility.yul\":44:51   */\n      0x00\n        /* \"#utility.yul\":73:78   */\n      dup2\n        /* \"#utility.yul\":62:78   */\n      swap1\n      pop\n        /* \"#utility.yul\":7:84   */\n      swap2\n      swap1\n      pop\n      jump\t// out\n        /* \"#utility.yul\":90:208   */\n    tag_16:\n        /* \"#utility.yul\":177:201   */\n      tag_22\n        /* \"#utility.yul\":195:200   */\n      dup2\n        /* \"#utility.yul\":177:201   */\n      tag_15\n      jump\t// in\n    tag_22:\n        /* \"#utility.yul\":172:175   */\n      dup3\n        /* \"#utility.yul\":165:202   */\n      mstore\n        /* \"#utility.yul\":90:208   */\n      pop\n      pop\n      jump\t// out\n        /* \"#utility.yul\":214:304   */\n    tag_17:\n        /* \"#utility.yul\":248:255   */\n      0x00\n        /* \"#utility.yul\":291:296   */\n      dup2\n        /* \"#utility.yul\":284:297   */\n      iszero\n        /* \"#utility.yul\":277:298   */\n      iszero\n        /* \"#utility.yul\":266:298   */\n      swap1\n      pop\n        /* \"#utility.yul\":214:304   */\n      swap2\n      swap1\n      pop\n      jump\t// out\n        /* \"#utility.yul\":310:419   */\n    tag_18:\n        /* \"#utility.yul\":391:412   */\n      tag_25\n        /* \"#utility.yul\":406:411   */\n      dup2\n        /* \"#utility.yul\":391:412   */\n      tag_17\n      jump\t// in\n    tag_25:\n        /* \"#utility.yul\":386:389   */\n      dup3\n        /* \"#utility.yul\":379:413   */\n      mstore\n        /* \"#utility.yul\":310:419   */\n      pop\n      pop\n      jump\t// out\n        /* \"#utility.yul\":425:745   */\n    tag_7:\n        /* \"#utility.yul\":540:544   */\n      0x00\n        /* \"#utility.yul\":578:580   */\n      0x40\n        /* \"#utility.yul\":567:576   */\n      dup3\n        /* \"#utility.yul\":563:581   */\n      add\n        /* \"#utility.yul\":555:581   */\n      swap1\n      pop\n        /* \"#utility.yul\":591:662   */\n      tag_27\n        /* \"#utility.yul\":659:660   */\n      0x00\n        /* \"#utility.yul\":648:657   */\n      dup4\n        /* \"#utility.yul\":644:661   */\n      add\n        /* \"#utility.yul\":635:641   */\n      dup6\n        /* \"#utility.yul\":591:662   */\n      tag_16\n      jump\t// in\n    tag_27:\n        /* \"#utility.yul\":672:738   */\n      tag_28\n        /* \"#utility.yul\":734:736   */\n      0x20\n        /* \"#utility.yul\":723:732   */\n      dup4\n        /* \"#utility.yul\":719:737   */\n      add\n        /* \"#utility.yul\":710:716   */\n      dup5\n        /* \"#utility.yul\":672:738   */\n      tag_18\n      jump\t// in\n    tag_28:\n        /* \"#utility.yul\":425:745   */\n      swap4\n      swap3\n      pop\n      pop\n      pop\n      jump\t// out\n\n    auxdata: 0xa2646970667358221220b47ae1bb20454ddaa6cc42e177d08793ddc80a84f512f7c5d87c52632b6fe91064736f6c634300081a0033\n}\n",
				"bytecode": {
					"linkReferences": {},
					"object": "6080604052348015600e575f80fd5b506101178061001c5f395ff3fe6080604052348015600e575f80fd5b50600436106026575f3560e01c806354d44bf714602a575b5f80fd5b60306045565b604051603c92919060be565b60405180910390f35b5f80604d606c565b60536075565b5f5460015f9054906101000a900460ff16915091509091565b60035f81905550565b6001805f6101000a81548160ff021916908315150217905550565b5f819050919050565b60a0816090565b82525050565b5f8115159050919050565b60b88160a6565b82525050565b5f60408201905060cf5f8301856099565b60da602083018460b1565b939250505056fea2646970667358221220b47ae1bb20454ddaa6cc42e177d08793ddc80a84f512f7c5d87c52632b6fe91064736f6c634300081a0033",
					"opcodes": "PUSH1 0x80 PUSH1 0x40 MSTORE CALLVALUE DUP1 ISZERO PUSH1 0xE JUMPI PUSH0 DUP1 REVERT JUMPDEST POP PUSH2 0x117 DUP1 PUSH2 0x1C PUSH0 CODECOPY PUSH0 RETURN INVALID PUSH1 0x80 PUSH1 0x40 MSTORE CALLVALUE DUP1 ISZERO PUSH1 0xE JUMPI PUSH0 DUP1 REVERT JUMPDEST POP PUSH1 0x4 CALLDATASIZE LT PUSH1 0x26 JUMPI PUSH0 CALLDATALOAD PUSH1 0xE0 SHR DUP1 PUSH4 0x54D44BF7 EQ PUSH1 0x2A JUMPI JUMPDEST PUSH0 DUP1 REVERT JUMPDEST PUSH1 0x30 PUSH1 0x45 JUMP JUMPDEST PUSH1 0x40 MLOAD PUSH1 0x3C SWAP3 SWAP2 SWAP1 PUSH1 0xBE JUMP JUMPDEST PUSH1 0x40 MLOAD DUP1 SWAP2 SUB SWAP1 RETURN JUMPDEST PUSH0 DUP1 PUSH1 0x4D PUSH1 0x6C JUMP JUMPDEST PUSH1 0x53 PUSH1 0x75 JUMP JUMPDEST PUSH0 SLOAD PUSH1 0x1 PUSH0 SWAP1 SLOAD SWAP1 PUSH2 0x100 EXP SWAP1 DIV PUSH1 0xFF AND SWAP2 POP SWAP2 POP SWAP1 SWAP2 JUMP JUMPDEST PUSH1 0x3 PUSH0 DUP2 SWAP1 SSTORE POP JUMP JUMPDEST PUSH1 0x1 DUP1 PUSH0 PUSH2 0x100 EXP DUP2 SLOAD DUP2 PUSH1 0xFF MUL NOT AND SWAP1 DUP4 ISZERO ISZERO MUL OR SWAP1 SSTORE POP JUMP JUMPDEST PUSH0 DUP2 SWAP1 POP SWAP2 SWAP1 POP JUMP JUMPDEST PUSH1 0xA0 DUP2 PUSH1 0x90 JUMP JUMPDEST DUP3 MSTORE POP POP JUMP JUMPDEST PUSH0 DUP2 ISZERO ISZERO SWAP1 POP SWAP2 SWAP1 POP JUMP JUMPDEST PUSH1 0xB8 DUP2 PUSH1 0xA6 JUMP JUMPDEST DUP3 MSTORE POP POP JUMP JUMPDEST PUSH0 PUSH1 0x40 DUP3 ADD SWAP1 POP PUSH1 0xCF PUSH0 DUP4 ADD DUP6 PUSH1 0x99 JUMP JUMPDEST PUSH1 0xDA PUSH1 0x20 DUP4 ADD DUP5 PUSH1 0xB1 JUMP JUMPDEST SWAP4 SWAP3 POP POP POP JUMP INVALID LOG2 PUSH5 0x6970667358 0x22 SLT KECCAK256 0xB4 PUSH27 0xE1BB20454DDAA6CC42E177D08793DDC80A84F512F7C5D87C52632B PUSH16 0xE91064736F6C634300081A0033000000 "
				},
				"gasEstimates": {
					"creation": {
						"codeDepositCost": "55800",
						"executionCost": "103",
						"totalCost": "55903"
					},
					"external": {
						"boot()": "51090"
					},
					"internal": {
						"errorCheck()": "24275",
						"versionCheck()": "22122"
					}
				},
				"methodIdentifiers": {
					"boot()": "54d44bf7"
				}
			},
			"storageLayout": {
				"storage": [
					{
						"astId": 2,
						"contract": "Example/COMPUTER.sol:Computer",
						"label": "version",
						"offset": 0,
						"slot": "0",
						"type": "t_uint256"
					},
					{
						"astId": 4,
						"contract": "Example/COMPUTER.sol:Computer",
						"label": "errorPass",
						"offset": 0,
						"slot": "1",
						"type": "t_bool"
					}
				],
				"types": {
					"t_bool": {
						"encoding": "inplace",
						"label": "bool",
						"numberOfBytes": "1"
					},
					"t_uint256": {
						"encoding": "inplace",
						"label": "uint256",
						"numberOfBytes": "32"
					}
				}
			},
			"userdoc": {
				"kind": "user",
				"methods": {},
				"version": 1
			}
		}
	}
}