{
	"Example/ANIAMLSET.sol": {
		"AnimalSet": {
			"abi": [
				{
					"inputs": [],
					"name": "getAllNames",
					"outputs": [
						{
							"internalType": "string",
							"name": "",
							"type": "string"
						},
						{
							"internalType": "string",
							"name": "",
							"type": "string"
						}
					],
					"stateMutability": "view",
					"type": "function"
				},
				{
					"inputs": [],
					"name": "tiger",
					"outputs": [
						{
							"internalType": "contract Animal",
							"name": "",
							"type": "address"
						}
					],
					"stateMutability": "view",
					"type": "function"
				},
				{
					"inputs": [],
					"name": "turtle",
					"outputs": [
						{
							"internalType": "contract Animal",
							"name": "",
							"type": "address"
						}
					],
					"stateMutability": "view",
					"type": "function"
				},
				{
					"inputs": [
						{
							"internalType": "contract Animal",
							"name": "_animal",
							"type": "address"
						}
					],
					"name": "whatIsTheName",
					"outputs": [
						{
							"internalType": "string",
							"name": "",
							"type": "string"
						}
					],
					"stateMutability": "pure",
					"type": "function"
				}
			],
			"devdoc": {
				"kind": "dev",
				"methods": {},
				"version": 1
			},
			"evm": {
				"assembly": "    /* \"Example/ANIAMLSET.sol\":371:729  contract AnimalSet{... */\n  mstore(0x40, 0x80)\n    /* \"Example/ANIAMLSET.sol\":417:428  new Tiger() */\n  mload(0x40)\n  tag_1\n  swap1\n  tag_2\n  jump\t// in\ntag_1:\n  mload(0x40)\n  dup1\n  swap2\n  sub\n  swap1\n  0x00\n  create\n  dup1\n  iszero\n  dup1\n  iszero\n  tag_3\n  jumpi\n  returndatasize\n  0x00\n  dup1\n  returndatacopy\n  revert(0x00, returndatasize)\ntag_3:\n  pop\n    /* \"Example/ANIAMLSET.sol\":395:428  Animal public tiger = new Tiger() */\n  0x00\n  dup1\n  0x0100\n  exp\n  dup2\n  sload\n  dup2\n  0xffffffffffffffffffffffffffffffffffffffff\n  mul\n  not\n  and\n  swap1\n  dup4\n  0xffffffffffffffffffffffffffffffffffffffff\n  and\n  mul\n  or\n  swap1\n  sstore\n  pop\n    /* \"Example/ANIAMLSET.sol\":457:469  new Turtle() */\n  mload(0x40)\n  tag_4\n  swap1\n  tag_5\n  jump\t// in\ntag_4:\n  mload(0x40)\n  dup1\n  swap2\n  sub\n  swap1\n  0x00\n  create\n  dup1\n  iszero\n  dup1\n  iszero\n  tag_6\n  jumpi\n  returndatasize\n  0x00\n  dup1\n  returndatacopy\n  revert(0x00, returndatasize)\ntag_6:\n  pop\n    /* \"Example/ANIAMLSET.sol\":434:469  Animal public turtle = new Turtle() */\n  0x01\n  exp(0x0100, 0x00)\n  dup2\n  sload\n  dup2\n  0xffffffffffffffffffffffffffffffffffffffff\n  mul\n  not\n  and\n  swap1\n  dup4\n  0xffffffffffffffffffffffffffffffffffffffff\n  and\n  mul\n  or\n  swap1\n  sstore\n  pop\n    /* \"Example/ANIAMLSET.sol\":371:729  contract AnimalSet{... */\n  callvalue\n  dup1\n  iszero\n  tag_7\n  jumpi\n  0x00\n  dup1\n  revert\ntag_7:\n  pop\n  jump(tag_8)\ntag_2:\n  dataSize(sub_1)\n  dup1\n  dataOffset(sub_1)\n  dup4\n  codecopy\n  add\n  swap1\n  jump\t// out\ntag_5:\n  dataSize(sub_2)\n  dup1\n  dataOffset(sub_2)\n  dup4\n  codecopy\n  add\n  swap1\n  jump\t// out\ntag_8:\n  dataSize(sub_0)\n  dup1\n  dataOffset(sub_0)\n  0x00\n  codecopy\n  0x00\n  return\nstop\n\nsub_0: assembly {\n        /* \"Example/ANIAMLSET.sol\":371:729  contract AnimalSet{... */\n      mstore(0x40, 0x80)\n      callvalue\n      dup1\n      iszero\n      tag_1\n      jumpi\n      0x00\n      dup1\n      revert\n    tag_1:\n      pop\n      jumpi(tag_2, lt(calldatasize, 0x04))\n      shr(0xe0, calldataload(0x00))\n      dup1\n      0x44d333ff\n      eq\n      tag_3\n      jumpi\n      dup1\n      0x5d422032\n      eq\n      tag_4\n      jumpi\n      dup1\n      0x9266ad16\n      eq\n      tag_5\n      jumpi\n      dup1\n      0xfb825e5f\n      eq\n      tag_6\n      jumpi\n    tag_2:\n      0x00\n      dup1\n      revert\n        /* \"Example/ANIAMLSET.sol\":395:428  Animal public tiger = new Tiger() */\n    tag_3:\n      tag_7\n      tag_8\n      jump\t// in\n    tag_7:\n      mload(0x40)\n      tag_9\n      swap2\n      swap1\n      tag_10\n      jump\t// in\n    tag_9:\n      mload(0x40)\n      dup1\n      swap2\n      sub\n      swap1\n      return\n        /* \"Example/ANIAMLSET.sol\":434:469  Animal public turtle = new Turtle() */\n    tag_4:\n      tag_11\n      tag_12\n      jump\t// in\n    tag_11:\n      mload(0x40)\n      tag_13\n      swap2\n      swap1\n      tag_10\n      jump\t// in\n    tag_13:\n      mload(0x40)\n      dup1\n      swap2\n      sub\n      swap1\n      return\n        /* \"Example/ANIAMLSET.sol\":611:727  function whatIsTheName(Animal _animal) public pure returns(string memory){... */\n    tag_5:\n      tag_14\n      0x04\n      dup1\n      calldatasize\n      sub\n      dup2\n      add\n      swap1\n      tag_15\n      swap2\n      swap1\n      tag_16\n      jump\t// in\n    tag_15:\n      tag_17\n      jump\t// in\n    tag_14:\n      mload(0x40)\n      tag_18\n      swap2\n      swap1\n      tag_19\n      jump\t// in\n    tag_18:\n      mload(0x40)\n      dup1\n      swap2\n      sub\n      swap1\n      return\n        /* \"Example/ANIAMLSET.sol\":476:606  function getAllNames() public view returns(string memory, string memory){... */\n    tag_6:\n      tag_20\n      tag_21\n      jump\t// in\n    tag_20:\n      mload(0x40)\n      tag_22\n      swap3\n      swap2\n      swap1\n      tag_23\n      jump\t// in\n    tag_22:\n      mload(0x40)\n      dup1\n      swap2\n      sub\n      swap1\n      return\n        /* \"Example/ANIAMLSET.sol\":395:428  Animal public tiger = new Tiger() */\n    tag_8:\n      0x00\n      dup1\n      sload\n      swap1\n      0x0100\n      exp\n      swap1\n      div\n      0xffffffffffffffffffffffffffffffffffffffff\n      and\n      dup2\n      jump\t// out\n        /* \"Example/ANIAMLSET.sol\":434:469  Animal public turtle = new Turtle() */\n    tag_12:\n      0x01\n      0x00\n      swap1\n      sload\n      swap1\n      0x0100\n      exp\n      swap1\n      div\n      0xffffffffffffffffffffffffffffffffffffffff\n      and\n      dup2\n      jump\t// out\n        /* \"Example/ANIAMLSET.sol\":611:727  function whatIsTheName(Animal _animal) public pure returns(string memory){... */\n    tag_17:\n        /* \"Example/ANIAMLSET.sol\":670:683  string memory */\n      0x60\n        /* \"Example/ANIAMLSET.sol\":702:709  _animal */\n      dup2\n        /* \"Example/ANIAMLSET.sol\":702:717  _animal.getName */\n      0xffffffffffffffffffffffffffffffffffffffff\n      and\n      0x17d7de7c\n        /* \"Example/ANIAMLSET.sol\":702:719  _animal.getName() */\n      mload(0x40)\n      dup2\n      0xffffffff\n      and\n      0xe0\n      shl\n      dup2\n      mstore\n      0x04\n      add\n      0x00\n      mload(0x40)\n      dup1\n      dup4\n      sub\n      dup2\n      dup7\n      gas\n      staticcall\n      iszero\n      dup1\n      iszero\n      tag_26\n      jumpi\n      returndatasize\n      0x00\n      dup1\n      returndatacopy\n      revert(0x00, returndatasize)\n    tag_26:\n      pop\n      pop\n      pop\n      pop\n      mload(0x40)\n      returndatasize\n      0x00\n      dup3\n      returndatacopy\n      returndatasize\n      not(0x1f)\n      0x1f\n      dup3\n      add\n      and\n      dup3\n      add\n      dup1\n      0x40\n      mstore\n      pop\n      dup2\n      add\n      swap1\n      tag_27\n      swap2\n      swap1\n      tag_28\n      jump\t// in\n    tag_27:\n        /* \"Example/ANIAMLSET.sol\":694:720  return (_animal.getName()) */\n      swap1\n      pop\n        /* \"Example/ANIAMLSET.sol\":611:727  function whatIsTheName(Animal _animal) public pure returns(string memory){... */\n      swap2\n      swap1\n      pop\n      jump\t// out\n        /* \"Example/ANIAMLSET.sol\":476:606  function getAllNames() public view returns(string memory, string memory){... */\n    tag_21:\n        /* \"Example/ANIAMLSET.sol\":519:532  string memory */\n      0x60\n        /* \"Example/ANIAMLSET.sol\":534:547  string memory */\n      dup1\n        /* \"Example/ANIAMLSET.sol\":566:571  tiger */\n      0x00\n      dup1\n      sload\n      swap1\n      0x0100\n      exp\n      swap1\n      div\n      0xffffffffffffffffffffffffffffffffffffffff\n      and\n        /* \"Example/ANIAMLSET.sol\":566:579  tiger.getName */\n      0xffffffffffffffffffffffffffffffffffffffff\n      and\n      0x17d7de7c\n        /* \"Example/ANIAMLSET.sol\":566:581  tiger.getName() */\n      mload(0x40)\n      dup2\n      0xffffffff\n      and\n      0xe0\n      shl\n      dup2\n      mstore\n      0x04\n      add\n      0x00\n      mload(0x40)\n      dup1\n      dup4\n      sub\n      dup2\n      dup7\n      gas\n      staticcall\n      iszero\n      dup1\n      iszero\n      tag_31\n      jumpi\n      returndatasize\n      0x00\n      dup1\n      returndatacopy\n      revert(0x00, returndatasize)\n    tag_31:\n      pop\n      pop\n      pop\n      pop\n      mload(0x40)\n      returndatasize\n      0x00\n      dup3\n      returndatacopy\n      returndatasize\n      not(0x1f)\n      0x1f\n      dup3\n      add\n      and\n      dup3\n      add\n      dup1\n      0x40\n      mstore\n      pop\n      dup2\n      add\n      swap1\n      tag_32\n      swap2\n      swap1\n      tag_28\n      jump\t// in\n    tag_32:\n        /* \"Example/ANIAMLSET.sol\":582:588  turtle */\n      0x01\n      0x00\n      swap1\n      sload\n      swap1\n      0x0100\n      exp\n      swap1\n      div\n      0xffffffffffffffffffffffffffffffffffffffff\n      and\n        /* \"Example/ANIAMLSET.sol\":582:596  turtle.getName */\n      0xffffffffffffffffffffffffffffffffffffffff\n      and\n      0x17d7de7c\n        /* \"Example/ANIAMLSET.sol\":582:598  turtle.getName() */\n      mload(0x40)\n      dup2\n      0xffffffff\n      and\n      0xe0\n      shl\n      dup2\n      mstore\n      0x04\n      add\n      0x00\n      mload(0x40)\n      dup1\n      dup4\n      sub\n      dup2\n      dup7\n      gas\n      staticcall\n      iszero\n      dup1\n      iszero\n      tag_34\n      jumpi\n      returndatasize\n      0x00\n      dup1\n      returndatacopy\n      revert(0x00, returndatasize)\n    tag_34:\n      pop\n      pop\n      pop\n      pop\n      mload(0x40)\n      returndatasize\n      0x00\n      dup3\n      returndatacopy\n      returndatasize\n      not(0x1f)\n      0x1f\n      dup3\n      add\n      and\n      dup3\n      add\n      dup1\n      0x40\n      mstore\n      pop\n      dup2\n      add\n      swap1\n      tag_35\n      swap2\n      swap1\n      tag_28\n      jump\t// in\n    tag_35:\n        /* \"Example/ANIAMLSET.sol\":558:599  return (tiger.getName(),turtle.getName()) */\n      swap2\n      pop\n      swap2\n      pop\n        /* \"Example/ANIAMLSET.sol\":476:606  function getAllNames() public view returns(string memory, string memory){... */\n      swap1\n      swap2\n      jump\t// out\n        /* \"#utility.yul\":7:133   */\n    tag_36:\n        /* \"#utility.yul\":44:51   */\n      0x00\n        /* \"#utility.yul\":84:126   */\n      0xffffffffffffffffffffffffffffffffffffffff\n        /* \"#utility.yul\":77:82   */\n      dup3\n        /* \"#utility.yul\":73:127   */\n      and\n        /* \"#utility.yul\":62:127   */\n      swap1\n      pop\n        /* \"#utility.yul\":7:133   */\n      swap2\n      swap1\n      pop\n      jump\t// out\n        /* \"#utility.yul\":139:199   */\n    tag_37:\n        /* \"#utility.yul\":167:170   */\n      0x00\n        /* \"#utility.yul\":188:193   */\n      dup2\n        /* \"#utility.yul\":181:193   */\n      swap1\n      pop\n        /* \"#utility.yul\":139:199   */\n      swap2\n      swap1\n      pop\n      jump\t// out\n        /* \"#utility.yul\":205:347   */\n    tag_38:\n        /* \"#utility.yul\":255:264   */\n      0x00\n        /* \"#utility.yul\":288:341   */\n      tag_66\n        /* \"#utility.yul\":306:340   */\n      tag_67\n        /* \"#utility.yul\":315:339   */\n      tag_68\n        /* \"#utility.yul\":333:338   */\n      dup5\n        /* \"#utility.yul\":315:339   */\n      tag_36\n      jump\t// in\n    tag_68:\n        /* \"#utility.yul\":306:340   */\n      tag_37\n      jump\t// in\n    tag_67:\n        /* \"#utility.yul\":288:341   */\n      tag_36\n      jump\t// in\n    tag_66:\n        /* \"#utility.yul\":275:341   */\n      swap1\n      pop\n        /* \"#utility.yul\":205:347   */\n      swap2\n      swap1\n      pop\n      jump\t// out\n        /* \"#utility.yul\":353:479   */\n    tag_39:\n        /* \"#utility.yul\":403:412   */\n      0x00\n        /* \"#utility.yul\":436:473   */\n      tag_70\n        /* \"#utility.yul\":467:472   */\n      dup3\n        /* \"#utility.yul\":436:473   */\n      tag_38\n      jump\t// in\n    tag_70:\n        /* \"#utility.yul\":423:473   */\n      swap1\n      pop\n        /* \"#utility.yul\":353:479   */\n      swap2\n      swap1\n      pop\n      jump\t// out\n        /* \"#utility.yul\":485:623   */\n    tag_40:\n        /* \"#utility.yul\":547:556   */\n      0x00\n        /* \"#utility.yul\":580:617   */\n      tag_72\n        /* \"#utility.yul\":611:616   */\n      dup3\n        /* \"#utility.yul\":580:617   */\n      tag_39\n      jump\t// in\n    tag_72:\n        /* \"#utility.yul\":567:617   */\n      swap1\n      pop\n        /* \"#utility.yul\":485:623   */\n      swap2\n      swap1\n      pop\n      jump\t// out\n        /* \"#utility.yul\":629:784   */\n    tag_41:\n        /* \"#utility.yul\":728:777   */\n      tag_74\n        /* \"#utility.yul\":771:776   */\n      dup2\n        /* \"#utility.yul\":728:777   */\n      tag_40\n      jump\t// in\n    tag_74:\n        /* \"#utility.yul\":723:726   */\n      dup3\n        /* \"#utility.yul\":716:778   */\n      mstore\n        /* \"#utility.yul\":629:784   */\n      pop\n      pop\n      jump\t// out\n        /* \"#utility.yul\":790:1036   */\n    tag_10:\n        /* \"#utility.yul\":895:899   */\n      0x00\n        /* \"#utility.yul\":933:935   */\n      0x20\n        /* \"#utility.yul\":922:931   */\n      dup3\n        /* \"#utility.yul\":918:936   */\n      add\n        /* \"#utility.yul\":910:936   */\n      swap1\n      pop\n        /* \"#utility.yul\":946:1029   */\n      tag_76\n        /* \"#utility.yul\":1026:1027   */\n      0x00\n        /* \"#utility.yul\":1015:1024   */\n      dup4\n        /* \"#utility.yul\":1011:1028   */\n      add\n        /* \"#utility.yul\":1002:1008   */\n      dup5\n        /* \"#utility.yul\":946:1029   */\n      tag_41\n      jump\t// in\n    tag_76:\n        /* \"#utility.yul\":790:1036   */\n      swap3\n      swap2\n      pop\n      pop\n      jump\t// out\n        /* \"#utility.yul\":1042:1117   */\n    tag_42:\n        /* \"#utility.yul\":1075:1081   */\n      0x00\n        /* \"#utility.yul\":1108:1110   */\n      0x40\n        /* \"#utility.yul\":1102:1111   */\n      mload\n        /* \"#utility.yul\":1092:1111   */\n      swap1\n      pop\n        /* \"#utility.yul\":1042:1117   */\n      swap1\n      jump\t// out\n        /* \"#utility.yul\":1123:1240   */\n    tag_43:\n        /* \"#utility.yul\":1232:1233   */\n      0x00\n        /* \"#utility.yul\":1229:1230   */\n      dup1\n        /* \"#utility.yul\":1222:1234   */\n      revert\n        /* \"#utility.yul\":1246:1363   */\n    tag_44:\n        /* \"#utility.yul\":1355:1356   */\n      0x00\n        /* \"#utility.yul\":1352:1353   */\n      dup1\n        /* \"#utility.yul\":1345:1357   */\n      revert\n        /* \"#utility.yul\":1369:1465   */\n    tag_45:\n        /* \"#utility.yul\":1406:1413   */\n      0x00\n        /* \"#utility.yul\":1435:1459   */\n      tag_81\n        /* \"#utility.yul\":1453:1458   */\n      dup3\n        /* \"#utility.yul\":1435:1459   */\n      tag_36\n      jump\t// in\n    tag_81:\n        /* \"#utility.yul\":1424:1459   */\n      swap1\n      pop\n        /* \"#utility.yul\":1369:1465   */\n      swap2\n      swap1\n      pop\n      jump\t// out\n        /* \"#utility.yul\":1471:1579   */\n    tag_46:\n        /* \"#utility.yul\":1520:1527   */\n      0x00\n        /* \"#utility.yul\":1549:1573   */\n      tag_83\n        /* \"#utility.yul\":1567:1572   */\n      dup3\n        /* \"#utility.yul\":1549:1573   */\n      tag_45\n      jump\t// in\n    tag_83:\n        /* \"#utility.yul\":1538:1573   */\n      swap1\n      pop\n        /* \"#utility.yul\":1471:1579   */\n      swap2\n      swap1\n      pop\n      jump\t// out\n        /* \"#utility.yul\":1585:1731   */\n    tag_47:\n        /* \"#utility.yul\":1670:1706   */\n      tag_85\n        /* \"#utility.yul\":1700:1705   */\n      dup2\n        /* \"#utility.yul\":1670:1706   */\n      tag_46\n      jump\t// in\n    tag_85:\n        /* \"#utility.yul\":1663:1668   */\n      dup2\n        /* \"#utility.yul\":1660:1707   */\n      eq\n        /* \"#utility.yul\":1650:1725   */\n      tag_86\n      jumpi\n        /* \"#utility.yul\":1721:1722   */\n      0x00\n        /* \"#utility.yul\":1718:1719   */\n      dup1\n        /* \"#utility.yul\":1711:1723   */\n      revert\n        /* \"#utility.yul\":1650:1725   */\n    tag_86:\n        /* \"#utility.yul\":1585:1731   */\n      pop\n      jump\t// out\n        /* \"#utility.yul\":1737:1900   */\n    tag_48:\n        /* \"#utility.yul\":1795:1800   */\n      0x00\n        /* \"#utility.yul\":1833:1839   */\n      dup2\n        /* \"#utility.yul\":1820:1840   */\n      calldataload\n        /* \"#utility.yul\":1811:1840   */\n      swap1\n      pop\n        /* \"#utility.yul\":1849:1894   */\n      tag_88\n        /* \"#utility.yul\":1888:1893   */\n      dup2\n        /* \"#utility.yul\":1849:1894   */\n      tag_47\n      jump\t// in\n    tag_88:\n        /* \"#utility.yul\":1737:1900   */\n      swap3\n      swap2\n      pop\n      pop\n      jump\t// out\n        /* \"#utility.yul\":1906:2259   */\n    tag_16:\n        /* \"#utility.yul\":1977:1983   */\n      0x00\n        /* \"#utility.yul\":2026:2028   */\n      0x20\n        /* \"#utility.yul\":2014:2023   */\n      dup3\n        /* \"#utility.yul\":2005:2012   */\n      dup5\n        /* \"#utility.yul\":2001:2024   */\n      sub\n        /* \"#utility.yul\":1997:2029   */\n      slt\n        /* \"#utility.yul\":1994:2113   */\n      iszero\n      tag_90\n      jumpi\n        /* \"#utility.yul\":2032:2111   */\n      tag_91\n      tag_43\n      jump\t// in\n    tag_91:\n        /* \"#utility.yul\":1994:2113   */\n    tag_90:\n        /* \"#utility.yul\":2152:2153   */\n      0x00\n        /* \"#utility.yul\":2177:2242   */\n      tag_92\n        /* \"#utility.yul\":2234:2241   */\n      dup5\n        /* \"#utility.yul\":2225:2231   */\n      dup3\n        /* \"#utility.yul\":2214:2223   */\n      dup6\n        /* \"#utility.yul\":2210:2232   */\n      add\n        /* \"#utility.yul\":2177:2242   */\n      tag_48\n      jump\t// in\n    tag_92:\n        /* \"#utility.yul\":2167:2242   */\n      swap2\n      pop\n        /* \"#utility.yul\":2123:2252   */\n      pop\n        /* \"#utility.yul\":1906:2259   */\n      swap3\n      swap2\n      pop\n      pop\n      jump\t// out\n        /* \"#utility.yul\":2265:2364   */\n    tag_49:\n        /* \"#utility.yul\":2317:2323   */\n      0x00\n        /* \"#utility.yul\":2351:2356   */\n      dup2\n        /* \"#utility.yul\":2345:2357   */\n      mload\n        /* \"#utility.yul\":2335:2357   */\n      swap1\n      pop\n        /* \"#utility.yul\":2265:2364   */\n      swap2\n      swap1\n      pop\n      jump\t// out\n        /* \"#utility.yul\":2370:2539   */\n    tag_50:\n        /* \"#utility.yul\":2454:2465   */\n      0x00\n        /* \"#utility.yul\":2488:2494   */\n      dup3\n        /* \"#utility.yul\":2483:2486   */\n      dup3\n        /* \"#utility.yul\":2476:2495   */\n      mstore\n        /* \"#utility.yul\":2528:2532   */\n      0x20\n        /* \"#utility.yul\":2523:2526   */\n      dup3\n        /* \"#utility.yul\":2519:2533   */\n      add\n        /* \"#utility.yul\":2504:2533   */\n      swap1\n      pop\n        /* \"#utility.yul\":2370:2539   */\n      swap3\n      swap2\n      pop\n      pop\n      jump\t// out\n        /* \"#utility.yul\":2545:2684   */\n    tag_51:\n        /* \"#utility.yul\":2634:2640   */\n      dup3\n        /* \"#utility.yul\":2629:2632   */\n      dup2\n        /* \"#utility.yul\":2624:2627   */\n      dup4\n        /* \"#utility.yul\":2618:2641   */\n      mcopy\n        /* \"#utility.yul\":2675:2676   */\n      0x00\n        /* \"#utility.yul\":2666:2672   */\n      dup4\n        /* \"#utility.yul\":2661:2664   */\n      dup4\n        /* \"#utility.yul\":2657:2673   */\n      add\n        /* \"#utility.yul\":2650:2677   */\n      mstore\n        /* \"#utility.yul\":2545:2684   */\n      pop\n      pop\n      pop\n      jump\t// out\n        /* \"#utility.yul\":2690:2792   */\n    tag_52:\n        /* \"#utility.yul\":2731:2737   */\n      0x00\n        /* \"#utility.yul\":2782:2784   */\n      0x1f\n        /* \"#utility.yul\":2778:2785   */\n      not\n        /* \"#utility.yul\":2773:2775   */\n      0x1f\n        /* \"#utility.yul\":2766:2771   */\n      dup4\n        /* \"#utility.yul\":2762:2776   */\n      add\n        /* \"#utility.yul\":2758:2786   */\n      and\n        /* \"#utility.yul\":2748:2786   */\n      swap1\n      pop\n        /* \"#utility.yul\":2690:2792   */\n      swap2\n      swap1\n      pop\n      jump\t// out\n        /* \"#utility.yul\":2798:3175   */\n    tag_53:\n        /* \"#utility.yul\":2886:2889   */\n      0x00\n        /* \"#utility.yul\":2914:2953   */\n      tag_98\n        /* \"#utility.yul\":2947:2952   */\n      dup3\n        /* \"#utility.yul\":2914:2953   */\n      tag_49\n      jump\t// in\n    tag_98:\n        /* \"#utility.yul\":2969:3040   */\n      tag_99\n        /* \"#utility.yul\":3033:3039   */\n      dup2\n        /* \"#utility.yul\":3028:3031   */\n      dup6\n        /* \"#utility.yul\":2969:3040   */\n      tag_50\n      jump\t// in\n    tag_99:\n        /* \"#utility.yul\":2962:3040   */\n      swap4\n      pop\n        /* \"#utility.yul\":3049:3114   */\n      tag_100\n        /* \"#utility.yul\":3107:3113   */\n      dup2\n        /* \"#utility.yul\":3102:3105   */\n      dup6\n        /* \"#utility.yul\":3095:3099   */\n      0x20\n        /* \"#utility.yul\":3088:3093   */\n      dup7\n        /* \"#utility.yul\":3084:3100   */\n      add\n        /* \"#utility.yul\":3049:3114   */\n      tag_51\n      jump\t// in\n    tag_100:\n        /* \"#utility.yul\":3139:3168   */\n      tag_101\n        /* \"#utility.yul\":3161:3167   */\n      dup2\n        /* \"#utility.yul\":3139:3168   */\n      tag_52\n      jump\t// in\n    tag_101:\n        /* \"#utility.yul\":3134:3137   */\n      dup5\n        /* \"#utility.yul\":3130:3169   */\n      add\n        /* \"#utility.yul\":3123:3169   */\n      swap2\n      pop\n        /* \"#utility.yul\":2890:3175   */\n      pop\n        /* \"#utility.yul\":2798:3175   */\n      swap3\n      swap2\n      pop\n      pop\n      jump\t// out\n        /* \"#utility.yul\":3181:3494   */\n    tag_19:\n        /* \"#utility.yul\":3294:3298   */\n      0x00\n        /* \"#utility.yul\":3332:3334   */\n      0x20\n        /* \"#utility.yul\":3321:3330   */\n      dup3\n        /* \"#utility.yul\":3317:3335   */\n      add\n        /* \"#utility.yul\":3309:3335   */\n      swap1\n      pop\n        /* \"#utility.yul\":3381:3390   */\n      dup2\n        /* \"#utility.yul\":3375:3379   */\n      dup2\n        /* \"#utility.yul\":3371:3391   */\n      sub\n        /* \"#utility.yul\":3367:3368   */\n      0x00\n        /* \"#utility.yul\":3356:3365   */\n      dup4\n        /* \"#utility.yul\":3352:3369   */\n      add\n        /* \"#utility.yul\":3345:3392   */\n      mstore\n        /* \"#utility.yul\":3409:3487   */\n      tag_103\n        /* \"#utility.yul\":3482:3486   */\n      dup2\n        /* \"#utility.yul\":3473:3479   */\n      dup5\n        /* \"#utility.yul\":3409:3487   */\n      tag_53\n      jump\t// in\n    tag_103:\n        /* \"#utility.yul\":3401:3487   */\n      swap1\n      pop\n        /* \"#utility.yul\":3181:3494   */\n      swap3\n      swap2\n      pop\n      pop\n      jump\t// out\n        /* \"#utility.yul\":3500:4014   */\n    tag_23:\n        /* \"#utility.yul\":3661:3665   */\n      0x00\n        /* \"#utility.yul\":3699:3701   */\n      0x40\n        /* \"#utility.yul\":3688:3697   */\n      dup3\n        /* \"#utility.yul\":3684:3702   */\n      add\n        /* \"#utility.yul\":3676:3702   */\n      swap1\n      pop\n        /* \"#utility.yul\":3748:3757   */\n      dup2\n        /* \"#utility.yul\":3742:3746   */\n      dup2\n        /* \"#utility.yul\":3738:3758   */\n      sub\n        /* \"#utility.yul\":3734:3735   */\n      0x00\n        /* \"#utility.yul\":3723:3732   */\n      dup4\n        /* \"#utility.yul\":3719:3736   */\n      add\n        /* \"#utility.yul\":3712:3759   */\n      mstore\n        /* \"#utility.yul\":3776:3854   */\n      tag_105\n        /* \"#utility.yul\":3849:3853   */\n      dup2\n        /* \"#utility.yul\":3840:3846   */\n      dup6\n        /* \"#utility.yul\":3776:3854   */\n      tag_53\n      jump\t// in\n    tag_105:\n        /* \"#utility.yul\":3768:3854   */\n      swap1\n      pop\n        /* \"#utility.yul\":3901:3910   */\n      dup2\n        /* \"#utility.yul\":3895:3899   */\n      dup2\n        /* \"#utility.yul\":3891:3911   */\n      sub\n        /* \"#utility.yul\":3886:3888   */\n      0x20\n        /* \"#utility.yul\":3875:3884   */\n      dup4\n        /* \"#utility.yul\":3871:3889   */\n      add\n        /* \"#utility.yul\":3864:3912   */\n      mstore\n        /* \"#utility.yul\":3929:4007   */\n      tag_106\n        /* \"#utility.yul\":4002:4006   */\n      dup2\n        /* \"#utility.yul\":3993:3999   */\n      dup5\n        /* \"#utility.yul\":3929:4007   */\n      tag_53\n      jump\t// in\n    tag_106:\n        /* \"#utility.yul\":3921:4007   */\n      swap1\n      pop\n        /* \"#utility.yul\":3500:4014   */\n      swap4\n      swap3\n      pop\n      pop\n      pop\n      jump\t// out\n        /* \"#utility.yul\":4020:4137   */\n    tag_54:\n        /* \"#utility.yul\":4129:4130   */\n      0x00\n        /* \"#utility.yul\":4126:4127   */\n      dup1\n        /* \"#utility.yul\":4119:4131   */\n      revert\n        /* \"#utility.yul\":4143:4260   */\n    tag_55:\n        /* \"#utility.yul\":4252:4253   */\n      0x00\n        /* \"#utility.yul\":4249:4250   */\n      dup1\n        /* \"#utility.yul\":4242:4254   */\n      revert\n        /* \"#utility.yul\":4266:4446   */\n    tag_56:\n        /* \"#utility.yul\":4314:4391   */\n      0x4e487b7100000000000000000000000000000000000000000000000000000000\n        /* \"#utility.yul\":4311:4312   */\n      0x00\n        /* \"#utility.yul\":4304:4392   */\n      mstore\n        /* \"#utility.yul\":4411:4415   */\n      0x41\n        /* \"#utility.yul\":4408:4409   */\n      0x04\n        /* \"#utility.yul\":4401:4416   */\n      mstore\n        /* \"#utility.yul\":4435:4439   */\n      0x24\n        /* \"#utility.yul\":4432:4433   */\n      0x00\n        /* \"#utility.yul\":4425:4440   */\n      revert\n        /* \"#utility.yul\":4452:4733   */\n    tag_57:\n        /* \"#utility.yul\":4535:4562   */\n      tag_111\n        /* \"#utility.yul\":4557:4561   */\n      dup3\n        /* \"#utility.yul\":4535:4562   */\n      tag_52\n      jump\t// in\n    tag_111:\n        /* \"#utility.yul\":4527:4533   */\n      dup2\n        /* \"#utility.yul\":4523:4563   */\n      add\n        /* \"#utility.yul\":4665:4671   */\n      dup2\n        /* \"#utility.yul\":4653:4663   */\n      dup2\n        /* \"#utility.yul\":4650:4672   */\n      lt\n        /* \"#utility.yul\":4629:4647   */\n      0xffffffffffffffff\n        /* \"#utility.yul\":4617:4627   */\n      dup3\n        /* \"#utility.yul\":4614:4648   */\n      gt\n        /* \"#utility.yul\":4611:4673   */\n      or\n        /* \"#utility.yul\":4608:4696   */\n      iszero\n      tag_112\n      jumpi\n        /* \"#utility.yul\":4676:4694   */\n      tag_113\n      tag_56\n      jump\t// in\n    tag_113:\n        /* \"#utility.yul\":4608:4696   */\n    tag_112:\n        /* \"#utility.yul\":4716:4726   */\n      dup1\n        /* \"#utility.yul\":4712:4714   */\n      0x40\n        /* \"#utility.yul\":4705:4727   */\n      mstore\n        /* \"#utility.yul\":4495:4733   */\n      pop\n        /* \"#utility.yul\":4452:4733   */\n      pop\n      pop\n      jump\t// out\n        /* \"#utility.yul\":4739:4868   */\n    tag_58:\n        /* \"#utility.yul\":4773:4779   */\n      0x00\n        /* \"#utility.yul\":4800:4820   */\n      tag_115\n      tag_42\n      jump\t// in\n    tag_115:\n        /* \"#utility.yul\":4790:4820   */\n      swap1\n      pop\n        /* \"#utility.yul\":4829:4862   */\n      tag_116\n        /* \"#utility.yul\":4857:4861   */\n      dup3\n        /* \"#utility.yul\":4849:4855   */\n      dup3\n        /* \"#utility.yul\":4829:4862   */\n      tag_57\n      jump\t// in\n    tag_116:\n        /* \"#utility.yul\":4739:4868   */\n      swap2\n      swap1\n      pop\n      jump\t// out\n        /* \"#utility.yul\":4874:5182   */\n    tag_59:\n        /* \"#utility.yul\":4936:4940   */\n      0x00\n        /* \"#utility.yul\":5026:5044   */\n      0xffffffffffffffff\n        /* \"#utility.yul\":5018:5024   */\n      dup3\n        /* \"#utility.yul\":5015:5045   */\n      gt\n        /* \"#utility.yul\":5012:5068   */\n      iszero\n      tag_118\n      jumpi\n        /* \"#utility.yul\":5048:5066   */\n      tag_119\n      tag_56\n      jump\t// in\n    tag_119:\n        /* \"#utility.yul\":5012:5068   */\n    tag_118:\n        /* \"#utility.yul\":5086:5115   */\n      tag_120\n        /* \"#utility.yul\":5108:5114   */\n      dup3\n        /* \"#utility.yul\":5086:5115   */\n      tag_52\n      jump\t// in\n    tag_120:\n        /* \"#utility.yul\":5078:5115   */\n      swap1\n      pop\n        /* \"#utility.yul\":5170:5174   */\n      0x20\n        /* \"#utility.yul\":5164:5168   */\n      dup2\n        /* \"#utility.yul\":5160:5175   */\n      add\n        /* \"#utility.yul\":5152:5175   */\n      swap1\n      pop\n        /* \"#utility.yul\":4874:5182   */\n      swap2\n      swap1\n      pop\n      jump\t// out\n        /* \"#utility.yul\":5188:5622   */\n    tag_60:\n        /* \"#utility.yul\":5277:5282   */\n      0x00\n        /* \"#utility.yul\":5302:5368   */\n      tag_122\n        /* \"#utility.yul\":5318:5367   */\n      tag_123\n        /* \"#utility.yul\":5360:5366   */\n      dup5\n        /* \"#utility.yul\":5318:5367   */\n      tag_59\n      jump\t// in\n    tag_123:\n        /* \"#utility.yul\":5302:5368   */\n      tag_58\n      jump\t// in\n    tag_122:\n        /* \"#utility.yul\":5293:5368   */\n      swap1\n      pop\n        /* \"#utility.yul\":5391:5397   */\n      dup3\n        /* \"#utility.yul\":5384:5389   */\n      dup2\n        /* \"#utility.yul\":5377:5398   */\n      mstore\n        /* \"#utility.yul\":5429:5433   */\n      0x20\n        /* \"#utility.yul\":5422:5427   */\n      dup2\n        /* \"#utility.yul\":5418:5434   */\n      add\n        /* \"#utility.yul\":5467:5470   */\n      dup5\n        /* \"#utility.yul\":5458:5464   */\n      dup5\n        /* \"#utility.yul\":5453:5456   */\n      dup5\n        /* \"#utility.yul\":5449:5465   */\n      add\n        /* \"#utility.yul\":5446:5471   */\n      gt\n        /* \"#utility.yul\":5443:5555   */\n      iszero\n      tag_124\n      jumpi\n        /* \"#utility.yul\":5474:5553   */\n      tag_125\n      tag_55\n      jump\t// in\n    tag_125:\n        /* \"#utility.yul\":5443:5555   */\n    tag_124:\n        /* \"#utility.yul\":5564:5616   */\n      tag_126\n        /* \"#utility.yul\":5609:5615   */\n      dup5\n        /* \"#utility.yul\":5604:5607   */\n      dup3\n        /* \"#utility.yul\":5599:5602   */\n      dup6\n        /* \"#utility.yul\":5564:5616   */\n      tag_51\n      jump\t// in\n    tag_126:\n        /* \"#utility.yul\":5283:5622   */\n      pop\n        /* \"#utility.yul\":5188:5622   */\n      swap4\n      swap3\n      pop\n      pop\n      pop\n      jump\t// out\n        /* \"#utility.yul\":5642:5997   */\n    tag_61:\n        /* \"#utility.yul\":5709:5714   */\n      0x00\n        /* \"#utility.yul\":5758:5761   */\n      dup3\n        /* \"#utility.yul\":5751:5755   */\n      0x1f\n        /* \"#utility.yul\":5743:5749   */\n      dup4\n        /* \"#utility.yul\":5739:5756   */\n      add\n        /* \"#utility.yul\":5735:5762   */\n      slt\n        /* \"#utility.yul\":5725:5847   */\n      tag_128\n      jumpi\n        /* \"#utility.yul\":5766:5845   */\n      tag_129\n      tag_54\n      jump\t// in\n    tag_129:\n        /* \"#utility.yul\":5725:5847   */\n    tag_128:\n        /* \"#utility.yul\":5876:5882   */\n      dup2\n        /* \"#utility.yul\":5870:5883   */\n      mload\n        /* \"#utility.yul\":5901:5991   */\n      tag_130\n        /* \"#utility.yul\":5987:5990   */\n      dup5\n        /* \"#utility.yul\":5979:5985   */\n      dup3\n        /* \"#utility.yul\":5972:5976   */\n      0x20\n        /* \"#utility.yul\":5964:5970   */\n      dup7\n        /* \"#utility.yul\":5960:5977   */\n      add\n        /* \"#utility.yul\":5901:5991   */\n      tag_60\n      jump\t// in\n    tag_130:\n        /* \"#utility.yul\":5892:5991   */\n      swap2\n      pop\n        /* \"#utility.yul\":5715:5997   */\n      pop\n        /* \"#utility.yul\":5642:5997   */\n      swap3\n      swap2\n      pop\n      pop\n      jump\t// out\n        /* \"#utility.yul\":6003:6527   */\n    tag_28:\n        /* \"#utility.yul\":6083:6089   */\n      0x00\n        /* \"#utility.yul\":6132:6134   */\n      0x20\n        /* \"#utility.yul\":6120:6129   */\n      dup3\n        /* \"#utility.yul\":6111:6118   */\n      dup5\n        /* \"#utility.yul\":6107:6130   */\n      sub\n        /* \"#utility.yul\":6103:6135   */\n      slt\n        /* \"#utility.yul\":6100:6219   */\n      iszero\n      tag_132\n      jumpi\n        /* \"#utility.yul\":6138:6217   */\n      tag_133\n      tag_43\n      jump\t// in\n    tag_133:\n        /* \"#utility.yul\":6100:6219   */\n    tag_132:\n        /* \"#utility.yul\":6279:6280   */\n      0x00\n        /* \"#utility.yul\":6268:6277   */\n      dup3\n        /* \"#utility.yul\":6264:6281   */\n      add\n        /* \"#utility.yul\":6258:6282   */\n      mload\n        /* \"#utility.yul\":6309:6327   */\n      0xffffffffffffffff\n        /* \"#utility.yul\":6301:6307   */\n      dup2\n        /* \"#utility.yul\":6298:6328   */\n      gt\n        /* \"#utility.yul\":6295:6412   */\n      iszero\n      tag_134\n      jumpi\n        /* \"#utility.yul\":6331:6410   */\n      tag_135\n      tag_44\n      jump\t// in\n    tag_135:\n        /* \"#utility.yul\":6295:6412   */\n    tag_134:\n        /* \"#utility.yul\":6436:6510   */\n      tag_136\n        /* \"#utility.yul\":6502:6509   */\n      dup5\n        /* \"#utility.yul\":6493:6499   */\n      dup3\n        /* \"#utility.yul\":6482:6491   */\n      dup6\n        /* \"#utility.yul\":6478:6500   */\n      add\n        /* \"#utility.yul\":6436:6510   */\n      tag_61\n      jump\t// in\n    tag_136:\n        /* \"#utility.yul\":6426:6510   */\n      swap2\n      pop\n        /* \"#utility.yul\":6229:6520   */\n      pop\n        /* \"#utility.yul\":6003:6527   */\n      swap3\n      swap2\n      pop\n      pop\n      jump\t// out\n\n    auxdata: 0xa26469706673582212209eb23349f0733c8153bbf5b05a07dc7eb85a972363d5bedc966babdcfcc2842164736f6c634300081a0033\n}\n\nsub_1: assembly {\n        /* \"Example/ANIAMLSET.sol\":117:242  contract Tiger is Animal{... */\n      mstore(0x40, 0x80)\n      callvalue\n      dup1\n      iszero\n      tag_1\n      jumpi\n      0x00\n      dup1\n      revert\n    tag_1:\n      pop\n      dataSize(sub_0)\n      dup1\n      dataOffset(sub_0)\n      0x00\n      codecopy\n      0x00\n      return\n    stop\n\n    sub_0: assembly {\n            /* \"Example/ANIAMLSET.sol\":117:242  contract Tiger is Animal{... */\n          mstore(0x40, 0x80)\n          callvalue\n          dup1\n          iszero\n          tag_1\n          jumpi\n          0x00\n          dup1\n          revert\n        tag_1:\n          pop\n          jumpi(tag_2, lt(calldatasize, 0x04))\n          shr(0xe0, calldataload(0x00))\n          dup1\n          0x17d7de7c\n          eq\n          tag_3\n          jumpi\n        tag_2:\n          0x00\n          dup1\n          revert\n            /* \"Example/ANIAMLSET.sol\":147:240  function getName() public pure override returns(string memory){... */\n        tag_3:\n          tag_4\n          tag_5\n          jump\t// in\n        tag_4:\n          mload(0x40)\n          tag_6\n          swap2\n          swap1\n          tag_7\n          jump\t// in\n        tag_6:\n          mload(0x40)\n          dup1\n          swap2\n          sub\n          swap1\n          return\n        tag_5:\n            /* \"Example/ANIAMLSET.sol\":195:208  string memory */\n          0x60\n            /* \"Example/ANIAMLSET.sol\":219:233  return \"Tiger\" */\n          mload(0x40)\n          dup1\n          0x40\n          add\n          0x40\n          mstore\n          dup1\n          0x05\n          dup2\n          mstore\n          0x20\n          add\n          0x5469676572000000000000000000000000000000000000000000000000000000\n          dup2\n          mstore\n          pop\n          swap1\n          pop\n            /* \"Example/ANIAMLSET.sol\":147:240  function getName() public pure override returns(string memory){... */\n          swap1\n          jump\t// out\n            /* \"#utility.yul\":7:106   */\n        tag_9:\n            /* \"#utility.yul\":59:65   */\n          0x00\n            /* \"#utility.yul\":93:98   */\n          dup2\n            /* \"#utility.yul\":87:99   */\n          mload\n            /* \"#utility.yul\":77:99   */\n          swap1\n          pop\n            /* \"#utility.yul\":7:106   */\n          swap2\n          swap1\n          pop\n          jump\t// out\n            /* \"#utility.yul\":112:281   */\n        tag_10:\n            /* \"#utility.yul\":196:207   */\n          0x00\n            /* \"#utility.yul\":230:236   */\n          dup3\n            /* \"#utility.yul\":225:228   */\n          dup3\n            /* \"#utility.yul\":218:237   */\n          mstore\n            /* \"#utility.yul\":270:274   */\n          0x20\n            /* \"#utility.yul\":265:268   */\n          dup3\n            /* \"#utility.yul\":261:275   */\n          add\n            /* \"#utility.yul\":246:275   */\n          swap1\n          pop\n            /* \"#utility.yul\":112:281   */\n          swap3\n          swap2\n          pop\n          pop\n          jump\t// out\n            /* \"#utility.yul\":287:426   */\n        tag_11:\n            /* \"#utility.yul\":376:382   */\n          dup3\n            /* \"#utility.yul\":371:374   */\n          dup2\n            /* \"#utility.yul\":366:369   */\n          dup4\n            /* \"#utility.yul\":360:383   */\n          mcopy\n            /* \"#utility.yul\":417:418   */\n          0x00\n            /* \"#utility.yul\":408:414   */\n          dup4\n            /* \"#utility.yul\":403:406   */\n          dup4\n            /* \"#utility.yul\":399:415   */\n          add\n            /* \"#utility.yul\":392:419   */\n          mstore\n            /* \"#utility.yul\":287:426   */\n          pop\n          pop\n          pop\n          jump\t// out\n            /* \"#utility.yul\":432:534   */\n        tag_12:\n            /* \"#utility.yul\":473:479   */\n          0x00\n            /* \"#utility.yul\":524:526   */\n          0x1f\n            /* \"#utility.yul\":520:527   */\n          not\n            /* \"#utility.yul\":515:517   */\n          0x1f\n            /* \"#utility.yul\":508:513   */\n          dup4\n            /* \"#utility.yul\":504:518   */\n          add\n            /* \"#utility.yul\":500:528   */\n          and\n            /* \"#utility.yul\":490:528   */\n          swap1\n          pop\n            /* \"#utility.yul\":432:534   */\n          swap2\n          swap1\n          pop\n          jump\t// out\n            /* \"#utility.yul\":540:917   */\n        tag_13:\n            /* \"#utility.yul\":628:631   */\n          0x00\n            /* \"#utility.yul\":656:695   */\n          tag_20\n            /* \"#utility.yul\":689:694   */\n          dup3\n            /* \"#utility.yul\":656:695   */\n          tag_9\n          jump\t// in\n        tag_20:\n            /* \"#utility.yul\":711:782   */\n          tag_21\n            /* \"#utility.yul\":775:781   */\n          dup2\n            /* \"#utility.yul\":770:773   */\n          dup6\n            /* \"#utility.yul\":711:782   */\n          tag_10\n          jump\t// in\n        tag_21:\n            /* \"#utility.yul\":704:782   */\n          swap4\n          pop\n            /* \"#utility.yul\":791:856   */\n          tag_22\n            /* \"#utility.yul\":849:855   */\n          dup2\n            /* \"#utility.yul\":844:847   */\n          dup6\n            /* \"#utility.yul\":837:841   */\n          0x20\n            /* \"#utility.yul\":830:835   */\n          dup7\n            /* \"#utility.yul\":826:842   */\n          add\n            /* \"#utility.yul\":791:856   */\n          tag_11\n          jump\t// in\n        tag_22:\n            /* \"#utility.yul\":881:910   */\n          tag_23\n            /* \"#utility.yul\":903:909   */\n          dup2\n            /* \"#utility.yul\":881:910   */\n          tag_12\n          jump\t// in\n        tag_23:\n            /* \"#utility.yul\":876:879   */\n          dup5\n            /* \"#utility.yul\":872:911   */\n          add\n            /* \"#utility.yul\":865:911   */\n          swap2\n          pop\n            /* \"#utility.yul\":632:917   */\n          pop\n            /* \"#utility.yul\":540:917   */\n          swap3\n          swap2\n          pop\n          pop\n          jump\t// out\n            /* \"#utility.yul\":923:1236   */\n        tag_7:\n            /* \"#utility.yul\":1036:1040   */\n          0x00\n            /* \"#utility.yul\":1074:1076   */\n          0x20\n            /* \"#utility.yul\":1063:1072   */\n          dup3\n            /* \"#utility.yul\":1059:1077   */\n          add\n            /* \"#utility.yul\":1051:1077   */\n          swap1\n          pop\n            /* \"#utility.yul\":1123:1132   */\n          dup2\n            /* \"#utility.yul\":1117:1121   */\n          dup2\n            /* \"#utility.yul\":1113:1133   */\n          sub\n            /* \"#utility.yul\":1109:1110   */\n          0x00\n            /* \"#utility.yul\":1098:1107   */\n          dup4\n            /* \"#utility.yul\":1094:1111   */\n          add\n            /* \"#utility.yul\":1087:1134   */\n          mstore\n            /* \"#utility.yul\":1151:1229   */\n          tag_25\n            /* \"#utility.yul\":1224:1228   */\n          dup2\n            /* \"#utility.yul\":1215:1221   */\n          dup5\n            /* \"#utility.yul\":1151:1229   */\n          tag_13\n          jump\t// in\n        tag_25:\n            /* \"#utility.yul\":1143:1229   */\n          swap1\n          pop\n            /* \"#utility.yul\":923:1236   */\n          swap3\n          swap2\n          pop\n          pop\n          jump\t// out\n\n        auxdata: 0xa26469706673582212200c1567a567d83df67e29517388b5eb8513df7ebbb1fe5912b60b34ea6c38e00c64736f6c634300081a0033\n    }\n}\n\nsub_2: assembly {\n        /* \"Example/ANIAMLSET.sol\":243:370  contract Turtle is Animal{... */\n      mstore(0x40, 0x80)\n      callvalue\n      dup1\n      iszero\n      tag_1\n      jumpi\n      0x00\n      dup1\n      revert\n    tag_1:\n      pop\n      dataSize(sub_0)\n      dup1\n      dataOffset(sub_0)\n      0x00\n      codecopy\n      0x00\n      return\n    stop\n\n    sub_0: assembly {\n            /* \"Example/ANIAMLSET.sol\":243:370  contract Turtle is Animal{... */\n          mstore(0x40, 0x80)\n          callvalue\n          dup1\n          iszero\n          tag_1\n          jumpi\n          0x00\n          dup1\n          revert\n        tag_1:\n          pop\n          jumpi(tag_2, lt(calldatasize, 0x04))\n          shr(0xe0, calldataload(0x00))\n          dup1\n          0x17d7de7c\n          eq\n          tag_3\n          jumpi\n        tag_2:\n          0x00\n          dup1\n          revert\n            /* \"Example/ANIAMLSET.sol\":274:368  function getName() public pure override returns(string memory){... */\n        tag_3:\n          tag_4\n          tag_5\n          jump\t// in\n        tag_4:\n          mload(0x40)\n          tag_6\n          swap2\n          swap1\n          tag_7\n          jump\t// in\n        tag_6:\n          mload(0x40)\n          dup1\n          swap2\n          sub\n          swap1\n          return\n        tag_5:\n            /* \"Example/ANIAMLSET.sol\":322:335  string memory */\n          0x60\n            /* \"Example/ANIAMLSET.sol\":346:361  return \"Turtle\" */\n          mload(0x40)\n          dup1\n          0x40\n          add\n          0x40\n          mstore\n          dup1\n          0x06\n          dup2\n          mstore\n          0x20\n          add\n          0x547572746c650000000000000000000000000000000000000000000000000000\n          dup2\n          mstore\n          pop\n          swap1\n          pop\n            /* \"Example/ANIAMLSET.sol\":274:368  function getName() public pure override returns(string memory){... */\n          swap1\n          jump\t// out\n            /* \"#utility.yul\":7:106   */\n        tag_9:\n            /* \"#utility.yul\":59:65   */\n          0x00\n            /* \"#utility.yul\":93:98   */\n          dup2\n            /* \"#utility.yul\":87:99   */\n          mload\n            /* \"#utility.yul\":77:99   */\n          swap1\n          pop\n            /* \"#utility.yul\":7:106   */\n          swap2\n          swap1\n          pop\n          jump\t// out\n            /* \"#utility.yul\":112:281   */\n        tag_10:\n            /* \"#utility.yul\":196:207   */\n          0x00\n            /* \"#utility.yul\":230:236   */\n          dup3\n            /* \"#utility.yul\":225:228   */\n          dup3\n            /* \"#utility.yul\":218:237   */\n          mstore\n            /* \"#utility.yul\":270:274   */\n          0x20\n            /* \"#utility.yul\":265:268   */\n          dup3\n            /* \"#utility.yul\":261:275   */\n          add\n            /* \"#utility.yul\":246:275   */\n          swap1\n          pop\n            /* \"#utility.yul\":112:281   */\n          swap3\n          swap2\n          pop\n          pop\n          jump\t// out\n            /* \"#utility.yul\":287:426   */\n        tag_11:\n            /* \"#utility.yul\":376:382   */\n          dup3\n            /* \"#utility.yul\":371:374   */\n          dup2\n            /* \"#utility.yul\":366:369   */\n          dup4\n            /* \"#utility.yul\":360:383   */\n          mcopy\n            /* \"#utility.yul\":417:418   */\n          0x00\n            /* \"#utility.yul\":408:414   */\n          dup4\n            /* \"#utility.yul\":403:406   */\n          dup4\n            /* \"#utility.yul\":399:415   */\n          add\n            /* \"#utility.yul\":392:419   */\n          mstore\n            /* \"#utility.yul\":287:426   */\n          pop\n          pop\n          pop\n          jump\t// out\n            /* \"#utility.yul\":432:534   */\n        tag_12:\n            /* \"#utility.yul\":473:479   */\n          0x00\n            /* \"#utility.yul\":524:526   */\n          0x1f\n            /* \"#utility.yul\":520:527   */\n          not\n            /* \"#utility.yul\":515:517   */\n          0x1f\n            /* \"#utility.yul\":508:513   */\n          dup4\n            /* \"#utility.yul\":504:518   */\n          add\n            /* \"#utility.yul\":500:528   */\n          and\n            /* \"#utility.yul\":490:528   */\n          swap1\n          pop\n            /* \"#utility.yul\":432:534   */\n          swap2\n          swap1\n          pop\n          jump\t// out\n            /* \"#utility.yul\":540:917   */\n        tag_13:\n            /* \"#utility.yul\":628:631   */\n          0x00\n            /* \"#utility.yul\":656:695   */\n          tag_20\n            /* \"#utility.yul\":689:694   */\n          dup3\n            /* \"#utility.yul\":656:695   */\n          tag_9\n          jump\t// in\n        tag_20:\n            /* \"#utility.yul\":711:782   */\n          tag_21\n            /* \"#utility.yul\":775:781   */\n          dup2\n            /* \"#utility.yul\":770:773   */\n          dup6\n            /* \"#utility.yul\":711:782   */\n          tag_10\n          jump\t// in\n        tag_21:\n            /* \"#utility.yul\":704:782   */\n          swap4\n          pop\n            /* \"#utility.yul\":791:856   */\n          tag_22\n            /* \"#utility.yul\":849:855   */\n          dup2\n            /* \"#utility.yul\":844:847   */\n          dup6\n            /* \"#utility.yul\":837:841   */\n          0x20\n            /* \"#utility.yul\":830:835   */\n          dup7\n            /* \"#utility.yul\":826:842   */\n          add\n            /* \"#utility.yul\":791:856   */\n          tag_11\n          jump\t// in\n        tag_22:\n            /* \"#utility.yul\":881:910   */\n          tag_23\n            /* \"#utility.yul\":903:909   */\n          dup2\n            /* \"#utility.yul\":881:910   */\n          tag_12\n          jump\t// in\n        tag_23:\n            /* \"#utility.yul\":876:879   */\n          dup5\n            /* \"#utility.yul\":872:911   */\n          add\n            /* \"#utility.yul\":865:911   */\n          swap2\n          pop\n            /* \"#utility.yul\":632:917   */\n          pop\n            /* \"#utility.yul\":540:917   */\n          swap3\n          swap2\n          pop\n          pop\n          jump\t// out\n            /* \"#utility.yul\":923:1236   */\n        tag_7:\n            /* \"#utility.yul\":1036:1040   */\n          0x00\n            /* \"#utility.yul\":1074:1076   */\n          0x20\n            /* \"#utility.yul\":1063:1072   */\n          dup3\n            /* \"#utility.yul\":1059:1077   */\n          add\n            /* \"#utility.yul\":1051:1077   */\n          swap1\n          pop\n            /* \"#utility.yul\":1123:1132   */\n          dup2\n            /* \"#utility.yul\":1117:1121   */\n          dup2\n            /* \"#utility.yul\":1113:1133   */\n          sub\n            /* \"#utility.yul\":1109:1110   */\n          0x00\n            /* \"#utility.yul\":1098:1107   */\n          dup4\n            /* \"#utility.yul\":1094:1111   */\n          add\n            /* \"#utility.yul\":1087:1134   */\n          mstore\n            /* \"#utility.yul\":1151:1229   */\n          tag_25\n            /* \"#utility.yul\":1224:1228   */\n          dup2\n            /* \"#utility.yul\":1215:1221   */\n          dup5\n            /* \"#utility.yul\":1151:1229   */\n          tag_13\n          jump\t// in\n        tag_25:\n            /* \"#utility.yul\":1143:1229   */\n          swap1\n          pop\n            /* \"#utility.yul\":923:1236   */\n          swap3\n          swap2\n          pop\n          pop\n          jump\t// out\n\n        auxdata: 0xa26469706673582212201c8f77874a938992ce410029ec5b8252f0944b0fb9d51df3f035c03997a7202864736f6c634300081a0033\n    }\n}\n",
				"bytecode": {
					"linkReferences": {},
					"object": "6080604052604051610010906100de565b604051809103905ff080158015610029573d5f803e3d5ffd5b505f806101000a81548173ffffffffffffffffffffffffffffffffffffffff021916908373ffffffffffffffffffffffffffffffffffffffff160217905550604051610074906100eb565b604051809103905ff08015801561008d573d5f803e3d5ffd5b5060015f6101000a81548173ffffffffffffffffffffffffffffffffffffffff021916908373ffffffffffffffffffffffffffffffffffffffff1602179055503480156100d8575f80fd5b506100f8565b61016a8061074583390190565b61016a806108af83390190565b610640806101055f395ff3fe608060405234801561000f575f80fd5b506004361061004a575f3560e01c806344d333ff1461004e5780635d4220321461006c5780639266ad161461008a578063fb825e5f146100ba575b5f80fd5b6100566100d9565b604051610063919061033f565b60405180910390f35b6100746100fc565b604051610081919061033f565b60405180910390f35b6100a4600480360381019061009f91906103b5565b610121565b6040516100b19190610450565b60405180910390f35b6100c261019a565b6040516100d0929190610470565b60405180910390f35b5f8054906101000a900473ffffffffffffffffffffffffffffffffffffffff1681565b60015f9054906101000a900473ffffffffffffffffffffffffffffffffffffffff1681565b60608173ffffffffffffffffffffffffffffffffffffffff166317d7de7c6040518163ffffffff1660e01b81526004015f60405180830381865afa15801561016b573d5f803e3d5ffd5b505050506040513d5f823e3d601f19601f8201168201806040525081019061019391906105c3565b9050919050565b6060805f8054906101000a900473ffffffffffffffffffffffffffffffffffffffff1673ffffffffffffffffffffffffffffffffffffffff166317d7de7c6040518163ffffffff1660e01b81526004015f60405180830381865afa158015610204573d5f803e3d5ffd5b505050506040513d5f823e3d601f19601f8201168201806040525081019061022c91906105c3565b60015f9054906101000a900473ffffffffffffffffffffffffffffffffffffffff1673ffffffffffffffffffffffffffffffffffffffff166317d7de7c6040518163ffffffff1660e01b81526004015f60405180830381865afa158015610295573d5f803e3d5ffd5b505050506040513d5f823e3d601f19601f820116820180604052508101906102bd91906105c3565b915091509091565b5f73ffffffffffffffffffffffffffffffffffffffff82169050919050565b5f819050919050565b5f6103076103026102fd846102c5565b6102e4565b6102c5565b9050919050565b5f610318826102ed565b9050919050565b5f6103298261030e565b9050919050565b6103398161031f565b82525050565b5f6020820190506103525f830184610330565b92915050565b5f604051905090565b5f80fd5b5f80fd5b5f610373826102c5565b9050919050565b5f61038482610369565b9050919050565b6103948161037a565b811461039e575f80fd5b50565b5f813590506103af8161038b565b92915050565b5f602082840312156103ca576103c9610361565b5b5f6103d7848285016103a1565b91505092915050565b5f81519050919050565b5f82825260208201905092915050565b8281835e5f83830152505050565b5f601f19601f8301169050919050565b5f610422826103e0565b61042c81856103ea565b935061043c8185602086016103fa565b61044581610408565b840191505092915050565b5f6020820190508181035f8301526104688184610418565b905092915050565b5f6040820190508181035f8301526104888185610418565b9050818103602083015261049c8184610418565b90509392505050565b5f80fd5b5f80fd5b7f4e487b71000000000000000000000000000000000000000000000000000000005f52604160045260245ffd5b6104e382610408565b810181811067ffffffffffffffff82111715610502576105016104ad565b5b80604052505050565b5f610514610358565b905061052082826104da565b919050565b5f67ffffffffffffffff82111561053f5761053e6104ad565b5b61054882610408565b9050602081019050919050565b5f61056761056284610525565b61050b565b905082815260208101848484011115610583576105826104a9565b5b61058e8482856103fa565b509392505050565b5f82601f8301126105aa576105a96104a5565b5b81516105ba848260208601610555565b91505092915050565b5f602082840312156105d8576105d7610361565b5b5f82015167ffffffffffffffff8111156105f5576105f4610365565b5b61060184828501610596565b9150509291505056fea26469706673582212209eb23349f0733c8153bbf5b05a07dc7eb85a972363d5bedc966babdcfcc2842164736f6c634300081a00336080604052348015600e575f80fd5b5061014e8061001c5f395ff3fe608060405234801561000f575f80fd5b5060043610610029575f3560e01c806317d7de7c1461002d575b5f80fd5b61003561004b565b60405161004291906100f8565b60405180910390f35b60606040518060400160405280600581526020017f5469676572000000000000000000000000000000000000000000000000000000815250905090565b5f81519050919050565b5f82825260208201905092915050565b8281835e5f83830152505050565b5f601f19601f8301169050919050565b5f6100ca82610088565b6100d48185610092565b93506100e48185602086016100a2565b6100ed816100b0565b840191505092915050565b5f6020820190508181035f83015261011081846100c0565b90509291505056fea26469706673582212200c1567a567d83df67e29517388b5eb8513df7ebbb1fe5912b60b34ea6c38e00c64736f6c634300081a00336080604052348015600e575f80fd5b5061014e8061001c5f395ff3fe608060405234801561000f575f80fd5b5060043610610029575f3560e01c806317d7de7c1461002d575b5f80fd5b61003561004b565b60405161004291906100f8565b60405180910390f35b60606040518060400160405280600681526020017f547572746c650000000000000000000000000000000000000000000000000000815250905090565b5f81519050919050565b5f82825260208201905092915050565b8281835e5f83830152505050565b5f601f19601f8301169050919050565b5f6100ca82610088565b6100d48185610092565b93506100e48185602086016100a2565b6100ed816100b0565b840191505092915050565b5f6020820190508181035f83015261011081846100c0565b90509291505056fea26469706673582212201c8f77874a938992ce410029ec5b8252f0944b0fb9d51df3f035c03997a7202864736f6c634300081a0033",
					"opcodes": "PUSH1 0x80 PUSH1 0x40 MSTORE PUSH1 0x40 MLOAD PUSH2 0x10 SWAP1 PUSH2 0xDE JUMP JUMPDEST PUSH1 0x40 MLOAD DUP1 SWAP2 SUB SWAP1 PUSH0 CREATE DUP1 ISZERO DUP1 ISZERO PUSH2 0x29 JUMPI RETURNDATASIZE PUSH0 DUP1 RETURNDATACOPY RETURNDATASIZE PUSH0 REVERT JUMPDEST POP PUSH0 DUP1 PUSH2 0x100 EXP DUP2 SLOAD DUP2 PUSH20 0xFFFFFFFFFFFFFFFFFFFFFFFFFFFFFFFFFFFFFFFF MUL NOT AND SWAP1 DUP4 PUSH20 0xFFFFFFFFFFFFFFFFFFFFFFFFFFFFFFFFFFFFFFFF AND MUL OR SWAP1 SSTORE POP PUSH1 0x40 MLOAD PUSH2 0x74 SWAP1 PUSH2 0xEB JUMP JUMPDEST PUSH1 0x40 MLOAD DUP1 SWAP2 SUB SWAP1 PUSH0 CREATE DUP1 ISZERO DUP1 ISZERO PUSH2 0x8D JUMPI RETURNDATASIZE PUSH0 DUP1 RETURNDATACOPY RETURNDATASIZE PUSH0 REVERT JUMPDEST POP PUSH1 0x1 PUSH0 PUSH2 0x100 EXP DUP2 SLOAD DUP2 PUSH20 0xFFFFFFFFFFFFFFFFFFFFFFFFFFFFFFFFFFFFFFFF MUL NOT AND SWAP1 DUP4 PUSH20 0xFFFFFFFFFFFFFFFFFFFFFFFFFFFFFFFFFFFFFFFF AND MUL OR SWAP1 SSTORE POP CALLVALUE DUP1 ISZERO PUSH2 0xD8 JUMPI PUSH0 DUP1 REVERT JUMPDEST POP PUSH2 0xF8 JUMP JUMPDEST PUSH2 0x16A DUP1 PUSH2 0x745 DUP4 CODECOPY ADD SWAP1 JUMP JUMPDEST PUSH2 0x16A DUP1 PUSH2 0x8AF DUP4 CODECOPY ADD SWAP1 JUMP JUMPDEST PUSH2 0x640 DUP1 PUSH2 0x105 PUSH0 CODECOPY PUSH0 RETURN INVALID PUSH1 0x80 PUSH1 0x40 MSTORE CALLVALUE DUP1 ISZERO PUSH2 0xF JUMPI PUSH0 DUP1 REVERT JUMPDEST POP PUSH1 0x4 CALLDATASIZE LT PUSH2 0x4A JUMPI PUSH0 CALLDATALOAD PUSH1 0xE0 SHR DUP1 PUSH4 0x44D333FF EQ PUSH2 0x4E JUMPI DUP1 PUSH4 0x5D422032 EQ PUSH2 0x6C JUMPI DUP1 PUSH4 0x9266AD16 EQ PUSH2 0x8A JUMPI DUP1 PUSH4 0xFB825E5F EQ PUSH2 0xBA JUMPI JUMPDEST PUSH0 DUP1 REVERT JUMPDEST PUSH2 0x56 PUSH2 0xD9 JUMP JUMPDEST PUSH1 0x40 MLOAD PUSH2 0x63 SWAP2 SWAP1 PUSH2 0x33F JUMP JUMPDEST PUSH1 0x40 MLOAD DUP1 SWAP2 SUB SWAP1 RETURN JUMPDEST PUSH2 0x74 PUSH2 0xFC JUMP JUMPDEST PUSH1 0x40 MLOAD PUSH2 0x81 SWAP2 SWAP1 PUSH2 0x33F JUMP JUMPDEST PUSH1 0x40 MLOAD DUP1 SWAP2 SUB SWAP1 RETURN JUMPDEST PUSH2 0xA4 PUSH1 0x4 DUP1 CALLDATASIZE SUB DUP2 ADD SWAP1 PUSH2 0x9F SWAP2 SWAP1 PUSH2 0x3B5 JUMP JUMPDEST PUSH2 0x121 JUMP JUMPDEST PUSH1 0x40 MLOAD PUSH2 0xB1 SWAP2 SWAP1 PUSH2 0x450 JUMP JUMPDEST PUSH1 0x40 MLOAD DUP1 SWAP2 SUB SWAP1 RETURN JUMPDEST PUSH2 0xC2 PUSH2 0x19A JUMP JUMPDEST PUSH1 0x40 MLOAD PUSH2 0xD0 SWAP3 SWAP2 SWAP1 PUSH2 0x470 JUMP JUMPDEST PUSH1 0x40 MLOAD DUP1 SWAP2 SUB SWAP1 RETURN JUMPDEST PUSH0 DUP1 SLOAD SWAP1 PUSH2 0x100 EXP SWAP1 DIV PUSH20 0xFFFFFFFFFFFFFFFFFFFFFFFFFFFFFFFFFFFFFFFF AND DUP2 JUMP JUMPDEST PUSH1 0x1 PUSH0 SWAP1 SLOAD SWAP1 PUSH2 0x100 EXP SWAP1 DIV PUSH20 0xFFFFFFFFFFFFFFFFFFFFFFFFFFFFFFFFFFFFFFFF AND DUP2 JUMP JUMPDEST PUSH1 0x60 DUP2 PUSH20 0xFFFFFFFFFFFFFFFFFFFFFFFFFFFFFFFFFFFFFFFF AND PUSH4 0x17D7DE7C PUSH1 0x40 MLOAD DUP2 PUSH4 0xFFFFFFFF AND PUSH1 0xE0 SHL DUP2 MSTORE PUSH1 0x4 ADD PUSH0 PUSH1 0x40 MLOAD DUP1 DUP4 SUB DUP2 DUP7 GAS STATICCALL ISZERO DUP1 ISZERO PUSH2 0x16B JUMPI RETURNDATASIZE PUSH0 DUP1 RETURNDATACOPY RETURNDATASIZE PUSH0 REVERT JUMPDEST POP POP POP POP PUSH1 0x40 MLOAD RETURNDATASIZE PUSH0 DUP3 RETURNDATACOPY RETURNDATASIZE PUSH1 0x1F NOT PUSH1 0x1F DUP3 ADD AND DUP3 ADD DUP1 PUSH1 0x40 MSTORE POP DUP2 ADD SWAP1 PUSH2 0x193 SWAP2 SWAP1 PUSH2 0x5C3 JUMP JUMPDEST SWAP1 POP SWAP2 SWAP1 POP JUMP JUMPDEST PUSH1 0x60 DUP1 PUSH0 DUP1 SLOAD SWAP1 PUSH2 0x100 EXP SWAP1 DIV PUSH20 0xFFFFFFFFFFFFFFFFFFFFFFFFFFFFFFFFFFFFFFFF AND PUSH20 0xFFFFFFFFFFFFFFFFFFFFFFFFFFFFFFFFFFFFFFFF AND PUSH4 0x17D7DE7C PUSH1 0x40 MLOAD DUP2 PUSH4 0xFFFFFFFF AND PUSH1 0xE0 SHL DUP2 MSTORE PUSH1 0x4 ADD PUSH0 PUSH1 0x40 MLOAD DUP1 DUP4 SUB DUP2 DUP7 GAS STATICCALL ISZERO DUP1 ISZERO PUSH2 0x204 JUMPI RETURNDATASIZE PUSH0 DUP1 RETURNDATACOPY RETURNDATASIZE PUSH0 REVERT JUMPDEST POP POP POP POP PUSH1 0x40 MLOAD RETURNDATASIZE PUSH0 DUP3 RETURNDATACOPY RETURNDATASIZE PUSH1 0x1F NOT PUSH1 0x1F DUP3 ADD AND DUP3 ADD DUP1 PUSH1 0x40 MSTORE POP DUP2 ADD SWAP1 PUSH2 0x22C SWAP2 SWAP1 PUSH2 0x5C3 JUMP JUMPDEST PUSH1 0x1 PUSH0 SWAP1 SLOAD SWAP1 PUSH2 0x100 EXP SWAP1 DIV PUSH20 0xFFFFFFFFFFFFFFFFFFFFFFFFFFFFFFFFFFFFFFFF AND PUSH20 0xFFFFFFFFFFFFFFFFFFFFFFFFFFFFFFFFFFFFFFFF AND PUSH4 0x17D7DE7C PUSH1 0x40 MLOAD DUP2 PUSH4 0xFFFFFFFF AND PUSH1 0xE0 SHL DUP2 MSTORE PUSH1 0x4 ADD PUSH0 PUSH1 0x40 MLOAD DUP1 DUP4 SUB DUP2 DUP7 GAS STATICCALL ISZERO DUP1 ISZERO PUSH2 0x295 JUMPI RETURNDATASIZE PUSH0 DUP1 RETURNDATACOPY RETURNDATASIZE PUSH0 REVERT JUMPDEST POP POP POP POP PUSH1 0x40 MLOAD RETURNDATASIZE PUSH0 DUP3 RETURNDATACOPY RETURNDATASIZE PUSH1 0x1F NOT PUSH1 0x1F DUP3 ADD AND DUP3 ADD DUP1 PUSH1 0x40 MSTORE POP DUP2 ADD SWAP1 PUSH2 0x2BD SWAP2 SWAP1 PUSH2 0x5C3 JUMP JUMPDEST SWAP2 POP SWAP2 POP SWAP1 SWAP2 JUMP JUMPDEST PUSH0 PUSH20 0xFFFFFFFFFFFFFFFFFFFFFFFFFFFFFFFFFFFFFFFF DUP3 AND SWAP1 POP SWAP2 SWAP1 POP JUMP JUMPDEST PUSH0 DUP2 SWAP1 POP SWAP2 SWAP1 POP JUMP JUMPDEST PUSH0 PUSH2 0x307 PUSH2 0x302 PUSH2 0x2FD DUP5 PUSH2 0x2C5 JUMP JUMPDEST PUSH2 0x2E4 JUMP JUMPDEST PUSH2 0x2C5 JUMP JUMPDEST SWAP1 POP SWAP2 SWAP1 POP JUMP JUMPDEST PUSH0 PUSH2 0x318 DUP3 PUSH2 0x2ED JUMP JUMPDEST SWAP1 POP SWAP2 SWAP1 POP JUMP JUMPDEST PUSH0 PUSH2 0x329 DUP3 PUSH2 0x30E JUMP JUMPDEST SWAP1 POP SWAP2 SWAP1 POP JUMP JUMPDEST PUSH2 0x339 DUP2 PUSH2 0x31F JUMP JUMPDEST DUP3 MSTORE POP POP JUMP JUMPDEST PUSH0 PUSH1 0x20 DUP3 ADD SWAP1 POP PUSH2 0x352 PUSH0 DUP4 ADD DUP5 PUSH2 0x330 JUMP JUMPDEST SWAP3 SWAP2 POP POP JUMP JUMPDEST PUSH0 PUSH1 0x40 MLOAD SWAP1 POP SWAP1 JUMP JUMPDEST PUSH0 DUP1 REVERT JUMPDEST PUSH0 DUP1 REVERT JUMPDEST PUSH0 PUSH2 0x373 DUP3 PUSH2 0x2C5 JUMP JUMPDEST SWAP1 POP SWAP2 SWAP1 POP JUMP JUMPDEST PUSH0 PUSH2 0x384 DUP3 PUSH2 0x369 JUMP JUMPDEST SWAP1 POP SWAP2 SWAP1 POP JUMP JUMPDEST PUSH2 0x394 DUP2 PUSH2 0x37A JUMP JUMPDEST DUP2 EQ PUSH2 0x39E JUMPI PUSH0 DUP1 REVERT JUMPDEST POP JUMP JUMPDEST PUSH0 DUP2 CALLDATALOAD SWAP1 POP PUSH2 0x3AF DUP2 PUSH2 0x38B JUMP JUMPDEST SWAP3 SWAP2 POP POP JUMP JUMPDEST PUSH0 PUSH1 0x20 DUP3 DUP5 SUB SLT ISZERO PUSH2 0x3CA JUMPI PUSH2 0x3C9 PUSH2 0x361 JUMP JUMPDEST JUMPDEST PUSH0 PUSH2 0x3D7 DUP5 DUP3 DUP6 ADD PUSH2 0x3A1 JUMP JUMPDEST SWAP2 POP POP SWAP3 SWAP2 POP POP JUMP JUMPDEST PUSH0 DUP2 MLOAD SWAP1 POP SWAP2 SWAP1 POP JUMP JUMPDEST PUSH0 DUP3 DUP3 MSTORE PUSH1 0x20 DUP3 ADD SWAP1 POP SWAP3 SWAP2 POP POP JUMP JUMPDEST DUP3 DUP2 DUP4 MCOPY PUSH0 DUP4 DUP4 ADD MSTORE POP POP POP JUMP JUMPDEST PUSH0 PUSH1 0x1F NOT PUSH1 0x1F DUP4 ADD AND SWAP1 POP SWAP2 SWAP1 POP JUMP JUMPDEST PUSH0 PUSH2 0x422 DUP3 PUSH2 0x3E0 JUMP JUMPDEST PUSH2 0x42C DUP2 DUP6 PUSH2 0x3EA JUMP JUMPDEST SWAP4 POP PUSH2 0x43C DUP2 DUP6 PUSH1 0x20 DUP7 ADD PUSH2 0x3FA JUMP JUMPDEST PUSH2 0x445 DUP2 PUSH2 0x408 JUMP JUMPDEST DUP5 ADD SWAP2 POP POP SWAP3 SWAP2 POP POP JUMP JUMPDEST PUSH0 PUSH1 0x20 DUP3 ADD SWAP1 POP DUP2 DUP2 SUB PUSH0 DUP4 ADD MSTORE PUSH2 0x468 DUP2 DUP5 PUSH2 0x418 JUMP JUMPDEST SWAP1 POP SWAP3 SWAP2 POP POP JUMP JUMPDEST PUSH0 PUSH1 0x40 DUP3 ADD SWAP1 POP DUP2 DUP2 SUB PUSH0 DUP4 ADD MSTORE PUSH2 0x488 DUP2 DUP6 PUSH2 0x418 JUMP JUMPDEST SWAP1 POP DUP2 DUP2 SUB PUSH1 0x20 DUP4 ADD MSTORE PUSH2 0x49C DUP2 DUP5 PUSH2 0x418 JUMP JUMPDEST SWAP1 POP SWAP4 SWAP3 POP POP POP JUMP JUMPDEST PUSH0 DUP1 REVERT JUMPDEST PUSH0 DUP1 REVERT JUMPDEST PUSH32 0x4E487B7100000000000000000000000000000000000000000000000000000000 PUSH0 MSTORE PUSH1 0x41 PUSH1 0x4 MSTORE PUSH1 0x24 PUSH0 REVERT JUMPDEST PUSH2 0x4E3 DUP3 PUSH2 0x408 JUMP JUMPDEST DUP2 ADD DUP2 DUP2 LT PUSH8 0xFFFFFFFFFFFFFFFF DUP3 GT OR ISZERO PUSH2 0x502 JUMPI PUSH2 0x501 PUSH2 0x4AD JUMP JUMPDEST JUMPDEST DUP1 PUSH1 0x40 MSTORE POP POP POP JUMP JUMPDEST PUSH0 PUSH2 0x514 PUSH2 0x358 JUMP JUMPDEST SWAP1 POP PUSH2 0x520 DUP3 DUP3 PUSH2 0x4DA JUMP JUMPDEST SWAP2 SWAP1 POP JUMP JUMPDEST PUSH0 PUSH8 0xFFFFFFFFFFFFFFFF DUP3 GT ISZERO PUSH2 0x53F JUMPI PUSH2 0x53E PUSH2 0x4AD JUMP JUMPDEST JUMPDEST PUSH2 0x548 DUP3 PUSH2 0x408 JUMP JUMPDEST SWAP1 POP PUSH1 0x20 DUP2 ADD SWAP1 POP SWAP2 SWAP1 POP JUMP JUMPDEST PUSH0 PUSH2 0x567 PUSH2 0x562 DUP5 PUSH2 0x525 JUMP JUMPDEST PUSH2 0x50B JUMP JUMPDEST SWAP1 POP DUP3 DUP2 MSTORE PUSH1 0x20 DUP2 ADD DUP5 DUP5 DUP5 ADD GT ISZERO PUSH2 0x583 JUMPI PUSH2 0x582 PUSH2 0x4A9 JUMP JUMPDEST JUMPDEST PUSH2 0x58E DUP5 DUP3 DUP6 PUSH2 0x3FA JUMP JUMPDEST POP SWAP4 SWAP3 POP POP POP JUMP JUMPDEST PUSH0 DUP3 PUSH1 0x1F DUP4 ADD SLT PUSH2 0x5AA JUMPI PUSH2 0x5A9 PUSH2 0x4A5 JUMP JUMPDEST JUMPDEST DUP2 MLOAD PUSH2 0x5BA DUP5 DUP3 PUSH1 0x20 DUP7 ADD PUSH2 0x555 JUMP JUMPDEST SWAP2 POP POP SWAP3 SWAP2 POP POP JUMP JUMPDEST PUSH0 PUSH1 0x20 DUP3 DUP5 SUB SLT ISZERO PUSH2 0x5D8 JUMPI PUSH2 0x5D7 PUSH2 0x361 JUMP JUMPDEST JUMPDEST PUSH0 DUP3 ADD MLOAD PUSH8 0xFFFFFFFFFFFFFFFF DUP2 GT ISZERO PUSH2 0x5F5 JUMPI PUSH2 0x5F4 PUSH2 0x365 JUMP JUMPDEST JUMPDEST PUSH2 0x601 DUP5 DUP3 DUP6 ADD PUSH2 0x596 JUMP JUMPDEST SWAP2 POP POP SWAP3 SWAP2 POP POP JUMP INVALID LOG2 PUSH5 0x6970667358 0x22 SLT KECCAK256 SWAP15 0xB2 CALLER BLOBHASH CREATE PUSH20 0x3C8153BBF5B05A07DC7EB85A972363D5BEDC966B 0xAB 0xDC 0xFC 0xC2 DUP5 0x21 PUSH5 0x736F6C6343 STOP ADDMOD BYTE STOP CALLER PUSH1 0x80 PUSH1 0x40 MSTORE CALLVALUE DUP1 ISZERO PUSH1 0xE JUMPI PUSH0 DUP1 REVERT JUMPDEST POP PUSH2 0x14E DUP1 PUSH2 0x1C PUSH0 CODECOPY PUSH0 RETURN INVALID PUSH1 0x80 PUSH1 0x40 MSTORE CALLVALUE DUP1 ISZERO PUSH2 0xF JUMPI PUSH0 DUP1 REVERT JUMPDEST POP PUSH1 0x4 CALLDATASIZE LT PUSH2 0x29 JUMPI PUSH0 CALLDATALOAD PUSH1 0xE0 SHR DUP1 PUSH4 0x17D7DE7C EQ PUSH2 0x2D JUMPI JUMPDEST PUSH0 DUP1 REVERT JUMPDEST PUSH2 0x35 PUSH2 0x4B JUMP JUMPDEST PUSH1 0x40 MLOAD PUSH2 0x42 SWAP2 SWAP1 PUSH2 0xF8 JUMP JUMPDEST PUSH1 0x40 MLOAD DUP1 SWAP2 SUB SWAP1 RETURN JUMPDEST PUSH1 0x60 PUSH1 0x40 MLOAD DUP1 PUSH1 0x40 ADD PUSH1 0x40 MSTORE DUP1 PUSH1 0x5 DUP2 MSTORE PUSH1 0x20 ADD PUSH32 0x5469676572000000000000000000000000000000000000000000000000000000 DUP2 MSTORE POP SWAP1 POP SWAP1 JUMP JUMPDEST PUSH0 DUP2 MLOAD SWAP1 POP SWAP2 SWAP1 POP JUMP JUMPDEST PUSH0 DUP3 DUP3 MSTORE PUSH1 0x20 DUP3 ADD SWAP1 POP SWAP3 SWAP2 POP POP JUMP JUMPDEST DUP3 DUP2 DUP4 MCOPY PUSH0 DUP4 DUP4 ADD MSTORE POP POP POP JUMP JUMPDEST PUSH0 PUSH1 0x1F NOT PUSH1 0x1F DUP4 ADD AND SWAP1 POP SWAP2 SWAP1 POP JUMP JUMPDEST PUSH0 PUSH2 0xCA DUP3 PUSH2 0x88 JUMP JUMPDEST PUSH2 0xD4 DUP2 DUP6 PUSH2 0x92 JUMP JUMPDEST SWAP4 POP PUSH2 0xE4 DUP2 DUP6 PUSH1 0x20 DUP7 ADD PUSH2 0xA2 JUMP JUMPDEST PUSH2 0xED DUP2 PUSH2 0xB0 JUMP JUMPDEST DUP5 ADD SWAP2 POP POP SWAP3 SWAP2 POP POP JUMP JUMPDEST PUSH0 PUSH1 0x20 DUP3 ADD SWAP1 POP DUP2 DUP2 SUB PUSH0 DUP4 ADD MSTORE PUSH2 0x110 DUP2 DUP5 PUSH2 0xC0 JUMP JUMPDEST SWAP1 POP SWAP3 SWAP2 POP POP JUMP INVALID LOG2 PUSH5 0x6970667358 0x22 SLT KECCAK256 0xC ISZERO PUSH8 0xA567D83DF67E2951 PUSH20 0x88B5EB8513DF7EBBB1FE5912B60B34EA6C38E00C PUSH5 0x736F6C6343 STOP ADDMOD BYTE STOP CALLER PUSH1 0x80 PUSH1 0x40 MSTORE CALLVALUE DUP1 ISZERO PUSH1 0xE JUMPI PUSH0 DUP1 REVERT JUMPDEST POP PUSH2 0x14E DUP1 PUSH2 0x1C PUSH0 CODECOPY PUSH0 RETURN INVALID PUSH1 0x80 PUSH1 0x40 MSTORE CALLVALUE DUP1 ISZERO PUSH2 0xF JUMPI PUSH0 DUP1 REVERT JUMPDEST POP PUSH1 0x4 CALLDATASIZE LT PUSH2 0x29 JUMPI PUSH0 CALLDATALOAD PUSH1 0xE0 SHR DUP1 PUSH4 0x17D7DE7C EQ PUSH2 0x2D JUMPI JUMPDEST PUSH0 DUP1 REVERT JUMPDEST PUSH2 0x35 PUSH2 0x4B JUMP JUMPDEST PUSH1 0x40 MLOAD PUSH2 0x42 SWAP2 SWAP1 PUSH2 0xF8 JUMP JUMPDEST PUSH1 0x40 MLOAD DUP1 SWAP2 SUB SWAP1 RETURN JUMPDEST PUSH1 0x60 PUSH1 0x40 MLOAD DUP1 PUSH1 0x40 ADD PUSH1 0x40 MSTORE DUP1 PUSH1 0x6 DUP2 MSTORE PUSH1 0x20 ADD PUSH32 0x547572746C650000000000000000000000000000000000000000000000000000 DUP2 MSTORE POP SWAP1 POP SWAP1 JUMP JUMPDEST PUSH0 DUP2 MLOAD SWAP1 POP SWAP2 SWAP1 POP JUMP JUMPDEST PUSH0 DUP3 DUP3 MSTORE PUSH1 0x20 DUP3 ADD SWAP1 POP SWAP3 SWAP2 POP POP JUMP JUMPDEST DUP3 DUP2 DUP4 MCOPY PUSH0 DUP4 DUP4 ADD MSTORE POP POP POP JUMP JUMPDEST PUSH0 PUSH1 0x1F NOT PUSH1 0x1F DUP4 ADD AND SWAP1 POP SWAP2 SWAP1 POP JUMP JUMPDEST PUSH0 PUSH2 0xCA DUP3 PUSH2 0x88 JUMP JUMPDEST PUSH2 0xD4 DUP2 DUP6 PUSH2 0x92 JUMP JUMPDEST SWAP4 POP PUSH2 0xE4 DUP2 DUP6 PUSH1 0x20 DUP7 ADD PUSH2 0xA2 JUMP JUMPDEST PUSH2 0xED DUP2 PUSH2 0xB0 JUMP JUMPDEST DUP5 ADD SWAP2 POP POP SWAP3 SWAP2 POP POP JUMP JUMPDEST PUSH0 PUSH1 0x20 DUP3 ADD SWAP1 POP DUP2 DUP2 SUB PUSH0 DUP4 ADD MSTORE PUSH2 0x110 DUP2 DUP5 PUSH2 0xC0 JUMP JUMPDEST SWAP1 POP SWAP3 SWAP2 POP POP JUMP INVALID LOG2 PUSH5 0x6970667358 0x22 SLT KECCAK256 SHR DUP16 PUSH24 0x874A938992CE410029EC5B8252F0944B0FB9D51DF3F035C0 CODECOPY SWAP8 0xA7 KECCAK256 0x28 PUSH5 0x736F6C6343 STOP ADDMOD BYTE STOP CALLER "
				},
				"gasEstimates": {
					"creation": {
						"codeDepositCost": "320000",
						"executionCost": "infinite",
						"totalCost": "infinite"
					},
					"external": {
						"getAllNames()": "infinite",
						"tiger()": "infinite",
						"turtle()": "infinite",
						"whatIsTheName(address)": "infinite"
					}
				},
				"methodIdentifiers": {
					"getAllNames()": "fb825e5f",
					"tiger()": "44d333ff",
					"turtle()": "5d422032",
					"whatIsTheName(address)": "9266ad16"
				}
			},
			"storageLayout": {
				"storage": [
					{
						"astId": 40,
						"contract": "Example/ANIAMLSET.sol:AnimalSet",
						"label": "tiger",
						"offset": 0,
						"slot": "0",
						"type": "t_contract(Animal)9"
					},
					{
						"astId": 47,
						"contract": "Example/ANIAMLSET.sol:AnimalSet",
						"label": "turtle",
						"offset": 0,
						"slot": "1",
						"type": "t_contract(Animal)9"
					}
				],
				"types": {
					"t_contract(Animal)9": {
						"encoding": "inplace",
						"label": "contract Animal",
						"numberOfBytes": "20"
					}
				}
			},
			"userdoc": {
				"kind": "user",
				"methods": {},
				"version": 1
			}
		}
	}
}