{
	"week3/Ex4_12.sol": {
		"Ex4_12": {
			"abi": [
				{
					"inputs": [],
					"name": "logical",
					"outputs": [
						{
							"internalType": "bool",
							"name": "",
							"type": "bool"
						},
						{
							"internalType": "bool",
							"name": "",
							"type": "bool"
						},
						{
							"internalType": "bool",
							"name": "",
							"type": "bool"
						},
						{
							"internalType": "bool",
							"name": "",
							"type": "bool"
						},
						{
							"internalType": "bool",
							"name": "",
							"type": "bool"
						},
						{
							"internalType": "bool",
							"name": "",
							"type": "bool"
						},
						{
							"internalType": "bool",
							"name": "",
							"type": "bool"
						}
					],
					"stateMutability": "view",
					"type": "function"
				}
			],
			"devdoc": {
				"kind": "dev",
				"methods": {},
				"version": 1
			},
			"evm": {
				"assembly": "    /* \"week3/Ex4_12.sol\":69:370  contract Ex4_12{... */\n  mstore(0x40, 0x80)\n    /* \"week3/Ex4_12.sol\":98:102  true */\n  0x01\n    /* \"week3/Ex4_12.sol\":98:108  true&&true */\n  dup1\n  iszero\n  tag_1\n  jumpi\n  pop\n    /* \"week3/Ex4_12.sol\":104:108  true */\n  0x01\n    /* \"week3/Ex4_12.sol\":98:108  true&&true */\ntag_1:\n    /* \"week3/Ex4_12.sol\":91:108  bool a=true&&true */\n  0x00\n  dup1\n  0x0100\n  exp\n  dup2\n  sload\n  dup2\n  0xff\n  mul\n  not\n  and\n  swap1\n  dup4\n  iszero\n  iszero\n  mul\n  or\n  swap1\n  sstore\n  pop\n    /* \"week3/Ex4_12.sol\":121:125  true */\n  0x01\n    /* \"week3/Ex4_12.sol\":121:132  true&&false */\n  dup1\n  iszero\n  tag_2\n  jumpi\n  pop\n    /* \"week3/Ex4_12.sol\":127:132  false */\n  0x00\n    /* \"week3/Ex4_12.sol\":121:132  true&&false */\ntag_2:\n    /* \"week3/Ex4_12.sol\":114:132  bool b=true&&false */\n  0x00\n  exp(0x0100, 0x01)\n  dup2\n  sload\n  dup2\n  0xff\n  mul\n  not\n  and\n  swap1\n  dup4\n  iszero\n  iszero\n  mul\n  or\n  swap1\n  sstore\n  pop\n    /* \"week3/Ex4_12.sol\":145:150  false */\n  0x00\n    /* \"week3/Ex4_12.sol\":145:157  false&&false */\n  dup1\n  iszero\n  tag_3\n  jumpi\n  pop\n    /* \"week3/Ex4_12.sol\":152:157  false */\n  0x00\n    /* \"week3/Ex4_12.sol\":145:157  false&&false */\ntag_3:\n    /* \"week3/Ex4_12.sol\":138:157  bool c=false&&false */\n  0x00\n  exp(0x0100, 0x02)\n  dup2\n  sload\n  dup2\n  0xff\n  mul\n  not\n  and\n  swap1\n  dup4\n  iszero\n  iszero\n  mul\n  or\n  swap1\n  sstore\n  pop\n    /* \"week3/Ex4_12.sol\":170:174  true */\n  0x01\n    /* \"week3/Ex4_12.sol\":170:180  true||true */\n  dup1\n  tag_4\n  jumpi\n  pop\n    /* \"week3/Ex4_12.sol\":176:180  true */\n  0x01\n    /* \"week3/Ex4_12.sol\":170:180  true||true */\ntag_4:\n    /* \"week3/Ex4_12.sol\":163:180  bool d=true||true */\n  0x00\n  exp(0x0100, 0x03)\n  dup2\n  sload\n  dup2\n  0xff\n  mul\n  not\n  and\n  swap1\n  dup4\n  iszero\n  iszero\n  mul\n  or\n  swap1\n  sstore\n  pop\n    /* \"week3/Ex4_12.sol\":193:197  true */\n  0x01\n    /* \"week3/Ex4_12.sol\":193:204  true||false */\n  dup1\n  tag_5\n  jumpi\n  pop\n    /* \"week3/Ex4_12.sol\":199:204  false */\n  0x00\n    /* \"week3/Ex4_12.sol\":193:204  true||false */\ntag_5:\n    /* \"week3/Ex4_12.sol\":186:204  bool e=true||false */\n  0x00\n  exp(0x0100, 0x04)\n  dup2\n  sload\n  dup2\n  0xff\n  mul\n  not\n  and\n  swap1\n  dup4\n  iszero\n  iszero\n  mul\n  or\n  swap1\n  sstore\n  pop\n    /* \"week3/Ex4_12.sol\":217:222  false */\n  0x00\n    /* \"week3/Ex4_12.sol\":217:229  false||false */\n  dup1\n  tag_6\n  jumpi\n  pop\n    /* \"week3/Ex4_12.sol\":224:229  false */\n  0x00\n    /* \"week3/Ex4_12.sol\":217:229  false||false */\ntag_6:\n    /* \"week3/Ex4_12.sol\":210:229  bool f=false||false */\n  0x00\n  exp(0x0100, 0x05)\n  dup2\n  sload\n  dup2\n  0xff\n  mul\n  not\n  and\n  swap1\n  dup4\n  iszero\n  iszero\n  mul\n  or\n  swap1\n  sstore\n  pop\n    /* \"week3/Ex4_12.sol\":243:248  false */\n  0x00\n    /* \"week3/Ex4_12.sol\":242:248  !false */\n  iszero\n    /* \"week3/Ex4_12.sol\":235:248  bool g=!false */\n  0x00\n  exp(0x0100, 0x06)\n  dup2\n  sload\n  dup2\n  0xff\n  mul\n  not\n  and\n  swap1\n  dup4\n  iszero\n  iszero\n  mul\n  or\n  swap1\n  sstore\n  pop\n    /* \"week3/Ex4_12.sol\":69:370  contract Ex4_12{... */\n  callvalue\n  dup1\n  iszero\n  tag_7\n  jumpi\n  0x00\n  dup1\n  revert\ntag_7:\n  pop\n  dataSize(sub_0)\n  dup1\n  dataOffset(sub_0)\n  0x00\n  codecopy\n  0x00\n  return\nstop\n\nsub_0: assembly {\n        /* \"week3/Ex4_12.sol\":69:370  contract Ex4_12{... */\n      mstore(0x40, 0x80)\n      callvalue\n      dup1\n      iszero\n      tag_1\n      jumpi\n      0x00\n      dup1\n      revert\n    tag_1:\n      pop\n      jumpi(tag_2, lt(calldatasize, 0x04))\n      shr(0xe0, calldataload(0x00))\n      dup1\n      0x93daa367\n      eq\n      tag_3\n      jumpi\n    tag_2:\n      0x00\n      dup1\n      revert\n        /* \"week3/Ex4_12.sol\":255:368  function logical() public view returns (bool,bool,bool,bool,bool,bool,bool){... */\n    tag_3:\n      tag_4\n      tag_5\n      jump\t// in\n    tag_4:\n      mload(0x40)\n      dup1\n      dup9\n      iszero\n      iszero\n      dup2\n      mstore\n      0x20\n      add\n      dup8\n      iszero\n      iszero\n      dup2\n      mstore\n      0x20\n      add\n      dup7\n      iszero\n      iszero\n      dup2\n      mstore\n      0x20\n      add\n      dup6\n      iszero\n      iszero\n      dup2\n      mstore\n      0x20\n      add\n      dup5\n      iszero\n      iszero\n      dup2\n      mstore\n      0x20\n      add\n      dup4\n      iszero\n      iszero\n      dup2\n      mstore\n      0x20\n      add\n      dup3\n      iszero\n      iszero\n      dup2\n      mstore\n      0x20\n      add\n      swap8\n      pop\n      pop\n      pop\n      pop\n      pop\n      pop\n      pop\n      pop\n      mload(0x40)\n      dup1\n      swap2\n      sub\n      swap1\n      return\n    tag_5:\n        /* \"week3/Ex4_12.sol\":295:299  bool */\n      0x00\n        /* \"week3/Ex4_12.sol\":300:304  bool */\n      dup1\n        /* \"week3/Ex4_12.sol\":305:309  bool */\n      0x00\n        /* \"week3/Ex4_12.sol\":310:314  bool */\n      dup1\n        /* \"week3/Ex4_12.sol\":315:319  bool */\n      0x00\n        /* \"week3/Ex4_12.sol\":320:324  bool */\n      dup1\n        /* \"week3/Ex4_12.sol\":325:329  bool */\n      0x00\n        /* \"week3/Ex4_12.sol\":347:348  a */\n      dup1\n      0x00\n      swap1\n      sload\n      swap1\n      0x0100\n      exp\n      swap1\n      div\n      0xff\n      and\n        /* \"week3/Ex4_12.sol\":349:350  b */\n      0x00\n      0x01\n      swap1\n      sload\n      swap1\n      0x0100\n      exp\n      swap1\n      div\n      0xff\n      and\n        /* \"week3/Ex4_12.sol\":351:352  c */\n      0x00\n      0x02\n      swap1\n      sload\n      swap1\n      0x0100\n      exp\n      swap1\n      div\n      0xff\n      and\n        /* \"week3/Ex4_12.sol\":353:354  d */\n      0x00\n      0x03\n      swap1\n      sload\n      swap1\n      0x0100\n      exp\n      swap1\n      div\n      0xff\n      and\n        /* \"week3/Ex4_12.sol\":355:356  e */\n      0x00\n      0x04\n      swap1\n      sload\n      swap1\n      0x0100\n      exp\n      swap1\n      div\n      0xff\n      and\n        /* \"week3/Ex4_12.sol\":357:358  f */\n      0x00\n      0x05\n      swap1\n      sload\n      swap1\n      0x0100\n      exp\n      swap1\n      div\n      0xff\n      and\n        /* \"week3/Ex4_12.sol\":359:360  g */\n      0x00\n      0x06\n      swap1\n      sload\n      swap1\n      0x0100\n      exp\n      swap1\n      div\n      0xff\n      and\n        /* \"week3/Ex4_12.sol\":340:361  return(a,b,c,d,e,f,g) */\n      swap7\n      pop\n      swap7\n      pop\n      swap7\n      pop\n      swap7\n      pop\n      swap7\n      pop\n      swap7\n      pop\n      swap7\n      pop\n        /* \"week3/Ex4_12.sol\":255:368  function logical() public view returns (bool,bool,bool,bool,bool,bool,bool){... */\n      swap1\n      swap2\n      swap3\n      swap4\n      swap5\n      swap6\n      swap7\n      jump\t// out\n\n    auxdata: 0xa26469706673582212201eafa759a85cf86621e408f92c52679710857f1fb7d4f62839c9db0ff1fd4f9e64736f6c63430007000033\n}\n",
				"bytecode": {
					"linkReferences": {},
					"object": "608060405260018015610010575060015b6000806101000a81548160ff02191690831515021790555060018015610034575060005b600060016101000a81548160ff02191690831515021790555060008015610059575060005b600060026101000a81548160ff02191690831515021790555060018061007d575060015b600060036101000a81548160ff0219169083151502179055506001806100a1575060005b600060046101000a81548160ff0219169083151502179055506000806100c5575060005b600060056101000a81548160ff021916908315150217905550600015600060066101000a81548160ff02191690831515021790555034801561010657600080fd5b5061014d806101166000396000f3fe608060405234801561001057600080fd5b506004361061002b5760003560e01c806393daa36714610030575b600080fd5b610038610086565b60405180881515815260200187151581526020018615158152602001851515815260200184151581526020018315158152602001821515815260200197505050505050505060405180910390f35b60008060008060008060008060009054906101000a900460ff16600060019054906101000a900460ff16600060029054906101000a900460ff16600060039054906101000a900460ff16600060049054906101000a900460ff16600060059054906101000a900460ff16600060069054906101000a900460ff1696509650965096509650965096509091929394959656fea26469706673582212201eafa759a85cf86621e408f92c52679710857f1fb7d4f62839c9db0ff1fd4f9e64736f6c63430007000033",
					"opcodes": "PUSH1 0x80 PUSH1 0x40 MSTORE PUSH1 0x1 DUP1 ISZERO PUSH2 0x10 JUMPI POP PUSH1 0x1 JUMPDEST PUSH1 0x0 DUP1 PUSH2 0x100 EXP DUP2 SLOAD DUP2 PUSH1 0xFF MUL NOT AND SWAP1 DUP4 ISZERO ISZERO MUL OR SWAP1 SSTORE POP PUSH1 0x1 DUP1 ISZERO PUSH2 0x34 JUMPI POP PUSH1 0x0 JUMPDEST PUSH1 0x0 PUSH1 0x1 PUSH2 0x100 EXP DUP2 SLOAD DUP2 PUSH1 0xFF MUL NOT AND SWAP1 DUP4 ISZERO ISZERO MUL OR SWAP1 SSTORE POP PUSH1 0x0 DUP1 ISZERO PUSH2 0x59 JUMPI POP PUSH1 0x0 JUMPDEST PUSH1 0x0 PUSH1 0x2 PUSH2 0x100 EXP DUP2 SLOAD DUP2 PUSH1 0xFF MUL NOT AND SWAP1 DUP4 ISZERO ISZERO MUL OR SWAP1 SSTORE POP PUSH1 0x1 DUP1 PUSH2 0x7D JUMPI POP PUSH1 0x1 JUMPDEST PUSH1 0x0 PUSH1 0x3 PUSH2 0x100 EXP DUP2 SLOAD DUP2 PUSH1 0xFF MUL NOT AND SWAP1 DUP4 ISZERO ISZERO MUL OR SWAP1 SSTORE POP PUSH1 0x1 DUP1 PUSH2 0xA1 JUMPI POP PUSH1 0x0 JUMPDEST PUSH1 0x0 PUSH1 0x4 PUSH2 0x100 EXP DUP2 SLOAD DUP2 PUSH1 0xFF MUL NOT AND SWAP1 DUP4 ISZERO ISZERO MUL OR SWAP1 SSTORE POP PUSH1 0x0 DUP1 PUSH2 0xC5 JUMPI POP PUSH1 0x0 JUMPDEST PUSH1 0x0 PUSH1 0x5 PUSH2 0x100 EXP DUP2 SLOAD DUP2 PUSH1 0xFF MUL NOT AND SWAP1 DUP4 ISZERO ISZERO MUL OR SWAP1 SSTORE POP PUSH1 0x0 ISZERO PUSH1 0x0 PUSH1 0x6 PUSH2 0x100 EXP DUP2 SLOAD DUP2 PUSH1 0xFF MUL NOT AND SWAP1 DUP4 ISZERO ISZERO MUL OR SWAP1 SSTORE POP CALLVALUE DUP1 ISZERO PUSH2 0x106 JUMPI PUSH1 0x0 DUP1 REVERT JUMPDEST POP PUSH2 0x14D DUP1 PUSH2 0x116 PUSH1 0x0 CODECOPY PUSH1 0x0 RETURN INVALID PUSH1 0x80 PUSH1 0x40 MSTORE CALLVALUE DUP1 ISZERO PUSH2 0x10 JUMPI PUSH1 0x0 DUP1 REVERT JUMPDEST POP PUSH1 0x4 CALLDATASIZE LT PUSH2 0x2B JUMPI PUSH1 0x0 CALLDATALOAD PUSH1 0xE0 SHR DUP1 PUSH4 0x93DAA367 EQ PUSH2 0x30 JUMPI JUMPDEST PUSH1 0x0 DUP1 REVERT JUMPDEST PUSH2 0x38 PUSH2 0x86 JUMP JUMPDEST PUSH1 0x40 MLOAD DUP1 DUP9 ISZERO ISZERO DUP2 MSTORE PUSH1 0x20 ADD DUP8 ISZERO ISZERO DUP2 MSTORE PUSH1 0x20 ADD DUP7 ISZERO ISZERO DUP2 MSTORE PUSH1 0x20 ADD DUP6 ISZERO ISZERO DUP2 MSTORE PUSH1 0x20 ADD DUP5 ISZERO ISZERO DUP2 MSTORE PUSH1 0x20 ADD DUP4 ISZERO ISZERO DUP2 MSTORE PUSH1 0x20 ADD DUP3 ISZERO ISZERO DUP2 MSTORE PUSH1 0x20 ADD SWAP8 POP POP POP POP POP POP POP POP PUSH1 0x40 MLOAD DUP1 SWAP2 SUB SWAP1 RETURN JUMPDEST PUSH1 0x0 DUP1 PUSH1 0x0 DUP1 PUSH1 0x0 DUP1 PUSH1 0x0 DUP1 PUSH1 0x0 SWAP1 SLOAD SWAP1 PUSH2 0x100 EXP SWAP1 DIV PUSH1 0xFF AND PUSH1 0x0 PUSH1 0x1 SWAP1 SLOAD SWAP1 PUSH2 0x100 EXP SWAP1 DIV PUSH1 0xFF AND PUSH1 0x0 PUSH1 0x2 SWAP1 SLOAD SWAP1 PUSH2 0x100 EXP SWAP1 DIV PUSH1 0xFF AND PUSH1 0x0 PUSH1 0x3 SWAP1 SLOAD SWAP1 PUSH2 0x100 EXP SWAP1 DIV PUSH1 0xFF AND PUSH1 0x0 PUSH1 0x4 SWAP1 SLOAD SWAP1 PUSH2 0x100 EXP SWAP1 DIV PUSH1 0xFF AND PUSH1 0x0 PUSH1 0x5 SWAP1 SLOAD SWAP1 PUSH2 0x100 EXP SWAP1 DIV PUSH1 0xFF AND PUSH1 0x0 PUSH1 0x6 SWAP1 SLOAD SWAP1 PUSH2 0x100 EXP SWAP1 DIV PUSH1 0xFF AND SWAP7 POP SWAP7 POP SWAP7 POP SWAP7 POP SWAP7 POP SWAP7 POP SWAP7 POP SWAP1 SWAP2 SWAP3 SWAP4 SWAP5 SWAP6 SWAP7 JUMP INVALID LOG2 PUSH5 0x6970667358 0x22 SLT KECCAK256 0x1E 0xAF 0xA7 MSIZE 0xA8 0x5C 0xF8 PUSH7 0x21E408F92C5267 SWAP8 LT DUP6 PUSH32 0x1FB7D4F62839C9DB0FF1FD4F9E64736F6C634300070000330000000000000000 "
				},
				"gasEstimates": {
					"creation": {
						"codeDepositCost": "66600",
						"executionCost": "146615",
						"totalCost": "213215"
					},
					"external": {
						"logical()": "6589"
					}
				},
				"methodIdentifiers": {
					"logical()": "93daa367"
				}
			},
			"storageLayout": {
				"storage": [
					{
						"astId": 6,
						"contract": "week3/Ex4_12.sol:Ex4_12",
						"label": "a",
						"offset": 0,
						"slot": "0",
						"type": "t_bool"
					},
					{
						"astId": 11,
						"contract": "week3/Ex4_12.sol:Ex4_12",
						"label": "b",
						"offset": 1,
						"slot": "0",
						"type": "t_bool"
					},
					{
						"astId": 16,
						"contract": "week3/Ex4_12.sol:Ex4_12",
						"label": "c",
						"offset": 2,
						"slot": "0",
						"type": "t_bool"
					},
					{
						"astId": 21,
						"contract": "week3/Ex4_12.sol:Ex4_12",
						"label": "d",
						"offset": 3,
						"slot": "0",
						"type": "t_bool"
					},
					{
						"astId": 26,
						"contract": "week3/Ex4_12.sol:Ex4_12",
						"label": "e",
						"offset": 4,
						"slot": "0",
						"type": "t_bool"
					},
					{
						"astId": 31,
						"contract": "week3/Ex4_12.sol:Ex4_12",
						"label": "f",
						"offset": 5,
						"slot": "0",
						"type": "t_bool"
					},
					{
						"astId": 35,
						"contract": "week3/Ex4_12.sol:Ex4_12",
						"label": "g",
						"offset": 6,
						"slot": "0",
						"type": "t_bool"
					}
				],
				"types": {
					"t_bool": {
						"encoding": "inplace",
						"label": "bool",
						"numberOfBytes": "1"
					}
				}
			},
			"userdoc": {
				"kind": "user",
				"methods": {},
				"version": 1
			}
		}
	}
}