{
	"Example/Ex6_3.sol": {
		"Ex6_3": {
			"abi": [
				{
					"inputs": [
						{
							"internalType": "uint256",
							"name": "_num",
							"type": "uint256"
						}
					],
					"name": "runRequire",
					"outputs": [
						{
							"internalType": "uint256",
							"name": "",
							"type": "uint256"
						}
					],
					"stateMutability": "pure",
					"type": "function"
				},
				{
					"inputs": [
						{
							"internalType": "uint256",
							"name": "_num",
							"type": "uint256"
						}
					],
					"name": "runRevert",
					"outputs": [
						{
							"internalType": "uint256",
							"name": "",
							"type": "uint256"
						}
					],
					"stateMutability": "pure",
					"type": "function"
				}
			],
			"devdoc": {
				"kind": "dev",
				"methods": {},
				"version": 1
			},
			"evm": {
				"assembly": "    /* \"Example/Ex6_3.sol\":0:364  contract Ex6_3{... */\n  mstore(0x40, 0x80)\n  callvalue\n  dup1\n  iszero\n  tag_1\n  jumpi\n  0x00\n  dup1\n  revert\ntag_1:\n  pop\n  dataSize(sub_0)\n  dup1\n  dataOffset(sub_0)\n  0x00\n  codecopy\n  0x00\n  return\nstop\n\nsub_0: assembly {\n        /* \"Example/Ex6_3.sol\":0:364  contract Ex6_3{... */\n      mstore(0x40, 0x80)\n      callvalue\n      dup1\n      iszero\n      tag_1\n      jumpi\n      0x00\n      dup1\n      revert\n    tag_1:\n      pop\n      jumpi(tag_2, lt(calldatasize, 0x04))\n      shr(0xe0, calldataload(0x00))\n      dup1\n      0xa0c6ea13\n      eq\n      tag_3\n      jumpi\n      dup1\n      0xcd95d0cc\n      eq\n      tag_4\n      jumpi\n    tag_2:\n      0x00\n      dup1\n      revert\n        /* \"Example/Ex6_3.sol\":20:201  function runRevert(uint _num) public pure returns(uint){... */\n    tag_3:\n      tag_5\n      0x04\n      dup1\n      calldatasize\n      sub\n      dup2\n      add\n      swap1\n      tag_6\n      swap2\n      swap1\n      tag_7\n      jump\t// in\n    tag_6:\n      tag_8\n      jump\t// in\n    tag_5:\n      mload(0x40)\n      tag_9\n      swap2\n      swap1\n      tag_10\n      jump\t// in\n    tag_9:\n      mload(0x40)\n      dup1\n      swap2\n      sub\n      swap1\n      return\n        /* \"Example/Ex6_3.sol\":206:362  function runRequire(uint _num) public pure returns(uint){... */\n    tag_4:\n      tag_11\n      0x04\n      dup1\n      calldatasize\n      sub\n      dup2\n      add\n      swap1\n      tag_12\n      swap2\n      swap1\n      tag_7\n      jump\t// in\n    tag_12:\n      tag_13\n      jump\t// in\n    tag_11:\n      mload(0x40)\n      tag_14\n      swap2\n      swap1\n      tag_10\n      jump\t// in\n    tag_14:\n      mload(0x40)\n      dup1\n      swap2\n      sub\n      swap1\n      return\n        /* \"Example/Ex6_3.sol\":20:201  function runRevert(uint _num) public pure returns(uint){... */\n    tag_8:\n        /* \"Example/Ex6_3.sol\":70:74  uint */\n      0x00\n        /* \"Example/Ex6_3.sol\":94:95  3 */\n      0x03\n        /* \"Example/Ex6_3.sol\":88:92  _num */\n      dup3\n        /* \"Example/Ex6_3.sol\":88:95  _num<=3 */\n      gt\n        /* \"Example/Ex6_3.sol\":85:174  if(_num<=3){... */\n      tag_16\n      jumpi\n        /* \"Example/Ex6_3.sol\":110:163  revert(\"Revert error : input must be greater than 3\") */\n      mload(0x40)\n      0x08c379a000000000000000000000000000000000000000000000000000000000\n      dup2\n      mstore\n      0x04\n      add\n      tag_17\n      swap1\n      tag_18\n      jump\t// in\n    tag_17:\n      mload(0x40)\n      dup1\n      swap2\n      sub\n      swap1\n      revert\n        /* \"Example/Ex6_3.sol\":85:174  if(_num<=3){... */\n    tag_16:\n        /* \"Example/Ex6_3.sol\":190:194  _num */\n      dup2\n        /* \"Example/Ex6_3.sol\":183:194  return _num */\n      swap1\n      pop\n        /* \"Example/Ex6_3.sol\":20:201  function runRevert(uint _num) public pure returns(uint){... */\n      swap2\n      swap1\n      pop\n      jump\t// out\n        /* \"Example/Ex6_3.sol\":206:362  function runRequire(uint _num) public pure returns(uint){... */\n    tag_13:\n        /* \"Example/Ex6_3.sol\":257:261  uint */\n      0x00\n        /* \"Example/Ex6_3.sol\":285:286  3 */\n      0x03\n        /* \"Example/Ex6_3.sol\":280:284  _num */\n      dup3\n        /* \"Example/Ex6_3.sol\":280:286  _num>3 */\n      gt\n        /* \"Example/Ex6_3.sol\":272:334  require(_num>3,\"Require error : input must be greater than 3\") */\n      tag_20\n      jumpi\n      mload(0x40)\n      0x08c379a000000000000000000000000000000000000000000000000000000000\n      dup2\n      mstore\n      0x04\n      add\n      tag_21\n      swap1\n      tag_22\n      jump\t// in\n    tag_21:\n      mload(0x40)\n      dup1\n      swap2\n      sub\n      swap1\n      revert\n    tag_20:\n        /* \"Example/Ex6_3.sol\":351:355  _num */\n      dup2\n        /* \"Example/Ex6_3.sol\":344:355  return _num */\n      swap1\n      pop\n        /* \"Example/Ex6_3.sol\":206:362  function runRequire(uint _num) public pure returns(uint){... */\n      swap2\n      swap1\n      pop\n      jump\t// out\n        /* \"#utility.yul\":88:205   */\n    tag_24:\n        /* \"#utility.yul\":197:198   */\n      0x00\n        /* \"#utility.yul\":194:195   */\n      dup1\n        /* \"#utility.yul\":187:199   */\n      revert\n        /* \"#utility.yul\":334:411   */\n    tag_26:\n        /* \"#utility.yul\":371:378   */\n      0x00\n        /* \"#utility.yul\":400:405   */\n      dup2\n        /* \"#utility.yul\":389:405   */\n      swap1\n      pop\n        /* \"#utility.yul\":334:411   */\n      swap2\n      swap1\n      pop\n      jump\t// out\n        /* \"#utility.yul\":417:539   */\n    tag_27:\n        /* \"#utility.yul\":490:514   */\n      tag_41\n        /* \"#utility.yul\":508:513   */\n      dup2\n        /* \"#utility.yul\":490:514   */\n      tag_26\n      jump\t// in\n    tag_41:\n        /* \"#utility.yul\":483:488   */\n      dup2\n        /* \"#utility.yul\":480:515   */\n      eq\n        /* \"#utility.yul\":470:533   */\n      tag_42\n      jumpi\n        /* \"#utility.yul\":529:530   */\n      0x00\n        /* \"#utility.yul\":526:527   */\n      dup1\n        /* \"#utility.yul\":519:531   */\n      revert\n        /* \"#utility.yul\":470:533   */\n    tag_42:\n        /* \"#utility.yul\":417:539   */\n      pop\n      jump\t// out\n        /* \"#utility.yul\":545:684   */\n    tag_28:\n        /* \"#utility.yul\":591:596   */\n      0x00\n        /* \"#utility.yul\":629:635   */\n      dup2\n        /* \"#utility.yul\":616:636   */\n      calldataload\n        /* \"#utility.yul\":607:636   */\n      swap1\n      pop\n        /* \"#utility.yul\":645:678   */\n      tag_44\n        /* \"#utility.yul\":672:677   */\n      dup2\n        /* \"#utility.yul\":645:678   */\n      tag_27\n      jump\t// in\n    tag_44:\n        /* \"#utility.yul\":545:684   */\n      swap3\n      swap2\n      pop\n      pop\n      jump\t// out\n        /* \"#utility.yul\":690:1019   */\n    tag_7:\n        /* \"#utility.yul\":749:755   */\n      0x00\n        /* \"#utility.yul\":798:800   */\n      0x20\n        /* \"#utility.yul\":786:795   */\n      dup3\n        /* \"#utility.yul\":777:784   */\n      dup5\n        /* \"#utility.yul\":773:796   */\n      sub\n        /* \"#utility.yul\":769:801   */\n      slt\n        /* \"#utility.yul\":766:885   */\n      iszero\n      tag_46\n      jumpi\n        /* \"#utility.yul\":804:883   */\n      tag_47\n      tag_24\n      jump\t// in\n    tag_47:\n        /* \"#utility.yul\":766:885   */\n    tag_46:\n        /* \"#utility.yul\":924:925   */\n      0x00\n        /* \"#utility.yul\":949:1002   */\n      tag_48\n        /* \"#utility.yul\":994:1001   */\n      dup5\n        /* \"#utility.yul\":985:991   */\n      dup3\n        /* \"#utility.yul\":974:983   */\n      dup6\n        /* \"#utility.yul\":970:992   */\n      add\n        /* \"#utility.yul\":949:1002   */\n      tag_28\n      jump\t// in\n    tag_48:\n        /* \"#utility.yul\":939:1002   */\n      swap2\n      pop\n        /* \"#utility.yul\":895:1012   */\n      pop\n        /* \"#utility.yul\":690:1019   */\n      swap3\n      swap2\n      pop\n      pop\n      jump\t// out\n        /* \"#utility.yul\":1025:1143   */\n    tag_29:\n        /* \"#utility.yul\":1112:1136   */\n      tag_50\n        /* \"#utility.yul\":1130:1135   */\n      dup2\n        /* \"#utility.yul\":1112:1136   */\n      tag_26\n      jump\t// in\n    tag_50:\n        /* \"#utility.yul\":1107:1110   */\n      dup3\n        /* \"#utility.yul\":1100:1137   */\n      mstore\n        /* \"#utility.yul\":1025:1143   */\n      pop\n      pop\n      jump\t// out\n        /* \"#utility.yul\":1149:1371   */\n    tag_10:\n        /* \"#utility.yul\":1242:1246   */\n      0x00\n        /* \"#utility.yul\":1280:1282   */\n      0x20\n        /* \"#utility.yul\":1269:1278   */\n      dup3\n        /* \"#utility.yul\":1265:1283   */\n      add\n        /* \"#utility.yul\":1257:1283   */\n      swap1\n      pop\n        /* \"#utility.yul\":1293:1364   */\n      tag_52\n        /* \"#utility.yul\":1361:1362   */\n      0x00\n        /* \"#utility.yul\":1350:1359   */\n      dup4\n        /* \"#utility.yul\":1346:1363   */\n      add\n        /* \"#utility.yul\":1337:1343   */\n      dup5\n        /* \"#utility.yul\":1293:1364   */\n      tag_29\n      jump\t// in\n    tag_52:\n        /* \"#utility.yul\":1149:1371   */\n      swap3\n      swap2\n      pop\n      pop\n      jump\t// out\n        /* \"#utility.yul\":1377:1546   */\n    tag_30:\n        /* \"#utility.yul\":1461:1472   */\n      0x00\n        /* \"#utility.yul\":1495:1501   */\n      dup3\n        /* \"#utility.yul\":1490:1493   */\n      dup3\n        /* \"#utility.yul\":1483:1502   */\n      mstore\n        /* \"#utility.yul\":1535:1539   */\n      0x20\n        /* \"#utility.yul\":1530:1533   */\n      dup3\n        /* \"#utility.yul\":1526:1540   */\n      add\n        /* \"#utility.yul\":1511:1540   */\n      swap1\n      pop\n        /* \"#utility.yul\":1377:1546   */\n      swap3\n      swap2\n      pop\n      pop\n      jump\t// out\n        /* \"#utility.yul\":1552:1782   */\n    tag_31:\n        /* \"#utility.yul\":1692:1726   */\n      0x526576657274206572726f72203a20696e707574206d75737420626520677265\n        /* \"#utility.yul\":1688:1689   */\n      0x00\n        /* \"#utility.yul\":1680:1686   */\n      dup3\n        /* \"#utility.yul\":1676:1690   */\n      add\n        /* \"#utility.yul\":1669:1727   */\n      mstore\n        /* \"#utility.yul\":1761:1774   */\n      0x61746572207468616e2033000000000000000000000000000000000000000000\n        /* \"#utility.yul\":1756:1758   */\n      0x20\n        /* \"#utility.yul\":1748:1754   */\n      dup3\n        /* \"#utility.yul\":1744:1759   */\n      add\n        /* \"#utility.yul\":1737:1775   */\n      mstore\n        /* \"#utility.yul\":1552:1782   */\n      pop\n      jump\t// out\n        /* \"#utility.yul\":1788:2154   */\n    tag_32:\n        /* \"#utility.yul\":1930:1933   */\n      0x00\n        /* \"#utility.yul\":1951:2018   */\n      tag_56\n        /* \"#utility.yul\":2015:2017   */\n      0x2b\n        /* \"#utility.yul\":2010:2013   */\n      dup4\n        /* \"#utility.yul\":1951:2018   */\n      tag_30\n      jump\t// in\n    tag_56:\n        /* \"#utility.yul\":1944:2018   */\n      swap2\n      pop\n        /* \"#utility.yul\":2027:2120   */\n      tag_57\n        /* \"#utility.yul\":2116:2119   */\n      dup3\n        /* \"#utility.yul\":2027:2120   */\n      tag_31\n      jump\t// in\n    tag_57:\n        /* \"#utility.yul\":2145:2147   */\n      0x40\n        /* \"#utility.yul\":2140:2143   */\n      dup3\n        /* \"#utility.yul\":2136:2148   */\n      add\n        /* \"#utility.yul\":2129:2148   */\n      swap1\n      pop\n        /* \"#utility.yul\":1788:2154   */\n      swap2\n      swap1\n      pop\n      jump\t// out\n        /* \"#utility.yul\":2160:2579   */\n    tag_18:\n        /* \"#utility.yul\":2326:2330   */\n      0x00\n        /* \"#utility.yul\":2364:2366   */\n      0x20\n        /* \"#utility.yul\":2353:2362   */\n      dup3\n        /* \"#utility.yul\":2349:2367   */\n      add\n        /* \"#utility.yul\":2341:2367   */\n      swap1\n      pop\n        /* \"#utility.yul\":2413:2422   */\n      dup2\n        /* \"#utility.yul\":2407:2411   */\n      dup2\n        /* \"#utility.yul\":2403:2423   */\n      sub\n        /* \"#utility.yul\":2399:2400   */\n      0x00\n        /* \"#utility.yul\":2388:2397   */\n      dup4\n        /* \"#utility.yul\":2384:2401   */\n      add\n        /* \"#utility.yul\":2377:2424   */\n      mstore\n        /* \"#utility.yul\":2441:2572   */\n      tag_59\n        /* \"#utility.yul\":2567:2571   */\n      dup2\n        /* \"#utility.yul\":2441:2572   */\n      tag_32\n      jump\t// in\n    tag_59:\n        /* \"#utility.yul\":2433:2572   */\n      swap1\n      pop\n        /* \"#utility.yul\":2160:2579   */\n      swap2\n      swap1\n      pop\n      jump\t// out\n        /* \"#utility.yul\":2585:2816   */\n    tag_33:\n        /* \"#utility.yul\":2725:2759   */\n      0x52657175697265206572726f72203a20696e707574206d757374206265206772\n        /* \"#utility.yul\":2721:2722   */\n      0x00\n        /* \"#utility.yul\":2713:2719   */\n      dup3\n        /* \"#utility.yul\":2709:2723   */\n      add\n        /* \"#utility.yul\":2702:2760   */\n      mstore\n        /* \"#utility.yul\":2794:2808   */\n      0x6561746572207468616e20330000000000000000000000000000000000000000\n        /* \"#utility.yul\":2789:2791   */\n      0x20\n        /* \"#utility.yul\":2781:2787   */\n      dup3\n        /* \"#utility.yul\":2777:2792   */\n      add\n        /* \"#utility.yul\":2770:2809   */\n      mstore\n        /* \"#utility.yul\":2585:2816   */\n      pop\n      jump\t// out\n        /* \"#utility.yul\":2822:3188   */\n    tag_34:\n        /* \"#utility.yul\":2964:2967   */\n      0x00\n        /* \"#utility.yul\":2985:3052   */\n      tag_62\n        /* \"#utility.yul\":3049:3051   */\n      0x2c\n        /* \"#utility.yul\":3044:3047   */\n      dup4\n        /* \"#utility.yul\":2985:3052   */\n      tag_30\n      jump\t// in\n    tag_62:\n        /* \"#utility.yul\":2978:3052   */\n      swap2\n      pop\n        /* \"#utility.yul\":3061:3154   */\n      tag_63\n        /* \"#utility.yul\":3150:3153   */\n      dup3\n        /* \"#utility.yul\":3061:3154   */\n      tag_33\n      jump\t// in\n    tag_63:\n        /* \"#utility.yul\":3179:3181   */\n      0x40\n        /* \"#utility.yul\":3174:3177   */\n      dup3\n        /* \"#utility.yul\":3170:3182   */\n      add\n        /* \"#utility.yul\":3163:3182   */\n      swap1\n      pop\n        /* \"#utility.yul\":2822:3188   */\n      swap2\n      swap1\n      pop\n      jump\t// out\n        /* \"#utility.yul\":3194:3613   */\n    tag_22:\n        /* \"#utility.yul\":3360:3364   */\n      0x00\n        /* \"#utility.yul\":3398:3400   */\n      0x20\n        /* \"#utility.yul\":3387:3396   */\n      dup3\n        /* \"#utility.yul\":3383:3401   */\n      add\n        /* \"#utility.yul\":3375:3401   */\n      swap1\n      pop\n        /* \"#utility.yul\":3447:3456   */\n      dup2\n        /* \"#utility.yul\":3441:3445   */\n      dup2\n        /* \"#utility.yul\":3437:3457   */\n      sub\n        /* \"#utility.yul\":3433:3434   */\n      0x00\n        /* \"#utility.yul\":3422:3431   */\n      dup4\n        /* \"#utility.yul\":3418:3435   */\n      add\n        /* \"#utility.yul\":3411:3458   */\n      mstore\n        /* \"#utility.yul\":3475:3606   */\n      tag_65\n        /* \"#utility.yul\":3601:3605   */\n      dup2\n        /* \"#utility.yul\":3475:3606   */\n      tag_34\n      jump\t// in\n    tag_65:\n        /* \"#utility.yul\":3467:3606   */\n      swap1\n      pop\n        /* \"#utility.yul\":3194:3613   */\n      swap2\n      swap1\n      pop\n      jump\t// out\n\n    auxdata: 0xa264697066735822122046057c5f6620f37b3ae9750c4f879108d87806ef6c7bc2ce2adae56882df8eb364736f6c634300081a0033\n}\n",
				"bytecode": {
					"linkReferences": {},
					"object": "6080604052348015600e575f80fd5b5061031c8061001c5f395ff3fe608060405234801561000f575f80fd5b5060043610610034575f3560e01c8063a0c6ea1314610038578063cd95d0cc14610068575b5f80fd5b610052600480360381019061004d9190610167565b610098565b60405161005f91906101a1565b60405180910390f35b610082600480360381019061007d9190610167565b6100e4565b60405161008f91906101a1565b60405180910390f35b5f600382116100dc576040517f08c379a00000000000000000000000000000000000000000000000000000000081526004016100d39061023a565b60405180910390fd5b819050919050565b5f60038211610128576040517f08c379a000000000000000000000000000000000000000000000000000000000815260040161011f906102c8565b60405180910390fd5b819050919050565b5f80fd5b5f819050919050565b61014681610134565b8114610150575f80fd5b50565b5f813590506101618161013d565b92915050565b5f6020828403121561017c5761017b610130565b5b5f61018984828501610153565b91505092915050565b61019b81610134565b82525050565b5f6020820190506101b45f830184610192565b92915050565b5f82825260208201905092915050565b7f526576657274206572726f72203a20696e707574206d757374206265206772655f8201527f61746572207468616e2033000000000000000000000000000000000000000000602082015250565b5f610224602b836101ba565b915061022f826101ca565b604082019050919050565b5f6020820190508181035f83015261025181610218565b9050919050565b7f52657175697265206572726f72203a20696e707574206d7573742062652067725f8201527f6561746572207468616e20330000000000000000000000000000000000000000602082015250565b5f6102b2602c836101ba565b91506102bd82610258565b604082019050919050565b5f6020820190508181035f8301526102df816102a6565b905091905056fea264697066735822122046057c5f6620f37b3ae9750c4f879108d87806ef6c7bc2ce2adae56882df8eb364736f6c634300081a0033",
					"opcodes": "PUSH1 0x80 PUSH1 0x40 MSTORE CALLVALUE DUP1 ISZERO PUSH1 0xE JUMPI PUSH0 DUP1 REVERT JUMPDEST POP PUSH2 0x31C DUP1 PUSH2 0x1C PUSH0 CODECOPY PUSH0 RETURN INVALID PUSH1 0x80 PUSH1 0x40 MSTORE CALLVALUE DUP1 ISZERO PUSH2 0xF JUMPI PUSH0 DUP1 REVERT JUMPDEST POP PUSH1 0x4 CALLDATASIZE LT PUSH2 0x34 JUMPI PUSH0 CALLDATALOAD PUSH1 0xE0 SHR DUP1 PUSH4 0xA0C6EA13 EQ PUSH2 0x38 JUMPI DUP1 PUSH4 0xCD95D0CC EQ PUSH2 0x68 JUMPI JUMPDEST PUSH0 DUP1 REVERT JUMPDEST PUSH2 0x52 PUSH1 0x4 DUP1 CALLDATASIZE SUB DUP2 ADD SWAP1 PUSH2 0x4D SWAP2 SWAP1 PUSH2 0x167 JUMP JUMPDEST PUSH2 0x98 JUMP JUMPDEST PUSH1 0x40 MLOAD PUSH2 0x5F SWAP2 SWAP1 PUSH2 0x1A1 JUMP JUMPDEST PUSH1 0x40 MLOAD DUP1 SWAP2 SUB SWAP1 RETURN JUMPDEST PUSH2 0x82 PUSH1 0x4 DUP1 CALLDATASIZE SUB DUP2 ADD SWAP1 PUSH2 0x7D SWAP2 SWAP1 PUSH2 0x167 JUMP JUMPDEST PUSH2 0xE4 JUMP JUMPDEST PUSH1 0x40 MLOAD PUSH2 0x8F SWAP2 SWAP1 PUSH2 0x1A1 JUMP JUMPDEST PUSH1 0x40 MLOAD DUP1 SWAP2 SUB SWAP1 RETURN JUMPDEST PUSH0 PUSH1 0x3 DUP3 GT PUSH2 0xDC JUMPI PUSH1 0x40 MLOAD PUSH32 0x8C379A000000000000000000000000000000000000000000000000000000000 DUP2 MSTORE PUSH1 0x4 ADD PUSH2 0xD3 SWAP1 PUSH2 0x23A JUMP JUMPDEST PUSH1 0x40 MLOAD DUP1 SWAP2 SUB SWAP1 REVERT JUMPDEST DUP2 SWAP1 POP SWAP2 SWAP1 POP JUMP JUMPDEST PUSH0 PUSH1 0x3 DUP3 GT PUSH2 0x128 JUMPI PUSH1 0x40 MLOAD PUSH32 0x8C379A000000000000000000000000000000000000000000000000000000000 DUP2 MSTORE PUSH1 0x4 ADD PUSH2 0x11F SWAP1 PUSH2 0x2C8 JUMP JUMPDEST PUSH1 0x40 MLOAD DUP1 SWAP2 SUB SWAP1 REVERT JUMPDEST DUP2 SWAP1 POP SWAP2 SWAP1 POP JUMP JUMPDEST PUSH0 DUP1 REVERT JUMPDEST PUSH0 DUP2 SWAP1 POP SWAP2 SWAP1 POP JUMP JUMPDEST PUSH2 0x146 DUP2 PUSH2 0x134 JUMP JUMPDEST DUP2 EQ PUSH2 0x150 JUMPI PUSH0 DUP1 REVERT JUMPDEST POP JUMP JUMPDEST PUSH0 DUP2 CALLDATALOAD SWAP1 POP PUSH2 0x161 DUP2 PUSH2 0x13D JUMP JUMPDEST SWAP3 SWAP2 POP POP JUMP JUMPDEST PUSH0 PUSH1 0x20 DUP3 DUP5 SUB SLT ISZERO PUSH2 0x17C JUMPI PUSH2 0x17B PUSH2 0x130 JUMP JUMPDEST JUMPDEST PUSH0 PUSH2 0x189 DUP5 DUP3 DUP6 ADD PUSH2 0x153 JUMP JUMPDEST SWAP2 POP POP SWAP3 SWAP2 POP POP JUMP JUMPDEST PUSH2 0x19B DUP2 PUSH2 0x134 JUMP JUMPDEST DUP3 MSTORE POP POP JUMP JUMPDEST PUSH0 PUSH1 0x20 DUP3 ADD SWAP1 POP PUSH2 0x1B4 PUSH0 DUP4 ADD DUP5 PUSH2 0x192 JUMP JUMPDEST SWAP3 SWAP2 POP POP JUMP JUMPDEST PUSH0 DUP3 DUP3 MSTORE PUSH1 0x20 DUP3 ADD SWAP1 POP SWAP3 SWAP2 POP POP JUMP JUMPDEST PUSH32 0x526576657274206572726F72203A20696E707574206D75737420626520677265 PUSH0 DUP3 ADD MSTORE PUSH32 0x61746572207468616E2033000000000000000000000000000000000000000000 PUSH1 0x20 DUP3 ADD MSTORE POP JUMP JUMPDEST PUSH0 PUSH2 0x224 PUSH1 0x2B DUP4 PUSH2 0x1BA JUMP JUMPDEST SWAP2 POP PUSH2 0x22F DUP3 PUSH2 0x1CA JUMP JUMPDEST PUSH1 0x40 DUP3 ADD SWAP1 POP SWAP2 SWAP1 POP JUMP JUMPDEST PUSH0 PUSH1 0x20 DUP3 ADD SWAP1 POP DUP2 DUP2 SUB PUSH0 DUP4 ADD MSTORE PUSH2 0x251 DUP2 PUSH2 0x218 JUMP JUMPDEST SWAP1 POP SWAP2 SWAP1 POP JUMP JUMPDEST PUSH32 0x52657175697265206572726F72203A20696E707574206D757374206265206772 PUSH0 DUP3 ADD MSTORE PUSH32 0x6561746572207468616E20330000000000000000000000000000000000000000 PUSH1 0x20 DUP3 ADD MSTORE POP JUMP JUMPDEST PUSH0 PUSH2 0x2B2 PUSH1 0x2C DUP4 PUSH2 0x1BA JUMP JUMPDEST SWAP2 POP PUSH2 0x2BD DUP3 PUSH2 0x258 JUMP JUMPDEST PUSH1 0x40 DUP3 ADD SWAP1 POP SWAP2 SWAP1 POP JUMP JUMPDEST PUSH0 PUSH1 0x20 DUP3 ADD SWAP1 POP DUP2 DUP2 SUB PUSH0 DUP4 ADD MSTORE PUSH2 0x2DF DUP2 PUSH2 0x2A6 JUMP JUMPDEST SWAP1 POP SWAP2 SWAP1 POP JUMP INVALID LOG2 PUSH5 0x6970667358 0x22 SLT KECCAK256 CHAINID SDIV PUSH29 0x5F6620F37B3AE9750C4F879108D87806EF6C7BC2CE2ADAE56882DF8EB3 PUSH5 0x736F6C6343 STOP ADDMOD BYTE STOP CALLER "
				},
				"gasEstimates": {
					"creation": {
						"codeDepositCost": "159200",
						"executionCost": "200",
						"totalCost": "159400"
					},
					"external": {
						"runRequire(uint256)": "infinite",
						"runRevert(uint256)": "infinite"
					}
				},
				"methodIdentifiers": {
					"runRequire(uint256)": "cd95d0cc",
					"runRevert(uint256)": "a0c6ea13"
				}
			},
			"storageLayout": {
				"storage": [],
				"types": null
			},
			"userdoc": {
				"kind": "user",
				"methods": {},
				"version": 1
			}
		}
	}
}