{
	"Example/ㅇㅇ.sol": {
		"Khash": {
			"abi": [
				{
					"inputs": [
						{
							"internalType": "uint256",
							"name": "value",
							"type": "uint256"
						},
						{
							"internalType": "bytes32",
							"name": "password",
							"type": "bytes32"
						}
					],
					"name": "hashMe",
					"outputs": [
						{
							"internalType": "bytes32",
							"name": "",
							"type": "bytes32"
						}
					],
					"stateMutability": "pure",
					"type": "function"
				}
			],
			"devdoc": {
				"kind": "dev",
				"methods": {},
				"version": 1
			},
			"evm": {
				"assembly": "    /* \"Example/\\xe3\\x85\\x87\\xe3\\x85\\x87.sol\":69:249  contract Khash {... */\n  mstore(0x40, 0x80)\n  callvalue\n  dup1\n  iszero\n  tag_1\n  jumpi\n  0x00\n  dup1\n  revert\ntag_1:\n  pop\n  dataSize(sub_0)\n  dup1\n  dataOffset(sub_0)\n  0x00\n  codecopy\n  0x00\n  return\nstop\n\nsub_0: assembly {\n        /* \"Example/\\xe3\\x85\\x87\\xe3\\x85\\x87.sol\":69:249  contract Khash {... */\n      mstore(0x40, 0x80)\n      callvalue\n      dup1\n      iszero\n      tag_1\n      jumpi\n      0x00\n      dup1\n      revert\n    tag_1:\n      pop\n      jumpi(tag_2, lt(calldatasize, 0x04))\n      shr(0xe0, calldataload(0x00))\n      dup1\n      0xb3ec48dd\n      eq\n      tag_3\n      jumpi\n    tag_2:\n      0x00\n      dup1\n      revert\n        /* \"Example/\\xe3\\x85\\x87\\xe3\\x85\\x87.sol\":90:247  function hashMe(uint value, bytes32 password) ... */\n    tag_3:\n      tag_4\n      0x04\n      dup1\n      calldatasize\n      sub\n      dup2\n      add\n      swap1\n      tag_5\n      swap2\n      swap1\n      tag_6\n      jump\t// in\n    tag_5:\n      tag_7\n      jump\t// in\n    tag_4:\n      mload(0x40)\n      tag_8\n      swap2\n      swap1\n      tag_9\n      jump\t// in\n    tag_8:\n      mload(0x40)\n      dup1\n      swap2\n      sub\n      swap1\n      return\n    tag_7:\n        /* \"Example/\\xe3\\x85\\x87\\xe3\\x85\\x87.sol\":166:173  bytes32 */\n      0x00\n        /* \"Example/\\xe3\\x85\\x87\\xe3\\x85\\x87.sol\":223:228  value */\n      dup3\n        /* \"Example/\\xe3\\x85\\x87\\xe3\\x85\\x87.sol\":230:238  password */\n      dup3\n        /* \"Example/\\xe3\\x85\\x87\\xe3\\x85\\x87.sol\":206:239  abi.encodePacked(value, password) */\n      add(0x20, mload(0x40))\n      tag_11\n      swap3\n      swap2\n      swap1\n      tag_12\n      jump\t// in\n    tag_11:\n      mload(0x40)\n      0x20\n      dup2\n      dup4\n      sub\n      sub\n      dup2\n      mstore\n      swap1\n      0x40\n      mstore\n        /* \"Example/\\xe3\\x85\\x87\\xe3\\x85\\x87.sol\":196:240  keccak256(abi.encodePacked(value, password)) */\n      dup1\n      mload\n      swap1\n      0x20\n      add\n      keccak256\n        /* \"Example/\\xe3\\x85\\x87\\xe3\\x85\\x87.sol\":189:240  return keccak256(abi.encodePacked(value, password)) */\n      swap1\n      pop\n        /* \"Example/\\xe3\\x85\\x87\\xe3\\x85\\x87.sol\":90:247  function hashMe(uint value, bytes32 password) ... */\n      swap3\n      swap2\n      pop\n      pop\n      jump\t// out\n        /* \"#utility.yul\":88:205   */\n    tag_14:\n        /* \"#utility.yul\":197:198   */\n      0x00\n        /* \"#utility.yul\":194:195   */\n      dup1\n        /* \"#utility.yul\":187:199   */\n      revert\n        /* \"#utility.yul\":334:411   */\n    tag_16:\n        /* \"#utility.yul\":371:378   */\n      0x00\n        /* \"#utility.yul\":400:405   */\n      dup2\n        /* \"#utility.yul\":389:405   */\n      swap1\n      pop\n        /* \"#utility.yul\":334:411   */\n      swap2\n      swap1\n      pop\n      jump\t// out\n        /* \"#utility.yul\":417:539   */\n    tag_17:\n        /* \"#utility.yul\":490:514   */\n      tag_33\n        /* \"#utility.yul\":508:513   */\n      dup2\n        /* \"#utility.yul\":490:514   */\n      tag_16\n      jump\t// in\n    tag_33:\n        /* \"#utility.yul\":483:488   */\n      dup2\n        /* \"#utility.yul\":480:515   */\n      eq\n        /* \"#utility.yul\":470:533   */\n      tag_34\n      jumpi\n        /* \"#utility.yul\":529:530   */\n      0x00\n        /* \"#utility.yul\":526:527   */\n      dup1\n        /* \"#utility.yul\":519:531   */\n      revert\n        /* \"#utility.yul\":470:533   */\n    tag_34:\n        /* \"#utility.yul\":417:539   */\n      pop\n      jump\t// out\n        /* \"#utility.yul\":545:684   */\n    tag_18:\n        /* \"#utility.yul\":591:596   */\n      0x00\n        /* \"#utility.yul\":629:635   */\n      dup2\n        /* \"#utility.yul\":616:636   */\n      calldataload\n        /* \"#utility.yul\":607:636   */\n      swap1\n      pop\n        /* \"#utility.yul\":645:678   */\n      tag_36\n        /* \"#utility.yul\":672:677   */\n      dup2\n        /* \"#utility.yul\":645:678   */\n      tag_17\n      jump\t// in\n    tag_36:\n        /* \"#utility.yul\":545:684   */\n      swap3\n      swap2\n      pop\n      pop\n      jump\t// out\n        /* \"#utility.yul\":690:767   */\n    tag_19:\n        /* \"#utility.yul\":727:734   */\n      0x00\n        /* \"#utility.yul\":756:761   */\n      dup2\n        /* \"#utility.yul\":745:761   */\n      swap1\n      pop\n        /* \"#utility.yul\":690:767   */\n      swap2\n      swap1\n      pop\n      jump\t// out\n        /* \"#utility.yul\":773:895   */\n    tag_20:\n        /* \"#utility.yul\":846:870   */\n      tag_39\n        /* \"#utility.yul\":864:869   */\n      dup2\n        /* \"#utility.yul\":846:870   */\n      tag_19\n      jump\t// in\n    tag_39:\n        /* \"#utility.yul\":839:844   */\n      dup2\n        /* \"#utility.yul\":836:871   */\n      eq\n        /* \"#utility.yul\":826:889   */\n      tag_40\n      jumpi\n        /* \"#utility.yul\":885:886   */\n      0x00\n        /* \"#utility.yul\":882:883   */\n      dup1\n        /* \"#utility.yul\":875:887   */\n      revert\n        /* \"#utility.yul\":826:889   */\n    tag_40:\n        /* \"#utility.yul\":773:895   */\n      pop\n      jump\t// out\n        /* \"#utility.yul\":901:1040   */\n    tag_21:\n        /* \"#utility.yul\":947:952   */\n      0x00\n        /* \"#utility.yul\":985:991   */\n      dup2\n        /* \"#utility.yul\":972:992   */\n      calldataload\n        /* \"#utility.yul\":963:992   */\n      swap1\n      pop\n        /* \"#utility.yul\":1001:1034   */\n      tag_42\n        /* \"#utility.yul\":1028:1033   */\n      dup2\n        /* \"#utility.yul\":1001:1034   */\n      tag_20\n      jump\t// in\n    tag_42:\n        /* \"#utility.yul\":901:1040   */\n      swap3\n      swap2\n      pop\n      pop\n      jump\t// out\n        /* \"#utility.yul\":1046:1520   */\n    tag_6:\n        /* \"#utility.yul\":1114:1120   */\n      0x00\n        /* \"#utility.yul\":1122:1128   */\n      dup1\n        /* \"#utility.yul\":1171:1173   */\n      0x40\n        /* \"#utility.yul\":1159:1168   */\n      dup4\n        /* \"#utility.yul\":1150:1157   */\n      dup6\n        /* \"#utility.yul\":1146:1169   */\n      sub\n        /* \"#utility.yul\":1142:1174   */\n      slt\n        /* \"#utility.yul\":1139:1258   */\n      iszero\n      tag_44\n      jumpi\n        /* \"#utility.yul\":1177:1256   */\n      tag_45\n      tag_14\n      jump\t// in\n    tag_45:\n        /* \"#utility.yul\":1139:1258   */\n    tag_44:\n        /* \"#utility.yul\":1297:1298   */\n      0x00\n        /* \"#utility.yul\":1322:1375   */\n      tag_46\n        /* \"#utility.yul\":1367:1374   */\n      dup6\n        /* \"#utility.yul\":1358:1364   */\n      dup3\n        /* \"#utility.yul\":1347:1356   */\n      dup7\n        /* \"#utility.yul\":1343:1365   */\n      add\n        /* \"#utility.yul\":1322:1375   */\n      tag_18\n      jump\t// in\n    tag_46:\n        /* \"#utility.yul\":1312:1375   */\n      swap3\n      pop\n        /* \"#utility.yul\":1268:1385   */\n      pop\n        /* \"#utility.yul\":1424:1426   */\n      0x20\n        /* \"#utility.yul\":1450:1503   */\n      tag_47\n        /* \"#utility.yul\":1495:1502   */\n      dup6\n        /* \"#utility.yul\":1486:1492   */\n      dup3\n        /* \"#utility.yul\":1475:1484   */\n      dup7\n        /* \"#utility.yul\":1471:1493   */\n      add\n        /* \"#utility.yul\":1450:1503   */\n      tag_21\n      jump\t// in\n    tag_47:\n        /* \"#utility.yul\":1440:1503   */\n      swap2\n      pop\n        /* \"#utility.yul\":1395:1513   */\n      pop\n        /* \"#utility.yul\":1046:1520   */\n      swap3\n      pop\n      swap3\n      swap1\n      pop\n      jump\t// out\n        /* \"#utility.yul\":1526:1644   */\n    tag_22:\n        /* \"#utility.yul\":1613:1637   */\n      tag_49\n        /* \"#utility.yul\":1631:1636   */\n      dup2\n        /* \"#utility.yul\":1613:1637   */\n      tag_19\n      jump\t// in\n    tag_49:\n        /* \"#utility.yul\":1608:1611   */\n      dup3\n        /* \"#utility.yul\":1601:1638   */\n      mstore\n        /* \"#utility.yul\":1526:1644   */\n      pop\n      pop\n      jump\t// out\n        /* \"#utility.yul\":1650:1872   */\n    tag_9:\n        /* \"#utility.yul\":1743:1747   */\n      0x00\n        /* \"#utility.yul\":1781:1783   */\n      0x20\n        /* \"#utility.yul\":1770:1779   */\n      dup3\n        /* \"#utility.yul\":1766:1784   */\n      add\n        /* \"#utility.yul\":1758:1784   */\n      swap1\n      pop\n        /* \"#utility.yul\":1794:1865   */\n      tag_51\n        /* \"#utility.yul\":1862:1863   */\n      0x00\n        /* \"#utility.yul\":1851:1860   */\n      dup4\n        /* \"#utility.yul\":1847:1864   */\n      add\n        /* \"#utility.yul\":1838:1844   */\n      dup5\n        /* \"#utility.yul\":1794:1865   */\n      tag_22\n      jump\t// in\n    tag_51:\n        /* \"#utility.yul\":1650:1872   */\n      swap3\n      swap2\n      pop\n      pop\n      jump\t// out\n        /* \"#utility.yul\":1878:1957   */\n    tag_23:\n        /* \"#utility.yul\":1917:1924   */\n      0x00\n        /* \"#utility.yul\":1946:1951   */\n      dup2\n        /* \"#utility.yul\":1935:1951   */\n      swap1\n      pop\n        /* \"#utility.yul\":1878:1957   */\n      swap2\n      swap1\n      pop\n      jump\t// out\n        /* \"#utility.yul\":1963:2120   */\n    tag_24:\n        /* \"#utility.yul\":2068:2113   */\n      tag_54\n        /* \"#utility.yul\":2088:2112   */\n      tag_55\n        /* \"#utility.yul\":2106:2111   */\n      dup3\n        /* \"#utility.yul\":2088:2112   */\n      tag_16\n      jump\t// in\n    tag_55:\n        /* \"#utility.yul\":2068:2113   */\n      tag_23\n      jump\t// in\n    tag_54:\n        /* \"#utility.yul\":2063:2066   */\n      dup3\n        /* \"#utility.yul\":2056:2114   */\n      mstore\n        /* \"#utility.yul\":1963:2120   */\n      pop\n      pop\n      jump\t// out\n        /* \"#utility.yul\":2126:2205   */\n    tag_25:\n        /* \"#utility.yul\":2165:2172   */\n      0x00\n        /* \"#utility.yul\":2194:2199   */\n      dup2\n        /* \"#utility.yul\":2183:2199   */\n      swap1\n      pop\n        /* \"#utility.yul\":2126:2205   */\n      swap2\n      swap1\n      pop\n      jump\t// out\n        /* \"#utility.yul\":2211:2368   */\n    tag_26:\n        /* \"#utility.yul\":2316:2361   */\n      tag_58\n        /* \"#utility.yul\":2336:2360   */\n      tag_59\n        /* \"#utility.yul\":2354:2359   */\n      dup3\n        /* \"#utility.yul\":2336:2360   */\n      tag_19\n      jump\t// in\n    tag_59:\n        /* \"#utility.yul\":2316:2361   */\n      tag_25\n      jump\t// in\n    tag_58:\n        /* \"#utility.yul\":2311:2314   */\n      dup3\n        /* \"#utility.yul\":2304:2362   */\n      mstore\n        /* \"#utility.yul\":2211:2368   */\n      pop\n      pop\n      jump\t// out\n        /* \"#utility.yul\":2374:2771   */\n    tag_12:\n        /* \"#utility.yul\":2514:2517   */\n      0x00\n        /* \"#utility.yul\":2529:2604   */\n      tag_61\n        /* \"#utility.yul\":2600:2603   */\n      dup3\n        /* \"#utility.yul\":2591:2597   */\n      dup6\n        /* \"#utility.yul\":2529:2604   */\n      tag_24\n      jump\t// in\n    tag_61:\n        /* \"#utility.yul\":2629:2631   */\n      0x20\n        /* \"#utility.yul\":2624:2627   */\n      dup3\n        /* \"#utility.yul\":2620:2632   */\n      add\n        /* \"#utility.yul\":2613:2632   */\n      swap2\n      pop\n        /* \"#utility.yul\":2642:2717   */\n      tag_62\n        /* \"#utility.yul\":2713:2716   */\n      dup3\n        /* \"#utility.yul\":2704:2710   */\n      dup5\n        /* \"#utility.yul\":2642:2717   */\n      tag_26\n      jump\t// in\n    tag_62:\n        /* \"#utility.yul\":2742:2744   */\n      0x20\n        /* \"#utility.yul\":2737:2740   */\n      dup3\n        /* \"#utility.yul\":2733:2745   */\n      add\n        /* \"#utility.yul\":2726:2745   */\n      swap2\n      pop\n        /* \"#utility.yul\":2762:2765   */\n      dup2\n        /* \"#utility.yul\":2755:2765   */\n      swap1\n      pop\n        /* \"#utility.yul\":2374:2771   */\n      swap4\n      swap3\n      pop\n      pop\n      pop\n      jump\t// out\n\n    auxdata: 0xa264697066735822122021830808c1b62d78cb5be2bce36f5498125ae5897b7335b42686452f4222a6de64736f6c634300081a0033\n}\n",
				"bytecode": {
					"linkReferences": {},
					"object": "6080604052348015600e575f80fd5b506102008061001c5f395ff3fe608060405234801561000f575f80fd5b5060043610610029575f3560e01c8063b3ec48dd1461002d575b5f80fd5b610047600480360381019061004291906100f9565b61005d565b6040516100549190610146565b60405180910390f35b5f828260405160200161007192919061019f565b60405160208183030381529060405280519060200120905092915050565b5f80fd5b5f819050919050565b6100a581610093565b81146100af575f80fd5b50565b5f813590506100c08161009c565b92915050565b5f819050919050565b6100d8816100c6565b81146100e2575f80fd5b50565b5f813590506100f3816100cf565b92915050565b5f806040838503121561010f5761010e61008f565b5b5f61011c858286016100b2565b925050602061012d858286016100e5565b9150509250929050565b610140816100c6565b82525050565b5f6020820190506101595f830184610137565b92915050565b5f819050919050565b61017961017482610093565b61015f565b82525050565b5f819050919050565b610199610194826100c6565b61017f565b82525050565b5f6101aa8285610168565b6020820191506101ba8284610188565b602082019150819050939250505056fea264697066735822122021830808c1b62d78cb5be2bce36f5498125ae5897b7335b42686452f4222a6de64736f6c634300081a0033",
					"opcodes": "PUSH1 0x80 PUSH1 0x40 MSTORE CALLVALUE DUP1 ISZERO PUSH1 0xE JUMPI PUSH0 DUP1 REVERT JUMPDEST POP PUSH2 0x200 DUP1 PUSH2 0x1C PUSH0 CODECOPY PUSH0 RETURN INVALID PUSH1 0x80 PUSH1 0x40 MSTORE CALLVALUE DUP1 ISZERO PUSH2 0xF JUMPI PUSH0 DUP1 REVERT JUMPDEST POP PUSH1 0x4 CALLDATASIZE LT PUSH2 0x29 JUMPI PUSH0 CALLDATALOAD PUSH1 0xE0 SHR DUP1 PUSH4 0xB3EC48DD EQ PUSH2 0x2D JUMPI JUMPDEST PUSH0 DUP1 REVERT JUMPDEST PUSH2 0x47 PUSH1 0x4 DUP1 CALLDATASIZE SUB DUP2 ADD SWAP1 PUSH2 0x42 SWAP2 SWAP1 PUSH2 0xF9 JUMP JUMPDEST PUSH2 0x5D JUMP JUMPDEST PUSH1 0x40 MLOAD PUSH2 0x54 SWAP2 SWAP1 PUSH2 0x146 JUMP JUMPDEST PUSH1 0x40 MLOAD DUP1 SWAP2 SUB SWAP1 RETURN JUMPDEST PUSH0 DUP3 DUP3 PUSH1 0x40 MLOAD PUSH1 0x20 ADD PUSH2 0x71 SWAP3 SWAP2 SWAP1 PUSH2 0x19F JUMP JUMPDEST PUSH1 0x40 MLOAD PUSH1 0x20 DUP2 DUP4 SUB SUB DUP2 MSTORE SWAP1 PUSH1 0x40 MSTORE DUP1 MLOAD SWAP1 PUSH1 0x20 ADD KECCAK256 SWAP1 POP SWAP3 SWAP2 POP POP JUMP JUMPDEST PUSH0 DUP1 REVERT JUMPDEST PUSH0 DUP2 SWAP1 POP SWAP2 SWAP1 POP JUMP JUMPDEST PUSH2 0xA5 DUP2 PUSH2 0x93 JUMP JUMPDEST DUP2 EQ PUSH2 0xAF JUMPI PUSH0 DUP1 REVERT JUMPDEST POP JUMP JUMPDEST PUSH0 DUP2 CALLDATALOAD SWAP1 POP PUSH2 0xC0 DUP2 PUSH2 0x9C JUMP JUMPDEST SWAP3 SWAP2 POP POP JUMP JUMPDEST PUSH0 DUP2 SWAP1 POP SWAP2 SWAP1 POP JUMP JUMPDEST PUSH2 0xD8 DUP2 PUSH2 0xC6 JUMP JUMPDEST DUP2 EQ PUSH2 0xE2 JUMPI PUSH0 DUP1 REVERT JUMPDEST POP JUMP JUMPDEST PUSH0 DUP2 CALLDATALOAD SWAP1 POP PUSH2 0xF3 DUP2 PUSH2 0xCF JUMP JUMPDEST SWAP3 SWAP2 POP POP JUMP JUMPDEST PUSH0 DUP1 PUSH1 0x40 DUP4 DUP6 SUB SLT ISZERO PUSH2 0x10F JUMPI PUSH2 0x10E PUSH2 0x8F JUMP JUMPDEST JUMPDEST PUSH0 PUSH2 0x11C DUP6 DUP3 DUP7 ADD PUSH2 0xB2 JUMP JUMPDEST SWAP3 POP POP PUSH1 0x20 PUSH2 0x12D DUP6 DUP3 DUP7 ADD PUSH2 0xE5 JUMP JUMPDEST SWAP2 POP POP SWAP3 POP SWAP3 SWAP1 POP JUMP JUMPDEST PUSH2 0x140 DUP2 PUSH2 0xC6 JUMP JUMPDEST DUP3 MSTORE POP POP JUMP JUMPDEST PUSH0 PUSH1 0x20 DUP3 ADD SWAP1 POP PUSH2 0x159 PUSH0 DUP4 ADD DUP5 PUSH2 0x137 JUMP JUMPDEST SWAP3 SWAP2 POP POP JUMP JUMPDEST PUSH0 DUP2 SWAP1 POP SWAP2 SWAP1 POP JUMP JUMPDEST PUSH2 0x179 PUSH2 0x174 DUP3 PUSH2 0x93 JUMP JUMPDEST PUSH2 0x15F JUMP JUMPDEST DUP3 MSTORE POP POP JUMP JUMPDEST PUSH0 DUP2 SWAP1 POP SWAP2 SWAP1 POP JUMP JUMPDEST PUSH2 0x199 PUSH2 0x194 DUP3 PUSH2 0xC6 JUMP JUMPDEST PUSH2 0x17F JUMP JUMPDEST DUP3 MSTORE POP POP JUMP JUMPDEST PUSH0 PUSH2 0x1AA DUP3 DUP6 PUSH2 0x168 JUMP JUMPDEST PUSH1 0x20 DUP3 ADD SWAP2 POP PUSH2 0x1BA DUP3 DUP5 PUSH2 0x188 JUMP JUMPDEST PUSH1 0x20 DUP3 ADD SWAP2 POP DUP2 SWAP1 POP SWAP4 SWAP3 POP POP POP JUMP INVALID LOG2 PUSH5 0x6970667358 0x22 SLT KECCAK256 0x21 DUP4 ADDMOD ADDMOD 0xC1 0xB6 0x2D PUSH25 0xCB5BE2BCE36F5498125AE5897B7335B42686452F4222A6DE64 PUSH20 0x6F6C634300081A00330000000000000000000000 "
				},
				"gasEstimates": {
					"creation": {
						"codeDepositCost": "102400",
						"executionCost": "145",
						"totalCost": "102545"
					},
					"external": {
						"hashMe(uint256,bytes32)": "infinite"
					}
				},
				"methodIdentifiers": {
					"hashMe(uint256,bytes32)": "b3ec48dd"
				}
			},
			"storageLayout": {
				"storage": [],
				"types": null
			},
			"userdoc": {
				"kind": "user",
				"methods": {},
				"version": 1
			}
		}
	}
}