{
	"Example/ㅇㅇ.sol": {
		"BlindAuction": {
			"abi": [
				{
					"inputs": [],
					"stateMutability": "nonpayable",
					"type": "constructor"
				},
				{
					"anonymous": false,
					"inputs": [
						{
							"indexed": false,
							"internalType": "address",
							"name": "winner",
							"type": "address"
						},
						{
							"indexed": false,
							"internalType": "uint256",
							"name": "highestBid",
							"type": "uint256"
						}
					],
					"name": "AuctionEnded",
					"type": "event"
				},
				{
					"anonymous": false,
					"inputs": [],
					"name": "AuctionInit",
					"type": "event"
				},
				{
					"anonymous": false,
					"inputs": [
						{
							"indexed": false,
							"internalType": "address",
							"name": "bidder",
							"type": "address"
						},
						{
							"indexed": false,
							"internalType": "uint256",
							"name": "refundAmount",
							"type": "uint256"
						}
					],
					"name": "BidCancelled",
					"type": "event"
				},
				{
					"anonymous": false,
					"inputs": [],
					"name": "BiddingStarted",
					"type": "event"
				},
				{
					"anonymous": false,
					"inputs": [],
					"name": "RevealStarted",
					"type": "event"
				},
				{
					"inputs": [],
					"name": "advancePhase",
					"outputs": [],
					"stateMutability": "nonpayable",
					"type": "function"
				},
				{
					"inputs": [],
					"name": "auctionEnd",
					"outputs": [],
					"stateMutability": "nonpayable",
					"type": "function"
				},
				{
					"inputs": [],
					"name": "beneficiary",
					"outputs": [
						{
							"internalType": "address payable",
							"name": "",
							"type": "address"
						}
					],
					"stateMutability": "view",
					"type": "function"
				},
				{
					"inputs": [
						{
							"internalType": "bytes32",
							"name": "_blindedBid",
							"type": "bytes32"
						}
					],
					"name": "bid",
					"outputs": [],
					"stateMutability": "payable",
					"type": "function"
				},
				{
					"inputs": [
						{
							"internalType": "address",
							"name": "",
							"type": "address"
						}
					],
					"name": "bids",
					"outputs": [
						{
							"internalType": "bytes32",
							"name": "blindedBid",
							"type": "bytes32"
						},
						{
							"internalType": "uint256",
							"name": "deposit",
							"type": "uint256"
						}
					],
					"stateMutability": "view",
					"type": "function"
				},
				{
					"inputs": [],
					"name": "cancelBid",
					"outputs": [],
					"stateMutability": "nonpayable",
					"type": "function"
				},
				{
					"inputs": [],
					"name": "checkRefund",
					"outputs": [
						{
							"internalType": "uint256",
							"name": "",
							"type": "uint256"
						}
					],
					"stateMutability": "view",
					"type": "function"
				},
				{
					"inputs": [],
					"name": "currentPhase",
					"outputs": [
						{
							"internalType": "enum BlindAuction.Phase",
							"name": "",
							"type": "uint8"
						}
					],
					"stateMutability": "view",
					"type": "function"
				},
				{
					"inputs": [],
					"name": "highestBid",
					"outputs": [
						{
							"internalType": "uint256",
							"name": "",
							"type": "uint256"
						}
					],
					"stateMutability": "view",
					"type": "function"
				},
				{
					"inputs": [],
					"name": "highestBidder",
					"outputs": [
						{
							"internalType": "address",
							"name": "",
							"type": "address"
						}
					],
					"stateMutability": "view",
					"type": "function"
				},
				{
					"inputs": [],
					"name": "khashContract",
					"outputs": [
						{
							"internalType": "contract Khash",
							"name": "",
							"type": "address"
						}
					],
					"stateMutability": "view",
					"type": "function"
				},
				{
					"inputs": [],
					"name": "minimumBidIncrement",
					"outputs": [
						{
							"internalType": "uint256",
							"name": "",
							"type": "uint256"
						}
					],
					"stateMutability": "view",
					"type": "function"
				},
				{
					"inputs": [
						{
							"internalType": "uint256",
							"name": "_value",
							"type": "uint256"
						},
						{
							"internalType": "bytes32",
							"name": "_password",
							"type": "bytes32"
						}
					],
					"name": "reveal",
					"outputs": [],
					"stateMutability": "payable",
					"type": "function"
				},
				{
					"inputs": [],
					"name": "withdraw",
					"outputs": [],
					"stateMutability": "nonpayable",
					"type": "function"
				}
			],
			"devdoc": {
				"kind": "dev",
				"methods": {},
				"version": 1
			},
			"evm": {
				"assembly": "    /* \"Example/\\xe3\\x85\\x87\\xe3\\x85\\x87.sol\":267:4438  contract BlindAuction {... */\n  mstore(0x40, 0x80)\n    /* \"Example/\\xe3\\x85\\x87\\xe3\\x85\\x87.sol\":562:572  Phase.Init */\n  0x00\n    /* \"Example/\\xe3\\x85\\x87\\xe3\\x85\\x87.sol\":534:572  Phase public currentPhase = Phase.Init */\n  0x01\n  exp(0x0100, 0x14)\n  dup2\n  sload\n  dup2\n  0xff\n  mul\n  not\n  and\n  swap1\n  dup4\n  0x03\n  dup2\n  gt\n  iszero\n  tag_1\n  jumpi\n  tag_2\n  tag_3\n  jump\t// in\ntag_2:\ntag_1:\n  mul\n  or\n  swap1\n  sstore\n  pop\n    /* \"Example/\\xe3\\x85\\x87\\xe3\\x85\\x87.sol\":859:867  10 ether */\n  0x8ac7230489e80000\n    /* \"Example/\\xe3\\x85\\x87\\xe3\\x85\\x87.sol\":825:867  uint public minimumBidIncrement = 10 ether */\n  0x06\n  sstore\n    /* \"Example/\\xe3\\x85\\x87\\xe3\\x85\\x87.sol\":1379:1509  constructor() {... */\n  callvalue\n  dup1\n  iszero\n  tag_4\n  jumpi\n  0x00\n  dup1\n  revert\ntag_4:\n  pop\n    /* \"Example/\\xe3\\x85\\x87\\xe3\\x85\\x87.sol\":1425:1435  msg.sender */\n  caller\n    /* \"Example/\\xe3\\x85\\x87\\xe3\\x85\\x87.sol\":1403:1414  beneficiary */\n  0x01\n  0x00\n    /* \"Example/\\xe3\\x85\\x87\\xe3\\x85\\x87.sol\":1403:1436  beneficiary = payable(msg.sender) */\n  0x0100\n  exp\n  dup2\n  sload\n  dup2\n  0xffffffffffffffffffffffffffffffffffffffff\n  mul\n  not\n  and\n  swap1\n  dup4\n  0xffffffffffffffffffffffffffffffffffffffff\n  and\n  mul\n  or\n  swap1\n  sstore\n  pop\n    /* \"Example/\\xe3\\x85\\x87\\xe3\\x85\\x87.sol\":1462:1473  new Khash() */\n  mload(0x40)\n  tag_7\n  swap1\n  tag_8\n  jump\t// in\ntag_7:\n  mload(0x40)\n  dup1\n  swap2\n  sub\n  swap1\n  0x00\n  create\n  dup1\n  iszero\n  dup1\n  iszero\n  tag_9\n  jumpi\n  returndatasize\n  0x00\n  dup1\n  returndatacopy\n  revert(0x00, returndatasize)\ntag_9:\n  pop\n    /* \"Example/\\xe3\\x85\\x87\\xe3\\x85\\x87.sol\":1446:1459  khashContract */\n  0x00\n  dup1\n    /* \"Example/\\xe3\\x85\\x87\\xe3\\x85\\x87.sol\":1446:1473  khashContract = new Khash() */\n  0x0100\n  exp\n  dup2\n  sload\n  dup2\n  0xffffffffffffffffffffffffffffffffffffffff\n  mul\n  not\n  and\n  swap1\n  dup4\n  0xffffffffffffffffffffffffffffffffffffffff\n  and\n  mul\n  or\n  swap1\n  sstore\n  pop\n    /* \"Example/\\xe3\\x85\\x87\\xe3\\x85\\x87.sol\":267:4438  contract BlindAuction {... */\n  jump(tag_10)\ntag_8:\n  dataSize(sub_1)\n  dup1\n  dataOffset(sub_1)\n  dup4\n  codecopy\n  add\n  swap1\n  jump\t// out\n    /* \"#utility.yul\":7:187   */\ntag_3:\n    /* \"#utility.yul\":55:132   */\n  0x4e487b7100000000000000000000000000000000000000000000000000000000\n    /* \"#utility.yul\":52:53   */\n  0x00\n    /* \"#utility.yul\":45:133   */\n  mstore\n    /* \"#utility.yul\":152:156   */\n  0x21\n    /* \"#utility.yul\":149:150   */\n  0x04\n    /* \"#utility.yul\":142:157   */\n  mstore\n    /* \"#utility.yul\":176:180   */\n  0x24\n    /* \"#utility.yul\":173:174   */\n  0x00\n    /* \"#utility.yul\":166:181   */\n  revert\n    /* \"Example/\\xe3\\x85\\x87\\xe3\\x85\\x87.sol\":267:4438  contract BlindAuction {... */\ntag_10:\n  dataSize(sub_0)\n  dup1\n  dataOffset(sub_0)\n  0x00\n  codecopy\n  0x00\n  return\nstop\n\nsub_0: assembly {\n        /* \"Example/\\xe3\\x85\\x87\\xe3\\x85\\x87.sol\":267:4438  contract BlindAuction {... */\n      mstore(0x40, 0x80)\n      jumpi(tag_1, lt(calldatasize, 0x04))\n      shr(0xe0, calldataload(0x00))\n      dup1\n      0x91f90157\n      gt\n      tag_16\n      jumpi\n      dup1\n      0x957bb1e0\n      gt\n      tag_17\n      jumpi\n      dup1\n      0x957bb1e0\n      eq\n      tag_12\n      jumpi\n      dup1\n      0xbe25a718\n      eq\n      tag_13\n      jumpi\n      dup1\n      0xd57bde79\n      eq\n      tag_14\n      jumpi\n      dup1\n      0xec89b5e0\n      eq\n      tag_15\n      jumpi\n      jump(tag_1)\n    tag_17:\n      dup1\n      0x91f90157\n      eq\n      tag_9\n      jumpi\n      dup1\n      0x9435c887\n      eq\n      tag_10\n      jumpi\n      dup1\n      0x94c246d5\n      eq\n      tag_11\n      jumpi\n      jump(tag_1)\n    tag_16:\n      dup1\n      0x3ccfd60b\n      gt\n      tag_18\n      jumpi\n      dup1\n      0x3ccfd60b\n      eq\n      tag_5\n      jumpi\n      dup1\n      0x4036778f\n      eq\n      tag_6\n      jumpi\n      dup1\n      0x62ea82db\n      eq\n      tag_7\n      jumpi\n      dup1\n      0x63142015\n      eq\n      tag_8\n      jumpi\n      jump(tag_1)\n    tag_18:\n      dup1\n      0x055ad42e\n      eq\n      tag_2\n      jumpi\n      dup1\n      0x2a24f46c\n      eq\n      tag_3\n      jumpi\n      dup1\n      0x38af3eed\n      eq\n      tag_4\n      jumpi\n    tag_1:\n      0x00\n      dup1\n      revert\n        /* \"Example/\\xe3\\x85\\x87\\xe3\\x85\\x87.sol\":534:572  Phase public currentPhase = Phase.Init */\n    tag_2:\n      callvalue\n      dup1\n      iszero\n      tag_19\n      jumpi\n      0x00\n      dup1\n      revert\n    tag_19:\n      pop\n      tag_20\n      tag_21\n      jump\t// in\n    tag_20:\n      mload(0x40)\n      tag_22\n      swap2\n      swap1\n      tag_23\n      jump\t// in\n    tag_22:\n      mload(0x40)\n      dup1\n      swap2\n      sub\n      swap1\n      return\n        /* \"Example/\\xe3\\x85\\x87\\xe3\\x85\\x87.sol\":4193:4420  function auctionEnd() public onlyBeneficiary() inPhase(Phase.Done) {... */\n    tag_3:\n      callvalue\n      dup1\n      iszero\n      tag_24\n      jumpi\n      0x00\n      dup1\n      revert\n    tag_24:\n      pop\n      tag_25\n      tag_26\n      jump\t// in\n    tag_25:\n      stop\n        /* \"Example/\\xe3\\x85\\x87\\xe3\\x85\\x87.sol\":494:528  address payable public beneficiary */\n    tag_4:\n      callvalue\n      dup1\n      iszero\n      tag_27\n      jumpi\n      0x00\n      dup1\n      revert\n    tag_27:\n      pop\n      tag_28\n      tag_29\n      jump\t// in\n    tag_28:\n      mload(0x40)\n      tag_30\n      swap2\n      swap1\n      tag_31\n      jump\t// in\n    tag_30:\n      mload(0x40)\n      dup1\n      swap2\n      sub\n      swap1\n      return\n        /* \"Example/\\xe3\\x85\\x87\\xe3\\x85\\x87.sol\":3833:4047  function withdraw() public {... */\n    tag_5:\n      callvalue\n      dup1\n      iszero\n      tag_32\n      jumpi\n      0x00\n      dup1\n      revert\n    tag_32:\n      pop\n      tag_33\n      tag_34\n      jump\t// in\n    tag_33:\n      stop\n        /* \"Example/\\xe3\\x85\\x87\\xe3\\x85\\x87.sol\":2799:3804  function reveal(uint _value, bytes32 _password) public payable inPhase(Phase.Reveal) {... */\n    tag_6:\n      tag_35\n      0x04\n      dup1\n      calldatasize\n      sub\n      dup2\n      add\n      swap1\n      tag_36\n      swap2\n      swap1\n      tag_37\n      jump\t// in\n    tag_36:\n      tag_38\n      jump\t// in\n    tag_35:\n      stop\n        /* \"Example/\\xe3\\x85\\x87\\xe3\\x85\\x87.sol\":602:637  mapping(address => Bid) public bids */\n    tag_7:\n      callvalue\n      dup1\n      iszero\n      tag_39\n      jumpi\n      0x00\n      dup1\n      revert\n    tag_39:\n      pop\n      tag_40\n      0x04\n      dup1\n      calldatasize\n      sub\n      dup2\n      add\n      swap1\n      tag_41\n      swap2\n      swap1\n      tag_42\n      jump\t// in\n    tag_41:\n      tag_43\n      jump\t// in\n    tag_40:\n      mload(0x40)\n      tag_44\n      swap3\n      swap2\n      swap1\n      tag_45\n      jump\t// in\n    tag_44:\n      mload(0x40)\n      dup1\n      swap2\n      sub\n      swap1\n      return\n        /* \"Example/\\xe3\\x85\\x87\\xe3\\x85\\x87.sol\":295:321  Khash public khashContract */\n    tag_8:\n      callvalue\n      dup1\n      iszero\n      tag_46\n      jumpi\n      0x00\n      dup1\n      revert\n    tag_46:\n      pop\n      tag_47\n      tag_48\n      jump\t// in\n    tag_47:\n      mload(0x40)\n      tag_49\n      swap2\n      swap1\n      tag_50\n      jump\t// in\n    tag_49:\n      mload(0x40)\n      dup1\n      swap2\n      sub\n      swap1\n      return\n        /* \"Example/\\xe3\\x85\\x87\\xe3\\x85\\x87.sol\":725:753  address public highestBidder */\n    tag_9:\n      callvalue\n      dup1\n      iszero\n      tag_51\n      jumpi\n      0x00\n      dup1\n      revert\n    tag_51:\n      pop\n      tag_52\n      tag_53\n      jump\t// in\n    tag_52:\n      mload(0x40)\n      tag_54\n      swap2\n      swap1\n      tag_55\n      jump\t// in\n    tag_54:\n      mload(0x40)\n      dup1\n      swap2\n      sub\n      swap1\n      return\n        /* \"Example/\\xe3\\x85\\x87\\xe3\\x85\\x87.sol\":2398:2774  function cancelBid() public inPhase(Phase.Bidding) {... */\n    tag_10:\n      callvalue\n      dup1\n      iszero\n      tag_56\n      jumpi\n      0x00\n      dup1\n      revert\n    tag_56:\n      pop\n      tag_57\n      tag_58\n      jump\t// in\n    tag_57:\n      stop\n        /* \"Example/\\xe3\\x85\\x87\\xe3\\x85\\x87.sol\":4069:4168  function checkRefund() public view returns(uint) {... */\n    tag_11:\n      callvalue\n      dup1\n      iszero\n      tag_59\n      jumpi\n      0x00\n      dup1\n      revert\n    tag_59:\n      pop\n      tag_60\n      tag_61\n      jump\t// in\n    tag_60:\n      mload(0x40)\n      tag_62\n      swap2\n      swap1\n      tag_63\n      jump\t// in\n    tag_62:\n      mload(0x40)\n      dup1\n      swap2\n      sub\n      swap1\n      return\n        /* \"Example/\\xe3\\x85\\x87\\xe3\\x85\\x87.sol\":2134:2344  function bid(bytes32 _blindedBid) ... */\n    tag_12:\n      tag_64\n      0x04\n      dup1\n      calldatasize\n      sub\n      dup2\n      add\n      swap1\n      tag_65\n      swap2\n      swap1\n      tag_66\n      jump\t// in\n    tag_65:\n      tag_67\n      jump\t// in\n    tag_64:\n      stop\n        /* \"Example/\\xe3\\x85\\x87\\xe3\\x85\\x87.sol\":1548:2105  function advancePhase() public onlyBeneficiary() {... */\n    tag_13:\n      callvalue\n      dup1\n      iszero\n      tag_68\n      jumpi\n      0x00\n      dup1\n      revert\n    tag_68:\n      pop\n      tag_69\n      tag_70\n      jump\t// in\n    tag_69:\n      stop\n        /* \"Example/\\xe3\\x85\\x87\\xe3\\x85\\x87.sol\":778:800  uint public highestBid */\n    tag_14:\n      callvalue\n      dup1\n      iszero\n      tag_71\n      jumpi\n      0x00\n      dup1\n      revert\n    tag_71:\n      pop\n      tag_72\n      tag_73\n      jump\t// in\n    tag_72:\n      mload(0x40)\n      tag_74\n      swap2\n      swap1\n      tag_63\n      jump\t// in\n    tag_74:\n      mload(0x40)\n      dup1\n      swap2\n      sub\n      swap1\n      return\n        /* \"Example/\\xe3\\x85\\x87\\xe3\\x85\\x87.sol\":825:867  uint public minimumBidIncrement = 10 ether */\n    tag_15:\n      callvalue\n      dup1\n      iszero\n      tag_75\n      jumpi\n      0x00\n      dup1\n      revert\n    tag_75:\n      pop\n      tag_76\n      tag_77\n      jump\t// in\n    tag_76:\n      mload(0x40)\n      tag_78\n      swap2\n      swap1\n      tag_63\n      jump\t// in\n    tag_78:\n      mload(0x40)\n      dup1\n      swap2\n      sub\n      swap1\n      return\n        /* \"Example/\\xe3\\x85\\x87\\xe3\\x85\\x87.sol\":534:572  Phase public currentPhase = Phase.Init */\n    tag_21:\n      0x01\n      0x14\n      swap1\n      sload\n      swap1\n      0x0100\n      exp\n      swap1\n      div\n      0xff\n      and\n      dup2\n      jump\t// out\n        /* \"Example/\\xe3\\x85\\x87\\xe3\\x85\\x87.sol\":4193:4420  function auctionEnd() public onlyBeneficiary() inPhase(Phase.Done) {... */\n    tag_26:\n        /* \"Example/\\xe3\\x85\\x87\\xe3\\x85\\x87.sol\":1161:1172  beneficiary */\n      0x01\n      0x00\n      swap1\n      sload\n      swap1\n      0x0100\n      exp\n      swap1\n      div\n      0xffffffffffffffffffffffffffffffffffffffff\n      and\n        /* \"Example/\\xe3\\x85\\x87\\xe3\\x85\\x87.sol\":1147:1172  msg.sender == beneficiary */\n      0xffffffffffffffffffffffffffffffffffffffff\n      and\n        /* \"Example/\\xe3\\x85\\x87\\xe3\\x85\\x87.sol\":1147:1157  msg.sender */\n      caller\n        /* \"Example/\\xe3\\x85\\x87\\xe3\\x85\\x87.sol\":1147:1172  msg.sender == beneficiary */\n      0xffffffffffffffffffffffffffffffffffffffff\n      and\n      eq\n        /* \"Example/\\xe3\\x85\\x87\\xe3\\x85\\x87.sol\":1139:1207  require(msg.sender == beneficiary, \"Only beneficiary can call this\") */\n      tag_80\n      jumpi\n      mload(0x40)\n      0x08c379a000000000000000000000000000000000000000000000000000000000\n      dup2\n      mstore\n      0x04\n      add\n      tag_81\n      swap1\n      tag_82\n      jump\t// in\n    tag_81:\n      mload(0x40)\n      dup1\n      swap2\n      sub\n      swap1\n      revert\n    tag_80:\n        /* \"Example/\\xe3\\x85\\x87\\xe3\\x85\\x87.sol\":4248:4258  Phase.Done */\n      0x03\n        /* \"Example/\\xe3\\x85\\x87\\xe3\\x85\\x87.sol\":1315:1321  _phase */\n      dup1\n        /* \"Example/\\xe3\\x85\\x87\\xe3\\x85\\x87.sol\":1299:1321  currentPhase == _phase */\n      0x03\n      dup2\n      gt\n      iszero\n      tag_84\n      jumpi\n      tag_85\n      tag_86\n      jump\t// in\n    tag_85:\n    tag_84:\n        /* \"Example/\\xe3\\x85\\x87\\xe3\\x85\\x87.sol\":1299:1311  currentPhase */\n      0x01\n      0x14\n      swap1\n      sload\n      swap1\n      0x0100\n      exp\n      swap1\n      div\n      0xff\n      and\n        /* \"Example/\\xe3\\x85\\x87\\xe3\\x85\\x87.sol\":1299:1321  currentPhase == _phase */\n      0x03\n      dup2\n      gt\n      iszero\n      tag_87\n      jumpi\n      tag_88\n      tag_86\n      jump\t// in\n    tag_88:\n    tag_87:\n      eq\n        /* \"Example/\\xe3\\x85\\x87\\xe3\\x85\\x87.sol\":1291:1339  require(currentPhase == _phase, \"Invalid phase\") */\n      tag_89\n      jumpi\n      mload(0x40)\n      0x08c379a000000000000000000000000000000000000000000000000000000000\n      dup2\n      mstore\n      0x04\n      add\n      tag_90\n      swap1\n      tag_91\n      jump\t// in\n    tag_90:\n      mload(0x40)\n      dup1\n      swap2\n      sub\n      swap1\n      revert\n    tag_89:\n        /* \"Example/\\xe3\\x85\\x87\\xe3\\x85\\x87.sol\":4299:4300  0 */\n      0x00\n        /* \"Example/\\xe3\\x85\\x87\\xe3\\x85\\x87.sol\":4274:4301  highestBidder != address(0) */\n      0xffffffffffffffffffffffffffffffffffffffff\n      and\n        /* \"Example/\\xe3\\x85\\x87\\xe3\\x85\\x87.sol\":4274:4287  highestBidder */\n      0x04\n      0x00\n      swap1\n      sload\n      swap1\n      0x0100\n      exp\n      swap1\n      div\n      0xffffffffffffffffffffffffffffffffffffffff\n      and\n        /* \"Example/\\xe3\\x85\\x87\\xe3\\x85\\x87.sol\":4274:4301  highestBidder != address(0) */\n      0xffffffffffffffffffffffffffffffffffffffff\n      and\n      eq\n        /* \"Example/\\xe3\\x85\\x87\\xe3\\x85\\x87.sol\":4270:4360  if (highestBidder != address(0)) {... */\n      tag_93\n      jumpi\n        /* \"Example/\\xe3\\x85\\x87\\xe3\\x85\\x87.sol\":4317:4328  beneficiary */\n      0x01\n      0x00\n      swap1\n      sload\n      swap1\n      0x0100\n      exp\n      swap1\n      div\n      0xffffffffffffffffffffffffffffffffffffffff\n      and\n        /* \"Example/\\xe3\\x85\\x87\\xe3\\x85\\x87.sol\":4317:4337  beneficiary.transfer */\n      0xffffffffffffffffffffffffffffffffffffffff\n      and\n        /* \"Example/\\xe3\\x85\\x87\\xe3\\x85\\x87.sol\":4317:4349  beneficiary.transfer(highestBid) */\n      0x08fc\n        /* \"Example/\\xe3\\x85\\x87\\xe3\\x85\\x87.sol\":4338:4348  highestBid */\n      sload(0x05)\n        /* \"Example/\\xe3\\x85\\x87\\xe3\\x85\\x87.sol\":4317:4349  beneficiary.transfer(highestBid) */\n      swap1\n      dup2\n      iszero\n      mul\n      swap1\n      mload(0x40)\n      0x00\n      mload(0x40)\n      dup1\n      dup4\n      sub\n      dup2\n      dup6\n      dup9\n      dup9\n      call\n      swap4\n      pop\n      pop\n      pop\n      pop\n      iszero\n      dup1\n      iszero\n      tag_95\n      jumpi\n      returndatasize\n      0x00\n      dup1\n      returndatacopy\n      revert(0x00, returndatasize)\n    tag_95:\n      pop\n        /* \"Example/\\xe3\\x85\\x87\\xe3\\x85\\x87.sol\":4270:4360  if (highestBidder != address(0)) {... */\n    tag_93:\n        /* \"Example/\\xe3\\x85\\x87\\xe3\\x85\\x87.sol\":4374:4413  AuctionEnded(highestBidder, highestBid) */\n      0xdaec4582d5d9595688c8c98545fdd1c696d41c6aeaeb636737e84ed2f5c00eda\n        /* \"Example/\\xe3\\x85\\x87\\xe3\\x85\\x87.sol\":4387:4400  highestBidder */\n      0x04\n      0x00\n      swap1\n      sload\n      swap1\n      0x0100\n      exp\n      swap1\n      div\n      0xffffffffffffffffffffffffffffffffffffffff\n      and\n        /* \"Example/\\xe3\\x85\\x87\\xe3\\x85\\x87.sol\":4402:4412  highestBid */\n      sload(0x05)\n        /* \"Example/\\xe3\\x85\\x87\\xe3\\x85\\x87.sol\":4374:4413  AuctionEnded(highestBidder, highestBid) */\n      mload(0x40)\n      tag_96\n      swap3\n      swap2\n      swap1\n      tag_97\n      jump\t// in\n    tag_96:\n      mload(0x40)\n      dup1\n      swap2\n      sub\n      swap1\n      log1\n        /* \"Example/\\xe3\\x85\\x87\\xe3\\x85\\x87.sol\":1217:1218  _ */\n      pop\n        /* \"Example/\\xe3\\x85\\x87\\xe3\\x85\\x87.sol\":4193:4420  function auctionEnd() public onlyBeneficiary() inPhase(Phase.Done) {... */\n      jump\t// out\n        /* \"Example/\\xe3\\x85\\x87\\xe3\\x85\\x87.sol\":494:528  address payable public beneficiary */\n    tag_29:\n      0x01\n      0x00\n      swap1\n      sload\n      swap1\n      0x0100\n      exp\n      swap1\n      div\n      0xffffffffffffffffffffffffffffffffffffffff\n      and\n      dup2\n      jump\t// out\n        /* \"Example/\\xe3\\x85\\x87\\xe3\\x85\\x87.sol\":3833:4047  function withdraw() public {... */\n    tag_34:\n        /* \"Example/\\xe3\\x85\\x87\\xe3\\x85\\x87.sol\":3870:3881  uint amount */\n      0x00\n        /* \"Example/\\xe3\\x85\\x87\\xe3\\x85\\x87.sol\":3884:3898  pendingReturns */\n      0x03\n        /* \"Example/\\xe3\\x85\\x87\\xe3\\x85\\x87.sol\":3884:3910  pendingReturns[msg.sender] */\n      0x00\n        /* \"Example/\\xe3\\x85\\x87\\xe3\\x85\\x87.sol\":3899:3909  msg.sender */\n      caller\n        /* \"Example/\\xe3\\x85\\x87\\xe3\\x85\\x87.sol\":3884:3910  pendingReturns[msg.sender] */\n      0xffffffffffffffffffffffffffffffffffffffff\n      and\n      0xffffffffffffffffffffffffffffffffffffffff\n      and\n      dup2\n      mstore\n      0x20\n      add\n      swap1\n      dup2\n      mstore\n      0x20\n      add\n      0x00\n      keccak256\n      sload\n        /* \"Example/\\xe3\\x85\\x87\\xe3\\x85\\x87.sol\":3870:3910  uint amount = pendingReturns[msg.sender] */\n      swap1\n      pop\n        /* \"Example/\\xe3\\x85\\x87\\xe3\\x85\\x87.sol\":3933:3934  0 */\n      0x00\n        /* \"Example/\\xe3\\x85\\x87\\xe3\\x85\\x87.sol\":3924:3930  amount */\n      dup2\n        /* \"Example/\\xe3\\x85\\x87\\xe3\\x85\\x87.sol\":3924:3934  amount > 0 */\n      gt\n        /* \"Example/\\xe3\\x85\\x87\\xe3\\x85\\x87.sol\":3920:4041  if (amount > 0) {... */\n      iszero\n      tag_99\n      jumpi\n        /* \"Example/\\xe3\\x85\\x87\\xe3\\x85\\x87.sol\":3979:3980  0 */\n      0x00\n        /* \"Example/\\xe3\\x85\\x87\\xe3\\x85\\x87.sol\":3950:3964  pendingReturns */\n      0x03\n        /* \"Example/\\xe3\\x85\\x87\\xe3\\x85\\x87.sol\":3950:3976  pendingReturns[msg.sender] */\n      0x00\n        /* \"Example/\\xe3\\x85\\x87\\xe3\\x85\\x87.sol\":3965:3975  msg.sender */\n      caller\n        /* \"Example/\\xe3\\x85\\x87\\xe3\\x85\\x87.sol\":3950:3976  pendingReturns[msg.sender] */\n      0xffffffffffffffffffffffffffffffffffffffff\n      and\n      0xffffffffffffffffffffffffffffffffffffffff\n      and\n      dup2\n      mstore\n      0x20\n      add\n      swap1\n      dup2\n      mstore\n      0x20\n      add\n      0x00\n      keccak256\n        /* \"Example/\\xe3\\x85\\x87\\xe3\\x85\\x87.sol\":3950:3980  pendingReturns[msg.sender] = 0 */\n      dup2\n      swap1\n      sstore\n      pop\n        /* \"Example/\\xe3\\x85\\x87\\xe3\\x85\\x87.sol\":4002:4012  msg.sender */\n      caller\n        /* \"Example/\\xe3\\x85\\x87\\xe3\\x85\\x87.sol\":3994:4022  payable(msg.sender).transfer */\n      0xffffffffffffffffffffffffffffffffffffffff\n      and\n        /* \"Example/\\xe3\\x85\\x87\\xe3\\x85\\x87.sol\":3994:4030  payable(msg.sender).transfer(amount) */\n      0x08fc\n        /* \"Example/\\xe3\\x85\\x87\\xe3\\x85\\x87.sol\":4023:4029  amount */\n      dup3\n        /* \"Example/\\xe3\\x85\\x87\\xe3\\x85\\x87.sol\":3994:4030  payable(msg.sender).transfer(amount) */\n      swap1\n      dup2\n      iszero\n      mul\n      swap1\n      mload(0x40)\n      0x00\n      mload(0x40)\n      dup1\n      dup4\n      sub\n      dup2\n      dup6\n      dup9\n      dup9\n      call\n      swap4\n      pop\n      pop\n      pop\n      pop\n      iszero\n      dup1\n      iszero\n      tag_101\n      jumpi\n      returndatasize\n      0x00\n      dup1\n      returndatacopy\n      revert(0x00, returndatasize)\n    tag_101:\n      pop\n        /* \"Example/\\xe3\\x85\\x87\\xe3\\x85\\x87.sol\":3920:4041  if (amount > 0) {... */\n    tag_99:\n        /* \"Example/\\xe3\\x85\\x87\\xe3\\x85\\x87.sol\":3860:4047  {... */\n      pop\n        /* \"Example/\\xe3\\x85\\x87\\xe3\\x85\\x87.sol\":3833:4047  function withdraw() public {... */\n      jump\t// out\n        /* \"Example/\\xe3\\x85\\x87\\xe3\\x85\\x87.sol\":2799:3804  function reveal(uint _value, bytes32 _password) public payable inPhase(Phase.Reveal) {... */\n    tag_38:\n        /* \"Example/\\xe3\\x85\\x87\\xe3\\x85\\x87.sol\":2870:2882  Phase.Reveal */\n      0x02\n        /* \"Example/\\xe3\\x85\\x87\\xe3\\x85\\x87.sol\":1315:1321  _phase */\n      dup1\n        /* \"Example/\\xe3\\x85\\x87\\xe3\\x85\\x87.sol\":1299:1321  currentPhase == _phase */\n      0x03\n      dup2\n      gt\n      iszero\n      tag_103\n      jumpi\n      tag_104\n      tag_86\n      jump\t// in\n    tag_104:\n    tag_103:\n        /* \"Example/\\xe3\\x85\\x87\\xe3\\x85\\x87.sol\":1299:1311  currentPhase */\n      0x01\n      0x14\n      swap1\n      sload\n      swap1\n      0x0100\n      exp\n      swap1\n      div\n      0xff\n      and\n        /* \"Example/\\xe3\\x85\\x87\\xe3\\x85\\x87.sol\":1299:1321  currentPhase == _phase */\n      0x03\n      dup2\n      gt\n      iszero\n      tag_105\n      jumpi\n      tag_106\n      tag_86\n      jump\t// in\n    tag_106:\n    tag_105:\n      eq\n        /* \"Example/\\xe3\\x85\\x87\\xe3\\x85\\x87.sol\":1291:1339  require(currentPhase == _phase, \"Invalid phase\") */\n      tag_107\n      jumpi\n      mload(0x40)\n      0x08c379a000000000000000000000000000000000000000000000000000000000\n      dup2\n      mstore\n      0x04\n      add\n      tag_108\n      swap1\n      tag_91\n      jump\t// in\n    tag_108:\n      mload(0x40)\n      dup1\n      swap2\n      sub\n      swap1\n      revert\n    tag_107:\n        /* \"Example/\\xe3\\x85\\x87\\xe3\\x85\\x87.sol\":2894:2916  Bid storage bidToCheck */\n      0x00\n        /* \"Example/\\xe3\\x85\\x87\\xe3\\x85\\x87.sol\":2919:2923  bids */\n      0x02\n        /* \"Example/\\xe3\\x85\\x87\\xe3\\x85\\x87.sol\":2919:2935  bids[msg.sender] */\n      0x00\n        /* \"Example/\\xe3\\x85\\x87\\xe3\\x85\\x87.sol\":2924:2934  msg.sender */\n      caller\n        /* \"Example/\\xe3\\x85\\x87\\xe3\\x85\\x87.sol\":2919:2935  bids[msg.sender] */\n      0xffffffffffffffffffffffffffffffffffffffff\n      and\n      0xffffffffffffffffffffffffffffffffffffffff\n      and\n      dup2\n      mstore\n      0x20\n      add\n      swap1\n      dup2\n      mstore\n      0x20\n      add\n      0x00\n      keccak256\n        /* \"Example/\\xe3\\x85\\x87\\xe3\\x85\\x87.sol\":2894:2935  Bid storage bidToCheck = bids[msg.sender] */\n      swap1\n      pop\n        /* \"Example/\\xe3\\x85\\x87\\xe3\\x85\\x87.sol\":2945:2962  bytes32 hashedBid */\n      0x00\n        /* \"Example/\\xe3\\x85\\x87\\xe3\\x85\\x87.sol\":2965:2978  khashContract */\n      dup1\n      0x00\n      swap1\n      sload\n      swap1\n      0x0100\n      exp\n      swap1\n      div\n      0xffffffffffffffffffffffffffffffffffffffff\n      and\n        /* \"Example/\\xe3\\x85\\x87\\xe3\\x85\\x87.sol\":2965:2985  khashContract.hashMe */\n      0xffffffffffffffffffffffffffffffffffffffff\n      and\n      0xb3ec48dd\n        /* \"Example/\\xe3\\x85\\x87\\xe3\\x85\\x87.sol\":2986:2992  _value */\n      dup7\n        /* \"Example/\\xe3\\x85\\x87\\xe3\\x85\\x87.sol\":2994:3003  _password */\n      dup7\n        /* \"Example/\\xe3\\x85\\x87\\xe3\\x85\\x87.sol\":2965:3004  khashContract.hashMe(_value, _password) */\n      mload(0x40)\n      dup4\n      0xffffffff\n      and\n      0xe0\n      shl\n      dup2\n      mstore\n      0x04\n      add\n      tag_110\n      swap3\n      swap2\n      swap1\n      tag_111\n      jump\t// in\n    tag_110:\n      0x20\n      mload(0x40)\n      dup1\n      dup4\n      sub\n      dup2\n      dup7\n      gas\n      staticcall\n      iszero\n      dup1\n      iszero\n      tag_113\n      jumpi\n      returndatasize\n      0x00\n      dup1\n      returndatacopy\n      revert(0x00, returndatasize)\n    tag_113:\n      pop\n      pop\n      pop\n      pop\n      mload(0x40)\n      returndatasize\n      not(0x1f)\n      0x1f\n      dup3\n      add\n      and\n      dup3\n      add\n      dup1\n      0x40\n      mstore\n      pop\n      dup2\n      add\n      swap1\n      tag_114\n      swap2\n      swap1\n      tag_115\n      jump\t// in\n    tag_114:\n        /* \"Example/\\xe3\\x85\\x87\\xe3\\x85\\x87.sol\":2945:3004  bytes32 hashedBid = khashContract.hashMe(_value, _password) */\n      swap1\n      pop\n        /* \"Example/\\xe3\\x85\\x87\\xe3\\x85\\x87.sol\":3045:3064  minimumBidIncrement */\n      sload(0x06)\n        /* \"Example/\\xe3\\x85\\x87\\xe3\\x85\\x87.sol\":3032:3042  highestBid */\n      sload(0x05)\n        /* \"Example/\\xe3\\x85\\x87\\xe3\\x85\\x87.sol\":3032:3064  highestBid + minimumBidIncrement */\n      tag_116\n      swap2\n      swap1\n      tag_117\n      jump\t// in\n    tag_116:\n        /* \"Example/\\xe3\\x85\\x87\\xe3\\x85\\x87.sol\":3022:3028  _value */\n      dup6\n        /* \"Example/\\xe3\\x85\\x87\\xe3\\x85\\x87.sol\":3022:3064  _value >= highestBid + minimumBidIncrement */\n      lt\n      iszero\n        /* \"Example/\\xe3\\x85\\x87\\xe3\\x85\\x87.sol\":3014:3139  require(_value >= highestBid + minimumBidIncrement, \"Bid must be higher than the current highest bid plus minimum increment\") */\n      tag_118\n      jumpi\n      mload(0x40)\n      0x08c379a000000000000000000000000000000000000000000000000000000000\n      dup2\n      mstore\n      0x04\n      add\n      tag_119\n      swap1\n      tag_120\n      jump\t// in\n    tag_119:\n      mload(0x40)\n      dup1\n      swap2\n      sub\n      swap1\n      revert\n    tag_118:\n        /* \"Example/\\xe3\\x85\\x87\\xe3\\x85\\x87.sol\":3179:3188  hashedBid */\n      dup1\n        /* \"Example/\\xe3\\x85\\x87\\xe3\\x85\\x87.sol\":3154:3164  bidToCheck */\n      dup3\n        /* \"Example/\\xe3\\x85\\x87\\xe3\\x85\\x87.sol\":3154:3175  bidToCheck.blindedBid */\n      0x00\n      add\n      sload\n        /* \"Example/\\xe3\\x85\\x87\\xe3\\x85\\x87.sol\":3154:3188  bidToCheck.blindedBid == hashedBid */\n      sub\n        /* \"Example/\\xe3\\x85\\x87\\xe3\\x85\\x87.sol\":3150:3754  if (bidToCheck.blindedBid == hashedBid) {... */\n      tag_121\n      jumpi\n        /* \"Example/\\xe3\\x85\\x87\\xe3\\x85\\x87.sol\":3204:3215  uint refund */\n      0x00\n        /* \"Example/\\xe3\\x85\\x87\\xe3\\x85\\x87.sol\":3218:3228  bidToCheck */\n      dup3\n        /* \"Example/\\xe3\\x85\\x87\\xe3\\x85\\x87.sol\":3218:3236  bidToCheck.deposit */\n      0x01\n      add\n      sload\n        /* \"Example/\\xe3\\x85\\x87\\xe3\\x85\\x87.sol\":3204:3236  uint refund = bidToCheck.deposit */\n      swap1\n      pop\n        /* \"Example/\\xe3\\x85\\x87\\xe3\\x85\\x87.sol\":3273:3283  highestBid */\n      sload(0x05)\n        /* \"Example/\\xe3\\x85\\x87\\xe3\\x85\\x87.sol\":3263:3270  1 ether */\n      0x0de0b6b3a7640000\n        /* \"Example/\\xe3\\x85\\x87\\xe3\\x85\\x87.sol\":3254:3260  _value */\n      dup8\n        /* \"Example/\\xe3\\x85\\x87\\xe3\\x85\\x87.sol\":3254:3270  _value * 1 ether */\n      tag_122\n      swap2\n      swap1\n      tag_123\n      jump\t// in\n    tag_122:\n        /* \"Example/\\xe3\\x85\\x87\\xe3\\x85\\x87.sol\":3254:3283  _value * 1 ether > highestBid */\n      gt\n        /* \"Example/\\xe3\\x85\\x87\\xe3\\x85\\x87.sol\":3250:3569  if (_value * 1 ether > highestBid) {... */\n      iszero\n      tag_124\n      jumpi\n        /* \"Example/\\xe3\\x85\\x87\\xe3\\x85\\x87.sol\":3332:3333  0 */\n      0x00\n        /* \"Example/\\xe3\\x85\\x87\\xe3\\x85\\x87.sol\":3307:3334  highestBidder != address(0) */\n      0xffffffffffffffffffffffffffffffffffffffff\n      and\n        /* \"Example/\\xe3\\x85\\x87\\xe3\\x85\\x87.sol\":3307:3320  highestBidder */\n      0x04\n      0x00\n      swap1\n      sload\n      swap1\n      0x0100\n      exp\n      swap1\n      div\n      0xffffffffffffffffffffffffffffffffffffffff\n      and\n        /* \"Example/\\xe3\\x85\\x87\\xe3\\x85\\x87.sol\":3307:3334  highestBidder != address(0) */\n      0xffffffffffffffffffffffffffffffffffffffff\n      and\n      eq\n        /* \"Example/\\xe3\\x85\\x87\\xe3\\x85\\x87.sol\":3303:3420  if (highestBidder != address(0)) {... */\n      tag_125\n      jumpi\n        /* \"Example/\\xe3\\x85\\x87\\xe3\\x85\\x87.sol\":3391:3401  highestBid */\n      sload(0x05)\n        /* \"Example/\\xe3\\x85\\x87\\xe3\\x85\\x87.sol\":3358:3372  pendingReturns */\n      0x03\n        /* \"Example/\\xe3\\x85\\x87\\xe3\\x85\\x87.sol\":3358:3387  pendingReturns[highestBidder] */\n      0x00\n        /* \"Example/\\xe3\\x85\\x87\\xe3\\x85\\x87.sol\":3373:3386  highestBidder */\n      0x04\n      0x00\n      swap1\n      sload\n      swap1\n      0x0100\n      exp\n      swap1\n      div\n      0xffffffffffffffffffffffffffffffffffffffff\n      and\n        /* \"Example/\\xe3\\x85\\x87\\xe3\\x85\\x87.sol\":3358:3387  pendingReturns[highestBidder] */\n      0xffffffffffffffffffffffffffffffffffffffff\n      and\n      0xffffffffffffffffffffffffffffffffffffffff\n      and\n      dup2\n      mstore\n      0x20\n      add\n      swap1\n      dup2\n      mstore\n      0x20\n      add\n      0x00\n      keccak256\n      0x00\n        /* \"Example/\\xe3\\x85\\x87\\xe3\\x85\\x87.sol\":3358:3401  pendingReturns[highestBidder] += highestBid */\n      dup3\n      dup3\n      sload\n      tag_126\n      swap2\n      swap1\n      tag_117\n      jump\t// in\n    tag_126:\n      swap3\n      pop\n      pop\n      dup2\n      swap1\n      sstore\n      pop\n        /* \"Example/\\xe3\\x85\\x87\\xe3\\x85\\x87.sol\":3303:3420  if (highestBidder != address(0)) {... */\n    tag_125:\n        /* \"Example/\\xe3\\x85\\x87\\xe3\\x85\\x87.sol\":3453:3463  msg.sender */\n      caller\n        /* \"Example/\\xe3\\x85\\x87\\xe3\\x85\\x87.sol\":3437:3450  highestBidder */\n      0x04\n      0x00\n        /* \"Example/\\xe3\\x85\\x87\\xe3\\x85\\x87.sol\":3437:3463  highestBidder = msg.sender */\n      0x0100\n      exp\n      dup2\n      sload\n      dup2\n      0xffffffffffffffffffffffffffffffffffffffff\n      mul\n      not\n      and\n      swap1\n      dup4\n      0xffffffffffffffffffffffffffffffffffffffff\n      and\n      mul\n      or\n      swap1\n      sstore\n      pop\n        /* \"Example/\\xe3\\x85\\x87\\xe3\\x85\\x87.sol\":3503:3510  1 ether */\n      0x0de0b6b3a7640000\n        /* \"Example/\\xe3\\x85\\x87\\xe3\\x85\\x87.sol\":3494:3500  _value */\n      dup7\n        /* \"Example/\\xe3\\x85\\x87\\xe3\\x85\\x87.sol\":3494:3510  _value * 1 ether */\n      tag_127\n      swap2\n      swap1\n      tag_123\n      jump\t// in\n    tag_127:\n        /* \"Example/\\xe3\\x85\\x87\\xe3\\x85\\x87.sol\":3481:3491  highestBid */\n      0x05\n        /* \"Example/\\xe3\\x85\\x87\\xe3\\x85\\x87.sol\":3481:3510  highestBid = _value * 1 ether */\n      dup2\n      swap1\n      sstore\n      pop\n        /* \"Example/\\xe3\\x85\\x87\\xe3\\x85\\x87.sol\":3547:3554  1 ether */\n      0x0de0b6b3a7640000\n        /* \"Example/\\xe3\\x85\\x87\\xe3\\x85\\x87.sol\":3538:3544  _value */\n      dup7\n        /* \"Example/\\xe3\\x85\\x87\\xe3\\x85\\x87.sol\":3538:3554  _value * 1 ether */\n      tag_128\n      swap2\n      swap1\n      tag_123\n      jump\t// in\n    tag_128:\n        /* \"Example/\\xe3\\x85\\x87\\xe3\\x85\\x87.sol\":3528:3554  refund -= _value * 1 ether */\n      dup2\n      tag_129\n      swap2\n      swap1\n      tag_130\n      jump\t// in\n    tag_129:\n      swap1\n      pop\n        /* \"Example/\\xe3\\x85\\x87\\xe3\\x85\\x87.sol\":3250:3569  if (_value * 1 ether > highestBid) {... */\n    tag_124:\n        /* \"Example/\\xe3\\x85\\x87\\xe3\\x85\\x87.sol\":3595:3596  0 */\n      0x00\n        /* \"Example/\\xe3\\x85\\x87\\xe3\\x85\\x87.sol\":3586:3592  refund */\n      dup2\n        /* \"Example/\\xe3\\x85\\x87\\xe3\\x85\\x87.sol\":3586:3596  refund > 0 */\n      gt\n        /* \"Example/\\xe3\\x85\\x87\\xe3\\x85\\x87.sol\":3582:3666  if (refund > 0) {... */\n      iszero\n      tag_131\n      jumpi\n        /* \"Example/\\xe3\\x85\\x87\\xe3\\x85\\x87.sol\":3645:3651  refund */\n      dup1\n        /* \"Example/\\xe3\\x85\\x87\\xe3\\x85\\x87.sol\":3616:3630  pendingReturns */\n      0x03\n        /* \"Example/\\xe3\\x85\\x87\\xe3\\x85\\x87.sol\":3616:3642  pendingReturns[msg.sender] */\n      0x00\n        /* \"Example/\\xe3\\x85\\x87\\xe3\\x85\\x87.sol\":3631:3641  msg.sender */\n      caller\n        /* \"Example/\\xe3\\x85\\x87\\xe3\\x85\\x87.sol\":3616:3642  pendingReturns[msg.sender] */\n      0xffffffffffffffffffffffffffffffffffffffff\n      and\n      0xffffffffffffffffffffffffffffffffffffffff\n      and\n      dup2\n      mstore\n      0x20\n      add\n      swap1\n      dup2\n      mstore\n      0x20\n      add\n      0x00\n      keccak256\n        /* \"Example/\\xe3\\x85\\x87\\xe3\\x85\\x87.sol\":3616:3651  pendingReturns[msg.sender] = refund */\n      dup2\n      swap1\n      sstore\n      pop\n        /* \"Example/\\xe3\\x85\\x87\\xe3\\x85\\x87.sol\":3582:3666  if (refund > 0) {... */\n    tag_131:\n        /* \"Example/\\xe3\\x85\\x87\\xe3\\x85\\x87.sol\":3190:3676  {... */\n      pop\n        /* \"Example/\\xe3\\x85\\x87\\xe3\\x85\\x87.sol\":3150:3754  if (bidToCheck.blindedBid == hashedBid) {... */\n      jump(tag_132)\n    tag_121:\n        /* \"Example/\\xe3\\x85\\x87\\xe3\\x85\\x87.sol\":3725:3735  bidToCheck */\n      dup2\n        /* \"Example/\\xe3\\x85\\x87\\xe3\\x85\\x87.sol\":3725:3743  bidToCheck.deposit */\n      0x01\n      add\n      sload\n        /* \"Example/\\xe3\\x85\\x87\\xe3\\x85\\x87.sol\":3696:3710  pendingReturns */\n      0x03\n        /* \"Example/\\xe3\\x85\\x87\\xe3\\x85\\x87.sol\":3696:3722  pendingReturns[msg.sender] */\n      0x00\n        /* \"Example/\\xe3\\x85\\x87\\xe3\\x85\\x87.sol\":3711:3721  msg.sender */\n      caller\n        /* \"Example/\\xe3\\x85\\x87\\xe3\\x85\\x87.sol\":3696:3722  pendingReturns[msg.sender] */\n      0xffffffffffffffffffffffffffffffffffffffff\n      and\n      0xffffffffffffffffffffffffffffffffffffffff\n      and\n      dup2\n      mstore\n      0x20\n      add\n      swap1\n      dup2\n      mstore\n      0x20\n      add\n      0x00\n      keccak256\n        /* \"Example/\\xe3\\x85\\x87\\xe3\\x85\\x87.sol\":3696:3743  pendingReturns[msg.sender] = bidToCheck.deposit */\n      dup2\n      swap1\n      sstore\n      pop\n        /* \"Example/\\xe3\\x85\\x87\\xe3\\x85\\x87.sol\":3150:3754  if (bidToCheck.blindedBid == hashedBid) {... */\n    tag_132:\n        /* \"Example/\\xe3\\x85\\x87\\xe3\\x85\\x87.sol\":3795:3796  0 */\n      0x00\n        /* \"Example/\\xe3\\x85\\x87\\xe3\\x85\\x87.sol\":3787:3797  bytes32(0) */\n      dup1\n      shl\n        /* \"Example/\\xe3\\x85\\x87\\xe3\\x85\\x87.sol\":3763:3773  bidToCheck */\n      dup3\n        /* \"Example/\\xe3\\x85\\x87\\xe3\\x85\\x87.sol\":3763:3784  bidToCheck.blindedBid */\n      0x00\n      add\n        /* \"Example/\\xe3\\x85\\x87\\xe3\\x85\\x87.sol\":3763:3797  bidToCheck.blindedBid = bytes32(0) */\n      dup2\n      swap1\n      sstore\n      pop\n        /* \"Example/\\xe3\\x85\\x87\\xe3\\x85\\x87.sol\":2884:3804  {... */\n      pop\n      pop\n        /* \"Example/\\xe3\\x85\\x87\\xe3\\x85\\x87.sol\":2799:3804  function reveal(uint _value, bytes32 _password) public payable inPhase(Phase.Reveal) {... */\n      pop\n      pop\n      pop\n      jump\t// out\n        /* \"Example/\\xe3\\x85\\x87\\xe3\\x85\\x87.sol\":602:637  mapping(address => Bid) public bids */\n    tag_43:\n      mstore(0x20, 0x02)\n      dup1\n      0x00\n      mstore\n      keccak256(0x00, 0x40)\n      0x00\n      swap2\n      pop\n      swap1\n      pop\n      dup1\n      0x00\n      add\n      sload\n      swap1\n      dup1\n      0x01\n      add\n      sload\n      swap1\n      pop\n      dup3\n      jump\t// out\n        /* \"Example/\\xe3\\x85\\x87\\xe3\\x85\\x87.sol\":295:321  Khash public khashContract */\n    tag_48:\n      0x00\n      dup1\n      sload\n      swap1\n      0x0100\n      exp\n      swap1\n      div\n      0xffffffffffffffffffffffffffffffffffffffff\n      and\n      dup2\n      jump\t// out\n        /* \"Example/\\xe3\\x85\\x87\\xe3\\x85\\x87.sol\":725:753  address public highestBidder */\n    tag_53:\n      0x04\n      0x00\n      swap1\n      sload\n      swap1\n      0x0100\n      exp\n      swap1\n      div\n      0xffffffffffffffffffffffffffffffffffffffff\n      and\n      dup2\n      jump\t// out\n        /* \"Example/\\xe3\\x85\\x87\\xe3\\x85\\x87.sol\":2398:2774  function cancelBid() public inPhase(Phase.Bidding) {... */\n    tag_58:\n        /* \"Example/\\xe3\\x85\\x87\\xe3\\x85\\x87.sol\":2434:2447  Phase.Bidding */\n      0x01\n        /* \"Example/\\xe3\\x85\\x87\\xe3\\x85\\x87.sol\":1315:1321  _phase */\n      dup1\n        /* \"Example/\\xe3\\x85\\x87\\xe3\\x85\\x87.sol\":1299:1321  currentPhase == _phase */\n      0x03\n      dup2\n      gt\n      iszero\n      tag_134\n      jumpi\n      tag_135\n      tag_86\n      jump\t// in\n    tag_135:\n    tag_134:\n        /* \"Example/\\xe3\\x85\\x87\\xe3\\x85\\x87.sol\":1299:1311  currentPhase */\n      0x01\n      0x14\n      swap1\n      sload\n      swap1\n      0x0100\n      exp\n      swap1\n      div\n      0xff\n      and\n        /* \"Example/\\xe3\\x85\\x87\\xe3\\x85\\x87.sol\":1299:1321  currentPhase == _phase */\n      0x03\n      dup2\n      gt\n      iszero\n      tag_136\n      jumpi\n      tag_137\n      tag_86\n      jump\t// in\n    tag_137:\n    tag_136:\n      eq\n        /* \"Example/\\xe3\\x85\\x87\\xe3\\x85\\x87.sol\":1291:1339  require(currentPhase == _phase, \"Invalid phase\") */\n      tag_138\n      jumpi\n      mload(0x40)\n      0x08c379a000000000000000000000000000000000000000000000000000000000\n      dup2\n      mstore\n      0x04\n      add\n      tag_139\n      swap1\n      tag_91\n      jump\t// in\n    tag_139:\n      mload(0x40)\n      dup1\n      swap2\n      sub\n      swap1\n      revert\n    tag_138:\n        /* \"Example/\\xe3\\x85\\x87\\xe3\\x85\\x87.sol\":2459:2476  Bid storage myBid */\n      0x00\n        /* \"Example/\\xe3\\x85\\x87\\xe3\\x85\\x87.sol\":2479:2483  bids */\n      0x02\n        /* \"Example/\\xe3\\x85\\x87\\xe3\\x85\\x87.sol\":2479:2495  bids[msg.sender] */\n      0x00\n        /* \"Example/\\xe3\\x85\\x87\\xe3\\x85\\x87.sol\":2484:2494  msg.sender */\n      caller\n        /* \"Example/\\xe3\\x85\\x87\\xe3\\x85\\x87.sol\":2479:2495  bids[msg.sender] */\n      0xffffffffffffffffffffffffffffffffffffffff\n      and\n      0xffffffffffffffffffffffffffffffffffffffff\n      and\n      dup2\n      mstore\n      0x20\n      add\n      swap1\n      dup2\n      mstore\n      0x20\n      add\n      0x00\n      keccak256\n        /* \"Example/\\xe3\\x85\\x87\\xe3\\x85\\x87.sol\":2459:2495  Bid storage myBid = bids[msg.sender] */\n      swap1\n      pop\n        /* \"Example/\\xe3\\x85\\x87\\xe3\\x85\\x87.sol\":2529:2530  0 */\n      0x00\n        /* \"Example/\\xe3\\x85\\x87\\xe3\\x85\\x87.sol\":2513:2518  myBid */\n      dup2\n        /* \"Example/\\xe3\\x85\\x87\\xe3\\x85\\x87.sol\":2513:2526  myBid.deposit */\n      0x01\n      add\n      sload\n        /* \"Example/\\xe3\\x85\\x87\\xe3\\x85\\x87.sol\":2513:2530  myBid.deposit > 0 */\n      gt\n        /* \"Example/\\xe3\\x85\\x87\\xe3\\x85\\x87.sol\":2505:2551  require(myBid.deposit > 0, \"No bid to cancel\") */\n      tag_141\n      jumpi\n      mload(0x40)\n      0x08c379a000000000000000000000000000000000000000000000000000000000\n      dup2\n      mstore\n      0x04\n      add\n      tag_142\n      swap1\n      tag_143\n      jump\t// in\n    tag_142:\n      mload(0x40)\n      dup1\n      swap2\n      sub\n      swap1\n      revert\n    tag_141:\n        /* \"Example/\\xe3\\x85\\x87\\xe3\\x85\\x87.sol\":2562:2579  uint refundAmount */\n      0x00\n        /* \"Example/\\xe3\\x85\\x87\\xe3\\x85\\x87.sol\":2582:2587  myBid */\n      dup2\n        /* \"Example/\\xe3\\x85\\x87\\xe3\\x85\\x87.sol\":2582:2595  myBid.deposit */\n      0x01\n      add\n      sload\n        /* \"Example/\\xe3\\x85\\x87\\xe3\\x85\\x87.sol\":2562:2595  uint refundAmount = myBid.deposit */\n      swap1\n      pop\n        /* \"Example/\\xe3\\x85\\x87\\xe3\\x85\\x87.sol\":2621:2622  0 */\n      0x00\n        /* \"Example/\\xe3\\x85\\x87\\xe3\\x85\\x87.sol\":2605:2610  myBid */\n      dup3\n        /* \"Example/\\xe3\\x85\\x87\\xe3\\x85\\x87.sol\":2605:2618  myBid.deposit */\n      0x01\n      add\n        /* \"Example/\\xe3\\x85\\x87\\xe3\\x85\\x87.sol\":2605:2622  myBid.deposit = 0 */\n      dup2\n      swap1\n      sstore\n      pop\n        /* \"Example/\\xe3\\x85\\x87\\xe3\\x85\\x87.sol\":2659:2660  0 */\n      0x00\n        /* \"Example/\\xe3\\x85\\x87\\xe3\\x85\\x87.sol\":2651:2661  bytes32(0) */\n      dup1\n      shl\n        /* \"Example/\\xe3\\x85\\x87\\xe3\\x85\\x87.sol\":2632:2637  myBid */\n      dup3\n        /* \"Example/\\xe3\\x85\\x87\\xe3\\x85\\x87.sol\":2632:2648  myBid.blindedBid */\n      0x00\n      add\n        /* \"Example/\\xe3\\x85\\x87\\xe3\\x85\\x87.sol\":2632:2661  myBid.blindedBid = bytes32(0) */\n      dup2\n      swap1\n      sstore\n      pop\n        /* \"Example/\\xe3\\x85\\x87\\xe3\\x85\\x87.sol\":2701:2713  refundAmount */\n      dup1\n        /* \"Example/\\xe3\\x85\\x87\\xe3\\x85\\x87.sol\":2672:2686  pendingReturns */\n      0x03\n        /* \"Example/\\xe3\\x85\\x87\\xe3\\x85\\x87.sol\":2672:2698  pendingReturns[msg.sender] */\n      0x00\n        /* \"Example/\\xe3\\x85\\x87\\xe3\\x85\\x87.sol\":2687:2697  msg.sender */\n      caller\n        /* \"Example/\\xe3\\x85\\x87\\xe3\\x85\\x87.sol\":2672:2698  pendingReturns[msg.sender] */\n      0xffffffffffffffffffffffffffffffffffffffff\n      and\n      0xffffffffffffffffffffffffffffffffffffffff\n      and\n      dup2\n      mstore\n      0x20\n      add\n      swap1\n      dup2\n      mstore\n      0x20\n      add\n      0x00\n      keccak256\n        /* \"Example/\\xe3\\x85\\x87\\xe3\\x85\\x87.sol\":2672:2713  pendingReturns[msg.sender] = refundAmount */\n      dup2\n      swap1\n      sstore\n      pop\n        /* \"Example/\\xe3\\x85\\x87\\xe3\\x85\\x87.sol\":2729:2767  BidCancelled(msg.sender, refundAmount) */\n      0x8d38c62ee74cd9e3dbcc09feaa7d1f5568aeaa35cbf8a0f167f513c07e2fd0b8\n        /* \"Example/\\xe3\\x85\\x87\\xe3\\x85\\x87.sol\":2742:2752  msg.sender */\n      caller\n        /* \"Example/\\xe3\\x85\\x87\\xe3\\x85\\x87.sol\":2754:2766  refundAmount */\n      dup3\n        /* \"Example/\\xe3\\x85\\x87\\xe3\\x85\\x87.sol\":2729:2767  BidCancelled(msg.sender, refundAmount) */\n      mload(0x40)\n      tag_144\n      swap3\n      swap2\n      swap1\n      tag_97\n      jump\t// in\n    tag_144:\n      mload(0x40)\n      dup1\n      swap2\n      sub\n      swap1\n      log1\n        /* \"Example/\\xe3\\x85\\x87\\xe3\\x85\\x87.sol\":2449:2774  {... */\n      pop\n      pop\n        /* \"Example/\\xe3\\x85\\x87\\xe3\\x85\\x87.sol\":2398:2774  function cancelBid() public inPhase(Phase.Bidding) {... */\n      pop\n      jump\t// out\n        /* \"Example/\\xe3\\x85\\x87\\xe3\\x85\\x87.sol\":4069:4168  function checkRefund() public view returns(uint) {... */\n    tag_61:\n        /* \"Example/\\xe3\\x85\\x87\\xe3\\x85\\x87.sol\":4112:4116  uint */\n      0x00\n        /* \"Example/\\xe3\\x85\\x87\\xe3\\x85\\x87.sol\":4135:4149  pendingReturns */\n      0x03\n        /* \"Example/\\xe3\\x85\\x87\\xe3\\x85\\x87.sol\":4135:4161  pendingReturns[msg.sender] */\n      0x00\n        /* \"Example/\\xe3\\x85\\x87\\xe3\\x85\\x87.sol\":4150:4160  msg.sender */\n      caller\n        /* \"Example/\\xe3\\x85\\x87\\xe3\\x85\\x87.sol\":4135:4161  pendingReturns[msg.sender] */\n      0xffffffffffffffffffffffffffffffffffffffff\n      and\n      0xffffffffffffffffffffffffffffffffffffffff\n      and\n      dup2\n      mstore\n      0x20\n      add\n      swap1\n      dup2\n      mstore\n      0x20\n      add\n      0x00\n      keccak256\n      sload\n        /* \"Example/\\xe3\\x85\\x87\\xe3\\x85\\x87.sol\":4128:4161  return pendingReturns[msg.sender] */\n      swap1\n      pop\n        /* \"Example/\\xe3\\x85\\x87\\xe3\\x85\\x87.sol\":4069:4168  function checkRefund() public view returns(uint) {... */\n      swap1\n      jump\t// out\n        /* \"Example/\\xe3\\x85\\x87\\xe3\\x85\\x87.sol\":2134:2344  function bid(bytes32 _blindedBid) ... */\n    tag_67:\n        /* \"Example/\\xe3\\x85\\x87\\xe3\\x85\\x87.sol\":2200:2213  Phase.Bidding */\n      0x01\n        /* \"Example/\\xe3\\x85\\x87\\xe3\\x85\\x87.sol\":1315:1321  _phase */\n      dup1\n        /* \"Example/\\xe3\\x85\\x87\\xe3\\x85\\x87.sol\":1299:1321  currentPhase == _phase */\n      0x03\n      dup2\n      gt\n      iszero\n      tag_147\n      jumpi\n      tag_148\n      tag_86\n      jump\t// in\n    tag_148:\n    tag_147:\n        /* \"Example/\\xe3\\x85\\x87\\xe3\\x85\\x87.sol\":1299:1311  currentPhase */\n      0x01\n      0x14\n      swap1\n      sload\n      swap1\n      0x0100\n      exp\n      swap1\n      div\n      0xff\n      and\n        /* \"Example/\\xe3\\x85\\x87\\xe3\\x85\\x87.sol\":1299:1321  currentPhase == _phase */\n      0x03\n      dup2\n      gt\n      iszero\n      tag_149\n      jumpi\n      tag_150\n      tag_86\n      jump\t// in\n    tag_150:\n    tag_149:\n      eq\n        /* \"Example/\\xe3\\x85\\x87\\xe3\\x85\\x87.sol\":1291:1339  require(currentPhase == _phase, \"Invalid phase\") */\n      tag_151\n      jumpi\n      mload(0x40)\n      0x08c379a000000000000000000000000000000000000000000000000000000000\n      dup2\n      mstore\n      0x04\n      add\n      tag_152\n      swap1\n      tag_91\n      jump\t// in\n    tag_152:\n      mload(0x40)\n      dup1\n      swap2\n      sub\n      swap1\n      revert\n    tag_151:\n        /* \"Example/\\xe3\\x85\\x87\\xe3\\x85\\x87.sol\":2253:2337  Bid({... */\n      mload(0x40)\n      dup1\n      0x40\n      add\n      0x40\n      mstore\n      dup1\n        /* \"Example/\\xe3\\x85\\x87\\xe3\\x85\\x87.sol\":2283:2294  _blindedBid */\n      dup4\n        /* \"Example/\\xe3\\x85\\x87\\xe3\\x85\\x87.sol\":2253:2337  Bid({... */\n      dup2\n      mstore\n      0x20\n      add\n        /* \"Example/\\xe3\\x85\\x87\\xe3\\x85\\x87.sol\":2317:2326  msg.value */\n      callvalue\n        /* \"Example/\\xe3\\x85\\x87\\xe3\\x85\\x87.sol\":2253:2337  Bid({... */\n      dup2\n      mstore\n      pop\n        /* \"Example/\\xe3\\x85\\x87\\xe3\\x85\\x87.sol\":2234:2238  bids */\n      0x02\n        /* \"Example/\\xe3\\x85\\x87\\xe3\\x85\\x87.sol\":2234:2250  bids[msg.sender] */\n      0x00\n        /* \"Example/\\xe3\\x85\\x87\\xe3\\x85\\x87.sol\":2239:2249  msg.sender */\n      caller\n        /* \"Example/\\xe3\\x85\\x87\\xe3\\x85\\x87.sol\":2234:2250  bids[msg.sender] */\n      0xffffffffffffffffffffffffffffffffffffffff\n      and\n      0xffffffffffffffffffffffffffffffffffffffff\n      and\n      dup2\n      mstore\n      0x20\n      add\n      swap1\n      dup2\n      mstore\n      0x20\n      add\n      0x00\n      keccak256\n        /* \"Example/\\xe3\\x85\\x87\\xe3\\x85\\x87.sol\":2234:2337  bids[msg.sender] = Bid({... */\n      0x00\n      dup3\n      add\n      mload\n      dup2\n      0x00\n      add\n      sstore\n      0x20\n      dup3\n      add\n      mload\n      dup2\n      0x01\n      add\n      sstore\n      swap1\n      pop\n      pop\n        /* \"Example/\\xe3\\x85\\x87\\xe3\\x85\\x87.sol\":2134:2344  function bid(bytes32 _blindedBid) ... */\n      pop\n      pop\n      jump\t// out\n        /* \"Example/\\xe3\\x85\\x87\\xe3\\x85\\x87.sol\":1548:2105  function advancePhase() public onlyBeneficiary() {... */\n    tag_70:\n        /* \"Example/\\xe3\\x85\\x87\\xe3\\x85\\x87.sol\":1161:1172  beneficiary */\n      0x01\n      0x00\n      swap1\n      sload\n      swap1\n      0x0100\n      exp\n      swap1\n      div\n      0xffffffffffffffffffffffffffffffffffffffff\n      and\n        /* \"Example/\\xe3\\x85\\x87\\xe3\\x85\\x87.sol\":1147:1172  msg.sender == beneficiary */\n      0xffffffffffffffffffffffffffffffffffffffff\n      and\n        /* \"Example/\\xe3\\x85\\x87\\xe3\\x85\\x87.sol\":1147:1157  msg.sender */\n      caller\n        /* \"Example/\\xe3\\x85\\x87\\xe3\\x85\\x87.sol\":1147:1172  msg.sender == beneficiary */\n      0xffffffffffffffffffffffffffffffffffffffff\n      and\n      eq\n        /* \"Example/\\xe3\\x85\\x87\\xe3\\x85\\x87.sol\":1139:1207  require(msg.sender == beneficiary, \"Only beneficiary can call this\") */\n      tag_155\n      jumpi\n      mload(0x40)\n      0x08c379a000000000000000000000000000000000000000000000000000000000\n      dup2\n      mstore\n      0x04\n      add\n      tag_156\n      swap1\n      tag_82\n      jump\t// in\n    tag_156:\n      mload(0x40)\n      dup1\n      swap2\n      sub\n      swap1\n      revert\n    tag_155:\n        /* \"Example/\\xe3\\x85\\x87\\xe3\\x85\\x87.sol\":1627:1637  Phase.Done */\n      0x03\n        /* \"Example/\\xe3\\x85\\x87\\xe3\\x85\\x87.sol\":1611:1637  currentPhase == Phase.Done */\n      dup1\n      dup2\n      gt\n      iszero\n      tag_158\n      jumpi\n      tag_159\n      tag_86\n      jump\t// in\n    tag_159:\n    tag_158:\n        /* \"Example/\\xe3\\x85\\x87\\xe3\\x85\\x87.sol\":1611:1623  currentPhase */\n      0x01\n      0x14\n      swap1\n      sload\n      swap1\n      0x0100\n      exp\n      swap1\n      div\n      0xff\n      and\n        /* \"Example/\\xe3\\x85\\x87\\xe3\\x85\\x87.sol\":1611:1637  currentPhase == Phase.Done */\n      0x03\n      dup2\n      gt\n      iszero\n      tag_160\n      jumpi\n      tag_161\n      tag_86\n      jump\t// in\n    tag_161:\n    tag_160:\n      sub\n        /* \"Example/\\xe3\\x85\\x87\\xe3\\x85\\x87.sol\":1607:1695  if (currentPhase == Phase.Done) {... */\n      tag_162\n      jumpi\n        /* \"Example/\\xe3\\x85\\x87\\xe3\\x85\\x87.sol\":1653:1684  revert(\"Auction already ended\") */\n      mload(0x40)\n      0x08c379a000000000000000000000000000000000000000000000000000000000\n      dup2\n      mstore\n      0x04\n      add\n      tag_163\n      swap1\n      tag_164\n      jump\t// in\n    tag_163:\n      mload(0x40)\n      dup1\n      swap2\n      sub\n      swap1\n      revert\n        /* \"Example/\\xe3\\x85\\x87\\xe3\\x85\\x87.sol\":1607:1695  if (currentPhase == Phase.Done) {... */\n    tag_162:\n        /* \"Example/\\xe3\\x85\\x87\\xe3\\x85\\x87.sol\":1724:1734  Phase.Init */\n      0x00\n        /* \"Example/\\xe3\\x85\\x87\\xe3\\x85\\x87.sol\":1708:1734  currentPhase == Phase.Init */\n      0x03\n      dup2\n      gt\n      iszero\n      tag_165\n      jumpi\n      tag_166\n      tag_86\n      jump\t// in\n    tag_166:\n    tag_165:\n        /* \"Example/\\xe3\\x85\\x87\\xe3\\x85\\x87.sol\":1708:1720  currentPhase */\n      0x01\n      0x14\n      swap1\n      sload\n      swap1\n      0x0100\n      exp\n      swap1\n      div\n      0xff\n      and\n        /* \"Example/\\xe3\\x85\\x87\\xe3\\x85\\x87.sol\":1708:1734  currentPhase == Phase.Init */\n      0x03\n      dup2\n      gt\n      iszero\n      tag_167\n      jumpi\n      tag_168\n      tag_86\n      jump\t// in\n    tag_168:\n    tag_167:\n      sub\n        /* \"Example/\\xe3\\x85\\x87\\xe3\\x85\\x87.sol\":1704:2099  if (currentPhase == Phase.Init) {... */\n      tag_169\n      jumpi\n        /* \"Example/\\xe3\\x85\\x87\\xe3\\x85\\x87.sol\":1765:1778  Phase.Bidding */\n      0x01\n        /* \"Example/\\xe3\\x85\\x87\\xe3\\x85\\x87.sol\":1750:1762  currentPhase */\n      dup1\n      0x14\n        /* \"Example/\\xe3\\x85\\x87\\xe3\\x85\\x87.sol\":1750:1778  currentPhase = Phase.Bidding */\n      0x0100\n      exp\n      dup2\n      sload\n      dup2\n      0xff\n      mul\n      not\n      and\n      swap1\n      dup4\n      0x03\n      dup2\n      gt\n      iszero\n      tag_170\n      jumpi\n      tag_171\n      tag_86\n      jump\t// in\n    tag_171:\n    tag_170:\n      mul\n      or\n      swap1\n      sstore\n      pop\n        /* \"Example/\\xe3\\x85\\x87\\xe3\\x85\\x87.sol\":1797:1813  BiddingStarted() */\n      0x02c124e22ee7da1c9905bbb317cf67658c1cc3ea1c0953b1633f85d0b5c281d9\n      mload(0x40)\n      mload(0x40)\n      dup1\n      swap2\n      sub\n      swap1\n      log1\n        /* \"Example/\\xe3\\x85\\x87\\xe3\\x85\\x87.sol\":1704:2099  if (currentPhase == Phase.Init) {... */\n      jump(tag_172)\n    tag_169:\n        /* \"Example/\\xe3\\x85\\x87\\xe3\\x85\\x87.sol\":1850:1863  Phase.Bidding */\n      0x01\n        /* \"Example/\\xe3\\x85\\x87\\xe3\\x85\\x87.sol\":1834:1863  currentPhase == Phase.Bidding */\n      0x03\n      dup2\n      gt\n      iszero\n      tag_173\n      jumpi\n      tag_174\n      tag_86\n      jump\t// in\n    tag_174:\n    tag_173:\n        /* \"Example/\\xe3\\x85\\x87\\xe3\\x85\\x87.sol\":1834:1846  currentPhase */\n      0x01\n      0x14\n      swap1\n      sload\n      swap1\n      0x0100\n      exp\n      swap1\n      div\n      0xff\n      and\n        /* \"Example/\\xe3\\x85\\x87\\xe3\\x85\\x87.sol\":1834:1863  currentPhase == Phase.Bidding */\n      0x03\n      dup2\n      gt\n      iszero\n      tag_175\n      jumpi\n      tag_176\n      tag_86\n      jump\t// in\n    tag_176:\n    tag_175:\n      sub\n        /* \"Example/\\xe3\\x85\\x87\\xe3\\x85\\x87.sol\":1830:2099  if (currentPhase == Phase.Bidding) {... */\n      tag_177\n      jumpi\n        /* \"Example/\\xe3\\x85\\x87\\xe3\\x85\\x87.sol\":1894:1906  Phase.Reveal */\n      0x02\n        /* \"Example/\\xe3\\x85\\x87\\xe3\\x85\\x87.sol\":1879:1891  currentPhase */\n      0x01\n      0x14\n        /* \"Example/\\xe3\\x85\\x87\\xe3\\x85\\x87.sol\":1879:1906  currentPhase = Phase.Reveal */\n      0x0100\n      exp\n      dup2\n      sload\n      dup2\n      0xff\n      mul\n      not\n      and\n      swap1\n      dup4\n      0x03\n      dup2\n      gt\n      iszero\n      tag_178\n      jumpi\n      tag_179\n      tag_86\n      jump\t// in\n    tag_179:\n    tag_178:\n      mul\n      or\n      swap1\n      sstore\n      pop\n        /* \"Example/\\xe3\\x85\\x87\\xe3\\x85\\x87.sol\":1925:1940  RevealStarted() */\n      0x3bcc93d35219aa0512d7c0d1ca10b0231f473e3d5f9396877d1b7215ee0ab3d5\n      mload(0x40)\n      mload(0x40)\n      dup1\n      swap2\n      sub\n      swap1\n      log1\n        /* \"Example/\\xe3\\x85\\x87\\xe3\\x85\\x87.sol\":1830:2099  if (currentPhase == Phase.Bidding) {... */\n      jump(tag_180)\n    tag_177:\n        /* \"Example/\\xe3\\x85\\x87\\xe3\\x85\\x87.sol\":1977:1989  Phase.Reveal */\n      0x02\n        /* \"Example/\\xe3\\x85\\x87\\xe3\\x85\\x87.sol\":1961:1989  currentPhase == Phase.Reveal */\n      0x03\n      dup2\n      gt\n      iszero\n      tag_181\n      jumpi\n      tag_182\n      tag_86\n      jump\t// in\n    tag_182:\n    tag_181:\n        /* \"Example/\\xe3\\x85\\x87\\xe3\\x85\\x87.sol\":1961:1973  currentPhase */\n      0x01\n      0x14\n      swap1\n      sload\n      swap1\n      0x0100\n      exp\n      swap1\n      div\n      0xff\n      and\n        /* \"Example/\\xe3\\x85\\x87\\xe3\\x85\\x87.sol\":1961:1989  currentPhase == Phase.Reveal */\n      0x03\n      dup2\n      gt\n      iszero\n      tag_183\n      jumpi\n      tag_184\n      tag_86\n      jump\t// in\n    tag_184:\n    tag_183:\n      sub\n        /* \"Example/\\xe3\\x85\\x87\\xe3\\x85\\x87.sol\":1957:2099  if (currentPhase == Phase.Reveal) {... */\n      tag_185\n      jumpi\n        /* \"Example/\\xe3\\x85\\x87\\xe3\\x85\\x87.sol\":2020:2030  Phase.Done */\n      0x03\n        /* \"Example/\\xe3\\x85\\x87\\xe3\\x85\\x87.sol\":2005:2017  currentPhase */\n      0x01\n      0x14\n        /* \"Example/\\xe3\\x85\\x87\\xe3\\x85\\x87.sol\":2005:2030  currentPhase = Phase.Done */\n      0x0100\n      exp\n      dup2\n      sload\n      dup2\n      0xff\n      mul\n      not\n      and\n      swap1\n      dup4\n      0x03\n      dup2\n      gt\n      iszero\n      tag_186\n      jumpi\n      tag_187\n      tag_86\n      jump\t// in\n    tag_187:\n    tag_186:\n      mul\n      or\n      swap1\n      sstore\n      pop\n        /* \"Example/\\xe3\\x85\\x87\\xe3\\x85\\x87.sol\":2049:2088  AuctionEnded(highestBidder, highestBid) */\n      0xdaec4582d5d9595688c8c98545fdd1c696d41c6aeaeb636737e84ed2f5c00eda\n        /* \"Example/\\xe3\\x85\\x87\\xe3\\x85\\x87.sol\":2062:2075  highestBidder */\n      0x04\n      0x00\n      swap1\n      sload\n      swap1\n      0x0100\n      exp\n      swap1\n      div\n      0xffffffffffffffffffffffffffffffffffffffff\n      and\n        /* \"Example/\\xe3\\x85\\x87\\xe3\\x85\\x87.sol\":2077:2087  highestBid */\n      sload(0x05)\n        /* \"Example/\\xe3\\x85\\x87\\xe3\\x85\\x87.sol\":2049:2088  AuctionEnded(highestBidder, highestBid) */\n      mload(0x40)\n      tag_188\n      swap3\n      swap2\n      swap1\n      tag_97\n      jump\t// in\n    tag_188:\n      mload(0x40)\n      dup1\n      swap2\n      sub\n      swap1\n      log1\n        /* \"Example/\\xe3\\x85\\x87\\xe3\\x85\\x87.sol\":1957:2099  if (currentPhase == Phase.Reveal) {... */\n    tag_185:\n        /* \"Example/\\xe3\\x85\\x87\\xe3\\x85\\x87.sol\":1830:2099  if (currentPhase == Phase.Bidding) {... */\n    tag_180:\n        /* \"Example/\\xe3\\x85\\x87\\xe3\\x85\\x87.sol\":1704:2099  if (currentPhase == Phase.Init) {... */\n    tag_172:\n        /* \"Example/\\xe3\\x85\\x87\\xe3\\x85\\x87.sol\":1548:2105  function advancePhase() public onlyBeneficiary() {... */\n      jump\t// out\n        /* \"Example/\\xe3\\x85\\x87\\xe3\\x85\\x87.sol\":778:800  uint public highestBid */\n    tag_73:\n      sload(0x05)\n      dup2\n      jump\t// out\n        /* \"Example/\\xe3\\x85\\x87\\xe3\\x85\\x87.sol\":825:867  uint public minimumBidIncrement = 10 ether */\n    tag_77:\n      sload(0x06)\n      dup2\n      jump\t// out\n        /* \"#utility.yul\":7:187   */\n    tag_86:\n        /* \"#utility.yul\":55:132   */\n      0x4e487b7100000000000000000000000000000000000000000000000000000000\n        /* \"#utility.yul\":52:53   */\n      0x00\n        /* \"#utility.yul\":45:133   */\n      mstore\n        /* \"#utility.yul\":152:156   */\n      0x21\n        /* \"#utility.yul\":149:150   */\n      0x04\n        /* \"#utility.yul\":142:157   */\n      mstore\n        /* \"#utility.yul\":176:180   */\n      0x24\n        /* \"#utility.yul\":173:174   */\n      0x00\n        /* \"#utility.yul\":166:181   */\n      revert\n        /* \"#utility.yul\":193:306   */\n    tag_189:\n        /* \"#utility.yul\":274:275   */\n      0x04\n        /* \"#utility.yul\":267:272   */\n      dup2\n        /* \"#utility.yul\":264:276   */\n      lt\n        /* \"#utility.yul\":254:300   */\n      tag_232\n      jumpi\n        /* \"#utility.yul\":280:298   */\n      tag_233\n      tag_86\n      jump\t// in\n    tag_233:\n        /* \"#utility.yul\":254:300   */\n    tag_232:\n        /* \"#utility.yul\":193:306   */\n      pop\n      jump\t// out\n        /* \"#utility.yul\":312:439   */\n    tag_190:\n        /* \"#utility.yul\":357:364   */\n      0x00\n        /* \"#utility.yul\":386:391   */\n      dup2\n        /* \"#utility.yul\":375:391   */\n      swap1\n      pop\n        /* \"#utility.yul\":392:433   */\n      tag_235\n        /* \"#utility.yul\":427:432   */\n      dup3\n        /* \"#utility.yul\":392:433   */\n      tag_189\n      jump\t// in\n    tag_235:\n        /* \"#utility.yul\":312:439   */\n      swap2\n      swap1\n      pop\n      jump\t// out\n        /* \"#utility.yul\":445:572   */\n    tag_191:\n        /* \"#utility.yul\":501:510   */\n      0x00\n        /* \"#utility.yul\":534:566   */\n      tag_237\n        /* \"#utility.yul\":560:565   */\n      dup3\n        /* \"#utility.yul\":534:566   */\n      tag_190\n      jump\t// in\n    tag_237:\n        /* \"#utility.yul\":521:566   */\n      swap1\n      pop\n        /* \"#utility.yul\":445:572   */\n      swap2\n      swap1\n      pop\n      jump\t// out\n        /* \"#utility.yul\":578:721   */\n    tag_192:\n        /* \"#utility.yul\":671:714   */\n      tag_239\n        /* \"#utility.yul\":708:713   */\n      dup2\n        /* \"#utility.yul\":671:714   */\n      tag_191\n      jump\t// in\n    tag_239:\n        /* \"#utility.yul\":666:669   */\n      dup3\n        /* \"#utility.yul\":659:715   */\n      mstore\n        /* \"#utility.yul\":578:721   */\n      pop\n      pop\n      jump\t// out\n        /* \"#utility.yul\":727:961   */\n    tag_23:\n        /* \"#utility.yul\":826:830   */\n      0x00\n        /* \"#utility.yul\":864:866   */\n      0x20\n        /* \"#utility.yul\":853:862   */\n      dup3\n        /* \"#utility.yul\":849:867   */\n      add\n        /* \"#utility.yul\":841:867   */\n      swap1\n      pop\n        /* \"#utility.yul\":877:954   */\n      tag_241\n        /* \"#utility.yul\":951:952   */\n      0x00\n        /* \"#utility.yul\":940:949   */\n      dup4\n        /* \"#utility.yul\":936:953   */\n      add\n        /* \"#utility.yul\":927:933   */\n      dup5\n        /* \"#utility.yul\":877:954   */\n      tag_192\n      jump\t// in\n    tag_241:\n        /* \"#utility.yul\":727:961   */\n      swap3\n      swap2\n      pop\n      pop\n      jump\t// out\n        /* \"#utility.yul\":967:1093   */\n    tag_193:\n        /* \"#utility.yul\":1004:1011   */\n      0x00\n        /* \"#utility.yul\":1044:1086   */\n      0xffffffffffffffffffffffffffffffffffffffff\n        /* \"#utility.yul\":1037:1042   */\n      dup3\n        /* \"#utility.yul\":1033:1087   */\n      and\n        /* \"#utility.yul\":1022:1087   */\n      swap1\n      pop\n        /* \"#utility.yul\":967:1093   */\n      swap2\n      swap1\n      pop\n      jump\t// out\n        /* \"#utility.yul\":1099:1203   */\n    tag_194:\n        /* \"#utility.yul\":1144:1151   */\n      0x00\n        /* \"#utility.yul\":1173:1197   */\n      tag_244\n        /* \"#utility.yul\":1191:1196   */\n      dup3\n        /* \"#utility.yul\":1173:1197   */\n      tag_193\n      jump\t// in\n    tag_244:\n        /* \"#utility.yul\":1162:1197   */\n      swap1\n      pop\n        /* \"#utility.yul\":1099:1203   */\n      swap2\n      swap1\n      pop\n      jump\t// out\n        /* \"#utility.yul\":1209:1351   */\n    tag_195:\n        /* \"#utility.yul\":1312:1344   */\n      tag_246\n        /* \"#utility.yul\":1338:1343   */\n      dup2\n        /* \"#utility.yul\":1312:1344   */\n      tag_194\n      jump\t// in\n    tag_246:\n        /* \"#utility.yul\":1307:1310   */\n      dup3\n        /* \"#utility.yul\":1300:1345   */\n      mstore\n        /* \"#utility.yul\":1209:1351   */\n      pop\n      pop\n      jump\t// out\n        /* \"#utility.yul\":1357:1611   */\n    tag_31:\n        /* \"#utility.yul\":1466:1470   */\n      0x00\n        /* \"#utility.yul\":1504:1506   */\n      0x20\n        /* \"#utility.yul\":1493:1502   */\n      dup3\n        /* \"#utility.yul\":1489:1507   */\n      add\n        /* \"#utility.yul\":1481:1507   */\n      swap1\n      pop\n        /* \"#utility.yul\":1517:1604   */\n      tag_248\n        /* \"#utility.yul\":1601:1602   */\n      0x00\n        /* \"#utility.yul\":1590:1599   */\n      dup4\n        /* \"#utility.yul\":1586:1603   */\n      add\n        /* \"#utility.yul\":1577:1583   */\n      dup5\n        /* \"#utility.yul\":1517:1604   */\n      tag_195\n      jump\t// in\n    tag_248:\n        /* \"#utility.yul\":1357:1611   */\n      swap3\n      swap2\n      pop\n      pop\n      jump\t// out\n        /* \"#utility.yul\":1698:1815   */\n    tag_197:\n        /* \"#utility.yul\":1807:1808   */\n      0x00\n        /* \"#utility.yul\":1804:1805   */\n      dup1\n        /* \"#utility.yul\":1797:1809   */\n      revert\n        /* \"#utility.yul\":1944:2021   */\n    tag_199:\n        /* \"#utility.yul\":1981:1988   */\n      0x00\n        /* \"#utility.yul\":2010:2015   */\n      dup2\n        /* \"#utility.yul\":1999:2015   */\n      swap1\n      pop\n        /* \"#utility.yul\":1944:2021   */\n      swap2\n      swap1\n      pop\n      jump\t// out\n        /* \"#utility.yul\":2027:2149   */\n    tag_200:\n        /* \"#utility.yul\":2100:2124   */\n      tag_254\n        /* \"#utility.yul\":2118:2123   */\n      dup2\n        /* \"#utility.yul\":2100:2124   */\n      tag_199\n      jump\t// in\n    tag_254:\n        /* \"#utility.yul\":2093:2098   */\n      dup2\n        /* \"#utility.yul\":2090:2125   */\n      eq\n        /* \"#utility.yul\":2080:2143   */\n      tag_255\n      jumpi\n        /* \"#utility.yul\":2139:2140   */\n      0x00\n        /* \"#utility.yul\":2136:2137   */\n      dup1\n        /* \"#utility.yul\":2129:2141   */\n      revert\n        /* \"#utility.yul\":2080:2143   */\n    tag_255:\n        /* \"#utility.yul\":2027:2149   */\n      pop\n      jump\t// out\n        /* \"#utility.yul\":2155:2294   */\n    tag_201:\n        /* \"#utility.yul\":2201:2206   */\n      0x00\n        /* \"#utility.yul\":2239:2245   */\n      dup2\n        /* \"#utility.yul\":2226:2246   */\n      calldataload\n        /* \"#utility.yul\":2217:2246   */\n      swap1\n      pop\n        /* \"#utility.yul\":2255:2288   */\n      tag_257\n        /* \"#utility.yul\":2282:2287   */\n      dup2\n        /* \"#utility.yul\":2255:2288   */\n      tag_200\n      jump\t// in\n    tag_257:\n        /* \"#utility.yul\":2155:2294   */\n      swap3\n      swap2\n      pop\n      pop\n      jump\t// out\n        /* \"#utility.yul\":2300:2377   */\n    tag_202:\n        /* \"#utility.yul\":2337:2344   */\n      0x00\n        /* \"#utility.yul\":2366:2371   */\n      dup2\n        /* \"#utility.yul\":2355:2371   */\n      swap1\n      pop\n        /* \"#utility.yul\":2300:2377   */\n      swap2\n      swap1\n      pop\n      jump\t// out\n        /* \"#utility.yul\":2383:2505   */\n    tag_203:\n        /* \"#utility.yul\":2456:2480   */\n      tag_260\n        /* \"#utility.yul\":2474:2479   */\n      dup2\n        /* \"#utility.yul\":2456:2480   */\n      tag_202\n      jump\t// in\n    tag_260:\n        /* \"#utility.yul\":2449:2454   */\n      dup2\n        /* \"#utility.yul\":2446:2481   */\n      eq\n        /* \"#utility.yul\":2436:2499   */\n      tag_261\n      jumpi\n        /* \"#utility.yul\":2495:2496   */\n      0x00\n        /* \"#utility.yul\":2492:2493   */\n      dup1\n        /* \"#utility.yul\":2485:2497   */\n      revert\n        /* \"#utility.yul\":2436:2499   */\n    tag_261:\n        /* \"#utility.yul\":2383:2505   */\n      pop\n      jump\t// out\n        /* \"#utility.yul\":2511:2650   */\n    tag_204:\n        /* \"#utility.yul\":2557:2562   */\n      0x00\n        /* \"#utility.yul\":2595:2601   */\n      dup2\n        /* \"#utility.yul\":2582:2602   */\n      calldataload\n        /* \"#utility.yul\":2573:2602   */\n      swap1\n      pop\n        /* \"#utility.yul\":2611:2644   */\n      tag_263\n        /* \"#utility.yul\":2638:2643   */\n      dup2\n        /* \"#utility.yul\":2611:2644   */\n      tag_203\n      jump\t// in\n    tag_263:\n        /* \"#utility.yul\":2511:2650   */\n      swap3\n      swap2\n      pop\n      pop\n      jump\t// out\n        /* \"#utility.yul\":2656:3130   */\n    tag_37:\n        /* \"#utility.yul\":2724:2730   */\n      0x00\n        /* \"#utility.yul\":2732:2738   */\n      dup1\n        /* \"#utility.yul\":2781:2783   */\n      0x40\n        /* \"#utility.yul\":2769:2778   */\n      dup4\n        /* \"#utility.yul\":2760:2767   */\n      dup6\n        /* \"#utility.yul\":2756:2779   */\n      sub\n        /* \"#utility.yul\":2752:2784   */\n      slt\n        /* \"#utility.yul\":2749:2868   */\n      iszero\n      tag_265\n      jumpi\n        /* \"#utility.yul\":2787:2866   */\n      tag_266\n      tag_197\n      jump\t// in\n    tag_266:\n        /* \"#utility.yul\":2749:2868   */\n    tag_265:\n        /* \"#utility.yul\":2907:2908   */\n      0x00\n        /* \"#utility.yul\":2932:2985   */\n      tag_267\n        /* \"#utility.yul\":2977:2984   */\n      dup6\n        /* \"#utility.yul\":2968:2974   */\n      dup3\n        /* \"#utility.yul\":2957:2966   */\n      dup7\n        /* \"#utility.yul\":2953:2975   */\n      add\n        /* \"#utility.yul\":2932:2985   */\n      tag_201\n      jump\t// in\n    tag_267:\n        /* \"#utility.yul\":2922:2985   */\n      swap3\n      pop\n        /* \"#utility.yul\":2878:2995   */\n      pop\n        /* \"#utility.yul\":3034:3036   */\n      0x20\n        /* \"#utility.yul\":3060:3113   */\n      tag_268\n        /* \"#utility.yul\":3105:3112   */\n      dup6\n        /* \"#utility.yul\":3096:3102   */\n      dup3\n        /* \"#utility.yul\":3085:3094   */\n      dup7\n        /* \"#utility.yul\":3081:3103   */\n      add\n        /* \"#utility.yul\":3060:3113   */\n      tag_204\n      jump\t// in\n    tag_268:\n        /* \"#utility.yul\":3050:3113   */\n      swap2\n      pop\n        /* \"#utility.yul\":3005:3123   */\n      pop\n        /* \"#utility.yul\":2656:3130   */\n      swap3\n      pop\n      swap3\n      swap1\n      pop\n      jump\t// out\n        /* \"#utility.yul\":3136:3232   */\n    tag_205:\n        /* \"#utility.yul\":3173:3180   */\n      0x00\n        /* \"#utility.yul\":3202:3226   */\n      tag_270\n        /* \"#utility.yul\":3220:3225   */\n      dup3\n        /* \"#utility.yul\":3202:3226   */\n      tag_193\n      jump\t// in\n    tag_270:\n        /* \"#utility.yul\":3191:3226   */\n      swap1\n      pop\n        /* \"#utility.yul\":3136:3232   */\n      swap2\n      swap1\n      pop\n      jump\t// out\n        /* \"#utility.yul\":3238:3360   */\n    tag_206:\n        /* \"#utility.yul\":3311:3335   */\n      tag_272\n        /* \"#utility.yul\":3329:3334   */\n      dup2\n        /* \"#utility.yul\":3311:3335   */\n      tag_205\n      jump\t// in\n    tag_272:\n        /* \"#utility.yul\":3304:3309   */\n      dup2\n        /* \"#utility.yul\":3301:3336   */\n      eq\n        /* \"#utility.yul\":3291:3354   */\n      tag_273\n      jumpi\n        /* \"#utility.yul\":3350:3351   */\n      0x00\n        /* \"#utility.yul\":3347:3348   */\n      dup1\n        /* \"#utility.yul\":3340:3352   */\n      revert\n        /* \"#utility.yul\":3291:3354   */\n    tag_273:\n        /* \"#utility.yul\":3238:3360   */\n      pop\n      jump\t// out\n        /* \"#utility.yul\":3366:3505   */\n    tag_207:\n        /* \"#utility.yul\":3412:3417   */\n      0x00\n        /* \"#utility.yul\":3450:3456   */\n      dup2\n        /* \"#utility.yul\":3437:3457   */\n      calldataload\n        /* \"#utility.yul\":3428:3457   */\n      swap1\n      pop\n        /* \"#utility.yul\":3466:3499   */\n      tag_275\n        /* \"#utility.yul\":3493:3498   */\n      dup2\n        /* \"#utility.yul\":3466:3499   */\n      tag_206\n      jump\t// in\n    tag_275:\n        /* \"#utility.yul\":3366:3505   */\n      swap3\n      swap2\n      pop\n      pop\n      jump\t// out\n        /* \"#utility.yul\":3511:3840   */\n    tag_42:\n        /* \"#utility.yul\":3570:3576   */\n      0x00\n        /* \"#utility.yul\":3619:3621   */\n      0x20\n        /* \"#utility.yul\":3607:3616   */\n      dup3\n        /* \"#utility.yul\":3598:3605   */\n      dup5\n        /* \"#utility.yul\":3594:3617   */\n      sub\n        /* \"#utility.yul\":3590:3622   */\n      slt\n        /* \"#utility.yul\":3587:3706   */\n      iszero\n      tag_277\n      jumpi\n        /* \"#utility.yul\":3625:3704   */\n      tag_278\n      tag_197\n      jump\t// in\n    tag_278:\n        /* \"#utility.yul\":3587:3706   */\n    tag_277:\n        /* \"#utility.yul\":3745:3746   */\n      0x00\n        /* \"#utility.yul\":3770:3823   */\n      tag_279\n        /* \"#utility.yul\":3815:3822   */\n      dup5\n        /* \"#utility.yul\":3806:3812   */\n      dup3\n        /* \"#utility.yul\":3795:3804   */\n      dup6\n        /* \"#utility.yul\":3791:3813   */\n      add\n        /* \"#utility.yul\":3770:3823   */\n      tag_207\n      jump\t// in\n    tag_279:\n        /* \"#utility.yul\":3760:3823   */\n      swap2\n      pop\n        /* \"#utility.yul\":3716:3833   */\n      pop\n        /* \"#utility.yul\":3511:3840   */\n      swap3\n      swap2\n      pop\n      pop\n      jump\t// out\n        /* \"#utility.yul\":3846:3964   */\n    tag_208:\n        /* \"#utility.yul\":3933:3957   */\n      tag_281\n        /* \"#utility.yul\":3951:3956   */\n      dup2\n        /* \"#utility.yul\":3933:3957   */\n      tag_202\n      jump\t// in\n    tag_281:\n        /* \"#utility.yul\":3928:3931   */\n      dup3\n        /* \"#utility.yul\":3921:3958   */\n      mstore\n        /* \"#utility.yul\":3846:3964   */\n      pop\n      pop\n      jump\t// out\n        /* \"#utility.yul\":3970:4088   */\n    tag_209:\n        /* \"#utility.yul\":4057:4081   */\n      tag_283\n        /* \"#utility.yul\":4075:4080   */\n      dup2\n        /* \"#utility.yul\":4057:4081   */\n      tag_199\n      jump\t// in\n    tag_283:\n        /* \"#utility.yul\":4052:4055   */\n      dup3\n        /* \"#utility.yul\":4045:4082   */\n      mstore\n        /* \"#utility.yul\":3970:4088   */\n      pop\n      pop\n      jump\t// out\n        /* \"#utility.yul\":4094:4426   */\n    tag_45:\n        /* \"#utility.yul\":4215:4219   */\n      0x00\n        /* \"#utility.yul\":4253:4255   */\n      0x40\n        /* \"#utility.yul\":4242:4251   */\n      dup3\n        /* \"#utility.yul\":4238:4256   */\n      add\n        /* \"#utility.yul\":4230:4256   */\n      swap1\n      pop\n        /* \"#utility.yul\":4266:4337   */\n      tag_285\n        /* \"#utility.yul\":4334:4335   */\n      0x00\n        /* \"#utility.yul\":4323:4332   */\n      dup4\n        /* \"#utility.yul\":4319:4336   */\n      add\n        /* \"#utility.yul\":4310:4316   */\n      dup6\n        /* \"#utility.yul\":4266:4337   */\n      tag_208\n      jump\t// in\n    tag_285:\n        /* \"#utility.yul\":4347:4419   */\n      tag_286\n        /* \"#utility.yul\":4415:4417   */\n      0x20\n        /* \"#utility.yul\":4404:4413   */\n      dup4\n        /* \"#utility.yul\":4400:4418   */\n      add\n        /* \"#utility.yul\":4391:4397   */\n      dup5\n        /* \"#utility.yul\":4347:4419   */\n      tag_209\n      jump\t// in\n    tag_286:\n        /* \"#utility.yul\":4094:4426   */\n      swap4\n      swap3\n      pop\n      pop\n      pop\n      jump\t// out\n        /* \"#utility.yul\":4432:4492   */\n    tag_210:\n        /* \"#utility.yul\":4460:4463   */\n      0x00\n        /* \"#utility.yul\":4481:4486   */\n      dup2\n        /* \"#utility.yul\":4474:4486   */\n      swap1\n      pop\n        /* \"#utility.yul\":4432:4492   */\n      swap2\n      swap1\n      pop\n      jump\t// out\n        /* \"#utility.yul\":4498:4640   */\n    tag_211:\n        /* \"#utility.yul\":4548:4557   */\n      0x00\n        /* \"#utility.yul\":4581:4634   */\n      tag_289\n        /* \"#utility.yul\":4599:4633   */\n      tag_290\n        /* \"#utility.yul\":4608:4632   */\n      tag_291\n        /* \"#utility.yul\":4626:4631   */\n      dup5\n        /* \"#utility.yul\":4608:4632   */\n      tag_193\n      jump\t// in\n    tag_291:\n        /* \"#utility.yul\":4599:4633   */\n      tag_210\n      jump\t// in\n    tag_290:\n        /* \"#utility.yul\":4581:4634   */\n      tag_193\n      jump\t// in\n    tag_289:\n        /* \"#utility.yul\":4568:4634   */\n      swap1\n      pop\n        /* \"#utility.yul\":4498:4640   */\n      swap2\n      swap1\n      pop\n      jump\t// out\n        /* \"#utility.yul\":4646:4772   */\n    tag_212:\n        /* \"#utility.yul\":4696:4705   */\n      0x00\n        /* \"#utility.yul\":4729:4766   */\n      tag_293\n        /* \"#utility.yul\":4760:4765   */\n      dup3\n        /* \"#utility.yul\":4729:4766   */\n      tag_211\n      jump\t// in\n    tag_293:\n        /* \"#utility.yul\":4716:4766   */\n      swap1\n      pop\n        /* \"#utility.yul\":4646:4772   */\n      swap2\n      swap1\n      pop\n      jump\t// out\n        /* \"#utility.yul\":4778:4916   */\n    tag_213:\n        /* \"#utility.yul\":4840:4849   */\n      0x00\n        /* \"#utility.yul\":4873:4910   */\n      tag_295\n        /* \"#utility.yul\":4904:4909   */\n      dup3\n        /* \"#utility.yul\":4873:4910   */\n      tag_212\n      jump\t// in\n    tag_295:\n        /* \"#utility.yul\":4860:4910   */\n      swap1\n      pop\n        /* \"#utility.yul\":4778:4916   */\n      swap2\n      swap1\n      pop\n      jump\t// out\n        /* \"#utility.yul\":4922:5077   */\n    tag_214:\n        /* \"#utility.yul\":5021:5070   */\n      tag_297\n        /* \"#utility.yul\":5064:5069   */\n      dup2\n        /* \"#utility.yul\":5021:5070   */\n      tag_213\n      jump\t// in\n    tag_297:\n        /* \"#utility.yul\":5016:5019   */\n      dup3\n        /* \"#utility.yul\":5009:5071   */\n      mstore\n        /* \"#utility.yul\":4922:5077   */\n      pop\n      pop\n      jump\t// out\n        /* \"#utility.yul\":5083:5329   */\n    tag_50:\n        /* \"#utility.yul\":5188:5192   */\n      0x00\n        /* \"#utility.yul\":5226:5228   */\n      0x20\n        /* \"#utility.yul\":5215:5224   */\n      dup3\n        /* \"#utility.yul\":5211:5229   */\n      add\n        /* \"#utility.yul\":5203:5229   */\n      swap1\n      pop\n        /* \"#utility.yul\":5239:5322   */\n      tag_299\n        /* \"#utility.yul\":5319:5320   */\n      0x00\n        /* \"#utility.yul\":5308:5317   */\n      dup4\n        /* \"#utility.yul\":5304:5321   */\n      add\n        /* \"#utility.yul\":5295:5301   */\n      dup5\n        /* \"#utility.yul\":5239:5322   */\n      tag_214\n      jump\t// in\n    tag_299:\n        /* \"#utility.yul\":5083:5329   */\n      swap3\n      swap2\n      pop\n      pop\n      jump\t// out\n        /* \"#utility.yul\":5335:5453   */\n    tag_215:\n        /* \"#utility.yul\":5422:5446   */\n      tag_301\n        /* \"#utility.yul\":5440:5445   */\n      dup2\n        /* \"#utility.yul\":5422:5446   */\n      tag_205\n      jump\t// in\n    tag_301:\n        /* \"#utility.yul\":5417:5420   */\n      dup3\n        /* \"#utility.yul\":5410:5447   */\n      mstore\n        /* \"#utility.yul\":5335:5453   */\n      pop\n      pop\n      jump\t// out\n        /* \"#utility.yul\":5459:5681   */\n    tag_55:\n        /* \"#utility.yul\":5552:5556   */\n      0x00\n        /* \"#utility.yul\":5590:5592   */\n      0x20\n        /* \"#utility.yul\":5579:5588   */\n      dup3\n        /* \"#utility.yul\":5575:5593   */\n      add\n        /* \"#utility.yul\":5567:5593   */\n      swap1\n      pop\n        /* \"#utility.yul\":5603:5674   */\n      tag_303\n        /* \"#utility.yul\":5671:5672   */\n      0x00\n        /* \"#utility.yul\":5660:5669   */\n      dup4\n        /* \"#utility.yul\":5656:5673   */\n      add\n        /* \"#utility.yul\":5647:5653   */\n      dup5\n        /* \"#utility.yul\":5603:5674   */\n      tag_215\n      jump\t// in\n    tag_303:\n        /* \"#utility.yul\":5459:5681   */\n      swap3\n      swap2\n      pop\n      pop\n      jump\t// out\n        /* \"#utility.yul\":5687:5909   */\n    tag_63:\n        /* \"#utility.yul\":5780:5784   */\n      0x00\n        /* \"#utility.yul\":5818:5820   */\n      0x20\n        /* \"#utility.yul\":5807:5816   */\n      dup3\n        /* \"#utility.yul\":5803:5821   */\n      add\n        /* \"#utility.yul\":5795:5821   */\n      swap1\n      pop\n        /* \"#utility.yul\":5831:5902   */\n      tag_305\n        /* \"#utility.yul\":5899:5900   */\n      0x00\n        /* \"#utility.yul\":5888:5897   */\n      dup4\n        /* \"#utility.yul\":5884:5901   */\n      add\n        /* \"#utility.yul\":5875:5881   */\n      dup5\n        /* \"#utility.yul\":5831:5902   */\n      tag_209\n      jump\t// in\n    tag_305:\n        /* \"#utility.yul\":5687:5909   */\n      swap3\n      swap2\n      pop\n      pop\n      jump\t// out\n        /* \"#utility.yul\":5915:6244   */\n    tag_66:\n        /* \"#utility.yul\":5974:5980   */\n      0x00\n        /* \"#utility.yul\":6023:6025   */\n      0x20\n        /* \"#utility.yul\":6011:6020   */\n      dup3\n        /* \"#utility.yul\":6002:6009   */\n      dup5\n        /* \"#utility.yul\":5998:6021   */\n      sub\n        /* \"#utility.yul\":5994:6026   */\n      slt\n        /* \"#utility.yul\":5991:6110   */\n      iszero\n      tag_307\n      jumpi\n        /* \"#utility.yul\":6029:6108   */\n      tag_308\n      tag_197\n      jump\t// in\n    tag_308:\n        /* \"#utility.yul\":5991:6110   */\n    tag_307:\n        /* \"#utility.yul\":6149:6150   */\n      0x00\n        /* \"#utility.yul\":6174:6227   */\n      tag_309\n        /* \"#utility.yul\":6219:6226   */\n      dup5\n        /* \"#utility.yul\":6210:6216   */\n      dup3\n        /* \"#utility.yul\":6199:6208   */\n      dup6\n        /* \"#utility.yul\":6195:6217   */\n      add\n        /* \"#utility.yul\":6174:6227   */\n      tag_204\n      jump\t// in\n    tag_309:\n        /* \"#utility.yul\":6164:6227   */\n      swap2\n      pop\n        /* \"#utility.yul\":6120:6237   */\n      pop\n        /* \"#utility.yul\":5915:6244   */\n      swap3\n      swap2\n      pop\n      pop\n      jump\t// out\n        /* \"#utility.yul\":6250:6419   */\n    tag_216:\n        /* \"#utility.yul\":6334:6345   */\n      0x00\n        /* \"#utility.yul\":6368:6374   */\n      dup3\n        /* \"#utility.yul\":6363:6366   */\n      dup3\n        /* \"#utility.yul\":6356:6375   */\n      mstore\n        /* \"#utility.yul\":6408:6412   */\n      0x20\n        /* \"#utility.yul\":6403:6406   */\n      dup3\n        /* \"#utility.yul\":6399:6413   */\n      add\n        /* \"#utility.yul\":6384:6413   */\n      swap1\n      pop\n        /* \"#utility.yul\":6250:6419   */\n      swap3\n      swap2\n      pop\n      pop\n      jump\t// out\n        /* \"#utility.yul\":6425:6605   */\n    tag_217:\n        /* \"#utility.yul\":6565:6597   */\n      0x4f6e6c792062656e65666963696172792063616e2063616c6c20746869730000\n        /* \"#utility.yul\":6561:6562   */\n      0x00\n        /* \"#utility.yul\":6553:6559   */\n      dup3\n        /* \"#utility.yul\":6549:6563   */\n      add\n        /* \"#utility.yul\":6542:6598   */\n      mstore\n        /* \"#utility.yul\":6425:6605   */\n      pop\n      jump\t// out\n        /* \"#utility.yul\":6611:6977   */\n    tag_218:\n        /* \"#utility.yul\":6753:6756   */\n      0x00\n        /* \"#utility.yul\":6774:6841   */\n      tag_313\n        /* \"#utility.yul\":6838:6840   */\n      0x1e\n        /* \"#utility.yul\":6833:6836   */\n      dup4\n        /* \"#utility.yul\":6774:6841   */\n      tag_216\n      jump\t// in\n    tag_313:\n        /* \"#utility.yul\":6767:6841   */\n      swap2\n      pop\n        /* \"#utility.yul\":6850:6943   */\n      tag_314\n        /* \"#utility.yul\":6939:6942   */\n      dup3\n        /* \"#utility.yul\":6850:6943   */\n      tag_217\n      jump\t// in\n    tag_314:\n        /* \"#utility.yul\":6968:6970   */\n      0x20\n        /* \"#utility.yul\":6963:6966   */\n      dup3\n        /* \"#utility.yul\":6959:6971   */\n      add\n        /* \"#utility.yul\":6952:6971   */\n      swap1\n      pop\n        /* \"#utility.yul\":6611:6977   */\n      swap2\n      swap1\n      pop\n      jump\t// out\n        /* \"#utility.yul\":6983:7402   */\n    tag_82:\n        /* \"#utility.yul\":7149:7153   */\n      0x00\n        /* \"#utility.yul\":7187:7189   */\n      0x20\n        /* \"#utility.yul\":7176:7185   */\n      dup3\n        /* \"#utility.yul\":7172:7190   */\n      add\n        /* \"#utility.yul\":7164:7190   */\n      swap1\n      pop\n        /* \"#utility.yul\":7236:7245   */\n      dup2\n        /* \"#utility.yul\":7230:7234   */\n      dup2\n        /* \"#utility.yul\":7226:7246   */\n      sub\n        /* \"#utility.yul\":7222:7223   */\n      0x00\n        /* \"#utility.yul\":7211:7220   */\n      dup4\n        /* \"#utility.yul\":7207:7224   */\n      add\n        /* \"#utility.yul\":7200:7247   */\n      mstore\n        /* \"#utility.yul\":7264:7395   */\n      tag_316\n        /* \"#utility.yul\":7390:7394   */\n      dup2\n        /* \"#utility.yul\":7264:7395   */\n      tag_218\n      jump\t// in\n    tag_316:\n        /* \"#utility.yul\":7256:7395   */\n      swap1\n      pop\n        /* \"#utility.yul\":6983:7402   */\n      swap2\n      swap1\n      pop\n      jump\t// out\n        /* \"#utility.yul\":7408:7571   */\n    tag_219:\n        /* \"#utility.yul\":7548:7563   */\n      0x496e76616c696420706861736500000000000000000000000000000000000000\n        /* \"#utility.yul\":7544:7545   */\n      0x00\n        /* \"#utility.yul\":7536:7542   */\n      dup3\n        /* \"#utility.yul\":7532:7546   */\n      add\n        /* \"#utility.yul\":7525:7564   */\n      mstore\n        /* \"#utility.yul\":7408:7571   */\n      pop\n      jump\t// out\n        /* \"#utility.yul\":7577:7943   */\n    tag_220:\n        /* \"#utility.yul\":7719:7722   */\n      0x00\n        /* \"#utility.yul\":7740:7807   */\n      tag_319\n        /* \"#utility.yul\":7804:7806   */\n      0x0d\n        /* \"#utility.yul\":7799:7802   */\n      dup4\n        /* \"#utility.yul\":7740:7807   */\n      tag_216\n      jump\t// in\n    tag_319:\n        /* \"#utility.yul\":7733:7807   */\n      swap2\n      pop\n        /* \"#utility.yul\":7816:7909   */\n      tag_320\n        /* \"#utility.yul\":7905:7908   */\n      dup3\n        /* \"#utility.yul\":7816:7909   */\n      tag_219\n      jump\t// in\n    tag_320:\n        /* \"#utility.yul\":7934:7936   */\n      0x20\n        /* \"#utility.yul\":7929:7932   */\n      dup3\n        /* \"#utility.yul\":7925:7937   */\n      add\n        /* \"#utility.yul\":7918:7937   */\n      swap1\n      pop\n        /* \"#utility.yul\":7577:7943   */\n      swap2\n      swap1\n      pop\n      jump\t// out\n        /* \"#utility.yul\":7949:8368   */\n    tag_91:\n        /* \"#utility.yul\":8115:8119   */\n      0x00\n        /* \"#utility.yul\":8153:8155   */\n      0x20\n        /* \"#utility.yul\":8142:8151   */\n      dup3\n        /* \"#utility.yul\":8138:8156   */\n      add\n        /* \"#utility.yul\":8130:8156   */\n      swap1\n      pop\n        /* \"#utility.yul\":8202:8211   */\n      dup2\n        /* \"#utility.yul\":8196:8200   */\n      dup2\n        /* \"#utility.yul\":8192:8212   */\n      sub\n        /* \"#utility.yul\":8188:8189   */\n      0x00\n        /* \"#utility.yul\":8177:8186   */\n      dup4\n        /* \"#utility.yul\":8173:8190   */\n      add\n        /* \"#utility.yul\":8166:8213   */\n      mstore\n        /* \"#utility.yul\":8230:8361   */\n      tag_322\n        /* \"#utility.yul\":8356:8360   */\n      dup2\n        /* \"#utility.yul\":8230:8361   */\n      tag_220\n      jump\t// in\n    tag_322:\n        /* \"#utility.yul\":8222:8361   */\n      swap1\n      pop\n        /* \"#utility.yul\":7949:8368   */\n      swap2\n      swap1\n      pop\n      jump\t// out\n        /* \"#utility.yul\":8374:8706   */\n    tag_97:\n        /* \"#utility.yul\":8495:8499   */\n      0x00\n        /* \"#utility.yul\":8533:8535   */\n      0x40\n        /* \"#utility.yul\":8522:8531   */\n      dup3\n        /* \"#utility.yul\":8518:8536   */\n      add\n        /* \"#utility.yul\":8510:8536   */\n      swap1\n      pop\n        /* \"#utility.yul\":8546:8617   */\n      tag_324\n        /* \"#utility.yul\":8614:8615   */\n      0x00\n        /* \"#utility.yul\":8603:8612   */\n      dup4\n        /* \"#utility.yul\":8599:8616   */\n      add\n        /* \"#utility.yul\":8590:8596   */\n      dup6\n        /* \"#utility.yul\":8546:8617   */\n      tag_215\n      jump\t// in\n    tag_324:\n        /* \"#utility.yul\":8627:8699   */\n      tag_325\n        /* \"#utility.yul\":8695:8697   */\n      0x20\n        /* \"#utility.yul\":8684:8693   */\n      dup4\n        /* \"#utility.yul\":8680:8698   */\n      add\n        /* \"#utility.yul\":8671:8677   */\n      dup5\n        /* \"#utility.yul\":8627:8699   */\n      tag_209\n      jump\t// in\n    tag_325:\n        /* \"#utility.yul\":8374:8706   */\n      swap4\n      swap3\n      pop\n      pop\n      pop\n      jump\t// out\n        /* \"#utility.yul\":8712:9044   */\n    tag_111:\n        /* \"#utility.yul\":8833:8837   */\n      0x00\n        /* \"#utility.yul\":8871:8873   */\n      0x40\n        /* \"#utility.yul\":8860:8869   */\n      dup3\n        /* \"#utility.yul\":8856:8874   */\n      add\n        /* \"#utility.yul\":8848:8874   */\n      swap1\n      pop\n        /* \"#utility.yul\":8884:8955   */\n      tag_327\n        /* \"#utility.yul\":8952:8953   */\n      0x00\n        /* \"#utility.yul\":8941:8950   */\n      dup4\n        /* \"#utility.yul\":8937:8954   */\n      add\n        /* \"#utility.yul\":8928:8934   */\n      dup6\n        /* \"#utility.yul\":8884:8955   */\n      tag_209\n      jump\t// in\n    tag_327:\n        /* \"#utility.yul\":8965:9037   */\n      tag_328\n        /* \"#utility.yul\":9033:9035   */\n      0x20\n        /* \"#utility.yul\":9022:9031   */\n      dup4\n        /* \"#utility.yul\":9018:9036   */\n      add\n        /* \"#utility.yul\":9009:9015   */\n      dup5\n        /* \"#utility.yul\":8965:9037   */\n      tag_208\n      jump\t// in\n    tag_328:\n        /* \"#utility.yul\":8712:9044   */\n      swap4\n      swap3\n      pop\n      pop\n      pop\n      jump\t// out\n        /* \"#utility.yul\":9050:9193   */\n    tag_221:\n        /* \"#utility.yul\":9107:9112   */\n      0x00\n        /* \"#utility.yul\":9138:9144   */\n      dup2\n        /* \"#utility.yul\":9132:9145   */\n      mload\n        /* \"#utility.yul\":9123:9145   */\n      swap1\n      pop\n        /* \"#utility.yul\":9154:9187   */\n      tag_330\n        /* \"#utility.yul\":9181:9186   */\n      dup2\n        /* \"#utility.yul\":9154:9187   */\n      tag_203\n      jump\t// in\n    tag_330:\n        /* \"#utility.yul\":9050:9193   */\n      swap3\n      swap2\n      pop\n      pop\n      jump\t// out\n        /* \"#utility.yul\":9199:9550   */\n    tag_115:\n        /* \"#utility.yul\":9269:9275   */\n      0x00\n        /* \"#utility.yul\":9318:9320   */\n      0x20\n        /* \"#utility.yul\":9306:9315   */\n      dup3\n        /* \"#utility.yul\":9297:9304   */\n      dup5\n        /* \"#utility.yul\":9293:9316   */\n      sub\n        /* \"#utility.yul\":9289:9321   */\n      slt\n        /* \"#utility.yul\":9286:9405   */\n      iszero\n      tag_332\n      jumpi\n        /* \"#utility.yul\":9324:9403   */\n      tag_333\n      tag_197\n      jump\t// in\n    tag_333:\n        /* \"#utility.yul\":9286:9405   */\n    tag_332:\n        /* \"#utility.yul\":9444:9445   */\n      0x00\n        /* \"#utility.yul\":9469:9533   */\n      tag_334\n        /* \"#utility.yul\":9525:9532   */\n      dup5\n        /* \"#utility.yul\":9516:9522   */\n      dup3\n        /* \"#utility.yul\":9505:9514   */\n      dup6\n        /* \"#utility.yul\":9501:9523   */\n      add\n        /* \"#utility.yul\":9469:9533   */\n      tag_221\n      jump\t// in\n    tag_334:\n        /* \"#utility.yul\":9459:9533   */\n      swap2\n      pop\n        /* \"#utility.yul\":9415:9543   */\n      pop\n        /* \"#utility.yul\":9199:9550   */\n      swap3\n      swap2\n      pop\n      pop\n      jump\t// out\n        /* \"#utility.yul\":9556:9736   */\n    tag_222:\n        /* \"#utility.yul\":9604:9681   */\n      0x4e487b7100000000000000000000000000000000000000000000000000000000\n        /* \"#utility.yul\":9601:9602   */\n      0x00\n        /* \"#utility.yul\":9594:9682   */\n      mstore\n        /* \"#utility.yul\":9701:9705   */\n      0x11\n        /* \"#utility.yul\":9698:9699   */\n      0x04\n        /* \"#utility.yul\":9691:9706   */\n      mstore\n        /* \"#utility.yul\":9725:9729   */\n      0x24\n        /* \"#utility.yul\":9722:9723   */\n      0x00\n        /* \"#utility.yul\":9715:9730   */\n      revert\n        /* \"#utility.yul\":9742:9933   */\n    tag_117:\n        /* \"#utility.yul\":9782:9785   */\n      0x00\n        /* \"#utility.yul\":9801:9821   */\n      tag_337\n        /* \"#utility.yul\":9819:9820   */\n      dup3\n        /* \"#utility.yul\":9801:9821   */\n      tag_199\n      jump\t// in\n    tag_337:\n        /* \"#utility.yul\":9796:9821   */\n      swap2\n      pop\n        /* \"#utility.yul\":9835:9855   */\n      tag_338\n        /* \"#utility.yul\":9853:9854   */\n      dup4\n        /* \"#utility.yul\":9835:9855   */\n      tag_199\n      jump\t// in\n    tag_338:\n        /* \"#utility.yul\":9830:9855   */\n      swap3\n      pop\n        /* \"#utility.yul\":9878:9879   */\n      dup3\n        /* \"#utility.yul\":9875:9876   */\n      dup3\n        /* \"#utility.yul\":9871:9880   */\n      add\n        /* \"#utility.yul\":9864:9880   */\n      swap1\n      pop\n        /* \"#utility.yul\":9899:9902   */\n      dup1\n        /* \"#utility.yul\":9896:9897   */\n      dup3\n        /* \"#utility.yul\":9893:9903   */\n      gt\n        /* \"#utility.yul\":9890:9926   */\n      iszero\n      tag_339\n      jumpi\n        /* \"#utility.yul\":9906:9924   */\n      tag_340\n      tag_222\n      jump\t// in\n    tag_340:\n        /* \"#utility.yul\":9890:9926   */\n    tag_339:\n        /* \"#utility.yul\":9742:9933   */\n      swap3\n      swap2\n      pop\n      pop\n      jump\t// out\n        /* \"#utility.yul\":9939:10233   */\n    tag_223:\n        /* \"#utility.yul\":10079:10113   */\n      0x426964206d75737420626520686967686572207468616e207468652063757272\n        /* \"#utility.yul\":10075:10076   */\n      0x00\n        /* \"#utility.yul\":10067:10073   */\n      dup3\n        /* \"#utility.yul\":10063:10077   */\n      add\n        /* \"#utility.yul\":10056:10114   */\n      mstore\n        /* \"#utility.yul\":10148:10182   */\n      0x656e7420686967686573742062696420706c7573206d696e696d756d20696e63\n        /* \"#utility.yul\":10143:10145   */\n      0x20\n        /* \"#utility.yul\":10135:10141   */\n      dup3\n        /* \"#utility.yul\":10131:10146   */\n      add\n        /* \"#utility.yul\":10124:10183   */\n      mstore\n        /* \"#utility.yul\":10217:10225   */\n      0x72656d656e740000000000000000000000000000000000000000000000000000\n        /* \"#utility.yul\":10212:10214   */\n      0x40\n        /* \"#utility.yul\":10204:10210   */\n      dup3\n        /* \"#utility.yul\":10200:10215   */\n      add\n        /* \"#utility.yul\":10193:10226   */\n      mstore\n        /* \"#utility.yul\":9939:10233   */\n      pop\n      jump\t// out\n        /* \"#utility.yul\":10239:10605   */\n    tag_224:\n        /* \"#utility.yul\":10381:10384   */\n      0x00\n        /* \"#utility.yul\":10402:10469   */\n      tag_343\n        /* \"#utility.yul\":10466:10468   */\n      0x46\n        /* \"#utility.yul\":10461:10464   */\n      dup4\n        /* \"#utility.yul\":10402:10469   */\n      tag_216\n      jump\t// in\n    tag_343:\n        /* \"#utility.yul\":10395:10469   */\n      swap2\n      pop\n        /* \"#utility.yul\":10478:10571   */\n      tag_344\n        /* \"#utility.yul\":10567:10570   */\n      dup3\n        /* \"#utility.yul\":10478:10571   */\n      tag_223\n      jump\t// in\n    tag_344:\n        /* \"#utility.yul\":10596:10598   */\n      0x60\n        /* \"#utility.yul\":10591:10594   */\n      dup3\n        /* \"#utility.yul\":10587:10599   */\n      add\n        /* \"#utility.yul\":10580:10599   */\n      swap1\n      pop\n        /* \"#utility.yul\":10239:10605   */\n      swap2\n      swap1\n      pop\n      jump\t// out\n        /* \"#utility.yul\":10611:11030   */\n    tag_120:\n        /* \"#utility.yul\":10777:10781   */\n      0x00\n        /* \"#utility.yul\":10815:10817   */\n      0x20\n        /* \"#utility.yul\":10804:10813   */\n      dup3\n        /* \"#utility.yul\":10800:10818   */\n      add\n        /* \"#utility.yul\":10792:10818   */\n      swap1\n      pop\n        /* \"#utility.yul\":10864:10873   */\n      dup2\n        /* \"#utility.yul\":10858:10862   */\n      dup2\n        /* \"#utility.yul\":10854:10874   */\n      sub\n        /* \"#utility.yul\":10850:10851   */\n      0x00\n        /* \"#utility.yul\":10839:10848   */\n      dup4\n        /* \"#utility.yul\":10835:10852   */\n      add\n        /* \"#utility.yul\":10828:10875   */\n      mstore\n        /* \"#utility.yul\":10892:11023   */\n      tag_346\n        /* \"#utility.yul\":11018:11022   */\n      dup2\n        /* \"#utility.yul\":10892:11023   */\n      tag_224\n      jump\t// in\n    tag_346:\n        /* \"#utility.yul\":10884:11023   */\n      swap1\n      pop\n        /* \"#utility.yul\":10611:11030   */\n      swap2\n      swap1\n      pop\n      jump\t// out\n        /* \"#utility.yul\":11036:11446   */\n    tag_123:\n        /* \"#utility.yul\":11076:11083   */\n      0x00\n        /* \"#utility.yul\":11099:11119   */\n      tag_348\n        /* \"#utility.yul\":11117:11118   */\n      dup3\n        /* \"#utility.yul\":11099:11119   */\n      tag_199\n      jump\t// in\n    tag_348:\n        /* \"#utility.yul\":11094:11119   */\n      swap2\n      pop\n        /* \"#utility.yul\":11133:11153   */\n      tag_349\n        /* \"#utility.yul\":11151:11152   */\n      dup4\n        /* \"#utility.yul\":11133:11153   */\n      tag_199\n      jump\t// in\n    tag_349:\n        /* \"#utility.yul\":11128:11153   */\n      swap3\n      pop\n        /* \"#utility.yul\":11188:11189   */\n      dup3\n        /* \"#utility.yul\":11185:11186   */\n      dup3\n        /* \"#utility.yul\":11181:11190   */\n      mul\n        /* \"#utility.yul\":11210:11240   */\n      tag_350\n        /* \"#utility.yul\":11228:11239   */\n      dup2\n        /* \"#utility.yul\":11210:11240   */\n      tag_199\n      jump\t// in\n    tag_350:\n        /* \"#utility.yul\":11199:11240   */\n      swap2\n      pop\n        /* \"#utility.yul\":11389:11390   */\n      dup3\n        /* \"#utility.yul\":11380:11387   */\n      dup3\n        /* \"#utility.yul\":11376:11391   */\n      div\n        /* \"#utility.yul\":11373:11374   */\n      dup5\n        /* \"#utility.yul\":11370:11392   */\n      eq\n        /* \"#utility.yul\":11350:11351   */\n      dup4\n        /* \"#utility.yul\":11343:11352   */\n      iszero\n        /* \"#utility.yul\":11323:11406   */\n      or\n        /* \"#utility.yul\":11300:11439   */\n      tag_351\n      jumpi\n        /* \"#utility.yul\":11419:11437   */\n      tag_352\n      tag_222\n      jump\t// in\n    tag_352:\n        /* \"#utility.yul\":11300:11439   */\n    tag_351:\n        /* \"#utility.yul\":11084:11446   */\n      pop\n        /* \"#utility.yul\":11036:11446   */\n      swap3\n      swap2\n      pop\n      pop\n      jump\t// out\n        /* \"#utility.yul\":11452:11646   */\n    tag_130:\n        /* \"#utility.yul\":11492:11496   */\n      0x00\n        /* \"#utility.yul\":11512:11532   */\n      tag_354\n        /* \"#utility.yul\":11530:11531   */\n      dup3\n        /* \"#utility.yul\":11512:11532   */\n      tag_199\n      jump\t// in\n    tag_354:\n        /* \"#utility.yul\":11507:11532   */\n      swap2\n      pop\n        /* \"#utility.yul\":11546:11566   */\n      tag_355\n        /* \"#utility.yul\":11564:11565   */\n      dup4\n        /* \"#utility.yul\":11546:11566   */\n      tag_199\n      jump\t// in\n    tag_355:\n        /* \"#utility.yul\":11541:11566   */\n      swap3\n      pop\n        /* \"#utility.yul\":11590:11591   */\n      dup3\n        /* \"#utility.yul\":11587:11588   */\n      dup3\n        /* \"#utility.yul\":11583:11592   */\n      sub\n        /* \"#utility.yul\":11575:11592   */\n      swap1\n      pop\n        /* \"#utility.yul\":11614:11615   */\n      dup2\n        /* \"#utility.yul\":11608:11612   */\n      dup2\n        /* \"#utility.yul\":11605:11616   */\n      gt\n        /* \"#utility.yul\":11602:11639   */\n      iszero\n      tag_356\n      jumpi\n        /* \"#utility.yul\":11619:11637   */\n      tag_357\n      tag_222\n      jump\t// in\n    tag_357:\n        /* \"#utility.yul\":11602:11639   */\n    tag_356:\n        /* \"#utility.yul\":11452:11646   */\n      swap3\n      swap2\n      pop\n      pop\n      jump\t// out\n        /* \"#utility.yul\":11652:11818   */\n    tag_225:\n        /* \"#utility.yul\":11792:11810   */\n      0x4e6f2062696420746f2063616e63656c00000000000000000000000000000000\n        /* \"#utility.yul\":11788:11789   */\n      0x00\n        /* \"#utility.yul\":11780:11786   */\n      dup3\n        /* \"#utility.yul\":11776:11790   */\n      add\n        /* \"#utility.yul\":11769:11811   */\n      mstore\n        /* \"#utility.yul\":11652:11818   */\n      pop\n      jump\t// out\n        /* \"#utility.yul\":11824:12190   */\n    tag_226:\n        /* \"#utility.yul\":11966:11969   */\n      0x00\n        /* \"#utility.yul\":11987:12054   */\n      tag_360\n        /* \"#utility.yul\":12051:12053   */\n      0x10\n        /* \"#utility.yul\":12046:12049   */\n      dup4\n        /* \"#utility.yul\":11987:12054   */\n      tag_216\n      jump\t// in\n    tag_360:\n        /* \"#utility.yul\":11980:12054   */\n      swap2\n      pop\n        /* \"#utility.yul\":12063:12156   */\n      tag_361\n        /* \"#utility.yul\":12152:12155   */\n      dup3\n        /* \"#utility.yul\":12063:12156   */\n      tag_225\n      jump\t// in\n    tag_361:\n        /* \"#utility.yul\":12181:12183   */\n      0x20\n        /* \"#utility.yul\":12176:12179   */\n      dup3\n        /* \"#utility.yul\":12172:12184   */\n      add\n        /* \"#utility.yul\":12165:12184   */\n      swap1\n      pop\n        /* \"#utility.yul\":11824:12190   */\n      swap2\n      swap1\n      pop\n      jump\t// out\n        /* \"#utility.yul\":12196:12615   */\n    tag_143:\n        /* \"#utility.yul\":12362:12366   */\n      0x00\n        /* \"#utility.yul\":12400:12402   */\n      0x20\n        /* \"#utility.yul\":12389:12398   */\n      dup3\n        /* \"#utility.yul\":12385:12403   */\n      add\n        /* \"#utility.yul\":12377:12403   */\n      swap1\n      pop\n        /* \"#utility.yul\":12449:12458   */\n      dup2\n        /* \"#utility.yul\":12443:12447   */\n      dup2\n        /* \"#utility.yul\":12439:12459   */\n      sub\n        /* \"#utility.yul\":12435:12436   */\n      0x00\n        /* \"#utility.yul\":12424:12433   */\n      dup4\n        /* \"#utility.yul\":12420:12437   */\n      add\n        /* \"#utility.yul\":12413:12460   */\n      mstore\n        /* \"#utility.yul\":12477:12608   */\n      tag_363\n        /* \"#utility.yul\":12603:12607   */\n      dup2\n        /* \"#utility.yul\":12477:12608   */\n      tag_226\n      jump\t// in\n    tag_363:\n        /* \"#utility.yul\":12469:12608   */\n      swap1\n      pop\n        /* \"#utility.yul\":12196:12615   */\n      swap2\n      swap1\n      pop\n      jump\t// out\n        /* \"#utility.yul\":12621:12792   */\n    tag_227:\n        /* \"#utility.yul\":12761:12784   */\n      0x41756374696f6e20616c726561647920656e6465640000000000000000000000\n        /* \"#utility.yul\":12757:12758   */\n      0x00\n        /* \"#utility.yul\":12749:12755   */\n      dup3\n        /* \"#utility.yul\":12745:12759   */\n      add\n        /* \"#utility.yul\":12738:12785   */\n      mstore\n        /* \"#utility.yul\":12621:12792   */\n      pop\n      jump\t// out\n        /* \"#utility.yul\":12798:13164   */\n    tag_228:\n        /* \"#utility.yul\":12940:12943   */\n      0x00\n        /* \"#utility.yul\":12961:13028   */\n      tag_366\n        /* \"#utility.yul\":13025:13027   */\n      0x15\n        /* \"#utility.yul\":13020:13023   */\n      dup4\n        /* \"#utility.yul\":12961:13028   */\n      tag_216\n      jump\t// in\n    tag_366:\n        /* \"#utility.yul\":12954:13028   */\n      swap2\n      pop\n        /* \"#utility.yul\":13037:13130   */\n      tag_367\n        /* \"#utility.yul\":13126:13129   */\n      dup3\n        /* \"#utility.yul\":13037:13130   */\n      tag_227\n      jump\t// in\n    tag_367:\n        /* \"#utility.yul\":13155:13157   */\n      0x20\n        /* \"#utility.yul\":13150:13153   */\n      dup3\n        /* \"#utility.yul\":13146:13158   */\n      add\n        /* \"#utility.yul\":13139:13158   */\n      swap1\n      pop\n        /* \"#utility.yul\":12798:13164   */\n      swap2\n      swap1\n      pop\n      jump\t// out\n        /* \"#utility.yul\":13170:13589   */\n    tag_164:\n        /* \"#utility.yul\":13336:13340   */\n      0x00\n        /* \"#utility.yul\":13374:13376   */\n      0x20\n        /* \"#utility.yul\":13363:13372   */\n      dup3\n        /* \"#utility.yul\":13359:13377   */\n      add\n        /* \"#utility.yul\":13351:13377   */\n      swap1\n      pop\n        /* \"#utility.yul\":13423:13432   */\n      dup2\n        /* \"#utility.yul\":13417:13421   */\n      dup2\n        /* \"#utility.yul\":13413:13433   */\n      sub\n        /* \"#utility.yul\":13409:13410   */\n      0x00\n        /* \"#utility.yul\":13398:13407   */\n      dup4\n        /* \"#utility.yul\":13394:13411   */\n      add\n        /* \"#utility.yul\":13387:13434   */\n      mstore\n        /* \"#utility.yul\":13451:13582   */\n      tag_369\n        /* \"#utility.yul\":13577:13581   */\n      dup2\n        /* \"#utility.yul\":13451:13582   */\n      tag_228\n      jump\t// in\n    tag_369:\n        /* \"#utility.yul\":13443:13582   */\n      swap1\n      pop\n        /* \"#utility.yul\":13170:13589   */\n      swap2\n      swap1\n      pop\n      jump\t// out\n\n    auxdata: 0xa26469706673582212201ddd0818032e208c3d2658ab1d164d056166793f791a6949d0ed3f28598b4e0964736f6c634300081a0033\n}\n\nsub_1: assembly {\n        /* \"Example/\\xe3\\x85\\x87\\xe3\\x85\\x87.sol\":69:249  contract Khash {... */\n      mstore(0x40, 0x80)\n      callvalue\n      dup1\n      iszero\n      tag_1\n      jumpi\n      0x00\n      dup1\n      revert\n    tag_1:\n      pop\n      dataSize(sub_0)\n      dup1\n      dataOffset(sub_0)\n      0x00\n      codecopy\n      0x00\n      return\n    stop\n\n    sub_0: assembly {\n            /* \"Example/\\xe3\\x85\\x87\\xe3\\x85\\x87.sol\":69:249  contract Khash {... */\n          mstore(0x40, 0x80)\n          callvalue\n          dup1\n          iszero\n          tag_1\n          jumpi\n          0x00\n          dup1\n          revert\n        tag_1:\n          pop\n          jumpi(tag_2, lt(calldatasize, 0x04))\n          shr(0xe0, calldataload(0x00))\n          dup1\n          0xb3ec48dd\n          eq\n          tag_3\n          jumpi\n        tag_2:\n          0x00\n          dup1\n          revert\n            /* \"Example/\\xe3\\x85\\x87\\xe3\\x85\\x87.sol\":90:247  function hashMe(uint value, bytes32 password) ... */\n        tag_3:\n          tag_4\n          0x04\n          dup1\n          calldatasize\n          sub\n          dup2\n          add\n          swap1\n          tag_5\n          swap2\n          swap1\n          tag_6\n          jump\t// in\n        tag_5:\n          tag_7\n          jump\t// in\n        tag_4:\n          mload(0x40)\n          tag_8\n          swap2\n          swap1\n          tag_9\n          jump\t// in\n        tag_8:\n          mload(0x40)\n          dup1\n          swap2\n          sub\n          swap1\n          return\n        tag_7:\n            /* \"Example/\\xe3\\x85\\x87\\xe3\\x85\\x87.sol\":166:173  bytes32 */\n          0x00\n            /* \"Example/\\xe3\\x85\\x87\\xe3\\x85\\x87.sol\":223:228  value */\n          dup3\n            /* \"Example/\\xe3\\x85\\x87\\xe3\\x85\\x87.sol\":230:238  password */\n          dup3\n            /* \"Example/\\xe3\\x85\\x87\\xe3\\x85\\x87.sol\":206:239  abi.encodePacked(value, password) */\n          add(0x20, mload(0x40))\n          tag_11\n          swap3\n          swap2\n          swap1\n          tag_12\n          jump\t// in\n        tag_11:\n          mload(0x40)\n          0x20\n          dup2\n          dup4\n          sub\n          sub\n          dup2\n          mstore\n          swap1\n          0x40\n          mstore\n            /* \"Example/\\xe3\\x85\\x87\\xe3\\x85\\x87.sol\":196:240  keccak256(abi.encodePacked(value, password)) */\n          dup1\n          mload\n          swap1\n          0x20\n          add\n          keccak256\n            /* \"Example/\\xe3\\x85\\x87\\xe3\\x85\\x87.sol\":189:240  return keccak256(abi.encodePacked(value, password)) */\n          swap1\n          pop\n            /* \"Example/\\xe3\\x85\\x87\\xe3\\x85\\x87.sol\":90:247  function hashMe(uint value, bytes32 password) ... */\n          swap3\n          swap2\n          pop\n          pop\n          jump\t// out\n            /* \"#utility.yul\":88:205   */\n        tag_14:\n            /* \"#utility.yul\":197:198   */\n          0x00\n            /* \"#utility.yul\":194:195   */\n          dup1\n            /* \"#utility.yul\":187:199   */\n          revert\n            /* \"#utility.yul\":334:411   */\n        tag_16:\n            /* \"#utility.yul\":371:378   */\n          0x00\n            /* \"#utility.yul\":400:405   */\n          dup2\n            /* \"#utility.yul\":389:405   */\n          swap1\n          pop\n            /* \"#utility.yul\":334:411   */\n          swap2\n          swap1\n          pop\n          jump\t// out\n            /* \"#utility.yul\":417:539   */\n        tag_17:\n            /* \"#utility.yul\":490:514   */\n          tag_33\n            /* \"#utility.yul\":508:513   */\n          dup2\n            /* \"#utility.yul\":490:514   */\n          tag_16\n          jump\t// in\n        tag_33:\n            /* \"#utility.yul\":483:488   */\n          dup2\n            /* \"#utility.yul\":480:515   */\n          eq\n            /* \"#utility.yul\":470:533   */\n          tag_34\n          jumpi\n            /* \"#utility.yul\":529:530   */\n          0x00\n            /* \"#utility.yul\":526:527   */\n          dup1\n            /* \"#utility.yul\":519:531   */\n          revert\n            /* \"#utility.yul\":470:533   */\n        tag_34:\n            /* \"#utility.yul\":417:539   */\n          pop\n          jump\t// out\n            /* \"#utility.yul\":545:684   */\n        tag_18:\n            /* \"#utility.yul\":591:596   */\n          0x00\n            /* \"#utility.yul\":629:635   */\n          dup2\n            /* \"#utility.yul\":616:636   */\n          calldataload\n            /* \"#utility.yul\":607:636   */\n          swap1\n          pop\n            /* \"#utility.yul\":645:678   */\n          tag_36\n            /* \"#utility.yul\":672:677   */\n          dup2\n            /* \"#utility.yul\":645:678   */\n          tag_17\n          jump\t// in\n        tag_36:\n            /* \"#utility.yul\":545:684   */\n          swap3\n          swap2\n          pop\n          pop\n          jump\t// out\n            /* \"#utility.yul\":690:767   */\n        tag_19:\n            /* \"#utility.yul\":727:734   */\n          0x00\n            /* \"#utility.yul\":756:761   */\n          dup2\n            /* \"#utility.yul\":745:761   */\n          swap1\n          pop\n            /* \"#utility.yul\":690:767   */\n          swap2\n          swap1\n          pop\n          jump\t// out\n            /* \"#utility.yul\":773:895   */\n        tag_20:\n            /* \"#utility.yul\":846:870   */\n          tag_39\n            /* \"#utility.yul\":864:869   */\n          dup2\n            /* \"#utility.yul\":846:870   */\n          tag_19\n          jump\t// in\n        tag_39:\n            /* \"#utility.yul\":839:844   */\n          dup2\n            /* \"#utility.yul\":836:871   */\n          eq\n            /* \"#utility.yul\":826:889   */\n          tag_40\n          jumpi\n            /* \"#utility.yul\":885:886   */\n          0x00\n            /* \"#utility.yul\":882:883   */\n          dup1\n            /* \"#utility.yul\":875:887   */\n          revert\n            /* \"#utility.yul\":826:889   */\n        tag_40:\n            /* \"#utility.yul\":773:895   */\n          pop\n          jump\t// out\n            /* \"#utility.yul\":901:1040   */\n        tag_21:\n            /* \"#utility.yul\":947:952   */\n          0x00\n            /* \"#utility.yul\":985:991   */\n          dup2\n            /* \"#utility.yul\":972:992   */\n          calldataload\n            /* \"#utility.yul\":963:992   */\n          swap1\n          pop\n            /* \"#utility.yul\":1001:1034   */\n          tag_42\n            /* \"#utility.yul\":1028:1033   */\n          dup2\n            /* \"#utility.yul\":1001:1034   */\n          tag_20\n          jump\t// in\n        tag_42:\n            /* \"#utility.yul\":901:1040   */\n          swap3\n          swap2\n          pop\n          pop\n          jump\t// out\n            /* \"#utility.yul\":1046:1520   */\n        tag_6:\n            /* \"#utility.yul\":1114:1120   */\n          0x00\n            /* \"#utility.yul\":1122:1128   */\n          dup1\n            /* \"#utility.yul\":1171:1173   */\n          0x40\n            /* \"#utility.yul\":1159:1168   */\n          dup4\n            /* \"#utility.yul\":1150:1157   */\n          dup6\n            /* \"#utility.yul\":1146:1169   */\n          sub\n            /* \"#utility.yul\":1142:1174   */\n          slt\n            /* \"#utility.yul\":1139:1258   */\n          iszero\n          tag_44\n          jumpi\n            /* \"#utility.yul\":1177:1256   */\n          tag_45\n          tag_14\n          jump\t// in\n        tag_45:\n            /* \"#utility.yul\":1139:1258   */\n        tag_44:\n            /* \"#utility.yul\":1297:1298   */\n          0x00\n            /* \"#utility.yul\":1322:1375   */\n          tag_46\n            /* \"#utility.yul\":1367:1374   */\n          dup6\n            /* \"#utility.yul\":1358:1364   */\n          dup3\n            /* \"#utility.yul\":1347:1356   */\n          dup7\n            /* \"#utility.yul\":1343:1365   */\n          add\n            /* \"#utility.yul\":1322:1375   */\n          tag_18\n          jump\t// in\n        tag_46:\n            /* \"#utility.yul\":1312:1375   */\n          swap3\n          pop\n            /* \"#utility.yul\":1268:1385   */\n          pop\n            /* \"#utility.yul\":1424:1426   */\n          0x20\n            /* \"#utility.yul\":1450:1503   */\n          tag_47\n            /* \"#utility.yul\":1495:1502   */\n          dup6\n            /* \"#utility.yul\":1486:1492   */\n          dup3\n            /* \"#utility.yul\":1475:1484   */\n          dup7\n            /* \"#utility.yul\":1471:1493   */\n          add\n            /* \"#utility.yul\":1450:1503   */\n          tag_21\n          jump\t// in\n        tag_47:\n            /* \"#utility.yul\":1440:1503   */\n          swap2\n          pop\n            /* \"#utility.yul\":1395:1513   */\n          pop\n            /* \"#utility.yul\":1046:1520   */\n          swap3\n          pop\n          swap3\n          swap1\n          pop\n          jump\t// out\n            /* \"#utility.yul\":1526:1644   */\n        tag_22:\n            /* \"#utility.yul\":1613:1637   */\n          tag_49\n            /* \"#utility.yul\":1631:1636   */\n          dup2\n            /* \"#utility.yul\":1613:1637   */\n          tag_19\n          jump\t// in\n        tag_49:\n            /* \"#utility.yul\":1608:1611   */\n          dup3\n            /* \"#utility.yul\":1601:1638   */\n          mstore\n            /* \"#utility.yul\":1526:1644   */\n          pop\n          pop\n          jump\t// out\n            /* \"#utility.yul\":1650:1872   */\n        tag_9:\n            /* \"#utility.yul\":1743:1747   */\n          0x00\n            /* \"#utility.yul\":1781:1783   */\n          0x20\n            /* \"#utility.yul\":1770:1779   */\n          dup3\n            /* \"#utility.yul\":1766:1784   */\n          add\n            /* \"#utility.yul\":1758:1784   */\n          swap1\n          pop\n            /* \"#utility.yul\":1794:1865   */\n          tag_51\n            /* \"#utility.yul\":1862:1863   */\n          0x00\n            /* \"#utility.yul\":1851:1860   */\n          dup4\n            /* \"#utility.yul\":1847:1864   */\n          add\n            /* \"#utility.yul\":1838:1844   */\n          dup5\n            /* \"#utility.yul\":1794:1865   */\n          tag_22\n          jump\t// in\n        tag_51:\n            /* \"#utility.yul\":1650:1872   */\n          swap3\n          swap2\n          pop\n          pop\n          jump\t// out\n            /* \"#utility.yul\":1878:1957   */\n        tag_23:\n            /* \"#utility.yul\":1917:1924   */\n          0x00\n            /* \"#utility.yul\":1946:1951   */\n          dup2\n            /* \"#utility.yul\":1935:1951   */\n          swap1\n          pop\n            /* \"#utility.yul\":1878:1957   */\n          swap2\n          swap1\n          pop\n          jump\t// out\n            /* \"#utility.yul\":1963:2120   */\n        tag_24:\n            /* \"#utility.yul\":2068:2113   */\n          tag_54\n            /* \"#utility.yul\":2088:2112   */\n          tag_55\n            /* \"#utility.yul\":2106:2111   */\n          dup3\n            /* \"#utility.yul\":2088:2112   */\n          tag_16\n          jump\t// in\n        tag_55:\n            /* \"#utility.yul\":2068:2113   */\n          tag_23\n          jump\t// in\n        tag_54:\n            /* \"#utility.yul\":2063:2066   */\n          dup3\n            /* \"#utility.yul\":2056:2114   */\n          mstore\n            /* \"#utility.yul\":1963:2120   */\n          pop\n          pop\n          jump\t// out\n            /* \"#utility.yul\":2126:2205   */\n        tag_25:\n            /* \"#utility.yul\":2165:2172   */\n          0x00\n            /* \"#utility.yul\":2194:2199   */\n          dup2\n            /* \"#utility.yul\":2183:2199   */\n          swap1\n          pop\n            /* \"#utility.yul\":2126:2205   */\n          swap2\n          swap1\n          pop\n          jump\t// out\n            /* \"#utility.yul\":2211:2368   */\n        tag_26:\n            /* \"#utility.yul\":2316:2361   */\n          tag_58\n            /* \"#utility.yul\":2336:2360   */\n          tag_59\n            /* \"#utility.yul\":2354:2359   */\n          dup3\n            /* \"#utility.yul\":2336:2360   */\n          tag_19\n          jump\t// in\n        tag_59:\n            /* \"#utility.yul\":2316:2361   */\n          tag_25\n          jump\t// in\n        tag_58:\n            /* \"#utility.yul\":2311:2314   */\n          dup3\n            /* \"#utility.yul\":2304:2362   */\n          mstore\n            /* \"#utility.yul\":2211:2368   */\n          pop\n          pop\n          jump\t// out\n            /* \"#utility.yul\":2374:2771   */\n        tag_12:\n            /* \"#utility.yul\":2514:2517   */\n          0x00\n            /* \"#utility.yul\":2529:2604   */\n          tag_61\n            /* \"#utility.yul\":2600:2603   */\n          dup3\n            /* \"#utility.yul\":2591:2597   */\n          dup6\n            /* \"#utility.yul\":2529:2604   */\n          tag_24\n          jump\t// in\n        tag_61:\n            /* \"#utility.yul\":2629:2631   */\n          0x20\n            /* \"#utility.yul\":2624:2627   */\n          dup3\n            /* \"#utility.yul\":2620:2632   */\n          add\n            /* \"#utility.yul\":2613:2632   */\n          swap2\n          pop\n            /* \"#utility.yul\":2642:2717   */\n          tag_62\n            /* \"#utility.yul\":2713:2716   */\n          dup3\n            /* \"#utility.yul\":2704:2710   */\n          dup5\n            /* \"#utility.yul\":2642:2717   */\n          tag_26\n          jump\t// in\n        tag_62:\n            /* \"#utility.yul\":2742:2744   */\n          0x20\n            /* \"#utility.yul\":2737:2740   */\n          dup3\n            /* \"#utility.yul\":2733:2745   */\n          add\n            /* \"#utility.yul\":2726:2745   */\n          swap2\n          pop\n            /* \"#utility.yul\":2762:2765   */\n          dup2\n            /* \"#utility.yul\":2755:2765   */\n          swap1\n          pop\n            /* \"#utility.yul\":2374:2771   */\n          swap4\n          swap3\n          pop\n          pop\n          pop\n          jump\t// out\n\n        auxdata: 0xa264697066735822122021830808c1b62d78cb5be2bce36f5498125ae5897b7335b42686452f4222a6de64736f6c634300081a0033\n    }\n}\n",
				"bytecode": {
					"linkReferences": {},
					"object": "60806040525f600160146101000a81548160ff02191690836003811115610029576100286100fc565b5b0217905550678ac7230489e80000600655348015610045575f80fd5b503360015f6101000a81548173ffffffffffffffffffffffffffffffffffffffff021916908373ffffffffffffffffffffffffffffffffffffffff160217905550604051610092906100ef565b604051809103905ff0801580156100ab573d5f803e3d5ffd5b505f806101000a81548173ffffffffffffffffffffffffffffffffffffffff021916908373ffffffffffffffffffffffffffffffffffffffff160217905550610129565b61021c8061183583390190565b7f4e487b71000000000000000000000000000000000000000000000000000000005f52602160045260245ffd5b6116ff806101365f395ff3fe6080604052600436106100dc575f3560e01c806391f901571161007e578063957bb1e011610058578063957bb1e01461024d578063be25a71814610269578063d57bde791461027f578063ec89b5e0146102a9576100dc565b806391f90157146101e35780639435c8871461020d57806394c246d514610223576100dc565b80633ccfd60b116100ba5780633ccfd60b1461014a5780634036778f1461016057806362ea82db1461017c57806363142015146101b9576100dc565b8063055ad42e146100e05780632a24f46c1461010a57806338af3eed14610120575b5f80fd5b3480156100eb575f80fd5b506100f46102d3565b6040516101019190611060565b60405180910390f35b348015610115575f80fd5b5061011e6102e6565b005b34801561012b575f80fd5b50610134610507565b60405161014191906110b8565b60405180910390f35b348015610155575f80fd5b5061015e61052c565b005b61017a6004803603810190610175919061113b565b6105ff565b005b348015610187575f80fd5b506101a2600480360381019061019d91906111b4565b6109c4565b6040516101b09291906111fd565b60405180910390f35b3480156101c4575f80fd5b506101cd6109e4565b6040516101da919061127f565b60405180910390f35b3480156101ee575f80fd5b506101f7610a07565b60405161020491906112a7565b60405180910390f35b348015610218575f80fd5b50610221610a2c565b005b34801561022e575f80fd5b50610237610bc4565b60405161024491906112c0565b60405180910390f35b610267600480360381019061026291906112d9565b610c08565b005b348015610274575f80fd5b5061027d610cea565b005b34801561028a575f80fd5b50610293610fe1565b6040516102a091906112c0565b60405180910390f35b3480156102b4575f80fd5b506102bd610fe7565b6040516102ca91906112c0565b60405180910390f35b600160149054906101000a900460ff1681565b60015f9054906101000a900473ffffffffffffffffffffffffffffffffffffffff1673ffffffffffffffffffffffffffffffffffffffff163373ffffffffffffffffffffffffffffffffffffffff1614610375576040517f08c379a000000000000000000000000000000000000000000000000000000000815260040161036c9061135e565b60405180910390fd5b600380600381111561038a57610389610fed565b5b600160149054906101000a900460ff1660038111156103ac576103ab610fed565b5b146103ec576040517f08c379a00000000000000000000000000000000000000000000000000000000081526004016103e3906113c6565b60405180910390fd5b5f73ffffffffffffffffffffffffffffffffffffffff1660045f9054906101000a900473ffffffffffffffffffffffffffffffffffffffff1673ffffffffffffffffffffffffffffffffffffffff16146104a85760015f9054906101000a900473ffffffffffffffffffffffffffffffffffffffff1673ffffffffffffffffffffffffffffffffffffffff166108fc60055490811502906040515f60405180830381858888f193505050501580156104a6573d5f803e3d5ffd5b505b7fdaec4582d5d9595688c8c98545fdd1c696d41c6aeaeb636737e84ed2f5c00eda60045f9054906101000a900473ffffffffffffffffffffffffffffffffffffffff166005546040516104fc9291906113e4565b60405180910390a150565b60015f9054906101000a900473ffffffffffffffffffffffffffffffffffffffff1681565b5f60035f3373ffffffffffffffffffffffffffffffffffffffff1673ffffffffffffffffffffffffffffffffffffffff1681526020019081526020015f205490505f8111156105fc575f60035f3373ffffffffffffffffffffffffffffffffffffffff1673ffffffffffffffffffffffffffffffffffffffff1681526020019081526020015f20819055503373ffffffffffffffffffffffffffffffffffffffff166108fc8290811502906040515f60405180830381858888f193505050501580156105fa573d5f803e3d5ffd5b505b50565b600280600381111561061457610613610fed565b5b600160149054906101000a900460ff16600381111561063657610635610fed565b5b14610676576040517f08c379a000000000000000000000000000000000000000000000000000000000815260040161066d906113c6565b60405180910390fd5b5f60025f3373ffffffffffffffffffffffffffffffffffffffff1673ffffffffffffffffffffffffffffffffffffffff1681526020019081526020015f2090505f805f9054906101000a900473ffffffffffffffffffffffffffffffffffffffff1673ffffffffffffffffffffffffffffffffffffffff1663b3ec48dd86866040518363ffffffff1660e01b815260040161071292919061140b565b602060405180830381865afa15801561072d573d5f803e3d5ffd5b505050506040513d601f19601f820116820180604052508101906107519190611446565b9050600654600554610763919061149e565b8510156107a5576040517f08c379a000000000000000000000000000000000000000000000000000000000815260040161079c90611567565b60405180910390fd5b80825f01540361096c575f82600101549050600554670de0b6b3a7640000876107ce9190611585565b111561091b575f73ffffffffffffffffffffffffffffffffffffffff1660045f9054906101000a900473ffffffffffffffffffffffffffffffffffffffff1673ffffffffffffffffffffffffffffffffffffffff161461089f5760055460035f60045f9054906101000a900473ffffffffffffffffffffffffffffffffffffffff1673ffffffffffffffffffffffffffffffffffffffff1673ffffffffffffffffffffffffffffffffffffffff1681526020019081526020015f205f828254610897919061149e565b925050819055505b3360045f6101000a81548173ffffffffffffffffffffffffffffffffffffffff021916908373ffffffffffffffffffffffffffffffffffffffff160217905550670de0b6b3a7640000866108f39190611585565b600581905550670de0b6b3a76400008661090d9190611585565b8161091891906115c6565b90505b5f811115610966578060035f3373ffffffffffffffffffffffffffffffffffffffff1673ffffffffffffffffffffffffffffffffffffffff1681526020019081526020015f20819055505b506109b3565b816001015460035f3373ffffffffffffffffffffffffffffffffffffffff1673ffffffffffffffffffffffffffffffffffffffff1681526020019081526020015f20819055505b5f801b825f01819055505050505050565b6002602052805f5260405f205f91509050805f0154908060010154905082565b5f8054906101000a900473ffffffffffffffffffffffffffffffffffffffff1681565b60045f9054906101000a900473ffffffffffffffffffffffffffffffffffffffff1681565b6001806003811115610a4157610a40610fed565b5b600160149054906101000a900460ff166003811115610a6357610a62610fed565b5b14610aa3576040517f08c379a0000000000000000000000000000000000000000000000000000000008152600401610a9a906113c6565b60405180910390fd5b5f60025f3373ffffffffffffffffffffffffffffffffffffffff1673ffffffffffffffffffffffffffffffffffffffff1681526020019081526020015f2090505f816001015411610b29576040517f08c379a0000000000000000000000000000000000000000000000000000000008152600401610b2090611643565b60405180910390fd5b5f816001015490505f82600101819055505f801b825f01819055508060035f3373ffffffffffffffffffffffffffffffffffffffff1673ffffffffffffffffffffffffffffffffffffffff1681526020019081526020015f20819055507f8d38c62ee74cd9e3dbcc09feaa7d1f5568aeaa35cbf8a0f167f513c07e2fd0b83382604051610bb79291906113e4565b60405180910390a1505050565b5f60035f3373ffffffffffffffffffffffffffffffffffffffff1673ffffffffffffffffffffffffffffffffffffffff1681526020019081526020015f2054905090565b6001806003811115610c1d57610c1c610fed565b5b600160149054906101000a900460ff166003811115610c3f57610c3e610fed565b5b14610c7f576040517f08c379a0000000000000000000000000000000000000000000000000000000008152600401610c76906113c6565b60405180910390fd5b60405180604001604052808381526020013481525060025f3373ffffffffffffffffffffffffffffffffffffffff1673ffffffffffffffffffffffffffffffffffffffff1681526020019081526020015f205f820151815f0155602082015181600101559050505050565b60015f9054906101000a900473ffffffffffffffffffffffffffffffffffffffff1673ffffffffffffffffffffffffffffffffffffffff163373ffffffffffffffffffffffffffffffffffffffff1614610d79576040517f08c379a0000000000000000000000000000000000000000000000000000000008152600401610d709061135e565b60405180910390fd5b600380811115610d8c57610d8b610fed565b5b600160149054906101000a900460ff166003811115610dae57610dad610fed565b5b03610dee576040517f08c379a0000000000000000000000000000000000000000000000000000000008152600401610de5906116ab565b60405180910390fd5b5f6003811115610e0157610e00610fed565b5b600160149054906101000a900460ff166003811115610e2357610e22610fed565b5b03610e835760018060146101000a81548160ff02191690836003811115610e4d57610e4c610fed565b5b02179055507f02c124e22ee7da1c9905bbb317cf67658c1cc3ea1c0953b1633f85d0b5c281d960405160405180910390a1610fdf565b60016003811115610e9757610e96610fed565b5b600160149054906101000a900460ff166003811115610eb957610eb8610fed565b5b03610f1a576002600160146101000a81548160ff02191690836003811115610ee457610ee3610fed565b5b02179055507f3bcc93d35219aa0512d7c0d1ca10b0231f473e3d5f9396877d1b7215ee0ab3d560405160405180910390a1610fde565b60026003811115610f2e57610f2d610fed565b5b600160149054906101000a900460ff166003811115610f5057610f4f610fed565b5b03610fdd576003600160146101000a81548160ff02191690836003811115610f7b57610f7a610fed565b5b02179055507fdaec4582d5d9595688c8c98545fdd1c696d41c6aeaeb636737e84ed2f5c00eda60045f9054906101000a900473ffffffffffffffffffffffffffffffffffffffff16600554604051610fd49291906113e4565b60405180910390a15b5b5b565b60055481565b60065481565b7f4e487b71000000000000000000000000000000000000000000000000000000005f52602160045260245ffd5b6004811061102b5761102a610fed565b5b50565b5f81905061103b8261101a565b919050565b5f61104a8261102e565b9050919050565b61105a81611040565b82525050565b5f6020820190506110735f830184611051565b92915050565b5f73ffffffffffffffffffffffffffffffffffffffff82169050919050565b5f6110a282611079565b9050919050565b6110b281611098565b82525050565b5f6020820190506110cb5f8301846110a9565b92915050565b5f80fd5b5f819050919050565b6110e7816110d5565b81146110f1575f80fd5b50565b5f81359050611102816110de565b92915050565b5f819050919050565b61111a81611108565b8114611124575f80fd5b50565b5f8135905061113581611111565b92915050565b5f8060408385031215611151576111506110d1565b5b5f61115e858286016110f4565b925050602061116f85828601611127565b9150509250929050565b5f61118382611079565b9050919050565b61119381611179565b811461119d575f80fd5b50565b5f813590506111ae8161118a565b92915050565b5f602082840312156111c9576111c86110d1565b5b5f6111d6848285016111a0565b91505092915050565b6111e881611108565b82525050565b6111f7816110d5565b82525050565b5f6040820190506112105f8301856111df565b61121d60208301846111ee565b9392505050565b5f819050919050565b5f61124761124261123d84611079565b611224565b611079565b9050919050565b5f6112588261122d565b9050919050565b5f6112698261124e565b9050919050565b6112798161125f565b82525050565b5f6020820190506112925f830184611270565b92915050565b6112a181611179565b82525050565b5f6020820190506112ba5f830184611298565b92915050565b5f6020820190506112d35f8301846111ee565b92915050565b5f602082840312156112ee576112ed6110d1565b5b5f6112fb84828501611127565b91505092915050565b5f82825260208201905092915050565b7f4f6e6c792062656e65666963696172792063616e2063616c6c207468697300005f82015250565b5f611348601e83611304565b915061135382611314565b602082019050919050565b5f6020820190508181035f8301526113758161133c565b9050919050565b7f496e76616c6964207068617365000000000000000000000000000000000000005f82015250565b5f6113b0600d83611304565b91506113bb8261137c565b602082019050919050565b5f6020820190508181035f8301526113dd816113a4565b9050919050565b5f6040820190506113f75f830185611298565b61140460208301846111ee565b9392505050565b5f60408201905061141e5f8301856111ee565b61142b60208301846111df565b9392505050565b5f8151905061144081611111565b92915050565b5f6020828403121561145b5761145a6110d1565b5b5f61146884828501611432565b91505092915050565b7f4e487b71000000000000000000000000000000000000000000000000000000005f52601160045260245ffd5b5f6114a8826110d5565b91506114b3836110d5565b92508282019050808211156114cb576114ca611471565b5b92915050565b7f426964206d75737420626520686967686572207468616e2074686520637572725f8201527f656e7420686967686573742062696420706c7573206d696e696d756d20696e6360208201527f72656d656e740000000000000000000000000000000000000000000000000000604082015250565b5f611551604683611304565b915061155c826114d1565b606082019050919050565b5f6020820190508181035f83015261157e81611545565b9050919050565b5f61158f826110d5565b915061159a836110d5565b92508282026115a8816110d5565b915082820484148315176115bf576115be611471565b5b5092915050565b5f6115d0826110d5565b91506115db836110d5565b92508282039050818111156115f3576115f2611471565b5b92915050565b7f4e6f2062696420746f2063616e63656c000000000000000000000000000000005f82015250565b5f61162d601083611304565b9150611638826115f9565b602082019050919050565b5f6020820190508181035f83015261165a81611621565b9050919050565b7f41756374696f6e20616c726561647920656e64656400000000000000000000005f82015250565b5f611695601583611304565b91506116a082611661565b602082019050919050565b5f6020820190508181035f8301526116c281611689565b905091905056fea26469706673582212201ddd0818032e208c3d2658ab1d164d056166793f791a6949d0ed3f28598b4e0964736f6c634300081a00336080604052348015600e575f80fd5b506102008061001c5f395ff3fe608060405234801561000f575f80fd5b5060043610610029575f3560e01c8063b3ec48dd1461002d575b5f80fd5b610047600480360381019061004291906100f9565b61005d565b6040516100549190610146565b60405180910390f35b5f828260405160200161007192919061019f565b60405160208183030381529060405280519060200120905092915050565b5f80fd5b5f819050919050565b6100a581610093565b81146100af575f80fd5b50565b5f813590506100c08161009c565b92915050565b5f819050919050565b6100d8816100c6565b81146100e2575f80fd5b50565b5f813590506100f3816100cf565b92915050565b5f806040838503121561010f5761010e61008f565b5b5f61011c858286016100b2565b925050602061012d858286016100e5565b9150509250929050565b610140816100c6565b82525050565b5f6020820190506101595f830184610137565b92915050565b5f819050919050565b61017961017482610093565b61015f565b82525050565b5f819050919050565b610199610194826100c6565b61017f565b82525050565b5f6101aa8285610168565b6020820191506101ba8284610188565b602082019150819050939250505056fea264697066735822122021830808c1b62d78cb5be2bce36f5498125ae5897b7335b42686452f4222a6de64736f6c634300081a0033",
					"opcodes": "PUSH1 0x80 PUSH1 0x40 MSTORE PUSH0 PUSH1 0x1 PUSH1 0x14 PUSH2 0x100 EXP DUP2 SLOAD DUP2 PUSH1 0xFF MUL NOT AND SWAP1 DUP4 PUSH1 0x3 DUP2 GT ISZERO PUSH2 0x29 JUMPI PUSH2 0x28 PUSH2 0xFC JUMP JUMPDEST JUMPDEST MUL OR SWAP1 SSTORE POP PUSH8 0x8AC7230489E80000 PUSH1 0x6 SSTORE CALLVALUE DUP1 ISZERO PUSH2 0x45 JUMPI PUSH0 DUP1 REVERT JUMPDEST POP CALLER PUSH1 0x1 PUSH0 PUSH2 0x100 EXP DUP2 SLOAD DUP2 PUSH20 0xFFFFFFFFFFFFFFFFFFFFFFFFFFFFFFFFFFFFFFFF MUL NOT AND SWAP1 DUP4 PUSH20 0xFFFFFFFFFFFFFFFFFFFFFFFFFFFFFFFFFFFFFFFF AND MUL OR SWAP1 SSTORE POP PUSH1 0x40 MLOAD PUSH2 0x92 SWAP1 PUSH2 0xEF JUMP JUMPDEST PUSH1 0x40 MLOAD DUP1 SWAP2 SUB SWAP1 PUSH0 CREATE DUP1 ISZERO DUP1 ISZERO PUSH2 0xAB JUMPI RETURNDATASIZE PUSH0 DUP1 RETURNDATACOPY RETURNDATASIZE PUSH0 REVERT JUMPDEST POP PUSH0 DUP1 PUSH2 0x100 EXP DUP2 SLOAD DUP2 PUSH20 0xFFFFFFFFFFFFFFFFFFFFFFFFFFFFFFFFFFFFFFFF MUL NOT AND SWAP1 DUP4 PUSH20 0xFFFFFFFFFFFFFFFFFFFFFFFFFFFFFFFFFFFFFFFF AND MUL OR SWAP1 SSTORE POP PUSH2 0x129 JUMP JUMPDEST PUSH2 0x21C DUP1 PUSH2 0x1835 DUP4 CODECOPY ADD SWAP1 JUMP JUMPDEST PUSH32 0x4E487B7100000000000000000000000000000000000000000000000000000000 PUSH0 MSTORE PUSH1 0x21 PUSH1 0x4 MSTORE PUSH1 0x24 PUSH0 REVERT JUMPDEST PUSH2 0x16FF DUP1 PUSH2 0x136 PUSH0 CODECOPY PUSH0 RETURN INVALID PUSH1 0x80 PUSH1 0x40 MSTORE PUSH1 0x4 CALLDATASIZE LT PUSH2 0xDC JUMPI PUSH0 CALLDATALOAD PUSH1 0xE0 SHR DUP1 PUSH4 0x91F90157 GT PUSH2 0x7E JUMPI DUP1 PUSH4 0x957BB1E0 GT PUSH2 0x58 JUMPI DUP1 PUSH4 0x957BB1E0 EQ PUSH2 0x24D JUMPI DUP1 PUSH4 0xBE25A718 EQ PUSH2 0x269 JUMPI DUP1 PUSH4 0xD57BDE79 EQ PUSH2 0x27F JUMPI DUP1 PUSH4 0xEC89B5E0 EQ PUSH2 0x2A9 JUMPI PUSH2 0xDC JUMP JUMPDEST DUP1 PUSH4 0x91F90157 EQ PUSH2 0x1E3 JUMPI DUP1 PUSH4 0x9435C887 EQ PUSH2 0x20D JUMPI DUP1 PUSH4 0x94C246D5 EQ PUSH2 0x223 JUMPI PUSH2 0xDC JUMP JUMPDEST DUP1 PUSH4 0x3CCFD60B GT PUSH2 0xBA JUMPI DUP1 PUSH4 0x3CCFD60B EQ PUSH2 0x14A JUMPI DUP1 PUSH4 0x4036778F EQ PUSH2 0x160 JUMPI DUP1 PUSH4 0x62EA82DB EQ PUSH2 0x17C JUMPI DUP1 PUSH4 0x63142015 EQ PUSH2 0x1B9 JUMPI PUSH2 0xDC JUMP JUMPDEST DUP1 PUSH4 0x55AD42E EQ PUSH2 0xE0 JUMPI DUP1 PUSH4 0x2A24F46C EQ PUSH2 0x10A JUMPI DUP1 PUSH4 0x38AF3EED EQ PUSH2 0x120 JUMPI JUMPDEST PUSH0 DUP1 REVERT JUMPDEST CALLVALUE DUP1 ISZERO PUSH2 0xEB JUMPI PUSH0 DUP1 REVERT JUMPDEST POP PUSH2 0xF4 PUSH2 0x2D3 JUMP JUMPDEST PUSH1 0x40 MLOAD PUSH2 0x101 SWAP2 SWAP1 PUSH2 0x1060 JUMP JUMPDEST PUSH1 0x40 MLOAD DUP1 SWAP2 SUB SWAP1 RETURN JUMPDEST CALLVALUE DUP1 ISZERO PUSH2 0x115 JUMPI PUSH0 DUP1 REVERT JUMPDEST POP PUSH2 0x11E PUSH2 0x2E6 JUMP JUMPDEST STOP JUMPDEST CALLVALUE DUP1 ISZERO PUSH2 0x12B JUMPI PUSH0 DUP1 REVERT JUMPDEST POP PUSH2 0x134 PUSH2 0x507 JUMP JUMPDEST PUSH1 0x40 MLOAD PUSH2 0x141 SWAP2 SWAP1 PUSH2 0x10B8 JUMP JUMPDEST PUSH1 0x40 MLOAD DUP1 SWAP2 SUB SWAP1 RETURN JUMPDEST CALLVALUE DUP1 ISZERO PUSH2 0x155 JUMPI PUSH0 DUP1 REVERT JUMPDEST POP PUSH2 0x15E PUSH2 0x52C JUMP JUMPDEST STOP JUMPDEST PUSH2 0x17A PUSH1 0x4 DUP1 CALLDATASIZE SUB DUP2 ADD SWAP1 PUSH2 0x175 SWAP2 SWAP1 PUSH2 0x113B JUMP JUMPDEST PUSH2 0x5FF JUMP JUMPDEST STOP JUMPDEST CALLVALUE DUP1 ISZERO PUSH2 0x187 JUMPI PUSH0 DUP1 REVERT JUMPDEST POP PUSH2 0x1A2 PUSH1 0x4 DUP1 CALLDATASIZE SUB DUP2 ADD SWAP1 PUSH2 0x19D SWAP2 SWAP1 PUSH2 0x11B4 JUMP JUMPDEST PUSH2 0x9C4 JUMP JUMPDEST PUSH1 0x40 MLOAD PUSH2 0x1B0 SWAP3 SWAP2 SWAP1 PUSH2 0x11FD JUMP JUMPDEST PUSH1 0x40 MLOAD DUP1 SWAP2 SUB SWAP1 RETURN JUMPDEST CALLVALUE DUP1 ISZERO PUSH2 0x1C4 JUMPI PUSH0 DUP1 REVERT JUMPDEST POP PUSH2 0x1CD PUSH2 0x9E4 JUMP JUMPDEST PUSH1 0x40 MLOAD PUSH2 0x1DA SWAP2 SWAP1 PUSH2 0x127F JUMP JUMPDEST PUSH1 0x40 MLOAD DUP1 SWAP2 SUB SWAP1 RETURN JUMPDEST CALLVALUE DUP1 ISZERO PUSH2 0x1EE JUMPI PUSH0 DUP1 REVERT JUMPDEST POP PUSH2 0x1F7 PUSH2 0xA07 JUMP JUMPDEST PUSH1 0x40 MLOAD PUSH2 0x204 SWAP2 SWAP1 PUSH2 0x12A7 JUMP JUMPDEST PUSH1 0x40 MLOAD DUP1 SWAP2 SUB SWAP1 RETURN JUMPDEST CALLVALUE DUP1 ISZERO PUSH2 0x218 JUMPI PUSH0 DUP1 REVERT JUMPDEST POP PUSH2 0x221 PUSH2 0xA2C JUMP JUMPDEST STOP JUMPDEST CALLVALUE DUP1 ISZERO PUSH2 0x22E JUMPI PUSH0 DUP1 REVERT JUMPDEST POP PUSH2 0x237 PUSH2 0xBC4 JUMP JUMPDEST PUSH1 0x40 MLOAD PUSH2 0x244 SWAP2 SWAP1 PUSH2 0x12C0 JUMP JUMPDEST PUSH1 0x40 MLOAD DUP1 SWAP2 SUB SWAP1 RETURN JUMPDEST PUSH2 0x267 PUSH1 0x4 DUP1 CALLDATASIZE SUB DUP2 ADD SWAP1 PUSH2 0x262 SWAP2 SWAP1 PUSH2 0x12D9 JUMP JUMPDEST PUSH2 0xC08 JUMP JUMPDEST STOP JUMPDEST CALLVALUE DUP1 ISZERO PUSH2 0x274 JUMPI PUSH0 DUP1 REVERT JUMPDEST POP PUSH2 0x27D PUSH2 0xCEA JUMP JUMPDEST STOP JUMPDEST CALLVALUE DUP1 ISZERO PUSH2 0x28A JUMPI PUSH0 DUP1 REVERT JUMPDEST POP PUSH2 0x293 PUSH2 0xFE1 JUMP JUMPDEST PUSH1 0x40 MLOAD PUSH2 0x2A0 SWAP2 SWAP1 PUSH2 0x12C0 JUMP JUMPDEST PUSH1 0x40 MLOAD DUP1 SWAP2 SUB SWAP1 RETURN JUMPDEST CALLVALUE DUP1 ISZERO PUSH2 0x2B4 JUMPI PUSH0 DUP1 REVERT JUMPDEST POP PUSH2 0x2BD PUSH2 0xFE7 JUMP JUMPDEST PUSH1 0x40 MLOAD PUSH2 0x2CA SWAP2 SWAP1 PUSH2 0x12C0 JUMP JUMPDEST PUSH1 0x40 MLOAD DUP1 SWAP2 SUB SWAP1 RETURN JUMPDEST PUSH1 0x1 PUSH1 0x14 SWAP1 SLOAD SWAP1 PUSH2 0x100 EXP SWAP1 DIV PUSH1 0xFF AND DUP2 JUMP JUMPDEST PUSH1 0x1 PUSH0 SWAP1 SLOAD SWAP1 PUSH2 0x100 EXP SWAP1 DIV PUSH20 0xFFFFFFFFFFFFFFFFFFFFFFFFFFFFFFFFFFFFFFFF AND PUSH20 0xFFFFFFFFFFFFFFFFFFFFFFFFFFFFFFFFFFFFFFFF AND CALLER PUSH20 0xFFFFFFFFFFFFFFFFFFFFFFFFFFFFFFFFFFFFFFFF AND EQ PUSH2 0x375 JUMPI PUSH1 0x40 MLOAD PUSH32 0x8C379A000000000000000000000000000000000000000000000000000000000 DUP2 MSTORE PUSH1 0x4 ADD PUSH2 0x36C SWAP1 PUSH2 0x135E JUMP JUMPDEST PUSH1 0x40 MLOAD DUP1 SWAP2 SUB SWAP1 REVERT JUMPDEST PUSH1 0x3 DUP1 PUSH1 0x3 DUP2 GT ISZERO PUSH2 0x38A JUMPI PUSH2 0x389 PUSH2 0xFED JUMP JUMPDEST JUMPDEST PUSH1 0x1 PUSH1 0x14 SWAP1 SLOAD SWAP1 PUSH2 0x100 EXP SWAP1 DIV PUSH1 0xFF AND PUSH1 0x3 DUP2 GT ISZERO PUSH2 0x3AC JUMPI PUSH2 0x3AB PUSH2 0xFED JUMP JUMPDEST JUMPDEST EQ PUSH2 0x3EC JUMPI PUSH1 0x40 MLOAD PUSH32 0x8C379A000000000000000000000000000000000000000000000000000000000 DUP2 MSTORE PUSH1 0x4 ADD PUSH2 0x3E3 SWAP1 PUSH2 0x13C6 JUMP JUMPDEST PUSH1 0x40 MLOAD DUP1 SWAP2 SUB SWAP1 REVERT JUMPDEST PUSH0 PUSH20 0xFFFFFFFFFFFFFFFFFFFFFFFFFFFFFFFFFFFFFFFF AND PUSH1 0x4 PUSH0 SWAP1 SLOAD SWAP1 PUSH2 0x100 EXP SWAP1 DIV PUSH20 0xFFFFFFFFFFFFFFFFFFFFFFFFFFFFFFFFFFFFFFFF AND PUSH20 0xFFFFFFFFFFFFFFFFFFFFFFFFFFFFFFFFFFFFFFFF AND EQ PUSH2 0x4A8 JUMPI PUSH1 0x1 PUSH0 SWAP1 SLOAD SWAP1 PUSH2 0x100 EXP SWAP1 DIV PUSH20 0xFFFFFFFFFFFFFFFFFFFFFFFFFFFFFFFFFFFFFFFF AND PUSH20 0xFFFFFFFFFFFFFFFFFFFFFFFFFFFFFFFFFFFFFFFF AND PUSH2 0x8FC PUSH1 0x5 SLOAD SWAP1 DUP2 ISZERO MUL SWAP1 PUSH1 0x40 MLOAD PUSH0 PUSH1 0x40 MLOAD DUP1 DUP4 SUB DUP2 DUP6 DUP9 DUP9 CALL SWAP4 POP POP POP POP ISZERO DUP1 ISZERO PUSH2 0x4A6 JUMPI RETURNDATASIZE PUSH0 DUP1 RETURNDATACOPY RETURNDATASIZE PUSH0 REVERT JUMPDEST POP JUMPDEST PUSH32 0xDAEC4582D5D9595688C8C98545FDD1C696D41C6AEAEB636737E84ED2F5C00EDA PUSH1 0x4 PUSH0 SWAP1 SLOAD SWAP1 PUSH2 0x100 EXP SWAP1 DIV PUSH20 0xFFFFFFFFFFFFFFFFFFFFFFFFFFFFFFFFFFFFFFFF AND PUSH1 0x5 SLOAD PUSH1 0x40 MLOAD PUSH2 0x4FC SWAP3 SWAP2 SWAP1 PUSH2 0x13E4 JUMP JUMPDEST PUSH1 0x40 MLOAD DUP1 SWAP2 SUB SWAP1 LOG1 POP JUMP JUMPDEST PUSH1 0x1 PUSH0 SWAP1 SLOAD SWAP1 PUSH2 0x100 EXP SWAP1 DIV PUSH20 0xFFFFFFFFFFFFFFFFFFFFFFFFFFFFFFFFFFFFFFFF AND DUP2 JUMP JUMPDEST PUSH0 PUSH1 0x3 PUSH0 CALLER PUSH20 0xFFFFFFFFFFFFFFFFFFFFFFFFFFFFFFFFFFFFFFFF AND PUSH20 0xFFFFFFFFFFFFFFFFFFFFFFFFFFFFFFFFFFFFFFFF AND DUP2 MSTORE PUSH1 0x20 ADD SWAP1 DUP2 MSTORE PUSH1 0x20 ADD PUSH0 KECCAK256 SLOAD SWAP1 POP PUSH0 DUP2 GT ISZERO PUSH2 0x5FC JUMPI PUSH0 PUSH1 0x3 PUSH0 CALLER PUSH20 0xFFFFFFFFFFFFFFFFFFFFFFFFFFFFFFFFFFFFFFFF AND PUSH20 0xFFFFFFFFFFFFFFFFFFFFFFFFFFFFFFFFFFFFFFFF AND DUP2 MSTORE PUSH1 0x20 ADD SWAP1 DUP2 MSTORE PUSH1 0x20 ADD PUSH0 KECCAK256 DUP2 SWAP1 SSTORE POP CALLER PUSH20 0xFFFFFFFFFFFFFFFFFFFFFFFFFFFFFFFFFFFFFFFF AND PUSH2 0x8FC DUP3 SWAP1 DUP2 ISZERO MUL SWAP1 PUSH1 0x40 MLOAD PUSH0 PUSH1 0x40 MLOAD DUP1 DUP4 SUB DUP2 DUP6 DUP9 DUP9 CALL SWAP4 POP POP POP POP ISZERO DUP1 ISZERO PUSH2 0x5FA JUMPI RETURNDATASIZE PUSH0 DUP1 RETURNDATACOPY RETURNDATASIZE PUSH0 REVERT JUMPDEST POP JUMPDEST POP JUMP JUMPDEST PUSH1 0x2 DUP1 PUSH1 0x3 DUP2 GT ISZERO PUSH2 0x614 JUMPI PUSH2 0x613 PUSH2 0xFED JUMP JUMPDEST JUMPDEST PUSH1 0x1 PUSH1 0x14 SWAP1 SLOAD SWAP1 PUSH2 0x100 EXP SWAP1 DIV PUSH1 0xFF AND PUSH1 0x3 DUP2 GT ISZERO PUSH2 0x636 JUMPI PUSH2 0x635 PUSH2 0xFED JUMP JUMPDEST JUMPDEST EQ PUSH2 0x676 JUMPI PUSH1 0x40 MLOAD PUSH32 0x8C379A000000000000000000000000000000000000000000000000000000000 DUP2 MSTORE PUSH1 0x4 ADD PUSH2 0x66D SWAP1 PUSH2 0x13C6 JUMP JUMPDEST PUSH1 0x40 MLOAD DUP1 SWAP2 SUB SWAP1 REVERT JUMPDEST PUSH0 PUSH1 0x2 PUSH0 CALLER PUSH20 0xFFFFFFFFFFFFFFFFFFFFFFFFFFFFFFFFFFFFFFFF AND PUSH20 0xFFFFFFFFFFFFFFFFFFFFFFFFFFFFFFFFFFFFFFFF AND DUP2 MSTORE PUSH1 0x20 ADD SWAP1 DUP2 MSTORE PUSH1 0x20 ADD PUSH0 KECCAK256 SWAP1 POP PUSH0 DUP1 PUSH0 SWAP1 SLOAD SWAP1 PUSH2 0x100 EXP SWAP1 DIV PUSH20 0xFFFFFFFFFFFFFFFFFFFFFFFFFFFFFFFFFFFFFFFF AND PUSH20 0xFFFFFFFFFFFFFFFFFFFFFFFFFFFFFFFFFFFFFFFF AND PUSH4 0xB3EC48DD DUP7 DUP7 PUSH1 0x40 MLOAD DUP4 PUSH4 0xFFFFFFFF AND PUSH1 0xE0 SHL DUP2 MSTORE PUSH1 0x4 ADD PUSH2 0x712 SWAP3 SWAP2 SWAP1 PUSH2 0x140B JUMP JUMPDEST PUSH1 0x20 PUSH1 0x40 MLOAD DUP1 DUP4 SUB DUP2 DUP7 GAS STATICCALL ISZERO DUP1 ISZERO PUSH2 0x72D JUMPI RETURNDATASIZE PUSH0 DUP1 RETURNDATACOPY RETURNDATASIZE PUSH0 REVERT JUMPDEST POP POP POP POP PUSH1 0x40 MLOAD RETURNDATASIZE PUSH1 0x1F NOT PUSH1 0x1F DUP3 ADD AND DUP3 ADD DUP1 PUSH1 0x40 MSTORE POP DUP2 ADD SWAP1 PUSH2 0x751 SWAP2 SWAP1 PUSH2 0x1446 JUMP JUMPDEST SWAP1 POP PUSH1 0x6 SLOAD PUSH1 0x5 SLOAD PUSH2 0x763 SWAP2 SWAP1 PUSH2 0x149E JUMP JUMPDEST DUP6 LT ISZERO PUSH2 0x7A5 JUMPI PUSH1 0x40 MLOAD PUSH32 0x8C379A000000000000000000000000000000000000000000000000000000000 DUP2 MSTORE PUSH1 0x4 ADD PUSH2 0x79C SWAP1 PUSH2 0x1567 JUMP JUMPDEST PUSH1 0x40 MLOAD DUP1 SWAP2 SUB SWAP1 REVERT JUMPDEST DUP1 DUP3 PUSH0 ADD SLOAD SUB PUSH2 0x96C JUMPI PUSH0 DUP3 PUSH1 0x1 ADD SLOAD SWAP1 POP PUSH1 0x5 SLOAD PUSH8 0xDE0B6B3A7640000 DUP8 PUSH2 0x7CE SWAP2 SWAP1 PUSH2 0x1585 JUMP JUMPDEST GT ISZERO PUSH2 0x91B JUMPI PUSH0 PUSH20 0xFFFFFFFFFFFFFFFFFFFFFFFFFFFFFFFFFFFFFFFF AND PUSH1 0x4 PUSH0 SWAP1 SLOAD SWAP1 PUSH2 0x100 EXP SWAP1 DIV PUSH20 0xFFFFFFFFFFFFFFFFFFFFFFFFFFFFFFFFFFFFFFFF AND PUSH20 0xFFFFFFFFFFFFFFFFFFFFFFFFFFFFFFFFFFFFFFFF AND EQ PUSH2 0x89F JUMPI PUSH1 0x5 SLOAD PUSH1 0x3 PUSH0 PUSH1 0x4 PUSH0 SWAP1 SLOAD SWAP1 PUSH2 0x100 EXP SWAP1 DIV PUSH20 0xFFFFFFFFFFFFFFFFFFFFFFFFFFFFFFFFFFFFFFFF AND PUSH20 0xFFFFFFFFFFFFFFFFFFFFFFFFFFFFFFFFFFFFFFFF AND PUSH20 0xFFFFFFFFFFFFFFFFFFFFFFFFFFFFFFFFFFFFFFFF AND DUP2 MSTORE PUSH1 0x20 ADD SWAP1 DUP2 MSTORE PUSH1 0x20 ADD PUSH0 KECCAK256 PUSH0 DUP3 DUP3 SLOAD PUSH2 0x897 SWAP2 SWAP1 PUSH2 0x149E JUMP JUMPDEST SWAP3 POP POP DUP2 SWAP1 SSTORE POP JUMPDEST CALLER PUSH1 0x4 PUSH0 PUSH2 0x100 EXP DUP2 SLOAD DUP2 PUSH20 0xFFFFFFFFFFFFFFFFFFFFFFFFFFFFFFFFFFFFFFFF MUL NOT AND SWAP1 DUP4 PUSH20 0xFFFFFFFFFFFFFFFFFFFFFFFFFFFFFFFFFFFFFFFF AND MUL OR SWAP1 SSTORE POP PUSH8 0xDE0B6B3A7640000 DUP7 PUSH2 0x8F3 SWAP2 SWAP1 PUSH2 0x1585 JUMP JUMPDEST PUSH1 0x5 DUP2 SWAP1 SSTORE POP PUSH8 0xDE0B6B3A7640000 DUP7 PUSH2 0x90D SWAP2 SWAP1 PUSH2 0x1585 JUMP JUMPDEST DUP2 PUSH2 0x918 SWAP2 SWAP1 PUSH2 0x15C6 JUMP JUMPDEST SWAP1 POP JUMPDEST PUSH0 DUP2 GT ISZERO PUSH2 0x966 JUMPI DUP1 PUSH1 0x3 PUSH0 CALLER PUSH20 0xFFFFFFFFFFFFFFFFFFFFFFFFFFFFFFFFFFFFFFFF AND PUSH20 0xFFFFFFFFFFFFFFFFFFFFFFFFFFFFFFFFFFFFFFFF AND DUP2 MSTORE PUSH1 0x20 ADD SWAP1 DUP2 MSTORE PUSH1 0x20 ADD PUSH0 KECCAK256 DUP2 SWAP1 SSTORE POP JUMPDEST POP PUSH2 0x9B3 JUMP JUMPDEST DUP2 PUSH1 0x1 ADD SLOAD PUSH1 0x3 PUSH0 CALLER PUSH20 0xFFFFFFFFFFFFFFFFFFFFFFFFFFFFFFFFFFFFFFFF AND PUSH20 0xFFFFFFFFFFFFFFFFFFFFFFFFFFFFFFFFFFFFFFFF AND DUP2 MSTORE PUSH1 0x20 ADD SWAP1 DUP2 MSTORE PUSH1 0x20 ADD PUSH0 KECCAK256 DUP2 SWAP1 SSTORE POP JUMPDEST PUSH0 DUP1 SHL DUP3 PUSH0 ADD DUP2 SWAP1 SSTORE POP POP POP POP POP POP JUMP JUMPDEST PUSH1 0x2 PUSH1 0x20 MSTORE DUP1 PUSH0 MSTORE PUSH1 0x40 PUSH0 KECCAK256 PUSH0 SWAP2 POP SWAP1 POP DUP1 PUSH0 ADD SLOAD SWAP1 DUP1 PUSH1 0x1 ADD SLOAD SWAP1 POP DUP3 JUMP JUMPDEST PUSH0 DUP1 SLOAD SWAP1 PUSH2 0x100 EXP SWAP1 DIV PUSH20 0xFFFFFFFFFFFFFFFFFFFFFFFFFFFFFFFFFFFFFFFF AND DUP2 JUMP JUMPDEST PUSH1 0x4 PUSH0 SWAP1 SLOAD SWAP1 PUSH2 0x100 EXP SWAP1 DIV PUSH20 0xFFFFFFFFFFFFFFFFFFFFFFFFFFFFFFFFFFFFFFFF AND DUP2 JUMP JUMPDEST PUSH1 0x1 DUP1 PUSH1 0x3 DUP2 GT ISZERO PUSH2 0xA41 JUMPI PUSH2 0xA40 PUSH2 0xFED JUMP JUMPDEST JUMPDEST PUSH1 0x1 PUSH1 0x14 SWAP1 SLOAD SWAP1 PUSH2 0x100 EXP SWAP1 DIV PUSH1 0xFF AND PUSH1 0x3 DUP2 GT ISZERO PUSH2 0xA63 JUMPI PUSH2 0xA62 PUSH2 0xFED JUMP JUMPDEST JUMPDEST EQ PUSH2 0xAA3 JUMPI PUSH1 0x40 MLOAD PUSH32 0x8C379A000000000000000000000000000000000000000000000000000000000 DUP2 MSTORE PUSH1 0x4 ADD PUSH2 0xA9A SWAP1 PUSH2 0x13C6 JUMP JUMPDEST PUSH1 0x40 MLOAD DUP1 SWAP2 SUB SWAP1 REVERT JUMPDEST PUSH0 PUSH1 0x2 PUSH0 CALLER PUSH20 0xFFFFFFFFFFFFFFFFFFFFFFFFFFFFFFFFFFFFFFFF AND PUSH20 0xFFFFFFFFFFFFFFFFFFFFFFFFFFFFFFFFFFFFFFFF AND DUP2 MSTORE PUSH1 0x20 ADD SWAP1 DUP2 MSTORE PUSH1 0x20 ADD PUSH0 KECCAK256 SWAP1 POP PUSH0 DUP2 PUSH1 0x1 ADD SLOAD GT PUSH2 0xB29 JUMPI PUSH1 0x40 MLOAD PUSH32 0x8C379A000000000000000000000000000000000000000000000000000000000 DUP2 MSTORE PUSH1 0x4 ADD PUSH2 0xB20 SWAP1 PUSH2 0x1643 JUMP JUMPDEST PUSH1 0x40 MLOAD DUP1 SWAP2 SUB SWAP1 REVERT JUMPDEST PUSH0 DUP2 PUSH1 0x1 ADD SLOAD SWAP1 POP PUSH0 DUP3 PUSH1 0x1 ADD DUP2 SWAP1 SSTORE POP PUSH0 DUP1 SHL DUP3 PUSH0 ADD DUP2 SWAP1 SSTORE POP DUP1 PUSH1 0x3 PUSH0 CALLER PUSH20 0xFFFFFFFFFFFFFFFFFFFFFFFFFFFFFFFFFFFFFFFF AND PUSH20 0xFFFFFFFFFFFFFFFFFFFFFFFFFFFFFFFFFFFFFFFF AND DUP2 MSTORE PUSH1 0x20 ADD SWAP1 DUP2 MSTORE PUSH1 0x20 ADD PUSH0 KECCAK256 DUP2 SWAP1 SSTORE POP PUSH32 0x8D38C62EE74CD9E3DBCC09FEAA7D1F5568AEAA35CBF8A0F167F513C07E2FD0B8 CALLER DUP3 PUSH1 0x40 MLOAD PUSH2 0xBB7 SWAP3 SWAP2 SWAP1 PUSH2 0x13E4 JUMP JUMPDEST PUSH1 0x40 MLOAD DUP1 SWAP2 SUB SWAP1 LOG1 POP POP POP JUMP JUMPDEST PUSH0 PUSH1 0x3 PUSH0 CALLER PUSH20 0xFFFFFFFFFFFFFFFFFFFFFFFFFFFFFFFFFFFFFFFF AND PUSH20 0xFFFFFFFFFFFFFFFFFFFFFFFFFFFFFFFFFFFFFFFF AND DUP2 MSTORE PUSH1 0x20 ADD SWAP1 DUP2 MSTORE PUSH1 0x20 ADD PUSH0 KECCAK256 SLOAD SWAP1 POP SWAP1 JUMP JUMPDEST PUSH1 0x1 DUP1 PUSH1 0x3 DUP2 GT ISZERO PUSH2 0xC1D JUMPI PUSH2 0xC1C PUSH2 0xFED JUMP JUMPDEST JUMPDEST PUSH1 0x1 PUSH1 0x14 SWAP1 SLOAD SWAP1 PUSH2 0x100 EXP SWAP1 DIV PUSH1 0xFF AND PUSH1 0x3 DUP2 GT ISZERO PUSH2 0xC3F JUMPI PUSH2 0xC3E PUSH2 0xFED JUMP JUMPDEST JUMPDEST EQ PUSH2 0xC7F JUMPI PUSH1 0x40 MLOAD PUSH32 0x8C379A000000000000000000000000000000000000000000000000000000000 DUP2 MSTORE PUSH1 0x4 ADD PUSH2 0xC76 SWAP1 PUSH2 0x13C6 JUMP JUMPDEST PUSH1 0x40 MLOAD DUP1 SWAP2 SUB SWAP1 REVERT JUMPDEST PUSH1 0x40 MLOAD DUP1 PUSH1 0x40 ADD PUSH1 0x40 MSTORE DUP1 DUP4 DUP2 MSTORE PUSH1 0x20 ADD CALLVALUE DUP2 MSTORE POP PUSH1 0x2 PUSH0 CALLER PUSH20 0xFFFFFFFFFFFFFFFFFFFFFFFFFFFFFFFFFFFFFFFF AND PUSH20 0xFFFFFFFFFFFFFFFFFFFFFFFFFFFFFFFFFFFFFFFF AND DUP2 MSTORE PUSH1 0x20 ADD SWAP1 DUP2 MSTORE PUSH1 0x20 ADD PUSH0 KECCAK256 PUSH0 DUP3 ADD MLOAD DUP2 PUSH0 ADD SSTORE PUSH1 0x20 DUP3 ADD MLOAD DUP2 PUSH1 0x1 ADD SSTORE SWAP1 POP POP POP POP JUMP JUMPDEST PUSH1 0x1 PUSH0 SWAP1 SLOAD SWAP1 PUSH2 0x100 EXP SWAP1 DIV PUSH20 0xFFFFFFFFFFFFFFFFFFFFFFFFFFFFFFFFFFFFFFFF AND PUSH20 0xFFFFFFFFFFFFFFFFFFFFFFFFFFFFFFFFFFFFFFFF AND CALLER PUSH20 0xFFFFFFFFFFFFFFFFFFFFFFFFFFFFFFFFFFFFFFFF AND EQ PUSH2 0xD79 JUMPI PUSH1 0x40 MLOAD PUSH32 0x8C379A000000000000000000000000000000000000000000000000000000000 DUP2 MSTORE PUSH1 0x4 ADD PUSH2 0xD70 SWAP1 PUSH2 0x135E JUMP JUMPDEST PUSH1 0x40 MLOAD DUP1 SWAP2 SUB SWAP1 REVERT JUMPDEST PUSH1 0x3 DUP1 DUP2 GT ISZERO PUSH2 0xD8C JUMPI PUSH2 0xD8B PUSH2 0xFED JUMP JUMPDEST JUMPDEST PUSH1 0x1 PUSH1 0x14 SWAP1 SLOAD SWAP1 PUSH2 0x100 EXP SWAP1 DIV PUSH1 0xFF AND PUSH1 0x3 DUP2 GT ISZERO PUSH2 0xDAE JUMPI PUSH2 0xDAD PUSH2 0xFED JUMP JUMPDEST JUMPDEST SUB PUSH2 0xDEE JUMPI PUSH1 0x40 MLOAD PUSH32 0x8C379A000000000000000000000000000000000000000000000000000000000 DUP2 MSTORE PUSH1 0x4 ADD PUSH2 0xDE5 SWAP1 PUSH2 0x16AB JUMP JUMPDEST PUSH1 0x40 MLOAD DUP1 SWAP2 SUB SWAP1 REVERT JUMPDEST PUSH0 PUSH1 0x3 DUP2 GT ISZERO PUSH2 0xE01 JUMPI PUSH2 0xE00 PUSH2 0xFED JUMP JUMPDEST JUMPDEST PUSH1 0x1 PUSH1 0x14 SWAP1 SLOAD SWAP1 PUSH2 0x100 EXP SWAP1 DIV PUSH1 0xFF AND PUSH1 0x3 DUP2 GT ISZERO PUSH2 0xE23 JUMPI PUSH2 0xE22 PUSH2 0xFED JUMP JUMPDEST JUMPDEST SUB PUSH2 0xE83 JUMPI PUSH1 0x1 DUP1 PUSH1 0x14 PUSH2 0x100 EXP DUP2 SLOAD DUP2 PUSH1 0xFF MUL NOT AND SWAP1 DUP4 PUSH1 0x3 DUP2 GT ISZERO PUSH2 0xE4D JUMPI PUSH2 0xE4C PUSH2 0xFED JUMP JUMPDEST JUMPDEST MUL OR SWAP1 SSTORE POP PUSH32 0x2C124E22EE7DA1C9905BBB317CF67658C1CC3EA1C0953B1633F85D0B5C281D9 PUSH1 0x40 MLOAD PUSH1 0x40 MLOAD DUP1 SWAP2 SUB SWAP1 LOG1 PUSH2 0xFDF JUMP JUMPDEST PUSH1 0x1 PUSH1 0x3 DUP2 GT ISZERO PUSH2 0xE97 JUMPI PUSH2 0xE96 PUSH2 0xFED JUMP JUMPDEST JUMPDEST PUSH1 0x1 PUSH1 0x14 SWAP1 SLOAD SWAP1 PUSH2 0x100 EXP SWAP1 DIV PUSH1 0xFF AND PUSH1 0x3 DUP2 GT ISZERO PUSH2 0xEB9 JUMPI PUSH2 0xEB8 PUSH2 0xFED JUMP JUMPDEST JUMPDEST SUB PUSH2 0xF1A JUMPI PUSH1 0x2 PUSH1 0x1 PUSH1 0x14 PUSH2 0x100 EXP DUP2 SLOAD DUP2 PUSH1 0xFF MUL NOT AND SWAP1 DUP4 PUSH1 0x3 DUP2 GT ISZERO PUSH2 0xEE4 JUMPI PUSH2 0xEE3 PUSH2 0xFED JUMP JUMPDEST JUMPDEST MUL OR SWAP1 SSTORE POP PUSH32 0x3BCC93D35219AA0512D7C0D1CA10B0231F473E3D5F9396877D1B7215EE0AB3D5 PUSH1 0x40 MLOAD PUSH1 0x40 MLOAD DUP1 SWAP2 SUB SWAP1 LOG1 PUSH2 0xFDE JUMP JUMPDEST PUSH1 0x2 PUSH1 0x3 DUP2 GT ISZERO PUSH2 0xF2E JUMPI PUSH2 0xF2D PUSH2 0xFED JUMP JUMPDEST JUMPDEST PUSH1 0x1 PUSH1 0x14 SWAP1 SLOAD SWAP1 PUSH2 0x100 EXP SWAP1 DIV PUSH1 0xFF AND PUSH1 0x3 DUP2 GT ISZERO PUSH2 0xF50 JUMPI PUSH2 0xF4F PUSH2 0xFED JUMP JUMPDEST JUMPDEST SUB PUSH2 0xFDD JUMPI PUSH1 0x3 PUSH1 0x1 PUSH1 0x14 PUSH2 0x100 EXP DUP2 SLOAD DUP2 PUSH1 0xFF MUL NOT AND SWAP1 DUP4 PUSH1 0x3 DUP2 GT ISZERO PUSH2 0xF7B JUMPI PUSH2 0xF7A PUSH2 0xFED JUMP JUMPDEST JUMPDEST MUL OR SWAP1 SSTORE POP PUSH32 0xDAEC4582D5D9595688C8C98545FDD1C696D41C6AEAEB636737E84ED2F5C00EDA PUSH1 0x4 PUSH0 SWAP1 SLOAD SWAP1 PUSH2 0x100 EXP SWAP1 DIV PUSH20 0xFFFFFFFFFFFFFFFFFFFFFFFFFFFFFFFFFFFFFFFF AND PUSH1 0x5 SLOAD PUSH1 0x40 MLOAD PUSH2 0xFD4 SWAP3 SWAP2 SWAP1 PUSH2 0x13E4 JUMP JUMPDEST PUSH1 0x40 MLOAD DUP1 SWAP2 SUB SWAP1 LOG1 JUMPDEST JUMPDEST JUMPDEST JUMP JUMPDEST PUSH1 0x5 SLOAD DUP2 JUMP JUMPDEST PUSH1 0x6 SLOAD DUP2 JUMP JUMPDEST PUSH32 0x4E487B7100000000000000000000000000000000000000000000000000000000 PUSH0 MSTORE PUSH1 0x21 PUSH1 0x4 MSTORE PUSH1 0x24 PUSH0 REVERT JUMPDEST PUSH1 0x4 DUP2 LT PUSH2 0x102B JUMPI PUSH2 0x102A PUSH2 0xFED JUMP JUMPDEST JUMPDEST POP JUMP JUMPDEST PUSH0 DUP2 SWAP1 POP PUSH2 0x103B DUP3 PUSH2 0x101A JUMP JUMPDEST SWAP2 SWAP1 POP JUMP JUMPDEST PUSH0 PUSH2 0x104A DUP3 PUSH2 0x102E JUMP JUMPDEST SWAP1 POP SWAP2 SWAP1 POP JUMP JUMPDEST PUSH2 0x105A DUP2 PUSH2 0x1040 JUMP JUMPDEST DUP3 MSTORE POP POP JUMP JUMPDEST PUSH0 PUSH1 0x20 DUP3 ADD SWAP1 POP PUSH2 0x1073 PUSH0 DUP4 ADD DUP5 PUSH2 0x1051 JUMP JUMPDEST SWAP3 SWAP2 POP POP JUMP JUMPDEST PUSH0 PUSH20 0xFFFFFFFFFFFFFFFFFFFFFFFFFFFFFFFFFFFFFFFF DUP3 AND SWAP1 POP SWAP2 SWAP1 POP JUMP JUMPDEST PUSH0 PUSH2 0x10A2 DUP3 PUSH2 0x1079 JUMP JUMPDEST SWAP1 POP SWAP2 SWAP1 POP JUMP JUMPDEST PUSH2 0x10B2 DUP2 PUSH2 0x1098 JUMP JUMPDEST DUP3 MSTORE POP POP JUMP JUMPDEST PUSH0 PUSH1 0x20 DUP3 ADD SWAP1 POP PUSH2 0x10CB PUSH0 DUP4 ADD DUP5 PUSH2 0x10A9 JUMP JUMPDEST SWAP3 SWAP2 POP POP JUMP JUMPDEST PUSH0 DUP1 REVERT JUMPDEST PUSH0 DUP2 SWAP1 POP SWAP2 SWAP1 POP JUMP JUMPDEST PUSH2 0x10E7 DUP2 PUSH2 0x10D5 JUMP JUMPDEST DUP2 EQ PUSH2 0x10F1 JUMPI PUSH0 DUP1 REVERT JUMPDEST POP JUMP JUMPDEST PUSH0 DUP2 CALLDATALOAD SWAP1 POP PUSH2 0x1102 DUP2 PUSH2 0x10DE JUMP JUMPDEST SWAP3 SWAP2 POP POP JUMP JUMPDEST PUSH0 DUP2 SWAP1 POP SWAP2 SWAP1 POP JUMP JUMPDEST PUSH2 0x111A DUP2 PUSH2 0x1108 JUMP JUMPDEST DUP2 EQ PUSH2 0x1124 JUMPI PUSH0 DUP1 REVERT JUMPDEST POP JUMP JUMPDEST PUSH0 DUP2 CALLDATALOAD SWAP1 POP PUSH2 0x1135 DUP2 PUSH2 0x1111 JUMP JUMPDEST SWAP3 SWAP2 POP POP JUMP JUMPDEST PUSH0 DUP1 PUSH1 0x40 DUP4 DUP6 SUB SLT ISZERO PUSH2 0x1151 JUMPI PUSH2 0x1150 PUSH2 0x10D1 JUMP JUMPDEST JUMPDEST PUSH0 PUSH2 0x115E DUP6 DUP3 DUP7 ADD PUSH2 0x10F4 JUMP JUMPDEST SWAP3 POP POP PUSH1 0x20 PUSH2 0x116F DUP6 DUP3 DUP7 ADD PUSH2 0x1127 JUMP JUMPDEST SWAP2 POP POP SWAP3 POP SWAP3 SWAP1 POP JUMP JUMPDEST PUSH0 PUSH2 0x1183 DUP3 PUSH2 0x1079 JUMP JUMPDEST SWAP1 POP SWAP2 SWAP1 POP JUMP JUMPDEST PUSH2 0x1193 DUP2 PUSH2 0x1179 JUMP JUMPDEST DUP2 EQ PUSH2 0x119D JUMPI PUSH0 DUP1 REVERT JUMPDEST POP JUMP JUMPDEST PUSH0 DUP2 CALLDATALOAD SWAP1 POP PUSH2 0x11AE DUP2 PUSH2 0x118A JUMP JUMPDEST SWAP3 SWAP2 POP POP JUMP JUMPDEST PUSH0 PUSH1 0x20 DUP3 DUP5 SUB SLT ISZERO PUSH2 0x11C9 JUMPI PUSH2 0x11C8 PUSH2 0x10D1 JUMP JUMPDEST JUMPDEST PUSH0 PUSH2 0x11D6 DUP5 DUP3 DUP6 ADD PUSH2 0x11A0 JUMP JUMPDEST SWAP2 POP POP SWAP3 SWAP2 POP POP JUMP JUMPDEST PUSH2 0x11E8 DUP2 PUSH2 0x1108 JUMP JUMPDEST DUP3 MSTORE POP POP JUMP JUMPDEST PUSH2 0x11F7 DUP2 PUSH2 0x10D5 JUMP JUMPDEST DUP3 MSTORE POP POP JUMP JUMPDEST PUSH0 PUSH1 0x40 DUP3 ADD SWAP1 POP PUSH2 0x1210 PUSH0 DUP4 ADD DUP6 PUSH2 0x11DF JUMP JUMPDEST PUSH2 0x121D PUSH1 0x20 DUP4 ADD DUP5 PUSH2 0x11EE JUMP JUMPDEST SWAP4 SWAP3 POP POP POP JUMP JUMPDEST PUSH0 DUP2 SWAP1 POP SWAP2 SWAP1 POP JUMP JUMPDEST PUSH0 PUSH2 0x1247 PUSH2 0x1242 PUSH2 0x123D DUP5 PUSH2 0x1079 JUMP JUMPDEST PUSH2 0x1224 JUMP JUMPDEST PUSH2 0x1079 JUMP JUMPDEST SWAP1 POP SWAP2 SWAP1 POP JUMP JUMPDEST PUSH0 PUSH2 0x1258 DUP3 PUSH2 0x122D JUMP JUMPDEST SWAP1 POP SWAP2 SWAP1 POP JUMP JUMPDEST PUSH0 PUSH2 0x1269 DUP3 PUSH2 0x124E JUMP JUMPDEST SWAP1 POP SWAP2 SWAP1 POP JUMP JUMPDEST PUSH2 0x1279 DUP2 PUSH2 0x125F JUMP JUMPDEST DUP3 MSTORE POP POP JUMP JUMPDEST PUSH0 PUSH1 0x20 DUP3 ADD SWAP1 POP PUSH2 0x1292 PUSH0 DUP4 ADD DUP5 PUSH2 0x1270 JUMP JUMPDEST SWAP3 SWAP2 POP POP JUMP JUMPDEST PUSH2 0x12A1 DUP2 PUSH2 0x1179 JUMP JUMPDEST DUP3 MSTORE POP POP JUMP JUMPDEST PUSH0 PUSH1 0x20 DUP3 ADD SWAP1 POP PUSH2 0x12BA PUSH0 DUP4 ADD DUP5 PUSH2 0x1298 JUMP JUMPDEST SWAP3 SWAP2 POP POP JUMP JUMPDEST PUSH0 PUSH1 0x20 DUP3 ADD SWAP1 POP PUSH2 0x12D3 PUSH0 DUP4 ADD DUP5 PUSH2 0x11EE JUMP JUMPDEST SWAP3 SWAP2 POP POP JUMP JUMPDEST PUSH0 PUSH1 0x20 DUP3 DUP5 SUB SLT ISZERO PUSH2 0x12EE JUMPI PUSH2 0x12ED PUSH2 0x10D1 JUMP JUMPDEST JUMPDEST PUSH0 PUSH2 0x12FB DUP5 DUP3 DUP6 ADD PUSH2 0x1127 JUMP JUMPDEST SWAP2 POP POP SWAP3 SWAP2 POP POP JUMP JUMPDEST PUSH0 DUP3 DUP3 MSTORE PUSH1 0x20 DUP3 ADD SWAP1 POP SWAP3 SWAP2 POP POP JUMP JUMPDEST PUSH32 0x4F6E6C792062656E65666963696172792063616E2063616C6C20746869730000 PUSH0 DUP3 ADD MSTORE POP JUMP JUMPDEST PUSH0 PUSH2 0x1348 PUSH1 0x1E DUP4 PUSH2 0x1304 JUMP JUMPDEST SWAP2 POP PUSH2 0x1353 DUP3 PUSH2 0x1314 JUMP JUMPDEST PUSH1 0x20 DUP3 ADD SWAP1 POP SWAP2 SWAP1 POP JUMP JUMPDEST PUSH0 PUSH1 0x20 DUP3 ADD SWAP1 POP DUP2 DUP2 SUB PUSH0 DUP4 ADD MSTORE PUSH2 0x1375 DUP2 PUSH2 0x133C JUMP JUMPDEST SWAP1 POP SWAP2 SWAP1 POP JUMP JUMPDEST PUSH32 0x496E76616C696420706861736500000000000000000000000000000000000000 PUSH0 DUP3 ADD MSTORE POP JUMP JUMPDEST PUSH0 PUSH2 0x13B0 PUSH1 0xD DUP4 PUSH2 0x1304 JUMP JUMPDEST SWAP2 POP PUSH2 0x13BB DUP3 PUSH2 0x137C JUMP JUMPDEST PUSH1 0x20 DUP3 ADD SWAP1 POP SWAP2 SWAP1 POP JUMP JUMPDEST PUSH0 PUSH1 0x20 DUP3 ADD SWAP1 POP DUP2 DUP2 SUB PUSH0 DUP4 ADD MSTORE PUSH2 0x13DD DUP2 PUSH2 0x13A4 JUMP JUMPDEST SWAP1 POP SWAP2 SWAP1 POP JUMP JUMPDEST PUSH0 PUSH1 0x40 DUP3 ADD SWAP1 POP PUSH2 0x13F7 PUSH0 DUP4 ADD DUP6 PUSH2 0x1298 JUMP JUMPDEST PUSH2 0x1404 PUSH1 0x20 DUP4 ADD DUP5 PUSH2 0x11EE JUMP JUMPDEST SWAP4 SWAP3 POP POP POP JUMP JUMPDEST PUSH0 PUSH1 0x40 DUP3 ADD SWAP1 POP PUSH2 0x141E PUSH0 DUP4 ADD DUP6 PUSH2 0x11EE JUMP JUMPDEST PUSH2 0x142B PUSH1 0x20 DUP4 ADD DUP5 PUSH2 0x11DF JUMP JUMPDEST SWAP4 SWAP3 POP POP POP JUMP JUMPDEST PUSH0 DUP2 MLOAD SWAP1 POP PUSH2 0x1440 DUP2 PUSH2 0x1111 JUMP JUMPDEST SWAP3 SWAP2 POP POP JUMP JUMPDEST PUSH0 PUSH1 0x20 DUP3 DUP5 SUB SLT ISZERO PUSH2 0x145B JUMPI PUSH2 0x145A PUSH2 0x10D1 JUMP JUMPDEST JUMPDEST PUSH0 PUSH2 0x1468 DUP5 DUP3 DUP6 ADD PUSH2 0x1432 JUMP JUMPDEST SWAP2 POP POP SWAP3 SWAP2 POP POP JUMP JUMPDEST PUSH32 0x4E487B7100000000000000000000000000000000000000000000000000000000 PUSH0 MSTORE PUSH1 0x11 PUSH1 0x4 MSTORE PUSH1 0x24 PUSH0 REVERT JUMPDEST PUSH0 PUSH2 0x14A8 DUP3 PUSH2 0x10D5 JUMP JUMPDEST SWAP2 POP PUSH2 0x14B3 DUP4 PUSH2 0x10D5 JUMP JUMPDEST SWAP3 POP DUP3 DUP3 ADD SWAP1 POP DUP1 DUP3 GT ISZERO PUSH2 0x14CB JUMPI PUSH2 0x14CA PUSH2 0x1471 JUMP JUMPDEST JUMPDEST SWAP3 SWAP2 POP POP JUMP JUMPDEST PUSH32 0x426964206D75737420626520686967686572207468616E207468652063757272 PUSH0 DUP3 ADD MSTORE PUSH32 0x656E7420686967686573742062696420706C7573206D696E696D756D20696E63 PUSH1 0x20 DUP3 ADD MSTORE PUSH32 0x72656D656E740000000000000000000000000000000000000000000000000000 PUSH1 0x40 DUP3 ADD MSTORE POP JUMP JUMPDEST PUSH0 PUSH2 0x1551 PUSH1 0x46 DUP4 PUSH2 0x1304 JUMP JUMPDEST SWAP2 POP PUSH2 0x155C DUP3 PUSH2 0x14D1 JUMP JUMPDEST PUSH1 0x60 DUP3 ADD SWAP1 POP SWAP2 SWAP1 POP JUMP JUMPDEST PUSH0 PUSH1 0x20 DUP3 ADD SWAP1 POP DUP2 DUP2 SUB PUSH0 DUP4 ADD MSTORE PUSH2 0x157E DUP2 PUSH2 0x1545 JUMP JUMPDEST SWAP1 POP SWAP2 SWAP1 POP JUMP JUMPDEST PUSH0 PUSH2 0x158F DUP3 PUSH2 0x10D5 JUMP JUMPDEST SWAP2 POP PUSH2 0x159A DUP4 PUSH2 0x10D5 JUMP JUMPDEST SWAP3 POP DUP3 DUP3 MUL PUSH2 0x15A8 DUP2 PUSH2 0x10D5 JUMP JUMPDEST SWAP2 POP DUP3 DUP3 DIV DUP5 EQ DUP4 ISZERO OR PUSH2 0x15BF JUMPI PUSH2 0x15BE PUSH2 0x1471 JUMP JUMPDEST JUMPDEST POP SWAP3 SWAP2 POP POP JUMP JUMPDEST PUSH0 PUSH2 0x15D0 DUP3 PUSH2 0x10D5 JUMP JUMPDEST SWAP2 POP PUSH2 0x15DB DUP4 PUSH2 0x10D5 JUMP JUMPDEST SWAP3 POP DUP3 DUP3 SUB SWAP1 POP DUP2 DUP2 GT ISZERO PUSH2 0x15F3 JUMPI PUSH2 0x15F2 PUSH2 0x1471 JUMP JUMPDEST JUMPDEST SWAP3 SWAP2 POP POP JUMP JUMPDEST PUSH32 0x4E6F2062696420746F2063616E63656C00000000000000000000000000000000 PUSH0 DUP3 ADD MSTORE POP JUMP JUMPDEST PUSH0 PUSH2 0x162D PUSH1 0x10 DUP4 PUSH2 0x1304 JUMP JUMPDEST SWAP2 POP PUSH2 0x1638 DUP3 PUSH2 0x15F9 JUMP JUMPDEST PUSH1 0x20 DUP3 ADD SWAP1 POP SWAP2 SWAP1 POP JUMP JUMPDEST PUSH0 PUSH1 0x20 DUP3 ADD SWAP1 POP DUP2 DUP2 SUB PUSH0 DUP4 ADD MSTORE PUSH2 0x165A DUP2 PUSH2 0x1621 JUMP JUMPDEST SWAP1 POP SWAP2 SWAP1 POP JUMP JUMPDEST PUSH32 0x41756374696F6E20616C726561647920656E6465640000000000000000000000 PUSH0 DUP3 ADD MSTORE POP JUMP JUMPDEST PUSH0 PUSH2 0x1695 PUSH1 0x15 DUP4 PUSH2 0x1304 JUMP JUMPDEST SWAP2 POP PUSH2 0x16A0 DUP3 PUSH2 0x1661 JUMP JUMPDEST PUSH1 0x20 DUP3 ADD SWAP1 POP SWAP2 SWAP1 POP JUMP JUMPDEST PUSH0 PUSH1 0x20 DUP3 ADD SWAP1 POP DUP2 DUP2 SUB PUSH0 DUP4 ADD MSTORE PUSH2 0x16C2 DUP2 PUSH2 0x1689 JUMP JUMPDEST SWAP1 POP SWAP2 SWAP1 POP JUMP INVALID LOG2 PUSH5 0x6970667358 0x22 SLT KECCAK256 SAR 0xDD ADDMOD XOR SUB 0x2E KECCAK256 DUP13 RETURNDATASIZE 0x26 PC 0xAB SAR AND 0x4D SDIV PUSH2 0x6679 EXTCODEHASH PUSH26 0x1A6949D0ED3F28598B4E0964736F6C634300081A003360806040 MSTORE CALLVALUE DUP1 ISZERO PUSH1 0xE JUMPI PUSH0 DUP1 REVERT JUMPDEST POP PUSH2 0x200 DUP1 PUSH2 0x1C PUSH0 CODECOPY PUSH0 RETURN INVALID PUSH1 0x80 PUSH1 0x40 MSTORE CALLVALUE DUP1 ISZERO PUSH2 0xF JUMPI PUSH0 DUP1 REVERT JUMPDEST POP PUSH1 0x4 CALLDATASIZE LT PUSH2 0x29 JUMPI PUSH0 CALLDATALOAD PUSH1 0xE0 SHR DUP1 PUSH4 0xB3EC48DD EQ PUSH2 0x2D JUMPI JUMPDEST PUSH0 DUP1 REVERT JUMPDEST PUSH2 0x47 PUSH1 0x4 DUP1 CALLDATASIZE SUB DUP2 ADD SWAP1 PUSH2 0x42 SWAP2 SWAP1 PUSH2 0xF9 JUMP JUMPDEST PUSH2 0x5D JUMP JUMPDEST PUSH1 0x40 MLOAD PUSH2 0x54 SWAP2 SWAP1 PUSH2 0x146 JUMP JUMPDEST PUSH1 0x40 MLOAD DUP1 SWAP2 SUB SWAP1 RETURN JUMPDEST PUSH0 DUP3 DUP3 PUSH1 0x40 MLOAD PUSH1 0x20 ADD PUSH2 0x71 SWAP3 SWAP2 SWAP1 PUSH2 0x19F JUMP JUMPDEST PUSH1 0x40 MLOAD PUSH1 0x20 DUP2 DUP4 SUB SUB DUP2 MSTORE SWAP1 PUSH1 0x40 MSTORE DUP1 MLOAD SWAP1 PUSH1 0x20 ADD KECCAK256 SWAP1 POP SWAP3 SWAP2 POP POP JUMP JUMPDEST PUSH0 DUP1 REVERT JUMPDEST PUSH0 DUP2 SWAP1 POP SWAP2 SWAP1 POP JUMP JUMPDEST PUSH2 0xA5 DUP2 PUSH2 0x93 JUMP JUMPDEST DUP2 EQ PUSH2 0xAF JUMPI PUSH0 DUP1 REVERT JUMPDEST POP JUMP JUMPDEST PUSH0 DUP2 CALLDATALOAD SWAP1 POP PUSH2 0xC0 DUP2 PUSH2 0x9C JUMP JUMPDEST SWAP3 SWAP2 POP POP JUMP JUMPDEST PUSH0 DUP2 SWAP1 POP SWAP2 SWAP1 POP JUMP JUMPDEST PUSH2 0xD8 DUP2 PUSH2 0xC6 JUMP JUMPDEST DUP2 EQ PUSH2 0xE2 JUMPI PUSH0 DUP1 REVERT JUMPDEST POP JUMP JUMPDEST PUSH0 DUP2 CALLDATALOAD SWAP1 POP PUSH2 0xF3 DUP2 PUSH2 0xCF JUMP JUMPDEST SWAP3 SWAP2 POP POP JUMP JUMPDEST PUSH0 DUP1 PUSH1 0x40 DUP4 DUP6 SUB SLT ISZERO PUSH2 0x10F JUMPI PUSH2 0x10E PUSH2 0x8F JUMP JUMPDEST JUMPDEST PUSH0 PUSH2 0x11C DUP6 DUP3 DUP7 ADD PUSH2 0xB2 JUMP JUMPDEST SWAP3 POP POP PUSH1 0x20 PUSH2 0x12D DUP6 DUP3 DUP7 ADD PUSH2 0xE5 JUMP JUMPDEST SWAP2 POP POP SWAP3 POP SWAP3 SWAP1 POP JUMP JUMPDEST PUSH2 0x140 DUP2 PUSH2 0xC6 JUMP JUMPDEST DUP3 MSTORE POP POP JUMP JUMPDEST PUSH0 PUSH1 0x20 DUP3 ADD SWAP1 POP PUSH2 0x159 PUSH0 DUP4 ADD DUP5 PUSH2 0x137 JUMP JUMPDEST SWAP3 SWAP2 POP POP JUMP JUMPDEST PUSH0 DUP2 SWAP1 POP SWAP2 SWAP1 POP JUMP JUMPDEST PUSH2 0x179 PUSH2 0x174 DUP3 PUSH2 0x93 JUMP JUMPDEST PUSH2 0x15F JUMP JUMPDEST DUP3 MSTORE POP POP JUMP JUMPDEST PUSH0 DUP2 SWAP1 POP SWAP2 SWAP1 POP JUMP JUMPDEST PUSH2 0x199 PUSH2 0x194 DUP3 PUSH2 0xC6 JUMP JUMPDEST PUSH2 0x17F JUMP JUMPDEST DUP3 MSTORE POP POP JUMP JUMPDEST PUSH0 PUSH2 0x1AA DUP3 DUP6 PUSH2 0x168 JUMP JUMPDEST PUSH1 0x20 DUP3 ADD SWAP2 POP PUSH2 0x1BA DUP3 DUP5 PUSH2 0x188 JUMP JUMPDEST PUSH1 0x20 DUP3 ADD SWAP2 POP DUP2 SWAP1 POP SWAP4 SWAP3 POP POP POP JUMP INVALID LOG2 PUSH5 0x6970667358 0x22 SLT KECCAK256 0x21 DUP4 ADDMOD ADDMOD 0xC1 0xB6 0x2D PUSH25 0xCB5BE2BCE36F5498125AE5897B7335B42686452F4222A6DE64 PUSH20 0x6F6C634300081A00330000000000000000000000 "
				},
				"gasEstimates": {
					"creation": {
						"codeDepositCost": "1177400",
						"executionCost": "infinite",
						"totalCost": "infinite"
					},
					"external": {
						"advancePhase()": "41567",
						"auctionEnd()": "infinite",
						"beneficiary()": "2576",
						"bid(bytes32)": "47060",
						"bids(address)": "5093",
						"cancelBid()": "40636",
						"checkRefund()": "2586",
						"currentPhase()": "2629",
						"highestBid()": "2491",
						"highestBidder()": "2531",
						"khashContract()": "infinite",
						"minimumBidIncrement()": "2513",
						"reveal(uint256,bytes32)": "infinite",
						"withdraw()": "infinite"
					}
				},
				"methodIdentifiers": {
					"advancePhase()": "be25a718",
					"auctionEnd()": "2a24f46c",
					"beneficiary()": "38af3eed",
					"bid(bytes32)": "957bb1e0",
					"bids(address)": "62ea82db",
					"cancelBid()": "9435c887",
					"checkRefund()": "94c246d5",
					"currentPhase()": "055ad42e",
					"highestBid()": "d57bde79",
					"highestBidder()": "91f90157",
					"khashContract()": "63142015",
					"minimumBidIncrement()": "ec89b5e0",
					"reveal(uint256,bytes32)": "4036778f",
					"withdraw()": "3ccfd60b"
				}
			},
			"storageLayout": {
				"storage": [
					{
						"astId": 23,
						"contract": "Example/ㅇㅇ.sol:BlindAuction",
						"label": "khashContract",
						"offset": 0,
						"slot": "0",
						"type": "t_contract(Khash)20"
					},
					{
						"astId": 35,
						"contract": "Example/ㅇㅇ.sol:BlindAuction",
						"label": "beneficiary",
						"offset": 0,
						"slot": "1",
						"type": "t_address_payable"
					},
					{
						"astId": 40,
						"contract": "Example/ㅇㅇ.sol:BlindAuction",
						"label": "currentPhase",
						"offset": 20,
						"slot": "1",
						"type": "t_enum(Phase)33"
					},
					{
						"astId": 45,
						"contract": "Example/ㅇㅇ.sol:BlindAuction",
						"label": "bids",
						"offset": 0,
						"slot": "2",
						"type": "t_mapping(t_address,t_struct(Bid)28_storage)"
					},
					{
						"astId": 49,
						"contract": "Example/ㅇㅇ.sol:BlindAuction",
						"label": "pendingReturns",
						"offset": 0,
						"slot": "3",
						"type": "t_mapping(t_address,t_uint256)"
					},
					{
						"astId": 51,
						"contract": "Example/ㅇㅇ.sol:BlindAuction",
						"label": "highestBidder",
						"offset": 0,
						"slot": "4",
						"type": "t_address"
					},
					{
						"astId": 53,
						"contract": "Example/ㅇㅇ.sol:BlindAuction",
						"label": "highestBid",
						"offset": 0,
						"slot": "5",
						"type": "t_uint256"
					},
					{
						"astId": 56,
						"contract": "Example/ㅇㅇ.sol:BlindAuction",
						"label": "minimumBidIncrement",
						"offset": 0,
						"slot": "6",
						"type": "t_uint256"
					}
				],
				"types": {
					"t_address": {
						"encoding": "inplace",
						"label": "address",
						"numberOfBytes": "20"
					},
					"t_address_payable": {
						"encoding": "inplace",
						"label": "address payable",
						"numberOfBytes": "20"
					},
					"t_bytes32": {
						"encoding": "inplace",
						"label": "bytes32",
						"numberOfBytes": "32"
					},
					"t_contract(Khash)20": {
						"encoding": "inplace",
						"label": "contract Khash",
						"numberOfBytes": "20"
					},
					"t_enum(Phase)33": {
						"encoding": "inplace",
						"label": "enum BlindAuction.Phase",
						"numberOfBytes": "1"
					},
					"t_mapping(t_address,t_struct(Bid)28_storage)": {
						"encoding": "mapping",
						"key": "t_address",
						"label": "mapping(address => struct BlindAuction.Bid)",
						"numberOfBytes": "32",
						"value": "t_struct(Bid)28_storage"
					},
					"t_mapping(t_address,t_uint256)": {
						"encoding": "mapping",
						"key": "t_address",
						"label": "mapping(address => uint256)",
						"numberOfBytes": "32",
						"value": "t_uint256"
					},
					"t_struct(Bid)28_storage": {
						"encoding": "inplace",
						"label": "struct BlindAuction.Bid",
						"members": [
							{
								"astId": 25,
								"contract": "Example/ㅇㅇ.sol:BlindAuction",
								"label": "blindedBid",
								"offset": 0,
								"slot": "0",
								"type": "t_bytes32"
							},
							{
								"astId": 27,
								"contract": "Example/ㅇㅇ.sol:BlindAuction",
								"label": "deposit",
								"offset": 0,
								"slot": "1",
								"type": "t_uint256"
							}
						],
						"numberOfBytes": "64"
					},
					"t_uint256": {
						"encoding": "inplace",
						"label": "uint256",
						"numberOfBytes": "32"
					}
				}
			},
			"userdoc": {
				"kind": "user",
				"methods": {},
				"version": 1
			}
		}
	}
}