{
	"Example/Ex5_8.sol": {
		"Ex5_8": {
			"abi": [
				{
					"inputs": [
						{
							"internalType": "string",
							"name": "_job",
							"type": "string"
						}
					],
					"name": "changeJobHuman1",
					"outputs": [],
					"stateMutability": "nonpayable",
					"type": "function"
				},
				{
					"inputs": [],
					"name": "getHuman",
					"outputs": [
						{
							"components": [
								{
									"internalType": "string",
									"name": "name",
									"type": "string"
								},
								{
									"internalType": "uint256",
									"name": "age",
									"type": "uint256"
								},
								{
									"internalType": "string",
									"name": "job",
									"type": "string"
								}
							],
							"internalType": "struct Ex5_8.Human",
							"name": "",
							"type": "tuple"
						}
					],
					"stateMutability": "view",
					"type": "function"
				},
				{
					"inputs": [],
					"name": "getHuman1",
					"outputs": [
						{
							"components": [
								{
									"internalType": "string",
									"name": "name",
									"type": "string"
								},
								{
									"internalType": "uint256",
									"name": "age",
									"type": "uint256"
								},
								{
									"internalType": "string",
									"name": "job",
									"type": "string"
								}
							],
							"internalType": "struct Ex5_8.Human",
							"name": "",
							"type": "tuple"
						}
					],
					"stateMutability": "view",
					"type": "function"
				},
				{
					"inputs": [],
					"name": "getNameHuman1",
					"outputs": [
						{
							"internalType": "string",
							"name": "",
							"type": "string"
						}
					],
					"stateMutability": "view",
					"type": "function"
				},
				{
					"inputs": [],
					"name": "human1",
					"outputs": [
						{
							"internalType": "string",
							"name": "name",
							"type": "string"
						},
						{
							"internalType": "uint256",
							"name": "age",
							"type": "uint256"
						},
						{
							"internalType": "string",
							"name": "job",
							"type": "string"
						}
					],
					"stateMutability": "view",
					"type": "function"
				},
				{
					"inputs": [],
					"name": "human2",
					"outputs": [
						{
							"internalType": "string",
							"name": "name",
							"type": "string"
						},
						{
							"internalType": "uint256",
							"name": "age",
							"type": "uint256"
						},
						{
							"internalType": "string",
							"name": "job",
							"type": "string"
						}
					],
					"stateMutability": "view",
					"type": "function"
				},
				{
					"inputs": [
						{
							"internalType": "string",
							"name": "_name",
							"type": "string"
						},
						{
							"internalType": "uint256",
							"name": "_age",
							"type": "uint256"
						},
						{
							"internalType": "string",
							"name": "_job",
							"type": "string"
						}
					],
					"name": "initializeHuman2",
					"outputs": [],
					"stateMutability": "nonpayable",
					"type": "function"
				}
			],
			"devdoc": {
				"kind": "dev",
				"methods": {},
				"version": 1
			},
			"evm": {
				"assembly": "    /* \"Example/Ex5_8.sol\":0:676  contract Ex5_8{... */\n  mstore(0x40, 0x80)\n    /* \"Example/Ex5_8.sol\":123:148  Human(\"ploy\",25,\"artist\") */\n  mload(0x40)\n  dup1\n  0x60\n  add\n  0x40\n  mstore\n  dup1\n  mload(0x40)\n  dup1\n  0x40\n  add\n  0x40\n  mstore\n  dup1\n  0x04\n  dup2\n  mstore\n  0x20\n  add\n  0x706c6f7900000000000000000000000000000000000000000000000000000000\n  dup2\n  mstore\n  pop\n  dup2\n  mstore\n  0x20\n  add\n    /* \"Example/Ex5_8.sol\":136:138  25 */\n  0x19\n    /* \"Example/Ex5_8.sol\":123:148  Human(\"ploy\",25,\"artist\") */\n  dup2\n  mstore\n  0x20\n  add\n  mload(0x40)\n  dup1\n  0x40\n  add\n  0x40\n  mstore\n  dup1\n  0x06\n  dup2\n  mstore\n  0x20\n  add\n  0x6172746973740000000000000000000000000000000000000000000000000000\n  dup2\n  mstore\n  pop\n  dup2\n  mstore\n  pop\n    /* \"Example/Ex5_8.sol\":103:148  Human public human1=Human(\"ploy\",25,\"artist\") */\n  0x00\n  dup1\n  dup3\n  add\n  mload\n  dup2\n  0x00\n  add\n  swap1\n  dup2\n  tag_1\n  swap2\n  swap1\n  tag_2\n  jump\t// in\ntag_1:\n  pop\n  0x20\n  dup3\n  add\n  mload\n  dup2\n  0x01\n  add\n  sstore\n  0x40\n  dup3\n  add\n  mload\n  dup2\n  0x02\n  add\n  swap1\n  dup2\n  tag_3\n  swap2\n  swap1\n  tag_2\n  jump\t// in\ntag_3:\n  pop\n  pop\n  pop\n    /* \"Example/Ex5_8.sol\":0:676  contract Ex5_8{... */\n  callvalue\n  dup1\n  iszero\n  tag_4\n  jumpi\n  0x00\n  dup1\n  revert\ntag_4:\n  pop\n  jump(tag_5)\n    /* \"#utility.yul\":7:106   */\ntag_6:\n    /* \"#utility.yul\":59:65   */\n  0x00\n    /* \"#utility.yul\":93:98   */\n  dup2\n    /* \"#utility.yul\":87:99   */\n  mload\n    /* \"#utility.yul\":77:99   */\n  swap1\n  pop\n    /* \"#utility.yul\":7:106   */\n  swap2\n  swap1\n  pop\n  jump\t// out\n    /* \"#utility.yul\":112:292   */\ntag_7:\n    /* \"#utility.yul\":160:237   */\n  0x4e487b7100000000000000000000000000000000000000000000000000000000\n    /* \"#utility.yul\":157:158   */\n  0x00\n    /* \"#utility.yul\":150:238   */\n  mstore\n    /* \"#utility.yul\":257:261   */\n  0x41\n    /* \"#utility.yul\":254:255   */\n  0x04\n    /* \"#utility.yul\":247:262   */\n  mstore\n    /* \"#utility.yul\":281:285   */\n  0x24\n    /* \"#utility.yul\":278:279   */\n  0x00\n    /* \"#utility.yul\":271:286   */\n  revert\n    /* \"#utility.yul\":298:478   */\ntag_8:\n    /* \"#utility.yul\":346:423   */\n  0x4e487b7100000000000000000000000000000000000000000000000000000000\n    /* \"#utility.yul\":343:344   */\n  0x00\n    /* \"#utility.yul\":336:424   */\n  mstore\n    /* \"#utility.yul\":443:447   */\n  0x22\n    /* \"#utility.yul\":440:441   */\n  0x04\n    /* \"#utility.yul\":433:448   */\n  mstore\n    /* \"#utility.yul\":467:471   */\n  0x24\n    /* \"#utility.yul\":464:465   */\n  0x00\n    /* \"#utility.yul\":457:472   */\n  revert\n    /* \"#utility.yul\":484:804   */\ntag_9:\n    /* \"#utility.yul\":528:534   */\n  0x00\n    /* \"#utility.yul\":565:566   */\n  0x02\n    /* \"#utility.yul\":559:563   */\n  dup3\n    /* \"#utility.yul\":555:567   */\n  div\n    /* \"#utility.yul\":545:567   */\n  swap1\n  pop\n    /* \"#utility.yul\":612:613   */\n  0x01\n    /* \"#utility.yul\":606:610   */\n  dup3\n    /* \"#utility.yul\":602:614   */\n  and\n    /* \"#utility.yul\":633:651   */\n  dup1\n    /* \"#utility.yul\":623:704   */\n  tag_31\n  jumpi\n    /* \"#utility.yul\":689:693   */\n  0x7f\n    /* \"#utility.yul\":681:687   */\n  dup3\n    /* \"#utility.yul\":677:694   */\n  and\n    /* \"#utility.yul\":667:694   */\n  swap2\n  pop\n    /* \"#utility.yul\":623:704   */\ntag_31:\n    /* \"#utility.yul\":751:753   */\n  0x20\n    /* \"#utility.yul\":743:749   */\n  dup3\n    /* \"#utility.yul\":740:754   */\n  lt\n    /* \"#utility.yul\":720:738   */\n  dup2\n    /* \"#utility.yul\":717:755   */\n  sub\n    /* \"#utility.yul\":714:798   */\n  tag_32\n  jumpi\n    /* \"#utility.yul\":770:788   */\n  tag_33\n  tag_8\n  jump\t// in\ntag_33:\n    /* \"#utility.yul\":714:798   */\ntag_32:\n    /* \"#utility.yul\":535:804   */\n  pop\n    /* \"#utility.yul\":484:804   */\n  swap2\n  swap1\n  pop\n  jump\t// out\n    /* \"#utility.yul\":810:951   */\ntag_10:\n    /* \"#utility.yul\":859:863   */\n  0x00\n    /* \"#utility.yul\":882:885   */\n  dup2\n    /* \"#utility.yul\":874:885   */\n  swap1\n  pop\n    /* \"#utility.yul\":905:908   */\n  dup2\n    /* \"#utility.yul\":902:903   */\n  0x00\n    /* \"#utility.yul\":895:909   */\n  mstore\n    /* \"#utility.yul\":939:943   */\n  0x20\n    /* \"#utility.yul\":936:937   */\n  0x00\n    /* \"#utility.yul\":926:944   */\n  keccak256\n    /* \"#utility.yul\":918:944   */\n  swap1\n  pop\n    /* \"#utility.yul\":810:951   */\n  swap2\n  swap1\n  pop\n  jump\t// out\n    /* \"#utility.yul\":957:1050   */\ntag_11:\n    /* \"#utility.yul\":994:1000   */\n  0x00\n    /* \"#utility.yul\":1041:1043   */\n  0x20\n    /* \"#utility.yul\":1036:1038   */\n  0x1f\n    /* \"#utility.yul\":1029:1034   */\n  dup4\n    /* \"#utility.yul\":1025:1039   */\n  add\n    /* \"#utility.yul\":1021:1044   */\n  div\n    /* \"#utility.yul\":1011:1044   */\n  swap1\n  pop\n    /* \"#utility.yul\":957:1050   */\n  swap2\n  swap1\n  pop\n  jump\t// out\n    /* \"#utility.yul\":1056:1163   */\ntag_12:\n    /* \"#utility.yul\":1100:1108   */\n  0x00\n    /* \"#utility.yul\":1150:1155   */\n  dup3\n    /* \"#utility.yul\":1144:1148   */\n  dup3\n    /* \"#utility.yul\":1140:1156   */\n  shl\n    /* \"#utility.yul\":1119:1156   */\n  swap1\n  pop\n    /* \"#utility.yul\":1056:1163   */\n  swap3\n  swap2\n  pop\n  pop\n  jump\t// out\n    /* \"#utility.yul\":1169:1562   */\ntag_13:\n    /* \"#utility.yul\":1238:1244   */\n  0x00\n    /* \"#utility.yul\":1288:1289   */\n  0x08\n    /* \"#utility.yul\":1276:1286   */\n  dup4\n    /* \"#utility.yul\":1272:1290   */\n  mul\n    /* \"#utility.yul\":1311:1408   */\n  tag_38\n    /* \"#utility.yul\":1341:1407   */\n  0xffffffffffffffffffffffffffffffffffffffffffffffffffffffffffffffff\n    /* \"#utility.yul\":1330:1339   */\n  dup3\n    /* \"#utility.yul\":1311:1408   */\n  tag_12\n  jump\t// in\ntag_38:\n    /* \"#utility.yul\":1429:1468   */\n  tag_39\n    /* \"#utility.yul\":1459:1467   */\n  dup7\n    /* \"#utility.yul\":1448:1457   */\n  dup4\n    /* \"#utility.yul\":1429:1468   */\n  tag_12\n  jump\t// in\ntag_39:\n    /* \"#utility.yul\":1417:1468   */\n  swap6\n  pop\n    /* \"#utility.yul\":1501:1505   */\n  dup1\n    /* \"#utility.yul\":1497:1506   */\n  not\n    /* \"#utility.yul\":1490:1495   */\n  dup5\n    /* \"#utility.yul\":1486:1507   */\n  and\n    /* \"#utility.yul\":1477:1507   */\n  swap4\n  pop\n    /* \"#utility.yul\":1550:1554   */\n  dup1\n    /* \"#utility.yul\":1540:1548   */\n  dup7\n    /* \"#utility.yul\":1536:1555   */\n  and\n    /* \"#utility.yul\":1529:1534   */\n  dup5\n    /* \"#utility.yul\":1526:1556   */\n  or\n    /* \"#utility.yul\":1516:1556   */\n  swap3\n  pop\n    /* \"#utility.yul\":1245:1562   */\n  pop\n  pop\n    /* \"#utility.yul\":1169:1562   */\n  swap4\n  swap3\n  pop\n  pop\n  pop\n  jump\t// out\n    /* \"#utility.yul\":1568:1645   */\ntag_14:\n    /* \"#utility.yul\":1605:1612   */\n  0x00\n    /* \"#utility.yul\":1634:1639   */\n  dup2\n    /* \"#utility.yul\":1623:1639   */\n  swap1\n  pop\n    /* \"#utility.yul\":1568:1645   */\n  swap2\n  swap1\n  pop\n  jump\t// out\n    /* \"#utility.yul\":1651:1711   */\ntag_15:\n    /* \"#utility.yul\":1679:1682   */\n  0x00\n    /* \"#utility.yul\":1700:1705   */\n  dup2\n    /* \"#utility.yul\":1693:1705   */\n  swap1\n  pop\n    /* \"#utility.yul\":1651:1711   */\n  swap2\n  swap1\n  pop\n  jump\t// out\n    /* \"#utility.yul\":1717:1859   */\ntag_16:\n    /* \"#utility.yul\":1767:1776   */\n  0x00\n    /* \"#utility.yul\":1800:1853   */\n  tag_43\n    /* \"#utility.yul\":1818:1852   */\n  tag_44\n    /* \"#utility.yul\":1827:1851   */\n  tag_45\n    /* \"#utility.yul\":1845:1850   */\n  dup5\n    /* \"#utility.yul\":1827:1851   */\n  tag_14\n  jump\t// in\ntag_45:\n    /* \"#utility.yul\":1818:1852   */\n  tag_15\n  jump\t// in\ntag_44:\n    /* \"#utility.yul\":1800:1853   */\n  tag_14\n  jump\t// in\ntag_43:\n    /* \"#utility.yul\":1787:1853   */\n  swap1\n  pop\n    /* \"#utility.yul\":1717:1859   */\n  swap2\n  swap1\n  pop\n  jump\t// out\n    /* \"#utility.yul\":1865:1940   */\ntag_17:\n    /* \"#utility.yul\":1908:1911   */\n  0x00\n    /* \"#utility.yul\":1929:1934   */\n  dup2\n    /* \"#utility.yul\":1922:1934   */\n  swap1\n  pop\n    /* \"#utility.yul\":1865:1940   */\n  swap2\n  swap1\n  pop\n  jump\t// out\n    /* \"#utility.yul\":1946:2215   */\ntag_18:\n    /* \"#utility.yul\":2056:2095   */\n  tag_48\n    /* \"#utility.yul\":2087:2094   */\n  dup4\n    /* \"#utility.yul\":2056:2095   */\n  tag_16\n  jump\t// in\ntag_48:\n    /* \"#utility.yul\":2117:2208   */\n  tag_49\n    /* \"#utility.yul\":2166:2207   */\n  tag_50\n    /* \"#utility.yul\":2190:2206   */\n  dup3\n    /* \"#utility.yul\":2166:2207   */\n  tag_17\n  jump\t// in\ntag_50:\n    /* \"#utility.yul\":2158:2164   */\n  dup5\n    /* \"#utility.yul\":2151:2155   */\n  dup5\n    /* \"#utility.yul\":2145:2156   */\n  sload\n    /* \"#utility.yul\":2117:2208   */\n  tag_13\n  jump\t// in\ntag_49:\n    /* \"#utility.yul\":2111:2115   */\n  dup3\n    /* \"#utility.yul\":2104:2209   */\n  sstore\n    /* \"#utility.yul\":2022:2215   */\n  pop\n    /* \"#utility.yul\":1946:2215   */\n  pop\n  pop\n  pop\n  jump\t// out\n    /* \"#utility.yul\":2221:2294   */\ntag_19:\n    /* \"#utility.yul\":2266:2269   */\n  0x00\n    /* \"#utility.yul\":2221:2294   */\n  swap1\n  jump\t// out\n    /* \"#utility.yul\":2300:2489   */\ntag_20:\n    /* \"#utility.yul\":2377:2409   */\n  tag_53\n  tag_19\n  jump\t// in\ntag_53:\n    /* \"#utility.yul\":2418:2483   */\n  tag_54\n    /* \"#utility.yul\":2476:2482   */\n  dup2\n    /* \"#utility.yul\":2468:2474   */\n  dup5\n    /* \"#utility.yul\":2462:2466   */\n  dup5\n    /* \"#utility.yul\":2418:2483   */\n  tag_18\n  jump\t// in\ntag_54:\n    /* \"#utility.yul\":2353:2489   */\n  pop\n    /* \"#utility.yul\":2300:2489   */\n  pop\n  pop\n  jump\t// out\n    /* \"#utility.yul\":2495:2681   */\ntag_21:\n    /* \"#utility.yul\":2555:2675   */\ntag_56:\n    /* \"#utility.yul\":2572:2575   */\n  dup2\n    /* \"#utility.yul\":2565:2570   */\n  dup2\n    /* \"#utility.yul\":2562:2576   */\n  lt\n    /* \"#utility.yul\":2555:2675   */\n  iszero\n  tag_58\n  jumpi\n    /* \"#utility.yul\":2626:2665   */\n  tag_59\n    /* \"#utility.yul\":2663:2664   */\n  0x00\n    /* \"#utility.yul\":2656:2661   */\n  dup3\n    /* \"#utility.yul\":2626:2665   */\n  tag_20\n  jump\t// in\ntag_59:\n    /* \"#utility.yul\":2599:2600   */\n  0x01\n    /* \"#utility.yul\":2592:2597   */\n  dup2\n    /* \"#utility.yul\":2588:2601   */\n  add\n    /* \"#utility.yul\":2579:2601   */\n  swap1\n  pop\n    /* \"#utility.yul\":2555:2675   */\n  jump(tag_56)\ntag_58:\n    /* \"#utility.yul\":2495:2681   */\n  pop\n  pop\n  jump\t// out\n    /* \"#utility.yul\":2687:3230   */\ntag_22:\n    /* \"#utility.yul\":2788:2790   */\n  0x1f\n    /* \"#utility.yul\":2783:2786   */\n  dup3\n    /* \"#utility.yul\":2780:2791   */\n  gt\n    /* \"#utility.yul\":2777:3223   */\n  iszero\n  tag_61\n  jumpi\n    /* \"#utility.yul\":2822:2860   */\n  tag_62\n    /* \"#utility.yul\":2854:2859   */\n  dup2\n    /* \"#utility.yul\":2822:2860   */\n  tag_10\n  jump\t// in\ntag_62:\n    /* \"#utility.yul\":2906:2935   */\n  tag_63\n    /* \"#utility.yul\":2924:2934   */\n  dup5\n    /* \"#utility.yul\":2906:2935   */\n  tag_11\n  jump\t// in\ntag_63:\n    /* \"#utility.yul\":2896:2904   */\n  dup2\n    /* \"#utility.yul\":2892:2936   */\n  add\n    /* \"#utility.yul\":3089:3091   */\n  0x20\n    /* \"#utility.yul\":3077:3087   */\n  dup6\n    /* \"#utility.yul\":3074:3092   */\n  lt\n    /* \"#utility.yul\":3071:3120   */\n  iszero\n  tag_64\n  jumpi\n    /* \"#utility.yul\":3110:3118   */\n  dup2\n    /* \"#utility.yul\":3095:3118   */\n  swap1\n  pop\n    /* \"#utility.yul\":3071:3120   */\ntag_64:\n    /* \"#utility.yul\":3133:3213   */\n  tag_65\n    /* \"#utility.yul\":3189:3211   */\n  tag_66\n    /* \"#utility.yul\":3207:3210   */\n  dup6\n    /* \"#utility.yul\":3189:3211   */\n  tag_11\n  jump\t// in\ntag_66:\n    /* \"#utility.yul\":3179:3187   */\n  dup4\n    /* \"#utility.yul\":3175:3212   */\n  add\n    /* \"#utility.yul\":3162:3173   */\n  dup3\n    /* \"#utility.yul\":3133:3213   */\n  tag_21\n  jump\t// in\ntag_65:\n    /* \"#utility.yul\":2792:3223   */\n  pop\n  pop\n    /* \"#utility.yul\":2777:3223   */\ntag_61:\n    /* \"#utility.yul\":2687:3230   */\n  pop\n  pop\n  pop\n  jump\t// out\n    /* \"#utility.yul\":3236:3353   */\ntag_23:\n    /* \"#utility.yul\":3290:3298   */\n  0x00\n    /* \"#utility.yul\":3340:3345   */\n  dup3\n    /* \"#utility.yul\":3334:3338   */\n  dup3\n    /* \"#utility.yul\":3330:3346   */\n  shr\n    /* \"#utility.yul\":3309:3346   */\n  swap1\n  pop\n    /* \"#utility.yul\":3236:3353   */\n  swap3\n  swap2\n  pop\n  pop\n  jump\t// out\n    /* \"#utility.yul\":3359:3528   */\ntag_24:\n    /* \"#utility.yul\":3403:3409   */\n  0x00\n    /* \"#utility.yul\":3436:3487   */\n  tag_69\n    /* \"#utility.yul\":3484:3485   */\n  0x00\n    /* \"#utility.yul\":3480:3486   */\n  not\n    /* \"#utility.yul\":3472:3477   */\n  dup5\n    /* \"#utility.yul\":3469:3470   */\n  0x08\n    /* \"#utility.yul\":3465:3478   */\n  mul\n    /* \"#utility.yul\":3436:3487   */\n  tag_23\n  jump\t// in\ntag_69:\n    /* \"#utility.yul\":3432:3488   */\n  not\n    /* \"#utility.yul\":3517:3521   */\n  dup1\n    /* \"#utility.yul\":3511:3515   */\n  dup4\n    /* \"#utility.yul\":3507:3522   */\n  and\n    /* \"#utility.yul\":3497:3522   */\n  swap2\n  pop\n    /* \"#utility.yul\":3410:3528   */\n  pop\n    /* \"#utility.yul\":3359:3528   */\n  swap3\n  swap2\n  pop\n  pop\n  jump\t// out\n    /* \"#utility.yul\":3533:3828   */\ntag_25:\n    /* \"#utility.yul\":3609:3613   */\n  0x00\n    /* \"#utility.yul\":3755:3784   */\n  tag_71\n    /* \"#utility.yul\":3780:3783   */\n  dup4\n    /* \"#utility.yul\":3774:3778   */\n  dup4\n    /* \"#utility.yul\":3755:3784   */\n  tag_24\n  jump\t// in\ntag_71:\n    /* \"#utility.yul\":3747:3784   */\n  swap2\n  pop\n    /* \"#utility.yul\":3817:3820   */\n  dup3\n    /* \"#utility.yul\":3814:3815   */\n  0x02\n    /* \"#utility.yul\":3810:3821   */\n  mul\n    /* \"#utility.yul\":3804:3808   */\n  dup3\n    /* \"#utility.yul\":3801:3822   */\n  or\n    /* \"#utility.yul\":3793:3822   */\n  swap1\n  pop\n    /* \"#utility.yul\":3533:3828   */\n  swap3\n  swap2\n  pop\n  pop\n  jump\t// out\n    /* \"#utility.yul\":3833:5228   */\ntag_2:\n    /* \"#utility.yul\":3950:3987   */\n  tag_73\n    /* \"#utility.yul\":3983:3986   */\n  dup3\n    /* \"#utility.yul\":3950:3987   */\n  tag_6\n  jump\t// in\ntag_73:\n    /* \"#utility.yul\":4052:4070   */\n  0xffffffffffffffff\n    /* \"#utility.yul\":4044:4050   */\n  dup2\n    /* \"#utility.yul\":4041:4071   */\n  gt\n    /* \"#utility.yul\":4038:4094   */\n  iszero\n  tag_74\n  jumpi\n    /* \"#utility.yul\":4074:4092   */\n  tag_75\n  tag_7\n  jump\t// in\ntag_75:\n    /* \"#utility.yul\":4038:4094   */\ntag_74:\n    /* \"#utility.yul\":4118:4156   */\n  tag_76\n    /* \"#utility.yul\":4150:4154   */\n  dup3\n    /* \"#utility.yul\":4144:4155   */\n  sload\n    /* \"#utility.yul\":4118:4156   */\n  tag_9\n  jump\t// in\ntag_76:\n    /* \"#utility.yul\":4203:4270   */\n  tag_77\n    /* \"#utility.yul\":4263:4269   */\n  dup3\n    /* \"#utility.yul\":4255:4261   */\n  dup3\n    /* \"#utility.yul\":4249:4253   */\n  dup6\n    /* \"#utility.yul\":4203:4270   */\n  tag_22\n  jump\t// in\ntag_77:\n    /* \"#utility.yul\":4297:4298   */\n  0x00\n    /* \"#utility.yul\":4321:4325   */\n  0x20\n    /* \"#utility.yul\":4308:4325   */\n  swap1\n  pop\n    /* \"#utility.yul\":4353:4355   */\n  0x1f\n    /* \"#utility.yul\":4345:4351   */\n  dup4\n    /* \"#utility.yul\":4342:4356   */\n  gt\n    /* \"#utility.yul\":4370:4371   */\n  0x01\n    /* \"#utility.yul\":4365:4983   */\n  dup2\n  eq\n  tag_79\n  jumpi\n    /* \"#utility.yul\":5027:5028   */\n  0x00\n    /* \"#utility.yul\":5044:5050   */\n  dup5\n    /* \"#utility.yul\":5041:5118   */\n  iszero\n  tag_80\n  jumpi\n    /* \"#utility.yul\":5093:5102   */\n  dup3\n    /* \"#utility.yul\":5088:5091   */\n  dup8\n    /* \"#utility.yul\":5084:5103   */\n  add\n    /* \"#utility.yul\":5078:5104   */\n  mload\n    /* \"#utility.yul\":5069:5104   */\n  swap1\n  pop\n    /* \"#utility.yul\":5041:5118   */\ntag_80:\n    /* \"#utility.yul\":5144:5211   */\n  tag_81\n    /* \"#utility.yul\":5204:5210   */\n  dup6\n    /* \"#utility.yul\":5197:5202   */\n  dup3\n    /* \"#utility.yul\":5144:5211   */\n  tag_25\n  jump\t// in\ntag_81:\n    /* \"#utility.yul\":5138:5142   */\n  dup7\n    /* \"#utility.yul\":5131:5212   */\n  sstore\n    /* \"#utility.yul\":5000:5222   */\n  pop\n    /* \"#utility.yul\":4335:5222   */\n  jump(tag_78)\n    /* \"#utility.yul\":4365:4983   */\ntag_79:\n    /* \"#utility.yul\":4417:4421   */\n  0x1f\n    /* \"#utility.yul\":4413:4422   */\n  not\n    /* \"#utility.yul\":4405:4411   */\n  dup5\n    /* \"#utility.yul\":4401:4423   */\n  and\n    /* \"#utility.yul\":4451:4488   */\n  tag_82\n    /* \"#utility.yul\":4483:4487   */\n  dup7\n    /* \"#utility.yul\":4451:4488   */\n  tag_10\n  jump\t// in\ntag_82:\n    /* \"#utility.yul\":4510:4511   */\n  0x00\n    /* \"#utility.yul\":4524:4732   */\ntag_83:\n    /* \"#utility.yul\":4538:4545   */\n  dup3\n    /* \"#utility.yul\":4535:4536   */\n  dup2\n    /* \"#utility.yul\":4532:4546   */\n  lt\n    /* \"#utility.yul\":4524:4732   */\n  iszero\n  tag_85\n  jumpi\n    /* \"#utility.yul\":4617:4626   */\n  dup5\n    /* \"#utility.yul\":4612:4615   */\n  dup10\n    /* \"#utility.yul\":4608:4627   */\n  add\n    /* \"#utility.yul\":4602:4628   */\n  mload\n    /* \"#utility.yul\":4594:4600   */\n  dup3\n    /* \"#utility.yul\":4587:4629   */\n  sstore\n    /* \"#utility.yul\":4668:4669   */\n  0x01\n    /* \"#utility.yul\":4660:4666   */\n  dup3\n    /* \"#utility.yul\":4656:4670   */\n  add\n    /* \"#utility.yul\":4646:4670   */\n  swap2\n  pop\n    /* \"#utility.yul\":4715:4717   */\n  0x20\n    /* \"#utility.yul\":4704:4713   */\n  dup6\n    /* \"#utility.yul\":4700:4718   */\n  add\n    /* \"#utility.yul\":4687:4718   */\n  swap5\n  pop\n    /* \"#utility.yul\":4561:4565   */\n  0x20\n    /* \"#utility.yul\":4558:4559   */\n  dup2\n    /* \"#utility.yul\":4554:4566   */\n  add\n    /* \"#utility.yul\":4549:4566   */\n  swap1\n  pop\n    /* \"#utility.yul\":4524:4732   */\n  jump(tag_83)\ntag_85:\n    /* \"#utility.yul\":4760:4766   */\n  dup7\n    /* \"#utility.yul\":4751:4758   */\n  dup4\n    /* \"#utility.yul\":4748:4767   */\n  lt\n    /* \"#utility.yul\":4745:4924   */\n  iszero\n  tag_86\n  jumpi\n    /* \"#utility.yul\":4818:4827   */\n  dup5\n    /* \"#utility.yul\":4813:4816   */\n  dup10\n    /* \"#utility.yul\":4809:4828   */\n  add\n    /* \"#utility.yul\":4803:4829   */\n  mload\n    /* \"#utility.yul\":4861:4909   */\n  tag_87\n    /* \"#utility.yul\":4903:4907   */\n  0x1f\n    /* \"#utility.yul\":4895:4901   */\n  dup10\n    /* \"#utility.yul\":4891:4908   */\n  and\n    /* \"#utility.yul\":4880:4889   */\n  dup3\n    /* \"#utility.yul\":4861:4909   */\n  tag_24\n  jump\t// in\ntag_87:\n    /* \"#utility.yul\":4853:4859   */\n  dup4\n    /* \"#utility.yul\":4846:4910   */\n  sstore\n    /* \"#utility.yul\":4768:4924   */\n  pop\n    /* \"#utility.yul\":4745:4924   */\ntag_86:\n    /* \"#utility.yul\":4970:4971   */\n  0x01\n    /* \"#utility.yul\":4966:4967   */\n  0x02\n    /* \"#utility.yul\":4958:4964   */\n  dup9\n    /* \"#utility.yul\":4954:4968   */\n  mul\n    /* \"#utility.yul\":4950:4972   */\n  add\n    /* \"#utility.yul\":4944:4948   */\n  dup9\n    /* \"#utility.yul\":4937:4973   */\n  sstore\n    /* \"#utility.yul\":4372:4983   */\n  pop\n  pop\n  pop\n    /* \"#utility.yul\":4335:5222   */\ntag_78:\n  pop\n    /* \"#utility.yul\":3925:5228   */\n  pop\n  pop\n  pop\n    /* \"#utility.yul\":3833:5228   */\n  pop\n  pop\n  jump\t// out\n    /* \"Example/Ex5_8.sol\":0:676  contract Ex5_8{... */\ntag_5:\n  dataSize(sub_0)\n  dup1\n  dataOffset(sub_0)\n  0x00\n  codecopy\n  0x00\n  return\nstop\n\nsub_0: assembly {\n        /* \"Example/Ex5_8.sol\":0:676  contract Ex5_8{... */\n      mstore(0x40, 0x80)\n      callvalue\n      dup1\n      iszero\n      tag_1\n      jumpi\n      0x00\n      dup1\n      revert\n    tag_1:\n      pop\n      jumpi(tag_2, lt(calldatasize, 0x04))\n      shr(0xe0, calldataload(0x00))\n      dup1\n      0xae5e1170\n      gt\n      tag_10\n      jumpi\n      dup1\n      0xae5e1170\n      eq\n      tag_6\n      jumpi\n      dup1\n      0xaf2dd4d4\n      eq\n      tag_7\n      jumpi\n      dup1\n      0xddd6016c\n      eq\n      tag_8\n      jumpi\n      dup1\n      0xfbaf88e9\n      eq\n      tag_9\n      jumpi\n      jump(tag_2)\n    tag_10:\n      dup1\n      0x396466b7\n      eq\n      tag_3\n      jumpi\n      dup1\n      0x427156f3\n      eq\n      tag_4\n      jumpi\n      dup1\n      0x80766de7\n      eq\n      tag_5\n      jumpi\n    tag_2:\n      0x00\n      dup1\n      revert\n        /* \"Example/Ex5_8.sol\":154:173  Human public human2 */\n    tag_3:\n      tag_11\n      tag_12\n      jump\t// in\n    tag_11:\n      mload(0x40)\n      tag_13\n      swap4\n      swap3\n      swap2\n      swap1\n      tag_14\n      jump\t// in\n    tag_13:\n      mload(0x40)\n      dup1\n      swap2\n      sub\n      swap1\n      return\n        /* \"Example/Ex5_8.sol\":180:264  function getHuman1() public view returns(Human memory){... */\n    tag_4:\n      tag_15\n      tag_16\n      jump\t// in\n    tag_15:\n      mload(0x40)\n      tag_17\n      swap2\n      swap1\n      tag_18\n      jump\t// in\n    tag_17:\n      mload(0x40)\n      dup1\n      swap2\n      sub\n      swap1\n      return\n        /* \"Example/Ex5_8.sol\":270:353  function getHuman() public view returns(Human memory){... */\n    tag_5:\n      tag_19\n      tag_20\n      jump\t// in\n    tag_19:\n      mload(0x40)\n      tag_21\n      swap2\n      swap1\n      tag_18\n      jump\t// in\n    tag_21:\n      mload(0x40)\n      dup1\n      swap2\n      sub\n      swap1\n      return\n        /* \"Example/Ex5_8.sol\":103:148  Human public human1=Human(\"ploy\",25,\"artist\") */\n    tag_6:\n      tag_22\n      tag_23\n      jump\t// in\n    tag_22:\n      mload(0x40)\n      tag_24\n      swap4\n      swap3\n      swap2\n      swap1\n      tag_14\n      jump\t// in\n    tag_24:\n      mload(0x40)\n      dup1\n      swap2\n      sub\n      swap1\n      return\n        /* \"Example/Ex5_8.sol\":358:486  function initializeHuman2(string memory _name,uint _age,string memory _job) public{... */\n    tag_7:\n      tag_25\n      0x04\n      dup1\n      calldatasize\n      sub\n      dup2\n      add\n      swap1\n      tag_26\n      swap2\n      swap1\n      tag_27\n      jump\t// in\n    tag_26:\n      tag_28\n      jump\t// in\n    tag_25:\n      stop\n        /* \"Example/Ex5_8.sol\":491:574  function changeJobHuman1(string memory _job) public{... */\n    tag_8:\n      tag_29\n      0x04\n      dup1\n      calldatasize\n      sub\n      dup2\n      add\n      swap1\n      tag_30\n      swap2\n      swap1\n      tag_31\n      jump\t// in\n    tag_30:\n      tag_32\n      jump\t// in\n    tag_29:\n      stop\n        /* \"Example/Ex5_8.sol\":580:674  function getNameHuman1() public view returns(string memory){... */\n    tag_9:\n      tag_33\n      tag_34\n      jump\t// in\n    tag_33:\n      mload(0x40)\n      tag_35\n      swap2\n      swap1\n      tag_36\n      jump\t// in\n    tag_35:\n      mload(0x40)\n      dup1\n      swap2\n      sub\n      swap1\n      return\n        /* \"Example/Ex5_8.sol\":154:173  Human public human2 */\n    tag_12:\n      0x03\n      dup1\n      0x00\n      add\n      dup1\n      sload\n      tag_37\n      swap1\n      tag_38\n      jump\t// in\n    tag_37:\n      dup1\n      0x1f\n      add\n      0x20\n      dup1\n      swap2\n      div\n      mul\n      0x20\n      add\n      mload(0x40)\n      swap1\n      dup2\n      add\n      0x40\n      mstore\n      dup1\n      swap3\n      swap2\n      swap1\n      dup2\n      dup2\n      mstore\n      0x20\n      add\n      dup3\n      dup1\n      sload\n      tag_39\n      swap1\n      tag_38\n      jump\t// in\n    tag_39:\n      dup1\n      iszero\n      tag_40\n      jumpi\n      dup1\n      0x1f\n      lt\n      tag_41\n      jumpi\n      0x0100\n      dup1\n      dup4\n      sload\n      div\n      mul\n      dup4\n      mstore\n      swap2\n      0x20\n      add\n      swap2\n      jump(tag_40)\n    tag_41:\n      dup3\n      add\n      swap2\n      swap1\n      0x00\n      mstore\n      keccak256(0x00, 0x20)\n      swap1\n    tag_42:\n      dup2\n      sload\n      dup2\n      mstore\n      swap1\n      0x01\n      add\n      swap1\n      0x20\n      add\n      dup1\n      dup4\n      gt\n      tag_42\n      jumpi\n      dup3\n      swap1\n      sub\n      0x1f\n      and\n      dup3\n      add\n      swap2\n    tag_40:\n      pop\n      pop\n      pop\n      pop\n      pop\n      swap1\n      dup1\n      0x01\n      add\n      sload\n      swap1\n      dup1\n      0x02\n      add\n      dup1\n      sload\n      tag_43\n      swap1\n      tag_38\n      jump\t// in\n    tag_43:\n      dup1\n      0x1f\n      add\n      0x20\n      dup1\n      swap2\n      div\n      mul\n      0x20\n      add\n      mload(0x40)\n      swap1\n      dup2\n      add\n      0x40\n      mstore\n      dup1\n      swap3\n      swap2\n      swap1\n      dup2\n      dup2\n      mstore\n      0x20\n      add\n      dup3\n      dup1\n      sload\n      tag_44\n      swap1\n      tag_38\n      jump\t// in\n    tag_44:\n      dup1\n      iszero\n      tag_45\n      jumpi\n      dup1\n      0x1f\n      lt\n      tag_46\n      jumpi\n      0x0100\n      dup1\n      dup4\n      sload\n      div\n      mul\n      dup4\n      mstore\n      swap2\n      0x20\n      add\n      swap2\n      jump(tag_45)\n    tag_46:\n      dup3\n      add\n      swap2\n      swap1\n      0x00\n      mstore\n      keccak256(0x00, 0x20)\n      swap1\n    tag_47:\n      dup2\n      sload\n      dup2\n      mstore\n      swap1\n      0x01\n      add\n      swap1\n      0x20\n      add\n      dup1\n      dup4\n      gt\n      tag_47\n      jumpi\n      dup3\n      swap1\n      sub\n      0x1f\n      and\n      dup3\n      add\n      swap2\n    tag_45:\n      pop\n      pop\n      pop\n      pop\n      pop\n      swap1\n      pop\n      dup4\n      jump\t// out\n        /* \"Example/Ex5_8.sol\":180:264  function getHuman1() public view returns(Human memory){... */\n    tag_16:\n        /* \"Example/Ex5_8.sol\":221:233  Human memory */\n      tag_48\n      tag_49\n      jump\t// in\n    tag_48:\n        /* \"Example/Ex5_8.sol\":251:257  human1 */\n      0x00\n        /* \"Example/Ex5_8.sol\":244:257  return human1 */\n      mload(0x40)\n      dup1\n      0x60\n      add\n      0x40\n      mstore\n      swap1\n      dup2\n      0x00\n      dup3\n      add\n      dup1\n      sload\n      tag_51\n      swap1\n      tag_38\n      jump\t// in\n    tag_51:\n      dup1\n      0x1f\n      add\n      0x20\n      dup1\n      swap2\n      div\n      mul\n      0x20\n      add\n      mload(0x40)\n      swap1\n      dup2\n      add\n      0x40\n      mstore\n      dup1\n      swap3\n      swap2\n      swap1\n      dup2\n      dup2\n      mstore\n      0x20\n      add\n      dup3\n      dup1\n      sload\n      tag_52\n      swap1\n      tag_38\n      jump\t// in\n    tag_52:\n      dup1\n      iszero\n      tag_53\n      jumpi\n      dup1\n      0x1f\n      lt\n      tag_54\n      jumpi\n      0x0100\n      dup1\n      dup4\n      sload\n      div\n      mul\n      dup4\n      mstore\n      swap2\n      0x20\n      add\n      swap2\n      jump(tag_53)\n    tag_54:\n      dup3\n      add\n      swap2\n      swap1\n      0x00\n      mstore\n      keccak256(0x00, 0x20)\n      swap1\n    tag_55:\n      dup2\n      sload\n      dup2\n      mstore\n      swap1\n      0x01\n      add\n      swap1\n      0x20\n      add\n      dup1\n      dup4\n      gt\n      tag_55\n      jumpi\n      dup3\n      swap1\n      sub\n      0x1f\n      and\n      dup3\n      add\n      swap2\n    tag_53:\n      pop\n      pop\n      pop\n      pop\n      pop\n      dup2\n      mstore\n      0x20\n      add\n      0x01\n      dup3\n      add\n      sload\n      dup2\n      mstore\n      0x20\n      add\n      0x02\n      dup3\n      add\n      dup1\n      sload\n      tag_56\n      swap1\n      tag_38\n      jump\t// in\n    tag_56:\n      dup1\n      0x1f\n      add\n      0x20\n      dup1\n      swap2\n      div\n      mul\n      0x20\n      add\n      mload(0x40)\n      swap1\n      dup2\n      add\n      0x40\n      mstore\n      dup1\n      swap3\n      swap2\n      swap1\n      dup2\n      dup2\n      mstore\n      0x20\n      add\n      dup3\n      dup1\n      sload\n      tag_57\n      swap1\n      tag_38\n      jump\t// in\n    tag_57:\n      dup1\n      iszero\n      tag_58\n      jumpi\n      dup1\n      0x1f\n      lt\n      tag_59\n      jumpi\n      0x0100\n      dup1\n      dup4\n      sload\n      div\n      mul\n      dup4\n      mstore\n      swap2\n      0x20\n      add\n      swap2\n      jump(tag_58)\n    tag_59:\n      dup3\n      add\n      swap2\n      swap1\n      0x00\n      mstore\n      keccak256(0x00, 0x20)\n      swap1\n    tag_60:\n      dup2\n      sload\n      dup2\n      mstore\n      swap1\n      0x01\n      add\n      swap1\n      0x20\n      add\n      dup1\n      dup4\n      gt\n      tag_60\n      jumpi\n      dup3\n      swap1\n      sub\n      0x1f\n      and\n      dup3\n      add\n      swap2\n    tag_58:\n      pop\n      pop\n      pop\n      pop\n      pop\n      dup2\n      mstore\n      pop\n      pop\n      swap1\n      pop\n        /* \"Example/Ex5_8.sol\":180:264  function getHuman1() public view returns(Human memory){... */\n      swap1\n      jump\t// out\n        /* \"Example/Ex5_8.sol\":270:353  function getHuman() public view returns(Human memory){... */\n    tag_20:\n        /* \"Example/Ex5_8.sol\":310:322  Human memory */\n      tag_61\n      tag_49\n      jump\t// in\n    tag_61:\n        /* \"Example/Ex5_8.sol\":340:346  human2 */\n      0x03\n        /* \"Example/Ex5_8.sol\":333:346  return human2 */\n      mload(0x40)\n      dup1\n      0x60\n      add\n      0x40\n      mstore\n      swap1\n      dup2\n      0x00\n      dup3\n      add\n      dup1\n      sload\n      tag_63\n      swap1\n      tag_38\n      jump\t// in\n    tag_63:\n      dup1\n      0x1f\n      add\n      0x20\n      dup1\n      swap2\n      div\n      mul\n      0x20\n      add\n      mload(0x40)\n      swap1\n      dup2\n      add\n      0x40\n      mstore\n      dup1\n      swap3\n      swap2\n      swap1\n      dup2\n      dup2\n      mstore\n      0x20\n      add\n      dup3\n      dup1\n      sload\n      tag_64\n      swap1\n      tag_38\n      jump\t// in\n    tag_64:\n      dup1\n      iszero\n      tag_65\n      jumpi\n      dup1\n      0x1f\n      lt\n      tag_66\n      jumpi\n      0x0100\n      dup1\n      dup4\n      sload\n      div\n      mul\n      dup4\n      mstore\n      swap2\n      0x20\n      add\n      swap2\n      jump(tag_65)\n    tag_66:\n      dup3\n      add\n      swap2\n      swap1\n      0x00\n      mstore\n      keccak256(0x00, 0x20)\n      swap1\n    tag_67:\n      dup2\n      sload\n      dup2\n      mstore\n      swap1\n      0x01\n      add\n      swap1\n      0x20\n      add\n      dup1\n      dup4\n      gt\n      tag_67\n      jumpi\n      dup3\n      swap1\n      sub\n      0x1f\n      and\n      dup3\n      add\n      swap2\n    tag_65:\n      pop\n      pop\n      pop\n      pop\n      pop\n      dup2\n      mstore\n      0x20\n      add\n      0x01\n      dup3\n      add\n      sload\n      dup2\n      mstore\n      0x20\n      add\n      0x02\n      dup3\n      add\n      dup1\n      sload\n      tag_68\n      swap1\n      tag_38\n      jump\t// in\n    tag_68:\n      dup1\n      0x1f\n      add\n      0x20\n      dup1\n      swap2\n      div\n      mul\n      0x20\n      add\n      mload(0x40)\n      swap1\n      dup2\n      add\n      0x40\n      mstore\n      dup1\n      swap3\n      swap2\n      swap1\n      dup2\n      dup2\n      mstore\n      0x20\n      add\n      dup3\n      dup1\n      sload\n      tag_69\n      swap1\n      tag_38\n      jump\t// in\n    tag_69:\n      dup1\n      iszero\n      tag_70\n      jumpi\n      dup1\n      0x1f\n      lt\n      tag_71\n      jumpi\n      0x0100\n      dup1\n      dup4\n      sload\n      div\n      mul\n      dup4\n      mstore\n      swap2\n      0x20\n      add\n      swap2\n      jump(tag_70)\n    tag_71:\n      dup3\n      add\n      swap2\n      swap1\n      0x00\n      mstore\n      keccak256(0x00, 0x20)\n      swap1\n    tag_72:\n      dup2\n      sload\n      dup2\n      mstore\n      swap1\n      0x01\n      add\n      swap1\n      0x20\n      add\n      dup1\n      dup4\n      gt\n      tag_72\n      jumpi\n      dup3\n      swap1\n      sub\n      0x1f\n      and\n      dup3\n      add\n      swap2\n    tag_70:\n      pop\n      pop\n      pop\n      pop\n      pop\n      dup2\n      mstore\n      pop\n      pop\n      swap1\n      pop\n        /* \"Example/Ex5_8.sol\":270:353  function getHuman() public view returns(Human memory){... */\n      swap1\n      jump\t// out\n        /* \"Example/Ex5_8.sol\":103:148  Human public human1=Human(\"ploy\",25,\"artist\") */\n    tag_23:\n      0x00\n      dup1\n      0x00\n      add\n      dup1\n      sload\n      tag_73\n      swap1\n      tag_38\n      jump\t// in\n    tag_73:\n      dup1\n      0x1f\n      add\n      0x20\n      dup1\n      swap2\n      div\n      mul\n      0x20\n      add\n      mload(0x40)\n      swap1\n      dup2\n      add\n      0x40\n      mstore\n      dup1\n      swap3\n      swap2\n      swap1\n      dup2\n      dup2\n      mstore\n      0x20\n      add\n      dup3\n      dup1\n      sload\n      tag_74\n      swap1\n      tag_38\n      jump\t// in\n    tag_74:\n      dup1\n      iszero\n      tag_75\n      jumpi\n      dup1\n      0x1f\n      lt\n      tag_76\n      jumpi\n      0x0100\n      dup1\n      dup4\n      sload\n      div\n      mul\n      dup4\n      mstore\n      swap2\n      0x20\n      add\n      swap2\n      jump(tag_75)\n    tag_76:\n      dup3\n      add\n      swap2\n      swap1\n      0x00\n      mstore\n      keccak256(0x00, 0x20)\n      swap1\n    tag_77:\n      dup2\n      sload\n      dup2\n      mstore\n      swap1\n      0x01\n      add\n      swap1\n      0x20\n      add\n      dup1\n      dup4\n      gt\n      tag_77\n      jumpi\n      dup3\n      swap1\n      sub\n      0x1f\n      and\n      dup3\n      add\n      swap2\n    tag_75:\n      pop\n      pop\n      pop\n      pop\n      pop\n      swap1\n      dup1\n      0x01\n      add\n      sload\n      swap1\n      dup1\n      0x02\n      add\n      dup1\n      sload\n      tag_78\n      swap1\n      tag_38\n      jump\t// in\n    tag_78:\n      dup1\n      0x1f\n      add\n      0x20\n      dup1\n      swap2\n      div\n      mul\n      0x20\n      add\n      mload(0x40)\n      swap1\n      dup2\n      add\n      0x40\n      mstore\n      dup1\n      swap3\n      swap2\n      swap1\n      dup2\n      dup2\n      mstore\n      0x20\n      add\n      dup3\n      dup1\n      sload\n      tag_79\n      swap1\n      tag_38\n      jump\t// in\n    tag_79:\n      dup1\n      iszero\n      tag_80\n      jumpi\n      dup1\n      0x1f\n      lt\n      tag_81\n      jumpi\n      0x0100\n      dup1\n      dup4\n      sload\n      div\n      mul\n      dup4\n      mstore\n      swap2\n      0x20\n      add\n      swap2\n      jump(tag_80)\n    tag_81:\n      dup3\n      add\n      swap2\n      swap1\n      0x00\n      mstore\n      keccak256(0x00, 0x20)\n      swap1\n    tag_82:\n      dup2\n      sload\n      dup2\n      mstore\n      swap1\n      0x01\n      add\n      swap1\n      0x20\n      add\n      dup1\n      dup4\n      gt\n      tag_82\n      jumpi\n      dup3\n      swap1\n      sub\n      0x1f\n      and\n      dup3\n      add\n      swap2\n    tag_80:\n      pop\n      pop\n      pop\n      pop\n      pop\n      swap1\n      pop\n      dup4\n      jump\t// out\n        /* \"Example/Ex5_8.sol\":358:486  function initializeHuman2(string memory _name,uint _age,string memory _job) public{... */\n    tag_28:\n        /* \"Example/Ex5_8.sol\":457:479  Human(_name,_age,_job) */\n      mload(0x40)\n      dup1\n      0x60\n      add\n      0x40\n      mstore\n      dup1\n        /* \"Example/Ex5_8.sol\":463:468  _name */\n      dup5\n        /* \"Example/Ex5_8.sol\":457:479  Human(_name,_age,_job) */\n      dup2\n      mstore\n      0x20\n      add\n        /* \"Example/Ex5_8.sol\":469:473  _age */\n      dup4\n        /* \"Example/Ex5_8.sol\":457:479  Human(_name,_age,_job) */\n      dup2\n      mstore\n      0x20\n      add\n        /* \"Example/Ex5_8.sol\":474:478  _job */\n      dup3\n        /* \"Example/Ex5_8.sol\":457:479  Human(_name,_age,_job) */\n      dup2\n      mstore\n      pop\n        /* \"Example/Ex5_8.sol\":450:456  human2 */\n      0x03\n        /* \"Example/Ex5_8.sol\":450:479  human2=Human(_name,_age,_job) */\n      0x00\n      dup3\n      add\n      mload\n      dup2\n      0x00\n      add\n      swap1\n      dup2\n      tag_84\n      swap2\n      swap1\n      tag_85\n      jump\t// in\n    tag_84:\n      pop\n      0x20\n      dup3\n      add\n      mload\n      dup2\n      0x01\n      add\n      sstore\n      0x40\n      dup3\n      add\n      mload\n      dup2\n      0x02\n      add\n      swap1\n      dup2\n      tag_86\n      swap2\n      swap1\n      tag_85\n      jump\t// in\n    tag_86:\n      pop\n      swap1\n      pop\n      pop\n        /* \"Example/Ex5_8.sol\":358:486  function initializeHuman2(string memory _name,uint _age,string memory _job) public{... */\n      pop\n      pop\n      pop\n      jump\t// out\n        /* \"Example/Ex5_8.sol\":491:574  function changeJobHuman1(string memory _job) public{... */\n    tag_32:\n        /* \"Example/Ex5_8.sol\":563:567  _job */\n      dup1\n        /* \"Example/Ex5_8.sol\":552:558  human1 */\n      0x00\n        /* \"Example/Ex5_8.sol\":552:562  human1.job */\n      0x02\n      add\n        /* \"Example/Ex5_8.sol\":552:567  human1.job=_job */\n      swap1\n      dup2\n      tag_88\n      swap2\n      swap1\n      tag_85\n      jump\t// in\n    tag_88:\n      pop\n        /* \"Example/Ex5_8.sol\":491:574  function changeJobHuman1(string memory _job) public{... */\n      pop\n      jump\t// out\n        /* \"Example/Ex5_8.sol\":580:674  function getNameHuman1() public view returns(string memory){... */\n    tag_34:\n        /* \"Example/Ex5_8.sol\":625:638  string memory */\n      0x60\n        /* \"Example/Ex5_8.sol\":656:662  human1 */\n      0x00\n        /* \"Example/Ex5_8.sol\":656:667  human1.name */\n      dup1\n      add\n        /* \"Example/Ex5_8.sol\":649:667  return human1.name */\n      dup1\n      sload\n      tag_90\n      swap1\n      tag_38\n      jump\t// in\n    tag_90:\n      dup1\n      0x1f\n      add\n      0x20\n      dup1\n      swap2\n      div\n      mul\n      0x20\n      add\n      mload(0x40)\n      swap1\n      dup2\n      add\n      0x40\n      mstore\n      dup1\n      swap3\n      swap2\n      swap1\n      dup2\n      dup2\n      mstore\n      0x20\n      add\n      dup3\n      dup1\n      sload\n      tag_91\n      swap1\n      tag_38\n      jump\t// in\n    tag_91:\n      dup1\n      iszero\n      tag_92\n      jumpi\n      dup1\n      0x1f\n      lt\n      tag_93\n      jumpi\n      0x0100\n      dup1\n      dup4\n      sload\n      div\n      mul\n      dup4\n      mstore\n      swap2\n      0x20\n      add\n      swap2\n      jump(tag_92)\n    tag_93:\n      dup3\n      add\n      swap2\n      swap1\n      0x00\n      mstore\n      keccak256(0x00, 0x20)\n      swap1\n    tag_94:\n      dup2\n      sload\n      dup2\n      mstore\n      swap1\n      0x01\n      add\n      swap1\n      0x20\n      add\n      dup1\n      dup4\n      gt\n      tag_94\n      jumpi\n      dup3\n      swap1\n      sub\n      0x1f\n      and\n      dup3\n      add\n      swap2\n    tag_92:\n      pop\n      pop\n      pop\n      pop\n      pop\n      swap1\n      pop\n        /* \"Example/Ex5_8.sol\":580:674  function getNameHuman1() public view returns(string memory){... */\n      swap1\n      jump\t// out\n    tag_49:\n      mload(0x40)\n      dup1\n      0x60\n      add\n      0x40\n      mstore\n      dup1\n      0x60\n      dup2\n      mstore\n      0x20\n      add\n      0x00\n      dup2\n      mstore\n      0x20\n      add\n      0x60\n      dup2\n      mstore\n      pop\n      swap1\n      jump\t// out\n        /* \"#utility.yul\":7:106   */\n    tag_95:\n        /* \"#utility.yul\":59:65   */\n      0x00\n        /* \"#utility.yul\":93:98   */\n      dup2\n        /* \"#utility.yul\":87:99   */\n      mload\n        /* \"#utility.yul\":77:99   */\n      swap1\n      pop\n        /* \"#utility.yul\":7:106   */\n      swap2\n      swap1\n      pop\n      jump\t// out\n        /* \"#utility.yul\":112:281   */\n    tag_96:\n        /* \"#utility.yul\":196:207   */\n      0x00\n        /* \"#utility.yul\":230:236   */\n      dup3\n        /* \"#utility.yul\":225:228   */\n      dup3\n        /* \"#utility.yul\":218:237   */\n      mstore\n        /* \"#utility.yul\":270:274   */\n      0x20\n        /* \"#utility.yul\":265:268   */\n      dup3\n        /* \"#utility.yul\":261:275   */\n      add\n        /* \"#utility.yul\":246:275   */\n      swap1\n      pop\n        /* \"#utility.yul\":112:281   */\n      swap3\n      swap2\n      pop\n      pop\n      jump\t// out\n        /* \"#utility.yul\":287:426   */\n    tag_97:\n        /* \"#utility.yul\":376:382   */\n      dup3\n        /* \"#utility.yul\":371:374   */\n      dup2\n        /* \"#utility.yul\":366:369   */\n      dup4\n        /* \"#utility.yul\":360:383   */\n      mcopy\n        /* \"#utility.yul\":417:418   */\n      0x00\n        /* \"#utility.yul\":408:414   */\n      dup4\n        /* \"#utility.yul\":403:406   */\n      dup4\n        /* \"#utility.yul\":399:415   */\n      add\n        /* \"#utility.yul\":392:419   */\n      mstore\n        /* \"#utility.yul\":287:426   */\n      pop\n      pop\n      pop\n      jump\t// out\n        /* \"#utility.yul\":432:534   */\n    tag_98:\n        /* \"#utility.yul\":473:479   */\n      0x00\n        /* \"#utility.yul\":524:526   */\n      0x1f\n        /* \"#utility.yul\":520:527   */\n      not\n        /* \"#utility.yul\":515:517   */\n      0x1f\n        /* \"#utility.yul\":508:513   */\n      dup4\n        /* \"#utility.yul\":504:518   */\n      add\n        /* \"#utility.yul\":500:528   */\n      and\n        /* \"#utility.yul\":490:528   */\n      swap1\n      pop\n        /* \"#utility.yul\":432:534   */\n      swap2\n      swap1\n      pop\n      jump\t// out\n        /* \"#utility.yul\":540:917   */\n    tag_99:\n        /* \"#utility.yul\":628:631   */\n      0x00\n        /* \"#utility.yul\":656:695   */\n      tag_142\n        /* \"#utility.yul\":689:694   */\n      dup3\n        /* \"#utility.yul\":656:695   */\n      tag_95\n      jump\t// in\n    tag_142:\n        /* \"#utility.yul\":711:782   */\n      tag_143\n        /* \"#utility.yul\":775:781   */\n      dup2\n        /* \"#utility.yul\":770:773   */\n      dup6\n        /* \"#utility.yul\":711:782   */\n      tag_96\n      jump\t// in\n    tag_143:\n        /* \"#utility.yul\":704:782   */\n      swap4\n      pop\n        /* \"#utility.yul\":791:856   */\n      tag_144\n        /* \"#utility.yul\":849:855   */\n      dup2\n        /* \"#utility.yul\":844:847   */\n      dup6\n        /* \"#utility.yul\":837:841   */\n      0x20\n        /* \"#utility.yul\":830:835   */\n      dup7\n        /* \"#utility.yul\":826:842   */\n      add\n        /* \"#utility.yul\":791:856   */\n      tag_97\n      jump\t// in\n    tag_144:\n        /* \"#utility.yul\":881:910   */\n      tag_145\n        /* \"#utility.yul\":903:909   */\n      dup2\n        /* \"#utility.yul\":881:910   */\n      tag_98\n      jump\t// in\n    tag_145:\n        /* \"#utility.yul\":876:879   */\n      dup5\n        /* \"#utility.yul\":872:911   */\n      add\n        /* \"#utility.yul\":865:911   */\n      swap2\n      pop\n        /* \"#utility.yul\":632:917   */\n      pop\n        /* \"#utility.yul\":540:917   */\n      swap3\n      swap2\n      pop\n      pop\n      jump\t// out\n        /* \"#utility.yul\":923:1000   */\n    tag_100:\n        /* \"#utility.yul\":960:967   */\n      0x00\n        /* \"#utility.yul\":989:994   */\n      dup2\n        /* \"#utility.yul\":978:994   */\n      swap1\n      pop\n        /* \"#utility.yul\":923:1000   */\n      swap2\n      swap1\n      pop\n      jump\t// out\n        /* \"#utility.yul\":1006:1124   */\n    tag_101:\n        /* \"#utility.yul\":1093:1117   */\n      tag_148\n        /* \"#utility.yul\":1111:1116   */\n      dup2\n        /* \"#utility.yul\":1093:1117   */\n      tag_100\n      jump\t// in\n    tag_148:\n        /* \"#utility.yul\":1088:1091   */\n      dup3\n        /* \"#utility.yul\":1081:1118   */\n      mstore\n        /* \"#utility.yul\":1006:1124   */\n      pop\n      pop\n      jump\t// out\n        /* \"#utility.yul\":1130:1754   */\n    tag_14:\n        /* \"#utility.yul\":1319:1323   */\n      0x00\n        /* \"#utility.yul\":1357:1359   */\n      0x60\n        /* \"#utility.yul\":1346:1355   */\n      dup3\n        /* \"#utility.yul\":1342:1360   */\n      add\n        /* \"#utility.yul\":1334:1360   */\n      swap1\n      pop\n        /* \"#utility.yul\":1406:1415   */\n      dup2\n        /* \"#utility.yul\":1400:1404   */\n      dup2\n        /* \"#utility.yul\":1396:1416   */\n      sub\n        /* \"#utility.yul\":1392:1393   */\n      0x00\n        /* \"#utility.yul\":1381:1390   */\n      dup4\n        /* \"#utility.yul\":1377:1394   */\n      add\n        /* \"#utility.yul\":1370:1417   */\n      mstore\n        /* \"#utility.yul\":1434:1512   */\n      tag_150\n        /* \"#utility.yul\":1507:1511   */\n      dup2\n        /* \"#utility.yul\":1498:1504   */\n      dup7\n        /* \"#utility.yul\":1434:1512   */\n      tag_99\n      jump\t// in\n    tag_150:\n        /* \"#utility.yul\":1426:1512   */\n      swap1\n      pop\n        /* \"#utility.yul\":1522:1594   */\n      tag_151\n        /* \"#utility.yul\":1590:1592   */\n      0x20\n        /* \"#utility.yul\":1579:1588   */\n      dup4\n        /* \"#utility.yul\":1575:1593   */\n      add\n        /* \"#utility.yul\":1566:1572   */\n      dup6\n        /* \"#utility.yul\":1522:1594   */\n      tag_101\n      jump\t// in\n    tag_151:\n        /* \"#utility.yul\":1641:1650   */\n      dup2\n        /* \"#utility.yul\":1635:1639   */\n      dup2\n        /* \"#utility.yul\":1631:1651   */\n      sub\n        /* \"#utility.yul\":1626:1628   */\n      0x40\n        /* \"#utility.yul\":1615:1624   */\n      dup4\n        /* \"#utility.yul\":1611:1629   */\n      add\n        /* \"#utility.yul\":1604:1652   */\n      mstore\n        /* \"#utility.yul\":1669:1747   */\n      tag_152\n        /* \"#utility.yul\":1742:1746   */\n      dup2\n        /* \"#utility.yul\":1733:1739   */\n      dup5\n        /* \"#utility.yul\":1669:1747   */\n      tag_99\n      jump\t// in\n    tag_152:\n        /* \"#utility.yul\":1661:1747   */\n      swap1\n      pop\n        /* \"#utility.yul\":1130:1754   */\n      swap5\n      swap4\n      pop\n      pop\n      pop\n      pop\n      jump\t// out\n        /* \"#utility.yul\":1760:1919   */\n    tag_102:\n        /* \"#utility.yul\":1834:1845   */\n      0x00\n        /* \"#utility.yul\":1868:1874   */\n      dup3\n        /* \"#utility.yul\":1863:1866   */\n      dup3\n        /* \"#utility.yul\":1856:1875   */\n      mstore\n        /* \"#utility.yul\":1908:1912   */\n      0x20\n        /* \"#utility.yul\":1903:1906   */\n      dup3\n        /* \"#utility.yul\":1899:1913   */\n      add\n        /* \"#utility.yul\":1884:1913   */\n      swap1\n      pop\n        /* \"#utility.yul\":1760:1919   */\n      swap3\n      swap2\n      pop\n      pop\n      jump\t// out\n        /* \"#utility.yul\":1925:2282   */\n    tag_103:\n        /* \"#utility.yul\":2003:2006   */\n      0x00\n        /* \"#utility.yul\":2031:2070   */\n      tag_155\n        /* \"#utility.yul\":2064:2069   */\n      dup3\n        /* \"#utility.yul\":2031:2070   */\n      tag_95\n      jump\t// in\n    tag_155:\n        /* \"#utility.yul\":2086:2147   */\n      tag_156\n        /* \"#utility.yul\":2140:2146   */\n      dup2\n        /* \"#utility.yul\":2135:2138   */\n      dup6\n        /* \"#utility.yul\":2086:2147   */\n      tag_102\n      jump\t// in\n    tag_156:\n        /* \"#utility.yul\":2079:2147   */\n      swap4\n      pop\n        /* \"#utility.yul\":2156:2221   */\n      tag_157\n        /* \"#utility.yul\":2214:2220   */\n      dup2\n        /* \"#utility.yul\":2209:2212   */\n      dup6\n        /* \"#utility.yul\":2202:2206   */\n      0x20\n        /* \"#utility.yul\":2195:2200   */\n      dup7\n        /* \"#utility.yul\":2191:2207   */\n      add\n        /* \"#utility.yul\":2156:2221   */\n      tag_97\n      jump\t// in\n    tag_157:\n        /* \"#utility.yul\":2246:2275   */\n      tag_158\n        /* \"#utility.yul\":2268:2274   */\n      dup2\n        /* \"#utility.yul\":2246:2275   */\n      tag_98\n      jump\t// in\n    tag_158:\n        /* \"#utility.yul\":2241:2244   */\n      dup5\n        /* \"#utility.yul\":2237:2276   */\n      add\n        /* \"#utility.yul\":2230:2276   */\n      swap2\n      pop\n        /* \"#utility.yul\":2007:2282   */\n      pop\n        /* \"#utility.yul\":1925:2282   */\n      swap3\n      swap2\n      pop\n      pop\n      jump\t// out\n        /* \"#utility.yul\":2288:2396   */\n    tag_104:\n        /* \"#utility.yul\":2365:2389   */\n      tag_160\n        /* \"#utility.yul\":2383:2388   */\n      dup2\n        /* \"#utility.yul\":2365:2389   */\n      tag_100\n      jump\t// in\n    tag_160:\n        /* \"#utility.yul\":2360:2363   */\n      dup3\n        /* \"#utility.yul\":2353:2390   */\n      mstore\n        /* \"#utility.yul\":2288:2396   */\n      pop\n      pop\n      jump\t// out\n        /* \"#utility.yul\":2450:3289   */\n    tag_105:\n        /* \"#utility.yul\":2559:2562   */\n      0x00\n        /* \"#utility.yul\":2595:2599   */\n      0x60\n        /* \"#utility.yul\":2590:2593   */\n      dup4\n        /* \"#utility.yul\":2586:2600   */\n      add\n        /* \"#utility.yul\":2682:2686   */\n      0x00\n        /* \"#utility.yul\":2675:2680   */\n      dup4\n        /* \"#utility.yul\":2671:2687   */\n      add\n        /* \"#utility.yul\":2665:2688   */\n      mload\n        /* \"#utility.yul\":2735:2738   */\n      dup5\n        /* \"#utility.yul\":2729:2733   */\n      dup3\n        /* \"#utility.yul\":2725:2739   */\n      sub\n        /* \"#utility.yul\":2718:2722   */\n      0x00\n        /* \"#utility.yul\":2713:2716   */\n      dup7\n        /* \"#utility.yul\":2709:2723   */\n      add\n        /* \"#utility.yul\":2702:2740   */\n      mstore\n        /* \"#utility.yul\":2761:2834   */\n      tag_162\n        /* \"#utility.yul\":2829:2833   */\n      dup3\n        /* \"#utility.yul\":2815:2827   */\n      dup3\n        /* \"#utility.yul\":2761:2834   */\n      tag_103\n      jump\t// in\n    tag_162:\n        /* \"#utility.yul\":2753:2834   */\n      swap2\n      pop\n        /* \"#utility.yul\":2610:2845   */\n      pop\n        /* \"#utility.yul\":2926:2930   */\n      0x20\n        /* \"#utility.yul\":2919:2924   */\n      dup4\n        /* \"#utility.yul\":2915:2931   */\n      add\n        /* \"#utility.yul\":2909:2932   */\n      mload\n        /* \"#utility.yul\":2945:3008   */\n      tag_163\n        /* \"#utility.yul\":3002:3006   */\n      0x20\n        /* \"#utility.yul\":2997:3000   */\n      dup7\n        /* \"#utility.yul\":2993:3007   */\n      add\n        /* \"#utility.yul\":2979:2991   */\n      dup3\n        /* \"#utility.yul\":2945:3008   */\n      tag_104\n      jump\t// in\n    tag_163:\n        /* \"#utility.yul\":2855:3018   */\n      pop\n        /* \"#utility.yul\":3099:3103   */\n      0x40\n        /* \"#utility.yul\":3092:3097   */\n      dup4\n        /* \"#utility.yul\":3088:3104   */\n      add\n        /* \"#utility.yul\":3082:3105   */\n      mload\n        /* \"#utility.yul\":3152:3155   */\n      dup5\n        /* \"#utility.yul\":3146:3150   */\n      dup3\n        /* \"#utility.yul\":3142:3156   */\n      sub\n        /* \"#utility.yul\":3135:3139   */\n      0x40\n        /* \"#utility.yul\":3130:3133   */\n      dup7\n        /* \"#utility.yul\":3126:3140   */\n      add\n        /* \"#utility.yul\":3119:3157   */\n      mstore\n        /* \"#utility.yul\":3178:3251   */\n      tag_164\n        /* \"#utility.yul\":3246:3250   */\n      dup3\n        /* \"#utility.yul\":3232:3244   */\n      dup3\n        /* \"#utility.yul\":3178:3251   */\n      tag_103\n      jump\t// in\n    tag_164:\n        /* \"#utility.yul\":3170:3251   */\n      swap2\n      pop\n        /* \"#utility.yul\":3028:3262   */\n      pop\n        /* \"#utility.yul\":3279:3283   */\n      dup1\n        /* \"#utility.yul\":3272:3283   */\n      swap2\n      pop\n        /* \"#utility.yul\":2564:3289   */\n      pop\n        /* \"#utility.yul\":2450:3289   */\n      swap3\n      swap2\n      pop\n      pop\n      jump\t// out\n        /* \"#utility.yul\":3295:3648   */\n    tag_18:\n        /* \"#utility.yul\":3428:3432   */\n      0x00\n        /* \"#utility.yul\":3466:3468   */\n      0x20\n        /* \"#utility.yul\":3455:3464   */\n      dup3\n        /* \"#utility.yul\":3451:3469   */\n      add\n        /* \"#utility.yul\":3443:3469   */\n      swap1\n      pop\n        /* \"#utility.yul\":3515:3524   */\n      dup2\n        /* \"#utility.yul\":3509:3513   */\n      dup2\n        /* \"#utility.yul\":3505:3525   */\n      sub\n        /* \"#utility.yul\":3501:3502   */\n      0x00\n        /* \"#utility.yul\":3490:3499   */\n      dup4\n        /* \"#utility.yul\":3486:3503   */\n      add\n        /* \"#utility.yul\":3479:3526   */\n      mstore\n        /* \"#utility.yul\":3543:3641   */\n      tag_166\n        /* \"#utility.yul\":3636:3640   */\n      dup2\n        /* \"#utility.yul\":3627:3633   */\n      dup5\n        /* \"#utility.yul\":3543:3641   */\n      tag_105\n      jump\t// in\n    tag_166:\n        /* \"#utility.yul\":3535:3641   */\n      swap1\n      pop\n        /* \"#utility.yul\":3295:3648   */\n      swap3\n      swap2\n      pop\n      pop\n      jump\t// out\n        /* \"#utility.yul\":3654:3729   */\n    tag_106:\n        /* \"#utility.yul\":3687:3693   */\n      0x00\n        /* \"#utility.yul\":3720:3722   */\n      0x40\n        /* \"#utility.yul\":3714:3723   */\n      mload\n        /* \"#utility.yul\":3704:3723   */\n      swap1\n      pop\n        /* \"#utility.yul\":3654:3729   */\n      swap1\n      jump\t// out\n        /* \"#utility.yul\":3735:3852   */\n    tag_107:\n        /* \"#utility.yul\":3844:3845   */\n      0x00\n        /* \"#utility.yul\":3841:3842   */\n      dup1\n        /* \"#utility.yul\":3834:3846   */\n      revert\n        /* \"#utility.yul\":3858:3975   */\n    tag_108:\n        /* \"#utility.yul\":3967:3968   */\n      0x00\n        /* \"#utility.yul\":3964:3965   */\n      dup1\n        /* \"#utility.yul\":3957:3969   */\n      revert\n        /* \"#utility.yul\":3981:4098   */\n    tag_109:\n        /* \"#utility.yul\":4090:4091   */\n      0x00\n        /* \"#utility.yul\":4087:4088   */\n      dup1\n        /* \"#utility.yul\":4080:4092   */\n      revert\n        /* \"#utility.yul\":4104:4221   */\n    tag_110:\n        /* \"#utility.yul\":4213:4214   */\n      0x00\n        /* \"#utility.yul\":4210:4211   */\n      dup1\n        /* \"#utility.yul\":4203:4215   */\n      revert\n        /* \"#utility.yul\":4227:4407   */\n    tag_111:\n        /* \"#utility.yul\":4275:4352   */\n      0x4e487b7100000000000000000000000000000000000000000000000000000000\n        /* \"#utility.yul\":4272:4273   */\n      0x00\n        /* \"#utility.yul\":4265:4353   */\n      mstore\n        /* \"#utility.yul\":4372:4376   */\n      0x41\n        /* \"#utility.yul\":4369:4370   */\n      0x04\n        /* \"#utility.yul\":4362:4377   */\n      mstore\n        /* \"#utility.yul\":4396:4400   */\n      0x24\n        /* \"#utility.yul\":4393:4394   */\n      0x00\n        /* \"#utility.yul\":4386:4401   */\n      revert\n        /* \"#utility.yul\":4413:4694   */\n    tag_112:\n        /* \"#utility.yul\":4496:4523   */\n      tag_174\n        /* \"#utility.yul\":4518:4522   */\n      dup3\n        /* \"#utility.yul\":4496:4523   */\n      tag_98\n      jump\t// in\n    tag_174:\n        /* \"#utility.yul\":4488:4494   */\n      dup2\n        /* \"#utility.yul\":4484:4524   */\n      add\n        /* \"#utility.yul\":4626:4632   */\n      dup2\n        /* \"#utility.yul\":4614:4624   */\n      dup2\n        /* \"#utility.yul\":4611:4633   */\n      lt\n        /* \"#utility.yul\":4590:4608   */\n      0xffffffffffffffff\n        /* \"#utility.yul\":4578:4588   */\n      dup3\n        /* \"#utility.yul\":4575:4609   */\n      gt\n        /* \"#utility.yul\":4572:4634   */\n      or\n        /* \"#utility.yul\":4569:4657   */\n      iszero\n      tag_175\n      jumpi\n        /* \"#utility.yul\":4637:4655   */\n      tag_176\n      tag_111\n      jump\t// in\n    tag_176:\n        /* \"#utility.yul\":4569:4657   */\n    tag_175:\n        /* \"#utility.yul\":4677:4687   */\n      dup1\n        /* \"#utility.yul\":4673:4675   */\n      0x40\n        /* \"#utility.yul\":4666:4688   */\n      mstore\n        /* \"#utility.yul\":4456:4694   */\n      pop\n        /* \"#utility.yul\":4413:4694   */\n      pop\n      pop\n      jump\t// out\n        /* \"#utility.yul\":4700:4829   */\n    tag_113:\n        /* \"#utility.yul\":4734:4740   */\n      0x00\n        /* \"#utility.yul\":4761:4781   */\n      tag_178\n      tag_106\n      jump\t// in\n    tag_178:\n        /* \"#utility.yul\":4751:4781   */\n      swap1\n      pop\n        /* \"#utility.yul\":4790:4823   */\n      tag_179\n        /* \"#utility.yul\":4818:4822   */\n      dup3\n        /* \"#utility.yul\":4810:4816   */\n      dup3\n        /* \"#utility.yul\":4790:4823   */\n      tag_112\n      jump\t// in\n    tag_179:\n        /* \"#utility.yul\":4700:4829   */\n      swap2\n      swap1\n      pop\n      jump\t// out\n        /* \"#utility.yul\":4835:5143   */\n    tag_114:\n        /* \"#utility.yul\":4897:4901   */\n      0x00\n        /* \"#utility.yul\":4987:5005   */\n      0xffffffffffffffff\n        /* \"#utility.yul\":4979:4985   */\n      dup3\n        /* \"#utility.yul\":4976:5006   */\n      gt\n        /* \"#utility.yul\":4973:5029   */\n      iszero\n      tag_181\n      jumpi\n        /* \"#utility.yul\":5009:5027   */\n      tag_182\n      tag_111\n      jump\t// in\n    tag_182:\n        /* \"#utility.yul\":4973:5029   */\n    tag_181:\n        /* \"#utility.yul\":5047:5076   */\n      tag_183\n        /* \"#utility.yul\":5069:5075   */\n      dup3\n        /* \"#utility.yul\":5047:5076   */\n      tag_98\n      jump\t// in\n    tag_183:\n        /* \"#utility.yul\":5039:5076   */\n      swap1\n      pop\n        /* \"#utility.yul\":5131:5135   */\n      0x20\n        /* \"#utility.yul\":5125:5129   */\n      dup2\n        /* \"#utility.yul\":5121:5136   */\n      add\n        /* \"#utility.yul\":5113:5136   */\n      swap1\n      pop\n        /* \"#utility.yul\":4835:5143   */\n      swap2\n      swap1\n      pop\n      jump\t// out\n        /* \"#utility.yul\":5149:5297   */\n    tag_115:\n        /* \"#utility.yul\":5247:5253   */\n      dup3\n        /* \"#utility.yul\":5242:5245   */\n      dup2\n        /* \"#utility.yul\":5237:5240   */\n      dup4\n        /* \"#utility.yul\":5224:5254   */\n      calldatacopy\n        /* \"#utility.yul\":5288:5289   */\n      0x00\n        /* \"#utility.yul\":5279:5285   */\n      dup4\n        /* \"#utility.yul\":5274:5277   */\n      dup4\n        /* \"#utility.yul\":5270:5286   */\n      add\n        /* \"#utility.yul\":5263:5290   */\n      mstore\n        /* \"#utility.yul\":5149:5297   */\n      pop\n      pop\n      pop\n      jump\t// out\n        /* \"#utility.yul\":5303:5728   */\n    tag_116:\n        /* \"#utility.yul\":5381:5386   */\n      0x00\n        /* \"#utility.yul\":5406:5472   */\n      tag_186\n        /* \"#utility.yul\":5422:5471   */\n      tag_187\n        /* \"#utility.yul\":5464:5470   */\n      dup5\n        /* \"#utility.yul\":5422:5471   */\n      tag_114\n      jump\t// in\n    tag_187:\n        /* \"#utility.yul\":5406:5472   */\n      tag_113\n      jump\t// in\n    tag_186:\n        /* \"#utility.yul\":5397:5472   */\n      swap1\n      pop\n        /* \"#utility.yul\":5495:5501   */\n      dup3\n        /* \"#utility.yul\":5488:5493   */\n      dup2\n        /* \"#utility.yul\":5481:5502   */\n      mstore\n        /* \"#utility.yul\":5533:5537   */\n      0x20\n        /* \"#utility.yul\":5526:5531   */\n      dup2\n        /* \"#utility.yul\":5522:5538   */\n      add\n        /* \"#utility.yul\":5571:5574   */\n      dup5\n        /* \"#utility.yul\":5562:5568   */\n      dup5\n        /* \"#utility.yul\":5557:5560   */\n      dup5\n        /* \"#utility.yul\":5553:5569   */\n      add\n        /* \"#utility.yul\":5550:5575   */\n      gt\n        /* \"#utility.yul\":5547:5659   */\n      iszero\n      tag_188\n      jumpi\n        /* \"#utility.yul\":5578:5657   */\n      tag_189\n      tag_110\n      jump\t// in\n    tag_189:\n        /* \"#utility.yul\":5547:5659   */\n    tag_188:\n        /* \"#utility.yul\":5668:5722   */\n      tag_190\n        /* \"#utility.yul\":5715:5721   */\n      dup5\n        /* \"#utility.yul\":5710:5713   */\n      dup3\n        /* \"#utility.yul\":5705:5708   */\n      dup6\n        /* \"#utility.yul\":5668:5722   */\n      tag_115\n      jump\t// in\n    tag_190:\n        /* \"#utility.yul\":5387:5728   */\n      pop\n        /* \"#utility.yul\":5303:5728   */\n      swap4\n      swap3\n      pop\n      pop\n      pop\n      jump\t// out\n        /* \"#utility.yul\":5748:6088   */\n    tag_117:\n        /* \"#utility.yul\":5804:5809   */\n      0x00\n        /* \"#utility.yul\":5853:5856   */\n      dup3\n        /* \"#utility.yul\":5846:5850   */\n      0x1f\n        /* \"#utility.yul\":5838:5844   */\n      dup4\n        /* \"#utility.yul\":5834:5851   */\n      add\n        /* \"#utility.yul\":5830:5857   */\n      slt\n        /* \"#utility.yul\":5820:5942   */\n      tag_192\n      jumpi\n        /* \"#utility.yul\":5861:5940   */\n      tag_193\n      tag_109\n      jump\t// in\n    tag_193:\n        /* \"#utility.yul\":5820:5942   */\n    tag_192:\n        /* \"#utility.yul\":5978:5984   */\n      dup2\n        /* \"#utility.yul\":5965:5985   */\n      calldataload\n        /* \"#utility.yul\":6003:6082   */\n      tag_194\n        /* \"#utility.yul\":6078:6081   */\n      dup5\n        /* \"#utility.yul\":6070:6076   */\n      dup3\n        /* \"#utility.yul\":6063:6067   */\n      0x20\n        /* \"#utility.yul\":6055:6061   */\n      dup7\n        /* \"#utility.yul\":6051:6068   */\n      add\n        /* \"#utility.yul\":6003:6082   */\n      tag_116\n      jump\t// in\n    tag_194:\n        /* \"#utility.yul\":5994:6082   */\n      swap2\n      pop\n        /* \"#utility.yul\":5810:6088   */\n      pop\n        /* \"#utility.yul\":5748:6088   */\n      swap3\n      swap2\n      pop\n      pop\n      jump\t// out\n        /* \"#utility.yul\":6094:6216   */\n    tag_118:\n        /* \"#utility.yul\":6167:6191   */\n      tag_196\n        /* \"#utility.yul\":6185:6190   */\n      dup2\n        /* \"#utility.yul\":6167:6191   */\n      tag_100\n      jump\t// in\n    tag_196:\n        /* \"#utility.yul\":6160:6165   */\n      dup2\n        /* \"#utility.yul\":6157:6192   */\n      eq\n        /* \"#utility.yul\":6147:6210   */\n      tag_197\n      jumpi\n        /* \"#utility.yul\":6206:6207   */\n      0x00\n        /* \"#utility.yul\":6203:6204   */\n      dup1\n        /* \"#utility.yul\":6196:6208   */\n      revert\n        /* \"#utility.yul\":6147:6210   */\n    tag_197:\n        /* \"#utility.yul\":6094:6216   */\n      pop\n      jump\t// out\n        /* \"#utility.yul\":6222:6361   */\n    tag_119:\n        /* \"#utility.yul\":6268:6273   */\n      0x00\n        /* \"#utility.yul\":6306:6312   */\n      dup2\n        /* \"#utility.yul\":6293:6313   */\n      calldataload\n        /* \"#utility.yul\":6284:6313   */\n      swap1\n      pop\n        /* \"#utility.yul\":6322:6355   */\n      tag_199\n        /* \"#utility.yul\":6349:6354   */\n      dup2\n        /* \"#utility.yul\":6322:6355   */\n      tag_118\n      jump\t// in\n    tag_199:\n        /* \"#utility.yul\":6222:6361   */\n      swap3\n      swap2\n      pop\n      pop\n      jump\t// out\n        /* \"#utility.yul\":6367:7346   */\n    tag_27:\n        /* \"#utility.yul\":6464:6470   */\n      0x00\n        /* \"#utility.yul\":6472:6478   */\n      dup1\n        /* \"#utility.yul\":6480:6486   */\n      0x00\n        /* \"#utility.yul\":6529:6531   */\n      0x60\n        /* \"#utility.yul\":6517:6526   */\n      dup5\n        /* \"#utility.yul\":6508:6515   */\n      dup7\n        /* \"#utility.yul\":6504:6527   */\n      sub\n        /* \"#utility.yul\":6500:6532   */\n      slt\n        /* \"#utility.yul\":6497:6616   */\n      iszero\n      tag_201\n      jumpi\n        /* \"#utility.yul\":6535:6614   */\n      tag_202\n      tag_107\n      jump\t// in\n    tag_202:\n        /* \"#utility.yul\":6497:6616   */\n    tag_201:\n        /* \"#utility.yul\":6683:6684   */\n      0x00\n        /* \"#utility.yul\":6672:6681   */\n      dup5\n        /* \"#utility.yul\":6668:6685   */\n      add\n        /* \"#utility.yul\":6655:6686   */\n      calldataload\n        /* \"#utility.yul\":6713:6731   */\n      0xffffffffffffffff\n        /* \"#utility.yul\":6705:6711   */\n      dup2\n        /* \"#utility.yul\":6702:6732   */\n      gt\n        /* \"#utility.yul\":6699:6816   */\n      iszero\n      tag_203\n      jumpi\n        /* \"#utility.yul\":6735:6814   */\n      tag_204\n      tag_108\n      jump\t// in\n    tag_204:\n        /* \"#utility.yul\":6699:6816   */\n    tag_203:\n        /* \"#utility.yul\":6840:6903   */\n      tag_205\n        /* \"#utility.yul\":6895:6902   */\n      dup7\n        /* \"#utility.yul\":6886:6892   */\n      dup3\n        /* \"#utility.yul\":6875:6884   */\n      dup8\n        /* \"#utility.yul\":6871:6893   */\n      add\n        /* \"#utility.yul\":6840:6903   */\n      tag_117\n      jump\t// in\n    tag_205:\n        /* \"#utility.yul\":6830:6903   */\n      swap4\n      pop\n        /* \"#utility.yul\":6626:6913   */\n      pop\n        /* \"#utility.yul\":6952:6954   */\n      0x20\n        /* \"#utility.yul\":6978:7031   */\n      tag_206\n        /* \"#utility.yul\":7023:7030   */\n      dup7\n        /* \"#utility.yul\":7014:7020   */\n      dup3\n        /* \"#utility.yul\":7003:7012   */\n      dup8\n        /* \"#utility.yul\":6999:7021   */\n      add\n        /* \"#utility.yul\":6978:7031   */\n      tag_119\n      jump\t// in\n    tag_206:\n        /* \"#utility.yul\":6968:7031   */\n      swap3\n      pop\n        /* \"#utility.yul\":6923:7041   */\n      pop\n        /* \"#utility.yul\":7108:7110   */\n      0x40\n        /* \"#utility.yul\":7097:7106   */\n      dup5\n        /* \"#utility.yul\":7093:7111   */\n      add\n        /* \"#utility.yul\":7080:7112   */\n      calldataload\n        /* \"#utility.yul\":7139:7157   */\n      0xffffffffffffffff\n        /* \"#utility.yul\":7131:7137   */\n      dup2\n        /* \"#utility.yul\":7128:7158   */\n      gt\n        /* \"#utility.yul\":7125:7242   */\n      iszero\n      tag_207\n      jumpi\n        /* \"#utility.yul\":7161:7240   */\n      tag_208\n      tag_108\n      jump\t// in\n    tag_208:\n        /* \"#utility.yul\":7125:7242   */\n    tag_207:\n        /* \"#utility.yul\":7266:7329   */\n      tag_209\n        /* \"#utility.yul\":7321:7328   */\n      dup7\n        /* \"#utility.yul\":7312:7318   */\n      dup3\n        /* \"#utility.yul\":7301:7310   */\n      dup8\n        /* \"#utility.yul\":7297:7319   */\n      add\n        /* \"#utility.yul\":7266:7329   */\n      tag_117\n      jump\t// in\n    tag_209:\n        /* \"#utility.yul\":7256:7329   */\n      swap2\n      pop\n        /* \"#utility.yul\":7051:7339   */\n      pop\n        /* \"#utility.yul\":6367:7346   */\n      swap3\n      pop\n      swap3\n      pop\n      swap3\n      jump\t// out\n        /* \"#utility.yul\":7352:7861   */\n    tag_31:\n        /* \"#utility.yul\":7421:7427   */\n      0x00\n        /* \"#utility.yul\":7470:7472   */\n      0x20\n        /* \"#utility.yul\":7458:7467   */\n      dup3\n        /* \"#utility.yul\":7449:7456   */\n      dup5\n        /* \"#utility.yul\":7445:7468   */\n      sub\n        /* \"#utility.yul\":7441:7473   */\n      slt\n        /* \"#utility.yul\":7438:7557   */\n      iszero\n      tag_211\n      jumpi\n        /* \"#utility.yul\":7476:7555   */\n      tag_212\n      tag_107\n      jump\t// in\n    tag_212:\n        /* \"#utility.yul\":7438:7557   */\n    tag_211:\n        /* \"#utility.yul\":7624:7625   */\n      0x00\n        /* \"#utility.yul\":7613:7622   */\n      dup3\n        /* \"#utility.yul\":7609:7626   */\n      add\n        /* \"#utility.yul\":7596:7627   */\n      calldataload\n        /* \"#utility.yul\":7654:7672   */\n      0xffffffffffffffff\n        /* \"#utility.yul\":7646:7652   */\n      dup2\n        /* \"#utility.yul\":7643:7673   */\n      gt\n        /* \"#utility.yul\":7640:7757   */\n      iszero\n      tag_213\n      jumpi\n        /* \"#utility.yul\":7676:7755   */\n      tag_214\n      tag_108\n      jump\t// in\n    tag_214:\n        /* \"#utility.yul\":7640:7757   */\n    tag_213:\n        /* \"#utility.yul\":7781:7844   */\n      tag_215\n        /* \"#utility.yul\":7836:7843   */\n      dup5\n        /* \"#utility.yul\":7827:7833   */\n      dup3\n        /* \"#utility.yul\":7816:7825   */\n      dup6\n        /* \"#utility.yul\":7812:7834   */\n      add\n        /* \"#utility.yul\":7781:7844   */\n      tag_117\n      jump\t// in\n    tag_215:\n        /* \"#utility.yul\":7771:7844   */\n      swap2\n      pop\n        /* \"#utility.yul\":7567:7854   */\n      pop\n        /* \"#utility.yul\":7352:7861   */\n      swap3\n      swap2\n      pop\n      pop\n      jump\t// out\n        /* \"#utility.yul\":7867:8180   */\n    tag_36:\n        /* \"#utility.yul\":7980:7984   */\n      0x00\n        /* \"#utility.yul\":8018:8020   */\n      0x20\n        /* \"#utility.yul\":8007:8016   */\n      dup3\n        /* \"#utility.yul\":8003:8021   */\n      add\n        /* \"#utility.yul\":7995:8021   */\n      swap1\n      pop\n        /* \"#utility.yul\":8067:8076   */\n      dup2\n        /* \"#utility.yul\":8061:8065   */\n      dup2\n        /* \"#utility.yul\":8057:8077   */\n      sub\n        /* \"#utility.yul\":8053:8054   */\n      0x00\n        /* \"#utility.yul\":8042:8051   */\n      dup4\n        /* \"#utility.yul\":8038:8055   */\n      add\n        /* \"#utility.yul\":8031:8078   */\n      mstore\n        /* \"#utility.yul\":8095:8173   */\n      tag_217\n        /* \"#utility.yul\":8168:8172   */\n      dup2\n        /* \"#utility.yul\":8159:8165   */\n      dup5\n        /* \"#utility.yul\":8095:8173   */\n      tag_99\n      jump\t// in\n    tag_217:\n        /* \"#utility.yul\":8087:8173   */\n      swap1\n      pop\n        /* \"#utility.yul\":7867:8180   */\n      swap3\n      swap2\n      pop\n      pop\n      jump\t// out\n        /* \"#utility.yul\":8186:8366   */\n    tag_120:\n        /* \"#utility.yul\":8234:8311   */\n      0x4e487b7100000000000000000000000000000000000000000000000000000000\n        /* \"#utility.yul\":8231:8232   */\n      0x00\n        /* \"#utility.yul\":8224:8312   */\n      mstore\n        /* \"#utility.yul\":8331:8335   */\n      0x22\n        /* \"#utility.yul\":8328:8329   */\n      0x04\n        /* \"#utility.yul\":8321:8336   */\n      mstore\n        /* \"#utility.yul\":8355:8359   */\n      0x24\n        /* \"#utility.yul\":8352:8353   */\n      0x00\n        /* \"#utility.yul\":8345:8360   */\n      revert\n        /* \"#utility.yul\":8372:8692   */\n    tag_38:\n        /* \"#utility.yul\":8416:8422   */\n      0x00\n        /* \"#utility.yul\":8453:8454   */\n      0x02\n        /* \"#utility.yul\":8447:8451   */\n      dup3\n        /* \"#utility.yul\":8443:8455   */\n      div\n        /* \"#utility.yul\":8433:8455   */\n      swap1\n      pop\n        /* \"#utility.yul\":8500:8501   */\n      0x01\n        /* \"#utility.yul\":8494:8498   */\n      dup3\n        /* \"#utility.yul\":8490:8502   */\n      and\n        /* \"#utility.yul\":8521:8539   */\n      dup1\n        /* \"#utility.yul\":8511:8592   */\n      tag_220\n      jumpi\n        /* \"#utility.yul\":8577:8581   */\n      0x7f\n        /* \"#utility.yul\":8569:8575   */\n      dup3\n        /* \"#utility.yul\":8565:8582   */\n      and\n        /* \"#utility.yul\":8555:8582   */\n      swap2\n      pop\n        /* \"#utility.yul\":8511:8592   */\n    tag_220:\n        /* \"#utility.yul\":8639:8641   */\n      0x20\n        /* \"#utility.yul\":8631:8637   */\n      dup3\n        /* \"#utility.yul\":8628:8642   */\n      lt\n        /* \"#utility.yul\":8608:8626   */\n      dup2\n        /* \"#utility.yul\":8605:8643   */\n      sub\n        /* \"#utility.yul\":8602:8686   */\n      tag_221\n      jumpi\n        /* \"#utility.yul\":8658:8676   */\n      tag_222\n      tag_120\n      jump\t// in\n    tag_222:\n        /* \"#utility.yul\":8602:8686   */\n    tag_221:\n        /* \"#utility.yul\":8423:8692   */\n      pop\n        /* \"#utility.yul\":8372:8692   */\n      swap2\n      swap1\n      pop\n      jump\t// out\n        /* \"#utility.yul\":8698:8839   */\n    tag_121:\n        /* \"#utility.yul\":8747:8751   */\n      0x00\n        /* \"#utility.yul\":8770:8773   */\n      dup2\n        /* \"#utility.yul\":8762:8773   */\n      swap1\n      pop\n        /* \"#utility.yul\":8793:8796   */\n      dup2\n        /* \"#utility.yul\":8790:8791   */\n      0x00\n        /* \"#utility.yul\":8783:8797   */\n      mstore\n        /* \"#utility.yul\":8827:8831   */\n      0x20\n        /* \"#utility.yul\":8824:8825   */\n      0x00\n        /* \"#utility.yul\":8814:8832   */\n      keccak256\n        /* \"#utility.yul\":8806:8832   */\n      swap1\n      pop\n        /* \"#utility.yul\":8698:8839   */\n      swap2\n      swap1\n      pop\n      jump\t// out\n        /* \"#utility.yul\":8845:8938   */\n    tag_122:\n        /* \"#utility.yul\":8882:8888   */\n      0x00\n        /* \"#utility.yul\":8929:8931   */\n      0x20\n        /* \"#utility.yul\":8924:8926   */\n      0x1f\n        /* \"#utility.yul\":8917:8922   */\n      dup4\n        /* \"#utility.yul\":8913:8927   */\n      add\n        /* \"#utility.yul\":8909:8932   */\n      div\n        /* \"#utility.yul\":8899:8932   */\n      swap1\n      pop\n        /* \"#utility.yul\":8845:8938   */\n      swap2\n      swap1\n      pop\n      jump\t// out\n        /* \"#utility.yul\":8944:9051   */\n    tag_123:\n        /* \"#utility.yul\":8988:8996   */\n      0x00\n        /* \"#utility.yul\":9038:9043   */\n      dup3\n        /* \"#utility.yul\":9032:9036   */\n      dup3\n        /* \"#utility.yul\":9028:9044   */\n      shl\n        /* \"#utility.yul\":9007:9044   */\n      swap1\n      pop\n        /* \"#utility.yul\":8944:9051   */\n      swap3\n      swap2\n      pop\n      pop\n      jump\t// out\n        /* \"#utility.yul\":9057:9450   */\n    tag_124:\n        /* \"#utility.yul\":9126:9132   */\n      0x00\n        /* \"#utility.yul\":9176:9177   */\n      0x08\n        /* \"#utility.yul\":9164:9174   */\n      dup4\n        /* \"#utility.yul\":9160:9178   */\n      mul\n        /* \"#utility.yul\":9199:9296   */\n      tag_227\n        /* \"#utility.yul\":9229:9295   */\n      0xffffffffffffffffffffffffffffffffffffffffffffffffffffffffffffffff\n        /* \"#utility.yul\":9218:9227   */\n      dup3\n        /* \"#utility.yul\":9199:9296   */\n      tag_123\n      jump\t// in\n    tag_227:\n        /* \"#utility.yul\":9317:9356   */\n      tag_228\n        /* \"#utility.yul\":9347:9355   */\n      dup7\n        /* \"#utility.yul\":9336:9345   */\n      dup4\n        /* \"#utility.yul\":9317:9356   */\n      tag_123\n      jump\t// in\n    tag_228:\n        /* \"#utility.yul\":9305:9356   */\n      swap6\n      pop\n        /* \"#utility.yul\":9389:9393   */\n      dup1\n        /* \"#utility.yul\":9385:9394   */\n      not\n        /* \"#utility.yul\":9378:9383   */\n      dup5\n        /* \"#utility.yul\":9374:9395   */\n      and\n        /* \"#utility.yul\":9365:9395   */\n      swap4\n      pop\n        /* \"#utility.yul\":9438:9442   */\n      dup1\n        /* \"#utility.yul\":9428:9436   */\n      dup7\n        /* \"#utility.yul\":9424:9443   */\n      and\n        /* \"#utility.yul\":9417:9422   */\n      dup5\n        /* \"#utility.yul\":9414:9444   */\n      or\n        /* \"#utility.yul\":9404:9444   */\n      swap3\n      pop\n        /* \"#utility.yul\":9133:9450   */\n      pop\n      pop\n        /* \"#utility.yul\":9057:9450   */\n      swap4\n      swap3\n      pop\n      pop\n      pop\n      jump\t// out\n        /* \"#utility.yul\":9456:9516   */\n    tag_125:\n        /* \"#utility.yul\":9484:9487   */\n      0x00\n        /* \"#utility.yul\":9505:9510   */\n      dup2\n        /* \"#utility.yul\":9498:9510   */\n      swap1\n      pop\n        /* \"#utility.yul\":9456:9516   */\n      swap2\n      swap1\n      pop\n      jump\t// out\n        /* \"#utility.yul\":9522:9664   */\n    tag_126:\n        /* \"#utility.yul\":9572:9581   */\n      0x00\n        /* \"#utility.yul\":9605:9658   */\n      tag_231\n        /* \"#utility.yul\":9623:9657   */\n      tag_232\n        /* \"#utility.yul\":9632:9656   */\n      tag_233\n        /* \"#utility.yul\":9650:9655   */\n      dup5\n        /* \"#utility.yul\":9632:9656   */\n      tag_100\n      jump\t// in\n    tag_233:\n        /* \"#utility.yul\":9623:9657   */\n      tag_125\n      jump\t// in\n    tag_232:\n        /* \"#utility.yul\":9605:9658   */\n      tag_100\n      jump\t// in\n    tag_231:\n        /* \"#utility.yul\":9592:9658   */\n      swap1\n      pop\n        /* \"#utility.yul\":9522:9664   */\n      swap2\n      swap1\n      pop\n      jump\t// out\n        /* \"#utility.yul\":9670:9745   */\n    tag_127:\n        /* \"#utility.yul\":9713:9716   */\n      0x00\n        /* \"#utility.yul\":9734:9739   */\n      dup2\n        /* \"#utility.yul\":9727:9739   */\n      swap1\n      pop\n        /* \"#utility.yul\":9670:9745   */\n      swap2\n      swap1\n      pop\n      jump\t// out\n        /* \"#utility.yul\":9751:10020   */\n    tag_128:\n        /* \"#utility.yul\":9861:9900   */\n      tag_236\n        /* \"#utility.yul\":9892:9899   */\n      dup4\n        /* \"#utility.yul\":9861:9900   */\n      tag_126\n      jump\t// in\n    tag_236:\n        /* \"#utility.yul\":9922:10013   */\n      tag_237\n        /* \"#utility.yul\":9971:10012   */\n      tag_238\n        /* \"#utility.yul\":9995:10011   */\n      dup3\n        /* \"#utility.yul\":9971:10012   */\n      tag_127\n      jump\t// in\n    tag_238:\n        /* \"#utility.yul\":9963:9969   */\n      dup5\n        /* \"#utility.yul\":9956:9960   */\n      dup5\n        /* \"#utility.yul\":9950:9961   */\n      sload\n        /* \"#utility.yul\":9922:10013   */\n      tag_124\n      jump\t// in\n    tag_237:\n        /* \"#utility.yul\":9916:9920   */\n      dup3\n        /* \"#utility.yul\":9909:10014   */\n      sstore\n        /* \"#utility.yul\":9827:10020   */\n      pop\n        /* \"#utility.yul\":9751:10020   */\n      pop\n      pop\n      pop\n      jump\t// out\n        /* \"#utility.yul\":10026:10099   */\n    tag_129:\n        /* \"#utility.yul\":10071:10074   */\n      0x00\n        /* \"#utility.yul\":10026:10099   */\n      swap1\n      jump\t// out\n        /* \"#utility.yul\":10105:10294   */\n    tag_130:\n        /* \"#utility.yul\":10182:10214   */\n      tag_241\n      tag_129\n      jump\t// in\n    tag_241:\n        /* \"#utility.yul\":10223:10288   */\n      tag_242\n        /* \"#utility.yul\":10281:10287   */\n      dup2\n        /* \"#utility.yul\":10273:10279   */\n      dup5\n        /* \"#utility.yul\":10267:10271   */\n      dup5\n        /* \"#utility.yul\":10223:10288   */\n      tag_128\n      jump\t// in\n    tag_242:\n        /* \"#utility.yul\":10158:10294   */\n      pop\n        /* \"#utility.yul\":10105:10294   */\n      pop\n      pop\n      jump\t// out\n        /* \"#utility.yul\":10300:10486   */\n    tag_131:\n        /* \"#utility.yul\":10360:10480   */\n    tag_244:\n        /* \"#utility.yul\":10377:10380   */\n      dup2\n        /* \"#utility.yul\":10370:10375   */\n      dup2\n        /* \"#utility.yul\":10367:10381   */\n      lt\n        /* \"#utility.yul\":10360:10480   */\n      iszero\n      tag_246\n      jumpi\n        /* \"#utility.yul\":10431:10470   */\n      tag_247\n        /* \"#utility.yul\":10468:10469   */\n      0x00\n        /* \"#utility.yul\":10461:10466   */\n      dup3\n        /* \"#utility.yul\":10431:10470   */\n      tag_130\n      jump\t// in\n    tag_247:\n        /* \"#utility.yul\":10404:10405   */\n      0x01\n        /* \"#utility.yul\":10397:10402   */\n      dup2\n        /* \"#utility.yul\":10393:10406   */\n      add\n        /* \"#utility.yul\":10384:10406   */\n      swap1\n      pop\n        /* \"#utility.yul\":10360:10480   */\n      jump(tag_244)\n    tag_246:\n        /* \"#utility.yul\":10300:10486   */\n      pop\n      pop\n      jump\t// out\n        /* \"#utility.yul\":10492:11035   */\n    tag_132:\n        /* \"#utility.yul\":10593:10595   */\n      0x1f\n        /* \"#utility.yul\":10588:10591   */\n      dup3\n        /* \"#utility.yul\":10585:10596   */\n      gt\n        /* \"#utility.yul\":10582:11028   */\n      iszero\n      tag_249\n      jumpi\n        /* \"#utility.yul\":10627:10665   */\n      tag_250\n        /* \"#utility.yul\":10659:10664   */\n      dup2\n        /* \"#utility.yul\":10627:10665   */\n      tag_121\n      jump\t// in\n    tag_250:\n        /* \"#utility.yul\":10711:10740   */\n      tag_251\n        /* \"#utility.yul\":10729:10739   */\n      dup5\n        /* \"#utility.yul\":10711:10740   */\n      tag_122\n      jump\t// in\n    tag_251:\n        /* \"#utility.yul\":10701:10709   */\n      dup2\n        /* \"#utility.yul\":10697:10741   */\n      add\n        /* \"#utility.yul\":10894:10896   */\n      0x20\n        /* \"#utility.yul\":10882:10892   */\n      dup6\n        /* \"#utility.yul\":10879:10897   */\n      lt\n        /* \"#utility.yul\":10876:10925   */\n      iszero\n      tag_252\n      jumpi\n        /* \"#utility.yul\":10915:10923   */\n      dup2\n        /* \"#utility.yul\":10900:10923   */\n      swap1\n      pop\n        /* \"#utility.yul\":10876:10925   */\n    tag_252:\n        /* \"#utility.yul\":10938:11018   */\n      tag_253\n        /* \"#utility.yul\":10994:11016   */\n      tag_254\n        /* \"#utility.yul\":11012:11015   */\n      dup6\n        /* \"#utility.yul\":10994:11016   */\n      tag_122\n      jump\t// in\n    tag_254:\n        /* \"#utility.yul\":10984:10992   */\n      dup4\n        /* \"#utility.yul\":10980:11017   */\n      add\n        /* \"#utility.yul\":10967:10978   */\n      dup3\n        /* \"#utility.yul\":10938:11018   */\n      tag_131\n      jump\t// in\n    tag_253:\n        /* \"#utility.yul\":10597:11028   */\n      pop\n      pop\n        /* \"#utility.yul\":10582:11028   */\n    tag_249:\n        /* \"#utility.yul\":10492:11035   */\n      pop\n      pop\n      pop\n      jump\t// out\n        /* \"#utility.yul\":11041:11158   */\n    tag_133:\n        /* \"#utility.yul\":11095:11103   */\n      0x00\n        /* \"#utility.yul\":11145:11150   */\n      dup3\n        /* \"#utility.yul\":11139:11143   */\n      dup3\n        /* \"#utility.yul\":11135:11151   */\n      shr\n        /* \"#utility.yul\":11114:11151   */\n      swap1\n      pop\n        /* \"#utility.yul\":11041:11158   */\n      swap3\n      swap2\n      pop\n      pop\n      jump\t// out\n        /* \"#utility.yul\":11164:11333   */\n    tag_134:\n        /* \"#utility.yul\":11208:11214   */\n      0x00\n        /* \"#utility.yul\":11241:11292   */\n      tag_257\n        /* \"#utility.yul\":11289:11290   */\n      0x00\n        /* \"#utility.yul\":11285:11291   */\n      not\n        /* \"#utility.yul\":11277:11282   */\n      dup5\n        /* \"#utility.yul\":11274:11275   */\n      0x08\n        /* \"#utility.yul\":11270:11283   */\n      mul\n        /* \"#utility.yul\":11241:11292   */\n      tag_133\n      jump\t// in\n    tag_257:\n        /* \"#utility.yul\":11237:11293   */\n      not\n        /* \"#utility.yul\":11322:11326   */\n      dup1\n        /* \"#utility.yul\":11316:11320   */\n      dup4\n        /* \"#utility.yul\":11312:11327   */\n      and\n        /* \"#utility.yul\":11302:11327   */\n      swap2\n      pop\n        /* \"#utility.yul\":11215:11333   */\n      pop\n        /* \"#utility.yul\":11164:11333   */\n      swap3\n      swap2\n      pop\n      pop\n      jump\t// out\n        /* \"#utility.yul\":11338:11633   */\n    tag_135:\n        /* \"#utility.yul\":11414:11418   */\n      0x00\n        /* \"#utility.yul\":11560:11589   */\n      tag_259\n        /* \"#utility.yul\":11585:11588   */\n      dup4\n        /* \"#utility.yul\":11579:11583   */\n      dup4\n        /* \"#utility.yul\":11560:11589   */\n      tag_134\n      jump\t// in\n    tag_259:\n        /* \"#utility.yul\":11552:11589   */\n      swap2\n      pop\n        /* \"#utility.yul\":11622:11625   */\n      dup3\n        /* \"#utility.yul\":11619:11620   */\n      0x02\n        /* \"#utility.yul\":11615:11626   */\n      mul\n        /* \"#utility.yul\":11609:11613   */\n      dup3\n        /* \"#utility.yul\":11606:11627   */\n      or\n        /* \"#utility.yul\":11598:11627   */\n      swap1\n      pop\n        /* \"#utility.yul\":11338:11633   */\n      swap3\n      swap2\n      pop\n      pop\n      jump\t// out\n        /* \"#utility.yul\":11638:13033   */\n    tag_85:\n        /* \"#utility.yul\":11755:11792   */\n      tag_261\n        /* \"#utility.yul\":11788:11791   */\n      dup3\n        /* \"#utility.yul\":11755:11792   */\n      tag_95\n      jump\t// in\n    tag_261:\n        /* \"#utility.yul\":11857:11875   */\n      0xffffffffffffffff\n        /* \"#utility.yul\":11849:11855   */\n      dup2\n        /* \"#utility.yul\":11846:11876   */\n      gt\n        /* \"#utility.yul\":11843:11899   */\n      iszero\n      tag_262\n      jumpi\n        /* \"#utility.yul\":11879:11897   */\n      tag_263\n      tag_111\n      jump\t// in\n    tag_263:\n        /* \"#utility.yul\":11843:11899   */\n    tag_262:\n        /* \"#utility.yul\":11923:11961   */\n      tag_264\n        /* \"#utility.yul\":11955:11959   */\n      dup3\n        /* \"#utility.yul\":11949:11960   */\n      sload\n        /* \"#utility.yul\":11923:11961   */\n      tag_38\n      jump\t// in\n    tag_264:\n        /* \"#utility.yul\":12008:12075   */\n      tag_265\n        /* \"#utility.yul\":12068:12074   */\n      dup3\n        /* \"#utility.yul\":12060:12066   */\n      dup3\n        /* \"#utility.yul\":12054:12058   */\n      dup6\n        /* \"#utility.yul\":12008:12075   */\n      tag_132\n      jump\t// in\n    tag_265:\n        /* \"#utility.yul\":12102:12103   */\n      0x00\n        /* \"#utility.yul\":12126:12130   */\n      0x20\n        /* \"#utility.yul\":12113:12130   */\n      swap1\n      pop\n        /* \"#utility.yul\":12158:12160   */\n      0x1f\n        /* \"#utility.yul\":12150:12156   */\n      dup4\n        /* \"#utility.yul\":12147:12161   */\n      gt\n        /* \"#utility.yul\":12175:12176   */\n      0x01\n        /* \"#utility.yul\":12170:12788   */\n      dup2\n      eq\n      tag_267\n      jumpi\n        /* \"#utility.yul\":12832:12833   */\n      0x00\n        /* \"#utility.yul\":12849:12855   */\n      dup5\n        /* \"#utility.yul\":12846:12923   */\n      iszero\n      tag_268\n      jumpi\n        /* \"#utility.yul\":12898:12907   */\n      dup3\n        /* \"#utility.yul\":12893:12896   */\n      dup8\n        /* \"#utility.yul\":12889:12908   */\n      add\n        /* \"#utility.yul\":12883:12909   */\n      mload\n        /* \"#utility.yul\":12874:12909   */\n      swap1\n      pop\n        /* \"#utility.yul\":12846:12923   */\n    tag_268:\n        /* \"#utility.yul\":12949:13016   */\n      tag_269\n        /* \"#utility.yul\":13009:13015   */\n      dup6\n        /* \"#utility.yul\":13002:13007   */\n      dup3\n        /* \"#utility.yul\":12949:13016   */\n      tag_135\n      jump\t// in\n    tag_269:\n        /* \"#utility.yul\":12943:12947   */\n      dup7\n        /* \"#utility.yul\":12936:13017   */\n      sstore\n        /* \"#utility.yul\":12805:13027   */\n      pop\n        /* \"#utility.yul\":12140:13027   */\n      jump(tag_266)\n        /* \"#utility.yul\":12170:12788   */\n    tag_267:\n        /* \"#utility.yul\":12222:12226   */\n      0x1f\n        /* \"#utility.yul\":12218:12227   */\n      not\n        /* \"#utility.yul\":12210:12216   */\n      dup5\n        /* \"#utility.yul\":12206:12228   */\n      and\n        /* \"#utility.yul\":12256:12293   */\n      tag_270\n        /* \"#utility.yul\":12288:12292   */\n      dup7\n        /* \"#utility.yul\":12256:12293   */\n      tag_121\n      jump\t// in\n    tag_270:\n        /* \"#utility.yul\":12315:12316   */\n      0x00\n        /* \"#utility.yul\":12329:12537   */\n    tag_271:\n        /* \"#utility.yul\":12343:12350   */\n      dup3\n        /* \"#utility.yul\":12340:12341   */\n      dup2\n        /* \"#utility.yul\":12337:12351   */\n      lt\n        /* \"#utility.yul\":12329:12537   */\n      iszero\n      tag_273\n      jumpi\n        /* \"#utility.yul\":12422:12431   */\n      dup5\n        /* \"#utility.yul\":12417:12420   */\n      dup10\n        /* \"#utility.yul\":12413:12432   */\n      add\n        /* \"#utility.yul\":12407:12433   */\n      mload\n        /* \"#utility.yul\":12399:12405   */\n      dup3\n        /* \"#utility.yul\":12392:12434   */\n      sstore\n        /* \"#utility.yul\":12473:12474   */\n      0x01\n        /* \"#utility.yul\":12465:12471   */\n      dup3\n        /* \"#utility.yul\":12461:12475   */\n      add\n        /* \"#utility.yul\":12451:12475   */\n      swap2\n      pop\n        /* \"#utility.yul\":12520:12522   */\n      0x20\n        /* \"#utility.yul\":12509:12518   */\n      dup6\n        /* \"#utility.yul\":12505:12523   */\n      add\n        /* \"#utility.yul\":12492:12523   */\n      swap5\n      pop\n        /* \"#utility.yul\":12366:12370   */\n      0x20\n        /* \"#utility.yul\":12363:12364   */\n      dup2\n        /* \"#utility.yul\":12359:12371   */\n      add\n        /* \"#utility.yul\":12354:12371   */\n      swap1\n      pop\n        /* \"#utility.yul\":12329:12537   */\n      jump(tag_271)\n    tag_273:\n        /* \"#utility.yul\":12565:12571   */\n      dup7\n        /* \"#utility.yul\":12556:12563   */\n      dup4\n        /* \"#utility.yul\":12553:12572   */\n      lt\n        /* \"#utility.yul\":12550:12729   */\n      iszero\n      tag_274\n      jumpi\n        /* \"#utility.yul\":12623:12632   */\n      dup5\n        /* \"#utility.yul\":12618:12621   */\n      dup10\n        /* \"#utility.yul\":12614:12633   */\n      add\n        /* \"#utility.yul\":12608:12634   */\n      mload\n        /* \"#utility.yul\":12666:12714   */\n      tag_275\n        /* \"#utility.yul\":12708:12712   */\n      0x1f\n        /* \"#utility.yul\":12700:12706   */\n      dup10\n        /* \"#utility.yul\":12696:12713   */\n      and\n        /* \"#utility.yul\":12685:12694   */\n      dup3\n        /* \"#utility.yul\":12666:12714   */\n      tag_134\n      jump\t// in\n    tag_275:\n        /* \"#utility.yul\":12658:12664   */\n      dup4\n        /* \"#utility.yul\":12651:12715   */\n      sstore\n        /* \"#utility.yul\":12573:12729   */\n      pop\n        /* \"#utility.yul\":12550:12729   */\n    tag_274:\n        /* \"#utility.yul\":12775:12776   */\n      0x01\n        /* \"#utility.yul\":12771:12772   */\n      0x02\n        /* \"#utility.yul\":12763:12769   */\n      dup9\n        /* \"#utility.yul\":12759:12773   */\n      mul\n        /* \"#utility.yul\":12755:12777   */\n      add\n        /* \"#utility.yul\":12749:12753   */\n      dup9\n        /* \"#utility.yul\":12742:12778   */\n      sstore\n        /* \"#utility.yul\":12177:12788   */\n      pop\n      pop\n      pop\n        /* \"#utility.yul\":12140:13027   */\n    tag_266:\n      pop\n        /* \"#utility.yul\":11730:13033   */\n      pop\n      pop\n      pop\n        /* \"#utility.yul\":11638:13033   */\n      pop\n      pop\n      jump\t// out\n\n    auxdata: 0xa264697066735822122086b8954483d382745aa6e1971de09c3a80928283ec2d8a29f9b65184448e5ee864736f6c634300081a0033\n}\n",
				"bytecode": {
					"linkReferences": {},
					"object": "608060405260405180606001604052806040518060400160405280600481526020017f706c6f79000000000000000000000000000000000000000000000000000000008152508152602001601981526020016040518060400160405280600681526020017f61727469737400000000000000000000000000000000000000000000000000008152508152505f80820151815f01908161009e919061030c565b506020820151816001015560408201518160020190816100be919061030c565b5050503480156100cc575f80fd5b506103db565b5f81519050919050565b7f4e487b71000000000000000000000000000000000000000000000000000000005f52604160045260245ffd5b7f4e487b71000000000000000000000000000000000000000000000000000000005f52602260045260245ffd5b5f600282049050600182168061014d57607f821691505b6020821081036101605761015f610109565b5b50919050565b5f819050815f5260205f209050919050565b5f6020601f8301049050919050565b5f82821b905092915050565b5f600883026101c27fffffffffffffffffffffffffffffffffffffffffffffffffffffffffffffffff82610187565b6101cc8683610187565b95508019841693508086168417925050509392505050565b5f819050919050565b5f819050919050565b5f61021061020b610206846101e4565b6101ed565b6101e4565b9050919050565b5f819050919050565b610229836101f6565b61023d61023582610217565b848454610193565b825550505050565b5f90565b610251610245565b61025c818484610220565b505050565b5b8181101561027f576102745f82610249565b600181019050610262565b5050565b601f8211156102c45761029581610166565b61029e84610178565b810160208510156102ad578190505b6102c16102b985610178565b830182610261565b50505b505050565b5f82821c905092915050565b5f6102e45f19846008026102c9565b1980831691505092915050565b5f6102fc83836102d5565b9150826002028217905092915050565b610315826100d2565b67ffffffffffffffff81111561032e5761032d6100dc565b5b6103388254610136565b610343828285610283565b5f60209050601f831160018114610374575f8415610362578287015190505b61036c85826102f1565b8655506103d3565b601f19841661038286610166565b5f5b828110156103a957848901518255600182019150602085019450602081019050610384565b868310156103c657848901516103c2601f8916826102d5565b8355505b6001600288020188555050505b505050505050565b610e25806103e85f395ff3fe608060405234801561000f575f80fd5b506004361061007b575f3560e01c8063ae5e117011610059578063ae5e1170146100db578063af2dd4d4146100fb578063ddd6016c14610117578063fbaf88e9146101335761007b565b8063396466b71461007f578063427156f31461009f57806380766de7146100bd575b5f80fd5b610087610151565b604051610096939291906107c2565b60405180910390f35b6100a7610274565b6040516100b491906108b0565b60405180910390f35b6100c56103b6565b6040516100d291906108b0565b60405180910390f35b6100e36104f9565b6040516100f2939291906107c2565b60405180910390f35b61011560048036038101906101109190610a37565b61061b565b005b610131600480360381019061012c9190610abf565b610674565b005b61013b610689565b6040516101489190610b06565b60405180910390f35b6003805f01805461016190610b53565b80601f016020809104026020016040519081016040528092919081815260200182805461018d90610b53565b80156101d85780601f106101af576101008083540402835291602001916101d8565b820191905f5260205f20905b8154815290600101906020018083116101bb57829003601f168201915b5050505050908060010154908060020180546101f390610b53565b80601f016020809104026020016040519081016040528092919081815260200182805461021f90610b53565b801561026a5780601f106102415761010080835404028352916020019161026a565b820191905f5260205f20905b81548152906001019060200180831161024d57829003601f168201915b5050505050905083565b61027c61071a565b5f6040518060600160405290815f8201805461029790610b53565b80601f01602080910402602001604051908101604052809291908181526020018280546102c390610b53565b801561030e5780601f106102e55761010080835404028352916020019161030e565b820191905f5260205f20905b8154815290600101906020018083116102f157829003601f168201915b505050505081526020016001820154815260200160028201805461033190610b53565b80601f016020809104026020016040519081016040528092919081815260200182805461035d90610b53565b80156103a85780601f1061037f576101008083540402835291602001916103a8565b820191905f5260205f20905b81548152906001019060200180831161038b57829003601f168201915b505050505081525050905090565b6103be61071a565b60036040518060600160405290815f820180546103da90610b53565b80601f016020809104026020016040519081016040528092919081815260200182805461040690610b53565b80156104515780601f1061042857610100808354040283529160200191610451565b820191905f5260205f20905b81548152906001019060200180831161043457829003601f168201915b505050505081526020016001820154815260200160028201805461047490610b53565b80601f01602080910402602001604051908101604052809291908181526020018280546104a090610b53565b80156104eb5780601f106104c2576101008083540402835291602001916104eb565b820191905f5260205f20905b8154815290600101906020018083116104ce57829003601f168201915b505050505081525050905090565b5f805f01805461050890610b53565b80601f016020809104026020016040519081016040528092919081815260200182805461053490610b53565b801561057f5780601f106105565761010080835404028352916020019161057f565b820191905f5260205f20905b81548152906001019060200180831161056257829003601f168201915b50505050509080600101549080600201805461059a90610b53565b80601f01602080910402602001604051908101604052809291908181526020018280546105c690610b53565b80156106115780601f106105e857610100808354040283529160200191610611565b820191905f5260205f20905b8154815290600101906020018083116105f457829003601f168201915b5050505050905083565b60405180606001604052808481526020018381526020018281525060035f820151815f01908161064b9190610d20565b5060208201518160010155604082015181600201908161066b9190610d20565b50905050505050565b805f60020190816106859190610d20565b5050565b60605f8001805461069990610b53565b80601f01602080910402602001604051908101604052809291908181526020018280546106c590610b53565b80156107105780601f106106e757610100808354040283529160200191610710565b820191905f5260205f20905b8154815290600101906020018083116106f357829003601f168201915b5050505050905090565b6040518060600160405280606081526020015f8152602001606081525090565b5f81519050919050565b5f82825260208201905092915050565b8281835e5f83830152505050565b5f601f19601f8301169050919050565b5f61077c8261073a565b6107868185610744565b9350610796818560208601610754565b61079f81610762565b840191505092915050565b5f819050919050565b6107bc816107aa565b82525050565b5f6060820190508181035f8301526107da8186610772565b90506107e960208301856107b3565b81810360408301526107fb8184610772565b9050949350505050565b5f82825260208201905092915050565b5f61081f8261073a565b6108298185610805565b9350610839818560208601610754565b61084281610762565b840191505092915050565b610856816107aa565b82525050565b5f606083015f8301518482035f8601526108768282610815565b915050602083015161088b602086018261084d565b50604083015184820360408601526108a38282610815565b9150508091505092915050565b5f6020820190508181035f8301526108c8818461085c565b905092915050565b5f604051905090565b5f80fd5b5f80fd5b5f80fd5b5f80fd5b7f4e487b71000000000000000000000000000000000000000000000000000000005f52604160045260245ffd5b61091f82610762565b810181811067ffffffffffffffff8211171561093e5761093d6108e9565b5b80604052505050565b5f6109506108d0565b905061095c8282610916565b919050565b5f67ffffffffffffffff82111561097b5761097a6108e9565b5b61098482610762565b9050602081019050919050565b828183375f83830152505050565b5f6109b16109ac84610961565b610947565b9050828152602081018484840111156109cd576109cc6108e5565b5b6109d8848285610991565b509392505050565b5f82601f8301126109f4576109f36108e1565b5b8135610a0484826020860161099f565b91505092915050565b610a16816107aa565b8114610a20575f80fd5b50565b5f81359050610a3181610a0d565b92915050565b5f805f60608486031215610a4e57610a4d6108d9565b5b5f84013567ffffffffffffffff811115610a6b57610a6a6108dd565b5b610a77868287016109e0565b9350506020610a8886828701610a23565b925050604084013567ffffffffffffffff811115610aa957610aa86108dd565b5b610ab5868287016109e0565b9150509250925092565b5f60208284031215610ad457610ad36108d9565b5b5f82013567ffffffffffffffff811115610af157610af06108dd565b5b610afd848285016109e0565b91505092915050565b5f6020820190508181035f830152610b1e8184610772565b905092915050565b7f4e487b71000000000000000000000000000000000000000000000000000000005f52602260045260245ffd5b5f6002820490506001821680610b6a57607f821691505b602082108103610b7d57610b7c610b26565b5b50919050565b5f819050815f5260205f209050919050565b5f6020601f8301049050919050565b5f82821b905092915050565b5f60088302610bdf7fffffffffffffffffffffffffffffffffffffffffffffffffffffffffffffffff82610ba4565b610be98683610ba4565b95508019841693508086168417925050509392505050565b5f819050919050565b5f610c24610c1f610c1a846107aa565b610c01565b6107aa565b9050919050565b5f819050919050565b610c3d83610c0a565b610c51610c4982610c2b565b848454610bb0565b825550505050565b5f90565b610c65610c59565b610c70818484610c34565b505050565b5b81811015610c9357610c885f82610c5d565b600181019050610c76565b5050565b601f821115610cd857610ca981610b83565b610cb284610b95565b81016020851015610cc1578190505b610cd5610ccd85610b95565b830182610c75565b50505b505050565b5f82821c905092915050565b5f610cf85f1984600802610cdd565b1980831691505092915050565b5f610d108383610ce9565b9150826002028217905092915050565b610d298261073a565b67ffffffffffffffff811115610d4257610d416108e9565b5b610d4c8254610b53565b610d57828285610c97565b5f60209050601f831160018114610d88575f8415610d76578287015190505b610d808582610d05565b865550610de7565b601f198416610d9686610b83565b5f5b82811015610dbd57848901518255600182019150602085019450602081019050610d98565b86831015610dda5784890151610dd6601f891682610ce9565b8355505b6001600288020188555050505b50505050505056fea264697066735822122086b8954483d382745aa6e1971de09c3a80928283ec2d8a29f9b65184448e5ee864736f6c634300081a0033",
					"opcodes": "PUSH1 0x80 PUSH1 0x40 MSTORE PUSH1 0x40 MLOAD DUP1 PUSH1 0x60 ADD PUSH1 0x40 MSTORE DUP1 PUSH1 0x40 MLOAD DUP1 PUSH1 0x40 ADD PUSH1 0x40 MSTORE DUP1 PUSH1 0x4 DUP2 MSTORE PUSH1 0x20 ADD PUSH32 0x706C6F7900000000000000000000000000000000000000000000000000000000 DUP2 MSTORE POP DUP2 MSTORE PUSH1 0x20 ADD PUSH1 0x19 DUP2 MSTORE PUSH1 0x20 ADD PUSH1 0x40 MLOAD DUP1 PUSH1 0x40 ADD PUSH1 0x40 MSTORE DUP1 PUSH1 0x6 DUP2 MSTORE PUSH1 0x20 ADD PUSH32 0x6172746973740000000000000000000000000000000000000000000000000000 DUP2 MSTORE POP DUP2 MSTORE POP PUSH0 DUP1 DUP3 ADD MLOAD DUP2 PUSH0 ADD SWAP1 DUP2 PUSH2 0x9E SWAP2 SWAP1 PUSH2 0x30C JUMP JUMPDEST POP PUSH1 0x20 DUP3 ADD MLOAD DUP2 PUSH1 0x1 ADD SSTORE PUSH1 0x40 DUP3 ADD MLOAD DUP2 PUSH1 0x2 ADD SWAP1 DUP2 PUSH2 0xBE SWAP2 SWAP1 PUSH2 0x30C JUMP JUMPDEST POP POP POP CALLVALUE DUP1 ISZERO PUSH2 0xCC JUMPI PUSH0 DUP1 REVERT JUMPDEST POP PUSH2 0x3DB JUMP JUMPDEST PUSH0 DUP2 MLOAD SWAP1 POP SWAP2 SWAP1 POP JUMP JUMPDEST PUSH32 0x4E487B7100000000000000000000000000000000000000000000000000000000 PUSH0 MSTORE PUSH1 0x41 PUSH1 0x4 MSTORE PUSH1 0x24 PUSH0 REVERT JUMPDEST PUSH32 0x4E487B7100000000000000000000000000000000000000000000000000000000 PUSH0 MSTORE PUSH1 0x22 PUSH1 0x4 MSTORE PUSH1 0x24 PUSH0 REVERT JUMPDEST PUSH0 PUSH1 0x2 DUP3 DIV SWAP1 POP PUSH1 0x1 DUP3 AND DUP1 PUSH2 0x14D JUMPI PUSH1 0x7F DUP3 AND SWAP2 POP JUMPDEST PUSH1 0x20 DUP3 LT DUP2 SUB PUSH2 0x160 JUMPI PUSH2 0x15F PUSH2 0x109 JUMP JUMPDEST JUMPDEST POP SWAP2 SWAP1 POP JUMP JUMPDEST PUSH0 DUP2 SWAP1 POP DUP2 PUSH0 MSTORE PUSH1 0x20 PUSH0 KECCAK256 SWAP1 POP SWAP2 SWAP1 POP JUMP JUMPDEST PUSH0 PUSH1 0x20 PUSH1 0x1F DUP4 ADD DIV SWAP1 POP SWAP2 SWAP1 POP JUMP JUMPDEST PUSH0 DUP3 DUP3 SHL SWAP1 POP SWAP3 SWAP2 POP POP JUMP JUMPDEST PUSH0 PUSH1 0x8 DUP4 MUL PUSH2 0x1C2 PUSH32 0xFFFFFFFFFFFFFFFFFFFFFFFFFFFFFFFFFFFFFFFFFFFFFFFFFFFFFFFFFFFFFFFF DUP3 PUSH2 0x187 JUMP JUMPDEST PUSH2 0x1CC DUP7 DUP4 PUSH2 0x187 JUMP JUMPDEST SWAP6 POP DUP1 NOT DUP5 AND SWAP4 POP DUP1 DUP7 AND DUP5 OR SWAP3 POP POP POP SWAP4 SWAP3 POP POP POP JUMP JUMPDEST PUSH0 DUP2 SWAP1 POP SWAP2 SWAP1 POP JUMP JUMPDEST PUSH0 DUP2 SWAP1 POP SWAP2 SWAP1 POP JUMP JUMPDEST PUSH0 PUSH2 0x210 PUSH2 0x20B PUSH2 0x206 DUP5 PUSH2 0x1E4 JUMP JUMPDEST PUSH2 0x1ED JUMP JUMPDEST PUSH2 0x1E4 JUMP JUMPDEST SWAP1 POP SWAP2 SWAP1 POP JUMP JUMPDEST PUSH0 DUP2 SWAP1 POP SWAP2 SWAP1 POP JUMP JUMPDEST PUSH2 0x229 DUP4 PUSH2 0x1F6 JUMP JUMPDEST PUSH2 0x23D PUSH2 0x235 DUP3 PUSH2 0x217 JUMP JUMPDEST DUP5 DUP5 SLOAD PUSH2 0x193 JUMP JUMPDEST DUP3 SSTORE POP POP POP POP JUMP JUMPDEST PUSH0 SWAP1 JUMP JUMPDEST PUSH2 0x251 PUSH2 0x245 JUMP JUMPDEST PUSH2 0x25C DUP2 DUP5 DUP5 PUSH2 0x220 JUMP JUMPDEST POP POP POP JUMP JUMPDEST JUMPDEST DUP2 DUP2 LT ISZERO PUSH2 0x27F JUMPI PUSH2 0x274 PUSH0 DUP3 PUSH2 0x249 JUMP JUMPDEST PUSH1 0x1 DUP2 ADD SWAP1 POP PUSH2 0x262 JUMP JUMPDEST POP POP JUMP JUMPDEST PUSH1 0x1F DUP3 GT ISZERO PUSH2 0x2C4 JUMPI PUSH2 0x295 DUP2 PUSH2 0x166 JUMP JUMPDEST PUSH2 0x29E DUP5 PUSH2 0x178 JUMP JUMPDEST DUP2 ADD PUSH1 0x20 DUP6 LT ISZERO PUSH2 0x2AD JUMPI DUP2 SWAP1 POP JUMPDEST PUSH2 0x2C1 PUSH2 0x2B9 DUP6 PUSH2 0x178 JUMP JUMPDEST DUP4 ADD DUP3 PUSH2 0x261 JUMP JUMPDEST POP POP JUMPDEST POP POP POP JUMP JUMPDEST PUSH0 DUP3 DUP3 SHR SWAP1 POP SWAP3 SWAP2 POP POP JUMP JUMPDEST PUSH0 PUSH2 0x2E4 PUSH0 NOT DUP5 PUSH1 0x8 MUL PUSH2 0x2C9 JUMP JUMPDEST NOT DUP1 DUP4 AND SWAP2 POP POP SWAP3 SWAP2 POP POP JUMP JUMPDEST PUSH0 PUSH2 0x2FC DUP4 DUP4 PUSH2 0x2D5 JUMP JUMPDEST SWAP2 POP DUP3 PUSH1 0x2 MUL DUP3 OR SWAP1 POP SWAP3 SWAP2 POP POP JUMP JUMPDEST PUSH2 0x315 DUP3 PUSH2 0xD2 JUMP JUMPDEST PUSH8 0xFFFFFFFFFFFFFFFF DUP2 GT ISZERO PUSH2 0x32E JUMPI PUSH2 0x32D PUSH2 0xDC JUMP JUMPDEST JUMPDEST PUSH2 0x338 DUP3 SLOAD PUSH2 0x136 JUMP JUMPDEST PUSH2 0x343 DUP3 DUP3 DUP6 PUSH2 0x283 JUMP JUMPDEST PUSH0 PUSH1 0x20 SWAP1 POP PUSH1 0x1F DUP4 GT PUSH1 0x1 DUP2 EQ PUSH2 0x374 JUMPI PUSH0 DUP5 ISZERO PUSH2 0x362 JUMPI DUP3 DUP8 ADD MLOAD SWAP1 POP JUMPDEST PUSH2 0x36C DUP6 DUP3 PUSH2 0x2F1 JUMP JUMPDEST DUP7 SSTORE POP PUSH2 0x3D3 JUMP JUMPDEST PUSH1 0x1F NOT DUP5 AND PUSH2 0x382 DUP7 PUSH2 0x166 JUMP JUMPDEST PUSH0 JUMPDEST DUP3 DUP2 LT ISZERO PUSH2 0x3A9 JUMPI DUP5 DUP10 ADD MLOAD DUP3 SSTORE PUSH1 0x1 DUP3 ADD SWAP2 POP PUSH1 0x20 DUP6 ADD SWAP5 POP PUSH1 0x20 DUP2 ADD SWAP1 POP PUSH2 0x384 JUMP JUMPDEST DUP7 DUP4 LT ISZERO PUSH2 0x3C6 JUMPI DUP5 DUP10 ADD MLOAD PUSH2 0x3C2 PUSH1 0x1F DUP10 AND DUP3 PUSH2 0x2D5 JUMP JUMPDEST DUP4 SSTORE POP JUMPDEST PUSH1 0x1 PUSH1 0x2 DUP9 MUL ADD DUP9 SSTORE POP POP POP JUMPDEST POP POP POP POP POP POP JUMP JUMPDEST PUSH2 0xE25 DUP1 PUSH2 0x3E8 PUSH0 CODECOPY PUSH0 RETURN INVALID PUSH1 0x80 PUSH1 0x40 MSTORE CALLVALUE DUP1 ISZERO PUSH2 0xF JUMPI PUSH0 DUP1 REVERT JUMPDEST POP PUSH1 0x4 CALLDATASIZE LT PUSH2 0x7B JUMPI PUSH0 CALLDATALOAD PUSH1 0xE0 SHR DUP1 PUSH4 0xAE5E1170 GT PUSH2 0x59 JUMPI DUP1 PUSH4 0xAE5E1170 EQ PUSH2 0xDB JUMPI DUP1 PUSH4 0xAF2DD4D4 EQ PUSH2 0xFB JUMPI DUP1 PUSH4 0xDDD6016C EQ PUSH2 0x117 JUMPI DUP1 PUSH4 0xFBAF88E9 EQ PUSH2 0x133 JUMPI PUSH2 0x7B JUMP JUMPDEST DUP1 PUSH4 0x396466B7 EQ PUSH2 0x7F JUMPI DUP1 PUSH4 0x427156F3 EQ PUSH2 0x9F JUMPI DUP1 PUSH4 0x80766DE7 EQ PUSH2 0xBD JUMPI JUMPDEST PUSH0 DUP1 REVERT JUMPDEST PUSH2 0x87 PUSH2 0x151 JUMP JUMPDEST PUSH1 0x40 MLOAD PUSH2 0x96 SWAP4 SWAP3 SWAP2 SWAP1 PUSH2 0x7C2 JUMP JUMPDEST PUSH1 0x40 MLOAD DUP1 SWAP2 SUB SWAP1 RETURN JUMPDEST PUSH2 0xA7 PUSH2 0x274 JUMP JUMPDEST PUSH1 0x40 MLOAD PUSH2 0xB4 SWAP2 SWAP1 PUSH2 0x8B0 JUMP JUMPDEST PUSH1 0x40 MLOAD DUP1 SWAP2 SUB SWAP1 RETURN JUMPDEST PUSH2 0xC5 PUSH2 0x3B6 JUMP JUMPDEST PUSH1 0x40 MLOAD PUSH2 0xD2 SWAP2 SWAP1 PUSH2 0x8B0 JUMP JUMPDEST PUSH1 0x40 MLOAD DUP1 SWAP2 SUB SWAP1 RETURN JUMPDEST PUSH2 0xE3 PUSH2 0x4F9 JUMP JUMPDEST PUSH1 0x40 MLOAD PUSH2 0xF2 SWAP4 SWAP3 SWAP2 SWAP1 PUSH2 0x7C2 JUMP JUMPDEST PUSH1 0x40 MLOAD DUP1 SWAP2 SUB SWAP1 RETURN JUMPDEST PUSH2 0x115 PUSH1 0x4 DUP1 CALLDATASIZE SUB DUP2 ADD SWAP1 PUSH2 0x110 SWAP2 SWAP1 PUSH2 0xA37 JUMP JUMPDEST PUSH2 0x61B JUMP JUMPDEST STOP JUMPDEST PUSH2 0x131 PUSH1 0x4 DUP1 CALLDATASIZE SUB DUP2 ADD SWAP1 PUSH2 0x12C SWAP2 SWAP1 PUSH2 0xABF JUMP JUMPDEST PUSH2 0x674 JUMP JUMPDEST STOP JUMPDEST PUSH2 0x13B PUSH2 0x689 JUMP JUMPDEST PUSH1 0x40 MLOAD PUSH2 0x148 SWAP2 SWAP1 PUSH2 0xB06 JUMP JUMPDEST PUSH1 0x40 MLOAD DUP1 SWAP2 SUB SWAP1 RETURN JUMPDEST PUSH1 0x3 DUP1 PUSH0 ADD DUP1 SLOAD PUSH2 0x161 SWAP1 PUSH2 0xB53 JUMP JUMPDEST DUP1 PUSH1 0x1F ADD PUSH1 0x20 DUP1 SWAP2 DIV MUL PUSH1 0x20 ADD PUSH1 0x40 MLOAD SWAP1 DUP2 ADD PUSH1 0x40 MSTORE DUP1 SWAP3 SWAP2 SWAP1 DUP2 DUP2 MSTORE PUSH1 0x20 ADD DUP3 DUP1 SLOAD PUSH2 0x18D SWAP1 PUSH2 0xB53 JUMP JUMPDEST DUP1 ISZERO PUSH2 0x1D8 JUMPI DUP1 PUSH1 0x1F LT PUSH2 0x1AF JUMPI PUSH2 0x100 DUP1 DUP4 SLOAD DIV MUL DUP4 MSTORE SWAP2 PUSH1 0x20 ADD SWAP2 PUSH2 0x1D8 JUMP JUMPDEST DUP3 ADD SWAP2 SWAP1 PUSH0 MSTORE PUSH1 0x20 PUSH0 KECCAK256 SWAP1 JUMPDEST DUP2 SLOAD DUP2 MSTORE SWAP1 PUSH1 0x1 ADD SWAP1 PUSH1 0x20 ADD DUP1 DUP4 GT PUSH2 0x1BB JUMPI DUP3 SWAP1 SUB PUSH1 0x1F AND DUP3 ADD SWAP2 JUMPDEST POP POP POP POP POP SWAP1 DUP1 PUSH1 0x1 ADD SLOAD SWAP1 DUP1 PUSH1 0x2 ADD DUP1 SLOAD PUSH2 0x1F3 SWAP1 PUSH2 0xB53 JUMP JUMPDEST DUP1 PUSH1 0x1F ADD PUSH1 0x20 DUP1 SWAP2 DIV MUL PUSH1 0x20 ADD PUSH1 0x40 MLOAD SWAP1 DUP2 ADD PUSH1 0x40 MSTORE DUP1 SWAP3 SWAP2 SWAP1 DUP2 DUP2 MSTORE PUSH1 0x20 ADD DUP3 DUP1 SLOAD PUSH2 0x21F SWAP1 PUSH2 0xB53 JUMP JUMPDEST DUP1 ISZERO PUSH2 0x26A JUMPI DUP1 PUSH1 0x1F LT PUSH2 0x241 JUMPI PUSH2 0x100 DUP1 DUP4 SLOAD DIV MUL DUP4 MSTORE SWAP2 PUSH1 0x20 ADD SWAP2 PUSH2 0x26A JUMP JUMPDEST DUP3 ADD SWAP2 SWAP1 PUSH0 MSTORE PUSH1 0x20 PUSH0 KECCAK256 SWAP1 JUMPDEST DUP2 SLOAD DUP2 MSTORE SWAP1 PUSH1 0x1 ADD SWAP1 PUSH1 0x20 ADD DUP1 DUP4 GT PUSH2 0x24D JUMPI DUP3 SWAP1 SUB PUSH1 0x1F AND DUP3 ADD SWAP2 JUMPDEST POP POP POP POP POP SWAP1 POP DUP4 JUMP JUMPDEST PUSH2 0x27C PUSH2 0x71A JUMP JUMPDEST PUSH0 PUSH1 0x40 MLOAD DUP1 PUSH1 0x60 ADD PUSH1 0x40 MSTORE SWAP1 DUP2 PUSH0 DUP3 ADD DUP1 SLOAD PUSH2 0x297 SWAP1 PUSH2 0xB53 JUMP JUMPDEST DUP1 PUSH1 0x1F ADD PUSH1 0x20 DUP1 SWAP2 DIV MUL PUSH1 0x20 ADD PUSH1 0x40 MLOAD SWAP1 DUP2 ADD PUSH1 0x40 MSTORE DUP1 SWAP3 SWAP2 SWAP1 DUP2 DUP2 MSTORE PUSH1 0x20 ADD DUP3 DUP1 SLOAD PUSH2 0x2C3 SWAP1 PUSH2 0xB53 JUMP JUMPDEST DUP1 ISZERO PUSH2 0x30E JUMPI DUP1 PUSH1 0x1F LT PUSH2 0x2E5 JUMPI PUSH2 0x100 DUP1 DUP4 SLOAD DIV MUL DUP4 MSTORE SWAP2 PUSH1 0x20 ADD SWAP2 PUSH2 0x30E JUMP JUMPDEST DUP3 ADD SWAP2 SWAP1 PUSH0 MSTORE PUSH1 0x20 PUSH0 KECCAK256 SWAP1 JUMPDEST DUP2 SLOAD DUP2 MSTORE SWAP1 PUSH1 0x1 ADD SWAP1 PUSH1 0x20 ADD DUP1 DUP4 GT PUSH2 0x2F1 JUMPI DUP3 SWAP1 SUB PUSH1 0x1F AND DUP3 ADD SWAP2 JUMPDEST POP POP POP POP POP DUP2 MSTORE PUSH1 0x20 ADD PUSH1 0x1 DUP3 ADD SLOAD DUP2 MSTORE PUSH1 0x20 ADD PUSH1 0x2 DUP3 ADD DUP1 SLOAD PUSH2 0x331 SWAP1 PUSH2 0xB53 JUMP JUMPDEST DUP1 PUSH1 0x1F ADD PUSH1 0x20 DUP1 SWAP2 DIV MUL PUSH1 0x20 ADD PUSH1 0x40 MLOAD SWAP1 DUP2 ADD PUSH1 0x40 MSTORE DUP1 SWAP3 SWAP2 SWAP1 DUP2 DUP2 MSTORE PUSH1 0x20 ADD DUP3 DUP1 SLOAD PUSH2 0x35D SWAP1 PUSH2 0xB53 JUMP JUMPDEST DUP1 ISZERO PUSH2 0x3A8 JUMPI DUP1 PUSH1 0x1F LT PUSH2 0x37F JUMPI PUSH2 0x100 DUP1 DUP4 SLOAD DIV MUL DUP4 MSTORE SWAP2 PUSH1 0x20 ADD SWAP2 PUSH2 0x3A8 JUMP JUMPDEST DUP3 ADD SWAP2 SWAP1 PUSH0 MSTORE PUSH1 0x20 PUSH0 KECCAK256 SWAP1 JUMPDEST DUP2 SLOAD DUP2 MSTORE SWAP1 PUSH1 0x1 ADD SWAP1 PUSH1 0x20 ADD DUP1 DUP4 GT PUSH2 0x38B JUMPI DUP3 SWAP1 SUB PUSH1 0x1F AND DUP3 ADD SWAP2 JUMPDEST POP POP POP POP POP DUP2 MSTORE POP POP SWAP1 POP SWAP1 JUMP JUMPDEST PUSH2 0x3BE PUSH2 0x71A JUMP JUMPDEST PUSH1 0x3 PUSH1 0x40 MLOAD DUP1 PUSH1 0x60 ADD PUSH1 0x40 MSTORE SWAP1 DUP2 PUSH0 DUP3 ADD DUP1 SLOAD PUSH2 0x3DA SWAP1 PUSH2 0xB53 JUMP JUMPDEST DUP1 PUSH1 0x1F ADD PUSH1 0x20 DUP1 SWAP2 DIV MUL PUSH1 0x20 ADD PUSH1 0x40 MLOAD SWAP1 DUP2 ADD PUSH1 0x40 MSTORE DUP1 SWAP3 SWAP2 SWAP1 DUP2 DUP2 MSTORE PUSH1 0x20 ADD DUP3 DUP1 SLOAD PUSH2 0x406 SWAP1 PUSH2 0xB53 JUMP JUMPDEST DUP1 ISZERO PUSH2 0x451 JUMPI DUP1 PUSH1 0x1F LT PUSH2 0x428 JUMPI PUSH2 0x100 DUP1 DUP4 SLOAD DIV MUL DUP4 MSTORE SWAP2 PUSH1 0x20 ADD SWAP2 PUSH2 0x451 JUMP JUMPDEST DUP3 ADD SWAP2 SWAP1 PUSH0 MSTORE PUSH1 0x20 PUSH0 KECCAK256 SWAP1 JUMPDEST DUP2 SLOAD DUP2 MSTORE SWAP1 PUSH1 0x1 ADD SWAP1 PUSH1 0x20 ADD DUP1 DUP4 GT PUSH2 0x434 JUMPI DUP3 SWAP1 SUB PUSH1 0x1F AND DUP3 ADD SWAP2 JUMPDEST POP POP POP POP POP DUP2 MSTORE PUSH1 0x20 ADD PUSH1 0x1 DUP3 ADD SLOAD DUP2 MSTORE PUSH1 0x20 ADD PUSH1 0x2 DUP3 ADD DUP1 SLOAD PUSH2 0x474 SWAP1 PUSH2 0xB53 JUMP JUMPDEST DUP1 PUSH1 0x1F ADD PUSH1 0x20 DUP1 SWAP2 DIV MUL PUSH1 0x20 ADD PUSH1 0x40 MLOAD SWAP1 DUP2 ADD PUSH1 0x40 MSTORE DUP1 SWAP3 SWAP2 SWAP1 DUP2 DUP2 MSTORE PUSH1 0x20 ADD DUP3 DUP1 SLOAD PUSH2 0x4A0 SWAP1 PUSH2 0xB53 JUMP JUMPDEST DUP1 ISZERO PUSH2 0x4EB JUMPI DUP1 PUSH1 0x1F LT PUSH2 0x4C2 JUMPI PUSH2 0x100 DUP1 DUP4 SLOAD DIV MUL DUP4 MSTORE SWAP2 PUSH1 0x20 ADD SWAP2 PUSH2 0x4EB JUMP JUMPDEST DUP3 ADD SWAP2 SWAP1 PUSH0 MSTORE PUSH1 0x20 PUSH0 KECCAK256 SWAP1 JUMPDEST DUP2 SLOAD DUP2 MSTORE SWAP1 PUSH1 0x1 ADD SWAP1 PUSH1 0x20 ADD DUP1 DUP4 GT PUSH2 0x4CE JUMPI DUP3 SWAP1 SUB PUSH1 0x1F AND DUP3 ADD SWAP2 JUMPDEST POP POP POP POP POP DUP2 MSTORE POP POP SWAP1 POP SWAP1 JUMP JUMPDEST PUSH0 DUP1 PUSH0 ADD DUP1 SLOAD PUSH2 0x508 SWAP1 PUSH2 0xB53 JUMP JUMPDEST DUP1 PUSH1 0x1F ADD PUSH1 0x20 DUP1 SWAP2 DIV MUL PUSH1 0x20 ADD PUSH1 0x40 MLOAD SWAP1 DUP2 ADD PUSH1 0x40 MSTORE DUP1 SWAP3 SWAP2 SWAP1 DUP2 DUP2 MSTORE PUSH1 0x20 ADD DUP3 DUP1 SLOAD PUSH2 0x534 SWAP1 PUSH2 0xB53 JUMP JUMPDEST DUP1 ISZERO PUSH2 0x57F JUMPI DUP1 PUSH1 0x1F LT PUSH2 0x556 JUMPI PUSH2 0x100 DUP1 DUP4 SLOAD DIV MUL DUP4 MSTORE SWAP2 PUSH1 0x20 ADD SWAP2 PUSH2 0x57F JUMP JUMPDEST DUP3 ADD SWAP2 SWAP1 PUSH0 MSTORE PUSH1 0x20 PUSH0 KECCAK256 SWAP1 JUMPDEST DUP2 SLOAD DUP2 MSTORE SWAP1 PUSH1 0x1 ADD SWAP1 PUSH1 0x20 ADD DUP1 DUP4 GT PUSH2 0x562 JUMPI DUP3 SWAP1 SUB PUSH1 0x1F AND DUP3 ADD SWAP2 JUMPDEST POP POP POP POP POP SWAP1 DUP1 PUSH1 0x1 ADD SLOAD SWAP1 DUP1 PUSH1 0x2 ADD DUP1 SLOAD PUSH2 0x59A SWAP1 PUSH2 0xB53 JUMP JUMPDEST DUP1 PUSH1 0x1F ADD PUSH1 0x20 DUP1 SWAP2 DIV MUL PUSH1 0x20 ADD PUSH1 0x40 MLOAD SWAP1 DUP2 ADD PUSH1 0x40 MSTORE DUP1 SWAP3 SWAP2 SWAP1 DUP2 DUP2 MSTORE PUSH1 0x20 ADD DUP3 DUP1 SLOAD PUSH2 0x5C6 SWAP1 PUSH2 0xB53 JUMP JUMPDEST DUP1 ISZERO PUSH2 0x611 JUMPI DUP1 PUSH1 0x1F LT PUSH2 0x5E8 JUMPI PUSH2 0x100 DUP1 DUP4 SLOAD DIV MUL DUP4 MSTORE SWAP2 PUSH1 0x20 ADD SWAP2 PUSH2 0x611 JUMP JUMPDEST DUP3 ADD SWAP2 SWAP1 PUSH0 MSTORE PUSH1 0x20 PUSH0 KECCAK256 SWAP1 JUMPDEST DUP2 SLOAD DUP2 MSTORE SWAP1 PUSH1 0x1 ADD SWAP1 PUSH1 0x20 ADD DUP1 DUP4 GT PUSH2 0x5F4 JUMPI DUP3 SWAP1 SUB PUSH1 0x1F AND DUP3 ADD SWAP2 JUMPDEST POP POP POP POP POP SWAP1 POP DUP4 JUMP JUMPDEST PUSH1 0x40 MLOAD DUP1 PUSH1 0x60 ADD PUSH1 0x40 MSTORE DUP1 DUP5 DUP2 MSTORE PUSH1 0x20 ADD DUP4 DUP2 MSTORE PUSH1 0x20 ADD DUP3 DUP2 MSTORE POP PUSH1 0x3 PUSH0 DUP3 ADD MLOAD DUP2 PUSH0 ADD SWAP1 DUP2 PUSH2 0x64B SWAP2 SWAP1 PUSH2 0xD20 JUMP JUMPDEST POP PUSH1 0x20 DUP3 ADD MLOAD DUP2 PUSH1 0x1 ADD SSTORE PUSH1 0x40 DUP3 ADD MLOAD DUP2 PUSH1 0x2 ADD SWAP1 DUP2 PUSH2 0x66B SWAP2 SWAP1 PUSH2 0xD20 JUMP JUMPDEST POP SWAP1 POP POP POP POP POP JUMP JUMPDEST DUP1 PUSH0 PUSH1 0x2 ADD SWAP1 DUP2 PUSH2 0x685 SWAP2 SWAP1 PUSH2 0xD20 JUMP JUMPDEST POP POP JUMP JUMPDEST PUSH1 0x60 PUSH0 DUP1 ADD DUP1 SLOAD PUSH2 0x699 SWAP1 PUSH2 0xB53 JUMP JUMPDEST DUP1 PUSH1 0x1F ADD PUSH1 0x20 DUP1 SWAP2 DIV MUL PUSH1 0x20 ADD PUSH1 0x40 MLOAD SWAP1 DUP2 ADD PUSH1 0x40 MSTORE DUP1 SWAP3 SWAP2 SWAP1 DUP2 DUP2 MSTORE PUSH1 0x20 ADD DUP3 DUP1 SLOAD PUSH2 0x6C5 SWAP1 PUSH2 0xB53 JUMP JUMPDEST DUP1 ISZERO PUSH2 0x710 JUMPI DUP1 PUSH1 0x1F LT PUSH2 0x6E7 JUMPI PUSH2 0x100 DUP1 DUP4 SLOAD DIV MUL DUP4 MSTORE SWAP2 PUSH1 0x20 ADD SWAP2 PUSH2 0x710 JUMP JUMPDEST DUP3 ADD SWAP2 SWAP1 PUSH0 MSTORE PUSH1 0x20 PUSH0 KECCAK256 SWAP1 JUMPDEST DUP2 SLOAD DUP2 MSTORE SWAP1 PUSH1 0x1 ADD SWAP1 PUSH1 0x20 ADD DUP1 DUP4 GT PUSH2 0x6F3 JUMPI DUP3 SWAP1 SUB PUSH1 0x1F AND DUP3 ADD SWAP2 JUMPDEST POP POP POP POP POP SWAP1 POP SWAP1 JUMP JUMPDEST PUSH1 0x40 MLOAD DUP1 PUSH1 0x60 ADD PUSH1 0x40 MSTORE DUP1 PUSH1 0x60 DUP2 MSTORE PUSH1 0x20 ADD PUSH0 DUP2 MSTORE PUSH1 0x20 ADD PUSH1 0x60 DUP2 MSTORE POP SWAP1 JUMP JUMPDEST PUSH0 DUP2 MLOAD SWAP1 POP SWAP2 SWAP1 POP JUMP JUMPDEST PUSH0 DUP3 DUP3 MSTORE PUSH1 0x20 DUP3 ADD SWAP1 POP SWAP3 SWAP2 POP POP JUMP JUMPDEST DUP3 DUP2 DUP4 MCOPY PUSH0 DUP4 DUP4 ADD MSTORE POP POP POP JUMP JUMPDEST PUSH0 PUSH1 0x1F NOT PUSH1 0x1F DUP4 ADD AND SWAP1 POP SWAP2 SWAP1 POP JUMP JUMPDEST PUSH0 PUSH2 0x77C DUP3 PUSH2 0x73A JUMP JUMPDEST PUSH2 0x786 DUP2 DUP6 PUSH2 0x744 JUMP JUMPDEST SWAP4 POP PUSH2 0x796 DUP2 DUP6 PUSH1 0x20 DUP7 ADD PUSH2 0x754 JUMP JUMPDEST PUSH2 0x79F DUP2 PUSH2 0x762 JUMP JUMPDEST DUP5 ADD SWAP2 POP POP SWAP3 SWAP2 POP POP JUMP JUMPDEST PUSH0 DUP2 SWAP1 POP SWAP2 SWAP1 POP JUMP JUMPDEST PUSH2 0x7BC DUP2 PUSH2 0x7AA JUMP JUMPDEST DUP3 MSTORE POP POP JUMP JUMPDEST PUSH0 PUSH1 0x60 DUP3 ADD SWAP1 POP DUP2 DUP2 SUB PUSH0 DUP4 ADD MSTORE PUSH2 0x7DA DUP2 DUP7 PUSH2 0x772 JUMP JUMPDEST SWAP1 POP PUSH2 0x7E9 PUSH1 0x20 DUP4 ADD DUP6 PUSH2 0x7B3 JUMP JUMPDEST DUP2 DUP2 SUB PUSH1 0x40 DUP4 ADD MSTORE PUSH2 0x7FB DUP2 DUP5 PUSH2 0x772 JUMP JUMPDEST SWAP1 POP SWAP5 SWAP4 POP POP POP POP JUMP JUMPDEST PUSH0 DUP3 DUP3 MSTORE PUSH1 0x20 DUP3 ADD SWAP1 POP SWAP3 SWAP2 POP POP JUMP JUMPDEST PUSH0 PUSH2 0x81F DUP3 PUSH2 0x73A JUMP JUMPDEST PUSH2 0x829 DUP2 DUP6 PUSH2 0x805 JUMP JUMPDEST SWAP4 POP PUSH2 0x839 DUP2 DUP6 PUSH1 0x20 DUP7 ADD PUSH2 0x754 JUMP JUMPDEST PUSH2 0x842 DUP2 PUSH2 0x762 JUMP JUMPDEST DUP5 ADD SWAP2 POP POP SWAP3 SWAP2 POP POP JUMP JUMPDEST PUSH2 0x856 DUP2 PUSH2 0x7AA JUMP JUMPDEST DUP3 MSTORE POP POP JUMP JUMPDEST PUSH0 PUSH1 0x60 DUP4 ADD PUSH0 DUP4 ADD MLOAD DUP5 DUP3 SUB PUSH0 DUP7 ADD MSTORE PUSH2 0x876 DUP3 DUP3 PUSH2 0x815 JUMP JUMPDEST SWAP2 POP POP PUSH1 0x20 DUP4 ADD MLOAD PUSH2 0x88B PUSH1 0x20 DUP7 ADD DUP3 PUSH2 0x84D JUMP JUMPDEST POP PUSH1 0x40 DUP4 ADD MLOAD DUP5 DUP3 SUB PUSH1 0x40 DUP7 ADD MSTORE PUSH2 0x8A3 DUP3 DUP3 PUSH2 0x815 JUMP JUMPDEST SWAP2 POP POP DUP1 SWAP2 POP POP SWAP3 SWAP2 POP POP JUMP JUMPDEST PUSH0 PUSH1 0x20 DUP3 ADD SWAP1 POP DUP2 DUP2 SUB PUSH0 DUP4 ADD MSTORE PUSH2 0x8C8 DUP2 DUP5 PUSH2 0x85C JUMP JUMPDEST SWAP1 POP SWAP3 SWAP2 POP POP JUMP JUMPDEST PUSH0 PUSH1 0x40 MLOAD SWAP1 POP SWAP1 JUMP JUMPDEST PUSH0 DUP1 REVERT JUMPDEST PUSH0 DUP1 REVERT JUMPDEST PUSH0 DUP1 REVERT JUMPDEST PUSH0 DUP1 REVERT JUMPDEST PUSH32 0x4E487B7100000000000000000000000000000000000000000000000000000000 PUSH0 MSTORE PUSH1 0x41 PUSH1 0x4 MSTORE PUSH1 0x24 PUSH0 REVERT JUMPDEST PUSH2 0x91F DUP3 PUSH2 0x762 JUMP JUMPDEST DUP2 ADD DUP2 DUP2 LT PUSH8 0xFFFFFFFFFFFFFFFF DUP3 GT OR ISZERO PUSH2 0x93E JUMPI PUSH2 0x93D PUSH2 0x8E9 JUMP JUMPDEST JUMPDEST DUP1 PUSH1 0x40 MSTORE POP POP POP JUMP JUMPDEST PUSH0 PUSH2 0x950 PUSH2 0x8D0 JUMP JUMPDEST SWAP1 POP PUSH2 0x95C DUP3 DUP3 PUSH2 0x916 JUMP JUMPDEST SWAP2 SWAP1 POP JUMP JUMPDEST PUSH0 PUSH8 0xFFFFFFFFFFFFFFFF DUP3 GT ISZERO PUSH2 0x97B JUMPI PUSH2 0x97A PUSH2 0x8E9 JUMP JUMPDEST JUMPDEST PUSH2 0x984 DUP3 PUSH2 0x762 JUMP JUMPDEST SWAP1 POP PUSH1 0x20 DUP2 ADD SWAP1 POP SWAP2 SWAP1 POP JUMP JUMPDEST DUP3 DUP2 DUP4 CALLDATACOPY PUSH0 DUP4 DUP4 ADD MSTORE POP POP POP JUMP JUMPDEST PUSH0 PUSH2 0x9B1 PUSH2 0x9AC DUP5 PUSH2 0x961 JUMP JUMPDEST PUSH2 0x947 JUMP JUMPDEST SWAP1 POP DUP3 DUP2 MSTORE PUSH1 0x20 DUP2 ADD DUP5 DUP5 DUP5 ADD GT ISZERO PUSH2 0x9CD JUMPI PUSH2 0x9CC PUSH2 0x8E5 JUMP JUMPDEST JUMPDEST PUSH2 0x9D8 DUP5 DUP3 DUP6 PUSH2 0x991 JUMP JUMPDEST POP SWAP4 SWAP3 POP POP POP JUMP JUMPDEST PUSH0 DUP3 PUSH1 0x1F DUP4 ADD SLT PUSH2 0x9F4 JUMPI PUSH2 0x9F3 PUSH2 0x8E1 JUMP JUMPDEST JUMPDEST DUP2 CALLDATALOAD PUSH2 0xA04 DUP5 DUP3 PUSH1 0x20 DUP7 ADD PUSH2 0x99F JUMP JUMPDEST SWAP2 POP POP SWAP3 SWAP2 POP POP JUMP JUMPDEST PUSH2 0xA16 DUP2 PUSH2 0x7AA JUMP JUMPDEST DUP2 EQ PUSH2 0xA20 JUMPI PUSH0 DUP1 REVERT JUMPDEST POP JUMP JUMPDEST PUSH0 DUP2 CALLDATALOAD SWAP1 POP PUSH2 0xA31 DUP2 PUSH2 0xA0D JUMP JUMPDEST SWAP3 SWAP2 POP POP JUMP JUMPDEST PUSH0 DUP1 PUSH0 PUSH1 0x60 DUP5 DUP7 SUB SLT ISZERO PUSH2 0xA4E JUMPI PUSH2 0xA4D PUSH2 0x8D9 JUMP JUMPDEST JUMPDEST PUSH0 DUP5 ADD CALLDATALOAD PUSH8 0xFFFFFFFFFFFFFFFF DUP2 GT ISZERO PUSH2 0xA6B JUMPI PUSH2 0xA6A PUSH2 0x8DD JUMP JUMPDEST JUMPDEST PUSH2 0xA77 DUP7 DUP3 DUP8 ADD PUSH2 0x9E0 JUMP JUMPDEST SWAP4 POP POP PUSH1 0x20 PUSH2 0xA88 DUP7 DUP3 DUP8 ADD PUSH2 0xA23 JUMP JUMPDEST SWAP3 POP POP PUSH1 0x40 DUP5 ADD CALLDATALOAD PUSH8 0xFFFFFFFFFFFFFFFF DUP2 GT ISZERO PUSH2 0xAA9 JUMPI PUSH2 0xAA8 PUSH2 0x8DD JUMP JUMPDEST JUMPDEST PUSH2 0xAB5 DUP7 DUP3 DUP8 ADD PUSH2 0x9E0 JUMP JUMPDEST SWAP2 POP POP SWAP3 POP SWAP3 POP SWAP3 JUMP JUMPDEST PUSH0 PUSH1 0x20 DUP3 DUP5 SUB SLT ISZERO PUSH2 0xAD4 JUMPI PUSH2 0xAD3 PUSH2 0x8D9 JUMP JUMPDEST JUMPDEST PUSH0 DUP3 ADD CALLDATALOAD PUSH8 0xFFFFFFFFFFFFFFFF DUP2 GT ISZERO PUSH2 0xAF1 JUMPI PUSH2 0xAF0 PUSH2 0x8DD JUMP JUMPDEST JUMPDEST PUSH2 0xAFD DUP5 DUP3 DUP6 ADD PUSH2 0x9E0 JUMP JUMPDEST SWAP2 POP POP SWAP3 SWAP2 POP POP JUMP JUMPDEST PUSH0 PUSH1 0x20 DUP3 ADD SWAP1 POP DUP2 DUP2 SUB PUSH0 DUP4 ADD MSTORE PUSH2 0xB1E DUP2 DUP5 PUSH2 0x772 JUMP JUMPDEST SWAP1 POP SWAP3 SWAP2 POP POP JUMP JUMPDEST PUSH32 0x4E487B7100000000000000000000000000000000000000000000000000000000 PUSH0 MSTORE PUSH1 0x22 PUSH1 0x4 MSTORE PUSH1 0x24 PUSH0 REVERT JUMPDEST PUSH0 PUSH1 0x2 DUP3 DIV SWAP1 POP PUSH1 0x1 DUP3 AND DUP1 PUSH2 0xB6A JUMPI PUSH1 0x7F DUP3 AND SWAP2 POP JUMPDEST PUSH1 0x20 DUP3 LT DUP2 SUB PUSH2 0xB7D JUMPI PUSH2 0xB7C PUSH2 0xB26 JUMP JUMPDEST JUMPDEST POP SWAP2 SWAP1 POP JUMP JUMPDEST PUSH0 DUP2 SWAP1 POP DUP2 PUSH0 MSTORE PUSH1 0x20 PUSH0 KECCAK256 SWAP1 POP SWAP2 SWAP1 POP JUMP JUMPDEST PUSH0 PUSH1 0x20 PUSH1 0x1F DUP4 ADD DIV SWAP1 POP SWAP2 SWAP1 POP JUMP JUMPDEST PUSH0 DUP3 DUP3 SHL SWAP1 POP SWAP3 SWAP2 POP POP JUMP JUMPDEST PUSH0 PUSH1 0x8 DUP4 MUL PUSH2 0xBDF PUSH32 0xFFFFFFFFFFFFFFFFFFFFFFFFFFFFFFFFFFFFFFFFFFFFFFFFFFFFFFFFFFFFFFFF DUP3 PUSH2 0xBA4 JUMP JUMPDEST PUSH2 0xBE9 DUP7 DUP4 PUSH2 0xBA4 JUMP JUMPDEST SWAP6 POP DUP1 NOT DUP5 AND SWAP4 POP DUP1 DUP7 AND DUP5 OR SWAP3 POP POP POP SWAP4 SWAP3 POP POP POP JUMP JUMPDEST PUSH0 DUP2 SWAP1 POP SWAP2 SWAP1 POP JUMP JUMPDEST PUSH0 PUSH2 0xC24 PUSH2 0xC1F PUSH2 0xC1A DUP5 PUSH2 0x7AA JUMP JUMPDEST PUSH2 0xC01 JUMP JUMPDEST PUSH2 0x7AA JUMP JUMPDEST SWAP1 POP SWAP2 SWAP1 POP JUMP JUMPDEST PUSH0 DUP2 SWAP1 POP SWAP2 SWAP1 POP JUMP JUMPDEST PUSH2 0xC3D DUP4 PUSH2 0xC0A JUMP JUMPDEST PUSH2 0xC51 PUSH2 0xC49 DUP3 PUSH2 0xC2B JUMP JUMPDEST DUP5 DUP5 SLOAD PUSH2 0xBB0 JUMP JUMPDEST DUP3 SSTORE POP POP POP POP JUMP JUMPDEST PUSH0 SWAP1 JUMP JUMPDEST PUSH2 0xC65 PUSH2 0xC59 JUMP JUMPDEST PUSH2 0xC70 DUP2 DUP5 DUP5 PUSH2 0xC34 JUMP JUMPDEST POP POP POP JUMP JUMPDEST JUMPDEST DUP2 DUP2 LT ISZERO PUSH2 0xC93 JUMPI PUSH2 0xC88 PUSH0 DUP3 PUSH2 0xC5D JUMP JUMPDEST PUSH1 0x1 DUP2 ADD SWAP1 POP PUSH2 0xC76 JUMP JUMPDEST POP POP JUMP JUMPDEST PUSH1 0x1F DUP3 GT ISZERO PUSH2 0xCD8 JUMPI PUSH2 0xCA9 DUP2 PUSH2 0xB83 JUMP JUMPDEST PUSH2 0xCB2 DUP5 PUSH2 0xB95 JUMP JUMPDEST DUP2 ADD PUSH1 0x20 DUP6 LT ISZERO PUSH2 0xCC1 JUMPI DUP2 SWAP1 POP JUMPDEST PUSH2 0xCD5 PUSH2 0xCCD DUP6 PUSH2 0xB95 JUMP JUMPDEST DUP4 ADD DUP3 PUSH2 0xC75 JUMP JUMPDEST POP POP JUMPDEST POP POP POP JUMP JUMPDEST PUSH0 DUP3 DUP3 SHR SWAP1 POP SWAP3 SWAP2 POP POP JUMP JUMPDEST PUSH0 PUSH2 0xCF8 PUSH0 NOT DUP5 PUSH1 0x8 MUL PUSH2 0xCDD JUMP JUMPDEST NOT DUP1 DUP4 AND SWAP2 POP POP SWAP3 SWAP2 POP POP JUMP JUMPDEST PUSH0 PUSH2 0xD10 DUP4 DUP4 PUSH2 0xCE9 JUMP JUMPDEST SWAP2 POP DUP3 PUSH1 0x2 MUL DUP3 OR SWAP1 POP SWAP3 SWAP2 POP POP JUMP JUMPDEST PUSH2 0xD29 DUP3 PUSH2 0x73A JUMP JUMPDEST PUSH8 0xFFFFFFFFFFFFFFFF DUP2 GT ISZERO PUSH2 0xD42 JUMPI PUSH2 0xD41 PUSH2 0x8E9 JUMP JUMPDEST JUMPDEST PUSH2 0xD4C DUP3 SLOAD PUSH2 0xB53 JUMP JUMPDEST PUSH2 0xD57 DUP3 DUP3 DUP6 PUSH2 0xC97 JUMP JUMPDEST PUSH0 PUSH1 0x20 SWAP1 POP PUSH1 0x1F DUP4 GT PUSH1 0x1 DUP2 EQ PUSH2 0xD88 JUMPI PUSH0 DUP5 ISZERO PUSH2 0xD76 JUMPI DUP3 DUP8 ADD MLOAD SWAP1 POP JUMPDEST PUSH2 0xD80 DUP6 DUP3 PUSH2 0xD05 JUMP JUMPDEST DUP7 SSTORE POP PUSH2 0xDE7 JUMP JUMPDEST PUSH1 0x1F NOT DUP5 AND PUSH2 0xD96 DUP7 PUSH2 0xB83 JUMP JUMPDEST PUSH0 JUMPDEST DUP3 DUP2 LT ISZERO PUSH2 0xDBD JUMPI DUP5 DUP10 ADD MLOAD DUP3 SSTORE PUSH1 0x1 DUP3 ADD SWAP2 POP PUSH1 0x20 DUP6 ADD SWAP5 POP PUSH1 0x20 DUP2 ADD SWAP1 POP PUSH2 0xD98 JUMP JUMPDEST DUP7 DUP4 LT ISZERO PUSH2 0xDDA JUMPI DUP5 DUP10 ADD MLOAD PUSH2 0xDD6 PUSH1 0x1F DUP10 AND DUP3 PUSH2 0xCE9 JUMP JUMPDEST DUP4 SSTORE POP JUMPDEST PUSH1 0x1 PUSH1 0x2 DUP9 MUL ADD DUP9 SSTORE POP POP POP JUMPDEST POP POP POP POP POP POP JUMP INVALID LOG2 PUSH5 0x6970667358 0x22 SLT KECCAK256 DUP7 0xB8 SWAP6 PREVRANDAO DUP4 0xD3 DUP3 PUSH21 0x5AA6E1971DE09C3A80928283EC2D8A29F9B6518444 DUP15 MCOPY 0xE8 PUSH5 0x736F6C6343 STOP ADDMOD BYTE STOP CALLER "
				},
				"gasEstimates": {
					"creation": {
						"codeDepositCost": "724200",
						"executionCost": "infinite",
						"totalCost": "infinite"
					},
					"external": {
						"changeJobHuman1(string)": "infinite",
						"getHuman()": "infinite",
						"getHuman1()": "infinite",
						"getNameHuman1()": "infinite",
						"human1()": "infinite",
						"human2()": "infinite",
						"initializeHuman2(string,uint256,string)": "infinite"
					}
				},
				"methodIdentifiers": {
					"changeJobHuman1(string)": "ddd6016c",
					"getHuman()": "80766de7",
					"getHuman1()": "427156f3",
					"getNameHuman1()": "fbaf88e9",
					"human1()": "ae5e1170",
					"human2()": "396466b7",
					"initializeHuman2(string,uint256,string)": "af2dd4d4"
				}
			},
			"storageLayout": {
				"storage": [
					{
						"astId": 15,
						"contract": "Example/Ex5_8.sol:Ex5_8",
						"label": "human1",
						"offset": 0,
						"slot": "0",
						"type": "t_struct(Human)7_storage"
					},
					{
						"astId": 18,
						"contract": "Example/Ex5_8.sol:Ex5_8",
						"label": "human2",
						"offset": 0,
						"slot": "3",
						"type": "t_struct(Human)7_storage"
					}
				],
				"types": {
					"t_string_storage": {
						"encoding": "bytes",
						"label": "string",
						"numberOfBytes": "32"
					},
					"t_struct(Human)7_storage": {
						"encoding": "inplace",
						"label": "struct Ex5_8.Human",
						"members": [
							{
								"astId": 2,
								"contract": "Example/Ex5_8.sol:Ex5_8",
								"label": "name",
								"offset": 0,
								"slot": "0",
								"type": "t_string_storage"
							},
							{
								"astId": 4,
								"contract": "Example/Ex5_8.sol:Ex5_8",
								"label": "age",
								"offset": 0,
								"slot": "1",
								"type": "t_uint256"
							},
							{
								"astId": 6,
								"contract": "Example/Ex5_8.sol:Ex5_8",
								"label": "job",
								"offset": 0,
								"slot": "2",
								"type": "t_string_storage"
							}
						],
						"numberOfBytes": "96"
					},
					"t_uint256": {
						"encoding": "inplace",
						"label": "uint256",
						"numberOfBytes": "32"
					}
				}
			},
			"userdoc": {
				"kind": "user",
				"methods": {},
				"version": 1
			}
		}
	}
}