{
	"week3/Ex4_5.sol": {
		"Ex4_5": {
			"abi": [
				{
					"inputs": [],
					"name": "a",
					"outputs": [
						{
							"internalType": "uint256",
							"name": "",
							"type": "uint256"
						}
					],
					"stateMutability": "view",
					"type": "function"
				},
				{
					"inputs": [],
					"name": "b",
					"outputs": [
						{
							"internalType": "uint256",
							"name": "",
							"type": "uint256"
						}
					],
					"stateMutability": "view",
					"type": "function"
				},
				{
					"inputs": [],
					"name": "myFun",
					"outputs": [
						{
							"internalType": "uint256",
							"name": "",
							"type": "uint256"
						}
					],
					"stateMutability": "nonpayable",
					"type": "function"
				}
			],
			"devdoc": {
				"kind": "dev",
				"methods": {},
				"version": 1
			},
			"evm": {
				"assembly": "    /* \"week3/Ex4_5.sol\":69:219  contract Ex4_5 {... */\n  mstore(0x40, 0x80)\n    /* \"week3/Ex4_5.sol\":105:106  3 */\n  0x03\n    /* \"week3/Ex4_5.sol\":91:106  uint public a=3 */\n  0x00\n  sstore\n    /* \"week3/Ex4_5.sol\":126:133  myFun() */\n  tag_1\n    /* \"week3/Ex4_5.sol\":126:131  myFun */\n  shl(0x20, tag_2)\n    /* \"week3/Ex4_5.sol\":126:133  myFun() */\n  0x20\n  shr\n  jump\t// in\ntag_1:\n    /* \"week3/Ex4_5.sol\":112:133  uint public b=myFun() */\n  0x01\n  sstore\n    /* \"week3/Ex4_5.sol\":69:219  contract Ex4_5 {... */\n  callvalue\n  dup1\n  iszero\n  tag_3\n  jumpi\n  0x00\n  dup1\n  revert\ntag_3:\n  pop\n  jump(tag_4)\n    /* \"week3/Ex4_5.sol\":140:217  function myFun() public returns(uint){... */\ntag_2:\n    /* \"week3/Ex4_5.sol\":172:176  uint */\n  0x00\n    /* \"week3/Ex4_5.sol\":189:192  100 */\n  0x64\n    /* \"week3/Ex4_5.sol\":187:188  a */\n  0x00\n    /* \"week3/Ex4_5.sol\":187:192  a=100 */\n  dup2\n  swap1\n  sstore\n  pop\n    /* \"week3/Ex4_5.sol\":209:210  a */\n  sload(0x00)\n    /* \"week3/Ex4_5.sol\":202:210  return a */\n  swap1\n  pop\n    /* \"week3/Ex4_5.sol\":140:217  function myFun() public returns(uint){... */\n  swap1\n  jump\t// out\n    /* \"week3/Ex4_5.sol\":69:219  contract Ex4_5 {... */\ntag_4:\n  dataSize(sub_0)\n  dup1\n  dataOffset(sub_0)\n  0x00\n  codecopy\n  0x00\n  return\nstop\n\nsub_0: assembly {\n        /* \"week3/Ex4_5.sol\":69:219  contract Ex4_5 {... */\n      mstore(0x40, 0x80)\n      callvalue\n      dup1\n      iszero\n      tag_1\n      jumpi\n      0x00\n      dup1\n      revert\n    tag_1:\n      pop\n      jumpi(tag_2, lt(calldatasize, 0x04))\n      shr(0xe0, calldataload(0x00))\n      dup1\n      0x0dbe671f\n      eq\n      tag_3\n      jumpi\n      dup1\n      0x4df7e3d0\n      eq\n      tag_4\n      jumpi\n      dup1\n      0x75bbb4e7\n      eq\n      tag_5\n      jumpi\n    tag_2:\n      0x00\n      dup1\n      revert\n        /* \"week3/Ex4_5.sol\":91:106  uint public a=3 */\n    tag_3:\n      tag_6\n      tag_7\n      jump\t// in\n    tag_6:\n      mload(0x40)\n      dup1\n      dup3\n      dup2\n      mstore\n      0x20\n      add\n      swap2\n      pop\n      pop\n      mload(0x40)\n      dup1\n      swap2\n      sub\n      swap1\n      return\n        /* \"week3/Ex4_5.sol\":112:133  uint public b=myFun() */\n    tag_4:\n      tag_8\n      tag_9\n      jump\t// in\n    tag_8:\n      mload(0x40)\n      dup1\n      dup3\n      dup2\n      mstore\n      0x20\n      add\n      swap2\n      pop\n      pop\n      mload(0x40)\n      dup1\n      swap2\n      sub\n      swap1\n      return\n        /* \"week3/Ex4_5.sol\":140:217  function myFun() public returns(uint){... */\n    tag_5:\n      tag_10\n      tag_11\n      jump\t// in\n    tag_10:\n      mload(0x40)\n      dup1\n      dup3\n      dup2\n      mstore\n      0x20\n      add\n      swap2\n      pop\n      pop\n      mload(0x40)\n      dup1\n      swap2\n      sub\n      swap1\n      return\n        /* \"week3/Ex4_5.sol\":91:106  uint public a=3 */\n    tag_7:\n      sload(0x00)\n      dup2\n      jump\t// out\n        /* \"week3/Ex4_5.sol\":112:133  uint public b=myFun() */\n    tag_9:\n      sload(0x01)\n      dup2\n      jump\t// out\n        /* \"week3/Ex4_5.sol\":140:217  function myFun() public returns(uint){... */\n    tag_11:\n        /* \"week3/Ex4_5.sol\":172:176  uint */\n      0x00\n        /* \"week3/Ex4_5.sol\":189:192  100 */\n      0x64\n        /* \"week3/Ex4_5.sol\":187:188  a */\n      0x00\n        /* \"week3/Ex4_5.sol\":187:192  a=100 */\n      dup2\n      swap1\n      sstore\n      pop\n        /* \"week3/Ex4_5.sol\":209:210  a */\n      sload(0x00)\n        /* \"week3/Ex4_5.sol\":202:210  return a */\n      swap1\n      pop\n        /* \"week3/Ex4_5.sol\":140:217  function myFun() public returns(uint){... */\n      swap1\n      jump\t// out\n\n    auxdata: 0xa26469706673582212207974cbce8043d7f790fd43ff722ac9a4767070c6245fc8b034536ca274df670164736f6c63430007000033\n}\n",
				"bytecode": {
					"linkReferences": {},
					"object": "6080604052600360005561001761002c60201b60201c565b60015534801561002657600080fd5b5061003e565b60006064600081905550600054905090565b60e98061004c6000396000f3fe6080604052348015600f57600080fd5b5060043610603c5760003560e01c80630dbe671f1460415780634df7e3d014605d57806375bbb4e7146079575b600080fd5b60476095565b6040518082815260200191505060405180910390f35b6063609b565b6040518082815260200191505060405180910390f35b607f60a1565b6040518082815260200191505060405180910390f35b60005481565b60015481565b6000606460008190555060005490509056fea26469706673582212207974cbce8043d7f790fd43ff722ac9a4767070c6245fc8b034536ca274df670164736f6c63430007000033",
					"opcodes": "PUSH1 0x80 PUSH1 0x40 MSTORE PUSH1 0x3 PUSH1 0x0 SSTORE PUSH2 0x17 PUSH2 0x2C PUSH1 0x20 SHL PUSH1 0x20 SHR JUMP JUMPDEST PUSH1 0x1 SSTORE CALLVALUE DUP1 ISZERO PUSH2 0x26 JUMPI PUSH1 0x0 DUP1 REVERT JUMPDEST POP PUSH2 0x3E JUMP JUMPDEST PUSH1 0x0 PUSH1 0x64 PUSH1 0x0 DUP2 SWAP1 SSTORE POP PUSH1 0x0 SLOAD SWAP1 POP SWAP1 JUMP JUMPDEST PUSH1 0xE9 DUP1 PUSH2 0x4C PUSH1 0x0 CODECOPY PUSH1 0x0 RETURN INVALID PUSH1 0x80 PUSH1 0x40 MSTORE CALLVALUE DUP1 ISZERO PUSH1 0xF JUMPI PUSH1 0x0 DUP1 REVERT JUMPDEST POP PUSH1 0x4 CALLDATASIZE LT PUSH1 0x3C JUMPI PUSH1 0x0 CALLDATALOAD PUSH1 0xE0 SHR DUP1 PUSH4 0xDBE671F EQ PUSH1 0x41 JUMPI DUP1 PUSH4 0x4DF7E3D0 EQ PUSH1 0x5D JUMPI DUP1 PUSH4 0x75BBB4E7 EQ PUSH1 0x79 JUMPI JUMPDEST PUSH1 0x0 DUP1 REVERT JUMPDEST PUSH1 0x47 PUSH1 0x95 JUMP JUMPDEST PUSH1 0x40 MLOAD DUP1 DUP3 DUP2 MSTORE PUSH1 0x20 ADD SWAP2 POP POP PUSH1 0x40 MLOAD DUP1 SWAP2 SUB SWAP1 RETURN JUMPDEST PUSH1 0x63 PUSH1 0x9B JUMP JUMPDEST PUSH1 0x40 MLOAD DUP1 DUP3 DUP2 MSTORE PUSH1 0x20 ADD SWAP2 POP POP PUSH1 0x40 MLOAD DUP1 SWAP2 SUB SWAP1 RETURN JUMPDEST PUSH1 0x7F PUSH1 0xA1 JUMP JUMPDEST PUSH1 0x40 MLOAD DUP1 DUP3 DUP2 MSTORE PUSH1 0x20 ADD SWAP2 POP POP PUSH1 0x40 MLOAD DUP1 SWAP2 SUB SWAP1 RETURN JUMPDEST PUSH1 0x0 SLOAD DUP2 JUMP JUMPDEST PUSH1 0x1 SLOAD DUP2 JUMP JUMPDEST PUSH1 0x0 PUSH1 0x64 PUSH1 0x0 DUP2 SWAP1 SSTORE POP PUSH1 0x0 SLOAD SWAP1 POP SWAP1 JUMP INVALID LOG2 PUSH5 0x6970667358 0x22 SLT KECCAK256 PUSH26 0x74CBCE8043D7F790FD43FF722AC9A4767070C6245FC8B034536C LOG2 PUSH21 0xDF670164736F6C6343000700003300000000000000 "
				},
				"gasEstimates": {
					"creation": {
						"codeDepositCost": "46600",
						"executionCost": "infinite",
						"totalCost": "infinite"
					},
					"external": {
						"a()": "983",
						"b()": "1005",
						"myFun()": "21049"
					}
				},
				"methodIdentifiers": {
					"a()": "0dbe671f",
					"b()": "4df7e3d0",
					"myFun()": "75bbb4e7"
				}
			},
			"storageLayout": {
				"storage": [
					{
						"astId": 4,
						"contract": "week3/Ex4_5.sol:Ex4_5",
						"label": "a",
						"offset": 0,
						"slot": "0",
						"type": "t_uint256"
					},
					{
						"astId": 8,
						"contract": "week3/Ex4_5.sol:Ex4_5",
						"label": "b",
						"offset": 0,
						"slot": "1",
						"type": "t_uint256"
					}
				],
				"types": {
					"t_uint256": {
						"encoding": "inplace",
						"label": "uint256",
						"numberOfBytes": "32"
					}
				}
			},
			"userdoc": {
				"kind": "user",
				"methods": {},
				"version": 1
			}
		}
	}
}