{
	"week3/Ex4_31.sol": {
		"Ex4_31": {
			"abi": [
				{
					"inputs": [],
					"name": "fun1",
					"outputs": [
						{
							"internalType": "uint256",
							"name": "",
							"type": "uint256"
						}
					],
					"stateMutability": "nonpayable",
					"type": "function"
				}
			],
			"devdoc": {
				"kind": "dev",
				"methods": {},
				"version": 1
			},
			"evm": {
				"assembly": "    /* \"week3/Ex4_31.sol\":67:271  contract Ex4_31{... */\n  mstore(0x40, 0x80)\n  callvalue\n  dup1\n  iszero\n  tag_1\n  jumpi\n  0x00\n  dup1\n  revert\ntag_1:\n  pop\n  dataSize(sub_0)\n  dup1\n  dataOffset(sub_0)\n  0x00\n  codecopy\n  0x00\n  return\nstop\n\nsub_0: assembly {\n        /* \"week3/Ex4_31.sol\":67:271  contract Ex4_31{... */\n      mstore(0x40, 0x80)\n      callvalue\n      dup1\n      iszero\n      tag_1\n      jumpi\n      0x00\n      dup1\n      revert\n    tag_1:\n      pop\n      jumpi(tag_2, lt(calldatasize, 0x04))\n      shr(0xe0, calldataload(0x00))\n      dup1\n      0x446a45b7\n      eq\n      tag_3\n      jumpi\n    tag_2:\n      0x00\n      dup1\n      revert\n        /* \"week3/Ex4_31.sol\":88:269  function fun1() public returns(uint){... */\n    tag_3:\n      tag_4\n      tag_5\n      jump\t// in\n    tag_4:\n      mload(0x40)\n      tag_6\n      swap2\n      swap1\n      tag_7\n      jump\t// in\n    tag_6:\n      mload(0x40)\n      dup1\n      swap2\n      sub\n      swap1\n      return\n    tag_5:\n        /* \"week3/Ex4_31.sol\":119:123  uint */\n      0x00\n        /* \"week3/Ex4_31.sol\":134:145  uint result */\n      dup1\n        /* \"week3/Ex4_31.sol\":146:147  5 */\n      0x05\n        /* \"week3/Ex4_31.sol\":134:147  uint result=5 */\n      swap1\n      pop\n        /* \"week3/Ex4_31.sol\":157:163  uint a */\n      0x00\n        /* \"week3/Ex4_31.sol\":175:240  do{... */\n    tag_9:\n        /* \"week3/Ex4_31.sol\":199:200  a */\n      dup1\n        /* \"week3/Ex4_31.sol\":191:200  result+=a */\n      dup3\n      tag_12\n      swap2\n      swap1\n      tag_13\n      jump\t// in\n    tag_12:\n      swap2\n      pop\n        /* \"week3/Ex4_31.sol\":214:217  ++a */\n      dup1\n      tag_14\n      swap1\n      tag_15\n      jump\t// in\n    tag_14:\n      swap1\n      pop\n        /* \"week3/Ex4_31.sol\":236:238  10 */\n      0x0a\n        /* \"week3/Ex4_31.sol\":234:235  a */\n      dup2\n        /* \"week3/Ex4_31.sol\":234:238  a<10 */\n      lt\n        /* \"week3/Ex4_31.sol\":175:240  do{... */\n      tag_9\n      jumpi\n        /* \"week3/Ex4_31.sol\":256:262  result */\n      dup2\n        /* \"week3/Ex4_31.sol\":249:262  return result */\n      swap3\n      pop\n      pop\n      pop\n        /* \"week3/Ex4_31.sol\":88:269  function fun1() public returns(uint){... */\n      swap1\n      jump\t// out\n        /* \"#utility.yul\":7:84   */\n    tag_16:\n        /* \"#utility.yul\":44:51   */\n      0x00\n        /* \"#utility.yul\":73:78   */\n      dup2\n        /* \"#utility.yul\":62:78   */\n      swap1\n      pop\n        /* \"#utility.yul\":7:84   */\n      swap2\n      swap1\n      pop\n      jump\t// out\n        /* \"#utility.yul\":90:208   */\n    tag_17:\n        /* \"#utility.yul\":177:201   */\n      tag_22\n        /* \"#utility.yul\":195:200   */\n      dup2\n        /* \"#utility.yul\":177:201   */\n      tag_16\n      jump\t// in\n    tag_22:\n        /* \"#utility.yul\":172:175   */\n      dup3\n        /* \"#utility.yul\":165:202   */\n      mstore\n        /* \"#utility.yul\":90:208   */\n      pop\n      pop\n      jump\t// out\n        /* \"#utility.yul\":214:436   */\n    tag_7:\n        /* \"#utility.yul\":307:311   */\n      0x00\n        /* \"#utility.yul\":345:347   */\n      0x20\n        /* \"#utility.yul\":334:343   */\n      dup3\n        /* \"#utility.yul\":330:348   */\n      add\n        /* \"#utility.yul\":322:348   */\n      swap1\n      pop\n        /* \"#utility.yul\":358:429   */\n      tag_24\n        /* \"#utility.yul\":426:427   */\n      0x00\n        /* \"#utility.yul\":415:424   */\n      dup4\n        /* \"#utility.yul\":411:428   */\n      add\n        /* \"#utility.yul\":402:408   */\n      dup5\n        /* \"#utility.yul\":358:429   */\n      tag_17\n      jump\t// in\n    tag_24:\n        /* \"#utility.yul\":214:436   */\n      swap3\n      swap2\n      pop\n      pop\n      jump\t// out\n        /* \"#utility.yul\":442:622   */\n    tag_18:\n        /* \"#utility.yul\":490:567   */\n      0x4e487b7100000000000000000000000000000000000000000000000000000000\n        /* \"#utility.yul\":487:488   */\n      0x00\n        /* \"#utility.yul\":480:568   */\n      mstore\n        /* \"#utility.yul\":587:591   */\n      0x11\n        /* \"#utility.yul\":584:585   */\n      0x04\n        /* \"#utility.yul\":577:592   */\n      mstore\n        /* \"#utility.yul\":611:615   */\n      0x24\n        /* \"#utility.yul\":608:609   */\n      0x00\n        /* \"#utility.yul\":601:616   */\n      revert\n        /* \"#utility.yul\":628:819   */\n    tag_13:\n        /* \"#utility.yul\":668:671   */\n      0x00\n        /* \"#utility.yul\":687:707   */\n      tag_27\n        /* \"#utility.yul\":705:706   */\n      dup3\n        /* \"#utility.yul\":687:707   */\n      tag_16\n      jump\t// in\n    tag_27:\n        /* \"#utility.yul\":682:707   */\n      swap2\n      pop\n        /* \"#utility.yul\":721:741   */\n      tag_28\n        /* \"#utility.yul\":739:740   */\n      dup4\n        /* \"#utility.yul\":721:741   */\n      tag_16\n      jump\t// in\n    tag_28:\n        /* \"#utility.yul\":716:741   */\n      swap3\n      pop\n        /* \"#utility.yul\":764:765   */\n      dup3\n        /* \"#utility.yul\":761:762   */\n      dup3\n        /* \"#utility.yul\":757:766   */\n      add\n        /* \"#utility.yul\":750:766   */\n      swap1\n      pop\n        /* \"#utility.yul\":785:788   */\n      dup1\n        /* \"#utility.yul\":782:783   */\n      dup3\n        /* \"#utility.yul\":779:789   */\n      gt\n        /* \"#utility.yul\":776:812   */\n      iszero\n      tag_29\n      jumpi\n        /* \"#utility.yul\":792:810   */\n      tag_30\n      tag_18\n      jump\t// in\n    tag_30:\n        /* \"#utility.yul\":776:812   */\n    tag_29:\n        /* \"#utility.yul\":628:819   */\n      swap3\n      swap2\n      pop\n      pop\n      jump\t// out\n        /* \"#utility.yul\":825:1058   */\n    tag_15:\n        /* \"#utility.yul\":864:867   */\n      0x00\n        /* \"#utility.yul\":887:911   */\n      tag_32\n        /* \"#utility.yul\":905:910   */\n      dup3\n        /* \"#utility.yul\":887:911   */\n      tag_16\n      jump\t// in\n    tag_32:\n        /* \"#utility.yul\":878:911   */\n      swap2\n      pop\n        /* \"#utility.yul\":933:999   */\n      0xffffffffffffffffffffffffffffffffffffffffffffffffffffffffffffffff\n        /* \"#utility.yul\":926:931   */\n      dup3\n        /* \"#utility.yul\":923:1000   */\n      sub\n        /* \"#utility.yul\":920:1023   */\n      tag_33\n      jumpi\n        /* \"#utility.yul\":1003:1021   */\n      tag_34\n      tag_18\n      jump\t// in\n    tag_34:\n        /* \"#utility.yul\":920:1023   */\n    tag_33:\n        /* \"#utility.yul\":1050:1051   */\n      0x01\n        /* \"#utility.yul\":1043:1048   */\n      dup3\n        /* \"#utility.yul\":1039:1052   */\n      add\n        /* \"#utility.yul\":1032:1052   */\n      swap1\n      pop\n        /* \"#utility.yul\":825:1058   */\n      swap2\n      swap1\n      pop\n      jump\t// out\n\n    auxdata: 0xa26469706673582212203402e0da877f9ef562dc5e64d3b8307afc070bff3ca7be143850c3341c66c90e64736f6c634300081a0033\n}\n",
				"bytecode": {
					"linkReferences": {},
					"object": "6080604052348015600e575f80fd5b5061018b8061001c5f395ff3fe608060405234801561000f575f80fd5b5060043610610029575f3560e01c8063446a45b71461002d575b5f80fd5b61003561004b565b6040516100429190610095565b60405180910390f35b5f80600590505f5b808261005f91906100db565b91508061006b9061010e565b9050600a811061005357819250505090565b5f819050919050565b61008f8161007d565b82525050565b5f6020820190506100a85f830184610086565b92915050565b7f4e487b71000000000000000000000000000000000000000000000000000000005f52601160045260245ffd5b5f6100e58261007d565b91506100f08361007d565b9250828201905080821115610108576101076100ae565b5b92915050565b5f6101188261007d565b91507fffffffffffffffffffffffffffffffffffffffffffffffffffffffffffffffff820361014a576101496100ae565b5b60018201905091905056fea26469706673582212203402e0da877f9ef562dc5e64d3b8307afc070bff3ca7be143850c3341c66c90e64736f6c634300081a0033",
					"opcodes": "PUSH1 0x80 PUSH1 0x40 MSTORE CALLVALUE DUP1 ISZERO PUSH1 0xE JUMPI PUSH0 DUP1 REVERT JUMPDEST POP PUSH2 0x18B DUP1 PUSH2 0x1C PUSH0 CODECOPY PUSH0 RETURN INVALID PUSH1 0x80 PUSH1 0x40 MSTORE CALLVALUE DUP1 ISZERO PUSH2 0xF JUMPI PUSH0 DUP1 REVERT JUMPDEST POP PUSH1 0x4 CALLDATASIZE LT PUSH2 0x29 JUMPI PUSH0 CALLDATALOAD PUSH1 0xE0 SHR DUP1 PUSH4 0x446A45B7 EQ PUSH2 0x2D JUMPI JUMPDEST PUSH0 DUP1 REVERT JUMPDEST PUSH2 0x35 PUSH2 0x4B JUMP JUMPDEST PUSH1 0x40 MLOAD PUSH2 0x42 SWAP2 SWAP1 PUSH2 0x95 JUMP JUMPDEST PUSH1 0x40 MLOAD DUP1 SWAP2 SUB SWAP1 RETURN JUMPDEST PUSH0 DUP1 PUSH1 0x5 SWAP1 POP PUSH0 JUMPDEST DUP1 DUP3 PUSH2 0x5F SWAP2 SWAP1 PUSH2 0xDB JUMP JUMPDEST SWAP2 POP DUP1 PUSH2 0x6B SWAP1 PUSH2 0x10E JUMP JUMPDEST SWAP1 POP PUSH1 0xA DUP2 LT PUSH2 0x53 JUMPI DUP2 SWAP3 POP POP POP SWAP1 JUMP JUMPDEST PUSH0 DUP2 SWAP1 POP SWAP2 SWAP1 POP JUMP JUMPDEST PUSH2 0x8F DUP2 PUSH2 0x7D JUMP JUMPDEST DUP3 MSTORE POP POP JUMP JUMPDEST PUSH0 PUSH1 0x20 DUP3 ADD SWAP1 POP PUSH2 0xA8 PUSH0 DUP4 ADD DUP5 PUSH2 0x86 JUMP JUMPDEST SWAP3 SWAP2 POP POP JUMP JUMPDEST PUSH32 0x4E487B7100000000000000000000000000000000000000000000000000000000 PUSH0 MSTORE PUSH1 0x11 PUSH1 0x4 MSTORE PUSH1 0x24 PUSH0 REVERT JUMPDEST PUSH0 PUSH2 0xE5 DUP3 PUSH2 0x7D JUMP JUMPDEST SWAP2 POP PUSH2 0xF0 DUP4 PUSH2 0x7D JUMP JUMPDEST SWAP3 POP DUP3 DUP3 ADD SWAP1 POP DUP1 DUP3 GT ISZERO PUSH2 0x108 JUMPI PUSH2 0x107 PUSH2 0xAE JUMP JUMPDEST JUMPDEST SWAP3 SWAP2 POP POP JUMP JUMPDEST PUSH0 PUSH2 0x118 DUP3 PUSH2 0x7D JUMP JUMPDEST SWAP2 POP PUSH32 0xFFFFFFFFFFFFFFFFFFFFFFFFFFFFFFFFFFFFFFFFFFFFFFFFFFFFFFFFFFFFFFFF DUP3 SUB PUSH2 0x14A JUMPI PUSH2 0x149 PUSH2 0xAE JUMP JUMPDEST JUMPDEST PUSH1 0x1 DUP3 ADD SWAP1 POP SWAP2 SWAP1 POP JUMP INVALID LOG2 PUSH5 0x6970667358 0x22 SLT KECCAK256 CALLVALUE MUL 0xE0 0xDA DUP8 PUSH32 0x9EF562DC5E64D3B8307AFC070BFF3CA7BE143850C3341C66C90E64736F6C6343 STOP ADDMOD BYTE STOP CALLER "
				},
				"gasEstimates": {
					"creation": {
						"codeDepositCost": "79000",
						"executionCost": "127",
						"totalCost": "79127"
					},
					"external": {
						"fun1()": "infinite"
					}
				},
				"methodIdentifiers": {
					"fun1()": "446a45b7"
				}
			},
			"storageLayout": {
				"storage": [],
				"types": null
			},
			"userdoc": {
				"kind": "user",
				"methods": {},
				"version": 1
			}
		}
	}
}