{
	"Example/Khash.sol": {
		"Khash": {
			"abi": [
				{
					"inputs": [
						{
							"internalType": "uint256",
							"name": "value",
							"type": "uint256"
						},
						{
							"internalType": "bytes32",
							"name": "password",
							"type": "bytes32"
						}
					],
					"name": "hashMe",
					"outputs": [],
					"stateMutability": "nonpayable",
					"type": "function"
				},
				{
					"inputs": [],
					"name": "hashedValue",
					"outputs": [
						{
							"internalType": "bytes32",
							"name": "",
							"type": "bytes32"
						}
					],
					"stateMutability": "view",
					"type": "function"
				}
			],
			"devdoc": {
				"kind": "dev",
				"methods": {},
				"version": 1
			},
			"evm": {
				"assembly": "    /* \"Example/Khash.sol\":0:177  contract Khash{... */\n  mstore(0x40, 0x80)\n  callvalue\n  dup1\n  iszero\n  tag_1\n  jumpi\n  0x00\n  dup1\n  revert\ntag_1:\n  pop\n  dataSize(sub_0)\n  dup1\n  dataOffset(sub_0)\n  0x00\n  codecopy\n  0x00\n  return\nstop\n\nsub_0: assembly {\n        /* \"Example/Khash.sol\":0:177  contract Khash{... */\n      mstore(0x40, 0x80)\n      callvalue\n      dup1\n      iszero\n      tag_1\n      jumpi\n      0x00\n      dup1\n      revert\n    tag_1:\n      pop\n      jumpi(tag_2, lt(calldatasize, 0x04))\n      shr(0xe0, calldataload(0x00))\n      dup1\n      0x9e96154e\n      eq\n      tag_3\n      jumpi\n      dup1\n      0xb3ec48dd\n      eq\n      tag_4\n      jumpi\n    tag_2:\n      0x00\n      dup1\n      revert\n        /* \"Example/Khash.sol\":20:46  bytes32 public hashedValue */\n    tag_3:\n      tag_5\n      tag_6\n      jump\t// in\n    tag_5:\n      mload(0x40)\n      dup1\n      dup3\n      dup2\n      mstore\n      0x20\n      add\n      swap2\n      pop\n      pop\n      mload(0x40)\n      dup1\n      swap2\n      sub\n      swap1\n      return\n        /* \"Example/Khash.sol\":53:175  function hashMe(uint value,bytes32 password)public{... */\n    tag_4:\n      tag_7\n      0x04\n      dup1\n      calldatasize\n      sub\n      0x40\n      dup2\n      lt\n      iszero\n      tag_8\n      jumpi\n      0x00\n      dup1\n      revert\n    tag_8:\n      dup2\n      add\n      swap1\n      dup1\n      dup1\n      calldataload\n      swap1\n      0x20\n      add\n      swap1\n      swap3\n      swap2\n      swap1\n      dup1\n      calldataload\n      swap1\n      0x20\n      add\n      swap1\n      swap3\n      swap2\n      swap1\n      pop\n      pop\n      pop\n      tag_9\n      jump\t// in\n    tag_7:\n      stop\n        /* \"Example/Khash.sol\":20:46  bytes32 public hashedValue */\n    tag_6:\n      sload(0x00)\n      dup2\n      jump\t// out\n        /* \"Example/Khash.sol\":53:175  function hashMe(uint value,bytes32 password)public{... */\n    tag_9:\n        /* \"Example/Khash.sol\":152:157  value */\n      dup2\n        /* \"Example/Khash.sol\":158:166  password */\n      dup2\n        /* \"Example/Khash.sol\":135:167  abi.encodePacked(value,password) */\n      add(0x20, mload(0x40))\n      dup1\n      dup4\n      dup2\n      mstore\n      0x20\n      add\n      dup3\n      dup2\n      mstore\n      0x20\n      add\n      swap3\n      pop\n      pop\n      pop\n      mload(0x40)\n      0x20\n      dup2\n      dup4\n      sub\n      sub\n      dup2\n      mstore\n      swap1\n      0x40\n      mstore\n        /* \"Example/Khash.sol\":125:168  keccak256(abi.encodePacked(value,password)) */\n      dup1\n      mload\n      swap1\n      0x20\n      add\n      keccak256\n        /* \"Example/Khash.sol\":113:124  hashedValue */\n      0x00\n        /* \"Example/Khash.sol\":113:168  hashedValue=keccak256(abi.encodePacked(value,password)) */\n      dup2\n      swap1\n      sstore\n      pop\n        /* \"Example/Khash.sol\":53:175  function hashMe(uint value,bytes32 password)public{... */\n      pop\n      pop\n      jump\t// out\n\n    auxdata: 0xa264697066735822122060580201e2d8b5f5072ab818009c4abb950a9de455cf494214d0deeae5a4845d64736f6c63430007060033\n}\n",
				"bytecode": {
					"linkReferences": {},
					"object": "608060405234801561001057600080fd5b5060fd8061001f6000396000f3fe6080604052348015600f57600080fd5b506004361060325760003560e01c80639e96154e146037578063b3ec48dd146053575b600080fd5b603d6088565b6040518082815260200191505060405180910390f35b608660048036036040811015606757600080fd5b810190808035906020019092919080359060200190929190505050608e565b005b60005481565b8181604051602001808381526020018281526020019250505060405160208183030381529060405280519060200120600081905550505056fea264697066735822122060580201e2d8b5f5072ab818009c4abb950a9de455cf494214d0deeae5a4845d64736f6c63430007060033",
					"opcodes": "PUSH1 0x80 PUSH1 0x40 MSTORE CALLVALUE DUP1 ISZERO PUSH2 0x10 JUMPI PUSH1 0x0 DUP1 REVERT JUMPDEST POP PUSH1 0xFD DUP1 PUSH2 0x1F PUSH1 0x0 CODECOPY PUSH1 0x0 RETURN INVALID PUSH1 0x80 PUSH1 0x40 MSTORE CALLVALUE DUP1 ISZERO PUSH1 0xF JUMPI PUSH1 0x0 DUP1 REVERT JUMPDEST POP PUSH1 0x4 CALLDATASIZE LT PUSH1 0x32 JUMPI PUSH1 0x0 CALLDATALOAD PUSH1 0xE0 SHR DUP1 PUSH4 0x9E96154E EQ PUSH1 0x37 JUMPI DUP1 PUSH4 0xB3EC48DD EQ PUSH1 0x53 JUMPI JUMPDEST PUSH1 0x0 DUP1 REVERT JUMPDEST PUSH1 0x3D PUSH1 0x88 JUMP JUMPDEST PUSH1 0x40 MLOAD DUP1 DUP3 DUP2 MSTORE PUSH1 0x20 ADD SWAP2 POP POP PUSH1 0x40 MLOAD DUP1 SWAP2 SUB SWAP1 RETURN JUMPDEST PUSH1 0x86 PUSH1 0x4 DUP1 CALLDATASIZE SUB PUSH1 0x40 DUP2 LT ISZERO PUSH1 0x67 JUMPI PUSH1 0x0 DUP1 REVERT JUMPDEST DUP2 ADD SWAP1 DUP1 DUP1 CALLDATALOAD SWAP1 PUSH1 0x20 ADD SWAP1 SWAP3 SWAP2 SWAP1 DUP1 CALLDATALOAD SWAP1 PUSH1 0x20 ADD SWAP1 SWAP3 SWAP2 SWAP1 POP POP POP PUSH1 0x8E JUMP JUMPDEST STOP JUMPDEST PUSH1 0x0 SLOAD DUP2 JUMP JUMPDEST DUP2 DUP2 PUSH1 0x40 MLOAD PUSH1 0x20 ADD DUP1 DUP4 DUP2 MSTORE PUSH1 0x20 ADD DUP3 DUP2 MSTORE PUSH1 0x20 ADD SWAP3 POP POP POP PUSH1 0x40 MLOAD PUSH1 0x20 DUP2 DUP4 SUB SUB DUP2 MSTORE SWAP1 PUSH1 0x40 MSTORE DUP1 MLOAD SWAP1 PUSH1 0x20 ADD KECCAK256 PUSH1 0x0 DUP2 SWAP1 SSTORE POP POP POP JUMP INVALID LOG2 PUSH5 0x6970667358 0x22 SLT KECCAK256 PUSH1 0x58 MUL ADD 0xE2 0xD8 0xB5 CREATE2 SMOD 0x2A 0xB8 XOR STOP SWAP13 0x4A 0xBB SWAP6 EXP SWAP14 0xE4 SSTORE 0xCF 0x49 TIMESTAMP EQ 0xD0 0xDE 0xEA 0xE5 LOG4 DUP5 0x5D PUSH5 0x736F6C6343 STOP SMOD MOD STOP CALLER "
				},
				"gasEstimates": {
					"creation": {
						"codeDepositCost": "50600",
						"executionCost": "99",
						"totalCost": "50699"
					},
					"external": {
						"hashMe(uint256,bytes32)": "20433",
						"hashedValue()": "983"
					}
				},
				"methodIdentifiers": {
					"hashMe(uint256,bytes32)": "b3ec48dd",
					"hashedValue()": "9e96154e"
				}
			},
			"storageLayout": {
				"storage": [
					{
						"astId": 2,
						"contract": "Example/Khash.sol:Khash",
						"label": "hashedValue",
						"offset": 0,
						"slot": "0",
						"type": "t_bytes32"
					}
				],
				"types": {
					"t_bytes32": {
						"encoding": "inplace",
						"label": "bytes32",
						"numberOfBytes": "32"
					}
				}
			},
			"userdoc": {
				"kind": "user",
				"methods": {},
				"version": 1
			}
		}
	}
}