{
	"data": {
		"bytecode": {
			"linkReferences": {},
			"object": "608060405234801561001057600080fd5b5060ff8061001f6000396000f3fe6080604052348015600f57600080fd5b5060043610603c5760003560e01c806354d44bf7146041578063783c2501146066578063addd133c146082575b600080fd5b604760a0565b6040518083815260200182151581526020019250505060405180910390f35b606c60b7565b6040518082815260200191505060405180910390f35b608860c0565b60405180821515815260200191505060405180910390f35b60008060a960b7565b60af60c0565b915091509091565b60006003905090565b6000600190509056fea2646970667358221220b2d4d2b5d7c3c55d653bd8b57fdaada0d18ae45d8a49070ccd410d271d8d558d64736f6c63430007060033",
			"opcodes": "PUSH1 0x80 PUSH1 0x40 MSTORE CALLVALUE DUP1 ISZERO PUSH2 0x10 JUMPI PUSH1 0x0 DUP1 REVERT JUMPDEST POP PUSH1 0xFF DUP1 PUSH2 0x1F PUSH1 0x0 CODECOPY PUSH1 0x0 RETURN INVALID PUSH1 0x80 PUSH1 0x40 MSTORE CALLVALUE DUP1 ISZERO PUSH1 0xF JUMPI PUSH1 0x0 DUP1 REVERT JUMPDEST POP PUSH1 0x4 CALLDATASIZE LT PUSH1 0x3C JUMPI PUSH1 0x0 CALLDATALOAD PUSH1 0xE0 SHR DUP1 PUSH4 0x54D44BF7 EQ PUSH1 0x41 JUMPI DUP1 PUSH4 0x783C2501 EQ PUSH1 0x66 JUMPI DUP1 PUSH4 0xADDD133C EQ PUSH1 0x82 JUMPI JUMPDEST PUSH1 0x0 DUP1 REVERT JUMPDEST PUSH1 0x47 PUSH1 0xA0 JUMP JUMPDEST PUSH1 0x40 MLOAD DUP1 DUP4 DUP2 MSTORE PUSH1 0x20 ADD DUP3 ISZERO ISZERO DUP2 MSTORE PUSH1 0x20 ADD SWAP3 POP POP POP PUSH1 0x40 MLOAD DUP1 SWAP2 SUB SWAP1 RETURN JUMPDEST PUSH1 0x6C PUSH1 0xB7 JUMP JUMPDEST PUSH1 0x40 MLOAD DUP1 DUP3 DUP2 MSTORE PUSH1 0x20 ADD SWAP2 POP POP PUSH1 0x40 MLOAD DUP1 SWAP2 SUB SWAP1 RETURN JUMPDEST PUSH1 0x88 PUSH1 0xC0 JUMP JUMPDEST PUSH1 0x40 MLOAD DUP1 DUP3 ISZERO ISZERO DUP2 MSTORE PUSH1 0x20 ADD SWAP2 POP POP PUSH1 0x40 MLOAD DUP1 SWAP2 SUB SWAP1 RETURN JUMPDEST PUSH1 0x0 DUP1 PUSH1 0xA9 PUSH1 0xB7 JUMP JUMPDEST PUSH1 0xAF PUSH1 0xC0 JUMP JUMPDEST SWAP2 POP SWAP2 POP SWAP1 SWAP2 JUMP JUMPDEST PUSH1 0x0 PUSH1 0x3 SWAP1 POP SWAP1 JUMP JUMPDEST PUSH1 0x0 PUSH1 0x1 SWAP1 POP SWAP1 JUMP INVALID LOG2 PUSH5 0x6970667358 0x22 SLT KECCAK256 0xB2 0xD4 0xD2 0xB5 0xD7 0xC3 0xC5 0x5D PUSH6 0x3BD8B57FDAAD LOG0 0xD1 DUP11 0xE4 0x5D DUP11 0x49 SMOD 0xC 0xCD COINBASE 0xD 0x27 SAR DUP14 SSTORE DUP14 PUSH5 0x736F6C6343 STOP SMOD MOD STOP CALLER "
		},
		"gasEstimates": {
			"creation": {
				"codeDepositCost": "51000",
				"executionCost": "99",
				"totalCost": "51099"
			},
			"external": {
				"boot()": "301",
				"errorCheck()": "241",
				"versionCheck()": "213"
			}
		},
		"methodIdentifiers": {
			"boot()": "54d44bf7",
			"errorCheck()": "addd133c",
			"versionCheck()": "783c2501"
		}
	},
	"abi": [
		{
			"inputs": [],
			"name": "boot",
			"outputs": [
				{
					"internalType": "uint256",
					"name": "",
					"type": "uint256"
				},
				{
					"internalType": "bool",
					"name": "",
					"type": "bool"
				}
			],
			"stateMutability": "pure",
			"type": "function"
		},
		{
			"inputs": [],
			"name": "errorCheck",
			"outputs": [
				{
					"internalType": "bool",
					"name": "",
					"type": "bool"
				}
			],
			"stateMutability": "pure",
			"type": "function"
		},
		{
			"inputs": [],
			"name": "versionCheck",
			"outputs": [
				{
					"internalType": "uint256",
					"name": "",
					"type": "uint256"
				}
			],
			"stateMutability": "pure",
			"type": "function"
		}
	]
}