{
	"data": {
		"bytecode": {
			"linkReferences": {},
			"object": "6080604052348015600e575f80fd5b506102068061001c5f395ff3fe608060405234801561000f575f80fd5b5060043610610029575f3560e01c80635fe319c61461002d575b5f80fd5b61003561004b565b60405161004291906100b3565b60405180910390f35b5f805f90505f600190505b600a8111610093575f60028261006c91906100f9565b0361008057808261007d9190610156565b91505b808061008b90610189565b915050610056565b508091505090565b5f819050919050565b6100ad8161009b565b82525050565b5f6020820190506100c65f8301846100a4565b92915050565b7f4e487b71000000000000000000000000000000000000000000000000000000005f52601260045260245ffd5b5f6101038261009b565b915061010e8361009b565b92508261011e5761011d6100cc565b5b828206905092915050565b7f4e487b71000000000000000000000000000000000000000000000000000000005f52601160045260245ffd5b5f6101608261009b565b915061016b8361009b565b925082820190508082111561018357610182610129565b5b92915050565b5f6101938261009b565b91507fffffffffffffffffffffffffffffffffffffffffffffffffffffffffffffffff82036101c5576101c4610129565b5b60018201905091905056fea2646970667358221220b299f6bcbc9a4468d7718cedb0d13c7dbf75093c0c5f761a0e8a0acbe21e013f64736f6c634300081a0033",
			"opcodes": "PUSH1 0x80 PUSH1 0x40 MSTORE CALLVALUE DUP1 ISZERO PUSH1 0xE JUMPI PUSH0 DUP1 REVERT JUMPDEST POP PUSH2 0x206 DUP1 PUSH2 0x1C PUSH0 CODECOPY PUSH0 RETURN INVALID PUSH1 0x80 PUSH1 0x40 MSTORE CALLVALUE DUP1 ISZERO PUSH2 0xF JUMPI PUSH0 DUP1 REVERT JUMPDEST POP PUSH1 0x4 CALLDATASIZE LT PUSH2 0x29 JUMPI PUSH0 CALLDATALOAD PUSH1 0xE0 SHR DUP1 PUSH4 0x5FE319C6 EQ PUSH2 0x2D JUMPI JUMPDEST PUSH0 DUP1 REVERT JUMPDEST PUSH2 0x35 PUSH2 0x4B JUMP JUMPDEST PUSH1 0x40 MLOAD PUSH2 0x42 SWAP2 SWAP1 PUSH2 0xB3 JUMP JUMPDEST PUSH1 0x40 MLOAD DUP1 SWAP2 SUB SWAP1 RETURN JUMPDEST PUSH0 DUP1 PUSH0 SWAP1 POP PUSH0 PUSH1 0x1 SWAP1 POP JUMPDEST PUSH1 0xA DUP2 GT PUSH2 0x93 JUMPI PUSH0 PUSH1 0x2 DUP3 PUSH2 0x6C SWAP2 SWAP1 PUSH2 0xF9 JUMP JUMPDEST SUB PUSH2 0x80 JUMPI DUP1 DUP3 PUSH2 0x7D SWAP2 SWAP1 PUSH2 0x156 JUMP JUMPDEST SWAP2 POP JUMPDEST DUP1 DUP1 PUSH2 0x8B SWAP1 PUSH2 0x189 JUMP JUMPDEST SWAP2 POP POP PUSH2 0x56 JUMP JUMPDEST POP DUP1 SWAP2 POP POP SWAP1 JUMP JUMPDEST PUSH0 DUP2 SWAP1 POP SWAP2 SWAP1 POP JUMP JUMPDEST PUSH2 0xAD DUP2 PUSH2 0x9B JUMP JUMPDEST DUP3 MSTORE POP POP JUMP JUMPDEST PUSH0 PUSH1 0x20 DUP3 ADD SWAP1 POP PUSH2 0xC6 PUSH0 DUP4 ADD DUP5 PUSH2 0xA4 JUMP JUMPDEST SWAP3 SWAP2 POP POP JUMP JUMPDEST PUSH32 0x4E487B7100000000000000000000000000000000000000000000000000000000 PUSH0 MSTORE PUSH1 0x12 PUSH1 0x4 MSTORE PUSH1 0x24 PUSH0 REVERT JUMPDEST PUSH0 PUSH2 0x103 DUP3 PUSH2 0x9B JUMP JUMPDEST SWAP2 POP PUSH2 0x10E DUP4 PUSH2 0x9B JUMP JUMPDEST SWAP3 POP DUP3 PUSH2 0x11E JUMPI PUSH2 0x11D PUSH2 0xCC JUMP JUMPDEST JUMPDEST DUP3 DUP3 MOD SWAP1 POP SWAP3 SWAP2 POP POP JUMP JUMPDEST PUSH32 0x4E487B7100000000000000000000000000000000000000000000000000000000 PUSH0 MSTORE PUSH1 0x11 PUSH1 0x4 MSTORE PUSH1 0x24 PUSH0 REVERT JUMPDEST PUSH0 PUSH2 0x160 DUP3 PUSH2 0x9B JUMP JUMPDEST SWAP2 POP PUSH2 0x16B DUP4 PUSH2 0x9B JUMP JUMPDEST SWAP3 POP DUP3 DUP3 ADD SWAP1 POP DUP1 DUP3 GT ISZERO PUSH2 0x183 JUMPI PUSH2 0x182 PUSH2 0x129 JUMP JUMPDEST JUMPDEST SWAP3 SWAP2 POP POP JUMP JUMPDEST PUSH0 PUSH2 0x193 DUP3 PUSH2 0x9B JUMP JUMPDEST SWAP2 POP PUSH32 0xFFFFFFFFFFFFFFFFFFFFFFFFFFFFFFFFFFFFFFFFFFFFFFFFFFFFFFFFFFFFFFFF DUP3 SUB PUSH2 0x1C5 JUMPI PUSH2 0x1C4 PUSH2 0x129 JUMP JUMPDEST JUMPDEST PUSH1 0x1 DUP3 ADD SWAP1 POP SWAP2 SWAP1 POP JUMP INVALID LOG2 PUSH5 0x6970667358 0x22 SLT KECCAK256 0xB2 SWAP10 0xF6 0xBC 0xBC SWAP11 PREVRANDAO PUSH9 0xD7718CEDB0D13C7DBF PUSH22 0x93C0C5F761A0E8A0ACBE21E013F64736F6C63430008 BYTE STOP CALLER "
		},
		"gasEstimates": {
			"creation": {
				"codeDepositCost": "103600",
				"executionCost": "151",
				"totalCost": "103751"
			},
			"external": {
				"sumOnlyEvenNumbers()": "infinite"
			}
		},
		"methodIdentifiers": {
			"sumOnlyEvenNumbers()": "5fe319c6"
		}
	},
	"abi": [
		{
			"inputs": [],
			"name": "sumOnlyEvenNumbers",
			"outputs": [
				{
					"internalType": "uint256",
					"name": "",
					"type": "uint256"
				}
			],
			"stateMutability": "pure",
			"type": "function"
		}
	]
}