{
	"data": {
		"bytecode": {
			"linkReferences": {},
			"object": "608060405234801561000f575f80fd5b5060405161146d38038061146d83398181016040528101906100319190610147565b3360015f6101000a81548173ffffffffffffffffffffffffffffffffffffffff021916908373ffffffffffffffffffffffffffffffffffffffff160217905550814261007d91906101b2565b600381905550670de0b6b3a76400008161009791906101e5565b6006819055506040518060400160405280600781526020017f46756e64696e6700000000000000000000000000000000000000000000000000815250600490816100e19190610457565b505f60055f6101000a81548160ff0219169083151502179055505f6002819055505f6007819055505050610526565b5f80fd5b5f819050919050565b61012681610114565b8114610130575f80fd5b50565b5f815190506101418161011d565b92915050565b5f806040838503121561015d5761015c610110565b5b5f61016a85828601610133565b925050602061017b85828601610133565b9150509250929050565b7f4e487b71000000000000000000000000000000000000000000000000000000005f52601160045260245ffd5b5f6101bc82610114565b91506101c783610114565b92508282019050808211156101df576101de610185565b5b92915050565b5f6101ef82610114565b91506101fa83610114565b925082820261020881610114565b9150828204841483151761021f5761021e610185565b5b5092915050565b5f81519050919050565b7f4e487b71000000000000000000000000000000000000000000000000000000005f52604160045260245ffd5b7f4e487b71000000000000000000000000000000000000000000000000000000005f52602260045260245ffd5b5f60028204905060018216806102a157607f821691505b6020821081036102b4576102b361025d565b5b50919050565b5f819050815f5260205f209050919050565b5f6020601f8301049050919050565b5f82821b905092915050565b5f600883026103167fffffffffffffffffffffffffffffffffffffffffffffffffffffffffffffffff826102db565b61032086836102db565b95508019841693508086168417925050509392505050565b5f819050919050565b5f61035b61035661035184610114565b610338565b610114565b9050919050565b5f819050919050565b61037483610341565b61038861038082610362565b8484546102e7565b825550505050565b5f90565b61039c610390565b6103a781848461036b565b505050565b5b818110156103ca576103bf5f82610394565b6001810190506103ad565b5050565b601f82111561040f576103e0816102ba565b6103e9846102cc565b810160208510156103f8578190505b61040c610404856102cc565b8301826103ac565b50505b505050565b5f82821c905092915050565b5f61042f5f1984600802610414565b1980831691505092915050565b5f6104478383610420565b9150826002028217905092915050565b61046082610226565b67ffffffffffffffff81111561047957610478610230565b5b610483825461028a565b61048e8282856103ce565b5f60209050601f8311600181146104bf575f84156104ad578287015190505b6104b7858261043c565b86555061051e565b601f1984166104cd866102ba565b5f5b828110156104f4578489015182556001820191506020850194506020810190506104cf565b86831015610511578489015161050d601f891682610420565b8355505b6001600288020188555050505b505050505050565b610f3a806105335f395ff3fe608060405260043610610090575f3560e01c80632636b945116100585780632636b9451461015257806329dcb0cf1461017c5780633feb5f2b146101a65780638da5cb5b146101e3578063b60d42881461020d57610090565b806301cb3b201461009457806312fa6feb146100aa578063132ae5e9146100d45780631a39d8ef146100fe578063200d2ed214610128575b5f80fd5b34801561009f575f80fd5b506100a8610217565b005b3480156100b5575f80fd5b506100be6104fd565b6040516100cb9190610787565b60405180910390f35b3480156100df575f80fd5b506100e861050f565b6040516100f591906107b8565b60405180910390f35b348015610109575f80fd5b50610112610515565b60405161011f91906107b8565b60405180910390f35b348015610133575f80fd5b5061013c61051b565b6040516101499190610841565b60405180910390f35b34801561015d575f80fd5b506101666105a7565b60405161017391906107b8565b60405180910390f35b348015610187575f80fd5b506101906105ad565b60405161019d91906107b8565b60405180910390f35b3480156101b1575f80fd5b506101cc60048036038101906101c7919061088f565b6105b3565b6040516101da9291906108f9565b60405180910390f35b3480156101ee575f80fd5b506101f76105f1565b6040516102049190610920565b60405180910390f35b610215610616565b005b60015f9054906101000a900473ffffffffffffffffffffffffffffffffffffffff1673ffffffffffffffffffffffffffffffffffffffff163373ffffffffffffffffffffffffffffffffffffffff16146102a6576040517f08c379a000000000000000000000000000000000000000000000000000000000815260040161029d906109a9565b60405180910390fd5b5f151560055f9054906101000a900460ff161515146102fa576040517f08c379a00000000000000000000000000000000000000000000000000000000081526004016102f190610a11565b60405180910390fd5b60035442101561033f576040517f08c379a000000000000000000000000000000000000000000000000000000000815260040161033690610a79565b60405180910390fd5b600654600754106103f95760015f9054906101000a900473ffffffffffffffffffffffffffffffffffffffff1673ffffffffffffffffffffffffffffffffffffffff166108fc4790811502906040515f60405180830381858888f193505050501580156103ae573d5f803e3d5ffd5b506040518060400160405280601281526020017f43616d706169676e205375636365656465640000000000000000000000000000815250600490816103f39190610cbe565b506104e1565b5f5b60025481101561049a575f808281526020019081526020015f205f015f9054906101000a900473ffffffffffffffffffffffffffffffffffffffff1673ffffffffffffffffffffffffffffffffffffffff166108fc5f808481526020019081526020015f206001015490811502906040515f60405180830381858888f1935050505015801561048c573d5f803e3d5ffd5b5080806001019150506103fb565b506040518060400160405280600f81526020017f43616d706169676e204661696c65640000000000000000000000000000000000815250600490816104df9190610cbe565b505b600160055f6101000a81548160ff021916908315150217905550565b60055f9054906101000a900460ff1681565b60025481565b60075481565b6004805461052890610af1565b80601f016020809104026020016040519081016040528092919081815260200182805461055490610af1565b801561059f5780601f106105765761010080835404028352916020019161059f565b820191905f5260205f20905b81548152906001019060200180831161058257829003601f168201915b505050505081565b60065481565b60035481565b5f602052805f5260405f205f91509050805f015f9054906101000a900473ffffffffffffffffffffffffffffffffffffffff16908060010154905082565b60015f9054906101000a900473ffffffffffffffffffffffffffffffffffffffff1681565b5f151560055f9054906101000a900460ff1615151461066a576040517f08c379a000000000000000000000000000000000000000000000000000000000815260040161066190610dd7565b60405180910390fd5b60035442106106ae576040517f08c379a00000000000000000000000000000000000000000000000000000000081526004016106a590610e3f565b60405180910390fd5b60405180604001604052803373ffffffffffffffffffffffffffffffffffffffff168152602001348152505f8060025481526020019081526020015f205f820151815f015f6101000a81548173ffffffffffffffffffffffffffffffffffffffff021916908373ffffffffffffffffffffffffffffffffffffffff1602179055506020820151816001015590505060025f81548092919061074e90610e8a565b91905055503460075f8282546107649190610ed1565b92505081905550565b5f8115159050919050565b6107818161076d565b82525050565b5f60208201905061079a5f830184610778565b92915050565b5f819050919050565b6107b2816107a0565b82525050565b5f6020820190506107cb5f8301846107a9565b92915050565b5f81519050919050565b5f82825260208201905092915050565b8281835e5f83830152505050565b5f601f19601f8301169050919050565b5f610813826107d1565b61081d81856107db565b935061082d8185602086016107eb565b610836816107f9565b840191505092915050565b5f6020820190508181035f8301526108598184610809565b905092915050565b5f80fd5b61086e816107a0565b8114610878575f80fd5b50565b5f8135905061088981610865565b92915050565b5f602082840312156108a4576108a3610861565b5b5f6108b18482850161087b565b91505092915050565b5f73ffffffffffffffffffffffffffffffffffffffff82169050919050565b5f6108e3826108ba565b9050919050565b6108f3816108d9565b82525050565b5f60408201905061090c5f8301856108ea565b61091960208301846107a9565b9392505050565b5f6020820190506109335f8301846108ea565b92915050565b7f4f6e6c79206f776e65722063616e2063616c6c20746869732066756e6374696f5f8201527f6e00000000000000000000000000000000000000000000000000000000000000602082015250565b5f6109936021836107db565b915061099e82610939565b604082019050919050565b5f6020820190508181035f8301526109c081610987565b9050919050565b7f43726f776466756e64696e672068617320616c726561647920656e64656400005f82015250565b5f6109fb601e836107db565b9150610a06826109c7565b602082019050919050565b5f6020820190508181035f830152610a28816109ef565b9050919050565b7f446561646c696e6520686173206e6f74207061737365642079657400000000005f82015250565b5f610a63601b836107db565b9150610a6e82610a2f565b602082019050919050565b5f6020820190508181035f830152610a9081610a57565b9050919050565b7f4e487b71000000000000000000000000000000000000000000000000000000005f52604160045260245ffd5b7f4e487b71000000000000000000000000000000000000000000000000000000005f52602260045260245ffd5b5f6002820490506001821680610b0857607f821691505b602082108103610b1b57610b1a610ac4565b5b50919050565b5f819050815f5260205f209050919050565b5f6020601f8301049050919050565b5f82821b905092915050565b5f60088302610b7d7fffffffffffffffffffffffffffffffffffffffffffffffffffffffffffffffff82610b42565b610b878683610b42565b95508019841693508086168417925050509392505050565b5f819050919050565b5f610bc2610bbd610bb8846107a0565b610b9f565b6107a0565b9050919050565b5f819050919050565b610bdb83610ba8565b610bef610be782610bc9565b848454610b4e565b825550505050565b5f90565b610c03610bf7565b610c0e818484610bd2565b505050565b5b81811015610c3157610c265f82610bfb565b600181019050610c14565b5050565b601f821115610c7657610c4781610b21565b610c5084610b33565b81016020851015610c5f578190505b610c73610c6b85610b33565b830182610c13565b50505b505050565b5f82821c905092915050565b5f610c965f1984600802610c7b565b1980831691505092915050565b5f610cae8383610c87565b9150826002028217905092915050565b610cc7826107d1565b67ffffffffffffffff811115610ce057610cdf610a97565b5b610cea8254610af1565b610cf5828285610c35565b5f60209050601f831160018114610d26575f8415610d14578287015190505b610d1e8582610ca3565b865550610d85565b601f198416610d3486610b21565b5f5b82811015610d5b57848901518255600182019150602085019450602081019050610d36565b86831015610d785784890151610d74601f891682610c87565b8355505b6001600288020188555050505b505050505050565b7f43726f776466756e64696e672068617320656e646564000000000000000000005f82015250565b5f610dc16016836107db565b9150610dcc82610d8d565b602082019050919050565b5f6020820190508181035f830152610dee81610db5565b9050919050565b7f446561646c696e652068617320706173736564000000000000000000000000005f82015250565b5f610e296013836107db565b9150610e3482610df5565b602082019050919050565b5f6020820190508181035f830152610e5681610e1d565b9050919050565b7f4e487b71000000000000000000000000000000000000000000000000000000005f52601160045260245ffd5b5f610e94826107a0565b91507fffffffffffffffffffffffffffffffffffffffffffffffffffffffffffffffff8203610ec657610ec5610e5d565b5b600182019050919050565b5f610edb826107a0565b9150610ee6836107a0565b9250828201905080821115610efe57610efd610e5d565b5b9291505056fea26469706673582212200b5b8e7cb70ea4187b1cd76a068b67becb104cc01f936509d678c6e6f9ca4ad864736f6c634300081a0033",
			"opcodes": "PUSH1 0x80 PUSH1 0x40 MSTORE CALLVALUE DUP1 ISZERO PUSH2 0xF JUMPI PUSH0 DUP1 REVERT JUMPDEST POP PUSH1 0x40 MLOAD PUSH2 0x146D CODESIZE SUB DUP1 PUSH2 0x146D DUP4 CODECOPY DUP2 DUP2 ADD PUSH1 0x40 MSTORE DUP2 ADD SWAP1 PUSH2 0x31 SWAP2 SWAP1 PUSH2 0x147 JUMP JUMPDEST CALLER PUSH1 0x1 PUSH0 PUSH2 0x100 EXP DUP2 SLOAD DUP2 PUSH20 0xFFFFFFFFFFFFFFFFFFFFFFFFFFFFFFFFFFFFFFFF MUL NOT AND SWAP1 DUP4 PUSH20 0xFFFFFFFFFFFFFFFFFFFFFFFFFFFFFFFFFFFFFFFF AND MUL OR SWAP1 SSTORE POP DUP2 TIMESTAMP PUSH2 0x7D SWAP2 SWAP1 PUSH2 0x1B2 JUMP JUMPDEST PUSH1 0x3 DUP2 SWAP1 SSTORE POP PUSH8 0xDE0B6B3A7640000 DUP2 PUSH2 0x97 SWAP2 SWAP1 PUSH2 0x1E5 JUMP JUMPDEST PUSH1 0x6 DUP2 SWAP1 SSTORE POP PUSH1 0x40 MLOAD DUP1 PUSH1 0x40 ADD PUSH1 0x40 MSTORE DUP1 PUSH1 0x7 DUP2 MSTORE PUSH1 0x20 ADD PUSH32 0x46756E64696E6700000000000000000000000000000000000000000000000000 DUP2 MSTORE POP PUSH1 0x4 SWAP1 DUP2 PUSH2 0xE1 SWAP2 SWAP1 PUSH2 0x457 JUMP JUMPDEST POP PUSH0 PUSH1 0x5 PUSH0 PUSH2 0x100 EXP DUP2 SLOAD DUP2 PUSH1 0xFF MUL NOT AND SWAP1 DUP4 ISZERO ISZERO MUL OR SWAP1 SSTORE POP PUSH0 PUSH1 0x2 DUP2 SWAP1 SSTORE POP PUSH0 PUSH1 0x7 DUP2 SWAP1 SSTORE POP POP POP PUSH2 0x526 JUMP JUMPDEST PUSH0 DUP1 REVERT JUMPDEST PUSH0 DUP2 SWAP1 POP SWAP2 SWAP1 POP JUMP JUMPDEST PUSH2 0x126 DUP2 PUSH2 0x114 JUMP JUMPDEST DUP2 EQ PUSH2 0x130 JUMPI PUSH0 DUP1 REVERT JUMPDEST POP JUMP JUMPDEST PUSH0 DUP2 MLOAD SWAP1 POP PUSH2 0x141 DUP2 PUSH2 0x11D JUMP JUMPDEST SWAP3 SWAP2 POP POP JUMP JUMPDEST PUSH0 DUP1 PUSH1 0x40 DUP4 DUP6 SUB SLT ISZERO PUSH2 0x15D JUMPI PUSH2 0x15C PUSH2 0x110 JUMP JUMPDEST JUMPDEST PUSH0 PUSH2 0x16A DUP6 DUP3 DUP7 ADD PUSH2 0x133 JUMP JUMPDEST SWAP3 POP POP PUSH1 0x20 PUSH2 0x17B DUP6 DUP3 DUP7 ADD PUSH2 0x133 JUMP JUMPDEST SWAP2 POP POP SWAP3 POP SWAP3 SWAP1 POP JUMP JUMPDEST PUSH32 0x4E487B7100000000000000000000000000000000000000000000000000000000 PUSH0 MSTORE PUSH1 0x11 PUSH1 0x4 MSTORE PUSH1 0x24 PUSH0 REVERT JUMPDEST PUSH0 PUSH2 0x1BC DUP3 PUSH2 0x114 JUMP JUMPDEST SWAP2 POP PUSH2 0x1C7 DUP4 PUSH2 0x114 JUMP JUMPDEST SWAP3 POP DUP3 DUP3 ADD SWAP1 POP DUP1 DUP3 GT ISZERO PUSH2 0x1DF JUMPI PUSH2 0x1DE PUSH2 0x185 JUMP JUMPDEST JUMPDEST SWAP3 SWAP2 POP POP JUMP JUMPDEST PUSH0 PUSH2 0x1EF DUP3 PUSH2 0x114 JUMP JUMPDEST SWAP2 POP PUSH2 0x1FA DUP4 PUSH2 0x114 JUMP JUMPDEST SWAP3 POP DUP3 DUP3 MUL PUSH2 0x208 DUP2 PUSH2 0x114 JUMP JUMPDEST SWAP2 POP DUP3 DUP3 DIV DUP5 EQ DUP4 ISZERO OR PUSH2 0x21F JUMPI PUSH2 0x21E PUSH2 0x185 JUMP JUMPDEST JUMPDEST POP SWAP3 SWAP2 POP POP JUMP JUMPDEST PUSH0 DUP2 MLOAD SWAP1 POP SWAP2 SWAP1 POP JUMP JUMPDEST PUSH32 0x4E487B7100000000000000000000000000000000000000000000000000000000 PUSH0 MSTORE PUSH1 0x41 PUSH1 0x4 MSTORE PUSH1 0x24 PUSH0 REVERT JUMPDEST PUSH32 0x4E487B7100000000000000000000000000000000000000000000000000000000 PUSH0 MSTORE PUSH1 0x22 PUSH1 0x4 MSTORE PUSH1 0x24 PUSH0 REVERT JUMPDEST PUSH0 PUSH1 0x2 DUP3 DIV SWAP1 POP PUSH1 0x1 DUP3 AND DUP1 PUSH2 0x2A1 JUMPI PUSH1 0x7F DUP3 AND SWAP2 POP JUMPDEST PUSH1 0x20 DUP3 LT DUP2 SUB PUSH2 0x2B4 JUMPI PUSH2 0x2B3 PUSH2 0x25D JUMP JUMPDEST JUMPDEST POP SWAP2 SWAP1 POP JUMP JUMPDEST PUSH0 DUP2 SWAP1 POP DUP2 PUSH0 MSTORE PUSH1 0x20 PUSH0 KECCAK256 SWAP1 POP SWAP2 SWAP1 POP JUMP JUMPDEST PUSH0 PUSH1 0x20 PUSH1 0x1F DUP4 ADD DIV SWAP1 POP SWAP2 SWAP1 POP JUMP JUMPDEST PUSH0 DUP3 DUP3 SHL SWAP1 POP SWAP3 SWAP2 POP POP JUMP JUMPDEST PUSH0 PUSH1 0x8 DUP4 MUL PUSH2 0x316 PUSH32 0xFFFFFFFFFFFFFFFFFFFFFFFFFFFFFFFFFFFFFFFFFFFFFFFFFFFFFFFFFFFFFFFF DUP3 PUSH2 0x2DB JUMP JUMPDEST PUSH2 0x320 DUP7 DUP4 PUSH2 0x2DB JUMP JUMPDEST SWAP6 POP DUP1 NOT DUP5 AND SWAP4 POP DUP1 DUP7 AND DUP5 OR SWAP3 POP POP POP SWAP4 SWAP3 POP POP POP JUMP JUMPDEST PUSH0 DUP2 SWAP1 POP SWAP2 SWAP1 POP JUMP JUMPDEST PUSH0 PUSH2 0x35B PUSH2 0x356 PUSH2 0x351 DUP5 PUSH2 0x114 JUMP JUMPDEST PUSH2 0x338 JUMP JUMPDEST PUSH2 0x114 JUMP JUMPDEST SWAP1 POP SWAP2 SWAP1 POP JUMP JUMPDEST PUSH0 DUP2 SWAP1 POP SWAP2 SWAP1 POP JUMP JUMPDEST PUSH2 0x374 DUP4 PUSH2 0x341 JUMP JUMPDEST PUSH2 0x388 PUSH2 0x380 DUP3 PUSH2 0x362 JUMP JUMPDEST DUP5 DUP5 SLOAD PUSH2 0x2E7 JUMP JUMPDEST DUP3 SSTORE POP POP POP POP JUMP JUMPDEST PUSH0 SWAP1 JUMP JUMPDEST PUSH2 0x39C PUSH2 0x390 JUMP JUMPDEST PUSH2 0x3A7 DUP2 DUP5 DUP5 PUSH2 0x36B JUMP JUMPDEST POP POP POP JUMP JUMPDEST JUMPDEST DUP2 DUP2 LT ISZERO PUSH2 0x3CA JUMPI PUSH2 0x3BF PUSH0 DUP3 PUSH2 0x394 JUMP JUMPDEST PUSH1 0x1 DUP2 ADD SWAP1 POP PUSH2 0x3AD JUMP JUMPDEST POP POP JUMP JUMPDEST PUSH1 0x1F DUP3 GT ISZERO PUSH2 0x40F JUMPI PUSH2 0x3E0 DUP2 PUSH2 0x2BA JUMP JUMPDEST PUSH2 0x3E9 DUP5 PUSH2 0x2CC JUMP JUMPDEST DUP2 ADD PUSH1 0x20 DUP6 LT ISZERO PUSH2 0x3F8 JUMPI DUP2 SWAP1 POP JUMPDEST PUSH2 0x40C PUSH2 0x404 DUP6 PUSH2 0x2CC JUMP JUMPDEST DUP4 ADD DUP3 PUSH2 0x3AC JUMP JUMPDEST POP POP JUMPDEST POP POP POP JUMP JUMPDEST PUSH0 DUP3 DUP3 SHR SWAP1 POP SWAP3 SWAP2 POP POP JUMP JUMPDEST PUSH0 PUSH2 0x42F PUSH0 NOT DUP5 PUSH1 0x8 MUL PUSH2 0x414 JUMP JUMPDEST NOT DUP1 DUP4 AND SWAP2 POP POP SWAP3 SWAP2 POP POP JUMP JUMPDEST PUSH0 PUSH2 0x447 DUP4 DUP4 PUSH2 0x420 JUMP JUMPDEST SWAP2 POP DUP3 PUSH1 0x2 MUL DUP3 OR SWAP1 POP SWAP3 SWAP2 POP POP JUMP JUMPDEST PUSH2 0x460 DUP3 PUSH2 0x226 JUMP JUMPDEST PUSH8 0xFFFFFFFFFFFFFFFF DUP2 GT ISZERO PUSH2 0x479 JUMPI PUSH2 0x478 PUSH2 0x230 JUMP JUMPDEST JUMPDEST PUSH2 0x483 DUP3 SLOAD PUSH2 0x28A JUMP JUMPDEST PUSH2 0x48E DUP3 DUP3 DUP6 PUSH2 0x3CE JUMP JUMPDEST PUSH0 PUSH1 0x20 SWAP1 POP PUSH1 0x1F DUP4 GT PUSH1 0x1 DUP2 EQ PUSH2 0x4BF JUMPI PUSH0 DUP5 ISZERO PUSH2 0x4AD JUMPI DUP3 DUP8 ADD MLOAD SWAP1 POP JUMPDEST PUSH2 0x4B7 DUP6 DUP3 PUSH2 0x43C JUMP JUMPDEST DUP7 SSTORE POP PUSH2 0x51E JUMP JUMPDEST PUSH1 0x1F NOT DUP5 AND PUSH2 0x4CD DUP7 PUSH2 0x2BA JUMP JUMPDEST PUSH0 JUMPDEST DUP3 DUP2 LT ISZERO PUSH2 0x4F4 JUMPI DUP5 DUP10 ADD MLOAD DUP3 SSTORE PUSH1 0x1 DUP3 ADD SWAP2 POP PUSH1 0x20 DUP6 ADD SWAP5 POP PUSH1 0x20 DUP2 ADD SWAP1 POP PUSH2 0x4CF JUMP JUMPDEST DUP7 DUP4 LT ISZERO PUSH2 0x511 JUMPI DUP5 DUP10 ADD MLOAD PUSH2 0x50D PUSH1 0x1F DUP10 AND DUP3 PUSH2 0x420 JUMP JUMPDEST DUP4 SSTORE POP JUMPDEST PUSH1 0x1 PUSH1 0x2 DUP9 MUL ADD DUP9 SSTORE POP POP POP JUMPDEST POP POP POP POP POP POP JUMP JUMPDEST PUSH2 0xF3A DUP1 PUSH2 0x533 PUSH0 CODECOPY PUSH0 RETURN INVALID PUSH1 0x80 PUSH1 0x40 MSTORE PUSH1 0x4 CALLDATASIZE LT PUSH2 0x90 JUMPI PUSH0 CALLDATALOAD PUSH1 0xE0 SHR DUP1 PUSH4 0x2636B945 GT PUSH2 0x58 JUMPI DUP1 PUSH4 0x2636B945 EQ PUSH2 0x152 JUMPI DUP1 PUSH4 0x29DCB0CF EQ PUSH2 0x17C JUMPI DUP1 PUSH4 0x3FEB5F2B EQ PUSH2 0x1A6 JUMPI DUP1 PUSH4 0x8DA5CB5B EQ PUSH2 0x1E3 JUMPI DUP1 PUSH4 0xB60D4288 EQ PUSH2 0x20D JUMPI PUSH2 0x90 JUMP JUMPDEST DUP1 PUSH4 0x1CB3B20 EQ PUSH2 0x94 JUMPI DUP1 PUSH4 0x12FA6FEB EQ PUSH2 0xAA JUMPI DUP1 PUSH4 0x132AE5E9 EQ PUSH2 0xD4 JUMPI DUP1 PUSH4 0x1A39D8EF EQ PUSH2 0xFE JUMPI DUP1 PUSH4 0x200D2ED2 EQ PUSH2 0x128 JUMPI JUMPDEST PUSH0 DUP1 REVERT JUMPDEST CALLVALUE DUP1 ISZERO PUSH2 0x9F JUMPI PUSH0 DUP1 REVERT JUMPDEST POP PUSH2 0xA8 PUSH2 0x217 JUMP JUMPDEST STOP JUMPDEST CALLVALUE DUP1 ISZERO PUSH2 0xB5 JUMPI PUSH0 DUP1 REVERT JUMPDEST POP PUSH2 0xBE PUSH2 0x4FD JUMP JUMPDEST PUSH1 0x40 MLOAD PUSH2 0xCB SWAP2 SWAP1 PUSH2 0x787 JUMP JUMPDEST PUSH1 0x40 MLOAD DUP1 SWAP2 SUB SWAP1 RETURN JUMPDEST CALLVALUE DUP1 ISZERO PUSH2 0xDF JUMPI PUSH0 DUP1 REVERT JUMPDEST POP PUSH2 0xE8 PUSH2 0x50F JUMP JUMPDEST PUSH1 0x40 MLOAD PUSH2 0xF5 SWAP2 SWAP1 PUSH2 0x7B8 JUMP JUMPDEST PUSH1 0x40 MLOAD DUP1 SWAP2 SUB SWAP1 RETURN JUMPDEST CALLVALUE DUP1 ISZERO PUSH2 0x109 JUMPI PUSH0 DUP1 REVERT JUMPDEST POP PUSH2 0x112 PUSH2 0x515 JUMP JUMPDEST PUSH1 0x40 MLOAD PUSH2 0x11F SWAP2 SWAP1 PUSH2 0x7B8 JUMP JUMPDEST PUSH1 0x40 MLOAD DUP1 SWAP2 SUB SWAP1 RETURN JUMPDEST CALLVALUE DUP1 ISZERO PUSH2 0x133 JUMPI PUSH0 DUP1 REVERT JUMPDEST POP PUSH2 0x13C PUSH2 0x51B JUMP JUMPDEST PUSH1 0x40 MLOAD PUSH2 0x149 SWAP2 SWAP1 PUSH2 0x841 JUMP JUMPDEST PUSH1 0x40 MLOAD DUP1 SWAP2 SUB SWAP1 RETURN JUMPDEST CALLVALUE DUP1 ISZERO PUSH2 0x15D JUMPI PUSH0 DUP1 REVERT JUMPDEST POP PUSH2 0x166 PUSH2 0x5A7 JUMP JUMPDEST PUSH1 0x40 MLOAD PUSH2 0x173 SWAP2 SWAP1 PUSH2 0x7B8 JUMP JUMPDEST PUSH1 0x40 MLOAD DUP1 SWAP2 SUB SWAP1 RETURN JUMPDEST CALLVALUE DUP1 ISZERO PUSH2 0x187 JUMPI PUSH0 DUP1 REVERT JUMPDEST POP PUSH2 0x190 PUSH2 0x5AD JUMP JUMPDEST PUSH1 0x40 MLOAD PUSH2 0x19D SWAP2 SWAP1 PUSH2 0x7B8 JUMP JUMPDEST PUSH1 0x40 MLOAD DUP1 SWAP2 SUB SWAP1 RETURN JUMPDEST CALLVALUE DUP1 ISZERO PUSH2 0x1B1 JUMPI PUSH0 DUP1 REVERT JUMPDEST POP PUSH2 0x1CC PUSH1 0x4 DUP1 CALLDATASIZE SUB DUP2 ADD SWAP1 PUSH2 0x1C7 SWAP2 SWAP1 PUSH2 0x88F JUMP JUMPDEST PUSH2 0x5B3 JUMP JUMPDEST PUSH1 0x40 MLOAD PUSH2 0x1DA SWAP3 SWAP2 SWAP1 PUSH2 0x8F9 JUMP JUMPDEST PUSH1 0x40 MLOAD DUP1 SWAP2 SUB SWAP1 RETURN JUMPDEST CALLVALUE DUP1 ISZERO PUSH2 0x1EE JUMPI PUSH0 DUP1 REVERT JUMPDEST POP PUSH2 0x1F7 PUSH2 0x5F1 JUMP JUMPDEST PUSH1 0x40 MLOAD PUSH2 0x204 SWAP2 SWAP1 PUSH2 0x920 JUMP JUMPDEST PUSH1 0x40 MLOAD DUP1 SWAP2 SUB SWAP1 RETURN JUMPDEST PUSH2 0x215 PUSH2 0x616 JUMP JUMPDEST STOP JUMPDEST PUSH1 0x1 PUSH0 SWAP1 SLOAD SWAP1 PUSH2 0x100 EXP SWAP1 DIV PUSH20 0xFFFFFFFFFFFFFFFFFFFFFFFFFFFFFFFFFFFFFFFF AND PUSH20 0xFFFFFFFFFFFFFFFFFFFFFFFFFFFFFFFFFFFFFFFF AND CALLER PUSH20 0xFFFFFFFFFFFFFFFFFFFFFFFFFFFFFFFFFFFFFFFF AND EQ PUSH2 0x2A6 JUMPI PUSH1 0x40 MLOAD PUSH32 0x8C379A000000000000000000000000000000000000000000000000000000000 DUP2 MSTORE PUSH1 0x4 ADD PUSH2 0x29D SWAP1 PUSH2 0x9A9 JUMP JUMPDEST PUSH1 0x40 MLOAD DUP1 SWAP2 SUB SWAP1 REVERT JUMPDEST PUSH0 ISZERO ISZERO PUSH1 0x5 PUSH0 SWAP1 SLOAD SWAP1 PUSH2 0x100 EXP SWAP1 DIV PUSH1 0xFF AND ISZERO ISZERO EQ PUSH2 0x2FA JUMPI PUSH1 0x40 MLOAD PUSH32 0x8C379A000000000000000000000000000000000000000000000000000000000 DUP2 MSTORE PUSH1 0x4 ADD PUSH2 0x2F1 SWAP1 PUSH2 0xA11 JUMP JUMPDEST PUSH1 0x40 MLOAD DUP1 SWAP2 SUB SWAP1 REVERT JUMPDEST PUSH1 0x3 SLOAD TIMESTAMP LT ISZERO PUSH2 0x33F JUMPI PUSH1 0x40 MLOAD PUSH32 0x8C379A000000000000000000000000000000000000000000000000000000000 DUP2 MSTORE PUSH1 0x4 ADD PUSH2 0x336 SWAP1 PUSH2 0xA79 JUMP JUMPDEST PUSH1 0x40 MLOAD DUP1 SWAP2 SUB SWAP1 REVERT JUMPDEST PUSH1 0x6 SLOAD PUSH1 0x7 SLOAD LT PUSH2 0x3F9 JUMPI PUSH1 0x1 PUSH0 SWAP1 SLOAD SWAP1 PUSH2 0x100 EXP SWAP1 DIV PUSH20 0xFFFFFFFFFFFFFFFFFFFFFFFFFFFFFFFFFFFFFFFF AND PUSH20 0xFFFFFFFFFFFFFFFFFFFFFFFFFFFFFFFFFFFFFFFF AND PUSH2 0x8FC SELFBALANCE SWAP1 DUP2 ISZERO MUL SWAP1 PUSH1 0x40 MLOAD PUSH0 PUSH1 0x40 MLOAD DUP1 DUP4 SUB DUP2 DUP6 DUP9 DUP9 CALL SWAP4 POP POP POP POP ISZERO DUP1 ISZERO PUSH2 0x3AE JUMPI RETURNDATASIZE PUSH0 DUP1 RETURNDATACOPY RETURNDATASIZE PUSH0 REVERT JUMPDEST POP PUSH1 0x40 MLOAD DUP1 PUSH1 0x40 ADD PUSH1 0x40 MSTORE DUP1 PUSH1 0x12 DUP2 MSTORE PUSH1 0x20 ADD PUSH32 0x43616D706169676E205375636365656465640000000000000000000000000000 DUP2 MSTORE POP PUSH1 0x4 SWAP1 DUP2 PUSH2 0x3F3 SWAP2 SWAP1 PUSH2 0xCBE JUMP JUMPDEST POP PUSH2 0x4E1 JUMP JUMPDEST PUSH0 JUMPDEST PUSH1 0x2 SLOAD DUP2 LT ISZERO PUSH2 0x49A JUMPI PUSH0 DUP1 DUP3 DUP2 MSTORE PUSH1 0x20 ADD SWAP1 DUP2 MSTORE PUSH1 0x20 ADD PUSH0 KECCAK256 PUSH0 ADD PUSH0 SWAP1 SLOAD SWAP1 PUSH2 0x100 EXP SWAP1 DIV PUSH20 0xFFFFFFFFFFFFFFFFFFFFFFFFFFFFFFFFFFFFFFFF AND PUSH20 0xFFFFFFFFFFFFFFFFFFFFFFFFFFFFFFFFFFFFFFFF AND PUSH2 0x8FC PUSH0 DUP1 DUP5 DUP2 MSTORE PUSH1 0x20 ADD SWAP1 DUP2 MSTORE PUSH1 0x20 ADD PUSH0 KECCAK256 PUSH1 0x1 ADD SLOAD SWAP1 DUP2 ISZERO MUL SWAP1 PUSH1 0x40 MLOAD PUSH0 PUSH1 0x40 MLOAD DUP1 DUP4 SUB DUP2 DUP6 DUP9 DUP9 CALL SWAP4 POP POP POP POP ISZERO DUP1 ISZERO PUSH2 0x48C JUMPI RETURNDATASIZE PUSH0 DUP1 RETURNDATACOPY RETURNDATASIZE PUSH0 REVERT JUMPDEST POP DUP1 DUP1 PUSH1 0x1 ADD SWAP2 POP POP PUSH2 0x3FB JUMP JUMPDEST POP PUSH1 0x40 MLOAD DUP1 PUSH1 0x40 ADD PUSH1 0x40 MSTORE DUP1 PUSH1 0xF DUP2 MSTORE PUSH1 0x20 ADD PUSH32 0x43616D706169676E204661696C65640000000000000000000000000000000000 DUP2 MSTORE POP PUSH1 0x4 SWAP1 DUP2 PUSH2 0x4DF SWAP2 SWAP1 PUSH2 0xCBE JUMP JUMPDEST POP JUMPDEST PUSH1 0x1 PUSH1 0x5 PUSH0 PUSH2 0x100 EXP DUP2 SLOAD DUP2 PUSH1 0xFF MUL NOT AND SWAP1 DUP4 ISZERO ISZERO MUL OR SWAP1 SSTORE POP JUMP JUMPDEST PUSH1 0x5 PUSH0 SWAP1 SLOAD SWAP1 PUSH2 0x100 EXP SWAP1 DIV PUSH1 0xFF AND DUP2 JUMP JUMPDEST PUSH1 0x2 SLOAD DUP2 JUMP JUMPDEST PUSH1 0x7 SLOAD DUP2 JUMP JUMPDEST PUSH1 0x4 DUP1 SLOAD PUSH2 0x528 SWAP1 PUSH2 0xAF1 JUMP JUMPDEST DUP1 PUSH1 0x1F ADD PUSH1 0x20 DUP1 SWAP2 DIV MUL PUSH1 0x20 ADD PUSH1 0x40 MLOAD SWAP1 DUP2 ADD PUSH1 0x40 MSTORE DUP1 SWAP3 SWAP2 SWAP1 DUP2 DUP2 MSTORE PUSH1 0x20 ADD DUP3 DUP1 SLOAD PUSH2 0x554 SWAP1 PUSH2 0xAF1 JUMP JUMPDEST DUP1 ISZERO PUSH2 0x59F JUMPI DUP1 PUSH1 0x1F LT PUSH2 0x576 JUMPI PUSH2 0x100 DUP1 DUP4 SLOAD DIV MUL DUP4 MSTORE SWAP2 PUSH1 0x20 ADD SWAP2 PUSH2 0x59F JUMP JUMPDEST DUP3 ADD SWAP2 SWAP1 PUSH0 MSTORE PUSH1 0x20 PUSH0 KECCAK256 SWAP1 JUMPDEST DUP2 SLOAD DUP2 MSTORE SWAP1 PUSH1 0x1 ADD SWAP1 PUSH1 0x20 ADD DUP1 DUP4 GT PUSH2 0x582 JUMPI DUP3 SWAP1 SUB PUSH1 0x1F AND DUP3 ADD SWAP2 JUMPDEST POP POP POP POP POP DUP2 JUMP JUMPDEST PUSH1 0x6 SLOAD DUP2 JUMP JUMPDEST PUSH1 0x3 SLOAD DUP2 JUMP JUMPDEST PUSH0 PUSH1 0x20 MSTORE DUP1 PUSH0 MSTORE PUSH1 0x40 PUSH0 KECCAK256 PUSH0 SWAP2 POP SWAP1 POP DUP1 PUSH0 ADD PUSH0 SWAP1 SLOAD SWAP1 PUSH2 0x100 EXP SWAP1 DIV PUSH20 0xFFFFFFFFFFFFFFFFFFFFFFFFFFFFFFFFFFFFFFFF AND SWAP1 DUP1 PUSH1 0x1 ADD SLOAD SWAP1 POP DUP3 JUMP JUMPDEST PUSH1 0x1 PUSH0 SWAP1 SLOAD SWAP1 PUSH2 0x100 EXP SWAP1 DIV PUSH20 0xFFFFFFFFFFFFFFFFFFFFFFFFFFFFFFFFFFFFFFFF AND DUP2 JUMP JUMPDEST PUSH0 ISZERO ISZERO PUSH1 0x5 PUSH0 SWAP1 SLOAD SWAP1 PUSH2 0x100 EXP SWAP1 DIV PUSH1 0xFF AND ISZERO ISZERO EQ PUSH2 0x66A JUMPI PUSH1 0x40 MLOAD PUSH32 0x8C379A000000000000000000000000000000000000000000000000000000000 DUP2 MSTORE PUSH1 0x4 ADD PUSH2 0x661 SWAP1 PUSH2 0xDD7 JUMP JUMPDEST PUSH1 0x40 MLOAD DUP1 SWAP2 SUB SWAP1 REVERT JUMPDEST PUSH1 0x3 SLOAD TIMESTAMP LT PUSH2 0x6AE JUMPI PUSH1 0x40 MLOAD PUSH32 0x8C379A000000000000000000000000000000000000000000000000000000000 DUP2 MSTORE PUSH1 0x4 ADD PUSH2 0x6A5 SWAP1 PUSH2 0xE3F JUMP JUMPDEST PUSH1 0x40 MLOAD DUP1 SWAP2 SUB SWAP1 REVERT JUMPDEST PUSH1 0x40 MLOAD DUP1 PUSH1 0x40 ADD PUSH1 0x40 MSTORE DUP1 CALLER PUSH20 0xFFFFFFFFFFFFFFFFFFFFFFFFFFFFFFFFFFFFFFFF AND DUP2 MSTORE PUSH1 0x20 ADD CALLVALUE DUP2 MSTORE POP PUSH0 DUP1 PUSH1 0x2 SLOAD DUP2 MSTORE PUSH1 0x20 ADD SWAP1 DUP2 MSTORE PUSH1 0x20 ADD PUSH0 KECCAK256 PUSH0 DUP3 ADD MLOAD DUP2 PUSH0 ADD PUSH0 PUSH2 0x100 EXP DUP2 SLOAD DUP2 PUSH20 0xFFFFFFFFFFFFFFFFFFFFFFFFFFFFFFFFFFFFFFFF MUL NOT AND SWAP1 DUP4 PUSH20 0xFFFFFFFFFFFFFFFFFFFFFFFFFFFFFFFFFFFFFFFF AND MUL OR SWAP1 SSTORE POP PUSH1 0x20 DUP3 ADD MLOAD DUP2 PUSH1 0x1 ADD SSTORE SWAP1 POP POP PUSH1 0x2 PUSH0 DUP2 SLOAD DUP1 SWAP3 SWAP2 SWAP1 PUSH2 0x74E SWAP1 PUSH2 0xE8A JUMP JUMPDEST SWAP2 SWAP1 POP SSTORE POP CALLVALUE PUSH1 0x7 PUSH0 DUP3 DUP3 SLOAD PUSH2 0x764 SWAP2 SWAP1 PUSH2 0xED1 JUMP JUMPDEST SWAP3 POP POP DUP2 SWAP1 SSTORE POP JUMP JUMPDEST PUSH0 DUP2 ISZERO ISZERO SWAP1 POP SWAP2 SWAP1 POP JUMP JUMPDEST PUSH2 0x781 DUP2 PUSH2 0x76D JUMP JUMPDEST DUP3 MSTORE POP POP JUMP JUMPDEST PUSH0 PUSH1 0x20 DUP3 ADD SWAP1 POP PUSH2 0x79A PUSH0 DUP4 ADD DUP5 PUSH2 0x778 JUMP JUMPDEST SWAP3 SWAP2 POP POP JUMP JUMPDEST PUSH0 DUP2 SWAP1 POP SWAP2 SWAP1 POP JUMP JUMPDEST PUSH2 0x7B2 DUP2 PUSH2 0x7A0 JUMP JUMPDEST DUP3 MSTORE POP POP JUMP JUMPDEST PUSH0 PUSH1 0x20 DUP3 ADD SWAP1 POP PUSH2 0x7CB PUSH0 DUP4 ADD DUP5 PUSH2 0x7A9 JUMP JUMPDEST SWAP3 SWAP2 POP POP JUMP JUMPDEST PUSH0 DUP2 MLOAD SWAP1 POP SWAP2 SWAP1 POP JUMP JUMPDEST PUSH0 DUP3 DUP3 MSTORE PUSH1 0x20 DUP3 ADD SWAP1 POP SWAP3 SWAP2 POP POP JUMP JUMPDEST DUP3 DUP2 DUP4 MCOPY PUSH0 DUP4 DUP4 ADD MSTORE POP POP POP JUMP JUMPDEST PUSH0 PUSH1 0x1F NOT PUSH1 0x1F DUP4 ADD AND SWAP1 POP SWAP2 SWAP1 POP JUMP JUMPDEST PUSH0 PUSH2 0x813 DUP3 PUSH2 0x7D1 JUMP JUMPDEST PUSH2 0x81D DUP2 DUP6 PUSH2 0x7DB JUMP JUMPDEST SWAP4 POP PUSH2 0x82D DUP2 DUP6 PUSH1 0x20 DUP7 ADD PUSH2 0x7EB JUMP JUMPDEST PUSH2 0x836 DUP2 PUSH2 0x7F9 JUMP JUMPDEST DUP5 ADD SWAP2 POP POP SWAP3 SWAP2 POP POP JUMP JUMPDEST PUSH0 PUSH1 0x20 DUP3 ADD SWAP1 POP DUP2 DUP2 SUB PUSH0 DUP4 ADD MSTORE PUSH2 0x859 DUP2 DUP5 PUSH2 0x809 JUMP JUMPDEST SWAP1 POP SWAP3 SWAP2 POP POP JUMP JUMPDEST PUSH0 DUP1 REVERT JUMPDEST PUSH2 0x86E DUP2 PUSH2 0x7A0 JUMP JUMPDEST DUP2 EQ PUSH2 0x878 JUMPI PUSH0 DUP1 REVERT JUMPDEST POP JUMP JUMPDEST PUSH0 DUP2 CALLDATALOAD SWAP1 POP PUSH2 0x889 DUP2 PUSH2 0x865 JUMP JUMPDEST SWAP3 SWAP2 POP POP JUMP JUMPDEST PUSH0 PUSH1 0x20 DUP3 DUP5 SUB SLT ISZERO PUSH2 0x8A4 JUMPI PUSH2 0x8A3 PUSH2 0x861 JUMP JUMPDEST JUMPDEST PUSH0 PUSH2 0x8B1 DUP5 DUP3 DUP6 ADD PUSH2 0x87B JUMP JUMPDEST SWAP2 POP POP SWAP3 SWAP2 POP POP JUMP JUMPDEST PUSH0 PUSH20 0xFFFFFFFFFFFFFFFFFFFFFFFFFFFFFFFFFFFFFFFF DUP3 AND SWAP1 POP SWAP2 SWAP1 POP JUMP JUMPDEST PUSH0 PUSH2 0x8E3 DUP3 PUSH2 0x8BA JUMP JUMPDEST SWAP1 POP SWAP2 SWAP1 POP JUMP JUMPDEST PUSH2 0x8F3 DUP2 PUSH2 0x8D9 JUMP JUMPDEST DUP3 MSTORE POP POP JUMP JUMPDEST PUSH0 PUSH1 0x40 DUP3 ADD SWAP1 POP PUSH2 0x90C PUSH0 DUP4 ADD DUP6 PUSH2 0x8EA JUMP JUMPDEST PUSH2 0x919 PUSH1 0x20 DUP4 ADD DUP5 PUSH2 0x7A9 JUMP JUMPDEST SWAP4 SWAP3 POP POP POP JUMP JUMPDEST PUSH0 PUSH1 0x20 DUP3 ADD SWAP1 POP PUSH2 0x933 PUSH0 DUP4 ADD DUP5 PUSH2 0x8EA JUMP JUMPDEST SWAP3 SWAP2 POP POP JUMP JUMPDEST PUSH32 0x4F6E6C79206F776E65722063616E2063616C6C20746869732066756E6374696F PUSH0 DUP3 ADD MSTORE PUSH32 0x6E00000000000000000000000000000000000000000000000000000000000000 PUSH1 0x20 DUP3 ADD MSTORE POP JUMP JUMPDEST PUSH0 PUSH2 0x993 PUSH1 0x21 DUP4 PUSH2 0x7DB JUMP JUMPDEST SWAP2 POP PUSH2 0x99E DUP3 PUSH2 0x939 JUMP JUMPDEST PUSH1 0x40 DUP3 ADD SWAP1 POP SWAP2 SWAP1 POP JUMP JUMPDEST PUSH0 PUSH1 0x20 DUP3 ADD SWAP1 POP DUP2 DUP2 SUB PUSH0 DUP4 ADD MSTORE PUSH2 0x9C0 DUP2 PUSH2 0x987 JUMP JUMPDEST SWAP1 POP SWAP2 SWAP1 POP JUMP JUMPDEST PUSH32 0x43726F776466756E64696E672068617320616C726561647920656E6465640000 PUSH0 DUP3 ADD MSTORE POP JUMP JUMPDEST PUSH0 PUSH2 0x9FB PUSH1 0x1E DUP4 PUSH2 0x7DB JUMP JUMPDEST SWAP2 POP PUSH2 0xA06 DUP3 PUSH2 0x9C7 JUMP JUMPDEST PUSH1 0x20 DUP3 ADD SWAP1 POP SWAP2 SWAP1 POP JUMP JUMPDEST PUSH0 PUSH1 0x20 DUP3 ADD SWAP1 POP DUP2 DUP2 SUB PUSH0 DUP4 ADD MSTORE PUSH2 0xA28 DUP2 PUSH2 0x9EF JUMP JUMPDEST SWAP1 POP SWAP2 SWAP1 POP JUMP JUMPDEST PUSH32 0x446561646C696E6520686173206E6F7420706173736564207965740000000000 PUSH0 DUP3 ADD MSTORE POP JUMP JUMPDEST PUSH0 PUSH2 0xA63 PUSH1 0x1B DUP4 PUSH2 0x7DB JUMP JUMPDEST SWAP2 POP PUSH2 0xA6E DUP3 PUSH2 0xA2F JUMP JUMPDEST PUSH1 0x20 DUP3 ADD SWAP1 POP SWAP2 SWAP1 POP JUMP JUMPDEST PUSH0 PUSH1 0x20 DUP3 ADD SWAP1 POP DUP2 DUP2 SUB PUSH0 DUP4 ADD MSTORE PUSH2 0xA90 DUP2 PUSH2 0xA57 JUMP JUMPDEST SWAP1 POP SWAP2 SWAP1 POP JUMP JUMPDEST PUSH32 0x4E487B7100000000000000000000000000000000000000000000000000000000 PUSH0 MSTORE PUSH1 0x41 PUSH1 0x4 MSTORE PUSH1 0x24 PUSH0 REVERT JUMPDEST PUSH32 0x4E487B7100000000000000000000000000000000000000000000000000000000 PUSH0 MSTORE PUSH1 0x22 PUSH1 0x4 MSTORE PUSH1 0x24 PUSH0 REVERT JUMPDEST PUSH0 PUSH1 0x2 DUP3 DIV SWAP1 POP PUSH1 0x1 DUP3 AND DUP1 PUSH2 0xB08 JUMPI PUSH1 0x7F DUP3 AND SWAP2 POP JUMPDEST PUSH1 0x20 DUP3 LT DUP2 SUB PUSH2 0xB1B JUMPI PUSH2 0xB1A PUSH2 0xAC4 JUMP JUMPDEST JUMPDEST POP SWAP2 SWAP1 POP JUMP JUMPDEST PUSH0 DUP2 SWAP1 POP DUP2 PUSH0 MSTORE PUSH1 0x20 PUSH0 KECCAK256 SWAP1 POP SWAP2 SWAP1 POP JUMP JUMPDEST PUSH0 PUSH1 0x20 PUSH1 0x1F DUP4 ADD DIV SWAP1 POP SWAP2 SWAP1 POP JUMP JUMPDEST PUSH0 DUP3 DUP3 SHL SWAP1 POP SWAP3 SWAP2 POP POP JUMP JUMPDEST PUSH0 PUSH1 0x8 DUP4 MUL PUSH2 0xB7D PUSH32 0xFFFFFFFFFFFFFFFFFFFFFFFFFFFFFFFFFFFFFFFFFFFFFFFFFFFFFFFFFFFFFFFF DUP3 PUSH2 0xB42 JUMP JUMPDEST PUSH2 0xB87 DUP7 DUP4 PUSH2 0xB42 JUMP JUMPDEST SWAP6 POP DUP1 NOT DUP5 AND SWAP4 POP DUP1 DUP7 AND DUP5 OR SWAP3 POP POP POP SWAP4 SWAP3 POP POP POP JUMP JUMPDEST PUSH0 DUP2 SWAP1 POP SWAP2 SWAP1 POP JUMP JUMPDEST PUSH0 PUSH2 0xBC2 PUSH2 0xBBD PUSH2 0xBB8 DUP5 PUSH2 0x7A0 JUMP JUMPDEST PUSH2 0xB9F JUMP JUMPDEST PUSH2 0x7A0 JUMP JUMPDEST SWAP1 POP SWAP2 SWAP1 POP JUMP JUMPDEST PUSH0 DUP2 SWAP1 POP SWAP2 SWAP1 POP JUMP JUMPDEST PUSH2 0xBDB DUP4 PUSH2 0xBA8 JUMP JUMPDEST PUSH2 0xBEF PUSH2 0xBE7 DUP3 PUSH2 0xBC9 JUMP JUMPDEST DUP5 DUP5 SLOAD PUSH2 0xB4E JUMP JUMPDEST DUP3 SSTORE POP POP POP POP JUMP JUMPDEST PUSH0 SWAP1 JUMP JUMPDEST PUSH2 0xC03 PUSH2 0xBF7 JUMP JUMPDEST PUSH2 0xC0E DUP2 DUP5 DUP5 PUSH2 0xBD2 JUMP JUMPDEST POP POP POP JUMP JUMPDEST JUMPDEST DUP2 DUP2 LT ISZERO PUSH2 0xC31 JUMPI PUSH2 0xC26 PUSH0 DUP3 PUSH2 0xBFB JUMP JUMPDEST PUSH1 0x1 DUP2 ADD SWAP1 POP PUSH2 0xC14 JUMP JUMPDEST POP POP JUMP JUMPDEST PUSH1 0x1F DUP3 GT ISZERO PUSH2 0xC76 JUMPI PUSH2 0xC47 DUP2 PUSH2 0xB21 JUMP JUMPDEST PUSH2 0xC50 DUP5 PUSH2 0xB33 JUMP JUMPDEST DUP2 ADD PUSH1 0x20 DUP6 LT ISZERO PUSH2 0xC5F JUMPI DUP2 SWAP1 POP JUMPDEST PUSH2 0xC73 PUSH2 0xC6B DUP6 PUSH2 0xB33 JUMP JUMPDEST DUP4 ADD DUP3 PUSH2 0xC13 JUMP JUMPDEST POP POP JUMPDEST POP POP POP JUMP JUMPDEST PUSH0 DUP3 DUP3 SHR SWAP1 POP SWAP3 SWAP2 POP POP JUMP JUMPDEST PUSH0 PUSH2 0xC96 PUSH0 NOT DUP5 PUSH1 0x8 MUL PUSH2 0xC7B JUMP JUMPDEST NOT DUP1 DUP4 AND SWAP2 POP POP SWAP3 SWAP2 POP POP JUMP JUMPDEST PUSH0 PUSH2 0xCAE DUP4 DUP4 PUSH2 0xC87 JUMP JUMPDEST SWAP2 POP DUP3 PUSH1 0x2 MUL DUP3 OR SWAP1 POP SWAP3 SWAP2 POP POP JUMP JUMPDEST PUSH2 0xCC7 DUP3 PUSH2 0x7D1 JUMP JUMPDEST PUSH8 0xFFFFFFFFFFFFFFFF DUP2 GT ISZERO PUSH2 0xCE0 JUMPI PUSH2 0xCDF PUSH2 0xA97 JUMP JUMPDEST JUMPDEST PUSH2 0xCEA DUP3 SLOAD PUSH2 0xAF1 JUMP JUMPDEST PUSH2 0xCF5 DUP3 DUP3 DUP6 PUSH2 0xC35 JUMP JUMPDEST PUSH0 PUSH1 0x20 SWAP1 POP PUSH1 0x1F DUP4 GT PUSH1 0x1 DUP2 EQ PUSH2 0xD26 JUMPI PUSH0 DUP5 ISZERO PUSH2 0xD14 JUMPI DUP3 DUP8 ADD MLOAD SWAP1 POP JUMPDEST PUSH2 0xD1E DUP6 DUP3 PUSH2 0xCA3 JUMP JUMPDEST DUP7 SSTORE POP PUSH2 0xD85 JUMP JUMPDEST PUSH1 0x1F NOT DUP5 AND PUSH2 0xD34 DUP7 PUSH2 0xB21 JUMP JUMPDEST PUSH0 JUMPDEST DUP3 DUP2 LT ISZERO PUSH2 0xD5B JUMPI DUP5 DUP10 ADD MLOAD DUP3 SSTORE PUSH1 0x1 DUP3 ADD SWAP2 POP PUSH1 0x20 DUP6 ADD SWAP5 POP PUSH1 0x20 DUP2 ADD SWAP1 POP PUSH2 0xD36 JUMP JUMPDEST DUP7 DUP4 LT ISZERO PUSH2 0xD78 JUMPI DUP5 DUP10 ADD MLOAD PUSH2 0xD74 PUSH1 0x1F DUP10 AND DUP3 PUSH2 0xC87 JUMP JUMPDEST DUP4 SSTORE POP JUMPDEST PUSH1 0x1 PUSH1 0x2 DUP9 MUL ADD DUP9 SSTORE POP POP POP JUMPDEST POP POP POP POP POP POP JUMP JUMPDEST PUSH32 0x43726F776466756E64696E672068617320656E64656400000000000000000000 PUSH0 DUP3 ADD MSTORE POP JUMP JUMPDEST PUSH0 PUSH2 0xDC1 PUSH1 0x16 DUP4 PUSH2 0x7DB JUMP JUMPDEST SWAP2 POP PUSH2 0xDCC DUP3 PUSH2 0xD8D JUMP JUMPDEST PUSH1 0x20 DUP3 ADD SWAP1 POP SWAP2 SWAP1 POP JUMP JUMPDEST PUSH0 PUSH1 0x20 DUP3 ADD SWAP1 POP DUP2 DUP2 SUB PUSH0 DUP4 ADD MSTORE PUSH2 0xDEE DUP2 PUSH2 0xDB5 JUMP JUMPDEST SWAP1 POP SWAP2 SWAP1 POP JUMP JUMPDEST PUSH32 0x446561646C696E65206861732070617373656400000000000000000000000000 PUSH0 DUP3 ADD MSTORE POP JUMP JUMPDEST PUSH0 PUSH2 0xE29 PUSH1 0x13 DUP4 PUSH2 0x7DB JUMP JUMPDEST SWAP2 POP PUSH2 0xE34 DUP3 PUSH2 0xDF5 JUMP JUMPDEST PUSH1 0x20 DUP3 ADD SWAP1 POP SWAP2 SWAP1 POP JUMP JUMPDEST PUSH0 PUSH1 0x20 DUP3 ADD SWAP1 POP DUP2 DUP2 SUB PUSH0 DUP4 ADD MSTORE PUSH2 0xE56 DUP2 PUSH2 0xE1D JUMP JUMPDEST SWAP1 POP SWAP2 SWAP1 POP JUMP JUMPDEST PUSH32 0x4E487B7100000000000000000000000000000000000000000000000000000000 PUSH0 MSTORE PUSH1 0x11 PUSH1 0x4 MSTORE PUSH1 0x24 PUSH0 REVERT JUMPDEST PUSH0 PUSH2 0xE94 DUP3 PUSH2 0x7A0 JUMP JUMPDEST SWAP2 POP PUSH32 0xFFFFFFFFFFFFFFFFFFFFFFFFFFFFFFFFFFFFFFFFFFFFFFFFFFFFFFFFFFFFFFFF DUP3 SUB PUSH2 0xEC6 JUMPI PUSH2 0xEC5 PUSH2 0xE5D JUMP JUMPDEST JUMPDEST PUSH1 0x1 DUP3 ADD SWAP1 POP SWAP2 SWAP1 POP JUMP JUMPDEST PUSH0 PUSH2 0xEDB DUP3 PUSH2 0x7A0 JUMP JUMPDEST SWAP2 POP PUSH2 0xEE6 DUP4 PUSH2 0x7A0 JUMP JUMPDEST SWAP3 POP DUP3 DUP3 ADD SWAP1 POP DUP1 DUP3 GT ISZERO PUSH2 0xEFE JUMPI PUSH2 0xEFD PUSH2 0xE5D JUMP JUMPDEST JUMPDEST SWAP3 SWAP2 POP POP JUMP INVALID LOG2 PUSH5 0x6970667358 0x22 SLT KECCAK256 SIGNEXTEND JUMPDEST DUP15 PUSH29 0xB70EA4187B1CD76A068B67BECB104CC01F936509D678C6E6F9CA4AD864 PUSH20 0x6F6C634300081A00330000000000000000000000 "
		},
		"gasEstimates": {
			"creation": {
				"codeDepositCost": "779600",
				"executionCost": "infinite",
				"totalCost": "infinite"
			},
			"external": {
				"checkGoalReached()": "infinite",
				"deadline()": "2447",
				"ended()": "2489",
				"fund()": "infinite",
				"goalAmount()": "2425",
				"investors(uint256)": "infinite",
				"numInvestors()": "2470",
				"owner()": "2574",
				"status()": "infinite",
				"totalAmount()": "2492"
			}
		},
		"methodIdentifiers": {
			"checkGoalReached()": "01cb3b20",
			"deadline()": "29dcb0cf",
			"ended()": "12fa6feb",
			"fund()": "b60d4288",
			"goalAmount()": "2636b945",
			"investors(uint256)": "3feb5f2b",
			"numInvestors()": "132ae5e9",
			"owner()": "8da5cb5b",
			"status()": "200d2ed2",
			"totalAmount()": "1a39d8ef"
		}
	},
	"abi": [
		{
			"inputs": [
				{
					"internalType": "uint256",
					"name": "_duration",
					"type": "uint256"
				},
				{
					"internalType": "uint256",
					"name": "_goalAmount",
					"type": "uint256"
				}
			],
			"stateMutability": "nonpayable",
			"type": "constructor"
		},
		{
			"inputs": [],
			"name": "checkGoalReached",
			"outputs": [],
			"stateMutability": "nonpayable",
			"type": "function"
		},
		{
			"inputs": [],
			"name": "deadline",
			"outputs": [
				{
					"internalType": "uint256",
					"name": "",
					"type": "uint256"
				}
			],
			"stateMutability": "view",
			"type": "function"
		},
		{
			"inputs": [],
			"name": "ended",
			"outputs": [
				{
					"internalType": "bool",
					"name": "",
					"type": "bool"
				}
			],
			"stateMutability": "view",
			"type": "function"
		},
		{
			"inputs": [],
			"name": "fund",
			"outputs": [],
			"stateMutability": "payable",
			"type": "function"
		},
		{
			"inputs": [],
			"name": "goalAmount",
			"outputs": [
				{
					"internalType": "uint256",
					"name": "",
					"type": "uint256"
				}
			],
			"stateMutability": "view",
			"type": "function"
		},
		{
			"inputs": [
				{
					"internalType": "uint256",
					"name": "",
					"type": "uint256"
				}
			],
			"name": "investors",
			"outputs": [
				{
					"internalType": "address",
					"name": "addr",
					"type": "address"
				},
				{
					"internalType": "uint256",
					"name": "amount",
					"type": "uint256"
				}
			],
			"stateMutability": "view",
			"type": "function"
		},
		{
			"inputs": [],
			"name": "numInvestors",
			"outputs": [
				{
					"internalType": "uint256",
					"name": "",
					"type": "uint256"
				}
			],
			"stateMutability": "view",
			"type": "function"
		},
		{
			"inputs": [],
			"name": "owner",
			"outputs": [
				{
					"internalType": "address",
					"name": "",
					"type": "address"
				}
			],
			"stateMutability": "view",
			"type": "function"
		},
		{
			"inputs": [],
			"name": "status",
			"outputs": [
				{
					"internalType": "string",
					"name": "",
					"type": "string"
				}
			],
			"stateMutability": "view",
			"type": "function"
		},
		{
			"inputs": [],
			"name": "totalAmount",
			"outputs": [
				{
					"internalType": "uint256",
					"name": "",
					"type": "uint256"
				}
			],
			"stateMutability": "view",
			"type": "function"
		}
	]
}