{
	"data": {
		"bytecode": {
			"linkReferences": {},
			"object": "608060405260076000556003600155600a60025560016003556001600455601960055534801561002e57600080fd5b5060d18061003d6000396000f3fe6080604052348015600f57600080fd5b506004361060285760003560e01c8063980a67fd14602d575b600080fd5b6033606c565b60405180878152602001868152602001858152602001848152602001838152602001828152602001965050505050505060405180910390f35b60008060008060008060005460015460025460035460045460055495509550955095509550955090919293949556fea2646970667358221220b69e9340710c3e15bc919e2a46aac61611228c1a5d3975ebe18dbdc61b757c1864736f6c63430007000033",
			"opcodes": "PUSH1 0x80 PUSH1 0x40 MSTORE PUSH1 0x7 PUSH1 0x0 SSTORE PUSH1 0x3 PUSH1 0x1 SSTORE PUSH1 0xA PUSH1 0x2 SSTORE PUSH1 0x1 PUSH1 0x3 SSTORE PUSH1 0x1 PUSH1 0x4 SSTORE PUSH1 0x19 PUSH1 0x5 SSTORE CALLVALUE DUP1 ISZERO PUSH2 0x2E JUMPI PUSH1 0x0 DUP1 REVERT JUMPDEST POP PUSH1 0xD1 DUP1 PUSH2 0x3D PUSH1 0x0 CODECOPY PUSH1 0x0 RETURN INVALID PUSH1 0x80 PUSH1 0x40 MSTORE CALLVALUE DUP1 ISZERO PUSH1 0xF JUMPI PUSH1 0x0 DUP1 REVERT JUMPDEST POP PUSH1 0x4 CALLDATASIZE LT PUSH1 0x28 JUMPI PUSH1 0x0 CALLDATALOAD PUSH1 0xE0 SHR DUP1 PUSH4 0x980A67FD EQ PUSH1 0x2D JUMPI JUMPDEST PUSH1 0x0 DUP1 REVERT JUMPDEST PUSH1 0x33 PUSH1 0x6C JUMP JUMPDEST PUSH1 0x40 MLOAD DUP1 DUP8 DUP2 MSTORE PUSH1 0x20 ADD DUP7 DUP2 MSTORE PUSH1 0x20 ADD DUP6 DUP2 MSTORE PUSH1 0x20 ADD DUP5 DUP2 MSTORE PUSH1 0x20 ADD DUP4 DUP2 MSTORE PUSH1 0x20 ADD DUP3 DUP2 MSTORE PUSH1 0x20 ADD SWAP7 POP POP POP POP POP POP POP PUSH1 0x40 MLOAD DUP1 SWAP2 SUB SWAP1 RETURN JUMPDEST PUSH1 0x0 DUP1 PUSH1 0x0 DUP1 PUSH1 0x0 DUP1 PUSH1 0x0 SLOAD PUSH1 0x1 SLOAD PUSH1 0x2 SLOAD PUSH1 0x3 SLOAD PUSH1 0x4 SLOAD PUSH1 0x5 SLOAD SWAP6 POP SWAP6 POP SWAP6 POP SWAP6 POP SWAP6 POP SWAP6 POP SWAP1 SWAP2 SWAP3 SWAP4 SWAP5 SWAP6 JUMP INVALID LOG2 PUSH5 0x6970667358 0x22 SLT KECCAK256 0xB6 SWAP15 SWAP4 BLOCKHASH PUSH18 0xC3E15BC919E2A46AAC61611228C1A5D3975 0xEB 0xE1 DUP14 0xBD 0xC6 SHL PUSH22 0x7C1864736F6C63430007000033000000000000000000 "
		},
		"gasEstimates": {
			"creation": {
				"codeDepositCost": "41800",
				"executionCost": "120129",
				"totalCost": "161929"
			},
			"external": {
				"arithmetic()": "5161"
			}
		},
		"methodIdentifiers": {
			"arithmetic()": "980a67fd"
		}
	},
	"abi": [
		{
			"inputs": [],
			"name": "arithmetic",
			"outputs": [
				{
					"internalType": "uint256",
					"name": "",
					"type": "uint256"
				},
				{
					"internalType": "uint256",
					"name": "",
					"type": "uint256"
				},
				{
					"internalType": "uint256",
					"name": "",
					"type": "uint256"
				},
				{
					"internalType": "uint256",
					"name": "",
					"type": "uint256"
				},
				{
					"internalType": "uint256",
					"name": "",
					"type": "uint256"
				},
				{
					"internalType": "uint256",
					"name": "",
					"type": "uint256"
				}
			],
			"stateMutability": "view",
			"type": "function"
		}
	]
}