{
	"data": {
		"bytecode": {
			"linkReferences": {},
			"object": "6080604052604051600e906074565b604051809103905ff0801580156026573d5f803e3d5ffd5b505f806101000a81548173ffffffffffffffffffffffffffffffffffffffff021916908373ffffffffffffffffffffffffffffffffffffffff160217905550348015606f575f80fd5b506081565b6101be8061041b83390190565b61038d8061008e5f395ff3fe608060405234801561000f575f80fd5b5060043610610029575f3560e01c8063ba514f981461002d575b5f80fd5b610047600480360381019061004291906101ab565b61005d565b60405161005491906101f8565b60405180910390f35b5f805f9054906101000a900473ffffffffffffffffffffffffffffffffffffffff1673ffffffffffffffffffffffffffffffffffffffff1663e006805284846040518363ffffffff1660e01b81526004016100b9929190610211565b602060405180830381865afa9250505080156100f357506040513d601f19601f820116820180604052508101906100f0919061024c565b60015b610134577fff8fea957fb7cb582ef297c1c74436fe7a9914efbc52adf197600dc9d171efbc604051610124906102d1565b60405180910390a15f905061016e565b7fff8fea957fb7cb582ef297c1c74436fe7a9914efbc52adf197600dc9d171efbc60405161016190610339565b60405180910390a1809150505b92915050565b5f80fd5b5f819050919050565b61018a81610178565b8114610194575f80fd5b50565b5f813590506101a581610181565b92915050565b5f80604083850312156101c1576101c0610174565b5b5f6101ce85828601610197565b92505060206101df85828601610197565b9150509250929050565b6101f281610178565b82525050565b5f60208201905061020b5f8301846101e9565b92915050565b5f6040820190506102245f8301856101e9565b61023160208301846101e9565b9392505050565b5f8151905061024681610181565b92915050565b5f6020828403121561026157610260610174565b5b5f61026e84828501610238565b91505092915050565b5f82825260208201905092915050565b7f4661696c000000000000000000000000000000000000000000000000000000005f82015250565b5f6102bb600483610277565b91506102c682610287565b602082019050919050565b5f6020820190508181035f8301526102e8816102af565b9050919050565b7f53756363657373000000000000000000000000000000000000000000000000005f82015250565b5f610323600783610277565b915061032e826102ef565b602082019050919050565b5f6020820190508181035f83015261035081610317565b905091905056fea2646970667358221220d537ace1db52e35e05ce84e86035829d879148f58e27bee15c16fb1d16d55cc864736f6c634300081a00336080604052348015600e575f80fd5b506101a28061001c5f395ff3fe608060405234801561000f575f80fd5b5060043610610029575f3560e01c8063e00680521461002d575b5f80fd5b610047600480360381019061004291906100a9565b61005d565b60405161005491906100f6565b60405180910390f35b5f818361006a919061013c565b905092915050565b5f80fd5b5f819050919050565b61008881610076565b8114610092575f80fd5b50565b5f813590506100a38161007f565b92915050565b5f80604083850312156100bf576100be610072565b5b5f6100cc85828601610095565b92505060206100dd85828601610095565b9150509250929050565b6100f081610076565b82525050565b5f6020820190506101095f8301846100e7565b92915050565b7f4e487b71000000000000000000000000000000000000000000000000000000005f52601260045260245ffd5b5f61014682610076565b915061015183610076565b9250826101615761016061010f565b5b82820490509291505056fea2646970667358221220b81bda04e5ef9bb911cb2d6db42a7531c05e2b7bc09de978235e2269a42f2ff264736f6c634300081a0033",
			"opcodes": "PUSH1 0x80 PUSH1 0x40 MSTORE PUSH1 0x40 MLOAD PUSH1 0xE SWAP1 PUSH1 0x74 JUMP JUMPDEST PUSH1 0x40 MLOAD DUP1 SWAP2 SUB SWAP1 PUSH0 CREATE DUP1 ISZERO DUP1 ISZERO PUSH1 0x26 JUMPI RETURNDATASIZE PUSH0 DUP1 RETURNDATACOPY RETURNDATASIZE PUSH0 REVERT JUMPDEST POP PUSH0 DUP1 PUSH2 0x100 EXP DUP2 SLOAD DUP2 PUSH20 0xFFFFFFFFFFFFFFFFFFFFFFFFFFFFFFFFFFFFFFFF MUL NOT AND SWAP1 DUP4 PUSH20 0xFFFFFFFFFFFFFFFFFFFFFFFFFFFFFFFFFFFFFFFF AND MUL OR SWAP1 SSTORE POP CALLVALUE DUP1 ISZERO PUSH1 0x6F JUMPI PUSH0 DUP1 REVERT JUMPDEST POP PUSH1 0x81 JUMP JUMPDEST PUSH2 0x1BE DUP1 PUSH2 0x41B DUP4 CODECOPY ADD SWAP1 JUMP JUMPDEST PUSH2 0x38D DUP1 PUSH2 0x8E PUSH0 CODECOPY PUSH0 RETURN INVALID PUSH1 0x80 PUSH1 0x40 MSTORE CALLVALUE DUP1 ISZERO PUSH2 0xF JUMPI PUSH0 DUP1 REVERT JUMPDEST POP PUSH1 0x4 CALLDATASIZE LT PUSH2 0x29 JUMPI PUSH0 CALLDATALOAD PUSH1 0xE0 SHR DUP1 PUSH4 0xBA514F98 EQ PUSH2 0x2D JUMPI JUMPDEST PUSH0 DUP1 REVERT JUMPDEST PUSH2 0x47 PUSH1 0x4 DUP1 CALLDATASIZE SUB DUP2 ADD SWAP1 PUSH2 0x42 SWAP2 SWAP1 PUSH2 0x1AB JUMP JUMPDEST PUSH2 0x5D JUMP JUMPDEST PUSH1 0x40 MLOAD PUSH2 0x54 SWAP2 SWAP1 PUSH2 0x1F8 JUMP JUMPDEST PUSH1 0x40 MLOAD DUP1 SWAP2 SUB SWAP1 RETURN JUMPDEST PUSH0 DUP1 PUSH0 SWAP1 SLOAD SWAP1 PUSH2 0x100 EXP SWAP1 DIV PUSH20 0xFFFFFFFFFFFFFFFFFFFFFFFFFFFFFFFFFFFFFFFF AND PUSH20 0xFFFFFFFFFFFFFFFFFFFFFFFFFFFFFFFFFFFFFFFF AND PUSH4 0xE0068052 DUP5 DUP5 PUSH1 0x40 MLOAD DUP4 PUSH4 0xFFFFFFFF AND PUSH1 0xE0 SHL DUP2 MSTORE PUSH1 0x4 ADD PUSH2 0xB9 SWAP3 SWAP2 SWAP1 PUSH2 0x211 JUMP JUMPDEST PUSH1 0x20 PUSH1 0x40 MLOAD DUP1 DUP4 SUB DUP2 DUP7 GAS STATICCALL SWAP3 POP POP POP DUP1 ISZERO PUSH2 0xF3 JUMPI POP PUSH1 0x40 MLOAD RETURNDATASIZE PUSH1 0x1F NOT PUSH1 0x1F DUP3 ADD AND DUP3 ADD DUP1 PUSH1 0x40 MSTORE POP DUP2 ADD SWAP1 PUSH2 0xF0 SWAP2 SWAP1 PUSH2 0x24C JUMP JUMPDEST PUSH1 0x1 JUMPDEST PUSH2 0x134 JUMPI PUSH32 0xFF8FEA957FB7CB582EF297C1C74436FE7A9914EFBC52ADF197600DC9D171EFBC PUSH1 0x40 MLOAD PUSH2 0x124 SWAP1 PUSH2 0x2D1 JUMP JUMPDEST PUSH1 0x40 MLOAD DUP1 SWAP2 SUB SWAP1 LOG1 PUSH0 SWAP1 POP PUSH2 0x16E JUMP JUMPDEST PUSH32 0xFF8FEA957FB7CB582EF297C1C74436FE7A9914EFBC52ADF197600DC9D171EFBC PUSH1 0x40 MLOAD PUSH2 0x161 SWAP1 PUSH2 0x339 JUMP JUMPDEST PUSH1 0x40 MLOAD DUP1 SWAP2 SUB SWAP1 LOG1 DUP1 SWAP2 POP POP JUMPDEST SWAP3 SWAP2 POP POP JUMP JUMPDEST PUSH0 DUP1 REVERT JUMPDEST PUSH0 DUP2 SWAP1 POP SWAP2 SWAP1 POP JUMP JUMPDEST PUSH2 0x18A DUP2 PUSH2 0x178 JUMP JUMPDEST DUP2 EQ PUSH2 0x194 JUMPI PUSH0 DUP1 REVERT JUMPDEST POP JUMP JUMPDEST PUSH0 DUP2 CALLDATALOAD SWAP1 POP PUSH2 0x1A5 DUP2 PUSH2 0x181 JUMP JUMPDEST SWAP3 SWAP2 POP POP JUMP JUMPDEST PUSH0 DUP1 PUSH1 0x40 DUP4 DUP6 SUB SLT ISZERO PUSH2 0x1C1 JUMPI PUSH2 0x1C0 PUSH2 0x174 JUMP JUMPDEST JUMPDEST PUSH0 PUSH2 0x1CE DUP6 DUP3 DUP7 ADD PUSH2 0x197 JUMP JUMPDEST SWAP3 POP POP PUSH1 0x20 PUSH2 0x1DF DUP6 DUP3 DUP7 ADD PUSH2 0x197 JUMP JUMPDEST SWAP2 POP POP SWAP3 POP SWAP3 SWAP1 POP JUMP JUMPDEST PUSH2 0x1F2 DUP2 PUSH2 0x178 JUMP JUMPDEST DUP3 MSTORE POP POP JUMP JUMPDEST PUSH0 PUSH1 0x20 DUP3 ADD SWAP1 POP PUSH2 0x20B PUSH0 DUP4 ADD DUP5 PUSH2 0x1E9 JUMP JUMPDEST SWAP3 SWAP2 POP POP JUMP JUMPDEST PUSH0 PUSH1 0x40 DUP3 ADD SWAP1 POP PUSH2 0x224 PUSH0 DUP4 ADD DUP6 PUSH2 0x1E9 JUMP JUMPDEST PUSH2 0x231 PUSH1 0x20 DUP4 ADD DUP5 PUSH2 0x1E9 JUMP JUMPDEST SWAP4 SWAP3 POP POP POP JUMP JUMPDEST PUSH0 DUP2 MLOAD SWAP1 POP PUSH2 0x246 DUP2 PUSH2 0x181 JUMP JUMPDEST SWAP3 SWAP2 POP POP JUMP JUMPDEST PUSH0 PUSH1 0x20 DUP3 DUP5 SUB SLT ISZERO PUSH2 0x261 JUMPI PUSH2 0x260 PUSH2 0x174 JUMP JUMPDEST JUMPDEST PUSH0 PUSH2 0x26E DUP5 DUP3 DUP6 ADD PUSH2 0x238 JUMP JUMPDEST SWAP2 POP POP SWAP3 SWAP2 POP POP JUMP JUMPDEST PUSH0 DUP3 DUP3 MSTORE PUSH1 0x20 DUP3 ADD SWAP1 POP SWAP3 SWAP2 POP POP JUMP JUMPDEST PUSH32 0x4661696C00000000000000000000000000000000000000000000000000000000 PUSH0 DUP3 ADD MSTORE POP JUMP JUMPDEST PUSH0 PUSH2 0x2BB PUSH1 0x4 DUP4 PUSH2 0x277 JUMP JUMPDEST SWAP2 POP PUSH2 0x2C6 DUP3 PUSH2 0x287 JUMP JUMPDEST PUSH1 0x20 DUP3 ADD SWAP1 POP SWAP2 SWAP1 POP JUMP JUMPDEST PUSH0 PUSH1 0x20 DUP3 ADD SWAP1 POP DUP2 DUP2 SUB PUSH0 DUP4 ADD MSTORE PUSH2 0x2E8 DUP2 PUSH2 0x2AF JUMP JUMPDEST SWAP1 POP SWAP2 SWAP1 POP JUMP JUMPDEST PUSH32 0x5375636365737300000000000000000000000000000000000000000000000000 PUSH0 DUP3 ADD MSTORE POP JUMP JUMPDEST PUSH0 PUSH2 0x323 PUSH1 0x7 DUP4 PUSH2 0x277 JUMP JUMPDEST SWAP2 POP PUSH2 0x32E DUP3 PUSH2 0x2EF JUMP JUMPDEST PUSH1 0x20 DUP3 ADD SWAP1 POP SWAP2 SWAP1 POP JUMP JUMPDEST PUSH0 PUSH1 0x20 DUP3 ADD SWAP1 POP DUP2 DUP2 SUB PUSH0 DUP4 ADD MSTORE PUSH2 0x350 DUP2 PUSH2 0x317 JUMP JUMPDEST SWAP1 POP SWAP2 SWAP1 POP JUMP INVALID LOG2 PUSH5 0x6970667358 0x22 SLT KECCAK256 0xD5 CALLDATACOPY 0xAC 0xE1 0xDB MSTORE 0xE3 MCOPY SDIV 0xCE DUP5 0xE8 PUSH1 0x35 DUP3 SWAP14 DUP8 SWAP2 BASEFEE CREATE2 DUP15 0x27 0xBE 0xE1 TLOAD AND 0xFB SAR AND 0xD5 TLOAD 0xC8 PUSH5 0x736F6C6343 STOP ADDMOD BYTE STOP CALLER PUSH1 0x80 PUSH1 0x40 MSTORE CALLVALUE DUP1 ISZERO PUSH1 0xE JUMPI PUSH0 DUP1 REVERT JUMPDEST POP PUSH2 0x1A2 DUP1 PUSH2 0x1C PUSH0 CODECOPY PUSH0 RETURN INVALID PUSH1 0x80 PUSH1 0x40 MSTORE CALLVALUE DUP1 ISZERO PUSH2 0xF JUMPI PUSH0 DUP1 REVERT JUMPDEST POP PUSH1 0x4 CALLDATASIZE LT PUSH2 0x29 JUMPI PUSH0 CALLDATALOAD PUSH1 0xE0 SHR DUP1 PUSH4 0xE0068052 EQ PUSH2 0x2D JUMPI JUMPDEST PUSH0 DUP1 REVERT JUMPDEST PUSH2 0x47 PUSH1 0x4 DUP1 CALLDATASIZE SUB DUP2 ADD SWAP1 PUSH2 0x42 SWAP2 SWAP1 PUSH2 0xA9 JUMP JUMPDEST PUSH2 0x5D JUMP JUMPDEST PUSH1 0x40 MLOAD PUSH2 0x54 SWAP2 SWAP1 PUSH2 0xF6 JUMP JUMPDEST PUSH1 0x40 MLOAD DUP1 SWAP2 SUB SWAP1 RETURN JUMPDEST PUSH0 DUP2 DUP4 PUSH2 0x6A SWAP2 SWAP1 PUSH2 0x13C JUMP JUMPDEST SWAP1 POP SWAP3 SWAP2 POP POP JUMP JUMPDEST PUSH0 DUP1 REVERT JUMPDEST PUSH0 DUP2 SWAP1 POP SWAP2 SWAP1 POP JUMP JUMPDEST PUSH2 0x88 DUP2 PUSH2 0x76 JUMP JUMPDEST DUP2 EQ PUSH2 0x92 JUMPI PUSH0 DUP1 REVERT JUMPDEST POP JUMP JUMPDEST PUSH0 DUP2 CALLDATALOAD SWAP1 POP PUSH2 0xA3 DUP2 PUSH2 0x7F JUMP JUMPDEST SWAP3 SWAP2 POP POP JUMP JUMPDEST PUSH0 DUP1 PUSH1 0x40 DUP4 DUP6 SUB SLT ISZERO PUSH2 0xBF JUMPI PUSH2 0xBE PUSH2 0x72 JUMP JUMPDEST JUMPDEST PUSH0 PUSH2 0xCC DUP6 DUP3 DUP7 ADD PUSH2 0x95 JUMP JUMPDEST SWAP3 POP POP PUSH1 0x20 PUSH2 0xDD DUP6 DUP3 DUP7 ADD PUSH2 0x95 JUMP JUMPDEST SWAP2 POP POP SWAP3 POP SWAP3 SWAP1 POP JUMP JUMPDEST PUSH2 0xF0 DUP2 PUSH2 0x76 JUMP JUMPDEST DUP3 MSTORE POP POP JUMP JUMPDEST PUSH0 PUSH1 0x20 DUP3 ADD SWAP1 POP PUSH2 0x109 PUSH0 DUP4 ADD DUP5 PUSH2 0xE7 JUMP JUMPDEST SWAP3 SWAP2 POP POP JUMP JUMPDEST PUSH32 0x4E487B7100000000000000000000000000000000000000000000000000000000 PUSH0 MSTORE PUSH1 0x12 PUSH1 0x4 MSTORE PUSH1 0x24 PUSH0 REVERT JUMPDEST PUSH0 PUSH2 0x146 DUP3 PUSH2 0x76 JUMP JUMPDEST SWAP2 POP PUSH2 0x151 DUP4 PUSH2 0x76 JUMP JUMPDEST SWAP3 POP DUP3 PUSH2 0x161 JUMPI PUSH2 0x160 PUSH2 0x10F JUMP JUMPDEST JUMPDEST DUP3 DUP3 DIV SWAP1 POP SWAP3 SWAP2 POP POP JUMP INVALID LOG2 PUSH5 0x6970667358 0x22 SLT KECCAK256 0xB8 SHL 0xDA DIV 0xE5 0xEF SWAP12 0xB9 GT 0xCB 0x2D PUSH14 0xB42A7531C05E2B7BC09DE978235E 0x22 PUSH10 0xA42F2FF264736F6C6343 STOP ADDMOD BYTE STOP CALLER "
		},
		"gasEstimates": {
			"creation": {
				"codeDepositCost": "181800",
				"executionCost": "infinite",
				"totalCost": "infinite"
			},
			"external": {
				"divisionWithtryCatch(uint256,uint256)": "infinite"
			}
		},
		"methodIdentifiers": {
			"divisionWithtryCatch(uint256,uint256)": "ba514f98"
		}
	},
	"abi": [
		{
			"anonymous": false,
			"inputs": [
				{
					"indexed": false,
					"internalType": "string",
					"name": "_error",
					"type": "string"
				}
			],
			"name": "Information",
			"type": "event"
		},
		{
			"inputs": [
				{
					"internalType": "uint256",
					"name": "_num1",
					"type": "uint256"
				},
				{
					"internalType": "uint256",
					"name": "_num2",
					"type": "uint256"
				}
			],
			"name": "divisionWithtryCatch",
			"outputs": [
				{
					"internalType": "uint256",
					"name": "",
					"type": "uint256"
				}
			],
			"stateMutability": "nonpayable",
			"type": "function"
		}
	]
}