{
	"data": {
		"bytecode": {
			"linkReferences": {},
			"object": "6080604052604051600e906074565b604051809103905ff0801580156026573d5f803e3d5ffd5b505f806101000a81548173ffffffffffffffffffffffffffffffffffffffff021916908373ffffffffffffffffffffffffffffffffffffffff160217905550348015606f575f80fd5b506081565b61027b806103fb83390190565b61036d8061008e5f395ff3fe608060405234801561000f575f80fd5b5060043610610029575f3560e01c806389f915f61461002d575b5f80fd5b61003561004c565b6040516100439291906101a7565b60405180910390f35b5f805f8054906101000a900473ffffffffffffffffffffffffffffffffffffffff1673ffffffffffffffffffffffffffffffffffffffff1663c8a4ac9c600460056040518363ffffffff1660e01b81526004016100aa929190610249565b602060405180830381865afa1580156100c5573d5f803e3d5ffd5b505050506040513d601f19601f820116820180604052508101906100e9919061029e565b5f8054906101000a900473ffffffffffffffffffffffffffffffffffffffff1673ffffffffffffffffffffffffffffffffffffffff1663e91cac2d6004600560066040518463ffffffff1660e01b815260040161014893929190610302565b602060405180830381865afa158015610163573d5f803e3d5ffd5b505050506040513d601f19601f82011682018060405250810190610187919061029e565b915091509091565b5f819050919050565b6101a18161018f565b82525050565b5f6040820190506101ba5f830185610198565b6101c76020830184610198565b9392505050565b5f819050919050565b5f819050919050565b5f6101fa6101f56101f0846101ce565b6101d7565b61018f565b9050919050565b61020a816101e0565b82525050565b5f819050919050565b5f61023361022e61022984610210565b6101d7565b61018f565b9050919050565b61024381610219565b82525050565b5f60408201905061025c5f830185610201565b610269602083018461023a565b9392505050565b5f80fd5b61027d8161018f565b8114610287575f80fd5b50565b5f8151905061029881610274565b92915050565b5f602082840312156102b3576102b2610270565b5b5f6102c08482850161028a565b91505092915050565b5f819050919050565b5f6102ec6102e76102e2846102c9565b6101d7565b61018f565b9050919050565b6102fc816102d2565b82525050565b5f6060820190506103155f830186610201565b610322602083018561023a565b61032f60408301846102f3565b94935050505056fea264697066735822122069554ed4ec2d6967e6d20ecfcfe7c5ad5d98830bb13fb7c234a8acbbf6e1d7eb64736f6c634300081a00336080604052348015600e575f80fd5b5061025f8061001c5f395ff3fe608060405234801561000f575f80fd5b5060043610610034575f3560e01c8063c8a4ac9c14610038578063e91cac2d14610068575b5f80fd5b610052600480360381019061004d9190610105565b610098565b60405161005f9190610152565b60405180910390f35b610082600480360381019061007d919061016b565b6100ad565b60405161008f9190610152565b60405180910390f35b5f81836100a591906101e8565b905092915050565b5f8183856100bb91906101e8565b6100c591906101e8565b90509392505050565b5f80fd5b5f819050919050565b6100e4816100d2565b81146100ee575f80fd5b50565b5f813590506100ff816100db565b92915050565b5f806040838503121561011b5761011a6100ce565b5b5f610128858286016100f1565b9250506020610139858286016100f1565b9150509250929050565b61014c816100d2565b82525050565b5f6020820190506101655f830184610143565b92915050565b5f805f60608486031215610182576101816100ce565b5b5f61018f868287016100f1565b93505060206101a0868287016100f1565b92505060406101b1868287016100f1565b9150509250925092565b7f4e487b71000000000000000000000000000000000000000000000000000000005f52601160045260245ffd5b5f6101f2826100d2565b91506101fd836100d2565b925082820261020b816100d2565b91508282048414831517610222576102216101bb565b5b509291505056fea26469706673582212200d903072e573961c55d239c70a8dc80598adf0388cebc06c41da642c13681e5764736f6c634300081a0033",
			"opcodes": "PUSH1 0x80 PUSH1 0x40 MSTORE PUSH1 0x40 MLOAD PUSH1 0xE SWAP1 PUSH1 0x74 JUMP JUMPDEST PUSH1 0x40 MLOAD DUP1 SWAP2 SUB SWAP1 PUSH0 CREATE DUP1 ISZERO DUP1 ISZERO PUSH1 0x26 JUMPI RETURNDATASIZE PUSH0 DUP1 RETURNDATACOPY RETURNDATASIZE PUSH0 REVERT JUMPDEST POP PUSH0 DUP1 PUSH2 0x100 EXP DUP2 SLOAD DUP2 PUSH20 0xFFFFFFFFFFFFFFFFFFFFFFFFFFFFFFFFFFFFFFFF MUL NOT AND SWAP1 DUP4 PUSH20 0xFFFFFFFFFFFFFFFFFFFFFFFFFFFFFFFFFFFFFFFF AND MUL OR SWAP1 SSTORE POP CALLVALUE DUP1 ISZERO PUSH1 0x6F JUMPI PUSH0 DUP1 REVERT JUMPDEST POP PUSH1 0x81 JUMP JUMPDEST PUSH2 0x27B DUP1 PUSH2 0x3FB DUP4 CODECOPY ADD SWAP1 JUMP JUMPDEST PUSH2 0x36D DUP1 PUSH2 0x8E PUSH0 CODECOPY PUSH0 RETURN INVALID PUSH1 0x80 PUSH1 0x40 MSTORE CALLVALUE DUP1 ISZERO PUSH2 0xF JUMPI PUSH0 DUP1 REVERT JUMPDEST POP PUSH1 0x4 CALLDATASIZE LT PUSH2 0x29 JUMPI PUSH0 CALLDATALOAD PUSH1 0xE0 SHR DUP1 PUSH4 0x89F915F6 EQ PUSH2 0x2D JUMPI JUMPDEST PUSH0 DUP1 REVERT JUMPDEST PUSH2 0x35 PUSH2 0x4C JUMP JUMPDEST PUSH1 0x40 MLOAD PUSH2 0x43 SWAP3 SWAP2 SWAP1 PUSH2 0x1A7 JUMP JUMPDEST PUSH1 0x40 MLOAD DUP1 SWAP2 SUB SWAP1 RETURN JUMPDEST PUSH0 DUP1 PUSH0 DUP1 SLOAD SWAP1 PUSH2 0x100 EXP SWAP1 DIV PUSH20 0xFFFFFFFFFFFFFFFFFFFFFFFFFFFFFFFFFFFFFFFF AND PUSH20 0xFFFFFFFFFFFFFFFFFFFFFFFFFFFFFFFFFFFFFFFF AND PUSH4 0xC8A4AC9C PUSH1 0x4 PUSH1 0x5 PUSH1 0x40 MLOAD DUP4 PUSH4 0xFFFFFFFF AND PUSH1 0xE0 SHL DUP2 MSTORE PUSH1 0x4 ADD PUSH2 0xAA SWAP3 SWAP2 SWAP1 PUSH2 0x249 JUMP JUMPDEST PUSH1 0x20 PUSH1 0x40 MLOAD DUP1 DUP4 SUB DUP2 DUP7 GAS STATICCALL ISZERO DUP1 ISZERO PUSH2 0xC5 JUMPI RETURNDATASIZE PUSH0 DUP1 RETURNDATACOPY RETURNDATASIZE PUSH0 REVERT JUMPDEST POP POP POP POP PUSH1 0x40 MLOAD RETURNDATASIZE PUSH1 0x1F NOT PUSH1 0x1F DUP3 ADD AND DUP3 ADD DUP1 PUSH1 0x40 MSTORE POP DUP2 ADD SWAP1 PUSH2 0xE9 SWAP2 SWAP1 PUSH2 0x29E JUMP JUMPDEST PUSH0 DUP1 SLOAD SWAP1 PUSH2 0x100 EXP SWAP1 DIV PUSH20 0xFFFFFFFFFFFFFFFFFFFFFFFFFFFFFFFFFFFFFFFF AND PUSH20 0xFFFFFFFFFFFFFFFFFFFFFFFFFFFFFFFFFFFFFFFF AND PUSH4 0xE91CAC2D PUSH1 0x4 PUSH1 0x5 PUSH1 0x6 PUSH1 0x40 MLOAD DUP5 PUSH4 0xFFFFFFFF AND PUSH1 0xE0 SHL DUP2 MSTORE PUSH1 0x4 ADD PUSH2 0x148 SWAP4 SWAP3 SWAP2 SWAP1 PUSH2 0x302 JUMP JUMPDEST PUSH1 0x20 PUSH1 0x40 MLOAD DUP1 DUP4 SUB DUP2 DUP7 GAS STATICCALL ISZERO DUP1 ISZERO PUSH2 0x163 JUMPI RETURNDATASIZE PUSH0 DUP1 RETURNDATACOPY RETURNDATASIZE PUSH0 REVERT JUMPDEST POP POP POP POP PUSH1 0x40 MLOAD RETURNDATASIZE PUSH1 0x1F NOT PUSH1 0x1F DUP3 ADD AND DUP3 ADD DUP1 PUSH1 0x40 MSTORE POP DUP2 ADD SWAP1 PUSH2 0x187 SWAP2 SWAP1 PUSH2 0x29E JUMP JUMPDEST SWAP2 POP SWAP2 POP SWAP1 SWAP2 JUMP JUMPDEST PUSH0 DUP2 SWAP1 POP SWAP2 SWAP1 POP JUMP JUMPDEST PUSH2 0x1A1 DUP2 PUSH2 0x18F JUMP JUMPDEST DUP3 MSTORE POP POP JUMP JUMPDEST PUSH0 PUSH1 0x40 DUP3 ADD SWAP1 POP PUSH2 0x1BA PUSH0 DUP4 ADD DUP6 PUSH2 0x198 JUMP JUMPDEST PUSH2 0x1C7 PUSH1 0x20 DUP4 ADD DUP5 PUSH2 0x198 JUMP JUMPDEST SWAP4 SWAP3 POP POP POP JUMP JUMPDEST PUSH0 DUP2 SWAP1 POP SWAP2 SWAP1 POP JUMP JUMPDEST PUSH0 DUP2 SWAP1 POP SWAP2 SWAP1 POP JUMP JUMPDEST PUSH0 PUSH2 0x1FA PUSH2 0x1F5 PUSH2 0x1F0 DUP5 PUSH2 0x1CE JUMP JUMPDEST PUSH2 0x1D7 JUMP JUMPDEST PUSH2 0x18F JUMP JUMPDEST SWAP1 POP SWAP2 SWAP1 POP JUMP JUMPDEST PUSH2 0x20A DUP2 PUSH2 0x1E0 JUMP JUMPDEST DUP3 MSTORE POP POP JUMP JUMPDEST PUSH0 DUP2 SWAP1 POP SWAP2 SWAP1 POP JUMP JUMPDEST PUSH0 PUSH2 0x233 PUSH2 0x22E PUSH2 0x229 DUP5 PUSH2 0x210 JUMP JUMPDEST PUSH2 0x1D7 JUMP JUMPDEST PUSH2 0x18F JUMP JUMPDEST SWAP1 POP SWAP2 SWAP1 POP JUMP JUMPDEST PUSH2 0x243 DUP2 PUSH2 0x219 JUMP JUMPDEST DUP3 MSTORE POP POP JUMP JUMPDEST PUSH0 PUSH1 0x40 DUP3 ADD SWAP1 POP PUSH2 0x25C PUSH0 DUP4 ADD DUP6 PUSH2 0x201 JUMP JUMPDEST PUSH2 0x269 PUSH1 0x20 DUP4 ADD DUP5 PUSH2 0x23A JUMP JUMPDEST SWAP4 SWAP3 POP POP POP JUMP JUMPDEST PUSH0 DUP1 REVERT JUMPDEST PUSH2 0x27D DUP2 PUSH2 0x18F JUMP JUMPDEST DUP2 EQ PUSH2 0x287 JUMPI PUSH0 DUP1 REVERT JUMPDEST POP JUMP JUMPDEST PUSH0 DUP2 MLOAD SWAP1 POP PUSH2 0x298 DUP2 PUSH2 0x274 JUMP JUMPDEST SWAP3 SWAP2 POP POP JUMP JUMPDEST PUSH0 PUSH1 0x20 DUP3 DUP5 SUB SLT ISZERO PUSH2 0x2B3 JUMPI PUSH2 0x2B2 PUSH2 0x270 JUMP JUMPDEST JUMPDEST PUSH0 PUSH2 0x2C0 DUP5 DUP3 DUP6 ADD PUSH2 0x28A JUMP JUMPDEST SWAP2 POP POP SWAP3 SWAP2 POP POP JUMP JUMPDEST PUSH0 DUP2 SWAP1 POP SWAP2 SWAP1 POP JUMP JUMPDEST PUSH0 PUSH2 0x2EC PUSH2 0x2E7 PUSH2 0x2E2 DUP5 PUSH2 0x2C9 JUMP JUMPDEST PUSH2 0x1D7 JUMP JUMPDEST PUSH2 0x18F JUMP JUMPDEST SWAP1 POP SWAP2 SWAP1 POP JUMP JUMPDEST PUSH2 0x2FC DUP2 PUSH2 0x2D2 JUMP JUMPDEST DUP3 MSTORE POP POP JUMP JUMPDEST PUSH0 PUSH1 0x60 DUP3 ADD SWAP1 POP PUSH2 0x315 PUSH0 DUP4 ADD DUP7 PUSH2 0x201 JUMP JUMPDEST PUSH2 0x322 PUSH1 0x20 DUP4 ADD DUP6 PUSH2 0x23A JUMP JUMPDEST PUSH2 0x32F PUSH1 0x40 DUP4 ADD DUP5 PUSH2 0x2F3 JUMP JUMPDEST SWAP5 SWAP4 POP POP POP POP JUMP INVALID LOG2 PUSH5 0x6970667358 0x22 SLT KECCAK256 PUSH10 0x554ED4EC2D6967E6D20E 0xCF 0xCF 0xE7 0xC5 0xAD TSTORE SWAP9 DUP4 SIGNEXTEND 0xB1 EXTCODEHASH 0xB7 0xC2 CALLVALUE 0xA8 0xAC 0xBB 0xF6 0xE1 0xD7 0xEB PUSH5 0x736F6C6343 STOP ADDMOD BYTE STOP CALLER PUSH1 0x80 PUSH1 0x40 MSTORE CALLVALUE DUP1 ISZERO PUSH1 0xE JUMPI PUSH0 DUP1 REVERT JUMPDEST POP PUSH2 0x25F DUP1 PUSH2 0x1C PUSH0 CODECOPY PUSH0 RETURN INVALID PUSH1 0x80 PUSH1 0x40 MSTORE CALLVALUE DUP1 ISZERO PUSH2 0xF JUMPI PUSH0 DUP1 REVERT JUMPDEST POP PUSH1 0x4 CALLDATASIZE LT PUSH2 0x34 JUMPI PUSH0 CALLDATALOAD PUSH1 0xE0 SHR DUP1 PUSH4 0xC8A4AC9C EQ PUSH2 0x38 JUMPI DUP1 PUSH4 0xE91CAC2D EQ PUSH2 0x68 JUMPI JUMPDEST PUSH0 DUP1 REVERT JUMPDEST PUSH2 0x52 PUSH1 0x4 DUP1 CALLDATASIZE SUB DUP2 ADD SWAP1 PUSH2 0x4D SWAP2 SWAP1 PUSH2 0x105 JUMP JUMPDEST PUSH2 0x98 JUMP JUMPDEST PUSH1 0x40 MLOAD PUSH2 0x5F SWAP2 SWAP1 PUSH2 0x152 JUMP JUMPDEST PUSH1 0x40 MLOAD DUP1 SWAP2 SUB SWAP1 RETURN JUMPDEST PUSH2 0x82 PUSH1 0x4 DUP1 CALLDATASIZE SUB DUP2 ADD SWAP1 PUSH2 0x7D SWAP2 SWAP1 PUSH2 0x16B JUMP JUMPDEST PUSH2 0xAD JUMP JUMPDEST PUSH1 0x40 MLOAD PUSH2 0x8F SWAP2 SWAP1 PUSH2 0x152 JUMP JUMPDEST PUSH1 0x40 MLOAD DUP1 SWAP2 SUB SWAP1 RETURN JUMPDEST PUSH0 DUP2 DUP4 PUSH2 0xA5 SWAP2 SWAP1 PUSH2 0x1E8 JUMP JUMPDEST SWAP1 POP SWAP3 SWAP2 POP POP JUMP JUMPDEST PUSH0 DUP2 DUP4 DUP6 PUSH2 0xBB SWAP2 SWAP1 PUSH2 0x1E8 JUMP JUMPDEST PUSH2 0xC5 SWAP2 SWAP1 PUSH2 0x1E8 JUMP JUMPDEST SWAP1 POP SWAP4 SWAP3 POP POP POP JUMP JUMPDEST PUSH0 DUP1 REVERT JUMPDEST PUSH0 DUP2 SWAP1 POP SWAP2 SWAP1 POP JUMP JUMPDEST PUSH2 0xE4 DUP2 PUSH2 0xD2 JUMP JUMPDEST DUP2 EQ PUSH2 0xEE JUMPI PUSH0 DUP1 REVERT JUMPDEST POP JUMP JUMPDEST PUSH0 DUP2 CALLDATALOAD SWAP1 POP PUSH2 0xFF DUP2 PUSH2 0xDB JUMP JUMPDEST SWAP3 SWAP2 POP POP JUMP JUMPDEST PUSH0 DUP1 PUSH1 0x40 DUP4 DUP6 SUB SLT ISZERO PUSH2 0x11B JUMPI PUSH2 0x11A PUSH2 0xCE JUMP JUMPDEST JUMPDEST PUSH0 PUSH2 0x128 DUP6 DUP3 DUP7 ADD PUSH2 0xF1 JUMP JUMPDEST SWAP3 POP POP PUSH1 0x20 PUSH2 0x139 DUP6 DUP3 DUP7 ADD PUSH2 0xF1 JUMP JUMPDEST SWAP2 POP POP SWAP3 POP SWAP3 SWAP1 POP JUMP JUMPDEST PUSH2 0x14C DUP2 PUSH2 0xD2 JUMP JUMPDEST DUP3 MSTORE POP POP JUMP JUMPDEST PUSH0 PUSH1 0x20 DUP3 ADD SWAP1 POP PUSH2 0x165 PUSH0 DUP4 ADD DUP5 PUSH2 0x143 JUMP JUMPDEST SWAP3 SWAP2 POP POP JUMP JUMPDEST PUSH0 DUP1 PUSH0 PUSH1 0x60 DUP5 DUP7 SUB SLT ISZERO PUSH2 0x182 JUMPI PUSH2 0x181 PUSH2 0xCE JUMP JUMPDEST JUMPDEST PUSH0 PUSH2 0x18F DUP7 DUP3 DUP8 ADD PUSH2 0xF1 JUMP JUMPDEST SWAP4 POP POP PUSH1 0x20 PUSH2 0x1A0 DUP7 DUP3 DUP8 ADD PUSH2 0xF1 JUMP JUMPDEST SWAP3 POP POP PUSH1 0x40 PUSH2 0x1B1 DUP7 DUP3 DUP8 ADD PUSH2 0xF1 JUMP JUMPDEST SWAP2 POP POP SWAP3 POP SWAP3 POP SWAP3 JUMP JUMPDEST PUSH32 0x4E487B7100000000000000000000000000000000000000000000000000000000 PUSH0 MSTORE PUSH1 0x11 PUSH1 0x4 MSTORE PUSH1 0x24 PUSH0 REVERT JUMPDEST PUSH0 PUSH2 0x1F2 DUP3 PUSH2 0xD2 JUMP JUMPDEST SWAP2 POP PUSH2 0x1FD DUP4 PUSH2 0xD2 JUMP JUMPDEST SWAP3 POP DUP3 DUP3 MUL PUSH2 0x20B DUP2 PUSH2 0xD2 JUMP JUMPDEST SWAP2 POP DUP3 DUP3 DIV DUP5 EQ DUP4 ISZERO OR PUSH2 0x222 JUMPI PUSH2 0x221 PUSH2 0x1BB JUMP JUMPDEST JUMPDEST POP SWAP3 SWAP2 POP POP JUMP INVALID LOG2 PUSH5 0x6970667358 0x22 SLT KECCAK256 0xD SWAP1 ADDRESS PUSH19 0xE573961C55D239C70A8DC80598ADF0388CEBC0 PUSH13 0x41DA642C13681E5764736F6C63 NUMBER STOP ADDMOD BYTE STOP CALLER "
		},
		"gasEstimates": {
			"creation": {
				"codeDepositCost": "175400",
				"executionCost": "infinite",
				"totalCost": "infinite"
			},
			"external": {
				"getNumbers()": "infinite"
			}
		},
		"methodIdentifiers": {
			"getNumbers()": "89f915f6"
		}
	},
	"abi": [
		{
			"inputs": [],
			"name": "getNumbers",
			"outputs": [
				{
					"internalType": "uint256",
					"name": "",
					"type": "uint256"
				},
				{
					"internalType": "uint256",
					"name": "",
					"type": "uint256"
				}
			],
			"stateMutability": "view",
			"type": "function"
		}
	]
}