{
	"data": {
		"bytecode": {
			"linkReferences": {},
			"object": "608060405234801561001057600080fd5b5061014a806100206000396000f3fe60806040526004361061002d5760003560e01c80630e29df221461008e57806312065fe01461009857610089565b36610089577f0368838220383a15f8cb55f018fd7c72a2a7b39241ce69b3633d92b2dcb3aca73334604051808373ffffffffffffffffffffffffffffffffffffffff1681526020018281526020019250505060405180910390a1005b600080fd5b6100966100c3565b005b3480156100a457600080fd5b506100ad61010c565b6040518082815260200191505060405180910390f35b3073ffffffffffffffffffffffffffffffffffffffff166108fc349081150290604051600060405180830381858888f19350505050158015610109573d6000803e3d6000fd5b50565b60004790509056fea26469706673582212201d592e3cae45372397e1b37e0ee0e03a32fa34107e78b95e88b84b077d49e69e64736f6c63430007060033",
			"opcodes": "PUSH1 0x80 PUSH1 0x40 MSTORE CALLVALUE DUP1 ISZERO PUSH2 0x10 JUMPI PUSH1 0x0 DUP1 REVERT JUMPDEST POP PUSH2 0x14A DUP1 PUSH2 0x20 PUSH1 0x0 CODECOPY PUSH1 0x0 RETURN INVALID PUSH1 0x80 PUSH1 0x40 MSTORE PUSH1 0x4 CALLDATASIZE LT PUSH2 0x2D JUMPI PUSH1 0x0 CALLDATALOAD PUSH1 0xE0 SHR DUP1 PUSH4 0xE29DF22 EQ PUSH2 0x8E JUMPI DUP1 PUSH4 0x12065FE0 EQ PUSH2 0x98 JUMPI PUSH2 0x89 JUMP JUMPDEST CALLDATASIZE PUSH2 0x89 JUMPI PUSH32 0x368838220383A15F8CB55F018FD7C72A2A7B39241CE69B3633D92B2DCB3ACA7 CALLER CALLVALUE PUSH1 0x40 MLOAD DUP1 DUP4 PUSH20 0xFFFFFFFFFFFFFFFFFFFFFFFFFFFFFFFFFFFFFFFF AND DUP2 MSTORE PUSH1 0x20 ADD DUP3 DUP2 MSTORE PUSH1 0x20 ADD SWAP3 POP POP POP PUSH1 0x40 MLOAD DUP1 SWAP2 SUB SWAP1 LOG1 STOP JUMPDEST PUSH1 0x0 DUP1 REVERT JUMPDEST PUSH2 0x96 PUSH2 0xC3 JUMP JUMPDEST STOP JUMPDEST CALLVALUE DUP1 ISZERO PUSH2 0xA4 JUMPI PUSH1 0x0 DUP1 REVERT JUMPDEST POP PUSH2 0xAD PUSH2 0x10C JUMP JUMPDEST PUSH1 0x40 MLOAD DUP1 DUP3 DUP2 MSTORE PUSH1 0x20 ADD SWAP2 POP POP PUSH1 0x40 MLOAD DUP1 SWAP2 SUB SWAP1 RETURN JUMPDEST ADDRESS PUSH20 0xFFFFFFFFFFFFFFFFFFFFFFFFFFFFFFFFFFFFFFFF AND PUSH2 0x8FC CALLVALUE SWAP1 DUP2 ISZERO MUL SWAP1 PUSH1 0x40 MLOAD PUSH1 0x0 PUSH1 0x40 MLOAD DUP1 DUP4 SUB DUP2 DUP6 DUP9 DUP9 CALL SWAP4 POP POP POP POP ISZERO DUP1 ISZERO PUSH2 0x109 JUMPI RETURNDATASIZE PUSH1 0x0 DUP1 RETURNDATACOPY RETURNDATASIZE PUSH1 0x0 REVERT JUMPDEST POP JUMP JUMPDEST PUSH1 0x0 SELFBALANCE SWAP1 POP SWAP1 JUMP INVALID LOG2 PUSH5 0x6970667358 0x22 SLT KECCAK256 SAR MSIZE 0x2E EXTCODECOPY 0xAE GASLIMIT CALLDATACOPY 0x23 SWAP8 0xE1 0xB3 PUSH31 0xEE0E03A32FA34107E78B95E88B84B077D49E69E64736F6C63430007060033 "
		},
		"gasEstimates": {
			"creation": {
				"codeDepositCost": "66000",
				"executionCost": "117",
				"totalCost": "66117"
			},
			"external": {
				"getBalance()": "215",
				"sendEther()": "infinite"
			}
		},
		"methodIdentifiers": {
			"getBalance()": "12065fe0",
			"sendEther()": "0e29df22"
		}
	},
	"abi": [
		{
			"anonymous": false,
			"inputs": [
				{
					"indexed": false,
					"internalType": "address",
					"name": "from",
					"type": "address"
				},
				{
					"indexed": false,
					"internalType": "uint256",
					"name": "amount",
					"type": "uint256"
				}
			],
			"name": "Obtain",
			"type": "event"
		},
		{
			"inputs": [],
			"name": "getBalance",
			"outputs": [
				{
					"internalType": "uint256",
					"name": "",
					"type": "uint256"
				}
			],
			"stateMutability": "view",
			"type": "function"
		},
		{
			"inputs": [],
			"name": "sendEther",
			"outputs": [],
			"stateMutability": "payable",
			"type": "function"
		},
		{
			"stateMutability": "payable",
			"type": "receive"
		}
	]
}