{
	"data": {
		"bytecode": {
			"linkReferences": {},
			"object": "6080604052348015600e575f80fd5b50335f806101000a81548173ffffffffffffffffffffffffffffffffffffffff021916908373ffffffffffffffffffffffffffffffffffffffff1602179055505f60025f6101000a81548160ff02191690836002811115606f57606e6078565b5b021790555060a5565b7f4e487b71000000000000000000000000000000000000000000000000000000005f52602160045260245ffd5b611106806100b25f395ff3fe60806040526004361061006f575f3560e01c80638412e6671161004d5780638412e667146100dd5780638b5b9ccc146100f3578063e97dcb621461011d578063f71d96cb146101275761006f565b80630c3f6acf14610073578063481c6a751461009d5780635d495aea146100c7575b5f80fd5b34801561007e575f80fd5b50610087610163565b6040516100949190610aeb565b60405180910390f35b3480156100a8575f80fd5b506100b1610175565b6040516100be9190610b43565b60405180910390f35b3480156100d2575f80fd5b506100db610198565b005b3480156100e8575f80fd5b506100f1610475565b005b3480156100fe575f80fd5b50610107610639565b6040516101149190610c13565b60405180910390f35b6101256106c4565b005b348015610132575f80fd5b5061014d60048036038101906101489190610c6a565b6108f9565b60405161015a9190610b43565b60405180910390f35b60025f9054906101000a900460ff1681565b5f8054906101000a900473ffffffffffffffffffffffffffffffffffffffff1681565b5f8054906101000a900473ffffffffffffffffffffffffffffffffffffffff1673ffffffffffffffffffffffffffffffffffffffff163373ffffffffffffffffffffffffffffffffffffffff1614610225576040517f08c379a000000000000000000000000000000000000000000000000000000000815260040161021c90610d15565b60405180910390fd5b600280600281111561023a57610239610a78565b5b60025f9054906101000a900460ff16600281111561025b5761025a610a78565b5b1461029b576040517f08c379a000000000000000000000000000000000000000000000000000000000815260040161029290610da3565b60405180910390fd5b5f600180549050116102e2576040517f08c379a00000000000000000000000000000000000000000000000000000000081526004016102d990610e0b565b60405180910390fd5b5f600180549050434260018054905060405160200161030393929190610e49565b604051602081830303815290604052805190602001205f1c6103259190610eb2565b90505f6001828154811061033c5761033b610ee2565b5b905f5260205f20015f9054906101000a900473ffffffffffffffffffffffffffffffffffffffff1690505f4790508173ffffffffffffffffffffffffffffffffffffffff166108fc8290811502906040515f60405180830381858888f193505050501580156103ad573d5f803e3d5ffd5b507f64791dbae5677392ba76761a5273633cec8f1d9d8cfe808da7bac6ef16a880be82826040516103df929190610f1e565b60405180910390a15f67ffffffffffffffff81111561040157610400610f45565b5b60405190808252806020026020018201604052801561042f5781602001602082028036833780820191505090505b50600190805190602001906104459291906109d6565b506002805f6101000a81548160ff0219169083600281111561046a57610469610a78565b5b021790555050505050565b5f8054906101000a900473ffffffffffffffffffffffffffffffffffffffff1673ffffffffffffffffffffffffffffffffffffffff163373ffffffffffffffffffffffffffffffffffffffff1614610502576040517f08c379a00000000000000000000000000000000000000000000000000000000081526004016104f990610d15565b60405180910390fd5b5f600281111561051557610514610a78565b5b60025f9054906101000a900460ff16600281111561053657610535610a78565b5b0361056a57600160025f6101000a81548160ff021916908360028111156105605761055f610a78565b5b0217905550610637565b6001600281111561057e5761057d610a78565b5b60025f9054906101000a900460ff16600281111561059f5761059e610a78565b5b036105d2576002805f6101000a81548160ff021916908360028111156105c8576105c7610a78565b5b0217905550610636565b6002808111156105e5576105e4610a78565b5b60025f9054906101000a900460ff16600281111561060657610605610a78565b5b03610635575f60025f6101000a81548160ff0219169083600281111561062f5761062e610a78565b5b02179055505b5b5b565b606060018054806020026020016040519081016040528092919081815260200182805480156106ba57602002820191905f5260205f20905b815f9054906101000a900473ffffffffffffffffffffffffffffffffffffffff1673ffffffffffffffffffffffffffffffffffffffff1681526020019060010190808311610671575b5050505050905090565b5f8054906101000a900473ffffffffffffffffffffffffffffffffffffffff1673ffffffffffffffffffffffffffffffffffffffff163373ffffffffffffffffffffffffffffffffffffffff1603610751576040517f08c379a000000000000000000000000000000000000000000000000000000000815260040161074890610fbc565b60405180910390fd5b600180600281111561076657610765610a78565b5b60025f9054906101000a900460ff16600281111561078757610786610a78565b5b146107c7576040517f08c379a00000000000000000000000000000000000000000000000000000000081526004016107be90610da3565b60405180910390fd5b670de0b6b3a76400003414610811576040517f08c379a000000000000000000000000000000000000000000000000000000000815260040161080890611024565b60405180910390fd5b5f151561081d33610934565b15151461085f576040517f08c379a0000000000000000000000000000000000000000000000000000000008152600401610856906110b2565b60405180910390fd5b600133908060018154018082558091505060019003905f5260205f20015f9091909190916101000a81548173ffffffffffffffffffffffffffffffffffffffff021916908373ffffffffffffffffffffffffffffffffffffffff1602179055507f4d999952f9aa655a216ee2df5968ca0e670e9582ddc96cfe7d8168114b8ca37f336040516108ee9190610b43565b60405180910390a150565b60018181548110610908575f80fd5b905f5260205f20015f915054906101000a900473ffffffffffffffffffffffffffffffffffffffff1681565b5f805f90505b6001805490508110156109cc578273ffffffffffffffffffffffffffffffffffffffff166001828154811061097257610971610ee2565b5b905f5260205f20015f9054906101000a900473ffffffffffffffffffffffffffffffffffffffff1673ffffffffffffffffffffffffffffffffffffffff16036109bf5760019150506109d1565b808060010191505061093a565b505f90505b919050565b828054828255905f5260205f20908101928215610a4c579160200282015b82811115610a4b578251825f6101000a81548173ffffffffffffffffffffffffffffffffffffffff021916908373ffffffffffffffffffffffffffffffffffffffff160217905550916020019190600101906109f4565b5b509050610a599190610a5d565b5090565b5b80821115610a74575f815f905550600101610a5e565b5090565b7f4e487b71000000000000000000000000000000000000000000000000000000005f52602160045260245ffd5b60038110610ab657610ab5610a78565b5b50565b5f819050610ac682610aa5565b919050565b5f610ad582610ab9565b9050919050565b610ae581610acb565b82525050565b5f602082019050610afe5f830184610adc565b92915050565b5f73ffffffffffffffffffffffffffffffffffffffff82169050919050565b5f610b2d82610b04565b9050919050565b610b3d81610b23565b82525050565b5f602082019050610b565f830184610b34565b92915050565b5f81519050919050565b5f82825260208201905092915050565b5f819050602082019050919050565b610b8e81610b23565b82525050565b5f610b9f8383610b85565b60208301905092915050565b5f602082019050919050565b5f610bc182610b5c565b610bcb8185610b66565b9350610bd683610b76565b805f5b83811015610c06578151610bed8882610b94565b9750610bf883610bab565b925050600181019050610bd9565b5085935050505092915050565b5f6020820190508181035f830152610c2b8184610bb7565b905092915050565b5f80fd5b5f819050919050565b610c4981610c37565b8114610c53575f80fd5b50565b5f81359050610c6481610c40565b92915050565b5f60208284031215610c7f57610c7e610c33565b5b5f610c8c84828501610c56565b91505092915050565b5f82825260208201905092915050565b7f4f6e6c79206d616e616765722063616e2063616c6c20746869732066756e63745f8201527f696f6e0000000000000000000000000000000000000000000000000000000000602082015250565b5f610cff602383610c95565b9150610d0a82610ca5565b604082019050919050565b5f6020820190508181035f830152610d2c81610cf3565b9050919050565b7f46756e6374696f6e206e6f7420616c6c6f77656420696e2063757272656e74205f8201527f7374617465000000000000000000000000000000000000000000000000000000602082015250565b5f610d8d602583610c95565b9150610d9882610d33565b604082019050919050565b5f6020820190508181035f830152610dba81610d81565b9050919050565b7f4e6f20706c617965727320696e20746865206c6f7474657279000000000000005f82015250565b5f610df5601983610c95565b9150610e0082610dc1565b602082019050919050565b5f6020820190508181035f830152610e2281610de9565b9050919050565b5f819050919050565b610e43610e3e82610c37565b610e29565b82525050565b5f610e548286610e32565b602082019150610e648285610e32565b602082019150610e748284610e32565b602082019150819050949350505050565b7f4e487b71000000000000000000000000000000000000000000000000000000005f52601260045260245ffd5b5f610ebc82610c37565b9150610ec783610c37565b925082610ed757610ed6610e85565b5b828206905092915050565b7f4e487b71000000000000000000000000000000000000000000000000000000005f52603260045260245ffd5b610f1881610c37565b82525050565b5f604082019050610f315f830185610b34565b610f3e6020830184610f0f565b9392505050565b7f4e487b71000000000000000000000000000000000000000000000000000000005f52604160045260245ffd5b7f4d616e616765722063616e6e6f7420656e74657220746865206c6f74746572795f82015250565b5f610fa6602083610c95565b9150610fb182610f72565b602082019050919050565b5f6020820190508181035f830152610fd381610f9a565b9050919050565b7f596f75206d7573742073656e642065786163746c7920312045746865720000005f82015250565b5f61100e601d83610c95565b915061101982610fda565b602082019050919050565b5f6020820190508181035f83015261103b81611002565b9050919050565b7f596f75206861766520616c726561647920656e746572656420746865206c6f745f8201527f7465727900000000000000000000000000000000000000000000000000000000602082015250565b5f61109c602483610c95565b91506110a782611042565b604082019050919050565b5f6020820190508181035f8301526110c981611090565b905091905056fea2646970667358221220564721fb2e4bd2ffac5bade85fb5f33df54d75e58fe9c1babe70a53296f938d364736f6c634300081a0033",
			"opcodes": "PUSH1 0x80 PUSH1 0x40 MSTORE CALLVALUE DUP1 ISZERO PUSH1 0xE JUMPI PUSH0 DUP1 REVERT JUMPDEST POP CALLER PUSH0 DUP1 PUSH2 0x100 EXP DUP2 SLOAD DUP2 PUSH20 0xFFFFFFFFFFFFFFFFFFFFFFFFFFFFFFFFFFFFFFFF MUL NOT AND SWAP1 DUP4 PUSH20 0xFFFFFFFFFFFFFFFFFFFFFFFFFFFFFFFFFFFFFFFF AND MUL OR SWAP1 SSTORE POP PUSH0 PUSH1 0x2 PUSH0 PUSH2 0x100 EXP DUP2 SLOAD DUP2 PUSH1 0xFF MUL NOT AND SWAP1 DUP4 PUSH1 0x2 DUP2 GT ISZERO PUSH1 0x6F JUMPI PUSH1 0x6E PUSH1 0x78 JUMP JUMPDEST JUMPDEST MUL OR SWAP1 SSTORE POP PUSH1 0xA5 JUMP JUMPDEST PUSH32 0x4E487B7100000000000000000000000000000000000000000000000000000000 PUSH0 MSTORE PUSH1 0x21 PUSH1 0x4 MSTORE PUSH1 0x24 PUSH0 REVERT JUMPDEST PUSH2 0x1106 DUP1 PUSH2 0xB2 PUSH0 CODECOPY PUSH0 RETURN INVALID PUSH1 0x80 PUSH1 0x40 MSTORE PUSH1 0x4 CALLDATASIZE LT PUSH2 0x6F JUMPI PUSH0 CALLDATALOAD PUSH1 0xE0 SHR DUP1 PUSH4 0x8412E667 GT PUSH2 0x4D JUMPI DUP1 PUSH4 0x8412E667 EQ PUSH2 0xDD JUMPI DUP1 PUSH4 0x8B5B9CCC EQ PUSH2 0xF3 JUMPI DUP1 PUSH4 0xE97DCB62 EQ PUSH2 0x11D JUMPI DUP1 PUSH4 0xF71D96CB EQ PUSH2 0x127 JUMPI PUSH2 0x6F JUMP JUMPDEST DUP1 PUSH4 0xC3F6ACF EQ PUSH2 0x73 JUMPI DUP1 PUSH4 0x481C6A75 EQ PUSH2 0x9D JUMPI DUP1 PUSH4 0x5D495AEA EQ PUSH2 0xC7 JUMPI JUMPDEST PUSH0 DUP1 REVERT JUMPDEST CALLVALUE DUP1 ISZERO PUSH2 0x7E JUMPI PUSH0 DUP1 REVERT JUMPDEST POP PUSH2 0x87 PUSH2 0x163 JUMP JUMPDEST PUSH1 0x40 MLOAD PUSH2 0x94 SWAP2 SWAP1 PUSH2 0xAEB JUMP JUMPDEST PUSH1 0x40 MLOAD DUP1 SWAP2 SUB SWAP1 RETURN JUMPDEST CALLVALUE DUP1 ISZERO PUSH2 0xA8 JUMPI PUSH0 DUP1 REVERT JUMPDEST POP PUSH2 0xB1 PUSH2 0x175 JUMP JUMPDEST PUSH1 0x40 MLOAD PUSH2 0xBE SWAP2 SWAP1 PUSH2 0xB43 JUMP JUMPDEST PUSH1 0x40 MLOAD DUP1 SWAP2 SUB SWAP1 RETURN JUMPDEST CALLVALUE DUP1 ISZERO PUSH2 0xD2 JUMPI PUSH0 DUP1 REVERT JUMPDEST POP PUSH2 0xDB PUSH2 0x198 JUMP JUMPDEST STOP JUMPDEST CALLVALUE DUP1 ISZERO PUSH2 0xE8 JUMPI PUSH0 DUP1 REVERT JUMPDEST POP PUSH2 0xF1 PUSH2 0x475 JUMP JUMPDEST STOP JUMPDEST CALLVALUE DUP1 ISZERO PUSH2 0xFE JUMPI PUSH0 DUP1 REVERT JUMPDEST POP PUSH2 0x107 PUSH2 0x639 JUMP JUMPDEST PUSH1 0x40 MLOAD PUSH2 0x114 SWAP2 SWAP1 PUSH2 0xC13 JUMP JUMPDEST PUSH1 0x40 MLOAD DUP1 SWAP2 SUB SWAP1 RETURN JUMPDEST PUSH2 0x125 PUSH2 0x6C4 JUMP JUMPDEST STOP JUMPDEST CALLVALUE DUP1 ISZERO PUSH2 0x132 JUMPI PUSH0 DUP1 REVERT JUMPDEST POP PUSH2 0x14D PUSH1 0x4 DUP1 CALLDATASIZE SUB DUP2 ADD SWAP1 PUSH2 0x148 SWAP2 SWAP1 PUSH2 0xC6A JUMP JUMPDEST PUSH2 0x8F9 JUMP JUMPDEST PUSH1 0x40 MLOAD PUSH2 0x15A SWAP2 SWAP1 PUSH2 0xB43 JUMP JUMPDEST PUSH1 0x40 MLOAD DUP1 SWAP2 SUB SWAP1 RETURN JUMPDEST PUSH1 0x2 PUSH0 SWAP1 SLOAD SWAP1 PUSH2 0x100 EXP SWAP1 DIV PUSH1 0xFF AND DUP2 JUMP JUMPDEST PUSH0 DUP1 SLOAD SWAP1 PUSH2 0x100 EXP SWAP1 DIV PUSH20 0xFFFFFFFFFFFFFFFFFFFFFFFFFFFFFFFFFFFFFFFF AND DUP2 JUMP JUMPDEST PUSH0 DUP1 SLOAD SWAP1 PUSH2 0x100 EXP SWAP1 DIV PUSH20 0xFFFFFFFFFFFFFFFFFFFFFFFFFFFFFFFFFFFFFFFF AND PUSH20 0xFFFFFFFFFFFFFFFFFFFFFFFFFFFFFFFFFFFFFFFF AND CALLER PUSH20 0xFFFFFFFFFFFFFFFFFFFFFFFFFFFFFFFFFFFFFFFF AND EQ PUSH2 0x225 JUMPI PUSH1 0x40 MLOAD PUSH32 0x8C379A000000000000000000000000000000000000000000000000000000000 DUP2 MSTORE PUSH1 0x4 ADD PUSH2 0x21C SWAP1 PUSH2 0xD15 JUMP JUMPDEST PUSH1 0x40 MLOAD DUP1 SWAP2 SUB SWAP1 REVERT JUMPDEST PUSH1 0x2 DUP1 PUSH1 0x2 DUP2 GT ISZERO PUSH2 0x23A JUMPI PUSH2 0x239 PUSH2 0xA78 JUMP JUMPDEST JUMPDEST PUSH1 0x2 PUSH0 SWAP1 SLOAD SWAP1 PUSH2 0x100 EXP SWAP1 DIV PUSH1 0xFF AND PUSH1 0x2 DUP2 GT ISZERO PUSH2 0x25B JUMPI PUSH2 0x25A PUSH2 0xA78 JUMP JUMPDEST JUMPDEST EQ PUSH2 0x29B JUMPI PUSH1 0x40 MLOAD PUSH32 0x8C379A000000000000000000000000000000000000000000000000000000000 DUP2 MSTORE PUSH1 0x4 ADD PUSH2 0x292 SWAP1 PUSH2 0xDA3 JUMP JUMPDEST PUSH1 0x40 MLOAD DUP1 SWAP2 SUB SWAP1 REVERT JUMPDEST PUSH0 PUSH1 0x1 DUP1 SLOAD SWAP1 POP GT PUSH2 0x2E2 JUMPI PUSH1 0x40 MLOAD PUSH32 0x8C379A000000000000000000000000000000000000000000000000000000000 DUP2 MSTORE PUSH1 0x4 ADD PUSH2 0x2D9 SWAP1 PUSH2 0xE0B JUMP JUMPDEST PUSH1 0x40 MLOAD DUP1 SWAP2 SUB SWAP1 REVERT JUMPDEST PUSH0 PUSH1 0x1 DUP1 SLOAD SWAP1 POP NUMBER TIMESTAMP PUSH1 0x1 DUP1 SLOAD SWAP1 POP PUSH1 0x40 MLOAD PUSH1 0x20 ADD PUSH2 0x303 SWAP4 SWAP3 SWAP2 SWAP1 PUSH2 0xE49 JUMP JUMPDEST PUSH1 0x40 MLOAD PUSH1 0x20 DUP2 DUP4 SUB SUB DUP2 MSTORE SWAP1 PUSH1 0x40 MSTORE DUP1 MLOAD SWAP1 PUSH1 0x20 ADD KECCAK256 PUSH0 SHR PUSH2 0x325 SWAP2 SWAP1 PUSH2 0xEB2 JUMP JUMPDEST SWAP1 POP PUSH0 PUSH1 0x1 DUP3 DUP2 SLOAD DUP2 LT PUSH2 0x33C JUMPI PUSH2 0x33B PUSH2 0xEE2 JUMP JUMPDEST JUMPDEST SWAP1 PUSH0 MSTORE PUSH1 0x20 PUSH0 KECCAK256 ADD PUSH0 SWAP1 SLOAD SWAP1 PUSH2 0x100 EXP SWAP1 DIV PUSH20 0xFFFFFFFFFFFFFFFFFFFFFFFFFFFFFFFFFFFFFFFF AND SWAP1 POP PUSH0 SELFBALANCE SWAP1 POP DUP2 PUSH20 0xFFFFFFFFFFFFFFFFFFFFFFFFFFFFFFFFFFFFFFFF AND PUSH2 0x8FC DUP3 SWAP1 DUP2 ISZERO MUL SWAP1 PUSH1 0x40 MLOAD PUSH0 PUSH1 0x40 MLOAD DUP1 DUP4 SUB DUP2 DUP6 DUP9 DUP9 CALL SWAP4 POP POP POP POP ISZERO DUP1 ISZERO PUSH2 0x3AD JUMPI RETURNDATASIZE PUSH0 DUP1 RETURNDATACOPY RETURNDATASIZE PUSH0 REVERT JUMPDEST POP PUSH32 0x64791DBAE5677392BA76761A5273633CEC8F1D9D8CFE808DA7BAC6EF16A880BE DUP3 DUP3 PUSH1 0x40 MLOAD PUSH2 0x3DF SWAP3 SWAP2 SWAP1 PUSH2 0xF1E JUMP JUMPDEST PUSH1 0x40 MLOAD DUP1 SWAP2 SUB SWAP1 LOG1 PUSH0 PUSH8 0xFFFFFFFFFFFFFFFF DUP2 GT ISZERO PUSH2 0x401 JUMPI PUSH2 0x400 PUSH2 0xF45 JUMP JUMPDEST JUMPDEST PUSH1 0x40 MLOAD SWAP1 DUP1 DUP3 MSTORE DUP1 PUSH1 0x20 MUL PUSH1 0x20 ADD DUP3 ADD PUSH1 0x40 MSTORE DUP1 ISZERO PUSH2 0x42F JUMPI DUP2 PUSH1 0x20 ADD PUSH1 0x20 DUP3 MUL DUP1 CALLDATASIZE DUP4 CALLDATACOPY DUP1 DUP3 ADD SWAP2 POP POP SWAP1 POP JUMPDEST POP PUSH1 0x1 SWAP1 DUP1 MLOAD SWAP1 PUSH1 0x20 ADD SWAP1 PUSH2 0x445 SWAP3 SWAP2 SWAP1 PUSH2 0x9D6 JUMP JUMPDEST POP PUSH1 0x2 DUP1 PUSH0 PUSH2 0x100 EXP DUP2 SLOAD DUP2 PUSH1 0xFF MUL NOT AND SWAP1 DUP4 PUSH1 0x2 DUP2 GT ISZERO PUSH2 0x46A JUMPI PUSH2 0x469 PUSH2 0xA78 JUMP JUMPDEST JUMPDEST MUL OR SWAP1 SSTORE POP POP POP POP POP JUMP JUMPDEST PUSH0 DUP1 SLOAD SWAP1 PUSH2 0x100 EXP SWAP1 DIV PUSH20 0xFFFFFFFFFFFFFFFFFFFFFFFFFFFFFFFFFFFFFFFF AND PUSH20 0xFFFFFFFFFFFFFFFFFFFFFFFFFFFFFFFFFFFFFFFF AND CALLER PUSH20 0xFFFFFFFFFFFFFFFFFFFFFFFFFFFFFFFFFFFFFFFF AND EQ PUSH2 0x502 JUMPI PUSH1 0x40 MLOAD PUSH32 0x8C379A000000000000000000000000000000000000000000000000000000000 DUP2 MSTORE PUSH1 0x4 ADD PUSH2 0x4F9 SWAP1 PUSH2 0xD15 JUMP JUMPDEST PUSH1 0x40 MLOAD DUP1 SWAP2 SUB SWAP1 REVERT JUMPDEST PUSH0 PUSH1 0x2 DUP2 GT ISZERO PUSH2 0x515 JUMPI PUSH2 0x514 PUSH2 0xA78 JUMP JUMPDEST JUMPDEST PUSH1 0x2 PUSH0 SWAP1 SLOAD SWAP1 PUSH2 0x100 EXP SWAP1 DIV PUSH1 0xFF AND PUSH1 0x2 DUP2 GT ISZERO PUSH2 0x536 JUMPI PUSH2 0x535 PUSH2 0xA78 JUMP JUMPDEST JUMPDEST SUB PUSH2 0x56A JUMPI PUSH1 0x1 PUSH1 0x2 PUSH0 PUSH2 0x100 EXP DUP2 SLOAD DUP2 PUSH1 0xFF MUL NOT AND SWAP1 DUP4 PUSH1 0x2 DUP2 GT ISZERO PUSH2 0x560 JUMPI PUSH2 0x55F PUSH2 0xA78 JUMP JUMPDEST JUMPDEST MUL OR SWAP1 SSTORE POP PUSH2 0x637 JUMP JUMPDEST PUSH1 0x1 PUSH1 0x2 DUP2 GT ISZERO PUSH2 0x57E JUMPI PUSH2 0x57D PUSH2 0xA78 JUMP JUMPDEST JUMPDEST PUSH1 0x2 PUSH0 SWAP1 SLOAD SWAP1 PUSH2 0x100 EXP SWAP1 DIV PUSH1 0xFF AND PUSH1 0x2 DUP2 GT ISZERO PUSH2 0x59F JUMPI PUSH2 0x59E PUSH2 0xA78 JUMP JUMPDEST JUMPDEST SUB PUSH2 0x5D2 JUMPI PUSH1 0x2 DUP1 PUSH0 PUSH2 0x100 EXP DUP2 SLOAD DUP2 PUSH1 0xFF MUL NOT AND SWAP1 DUP4 PUSH1 0x2 DUP2 GT ISZERO PUSH2 0x5C8 JUMPI PUSH2 0x5C7 PUSH2 0xA78 JUMP JUMPDEST JUMPDEST MUL OR SWAP1 SSTORE POP PUSH2 0x636 JUMP JUMPDEST PUSH1 0x2 DUP1 DUP2 GT ISZERO PUSH2 0x5E5 JUMPI PUSH2 0x5E4 PUSH2 0xA78 JUMP JUMPDEST JUMPDEST PUSH1 0x2 PUSH0 SWAP1 SLOAD SWAP1 PUSH2 0x100 EXP SWAP1 DIV PUSH1 0xFF AND PUSH1 0x2 DUP2 GT ISZERO PUSH2 0x606 JUMPI PUSH2 0x605 PUSH2 0xA78 JUMP JUMPDEST JUMPDEST SUB PUSH2 0x635 JUMPI PUSH0 PUSH1 0x2 PUSH0 PUSH2 0x100 EXP DUP2 SLOAD DUP2 PUSH1 0xFF MUL NOT AND SWAP1 DUP4 PUSH1 0x2 DUP2 GT ISZERO PUSH2 0x62F JUMPI PUSH2 0x62E PUSH2 0xA78 JUMP JUMPDEST JUMPDEST MUL OR SWAP1 SSTORE POP JUMPDEST JUMPDEST JUMPDEST JUMP JUMPDEST PUSH1 0x60 PUSH1 0x1 DUP1 SLOAD DUP1 PUSH1 0x20 MUL PUSH1 0x20 ADD PUSH1 0x40 MLOAD SWAP1 DUP2 ADD PUSH1 0x40 MSTORE DUP1 SWAP3 SWAP2 SWAP1 DUP2 DUP2 MSTORE PUSH1 0x20 ADD DUP3 DUP1 SLOAD DUP1 ISZERO PUSH2 0x6BA JUMPI PUSH1 0x20 MUL DUP3 ADD SWAP2 SWAP1 PUSH0 MSTORE PUSH1 0x20 PUSH0 KECCAK256 SWAP1 JUMPDEST DUP2 PUSH0 SWAP1 SLOAD SWAP1 PUSH2 0x100 EXP SWAP1 DIV PUSH20 0xFFFFFFFFFFFFFFFFFFFFFFFFFFFFFFFFFFFFFFFF AND PUSH20 0xFFFFFFFFFFFFFFFFFFFFFFFFFFFFFFFFFFFFFFFF AND DUP2 MSTORE PUSH1 0x20 ADD SWAP1 PUSH1 0x1 ADD SWAP1 DUP1 DUP4 GT PUSH2 0x671 JUMPI JUMPDEST POP POP POP POP POP SWAP1 POP SWAP1 JUMP JUMPDEST PUSH0 DUP1 SLOAD SWAP1 PUSH2 0x100 EXP SWAP1 DIV PUSH20 0xFFFFFFFFFFFFFFFFFFFFFFFFFFFFFFFFFFFFFFFF AND PUSH20 0xFFFFFFFFFFFFFFFFFFFFFFFFFFFFFFFFFFFFFFFF AND CALLER PUSH20 0xFFFFFFFFFFFFFFFFFFFFFFFFFFFFFFFFFFFFFFFF AND SUB PUSH2 0x751 JUMPI PUSH1 0x40 MLOAD PUSH32 0x8C379A000000000000000000000000000000000000000000000000000000000 DUP2 MSTORE PUSH1 0x4 ADD PUSH2 0x748 SWAP1 PUSH2 0xFBC JUMP JUMPDEST PUSH1 0x40 MLOAD DUP1 SWAP2 SUB SWAP1 REVERT JUMPDEST PUSH1 0x1 DUP1 PUSH1 0x2 DUP2 GT ISZERO PUSH2 0x766 JUMPI PUSH2 0x765 PUSH2 0xA78 JUMP JUMPDEST JUMPDEST PUSH1 0x2 PUSH0 SWAP1 SLOAD SWAP1 PUSH2 0x100 EXP SWAP1 DIV PUSH1 0xFF AND PUSH1 0x2 DUP2 GT ISZERO PUSH2 0x787 JUMPI PUSH2 0x786 PUSH2 0xA78 JUMP JUMPDEST JUMPDEST EQ PUSH2 0x7C7 JUMPI PUSH1 0x40 MLOAD PUSH32 0x8C379A000000000000000000000000000000000000000000000000000000000 DUP2 MSTORE PUSH1 0x4 ADD PUSH2 0x7BE SWAP1 PUSH2 0xDA3 JUMP JUMPDEST PUSH1 0x40 MLOAD DUP1 SWAP2 SUB SWAP1 REVERT JUMPDEST PUSH8 0xDE0B6B3A7640000 CALLVALUE EQ PUSH2 0x811 JUMPI PUSH1 0x40 MLOAD PUSH32 0x8C379A000000000000000000000000000000000000000000000000000000000 DUP2 MSTORE PUSH1 0x4 ADD PUSH2 0x808 SWAP1 PUSH2 0x1024 JUMP JUMPDEST PUSH1 0x40 MLOAD DUP1 SWAP2 SUB SWAP1 REVERT JUMPDEST PUSH0 ISZERO ISZERO PUSH2 0x81D CALLER PUSH2 0x934 JUMP JUMPDEST ISZERO ISZERO EQ PUSH2 0x85F JUMPI PUSH1 0x40 MLOAD PUSH32 0x8C379A000000000000000000000000000000000000000000000000000000000 DUP2 MSTORE PUSH1 0x4 ADD PUSH2 0x856 SWAP1 PUSH2 0x10B2 JUMP JUMPDEST PUSH1 0x40 MLOAD DUP1 SWAP2 SUB SWAP1 REVERT JUMPDEST PUSH1 0x1 CALLER SWAP1 DUP1 PUSH1 0x1 DUP2 SLOAD ADD DUP1 DUP3 SSTORE DUP1 SWAP2 POP POP PUSH1 0x1 SWAP1 SUB SWAP1 PUSH0 MSTORE PUSH1 0x20 PUSH0 KECCAK256 ADD PUSH0 SWAP1 SWAP2 SWAP1 SWAP2 SWAP1 SWAP2 PUSH2 0x100 EXP DUP2 SLOAD DUP2 PUSH20 0xFFFFFFFFFFFFFFFFFFFFFFFFFFFFFFFFFFFFFFFF MUL NOT AND SWAP1 DUP4 PUSH20 0xFFFFFFFFFFFFFFFFFFFFFFFFFFFFFFFFFFFFFFFF AND MUL OR SWAP1 SSTORE POP PUSH32 0x4D999952F9AA655A216EE2DF5968CA0E670E9582DDC96CFE7D8168114B8CA37F CALLER PUSH1 0x40 MLOAD PUSH2 0x8EE SWAP2 SWAP1 PUSH2 0xB43 JUMP JUMPDEST PUSH1 0x40 MLOAD DUP1 SWAP2 SUB SWAP1 LOG1 POP JUMP JUMPDEST PUSH1 0x1 DUP2 DUP2 SLOAD DUP2 LT PUSH2 0x908 JUMPI PUSH0 DUP1 REVERT JUMPDEST SWAP1 PUSH0 MSTORE PUSH1 0x20 PUSH0 KECCAK256 ADD PUSH0 SWAP2 POP SLOAD SWAP1 PUSH2 0x100 EXP SWAP1 DIV PUSH20 0xFFFFFFFFFFFFFFFFFFFFFFFFFFFFFFFFFFFFFFFF AND DUP2 JUMP JUMPDEST PUSH0 DUP1 PUSH0 SWAP1 POP JUMPDEST PUSH1 0x1 DUP1 SLOAD SWAP1 POP DUP2 LT ISZERO PUSH2 0x9CC JUMPI DUP3 PUSH20 0xFFFFFFFFFFFFFFFFFFFFFFFFFFFFFFFFFFFFFFFF AND PUSH1 0x1 DUP3 DUP2 SLOAD DUP2 LT PUSH2 0x972 JUMPI PUSH2 0x971 PUSH2 0xEE2 JUMP JUMPDEST JUMPDEST SWAP1 PUSH0 MSTORE PUSH1 0x20 PUSH0 KECCAK256 ADD PUSH0 SWAP1 SLOAD SWAP1 PUSH2 0x100 EXP SWAP1 DIV PUSH20 0xFFFFFFFFFFFFFFFFFFFFFFFFFFFFFFFFFFFFFFFF AND PUSH20 0xFFFFFFFFFFFFFFFFFFFFFFFFFFFFFFFFFFFFFFFF AND SUB PUSH2 0x9BF JUMPI PUSH1 0x1 SWAP2 POP POP PUSH2 0x9D1 JUMP JUMPDEST DUP1 DUP1 PUSH1 0x1 ADD SWAP2 POP POP PUSH2 0x93A JUMP JUMPDEST POP PUSH0 SWAP1 POP JUMPDEST SWAP2 SWAP1 POP JUMP JUMPDEST DUP3 DUP1 SLOAD DUP3 DUP3 SSTORE SWAP1 PUSH0 MSTORE PUSH1 0x20 PUSH0 KECCAK256 SWAP1 DUP2 ADD SWAP3 DUP3 ISZERO PUSH2 0xA4C JUMPI SWAP2 PUSH1 0x20 MUL DUP3 ADD JUMPDEST DUP3 DUP2 GT ISZERO PUSH2 0xA4B JUMPI DUP3 MLOAD DUP3 PUSH0 PUSH2 0x100 EXP DUP2 SLOAD DUP2 PUSH20 0xFFFFFFFFFFFFFFFFFFFFFFFFFFFFFFFFFFFFFFFF MUL NOT AND SWAP1 DUP4 PUSH20 0xFFFFFFFFFFFFFFFFFFFFFFFFFFFFFFFFFFFFFFFF AND MUL OR SWAP1 SSTORE POP SWAP2 PUSH1 0x20 ADD SWAP2 SWAP1 PUSH1 0x1 ADD SWAP1 PUSH2 0x9F4 JUMP JUMPDEST JUMPDEST POP SWAP1 POP PUSH2 0xA59 SWAP2 SWAP1 PUSH2 0xA5D JUMP JUMPDEST POP SWAP1 JUMP JUMPDEST JUMPDEST DUP1 DUP3 GT ISZERO PUSH2 0xA74 JUMPI PUSH0 DUP2 PUSH0 SWAP1 SSTORE POP PUSH1 0x1 ADD PUSH2 0xA5E JUMP JUMPDEST POP SWAP1 JUMP JUMPDEST PUSH32 0x4E487B7100000000000000000000000000000000000000000000000000000000 PUSH0 MSTORE PUSH1 0x21 PUSH1 0x4 MSTORE PUSH1 0x24 PUSH0 REVERT JUMPDEST PUSH1 0x3 DUP2 LT PUSH2 0xAB6 JUMPI PUSH2 0xAB5 PUSH2 0xA78 JUMP JUMPDEST JUMPDEST POP JUMP JUMPDEST PUSH0 DUP2 SWAP1 POP PUSH2 0xAC6 DUP3 PUSH2 0xAA5 JUMP JUMPDEST SWAP2 SWAP1 POP JUMP JUMPDEST PUSH0 PUSH2 0xAD5 DUP3 PUSH2 0xAB9 JUMP JUMPDEST SWAP1 POP SWAP2 SWAP1 POP JUMP JUMPDEST PUSH2 0xAE5 DUP2 PUSH2 0xACB JUMP JUMPDEST DUP3 MSTORE POP POP JUMP JUMPDEST PUSH0 PUSH1 0x20 DUP3 ADD SWAP1 POP PUSH2 0xAFE PUSH0 DUP4 ADD DUP5 PUSH2 0xADC JUMP JUMPDEST SWAP3 SWAP2 POP POP JUMP JUMPDEST PUSH0 PUSH20 0xFFFFFFFFFFFFFFFFFFFFFFFFFFFFFFFFFFFFFFFF DUP3 AND SWAP1 POP SWAP2 SWAP1 POP JUMP JUMPDEST PUSH0 PUSH2 0xB2D DUP3 PUSH2 0xB04 JUMP JUMPDEST SWAP1 POP SWAP2 SWAP1 POP JUMP JUMPDEST PUSH2 0xB3D DUP2 PUSH2 0xB23 JUMP JUMPDEST DUP3 MSTORE POP POP JUMP JUMPDEST PUSH0 PUSH1 0x20 DUP3 ADD SWAP1 POP PUSH2 0xB56 PUSH0 DUP4 ADD DUP5 PUSH2 0xB34 JUMP JUMPDEST SWAP3 SWAP2 POP POP JUMP JUMPDEST PUSH0 DUP2 MLOAD SWAP1 POP SWAP2 SWAP1 POP JUMP JUMPDEST PUSH0 DUP3 DUP3 MSTORE PUSH1 0x20 DUP3 ADD SWAP1 POP SWAP3 SWAP2 POP POP JUMP JUMPDEST PUSH0 DUP2 SWAP1 POP PUSH1 0x20 DUP3 ADD SWAP1 POP SWAP2 SWAP1 POP JUMP JUMPDEST PUSH2 0xB8E DUP2 PUSH2 0xB23 JUMP JUMPDEST DUP3 MSTORE POP POP JUMP JUMPDEST PUSH0 PUSH2 0xB9F DUP4 DUP4 PUSH2 0xB85 JUMP JUMPDEST PUSH1 0x20 DUP4 ADD SWAP1 POP SWAP3 SWAP2 POP POP JUMP JUMPDEST PUSH0 PUSH1 0x20 DUP3 ADD SWAP1 POP SWAP2 SWAP1 POP JUMP JUMPDEST PUSH0 PUSH2 0xBC1 DUP3 PUSH2 0xB5C JUMP JUMPDEST PUSH2 0xBCB DUP2 DUP6 PUSH2 0xB66 JUMP JUMPDEST SWAP4 POP PUSH2 0xBD6 DUP4 PUSH2 0xB76 JUMP JUMPDEST DUP1 PUSH0 JUMPDEST DUP4 DUP2 LT ISZERO PUSH2 0xC06 JUMPI DUP2 MLOAD PUSH2 0xBED DUP9 DUP3 PUSH2 0xB94 JUMP JUMPDEST SWAP8 POP PUSH2 0xBF8 DUP4 PUSH2 0xBAB JUMP JUMPDEST SWAP3 POP POP PUSH1 0x1 DUP2 ADD SWAP1 POP PUSH2 0xBD9 JUMP JUMPDEST POP DUP6 SWAP4 POP POP POP POP SWAP3 SWAP2 POP POP JUMP JUMPDEST PUSH0 PUSH1 0x20 DUP3 ADD SWAP1 POP DUP2 DUP2 SUB PUSH0 DUP4 ADD MSTORE PUSH2 0xC2B DUP2 DUP5 PUSH2 0xBB7 JUMP JUMPDEST SWAP1 POP SWAP3 SWAP2 POP POP JUMP JUMPDEST PUSH0 DUP1 REVERT JUMPDEST PUSH0 DUP2 SWAP1 POP SWAP2 SWAP1 POP JUMP JUMPDEST PUSH2 0xC49 DUP2 PUSH2 0xC37 JUMP JUMPDEST DUP2 EQ PUSH2 0xC53 JUMPI PUSH0 DUP1 REVERT JUMPDEST POP JUMP JUMPDEST PUSH0 DUP2 CALLDATALOAD SWAP1 POP PUSH2 0xC64 DUP2 PUSH2 0xC40 JUMP JUMPDEST SWAP3 SWAP2 POP POP JUMP JUMPDEST PUSH0 PUSH1 0x20 DUP3 DUP5 SUB SLT ISZERO PUSH2 0xC7F JUMPI PUSH2 0xC7E PUSH2 0xC33 JUMP JUMPDEST JUMPDEST PUSH0 PUSH2 0xC8C DUP5 DUP3 DUP6 ADD PUSH2 0xC56 JUMP JUMPDEST SWAP2 POP POP SWAP3 SWAP2 POP POP JUMP JUMPDEST PUSH0 DUP3 DUP3 MSTORE PUSH1 0x20 DUP3 ADD SWAP1 POP SWAP3 SWAP2 POP POP JUMP JUMPDEST PUSH32 0x4F6E6C79206D616E616765722063616E2063616C6C20746869732066756E6374 PUSH0 DUP3 ADD MSTORE PUSH32 0x696F6E0000000000000000000000000000000000000000000000000000000000 PUSH1 0x20 DUP3 ADD MSTORE POP JUMP JUMPDEST PUSH0 PUSH2 0xCFF PUSH1 0x23 DUP4 PUSH2 0xC95 JUMP JUMPDEST SWAP2 POP PUSH2 0xD0A DUP3 PUSH2 0xCA5 JUMP JUMPDEST PUSH1 0x40 DUP3 ADD SWAP1 POP SWAP2 SWAP1 POP JUMP JUMPDEST PUSH0 PUSH1 0x20 DUP3 ADD SWAP1 POP DUP2 DUP2 SUB PUSH0 DUP4 ADD MSTORE PUSH2 0xD2C DUP2 PUSH2 0xCF3 JUMP JUMPDEST SWAP1 POP SWAP2 SWAP1 POP JUMP JUMPDEST PUSH32 0x46756E6374696F6E206E6F7420616C6C6F77656420696E2063757272656E7420 PUSH0 DUP3 ADD MSTORE PUSH32 0x7374617465000000000000000000000000000000000000000000000000000000 PUSH1 0x20 DUP3 ADD MSTORE POP JUMP JUMPDEST PUSH0 PUSH2 0xD8D PUSH1 0x25 DUP4 PUSH2 0xC95 JUMP JUMPDEST SWAP2 POP PUSH2 0xD98 DUP3 PUSH2 0xD33 JUMP JUMPDEST PUSH1 0x40 DUP3 ADD SWAP1 POP SWAP2 SWAP1 POP JUMP JUMPDEST PUSH0 PUSH1 0x20 DUP3 ADD SWAP1 POP DUP2 DUP2 SUB PUSH0 DUP4 ADD MSTORE PUSH2 0xDBA DUP2 PUSH2 0xD81 JUMP JUMPDEST SWAP1 POP SWAP2 SWAP1 POP JUMP JUMPDEST PUSH32 0x4E6F20706C617965727320696E20746865206C6F747465727900000000000000 PUSH0 DUP3 ADD MSTORE POP JUMP JUMPDEST PUSH0 PUSH2 0xDF5 PUSH1 0x19 DUP4 PUSH2 0xC95 JUMP JUMPDEST SWAP2 POP PUSH2 0xE00 DUP3 PUSH2 0xDC1 JUMP JUMPDEST PUSH1 0x20 DUP3 ADD SWAP1 POP SWAP2 SWAP1 POP JUMP JUMPDEST PUSH0 PUSH1 0x20 DUP3 ADD SWAP1 POP DUP2 DUP2 SUB PUSH0 DUP4 ADD MSTORE PUSH2 0xE22 DUP2 PUSH2 0xDE9 JUMP JUMPDEST SWAP1 POP SWAP2 SWAP1 POP JUMP JUMPDEST PUSH0 DUP2 SWAP1 POP SWAP2 SWAP1 POP JUMP JUMPDEST PUSH2 0xE43 PUSH2 0xE3E DUP3 PUSH2 0xC37 JUMP JUMPDEST PUSH2 0xE29 JUMP JUMPDEST DUP3 MSTORE POP POP JUMP JUMPDEST PUSH0 PUSH2 0xE54 DUP3 DUP7 PUSH2 0xE32 JUMP JUMPDEST PUSH1 0x20 DUP3 ADD SWAP2 POP PUSH2 0xE64 DUP3 DUP6 PUSH2 0xE32 JUMP JUMPDEST PUSH1 0x20 DUP3 ADD SWAP2 POP PUSH2 0xE74 DUP3 DUP5 PUSH2 0xE32 JUMP JUMPDEST PUSH1 0x20 DUP3 ADD SWAP2 POP DUP2 SWAP1 POP SWAP5 SWAP4 POP POP POP POP JUMP JUMPDEST PUSH32 0x4E487B7100000000000000000000000000000000000000000000000000000000 PUSH0 MSTORE PUSH1 0x12 PUSH1 0x4 MSTORE PUSH1 0x24 PUSH0 REVERT JUMPDEST PUSH0 PUSH2 0xEBC DUP3 PUSH2 0xC37 JUMP JUMPDEST SWAP2 POP PUSH2 0xEC7 DUP4 PUSH2 0xC37 JUMP JUMPDEST SWAP3 POP DUP3 PUSH2 0xED7 JUMPI PUSH2 0xED6 PUSH2 0xE85 JUMP JUMPDEST JUMPDEST DUP3 DUP3 MOD SWAP1 POP SWAP3 SWAP2 POP POP JUMP JUMPDEST PUSH32 0x4E487B7100000000000000000000000000000000000000000000000000000000 PUSH0 MSTORE PUSH1 0x32 PUSH1 0x4 MSTORE PUSH1 0x24 PUSH0 REVERT JUMPDEST PUSH2 0xF18 DUP2 PUSH2 0xC37 JUMP JUMPDEST DUP3 MSTORE POP POP JUMP JUMPDEST PUSH0 PUSH1 0x40 DUP3 ADD SWAP1 POP PUSH2 0xF31 PUSH0 DUP4 ADD DUP6 PUSH2 0xB34 JUMP JUMPDEST PUSH2 0xF3E PUSH1 0x20 DUP4 ADD DUP5 PUSH2 0xF0F JUMP JUMPDEST SWAP4 SWAP3 POP POP POP JUMP JUMPDEST PUSH32 0x4E487B7100000000000000000000000000000000000000000000000000000000 PUSH0 MSTORE PUSH1 0x41 PUSH1 0x4 MSTORE PUSH1 0x24 PUSH0 REVERT JUMPDEST PUSH32 0x4D616E616765722063616E6E6F7420656E74657220746865206C6F7474657279 PUSH0 DUP3 ADD MSTORE POP JUMP JUMPDEST PUSH0 PUSH2 0xFA6 PUSH1 0x20 DUP4 PUSH2 0xC95 JUMP JUMPDEST SWAP2 POP PUSH2 0xFB1 DUP3 PUSH2 0xF72 JUMP JUMPDEST PUSH1 0x20 DUP3 ADD SWAP1 POP SWAP2 SWAP1 POP JUMP JUMPDEST PUSH0 PUSH1 0x20 DUP3 ADD SWAP1 POP DUP2 DUP2 SUB PUSH0 DUP4 ADD MSTORE PUSH2 0xFD3 DUP2 PUSH2 0xF9A JUMP JUMPDEST SWAP1 POP SWAP2 SWAP1 POP JUMP JUMPDEST PUSH32 0x596F75206D7573742073656E642065786163746C792031204574686572000000 PUSH0 DUP3 ADD MSTORE POP JUMP JUMPDEST PUSH0 PUSH2 0x100E PUSH1 0x1D DUP4 PUSH2 0xC95 JUMP JUMPDEST SWAP2 POP PUSH2 0x1019 DUP3 PUSH2 0xFDA JUMP JUMPDEST PUSH1 0x20 DUP3 ADD SWAP1 POP SWAP2 SWAP1 POP JUMP JUMPDEST PUSH0 PUSH1 0x20 DUP3 ADD SWAP1 POP DUP2 DUP2 SUB PUSH0 DUP4 ADD MSTORE PUSH2 0x103B DUP2 PUSH2 0x1002 JUMP JUMPDEST SWAP1 POP SWAP2 SWAP1 POP JUMP JUMPDEST PUSH32 0x596F75206861766520616C726561647920656E746572656420746865206C6F74 PUSH0 DUP3 ADD MSTORE PUSH32 0x7465727900000000000000000000000000000000000000000000000000000000 PUSH1 0x20 DUP3 ADD MSTORE POP JUMP JUMPDEST PUSH0 PUSH2 0x109C PUSH1 0x24 DUP4 PUSH2 0xC95 JUMP JUMPDEST SWAP2 POP PUSH2 0x10A7 DUP3 PUSH2 0x1042 JUMP JUMPDEST PUSH1 0x40 DUP3 ADD SWAP1 POP SWAP2 SWAP1 POP JUMP JUMPDEST PUSH0 PUSH1 0x20 DUP3 ADD SWAP1 POP DUP2 DUP2 SUB PUSH0 DUP4 ADD MSTORE PUSH2 0x10C9 DUP2 PUSH2 0x1090 JUMP JUMPDEST SWAP1 POP SWAP2 SWAP1 POP JUMP INVALID LOG2 PUSH5 0x6970667358 0x22 SLT KECCAK256 JUMP SELFBALANCE 0x21 0xFB 0x2E 0x4B 0xD2 SELFDESTRUCT 0xAC JUMPDEST 0xAD 0xE8 PUSH0 0xB5 RETURN RETURNDATASIZE CREATE2 0x4D PUSH22 0xE58FE9C1BABE70A53296F938D364736F6C634300081A STOP CALLER "
		},
		"gasEstimates": {
			"creation": {
				"codeDepositCost": "871600",
				"executionCost": "49469",
				"totalCost": "921069"
			},
			"external": {
				"changeState()": "33225",
				"currentState()": "2555",
				"enter()": "infinite",
				"getPlayers()": "infinite",
				"manager()": "2528",
				"pickWinner()": "infinite",
				"players(uint256)": "5010"
			},
			"internal": {
				"hasEntered(address)": "infinite"
			}
		},
		"methodIdentifiers": {
			"changeState()": "8412e667",
			"currentState()": "0c3f6acf",
			"enter()": "e97dcb62",
			"getPlayers()": "8b5b9ccc",
			"manager()": "481c6a75",
			"pickWinner()": "5d495aea",
			"players(uint256)": "f71d96cb"
		}
	},
	"abi": [
		{
			"inputs": [],
			"stateMutability": "nonpayable",
			"type": "constructor"
		},
		{
			"anonymous": false,
			"inputs": [
				{
					"indexed": false,
					"internalType": "address",
					"name": "player",
					"type": "address"
				}
			],
			"name": "PlayerEntered",
			"type": "event"
		},
		{
			"anonymous": false,
			"inputs": [
				{
					"indexed": false,
					"internalType": "address",
					"name": "winner",
					"type": "address"
				},
				{
					"indexed": false,
					"internalType": "uint256",
					"name": "amount",
					"type": "uint256"
				}
			],
			"name": "WinnerPicked",
			"type": "event"
		},
		{
			"inputs": [],
			"name": "changeState",
			"outputs": [],
			"stateMutability": "nonpayable",
			"type": "function"
		},
		{
			"inputs": [],
			"name": "currentState",
			"outputs": [
				{
					"internalType": "enum Lottery.State",
					"name": "",
					"type": "uint8"
				}
			],
			"stateMutability": "view",
			"type": "function"
		},
		{
			"inputs": [],
			"name": "enter",
			"outputs": [],
			"stateMutability": "payable",
			"type": "function"
		},
		{
			"inputs": [],
			"name": "getPlayers",
			"outputs": [
				{
					"internalType": "address[]",
					"name": "",
					"type": "address[]"
				}
			],
			"stateMutability": "view",
			"type": "function"
		},
		{
			"inputs": [],
			"name": "manager",
			"outputs": [
				{
					"internalType": "address",
					"name": "",
					"type": "address"
				}
			],
			"stateMutability": "view",
			"type": "function"
		},
		{
			"inputs": [],
			"name": "pickWinner",
			"outputs": [],
			"stateMutability": "nonpayable",
			"type": "function"
		},
		{
			"inputs": [
				{
					"internalType": "uint256",
					"name": "",
					"type": "uint256"
				}
			],
			"name": "players",
			"outputs": [
				{
					"internalType": "address",
					"name": "",
					"type": "address"
				}
			],
			"stateMutability": "view",
			"type": "function"
		}
	]
}